{
  "contractName": "AmendmentPoll",
  "abi": [
    {
      "constant": true,
      "inputs": [],
      "name": "totalInFavor",
      "outputs": [
        {
          "name": "",
          "type": "uint256"
        }
      ],
      "payable": false,
      "stateMutability": "view",
      "type": "function"
    },
    {
      "constant": true,
      "inputs": [],
      "name": "currentPollId",
      "outputs": [
        {
          "name": "",
          "type": "uint256"
        }
      ],
      "payable": false,
      "stateMutability": "view",
      "type": "function"
    },
    {
      "constant": true,
      "inputs": [],
      "name": "totalAgainstWeighted",
      "outputs": [
        {
          "name": "",
          "type": "uint256"
        }
      ],
      "payable": false,
      "stateMutability": "view",
      "type": "function"
    },
    {
      "constant": false,
      "inputs": [],
      "name": "renounceOwnership",
      "outputs": [],
      "payable": false,
      "stateMutability": "nonpayable",
      "type": "function"
    },
    {
      "constant": true,
      "inputs": [],
      "name": "owner",
      "outputs": [
        {
          "name": "",
          "type": "address"
        }
      ],
      "payable": false,
      "stateMutability": "view",
      "type": "function"
    },
    {
      "constant": true,
      "inputs": [],
      "name": "totalInFavorWeighted",
      "outputs": [
        {
          "name": "",
          "type": "uint256"
        }
      ],
      "payable": false,
      "stateMutability": "view",
      "type": "function"
    },
    {
      "constant": true,
      "inputs": [],
      "name": "_owner",
      "outputs": [
        {
          "name": "",
          "type": "address"
        }
      ],
      "payable": false,
      "stateMutability": "view",
      "type": "function"
    },
    {
      "constant": true,
      "inputs": [],
      "name": "totalAgainst",
      "outputs": [
        {
          "name": "",
          "type": "uint256"
        }
      ],
      "payable": false,
      "stateMutability": "view",
      "type": "function"
    },
    {
      "constant": false,
      "inputs": [
        {
          "name": "_newOwner",
          "type": "address"
        }
      ],
      "name": "transferOwnership",
      "outputs": [],
      "payable": false,
      "stateMutability": "nonpayable",
      "type": "function"
    },
    {
      "inputs": [
        {
          "name": "_token",
          "type": "address"
        }
      ],
      "payable": false,
      "stateMutability": "nonpayable",
      "type": "constructor"
    },
    {
      "anonymous": false,
      "inputs": [
        {
          "indexed": true,
          "name": "previousOwner",
          "type": "address"
        }
      ],
      "name": "OwnershipRenounced",
      "type": "event"
    },
    {
      "anonymous": false,
      "inputs": [
        {
          "indexed": true,
          "name": "previousOwner",
          "type": "address"
        },
        {
          "indexed": true,
          "name": "newOwner",
          "type": "address"
        }
      ],
      "name": "OwnershipTransferred",
      "type": "event"
    },
    {
      "constant": true,
      "inputs": [],
      "name": "proposalsPassed",
      "outputs": [
        {
          "name": "",
          "type": "bool"
        }
      ],
      "payable": false,
      "stateMutability": "view",
      "type": "function"
    },
    {
      "constant": true,
      "inputs": [],
      "name": "proposalsFailed",
      "outputs": [
        {
          "name": "",
          "type": "bool"
        }
      ],
      "payable": false,
      "stateMutability": "view",
      "type": "function"
    },
    {
      "constant": true,
      "inputs": [],
      "name": "open",
      "outputs": [
        {
          "name": "",
          "type": "bool"
        }
      ],
      "payable": false,
      "stateMutability": "view",
      "type": "function"
    },
    {
      "constant": false,
      "inputs": [],
      "name": "openPoll",
      "outputs": [],
      "payable": false,
      "stateMutability": "nonpayable",
      "type": "function"
    },
    {
      "constant": false,
      "inputs": [
        {
          "name": "inFavor",
          "type": "bool"
        }
      ],
      "name": "castVote",
      "outputs": [],
      "payable": false,
      "stateMutability": "nonpayable",
      "type": "function"
    }
  ],
  "bytecode": "0x60806040526c7e37be2022c0914b268000000060095534801561002157600080fd5b50604051602080610d4d83398101806040528101908080519060200190929190505050336000806101000a81548173ffffffffffffffffffffffffffffffffffffffff021916908373ffffffffffffffffffffffffffffffffffffffff16021790555080600260006101000a81548173ffffffffffffffffffffffffffffffffffffffff021916908373ffffffffffffffffffffffffffffffffffffffff16021790555050610c78806100d56000396000f3006080604052600436106100d0576000357c0100000000000000000000000000000000000000000000000000000000900463ffffffff168063255b5a21146100d55780634017605814610100578063480aa654146101175780636c2626a5146101425780636ecb724414610171578063715018a61461019c5780637ace48e7146101b35780638da5cb5b146101e257806392d4707814610239578063b2bdfa7b14610264578063cb84b7d0146102bb578063de15e288146102ea578063f2fde38b14610315578063fcfff16f14610358575b600080fd5b3480156100e157600080fd5b506100ea610387565b6040518082815260200191505060405180910390f35b34801561010c57600080fd5b5061011561038d565b005b34801561012357600080fd5b5061012c610438565b6040518082815260200191505060405180910390f35b34801561014e57600080fd5b5061015761043e565b604051808215151515815260200191505060405180910390f35b34801561017d57600080fd5b50610186610558565b6040518082815260200191505060405180910390f35b3480156101a857600080fd5b506101b161055e565b005b3480156101bf57600080fd5b506101e0600480360381019080803515159060200190929190505050610660565b005b3480156101ee57600080fd5b506101f76108d7565b604051808273ffffffffffffffffffffffffffffffffffffffff1673ffffffffffffffffffffffffffffffffffffffff16815260200191505060405180910390f35b34801561024557600080fd5b5061024e6108fc565b6040518082815260200191505060405180910390f35b34801561027057600080fd5b50610279610902565b604051808273ffffffffffffffffffffffffffffffffffffffff1673ffffffffffffffffffffffffffffffffffffffff16815260200191505060405180910390f35b3480156102c757600080fd5b506102d061092b565b604051808215151515815260200191505060405180910390f35b3480156102f657600080fd5b506102ff610a46565b6040518082815260200191505060405180910390f35b34801561032157600080fd5b50610356600480360381019080803573ffffffffffffffffffffffffffffffffffffffff169060200190929190505050610a4c565b005b34801561036457600080fd5b5061036d610abb565b604051808215151515815260200191505060405180910390f35b60075481565b610395610c3e565b6000809054906101000a900473ffffffffffffffffffffffffffffffffffffffff1673ffffffffffffffffffffffffffffffffffffffff163373ffffffffffffffffffffffffffffffffffffffff161415156103f057600080fd5b600060058190555060006006819055506104166001600354610ada90919063ffffffff16565b6003819055508060046000600354815260200190815260200160002090505050565b60035481565b600061053b600a61052d600861051f600954600260009054906101000a900473ffffffffffffffffffffffffffffffffffffffff1673ffffffffffffffffffffffffffffffffffffffff166318160ddd6040518163ffffffff167c0100000000000000000000000000000000000000000000000000000000028152600401602060405180830381600087803b1580156104d657600080fd5b505af11580156104ea573d6000803e3d6000fd5b505050506040513d602081101561050057600080fd5b8101908080519060200190929190505050610af690919063ffffffff16565b610af690919063ffffffff16565b610b2e90919063ffffffff16565b610552600954600554610af690919063ffffffff16565b11905090565b60065481565b6000809054906101000a900473ffffffffffffffffffffffffffffffffffffffff1673ffffffffffffffffffffffffffffffffffffffff163373ffffffffffffffffffffffffffffffffffffffff161415156105b957600080fd5b6000809054906101000a900473ffffffffffffffffffffffffffffffffffffffff1673ffffffffffffffffffffffffffffffffffffffff167ff8df31144d9c2f0f6b59d69b8b98abd5459d07f2742c4df920b25aae33c6482060405160405180910390a260008060006101000a81548173ffffffffffffffffffffffffffffffffffffffff021916908373ffffffffffffffffffffffffffffffffffffffff160217905550565b6000806003541415151561067357600080fd5b60046000600354815260200190815260200160002060000160003373ffffffffffffffffffffffffffffffffffffffff1673ffffffffffffffffffffffffffffffffffffffff16815260200190815260200160002060009054906101000a900460ff161515156106e257600080fd5b600260009054906101000a900473ffffffffffffffffffffffffffffffffffffffff1673ffffffffffffffffffffffffffffffffffffffff166370a08231336040518263ffffffff167c0100000000000000000000000000000000000000000000000000000000028152600401808273ffffffffffffffffffffffffffffffffffffffff1673ffffffffffffffffffffffffffffffffffffffff168152602001915050602060405180830381600087803b15801561079f57600080fd5b505af11580156107b3573d6000803e3d6000fd5b505050506040513d60208110156107c957600080fd5b810190808051906020019092919050505090506000811115156107eb57600080fd5b811561082d5761080681600554610ada90919063ffffffff16565b6005819055506108226001600754610ada90919063ffffffff16565b600781905550610865565b61084281600654610ada90919063ffffffff16565b60068190555061085e6001600854610ada90919063ffffffff16565b6008819055505b600160046000600354815260200190815260200160002060000160003373ffffffffffffffffffffffffffffffffffffffff1673ffffffffffffffffffffffffffffffffffffffff16815260200190815260200160002060006101000a81548160ff0219169083151502179055505050565b6000809054906101000a900473ffffffffffffffffffffffffffffffffffffffff1681565b60055481565b60008060009054906101000a900473ffffffffffffffffffffffffffffffffffffffff16905090565b6000610a28600a610a1a6002610a0c600954600260009054906101000a900473ffffffffffffffffffffffffffffffffffffffff1673ffffffffffffffffffffffffffffffffffffffff166318160ddd6040518163ffffffff167c0100000000000000000000000000000000000000000000000000000000028152600401602060405180830381600087803b1580156109c357600080fd5b505af11580156109d7573d6000803e3d6000fd5b505050506040513d60208110156109ed57600080fd5b8101908080519060200190929190505050610af690919063ffffffff16565b610af690919063ffffffff16565b610b2e90919063ffffffff16565b610a3f600954600654610af690919063ffffffff16565b1015905090565b60085481565b6000809054906101000a900473ffffffffffffffffffffffffffffffffffffffff1673ffffffffffffffffffffffffffffffffffffffff163373ffffffffffffffffffffffffffffffffffffffff16141515610aa757600080fd5b6005600181905550610ab881610b44565b50565b6000610ac561092b565b80610ad45750610ad361043e565b5b15905090565b60008183019050828110151515610aed57fe5b80905092915050565b600080831415610b095760009050610b28565b8183029050818382811515610b1a57fe5b04141515610b2457fe5b8090505b92915050565b60008183811515610b3b57fe5b04905092915050565b600073ffffffffffffffffffffffffffffffffffffffff168173ffffffffffffffffffffffffffffffffffffffff1614151515610b8057600080fd5b8073ffffffffffffffffffffffffffffffffffffffff166000809054906101000a900473ffffffffffffffffffffffffffffffffffffffff1673ffffffffffffffffffffffffffffffffffffffff167f8be0079c531659141344cd1fd0a4f28419497f9722a3daafe3b4186f6b6457e060405160405180910390a3806000806101000a81548173ffffffffffffffffffffffffffffffffffffffff021916908373ffffffffffffffffffffffffffffffffffffffff16021790555050565b6020604051908101604052905600a165627a7a72305820f2684cf216132baf583e16073eee34d9929e29339d16e2b2862d724b119c23500029",
  "source": "pragma solidity >=0.4.22 <0.6.0;\nimport './utility/Ownable.sol';\nimport './utility/SafeMath.sol';\nimport './token/ActiveToken.sol';\n\ncontract AmendmentPoll is Ownable {\n  using SafeMath for uint256;\n  ActiveToken token;\n\n  constructor (ActiveToken _token) public {\n    token = _token;\n  }\n\n  struct VoteRecord {\n    mapping(address => bool) voteCast;\n  }\n\n  uint256 public currentPollId;\n  mapping(uint256 => VoteRecord) voteRecordByPoll;\n  uint256 public totalInFavorWeighted;\n  uint256 public totalAgainstWeighted;\n  uint256 public totalInFavor;\n  uint256 public totalAgainst;\n\n  uint256 private voteMultiplier = 10e30;\n\n  function proposalsPassed () public view returns (bool) {\n    return totalInFavorWeighted.mul(voteMultiplier) > token.totalSupply().mul(voteMultiplier).mul(8).div(10);\n  }\n\n  function proposalsFailed () public view returns (bool) {\n    return totalAgainstWeighted.mul(voteMultiplier) >= token.totalSupply().mul(voteMultiplier).mul(2).div(10);\n  }\n\n  function open () public view returns (bool) {\n    return !(proposalsFailed() || proposalsPassed());\n  }\n\n  function openPoll () external onlyOwner {\n    totalInFavorWeighted = 0;\n    totalAgainstWeighted = 0;\n    currentPollId = currentPollId.add(1);\n    VoteRecord memory newVoteRecord;\n    voteRecordByPoll[currentPollId] = newVoteRecord;\n  }\n\n  function castVote (bool inFavor) external {\n    require(currentPollId != 0);\n    require(!voteRecordByPoll[currentPollId].voteCast[msg.sender]);\n\n    uint256 voteAmount = token.balanceOf(msg.sender);\n\n    require(voteAmount > 0);\n\n    if (inFavor) {\n      totalInFavorWeighted = totalInFavorWeighted.add(voteAmount);\n      totalInFavor = totalInFavor.add(1);\n    }\n    else {\n      totalAgainstWeighted = totalAgainstWeighted.add(voteAmount);\n      totalAgainst = totalAgainst.add(1);\n    }\n\n    voteRecordByPoll[currentPollId].voteCast[msg.sender] = true;\n  }\n}\n",
  "sourcePath": "F:\\Projects\\genie\\genie-portal\\truffle\\contracts\\AmendmentPoll.sol",
  "compiler": {
    "name": "solc",
    "version": "0.4.24+commit.e67f0147.Emscripten.clang"
  },
  "schemaVersion": "2.0.1",
  "updatedAt": "2022-03-01T23:20:04.101Z"
}