{
  "contractName": "AmendmentModificationProposal",
  "abi": [
    {
      "constant": true,
      "inputs": [],
      "name": "amendmentPoll",
      "outputs": [
        {
          "name": "",
          "type": "address"
        }
      ],
      "payable": false,
      "stateMutability": "view",
      "type": "function"
    },
    {
      "constant": true,
      "inputs": [
        {
          "name": "",
          "type": "uint256"
        }
      ],
      "name": "modificationByCoAmendment",
      "outputs": [
        {
          "name": "newAmendment",
          "type": "address"
        },
        {
          "name": "executed",
          "type": "bool"
        },
        {
          "name": "exists",
          "type": "bool"
        }
      ],
      "payable": false,
      "stateMutability": "view",
      "type": "function"
    },
    {
      "constant": true,
      "inputs": [],
      "name": "amendmentId",
      "outputs": [
        {
          "name": "",
          "type": "uint256"
        }
      ],
      "payable": false,
      "stateMutability": "view",
      "type": "function"
    },
    {
      "constant": false,
      "inputs": [],
      "name": "renounceOwnership",
      "outputs": [],
      "payable": false,
      "stateMutability": "nonpayable",
      "type": "function"
    },
    {
      "constant": true,
      "inputs": [],
      "name": "totalModificationsExecuted",
      "outputs": [
        {
          "name": "",
          "type": "uint256"
        }
      ],
      "payable": false,
      "stateMutability": "view",
      "type": "function"
    },
    {
      "constant": true,
      "inputs": [],
      "name": "owner",
      "outputs": [
        {
          "name": "",
          "type": "address"
        }
      ],
      "payable": false,
      "stateMutability": "view",
      "type": "function"
    },
    {
      "constant": true,
      "inputs": [],
      "name": "totalModifications",
      "outputs": [
        {
          "name": "",
          "type": "uint256"
        }
      ],
      "payable": false,
      "stateMutability": "view",
      "type": "function"
    },
    {
      "constant": true,
      "inputs": [],
      "name": "_owner",
      "outputs": [
        {
          "name": "",
          "type": "address"
        }
      ],
      "payable": false,
      "stateMutability": "view",
      "type": "function"
    },
    {
      "constant": false,
      "inputs": [
        {
          "name": "_newOwner",
          "type": "address"
        }
      ],
      "name": "transferOwnership",
      "outputs": [],
      "payable": false,
      "stateMutability": "nonpayable",
      "type": "function"
    },
    {
      "inputs": [
        {
          "name": "_amendmentId",
          "type": "uint256"
        },
        {
          "name": "_amendmentPoll",
          "type": "address"
        },
        {
          "name": "_developer",
          "type": "address"
        }
      ],
      "payable": false,
      "stateMutability": "nonpayable",
      "type": "constructor"
    },
    {
      "anonymous": false,
      "inputs": [
        {
          "indexed": true,
          "name": "previousOwner",
          "type": "address"
        }
      ],
      "name": "OwnershipRenounced",
      "type": "event"
    },
    {
      "anonymous": false,
      "inputs": [
        {
          "indexed": true,
          "name": "previousOwner",
          "type": "address"
        },
        {
          "indexed": true,
          "name": "newOwner",
          "type": "address"
        }
      ],
      "name": "OwnershipTransferred",
      "type": "event"
    },
    {
      "constant": false,
      "inputs": [
        {
          "name": "coAmendmentId",
          "type": "uint256"
        },
        {
          "name": "newCoAmendment",
          "type": "address"
        }
      ],
      "name": "addModification",
      "outputs": [],
      "payable": false,
      "stateMutability": "nonpayable",
      "type": "function"
    },
    {
      "constant": false,
      "inputs": [
        {
          "name": "coAmendmentId",
          "type": "uint256"
        }
      ],
      "name": "executeModification",
      "outputs": [],
      "payable": false,
      "stateMutability": "nonpayable",
      "type": "function"
    }
  ],
  "bytecode": "0x608060405234801561001057600080fd5b50604051606080610d51833981018060405281019080805190602001909291908051906020019092919080519060200190929190505050336000806101000a81548173ffffffffffffffffffffffffffffffffffffffff021916908373ffffffffffffffffffffffffffffffffffffffff1602179055508260028190555081600360006101000a81548173ffffffffffffffffffffffffffffffffffffffff021916908373ffffffffffffffffffffffffffffffffffffffff16021790555080600460006101000a81548173ffffffffffffffffffffffffffffffffffffffff021916908373ffffffffffffffffffffffffffffffffffffffff160217905550505050610c2f806101226000396000f3006080604052600436106100af576000357c0100000000000000000000000000000000000000000000000000000000900463ffffffff1680630cdfe338146100b457806338994969146100e15780634ddeafb71461012e57806354bca3b214610185578063679ba61c14610208578063715018a61461023357806382234add1461024a5780638da5cb5b146102755780638dcba032146102cc578063b2bdfa7b146102f7578063f2fde38b1461034e575b600080fd5b3480156100c057600080fd5b506100df60048036038101908080359060200190929190505050610391565b005b3480156100ed57600080fd5b5061012c60048036038101908080359060200190929190803573ffffffffffffffffffffffffffffffffffffffff169060200190929190505050610547565b005b34801561013a57600080fd5b50610143610856565b604051808273ffffffffffffffffffffffffffffffffffffffff1673ffffffffffffffffffffffffffffffffffffffff16815260200191505060405180910390f35b34801561019157600080fd5b506101b06004803603810190808035906020019092919050505061087c565b604051808473ffffffffffffffffffffffffffffffffffffffff1673ffffffffffffffffffffffffffffffffffffffff1681526020018315151515815260200182151515158152602001935050505060405180910390f35b34801561021457600080fd5b5061021d6108e0565b6040518082815260200191505060405180910390f35b34801561023f57600080fd5b506102486108e6565b005b34801561025657600080fd5b5061025f6109e8565b6040518082815260200191505060405180910390f35b34801561028157600080fd5b5061028a6109ee565b604051808273ffffffffffffffffffffffffffffffffffffffff1673ffffffffffffffffffffffffffffffffffffffff16815260200191505060405180910390f35b3480156102d857600080fd5b506102e1610a13565b6040518082815260200191505060405180910390f35b34801561030357600080fd5b5061030c610a19565b604051808273ffffffffffffffffffffffffffffffffffffffff1673ffffffffffffffffffffffffffffffffffffffff16815260200191505060405180910390f35b34801561035a57600080fd5b5061038f600480360381019080803573ffffffffffffffffffffffffffffffffffffffff169060200190929190505050610a42565b005b6000806007600084815260200190815260200160002060000160159054906101000a900460ff1615156103c357600080fd5b60006007600085815260200190815260200160002060000160156101000a81548160ff0219169083151502179055506104086001600654610ab190919063ffffffff16565b6006819055506007600084815260200190815260200160002060000160009054906101000a900473ffffffffffffffffffffffffffffffffffffffff1691506005546006541490506000809054906101000a900473ffffffffffffffffffffffffffffffffffffffff1673ffffffffffffffffffffffffffffffffffffffff1663546b69536002548585856040518563ffffffff167c0100000000000000000000000000000000000000000000000000000000028152600401808581526020018481526020018373ffffffffffffffffffffffffffffffffffffffff1673ffffffffffffffffffffffffffffffffffffffff16815260200182151515158152602001945050505050600060405180830381600087803b15801561052a57600080fd5b505af115801561053e573d6000803e3d6000fd5b50505050505050565b61054f610bc7565b600460009054906101000a900473ffffffffffffffffffffffffffffffffffffffff1673ffffffffffffffffffffffffffffffffffffffff163373ffffffffffffffffffffffffffffffffffffffff161415156105ab57600080fd5b6000809054906101000a900473ffffffffffffffffffffffffffffffffffffffff1673ffffffffffffffffffffffffffffffffffffffff1663a5e7e675846040518263ffffffff167c010000000000000000000000000000000000000000000000000000000002815260040180828152602001915050602060405180830381600087803b15801561063b57600080fd5b505af115801561064f573d6000803e3d6000fd5b505050506040513d602081101561066557600080fd5b8101908080519060200190929190505050151561068157600080fd5b600360009054906101000a900473ffffffffffffffffffffffffffffffffffffffff1673ffffffffffffffffffffffffffffffffffffffff1663fcfff16f6040518163ffffffff167c0100000000000000000000000000000000000000000000000000000000028152600401602060405180830381600087803b15801561070757600080fd5b505af115801561071b573d6000803e3d6000fd5b505050506040513d602081101561073157600080fd5b810190808051906020019092919050505015151561074e57600080fd5b6107646001600554610ab190919063ffffffff16565b60058190555081816000019073ffffffffffffffffffffffffffffffffffffffff16908173ffffffffffffffffffffffffffffffffffffffff16815250506001816040019015159081151581525050806007600085815260200190815260200160002060008201518160000160006101000a81548173ffffffffffffffffffffffffffffffffffffffff021916908373ffffffffffffffffffffffffffffffffffffffff16021790555060208201518160000160146101000a81548160ff02191690831515021790555060408201518160000160156101000a81548160ff021916908315150217905550905050505050565b600360009054906101000a900473ffffffffffffffffffffffffffffffffffffffff1681565b60076020528060005260406000206000915090508060000160009054906101000a900473ffffffffffffffffffffffffffffffffffffffff16908060000160149054906101000a900460ff16908060000160159054906101000a900460ff16905083565b60025481565b6000809054906101000a900473ffffffffffffffffffffffffffffffffffffffff1673ffffffffffffffffffffffffffffffffffffffff163373ffffffffffffffffffffffffffffffffffffffff1614151561094157600080fd5b6000809054906101000a900473ffffffffffffffffffffffffffffffffffffffff1673ffffffffffffffffffffffffffffffffffffffff167ff8df31144d9c2f0f6b59d69b8b98abd5459d07f2742c4df920b25aae33c6482060405160405180910390a260008060006101000a81548173ffffffffffffffffffffffffffffffffffffffff021916908373ffffffffffffffffffffffffffffffffffffffff160217905550565b60065481565b6000809054906101000a900473ffffffffffffffffffffffffffffffffffffffff1681565b60055481565b60008060009054906101000a900473ffffffffffffffffffffffffffffffffffffffff16905090565b6000809054906101000a900473ffffffffffffffffffffffffffffffffffffffff1673ffffffffffffffffffffffffffffffffffffffff163373ffffffffffffffffffffffffffffffffffffffff16141515610a9d57600080fd5b6005600181905550610aae81610acd565b50565b60008183019050828110151515610ac457fe5b80905092915050565b600073ffffffffffffffffffffffffffffffffffffffff168173ffffffffffffffffffffffffffffffffffffffff1614151515610b0957600080fd5b8073ffffffffffffffffffffffffffffffffffffffff166000809054906101000a900473ffffffffffffffffffffffffffffffffffffffff1673ffffffffffffffffffffffffffffffffffffffff167f8be0079c531659141344cd1fd0a4f28419497f9722a3daafe3b4186f6b6457e060405160405180910390a3806000806101000a81548173ffffffffffffffffffffffffffffffffffffffff021916908373ffffffffffffffffffffffffffffffffffffffff16021790555050565b606060405190810160405280600073ffffffffffffffffffffffffffffffffffffffff16815260200160001515815260200160001515815250905600a165627a7a7230582091f07d780ccc2ada6f53ee8fdb42b98f7f52d5c2551655c50046050e04e2fce80029",
  "source": "pragma solidity >=0.4.22 <0.6.0;\nimport './Amendment.sol';\nimport './AmendmentPoll.sol';\nimport './utility/Ownable.sol';\nimport './utility/SafeMath.sol';\nimport './Cooperative0.sol';\n\ncontract AmendmentModificationProposal is Ownable {\n  using SafeMath for uint256;\n  uint256 public amendmentId;\n  AmendmentPoll public amendmentPoll;\n  address developer;\n\n  constructor(uint256 _amendmentId, AmendmentPoll _amendmentPoll, address _developer) public {\n    amendmentId = _amendmentId;\n    amendmentPoll = AmendmentPoll(_amendmentPoll);\n    developer = _developer;\n  }\n\n  uint256 public totalModifications;\n  uint256 public totalModificationsExecuted;\n\n  struct Modification {\n    address newAmendment;\n    bool executed;\n    bool exists;\n  }\n  mapping(uint256 => Modification) public modificationByCoAmendment;\n\n\n  function addModification (uint256 coAmendmentId, Amendment newCoAmendment) external {\n    require(msg.sender == developer);\n    require(Cooperative0(owner).canModify(coAmendmentId));\n    require(!amendmentPoll.open());\n    totalModifications = totalModifications.add(1);\n    Modification memory newModification;\n    newModification.newAmendment = address(newCoAmendment);\n    newModification.exists = true;\n    modificationByCoAmendment[coAmendmentId] = newModification;\n  }\n\n  function executeModification (uint256 coAmendmentId) external {\n    require(modificationByCoAmendment[coAmendmentId].exists);\n    modificationByCoAmendment[coAmendmentId].exists = false;\n    totalModificationsExecuted = totalModificationsExecuted.add(1);\n    address newCoAmendment = modificationByCoAmendment[coAmendmentId].newAmendment;\n    bool finalModification = totalModificationsExecuted == totalModifications;\n\n    Cooperative0(owner).adoptAmendmentModification(\n      amendmentId,\n      coAmendmentId,\n      newCoAmendment,\n      finalModification\n      );\n  }\n}\n",
  "sourcePath": "/Users/steven/genie-portal/truffle/contracts/AmendmentModificationProposal.sol",
  "compiler": {
    "name": "solc",
    "version": "0.4.25+commit.59dbf8f1.Emscripten.clang"
  },
  "schemaVersion": "2.0.2",
  "updatedAt": "2019-04-02T19:42:19.559Z"
}