{
  "contractName": "Amendment",
  "abi": [
    {
      "constant": true,
      "inputs": [
        {
          "name": "",
          "type": "uint256"
        }
      ],
      "name": "amendmentById",
      "outputs": [
        {
          "name": "",
          "type": "address"
        }
      ],
      "payable": false,
      "stateMutability": "view",
      "type": "function"
    },
    {
      "inputs": [
        {
          "name": "coAmendment1",
          "type": "address"
        },
        {
          "name": "coAmendment2",
          "type": "address"
        },
        {
          "name": "coAmendment3",
          "type": "address"
        },
        {
          "name": "coAmendment4",
          "type": "address"
        },
        {
          "name": "coAmendment5",
          "type": "address"
        },
        {
          "name": "coAmendment6",
          "type": "address"
        }
      ],
      "payable": false,
      "stateMutability": "nonpayable",
      "type": "constructor"
    },
    {
      "constant": false,
      "inputs": [
        {
          "name": "coAmendmentToUpdateId",
          "type": "uint256"
        },
        {
          "name": "newReferenceAmendment",
          "type": "address"
        }
      ],
      "name": "modifyAmendment",
      "outputs": [],
      "payable": false,
      "stateMutability": "nonpayable",
      "type": "function"
    },
    {
      "constant": false,
      "inputs": [],
      "name": "closeFunctionality",
      "outputs": [],
      "payable": false,
      "stateMutability": "nonpayable",
      "type": "function"
    }
  ],
  "bytecode": "0x608060405234801561001057600080fd5b5060405160c08061047e833981018060405281019080805190602001909291908051906020019092919080519060200190929190805190602001909291908051906020019092919080519060200190929190505050856000806001815260200190815260200160002060006101000a81548173ffffffffffffffffffffffffffffffffffffffff021916908373ffffffffffffffffffffffffffffffffffffffff160217905550846000806002815260200190815260200160002060006101000a81548173ffffffffffffffffffffffffffffffffffffffff021916908373ffffffffffffffffffffffffffffffffffffffff160217905550836000806003815260200190815260200160002060006101000a81548173ffffffffffffffffffffffffffffffffffffffff021916908373ffffffffffffffffffffffffffffffffffffffff160217905550826000806004815260200190815260200160002060006101000a81548173ffffffffffffffffffffffffffffffffffffffff021916908373ffffffffffffffffffffffffffffffffffffffff160217905550816000806005815260200190815260200160002060006101000a81548173ffffffffffffffffffffffffffffffffffffffff021916908373ffffffffffffffffffffffffffffffffffffffff160217905550806000806006815260200190815260200160002060006101000a81548173ffffffffffffffffffffffffffffffffffffffff021916908373ffffffffffffffffffffffffffffffffffffffff16021790555060018060006101000a81548160ff0219169083151502179055505050505050506101fe806102806000396000f300608060405260043610610057576000357c0100000000000000000000000000000000000000000000000000000000900463ffffffff168063287599e31461005c57806391402ecf14610073578063e7041574146100e0575b600080fd5b34801561006857600080fd5b5061007161012d565b005b34801561007f57600080fd5b5061009e6004803603810190808035906020019092919050505061014a565b604051808273ffffffffffffffffffffffffffffffffffffffff1673ffffffffffffffffffffffffffffffffffffffff16815260200191505060405180910390f35b3480156100ec57600080fd5b5061012b60048036038101908080359060200190929190803573ffffffffffffffffffffffffffffffffffffffff16906020019092919050505061017d565b005b6000600160006101000a81548160ff021916908315150217905550565b60006020528060005260406000206000915054906101000a900473ffffffffffffffffffffffffffffffffffffffff1681565b8060008084815260200190815260200160002060006101000a81548173ffffffffffffffffffffffffffffffffffffffff021916908373ffffffffffffffffffffffffffffffffffffffff16021790555050505600a165627a7a723058200ce9c0169c5dacb967a120d5f6afc9e1c3ce58b65ff27322a4f6daf333a48fb50029",
  "source": "pragma solidity >=0.4.22 <0.6.0;\n\ncontract Amendment {\n  mapping(uint256 => address) public amendmentById;\n\n  bool private _valid;\n\n  modifier onlyWhileValid () {\n    require(_valid);\n    _;\n  }\n\n  constructor (\n      address coAmendment1,\n      address coAmendment2,\n      address coAmendment3,\n      address coAmendment4,\n      address coAmendment5,\n      address coAmendment6\n    ) public {\n      amendmentById[1] = coAmendment1;\n      amendmentById[2] = coAmendment2;\n      amendmentById[3] = coAmendment3;\n      amendmentById[4] = coAmendment4;\n      amendmentById[5] = coAmendment5;\n      amendmentById[6] = coAmendment6;\n      _valid = true;\n    }\n\n    function modifyAmendment(uint256 coAmendmentToUpdateId, address newReferenceAmendment) external {\n      amendmentById[coAmendmentToUpdateId] = newReferenceAmendment;\n    }\n\n    function closeFunctionality() external {\n      _valid = false;\n    }\n}\n",
  "sourcePath": "F:\\Projects\\genie\\genie-portal\\truffle\\contracts\\AmendmentCompatiable.sol",
  "compiler": {
    "name": "solc",
    "version": "0.4.24+commit.e67f0147.Emscripten.clang"
  },
  "schemaVersion": "2.0.1",
  "updatedAt": "2022-03-01T23:20:04.098Z"
}