{
  "contractName": "Crowdsale",
  "abi": [
    {
      "constant": true,
      "inputs": [],
      "name": "token",
      "outputs": [
        {
          "name": "",
          "type": "address"
        }
      ],
      "payable": false,
      "stateMutability": "view",
      "type": "function"
    },
    {
      "inputs": [
        {
          "name": "_rate",
          "type": "uint256"
        },
        {
          "name": "_developer",
          "type": "address"
        },
        {
          "name": "_token",
          "type": "address"
        }
      ],
      "payable": false,
      "stateMutability": "nonpayable",
      "type": "constructor"
    },
    {
      "payable": true,
      "stateMutability": "payable",
      "type": "fallback"
    },
    {
      "anonymous": false,
      "inputs": [
        {
          "indexed": true,
          "name": "purchaser",
          "type": "address"
        },
        {
          "indexed": true,
          "name": "beneficiary",
          "type": "address"
        },
        {
          "indexed": false,
          "name": "value",
          "type": "uint256"
        },
        {
          "indexed": false,
          "name": "amount",
          "type": "uint256"
        }
      ],
      "name": "TokenPurchase",
      "type": "event"
    },
    {
      "constant": false,
      "inputs": [
        {
          "name": "_beneficiary",
          "type": "address"
        }
      ],
      "name": "buyTokens",
      "outputs": [
        {
          "name": "",
          "type": "uint256"
        }
      ],
      "payable": true,
      "stateMutability": "payable",
      "type": "function"
    },
    {
      "constant": false,
      "inputs": [],
      "name": "weiRaised_",
      "outputs": [
        {
          "name": "",
          "type": "uint256"
        }
      ],
      "payable": false,
      "stateMutability": "nonpayable",
      "type": "function"
    }
  ],
  "bytecode": "0x608060405234801561001057600080fd5b506040516060806104d983398101806040528101908080519060200190929190805190602001909291908051906020019092919050505060008311151561005657600080fd5b600073ffffffffffffffffffffffffffffffffffffffff168273ffffffffffffffffffffffffffffffffffffffff161415151561009257600080fd5b8260028190555081600160006101000a81548173ffffffffffffffffffffffffffffffffffffffff021916908373ffffffffffffffffffffffffffffffffffffffff160217905550806000806101000a81548173ffffffffffffffffffffffffffffffffffffffff021916908373ffffffffffffffffffffffffffffffffffffffff1602179055505050506103ad8061012c6000396000f300608060405260043610610057576000357c0100000000000000000000000000000000000000000000000000000000900463ffffffff168063e31bc61414610059578063ec8ac4d814610084578063fc0c546a146100ce575b005b34801561006557600080fd5b5061006e610125565b6040518082815260200191505060405180910390f35b6100b8600480360381019080803573ffffffffffffffffffffffffffffffffffffffff16906020019092919050505061012f565b6040518082815260200191505060405180910390f35b3480156100da57600080fd5b506100e3610308565b604051808273ffffffffffffffffffffffffffffffffffffffff1673ffffffffffffffffffffffffffffffffffffffff16815260200191505060405180910390f35b6000600354905090565b6000806000349150600073ffffffffffffffffffffffffffffffffffffffff168473ffffffffffffffffffffffffffffffffffffffff161415151561017357600080fd5b6000821415151561018357600080fd5b6101986002548361032d90919063ffffffff16565b90506101af8260035461036590919063ffffffff16565b6003819055506000809054906101000a900473ffffffffffffffffffffffffffffffffffffffff1673ffffffffffffffffffffffffffffffffffffffff166309b38a5d85836040518363ffffffff167c0100000000000000000000000000000000000000000000000000000000028152600401808373ffffffffffffffffffffffffffffffffffffffff1673ffffffffffffffffffffffffffffffffffffffff16815260200182815260200192505050600060405180830381600087803b15801561027957600080fd5b505af115801561028d573d6000803e3d6000fd5b505050508373ffffffffffffffffffffffffffffffffffffffff163373ffffffffffffffffffffffffffffffffffffffff167f623b3804fa71d67900d064613da8f94b9617215ee90799290593e1745087ad188484604051808381526020018281526020019250505060405180910390a38092505050919050565b6000809054906101000a900473ffffffffffffffffffffffffffffffffffffffff1681565b600080831415610340576000905061035f565b818302905081838281151561035157fe5b0414151561035b57fe5b8090505b92915050565b6000818301905082811015151561037857fe5b809050929150505600a165627a7a723058200e8053a4b183ebb6c1c6e7420874e32dd99422c31d93c23ca1f5f55893dfcaa30029",
  "source": "pragma solidity ^0.4.24;\n\nimport \"../token/ERC20/ERC20.sol\";\nimport '../utility/SafeMath.sol';\nimport \"../token/ERC20/SafeERC20.sol\";\nimport '../token/ERC20/Token.sol';\n\n\n/**\n * @title Crowdsale\n * @dev Crowdsale is a base contract for managing a token crowdsale,\n * allowing investors to purchase tokens with ether. This contract implements\n * such functionality in its most fundamental form and can be extended to provide additional\n * functionality and/or custom behavior.\n * The external interface represents the basic interface for purchasing tokens, and conform\n * the base architecture for crowdsales. They are *not* intended to be modified / overridden.\n * The internal interface conforms the extensible and modifiable surface of crowdsales. Override\n * the methods to add functionality. Consider using 'super' where appropriate to concatenate\n * behavior.\n */\ncontract Crowdsale {\n  using SafeMath for uint256;\n  using SafeERC20 for Token;\n\n\n  Token public token;\n\n  address internal developer;\n  // How many token units a buyer gets per wei.\n  // The rate is the conversion between wei and the smallest and indivisible token unit.\n  // So, if you are using a rate of 1 with a DetailedERC20 token with 3 decimals called TOK\n  // 1 wei will give you 1 unit, or 0.001 TOK.\n  uint256 internal rate;\n\n  // Amount of wei raised\n  uint256 internal weiRaised;\n\n  /**\n   * Event for token purchase logging\n   * @param purchaser who paid for the tokens\n   * @param beneficiary who got the tokens\n   * @param value weis paid for purchase\n   * @param amount amount of tokens purchased\n   */\n  event TokenPurchase(\n    address indexed purchaser,\n    address indexed beneficiary,\n    uint256 value,\n    uint256 amount\n  );\n\n  /**\n   * @param _rate Number of token units a buyer gets per wei\n   * @param _developer Address where collected funds will be forwarded to\n   * @param _token Address of the token being sold\n   */\n  constructor(uint256 _rate, address _developer, Token _token) public {\n    require(_rate > 0);\n    require(_developer != address(0));\n\n    rate = _rate;\n    developer = _developer;\n    token = _token;\n  }\n\n  // -----------------------------------------\n  // Crowdsale external interface\n  // -----------------------------------------\n\n  /**\n   * @dev fallback function ***DO NOT OVERRIDE***\n   */\n  function () public payable {\n    /* buyTokens(msg.sender); */\n  }\n  /**\n   * @dev low level token purchase ***DO NOT OVERRIDE***\n   * @param _beneficiary Address performing the token purchase\n   */\n  function buyTokens(address _beneficiary) public payable returns (uint256) {\n    uint256 weiAmount = msg.value;\n    require(_beneficiary != address(0));\n    require(weiAmount != 0);\n\n    // calculate token amount to be created\n    uint256 tokens = weiAmount.mul(rate);\n\n    // update state\n    weiRaised = weiRaised.add(weiAmount);\n\n    Token(token).transferInactive(_beneficiary, tokens);//we can call all the account/voting logic through this function\n    /* _processPurchase(_beneficiary, tokens); */\n\n    emit TokenPurchase(\n      msg.sender,\n      _beneficiary,\n      weiAmount,\n      tokens\n    );\n\n    return tokens;\n\n    /* _updatePurchasingState(_beneficiary, weiAmount); */\n\n    /* _forwardFunds(); */\n    /* _postValidatePurchase(_beneficiary, weiAmount); */\n  }\n\n  function weiRaised_() public returns(uint256) {\n    return weiRaised;\n  }\n\n  // -----------------------------------------\n  // Internal interface (extensible)\n  // -----------------------------------------\n\n  /**\n   * @dev Validation of an incoming purchase. Use require statements to revert state when conditions are not met. Use `super` in contracts that inherit from Crowdsale to extend their validations.\n   * Example from CappedCrowdsale.sol's _preValidatePurchase method:\n   *   super._preValidatePurchase(_beneficiary, _weiAmount);\n   *   require(weiRaised.add(_weiAmount) <= cap);\n   * @param _beneficiary Address performing the token purchase\n   * @param _weiAmount Value in wei involved in the purchase\n   */\n  /* function _preValidatePurchase(\n    address _beneficiary,\n    uint256 _weiAmount\n  )\n    internal\n  {\n    require(_beneficiary != address(0));\n    require(_weiAmount != 0);\n  } */\n\n  /**\n   * @dev Validation of an executed purchase. Observe state and use revert statements to undo rollback when valid conditions are not met.\n   * @param _beneficiary Address performing the token purchase\n   * @param _weiAmount Value in wei involved in the purchase\n   */\n  /* function _postValidatePurchase(\n    address _beneficiary,\n    uint256 _weiAmount\n  )\n    internal\n  {\n    // optional override\n  } */\n\n  /**\n   * @dev Source of tokens. Override this method to modify the way in which the crowdsale ultimately gets and sends its tokens.\n   * @param _beneficiary Address performing the token purchase\n   * @param _tokenAmount Number of tokens to be emitted\n   */\n  /* function _deliverTokens(\n    address _beneficiary,\n    uint256 _tokenAmount\n  )\n    internal\n  {\n    token.safeTransfer(_beneficiary, _tokenAmount);\n  } */\n\n  /**\n   * @dev Executed when a purchase has been validated and is ready to be executed. Not necessarily emits/sends tokens.\n   * @param _beneficiary Address receiving the tokens\n   * @param _tokenAmount Number of tokens to be purchased\n   */\n  /* function _processPurchase(\n    address _beneficiary,\n    uint256 _tokenAmount\n  )\n    internal\n  {\n    _deliverTokens(_beneficiary, _tokenAmount);\n  } */\n\n  /**\n   * @dev Override for extensions that require an internal state to check for validity (current user contributions, etc.)\n   * @param _beneficiary Address receiving the tokens\n   * @param _weiAmount Value in wei involved in the purchase\n   */\n  /* function _updatePurchasingState(\n    address _beneficiary,\n    uint256 _weiAmount\n  )\n    internal\n  {\n    // optional override\n  } */\n\n  /**\n   * @dev Override to extend the way in which ether is converted to tokens.\n   * @param _weiAmount Value in wei to be converted into tokens\n   * @return Number of tokens that can be purchased with the specified _weiAmount\n   */\n  /* function _getTokenAmount(uint256 _weiAmount)\n    internal view returns (uint256)\n  {\n    return _weiAmount.mul(rate);\n  } */\n\n  /**\n   * @dev Determines how ETH is stored/forwarded on purchases.\n   */\n\n   /**\n   This works, but throws a runtime error and terminates the rest of the request\n   The issuse is either related to an unfilfilled require/revert/assert statement or exceeded gas limit\n   There doesnt seem to be any requires, and I cant see the internal workings of transfer.\n   I've tried:\n   1. Changing gas in truffle.js (maybe theres another way to change gas)\n   2. removing the function after this (_postValidatePurchase)\n   3. removing fallback function\n\n   RESOLUTION: remove this function call completely.\n    */\n  /* function _forwardFunds() internal {\n      developer.transfer(msg.value);\n  } */\n}\n",
  "sourcePath": "/Users/matsteelelap/Desktop/ProjectFolder/genie-portal/truffle/contracts/crowdsale/Crowdsale.sol",
  "compiler": {
    "name": "solc",
    "version": "0.4.24+commit.e67f0147.Emscripten.clang"
  },
  "schemaVersion": "2.0.1",
  "updatedAt": "2019-01-18T20:20:23.287Z"
}