{
  "contractName": "Crowdsale",
  "abi": [
    {
      "constant": true,
      "inputs": [],
      "name": "rate",
      "outputs": [
        {
          "name": "",
          "type": "uint256"
        }
      ],
      "payable": false,
      "stateMutability": "view",
      "type": "function"
    },
    {
      "constant": true,
      "inputs": [],
      "name": "weiRaised",
      "outputs": [
        {
          "name": "",
          "type": "uint256"
        }
      ],
      "payable": false,
      "stateMutability": "view",
      "type": "function"
    },
    {
      "constant": true,
      "inputs": [],
      "name": "wallet",
      "outputs": [
        {
          "name": "",
          "type": "address"
        }
      ],
      "payable": false,
      "stateMutability": "view",
      "type": "function"
    },
    {
      "inputs": [
        {
          "name": "_rate",
          "type": "uint256"
        },
        {
          "name": "_wallet",
          "type": "address"
        },
        {
          "name": "_token",
          "type": "address"
        }
      ],
      "payable": false,
      "stateMutability": "nonpayable",
      "type": "constructor"
    },
    {
      "payable": true,
      "stateMutability": "payable",
      "type": "fallback"
    },
    {
      "anonymous": false,
      "inputs": [
        {
          "indexed": true,
          "name": "purchaser",
          "type": "address"
        },
        {
          "indexed": true,
          "name": "beneficiary",
          "type": "address"
        },
        {
          "indexed": false,
          "name": "value",
          "type": "uint256"
        },
        {
          "indexed": false,
          "name": "amount",
          "type": "uint256"
        }
      ],
      "name": "TokenPurchase",
      "type": "event"
    },
    {
      "constant": false,
      "inputs": [
        {
          "name": "_beneficiary",
          "type": "address"
        }
      ],
      "name": "buyTokens",
      "outputs": [],
      "payable": true,
      "stateMutability": "payable",
      "type": "function"
    }
  ],
  "bytecode": "0x608060405234801561001057600080fd5b5060405160608061055c83398101806040528101908080519060200190929190805190602001909291908051906020019092919050505060008311151561005657600080fd5b600073ffffffffffffffffffffffffffffffffffffffff168273ffffffffffffffffffffffffffffffffffffffff161415151561009257600080fd5b600073ffffffffffffffffffffffffffffffffffffffff168173ffffffffffffffffffffffffffffffffffffffff16141515156100ce57600080fd5b8260028190555081600160006101000a81548173ffffffffffffffffffffffffffffffffffffffff021916908373ffffffffffffffffffffffffffffffffffffffff160217905550806000806101000a81548173ffffffffffffffffffffffffffffffffffffffff021916908373ffffffffffffffffffffffffffffffffffffffff1602179055505050506103f4806101686000396000f300608060405260043610610062576000357c0100000000000000000000000000000000000000000000000000000000900463ffffffff1680632c4e722e1461006d5780634042b66f14610098578063521eb273146100c3578063ec8ac4d81461011a575b61006b33610150565b005b34801561007957600080fd5b506100826102d4565b6040518082815260200191505060405180910390f35b3480156100a457600080fd5b506100ad6102da565b6040518082815260200191505060405180910390f35b3480156100cf57600080fd5b506100d86102e0565b604051808273ffffffffffffffffffffffffffffffffffffffff1673ffffffffffffffffffffffffffffffffffffffff16815260200191505060405180910390f35b61014e600480360381019080803573ffffffffffffffffffffffffffffffffffffffff169060200190929190505050610150565b005b6000803491506101608383610306565b61016982610356565b90506101808260035461037490919063ffffffff16565b6003819055506000809054906101000a900473ffffffffffffffffffffffffffffffffffffffff1673ffffffffffffffffffffffffffffffffffffffff166378547d5f84836040518363ffffffff167c0100000000000000000000000000000000000000000000000000000000028152600401808373ffffffffffffffffffffffffffffffffffffffff1673ffffffffffffffffffffffffffffffffffffffff16815260200182815260200192505050600060405180830381600087803b15801561024a57600080fd5b505af115801561025e573d6000803e3d6000fd5b505050508273ffffffffffffffffffffffffffffffffffffffff163373ffffffffffffffffffffffffffffffffffffffff167f623b3804fa71d67900d064613da8f94b9617215ee90799290593e1745087ad188484604051808381526020018281526020019250505060405180910390a3505050565b60025481565b60035481565b600160009054906101000a900473ffffffffffffffffffffffffffffffffffffffff1681565b600073ffffffffffffffffffffffffffffffffffffffff168273ffffffffffffffffffffffffffffffffffffffff161415151561034257600080fd5b6000811415151561035257600080fd5b5050565b600061036d6002548361039090919063ffffffff16565b9050919050565b6000818301905082811015151561038757fe5b80905092915050565b6000808314156103a357600090506103c2565b81830290508183828115156103b457fe5b041415156103be57fe5b8090505b929150505600a165627a7a723058204b2e2b5a2118cca70975fdd546f6393de276e9c735dd2ce9804601d610af92170029",
  "source": "pragma solidity ^0.4.24;\n\nimport \"../token/ERC20/ERC20.sol\";\nimport '../utility/SafeMath.sol';\nimport \"../token/ERC20/SafeERC20.sol\";\nimport '../token/Token.sol';\n\n\n/**\n * @title Crowdsale\n * @dev Crowdsale is a base contract for managing a token crowdsale,\n * allowing investors to purchase tokens with ether. This contract implements\n * such functionality in its most fundamental form and can be extended to provide additional\n * functionality and/or custom behavior.\n * The external interface represents the basic interface for purchasing tokens, and conform\n * the base architecture for crowdsales. They are *not* intended to be modified / overridden.\n * The internal interface conforms the extensible and modifiable surface of crowdsales. Override\n * the methods to add functionality. Consider using 'super' where appropriate to concatenate\n * behavior.\n */\ncontract Crowdsale {\n  using SafeMath for uint256;\n  using SafeERC20 for ERC20;\n\n  // The token being sold\n  /* ERC20 public token; */\n  Token token;\n  // Address where funds are collected\n  address public wallet;\n\n  // How many token units a buyer gets per wei.\n  // The rate is the conversion between wei and the smallest and indivisible token unit.\n  // So, if you are using a rate of 1 with a DetailedERC20 token with 3 decimals called TOK\n  // 1 wei will give you 1 unit, or 0.001 TOK.\n  uint256 public rate;\n\n  // Amount of wei raised\n  uint256 public weiRaised;\n\n  /**\n   * Event for token purchase logging\n   * @param purchaser who paid for the tokens\n   * @param beneficiary who got the tokens\n   * @param value weis paid for purchase\n   * @param amount amount of tokens purchased\n   */\n  event TokenPurchase(\n    address indexed purchaser,\n    address indexed beneficiary,\n    uint256 value,\n    uint256 amount\n  );\n\n  /**\n   * @param _rate Number of token units a buyer gets per wei\n   * @param _wallet Address where collected funds will be forwarded to\n   * @param _token Address of the token being sold\n   */\n  constructor(uint256 _rate, address _wallet, Token _token) public {\n    require(_rate > 0);\n    require(_wallet != address(0));\n    require(_token != address(0));\n\n    rate = _rate;\n    wallet = _wallet;\n    token = _token;\n  }\n\n  // -----------------------------------------\n  // Crowdsale external interface\n  // -----------------------------------------\n\n  /**\n   * @dev fallback function ***DO NOT OVERRIDE***\n   */\n  function () external payable {\n    buyTokens(msg.sender);\n  }\n  /**\n   * @dev low level token purchase ***DO NOT OVERRIDE***\n   * @param _beneficiary Address performing the token purchase\n   */\n  function buyTokens(address _beneficiary) public payable {\n\n    uint256 weiAmount = msg.value;\n    _preValidatePurchase(_beneficiary, weiAmount);\n\n    // calculate token amount to be created\n    uint256 tokens = _getTokenAmount(weiAmount);\n\n    // update state\n    weiRaised = weiRaised.add(weiAmount);\n\n    Token(token).processPurchase(_beneficiary, tokens);\n\n    emit TokenPurchase(\n      msg.sender,\n      _beneficiary,\n      weiAmount,\n      tokens\n    );\n\n    /* _updatePurchasingState(_beneficiary, weiAmount); */\n\n    /* _forwardFunds(); */\n    /* _postValidatePurchase(_beneficiary, weiAmount); */\n  }\n\n  // -----------------------------------------\n  // Internal interface (extensible)\n  // -----------------------------------------\n\n  /**\n   * @dev Validation of an incoming purchase. Use require statements to revert state when conditions are not met. Use `super` in contracts that inherit from Crowdsale to extend their validations.\n   * Example from CappedCrowdsale.sol's _preValidatePurchase method:\n   *   super._preValidatePurchase(_beneficiary, _weiAmount);\n   *   require(weiRaised.add(_weiAmount) <= cap);\n   * @param _beneficiary Address performing the token purchase\n   * @param _weiAmount Value in wei involved in the purchase\n   */\n  function _preValidatePurchase(\n    address _beneficiary,\n    uint256 _weiAmount\n  )\n    internal\n  {\n    require(_beneficiary != address(0));\n    require(_weiAmount != 0);\n  }\n\n  /**\n   * @dev Validation of an executed purchase. Observe state and use revert statements to undo rollback when valid conditions are not met.\n   * @param _beneficiary Address performing the token purchase\n   * @param _weiAmount Value in wei involved in the purchase\n   */\n  /* function _postValidatePurchase(\n    address _beneficiary,\n    uint256 _weiAmount\n  )\n    internal\n  {\n    // optional override\n  } */\n\n  /**\n   * @dev Source of tokens. Override this method to modify the way in which the crowdsale ultimately gets and sends its tokens.\n   * @param _beneficiary Address performing the token purchase\n   * @param _tokenAmount Number of tokens to be emitted\n   */\n  /* function _deliverTokens(\n    address _beneficiary,\n    uint256 _tokenAmount\n  )\n    internal\n  {\n    token.safeTransfer(_beneficiary, _tokenAmount);\n  } */\n\n  /**\n   * @dev Executed when a purchase has been validated and is ready to be executed. Not necessarily emits/sends tokens.\n   * @param _beneficiary Address receiving the tokens\n   * @param _tokenAmount Number of tokens to be purchased\n   */\n  /* function _processPurchase(\n    address _beneficiary,\n    uint256 _tokenAmount\n  )\n    internal\n  {\n    _deliverTokens(_beneficiary, _tokenAmount);\n  } */\n\n  /**\n   * @dev Override for extensions that require an internal state to check for validity (current user contributions, etc.)\n   * @param _beneficiary Address receiving the tokens\n   * @param _weiAmount Value in wei involved in the purchase\n   */\n  /* function _updatePurchasingState(\n    address _beneficiary,\n    uint256 _weiAmount\n  )\n    internal\n  {\n    // optional override\n  } */\n\n  /**\n   * @dev Override to extend the way in which ether is converted to tokens.\n   * @param _weiAmount Value in wei to be converted into tokens\n   * @return Number of tokens that can be purchased with the specified _weiAmount\n   */\n  function _getTokenAmount(uint256 _weiAmount)\n    internal view returns (uint256)\n  {\n    return _weiAmount.mul(rate);\n  }\n\n  /**\n   * @dev Determines how ETH is stored/forwarded on purchases.\n   */\n\n   /**\n   This works, but throws a runtime error and terminates the rest of the request\n   The issuse is either related to an unfilfilled require/revert/assert statement or exceeded gas limit\n   There doesnt seem to be any requires, and I cant see the internal workings of transfer.\n   I've tried:\n   1. Changing gas in truffle.js (maybe theres another way to change gas)\n   2. removing the function after this (_postValidatePurchase)\n   3. removing fallback function\n\n   RESOLUTION: remove this function call completely.\n    */\n  /* function _forwardFunds() internal {\n      wallet.transfer(msg.value);\n  } */\n}\n",
  "sourcePath": "/Users/steven/genie-portal/truffle/contracts/crowdsale/Crowdsale.sol",
  "compiler": {
    "name": "solc",
    "version": "0.4.24+commit.e67f0147.Emscripten.clang"
  },
  "schemaVersion": "2.0.1",
  "updatedAt": "2018-10-13T18:37:49.003Z"
}