{
  "contractName": "DividendsStub",
  "abi": [
    {
      "constant": true,
      "inputs": [],
      "name": "totalDividendPoints",
      "outputs": [
        {
          "name": "",
          "type": "uint256"
        }
      ],
      "payable": false,
      "stateMutability": "view",
      "type": "function"
    },
    {
      "constant": false,
      "inputs": [
        {
          "name": "methodName",
          "type": "string"
        }
      ],
      "name": "addMethod",
      "outputs": [],
      "payable": false,
      "stateMutability": "nonpayable",
      "type": "function"
    },
    {
      "constant": true,
      "inputs": [
        {
          "name": "methodName",
          "type": "string"
        }
      ],
      "name": "callHistory",
      "outputs": [
        {
          "name": "",
          "type": "uint256"
        },
        {
          "name": "",
          "type": "uint256"
        },
        {
          "name": "",
          "type": "uint256"
        },
        {
          "name": "",
          "type": "string"
        },
        {
          "name": "",
          "type": "string"
        },
        {
          "name": "",
          "type": "string"
        },
        {
          "name": "",
          "type": "address"
        },
        {
          "name": "",
          "type": "address"
        },
        {
          "name": "",
          "type": "address"
        },
        {
          "name": "",
          "type": "bool"
        },
        {
          "name": "",
          "type": "bool"
        }
      ],
      "payable": false,
      "stateMutability": "view",
      "type": "function"
    },
    {
      "constant": true,
      "inputs": [
        {
          "name": "",
          "type": "address"
        }
      ],
      "name": "lastDividendPoints",
      "outputs": [
        {
          "name": "",
          "type": "uint256"
        }
      ],
      "payable": false,
      "stateMutability": "view",
      "type": "function"
    },
    {
      "constant": false,
      "inputs": [
        {
          "name": "methodName",
          "type": "string"
        }
      ],
      "name": "resetMethod",
      "outputs": [],
      "payable": false,
      "stateMutability": "nonpayable",
      "type": "function"
    },
    {
      "inputs": [
        {
          "name": "token_",
          "type": "address"
        }
      ],
      "payable": false,
      "stateMutability": "nonpayable",
      "type": "constructor"
    },
    {
      "anonymous": false,
      "inputs": [
        {
          "indexed": false,
          "name": "weiAmount",
          "type": "uint256"
        },
        {
          "indexed": false,
          "name": "time",
          "type": "uint256"
        }
      ],
      "name": "ReceiveDividends",
      "type": "event"
    },
    {
      "constant": false,
      "inputs": [
        {
          "name": "account",
          "type": "address"
        }
      ],
      "name": "distributeDividend",
      "outputs": [
        {
          "name": "",
          "type": "bool"
        }
      ],
      "payable": false,
      "stateMutability": "nonpayable",
      "type": "function"
    },
    {
      "constant": false,
      "inputs": [],
      "name": "receiveDividends",
      "outputs": [],
      "payable": true,
      "stateMutability": "payable",
      "type": "function"
    }
  ],
  "bytecode": "0x60806040526c7e37be2022c0914b268000000060035534801561002157600080fd5b506040516020806111558339810180604052810190808051906020019092919050505080806000806101000a81548173ffffffffffffffffffffffffffffffffffffffff021916908373ffffffffffffffffffffffffffffffffffffffff16021790555050506110bf806100966000396000f300608060405260043610610083576000357c0100000000000000000000000000000000000000000000000000000000900463ffffffff1680632113342d1461008857806351542e3a146100b35780635319504a1461011c578063547d80201461017757806379fc4687146103f5578063806985f7146103ff578063f427b13514610456575b600080fd5b34801561009457600080fd5b5061009d6104bf565b6040518082815260200191505060405180910390f35b3480156100bf57600080fd5b5061011a600480360381019080803590602001908201803590602001908080601f01602080910402602001604051908101604052809392919081815260200183838082843782019150505050505091929192905050506104c5565b005b34801561012857600080fd5b5061015d600480360381019080803573ffffffffffffffffffffffffffffffffffffffff1690602001909291905050506106cd565b604051808215151515815260200191505060405180910390f35b34801561018357600080fd5b506101de600480360381019080803590602001908201803590602001908080601f01602080910402602001604051908101604052809392919081815260200183838082843782019150505050505091929192905050506107ff565b604051808c81526020018b81526020018a81526020018060200180602001806020018973ffffffffffffffffffffffffffffffffffffffff1673ffffffffffffffffffffffffffffffffffffffff1681526020018873ffffffffffffffffffffffffffffffffffffffff1673ffffffffffffffffffffffffffffffffffffffff1681526020018773ffffffffffffffffffffffffffffffffffffffff1673ffffffffffffffffffffffffffffffffffffffff168152602001861515151581526020018515151515815260200184810384528c818151815260200191508051906020019080838360005b838110156102e25780820151818401526020810190506102c7565b50505050905090810190601f16801561030f5780820380516001836020036101000a031916815260200191505b5084810383528b818151815260200191508051906020019080838360005b8381101561034857808201518184015260208101905061032d565b50505050905090810190601f1680156103755780820380516001836020036101000a031916815260200191505b5084810382528a818151815260200191508051906020019080838360005b838110156103ae578082015181840152602081019050610393565b50505050905090810190601f1680156103db5780820380516001836020036101000a031916815260200191505b509e50505050505050505050505050505060405180910390f35b6103fd610c38565b005b34801561040b57600080fd5b50610440600480360381019080803573ffffffffffffffffffffffffffffffffffffffff169060200190929190505050610ca3565b6040518082815260200191505060405180910390f35b34801561046257600080fd5b506104bd600480360381019080803590602001908201803590602001908080601f0160208091040260200160405190810160405280939291908181526020018383808284378201915050505050509192919290505050610cbb565b005b60025481565b6104cd610ecd565b806004836040518082805190602001908083835b60208310151561050657805182526020820191506020810190506020830392506104e1565b6001836020036101000a03801982511681845116808217855250505050505090500191505090815260200160405180910390206000820151816000015560208201518160010155604082015181600201556060820151816003019080519060200190610573929190610f6e565b506080820151816004019080519060200190610590929190610f6e565b5060a08201518160050190805190602001906105ad929190610f6e565b5060c08201518160060160006101000a81548173ffffffffffffffffffffffffffffffffffffffff021916908373ffffffffffffffffffffffffffffffffffffffff16021790555060e08201518160070160006101000a81548173ffffffffffffffffffffffffffffffffffffffff021916908373ffffffffffffffffffffffffffffffffffffffff1602179055506101008201518160080160006101000a81548173ffffffffffffffffffffffffffffffffffffffff021916908373ffffffffffffffffffffffffffffffffffffffff1602179055506101208201518160080160146101000a81548160ff0219169083151502179055506101408201518160080160156101000a81548160ff0219169083151502179055509050505050565b600080600460405180807f646973747269627574654469766964656e640000000000000000000000000000815250601201905090815260200160405180910390209050600073ffffffffffffffffffffffffffffffffffffffff168160060160009054906101000a900473ffffffffffffffffffffffffffffffffffffffff1673ffffffffffffffffffffffffffffffffffffffff1614156107b157828160060160006101000a81548173ffffffffffffffffffffffffffffffffffffffff021916908373ffffffffffffffffffffffffffffffffffffffff1602179055506107f5565b828160070160006101000a81548173ffffffffffffffffffffffffffffffffffffffff021916908373ffffffffffffffffffffffffffffffffffffffff1602179055505b6001915050919050565b600080600060608060606000806000806000610819610ecd565b60048d6040518082805190602001908083835b602083101515610851578051825260208201915060208101905060208303925061082c565b6001836020036101000a03801982511681845116808217855250505050505090500191505090815260200160405180910390206101606040519081016040529081600082015481526020016001820154815260200160028201548152602001600382018054600181600116156101000203166002900480601f0160208091040260200160405190810160405280929190818152602001828054600181600116156101000203166002900480156109485780601f1061091d57610100808354040283529160200191610948565b820191906000526020600020905b81548152906001019060200180831161092b57829003601f168201915b50505050508152602001600482018054600181600116156101000203166002900480601f0160208091040260200160405190810160405280929190818152602001828054600181600116156101000203166002900480156109ea5780601f106109bf576101008083540402835291602001916109ea565b820191906000526020600020905b8154815290600101906020018083116109cd57829003601f168201915b50505050508152602001600582018054600181600116156101000203166002900480601f016020809104026020016040519081016040528092919081815260200182805460018160011615610100020316600290048015610a8c5780601f10610a6157610100808354040283529160200191610a8c565b820191906000526020600020905b815481529060010190602001808311610a6f57829003601f168201915b505050505081526020016006820160009054906101000a900473ffffffffffffffffffffffffffffffffffffffff1673ffffffffffffffffffffffffffffffffffffffff1673ffffffffffffffffffffffffffffffffffffffff1681526020016007820160009054906101000a900473ffffffffffffffffffffffffffffffffffffffff1673ffffffffffffffffffffffffffffffffffffffff1673ffffffffffffffffffffffffffffffffffffffff1681526020016008820160009054906101000a900473ffffffffffffffffffffffffffffffffffffffff1673ffffffffffffffffffffffffffffffffffffffff1673ffffffffffffffffffffffffffffffffffffffff1681526020016008820160149054906101000a900460ff161515151581526020016008820160159054906101000a900460ff1615151515815250509050806000015181602001518260400151836060015184608001518560a001518660c001518760e001518861010001518961012001518a61014001518797508696508595509b509b509b509b509b509b509b509b509b509b509b505091939597999b90929496989a50565b6000600460405180807f726563656976654469766964656e64730000000000000000000000000000000081525060100190509081526020016040518091039020905060018160080160146101000a81548160ff02191690831515021790555034816000018190555050565b60016020528060005260406000206000915090505481565b60006004826040518082805190602001908083835b602083101515610cf55780518252602082019150602081019050602083039250610cd0565b6001836020036101000a038019825116818451168082178552505050505050905001915050908152602001604051809103902090506000816000018190555060008160010181905550600081600201819055506020604051908101604052806000815250816003019080519060200190610d70929190610fee565b506020604051908101604052806000815250816004019080519060200190610d99929190610fee565b506020604051908101604052806000815250816005019080519060200190610dc2929190610fee565b5060008160060160006101000a81548173ffffffffffffffffffffffffffffffffffffffff021916908373ffffffffffffffffffffffffffffffffffffffff16021790555060008160070160006101000a81548173ffffffffffffffffffffffffffffffffffffffff021916908373ffffffffffffffffffffffffffffffffffffffff16021790555060008160080160006101000a81548173ffffffffffffffffffffffffffffffffffffffff021916908373ffffffffffffffffffffffffffffffffffffffff16021790555060008160080160146101000a81548160ff02191690831515021790555060008160080160156101000a81548160ff0219169083151502179055505050565b61016060405190810160405280600081526020016000815260200160008152602001606081526020016060815260200160608152602001600073ffffffffffffffffffffffffffffffffffffffff168152602001600073ffffffffffffffffffffffffffffffffffffffff168152602001600073ffffffffffffffffffffffffffffffffffffffff1681526020016000151581526020016000151581525090565b828054600181600116156101000203166002900490600052602060002090601f016020900481019282601f10610faf57805160ff1916838001178555610fdd565b82800160010185558215610fdd579182015b82811115610fdc578251825591602001919060010190610fc1565b5b509050610fea919061106e565b5090565b828054600181600116156101000203166002900490600052602060002090601f016020900481019282601f1061102f57805160ff191683800117855561105d565b8280016001018555821561105d579182015b8281111561105c578251825591602001919060010190611041565b5b50905061106a919061106e565b5090565b61109091905b8082111561108c576000816000905550600101611074565b5090565b905600a165627a7a72305820f7d596f3158db54cb23d2fb0d395c4c208a0bd470182e9092d4e7af48cf94a1f0029",
  "source": "pragma solidity >=0.4.22 <0.6.0;\nimport '../utility/SafeMath.sol';\nimport '../token/ActiveToken.sol';\nimport '../crowdsale/GNITokenCrowdsale.sol';\nimport '../ContractStub.sol';\n\ncontract DividendsStub is Dividends, ContractStub {\n  using SafeMath for uint256;\n\n  constructor (ActiveToken token_) public\n  Dividends(token_) {}\n\n  function distributeDividend(address account) external returns (bool) {\n    CallData storage methodState = method['distributeDividend'];\n    if (methodState.firstAddress == address(0)) {\n      methodState.firstAddress = account;\n    } else {\n      methodState.secondAddress = account;\n    }\n    return true;\n  }\n\n  function receiveDividends () external payable {\n    CallData storage methodState = method['receiveDividends'];\n    methodState.called = true;\n    methodState.firstUint = msg.value;\n  }\n}\n",
  "sourcePath": "/Users/steven/genie-portal/truffle/contracts/dividends/DividendsStub.sol",
  "compiler": {
    "name": "solc",
    "version": "0.4.25+commit.59dbf8f1.Emscripten.clang"
  },
  "schemaVersion": "2.0.2",
  "updatedAt": "2019-03-25T19:29:22.711Z"
}