{
  "contractName": "DividendsMock",
  "abi": [
    {
      "constant": true,
      "inputs": [],
      "name": "totalDividendPoints",
      "outputs": [
        {
          "name": "",
          "type": "uint256"
        }
      ],
      "payable": false,
      "stateMutability": "view",
      "type": "function"
    },
    {
      "constant": false,
      "inputs": [
        {
          "name": "account",
          "type": "address"
        }
      ],
      "name": "distributeDividend",
      "outputs": [
        {
          "name": "",
          "type": "bool"
        }
      ],
      "payable": false,
      "stateMutability": "nonpayable",
      "type": "function"
    },
    {
      "constant": false,
      "inputs": [],
      "name": "receiveDividends",
      "outputs": [],
      "payable": true,
      "stateMutability": "payable",
      "type": "function"
    },
    {
      "constant": true,
      "inputs": [
        {
          "name": "",
          "type": "address"
        }
      ],
      "name": "lastDividendPoints",
      "outputs": [
        {
          "name": "",
          "type": "uint256"
        }
      ],
      "payable": false,
      "stateMutability": "view",
      "type": "function"
    },
    {
      "inputs": [
        {
          "name": "token_",
          "type": "address"
        }
      ],
      "payable": false,
      "stateMutability": "nonpayable",
      "type": "constructor"
    },
    {
      "anonymous": false,
      "inputs": [
        {
          "indexed": false,
          "name": "weiAmount",
          "type": "uint256"
        },
        {
          "indexed": false,
          "name": "time",
          "type": "uint256"
        }
      ],
      "name": "ReceiveDividends",
      "type": "event"
    },
    {
      "constant": true,
      "inputs": [
        {
          "name": "account",
          "type": "address"
        }
      ],
      "name": "lastDividendPointsOf",
      "outputs": [
        {
          "name": "",
          "type": "uint256"
        }
      ],
      "payable": false,
      "stateMutability": "view",
      "type": "function"
    },
    {
      "constant": false,
      "inputs": [
        {
          "name": "eth",
          "type": "uint256"
        },
        {
          "name": "tokens",
          "type": "uint256"
        }
      ],
      "name": "addMockTotalDividendPonts",
      "outputs": [],
      "payable": false,
      "stateMutability": "nonpayable",
      "type": "function"
    },
    {
      "constant": false,
      "inputs": [
        {
          "name": "eth",
          "type": "uint256"
        },
        {
          "name": "tokens",
          "type": "uint256"
        },
        {
          "name": "account",
          "type": "address"
        }
      ],
      "name": "setMockLastDividendPoints",
      "outputs": [],
      "payable": false,
      "stateMutability": "nonpayable",
      "type": "function"
    }
  ],
  "bytecode": "0x60806040526c7e37be2022c0914b268000000060035534801561002157600080fd5b5060405160208061084f8339810180604052810190808051906020019092919050505080806000806101000a81548173ffffffffffffffffffffffffffffffffffffffff021916908373ffffffffffffffffffffffffffffffffffffffff16021790555050506107b9806100966000396000f300608060405260043610610083576000357c0100000000000000000000000000000000000000000000000000000000900463ffffffff1680632113342d14610088578063504af55f146100b35780635319504a146100ea57806379fc468714610145578063806985f71461014f578063ab4b5a42146101a6578063cf631d90146101fd575b600080fd5b34801561009457600080fd5b5061009d610254565b6040518082815260200191505060405180910390f35b3480156100bf57600080fd5b506100e8600480360381019080803590602001909291908035906020019092919050505061025a565b005b3480156100f657600080fd5b5061012b600480360381019080803573ffffffffffffffffffffffffffffffffffffffff1690602001909291905050506102a5565b604051808215151515815260200191505060405180910390f35b61014d61034a565b005b34801561015b57600080fd5b50610190600480360381019080803573ffffffffffffffffffffffffffffffffffffffff16906020019092919050505061049c565b6040518082815260200191505060405180910390f35b3480156101b257600080fd5b506101fb6004803603810190808035906020019092919080359060200190929190803573ffffffffffffffffffffffffffffffffffffffff1690602001909291905050506104b4565b005b34801561020957600080fd5b5061023e600480360381019080803573ffffffffffffffffffffffffffffffffffffffff16906020019092919050505061053d565b6040518082815260200191505060405180910390f35b60025481565b61029b8161028d60035461027f670de0b6b3a76400008761058690919063ffffffff16565b61058690919063ffffffff16565b6105be90919063ffffffff16565b6002819055505050565b6000806102b1836105d4565b90508273ffffffffffffffffffffffffffffffffffffffff166108fc829081150290604051600060405180830381858888f193505050501580156102f9573d6000803e3d6000fd5b50600254600160008573ffffffffffffffffffffffffffffffffffffffff1673ffffffffffffffffffffffffffffffffffffffff168152602001908152602001600020819055506001915050919050565b60008060008060009054906101000a900473ffffffffffffffffffffffffffffffffffffffff1673ffffffffffffffffffffffffffffffffffffffff166318160ddd6040518163ffffffff167c0100000000000000000000000000000000000000000000000000000000028152600401602060405180830381600087803b1580156103d457600080fd5b505af11580156103e8573d6000803e3d6000fd5b505050506040513d60208110156103fe57600080fd5b8101908080519060200190929190505050925034915061043b8361042d6003548561058690919063ffffffff16565b6105be90919063ffffffff16565b90506104528160025461075890919063ffffffff16565b6002819055507ff6af96c0ef275a672b4b7e8b6762100ecac14dfa48e5e99bf6df111c641037f43442604051808381526020018281526020019250505060405180910390a1505050565b60016020528060005260406000206000915090505481565b6104f5826104e76003546104d9670de0b6b3a76400008861058690919063ffffffff16565b61058690919063ffffffff16565b6105be90919063ffffffff16565b600160008373ffffffffffffffffffffffffffffffffffffffff1673ffffffffffffffffffffffffffffffffffffffff16815260200190815260200160002081905550505050565b6000600160008373ffffffffffffffffffffffffffffffffffffffff1673ffffffffffffffffffffffffffffffffffffffff168152602001908152602001600020549050919050565b60008083141561059957600090506105b8565b81830290508183828115156105aa57fe5b041415156105b457fe5b8090505b92915050565b600081838115156105cb57fe5b04905092915050565b600080600061062d600160008673ffffffffffffffffffffffffffffffffffffffff1673ffffffffffffffffffffffffffffffffffffffff1681526020019081526020016000205460025461077490919063ffffffff16565b91506000809054906101000a900473ffffffffffffffffffffffffffffffffffffffff1673ffffffffffffffffffffffffffffffffffffffff166370a08231856040518263ffffffff167c0100000000000000000000000000000000000000000000000000000000028152600401808273ffffffffffffffffffffffffffffffffffffffff1673ffffffffffffffffffffffffffffffffffffffff168152602001915050602060405180830381600087803b1580156106eb57600080fd5b505af11580156106ff573d6000803e3d6000fd5b505050506040513d602081101561071557600080fd5b8101908080519060200190929190505050905061074f600354610741848461058690919063ffffffff16565b6105be90919063ffffffff16565b92505050919050565b6000818301905082811015151561076b57fe5b80905092915050565b600082821115151561078257fe5b8183039050929150505600a165627a7a7230582075bf3f49b7ef41ecf1353d2fcbe1d1971d5dcf9a7b5b379d228234aa901697d20029",
  "source": "pragma solidity >=0.4.22 <0.6.0;\nimport './Dividends.sol';\nimport '../token/ActiveToken.sol';\n\ncontract DividendsMock is Dividends {\n\n  constructor (ActiveToken token_)\n  public\n  Dividends(token_) {}\n\n\n  function lastDividendPointsOf(address account) public view returns(uint256) {\n    return lastDividendPoints[account];\n  }\n\n  function addMockTotalDividendPonts(uint256 eth, uint256 tokens) public {\n    totalDividendPoints = eth.mul(1e18).mul(pointMultiplier).div(tokens);\n  }\n\n  function setMockLastDividendPoints (uint256 eth, uint256 tokens, address account) public {\n    lastDividendPoints[account] = eth.mul(1e18).mul(pointMultiplier).div(tokens);\n  }\n}\n",
  "sourcePath": "/Users/steven/genie-portal/truffle/contracts/dividends/DividendsMock.sol",
  "compiler": {
    "name": "solc",
    "version": "0.4.25+commit.59dbf8f1.Emscripten.clang"
  },
  "schemaVersion": "2.0.2",
  "updatedAt": "2019-03-29T23:16:36.748Z"
}