{
  "contractName": "Dividends",
  "abi": [
    {
      "constant": true,
      "inputs": [],
      "name": "totalDividendPoints",
      "outputs": [
        {
          "name": "",
          "type": "uint256"
        }
      ],
      "payable": false,
      "stateMutability": "view",
      "type": "function"
    },
    {
      "constant": true,
      "inputs": [
        {
          "name": "",
          "type": "address"
        }
      ],
      "name": "lastDividendPoints",
      "outputs": [
        {
          "name": "",
          "type": "uint256"
        }
      ],
      "payable": false,
      "stateMutability": "view",
      "type": "function"
    },
    {
      "inputs": [
        {
          "name": "token_",
          "type": "address"
        }
      ],
      "payable": false,
      "stateMutability": "nonpayable",
      "type": "constructor"
    },
    {
      "anonymous": false,
      "inputs": [
        {
          "indexed": false,
          "name": "weiAmount",
          "type": "uint256"
        },
        {
          "indexed": false,
          "name": "time",
          "type": "uint256"
        }
      ],
      "name": "ReceiveDividends",
      "type": "event"
    },
    {
      "anonymous": false,
      "inputs": [
        {
          "indexed": false,
          "name": "account",
          "type": "address"
        },
        {
          "indexed": false,
          "name": "amount",
          "type": "uint256"
        }
      ],
      "name": "DividendCollection",
      "type": "event"
    },
    {
      "constant": true,
      "inputs": [
        {
          "name": "account",
          "type": "address"
        }
      ],
      "name": "dividendOwedTo",
      "outputs": [
        {
          "name": "",
          "type": "uint256"
        }
      ],
      "payable": false,
      "stateMutability": "view",
      "type": "function"
    },
    {
      "constant": false,
      "inputs": [
        {
          "name": "account",
          "type": "address"
        }
      ],
      "name": "distributeDividend",
      "outputs": [
        {
          "name": "",
          "type": "bool"
        }
      ],
      "payable": false,
      "stateMutability": "nonpayable",
      "type": "function"
    },
    {
      "constant": false,
      "inputs": [],
      "name": "receiveDividends",
      "outputs": [],
      "payable": true,
      "stateMutability": "payable",
      "type": "function"
    }
  ],
  "bytecode": "0x60806040526c7e37be2022c0914b268000000060035534801561002157600080fd5b506040516020806106f783398101806040528101908080519060200190929190505050806000806101000a81548173ffffffffffffffffffffffffffffffffffffffff021916908373ffffffffffffffffffffffffffffffffffffffff16021790555050610663806100946000396000f30060806040526004361061006d576000357c0100000000000000000000000000000000000000000000000000000000900463ffffffff1680632113342d146100725780635319504a1461009d57806379fc4687146100f8578063806985f714610102578063b107a27c14610159575b600080fd5b34801561007e57600080fd5b506100876101b0565b6040518082815260200191505060405180910390f35b3480156100a957600080fd5b506100de600480360381019080803573ffffffffffffffffffffffffffffffffffffffff1690602001909291905050506101b6565b604051808215151515815260200191505060405180910390f35b6101006102c6565b005b34801561010e57600080fd5b50610143600480360381019080803573ffffffffffffffffffffffffffffffffffffffff169060200190929190505050610418565b6040518082815260200191505060405180910390f35b34801561016557600080fd5b5061019a600480360381019080803573ffffffffffffffffffffffffffffffffffffffff169060200190929190505050610430565b6040518082815260200191505060405180910390f35b60025481565b6000806101c283610430565b90508273ffffffffffffffffffffffffffffffffffffffff166108fc829081150290604051600060405180830381858888f1935050505015801561020a573d6000803e3d6000fd5b50600254600160008573ffffffffffffffffffffffffffffffffffffffff1673ffffffffffffffffffffffffffffffffffffffff168152602001908152602001600020819055507f58d6fdd6f2dd88138e5e461d72c14a618736a6f130c107a3930af0f38a98b5198382604051808373ffffffffffffffffffffffffffffffffffffffff1673ffffffffffffffffffffffffffffffffffffffff1681526020018281526020019250505060405180910390a16001915050919050565b60008060008060009054906101000a900473ffffffffffffffffffffffffffffffffffffffff1673ffffffffffffffffffffffffffffffffffffffff166318160ddd6040518163ffffffff167c0100000000000000000000000000000000000000000000000000000000028152600401602060405180830381600087803b15801561035057600080fd5b505af1158015610364573d6000803e3d6000fd5b505050506040513d602081101561037a57600080fd5b810190808051906020019092919050505092503491506103b7836103a9600354856105b490919063ffffffff16565b6105ec90919063ffffffff16565b90506103ce8160025461060290919063ffffffff16565b6002819055507ff6af96c0ef275a672b4b7e8b6762100ecac14dfa48e5e99bf6df111c641037f43442604051808381526020018281526020019250505060405180910390a1505050565b60016020528060005260406000206000915090505481565b6000806000610489600160008673ffffffffffffffffffffffffffffffffffffffff1673ffffffffffffffffffffffffffffffffffffffff1681526020019081526020016000205460025461061e90919063ffffffff16565b91506000809054906101000a900473ffffffffffffffffffffffffffffffffffffffff1673ffffffffffffffffffffffffffffffffffffffff166370a08231856040518263ffffffff167c0100000000000000000000000000000000000000000000000000000000028152600401808273ffffffffffffffffffffffffffffffffffffffff1673ffffffffffffffffffffffffffffffffffffffff168152602001915050602060405180830381600087803b15801561054757600080fd5b505af115801561055b573d6000803e3d6000fd5b505050506040513d602081101561057157600080fd5b810190808051906020019092919050505090506105ab60035461059d84846105b490919063ffffffff16565b6105ec90919063ffffffff16565b92505050919050565b6000808314156105c757600090506105e6565b81830290508183828115156105d857fe5b041415156105e257fe5b8090505b92915050565b600081838115156105f957fe5b04905092915050565b6000818301905082811015151561061557fe5b80905092915050565b600082821115151561062c57fe5b8183039050929150505600a165627a7a72305820df205c5c86c7caf56b79b1779d2fc0aecc7e244bca69a308283767b1113e3e290029",
  "source": "pragma solidity >=0.4.22 <0.6.0;\nimport '../utility/SafeMath.sol';\nimport '../token/ActiveToken.sol';\nimport '../crowdsale/GNITokenCrowdsale.sol';\n\ncontract Dividends {\n  using SafeMath for uint256;\n  ActiveToken token;\n\n  constructor (ActiveToken token_) public {\n    token = token_;\n  }\n\n  mapping(address => uint256) public lastDividendPoints;\n\n  event ReceiveDividends(uint256 weiAmount, uint256 time);\n  event DividendCollection(address account, uint256 amount);\n\n  uint256 public totalDividendPoints;\n  uint256 internal pointMultiplier = 10e30;\n\n  function dividendOwedTo(address account) public view returns (uint256) {\n    uint256 owedDividendPoints = totalDividendPoints.sub(lastDividendPoints[account]);\n    uint256 accountTokens = ActiveToken(token).balanceOf(account);\n    return accountTokens.mul(owedDividendPoints).div(pointMultiplier);\n  }\n\n  function distributeDividend(address account) external returns (bool) {\n    uint256 dividend = dividendOwedTo(account);\n    account.transfer(dividend);\n    lastDividendPoints[account] = totalDividendPoints;\n    emit DividendCollection(account, dividend);\n    return true;\n  }\n\n  function receiveDividends () external payable {\n    uint256 totalTokens = ActiveToken(token).totalSupply();\n    uint256 weiAmount = msg.value;\n\n    uint256 newDividendPoints = weiAmount.mul(pointMultiplier).div(totalTokens);\n    totalDividendPoints = totalDividendPoints.add(newDividendPoints);\n    ReceiveDividends(msg.value, now);\n  }\n}\n",
  "sourcePath": "F:\\Projects\\genie\\genie-portal\\truffle\\contracts\\dividends\\Dividends.sol",
  "compiler": {
    "name": "solc",
    "version": "0.4.24+commit.e67f0147.Emscripten.clang"
  },
  "schemaVersion": "2.0.1",
  "updatedAt": "2022-02-25T02:56:02.791Z"
}