{
  "contractName": "Dividends",
  "abi": [
    {
      "constant": true,
      "inputs": [],
      "name": "totalDividendPoints",
      "outputs": [
        {
          "name": "",
          "type": "uint256"
        }
      ],
      "payable": false,
      "stateMutability": "view",
      "type": "function"
    },
    {
      "constant": true,
      "inputs": [
        {
          "name": "",
          "type": "address"
        }
      ],
      "name": "lastDividendPoints",
      "outputs": [
        {
          "name": "",
          "type": "uint256"
        }
      ],
      "payable": false,
      "stateMutability": "view",
      "type": "function"
    },
    {
      "inputs": [
        {
          "name": "token_",
          "type": "address"
        }
      ],
      "payable": false,
      "stateMutability": "nonpayable",
      "type": "constructor"
    },
    {
      "anonymous": false,
      "inputs": [
        {
          "indexed": false,
          "name": "weiAmount",
          "type": "uint256"
        },
        {
          "indexed": false,
          "name": "time",
          "type": "uint256"
        }
      ],
      "name": "ReceiveDividends",
      "type": "event"
    },
    {
      "constant": false,
      "inputs": [
        {
          "name": "account",
          "type": "address"
        }
      ],
      "name": "distributeDividend",
      "outputs": [
        {
          "name": "",
          "type": "bool"
        }
      ],
      "payable": false,
      "stateMutability": "nonpayable",
      "type": "function"
    },
    {
      "constant": false,
      "inputs": [],
      "name": "receiveDividends",
      "outputs": [],
      "payable": true,
      "stateMutability": "payable",
      "type": "function"
    }
  ],
  "bytecode": "0x60806040526c7e37be2022c0914b268000000060035534801561002157600080fd5b5060405160208061062a83398101806040528101908080519060200190929190505050806000806101000a81548173ffffffffffffffffffffffffffffffffffffffff021916908373ffffffffffffffffffffffffffffffffffffffff16021790555050610596806100946000396000f300608060405260043610610062576000357c0100000000000000000000000000000000000000000000000000000000900463ffffffff1680632113342d146100675780635319504a1461009257806379fc4687146100ed578063806985f7146100f7575b600080fd5b34801561007357600080fd5b5061007c61014e565b6040518082815260200191505060405180910390f35b34801561009e57600080fd5b506100d3600480360381019080803573ffffffffffffffffffffffffffffffffffffffff169060200190929190505050610154565b604051808215151515815260200191505060405180910390f35b6100f56101f9565b005b34801561010357600080fd5b50610138600480360381019080803573ffffffffffffffffffffffffffffffffffffffff16906020019092919050505061034b565b6040518082815260200191505060405180910390f35b60025481565b60008061016083610363565b90508273ffffffffffffffffffffffffffffffffffffffff166108fc829081150290604051600060405180830381858888f193505050501580156101a8573d6000803e3d6000fd5b50600254600160008573ffffffffffffffffffffffffffffffffffffffff1673ffffffffffffffffffffffffffffffffffffffff168152602001908152602001600020819055506001915050919050565b60008060008060009054906101000a900473ffffffffffffffffffffffffffffffffffffffff1673ffffffffffffffffffffffffffffffffffffffff166318160ddd6040518163ffffffff167c0100000000000000000000000000000000000000000000000000000000028152600401602060405180830381600087803b15801561028357600080fd5b505af1158015610297573d6000803e3d6000fd5b505050506040513d60208110156102ad57600080fd5b810190808051906020019092919050505092503491506102ea836102dc600354856104e790919063ffffffff16565b61051f90919063ffffffff16565b90506103018160025461053590919063ffffffff16565b6002819055507ff6af96c0ef275a672b4b7e8b6762100ecac14dfa48e5e99bf6df111c641037f43442604051808381526020018281526020019250505060405180910390a1505050565b60016020528060005260406000206000915090505481565b60008060006103bc600160008673ffffffffffffffffffffffffffffffffffffffff1673ffffffffffffffffffffffffffffffffffffffff1681526020019081526020016000205460025461055190919063ffffffff16565b91506000809054906101000a900473ffffffffffffffffffffffffffffffffffffffff1673ffffffffffffffffffffffffffffffffffffffff166370a08231856040518263ffffffff167c0100000000000000000000000000000000000000000000000000000000028152600401808273ffffffffffffffffffffffffffffffffffffffff1673ffffffffffffffffffffffffffffffffffffffff168152602001915050602060405180830381600087803b15801561047a57600080fd5b505af115801561048e573d6000803e3d6000fd5b505050506040513d60208110156104a457600080fd5b810190808051906020019092919050505090506104de6003546104d084846104e790919063ffffffff16565b61051f90919063ffffffff16565b92505050919050565b6000808314156104fa5760009050610519565b818302905081838281151561050b57fe5b0414151561051557fe5b8090505b92915050565b6000818381151561052c57fe5b04905092915050565b6000818301905082811015151561054857fe5b80905092915050565b600082821115151561055f57fe5b8183039050929150505600a165627a7a7230582086f8b3e97a954e7217f28a7a231efe0c59fcd84eeae85f71e32b3061475a58180029",
  "source": "pragma solidity >=0.4.22 <0.6.0;\nimport '../utility/SafeMath.sol';\nimport '../token/ActiveToken.sol';\nimport '../crowdsale/GNITokenCrowdsale.sol';\n\ncontract Dividends {\n  using SafeMath for uint256;\n  ActiveToken token;\n\n  constructor (ActiveToken token_) public {\n    token = token_;\n  }\n\n  mapping(address => uint256) public lastDividendPoints;\n\n  event ReceiveDividends(uint256 weiAmount, uint256 time);\n\n  uint256 public totalDividendPoints;\n  uint256 internal pointMultiplier = 10e30;\n\n  function dividendOwedTo(address account) internal view returns (uint256) {\n    uint256 owedDividendPoints = totalDividendPoints.sub(lastDividendPoints[account]);\n    uint256 accountTokens = ActiveToken(token).balanceOf(account);\n    return accountTokens.mul(owedDividendPoints).div(pointMultiplier);\n  }\n\n  function distributeDividend(address account) external returns (bool) {\n    uint256 dividend = dividendOwedTo(account);\n    account.transfer(dividend);\n    lastDividendPoints[account] = totalDividendPoints;\n    return true;\n  }\n\n  function receiveDividends () external payable {\n    uint256 totalTokens = ActiveToken(token).totalSupply();\n    uint256 weiAmount = msg.value;\n\n    uint256 newDividendPoints = weiAmount.mul(pointMultiplier).div(totalTokens);\n    totalDividendPoints = totalDividendPoints.add(newDividendPoints);\n    ReceiveDividends(msg.value, now);\n  }\n}\n",
  "sourcePath": "/Users/matthewsteele/Desktop/ProjectFolder/genie-portal/truffle/contracts/dividends/Dividends.sol",
  "compiler": {
    "name": "solc",
    "version": "0.4.25+commit.59dbf8f1.Emscripten.clang"
  },
  "schemaVersion": "2.0.2",
  "updatedAt": "2019-03-29T19:40:44.710Z"
}