{
  "contractName": "GNITokenCrowdsale",
  "abi": [
    {
      "constant": true,
      "inputs": [
        {
          "name": "",
          "type": "uint256"
        }
      ],
      "name": "projects",
      "outputs": [
        {
          "name": "",
          "type": "address"
        }
      ],
      "payable": false,
      "stateMutability": "view",
      "type": "function"
    },
    {
      "constant": true,
      "inputs": [],
      "name": "hasClosed",
      "outputs": [
        {
          "name": "",
          "type": "bool"
        }
      ],
      "payable": false,
      "stateMutability": "view",
      "type": "function"
    },
    {
      "constant": true,
      "inputs": [],
      "name": "totalValuation",
      "outputs": [
        {
          "name": "",
          "type": "uint256"
        }
      ],
      "payable": false,
      "stateMutability": "view",
      "type": "function"
    },
    {
      "constant": true,
      "inputs": [],
      "name": "rate",
      "outputs": [
        {
          "name": "",
          "type": "uint256"
        }
      ],
      "payable": false,
      "stateMutability": "view",
      "type": "function"
    },
    {
      "constant": true,
      "inputs": [],
      "name": "weiRaised",
      "outputs": [
        {
          "name": "",
          "type": "uint256"
        }
      ],
      "payable": false,
      "stateMutability": "view",
      "type": "function"
    },
    {
      "constant": true,
      "inputs": [],
      "name": "openingTime",
      "outputs": [
        {
          "name": "",
          "type": "uint256"
        }
      ],
      "payable": false,
      "stateMutability": "view",
      "type": "function"
    },
    {
      "constant": true,
      "inputs": [],
      "name": "doomsDay",
      "outputs": [
        {
          "name": "",
          "type": "uint256"
        }
      ],
      "payable": false,
      "stateMutability": "view",
      "type": "function"
    },
    {
      "constant": true,
      "inputs": [],
      "name": "developer",
      "outputs": [
        {
          "name": "",
          "type": "address"
        }
      ],
      "payable": false,
      "stateMutability": "view",
      "type": "function"
    },
    {
      "constant": false,
      "inputs": [
        {
          "name": "_beneficiary",
          "type": "address"
        }
      ],
      "name": "buyTokens",
      "outputs": [
        {
          "name": "",
          "type": "uint256"
        }
      ],
      "payable": true,
      "stateMutability": "payable",
      "type": "function"
    },
    {
      "constant": true,
      "inputs": [],
      "name": "token",
      "outputs": [
        {
          "name": "",
          "type": "address"
        }
      ],
      "payable": false,
      "stateMutability": "view",
      "type": "function"
    },
    {
      "inputs": [
        {
          "name": "_openingTime",
          "type": "uint256"
        },
        {
          "name": "_doomsDay",
          "type": "uint256"
        },
        {
          "name": "_rate",
          "type": "uint256"
        },
        {
          "name": "_developer",
          "type": "address"
        },
        {
          "name": "_token",
          "type": "address"
        },
        {
          "name": "_investorList",
          "type": "address"
        }
      ],
      "payable": false,
      "stateMutability": "nonpayable",
      "type": "constructor"
    },
    {
      "payable": true,
      "stateMutability": "payable",
      "type": "fallback"
    },
    {
      "anonymous": false,
      "inputs": [
        {
          "indexed": true,
          "name": "purchaser",
          "type": "address"
        },
        {
          "indexed": true,
          "name": "beneficiary",
          "type": "address"
        },
        {
          "indexed": false,
          "name": "value",
          "type": "uint256"
        },
        {
          "indexed": false,
          "name": "amount",
          "type": "uint256"
        }
      ],
      "name": "TokenPurchase",
      "type": "event"
    },
    {
      "constant": true,
      "inputs": [
        {
          "name": "id",
          "type": "uint256"
        }
      ],
      "name": "getInfo",
      "outputs": [
        {
          "name": "",
          "type": "string"
        },
        {
          "name": "",
          "type": "uint256"
        },
        {
          "name": "",
          "type": "uint256"
        },
        {
          "name": "",
          "type": "uint256"
        },
        {
          "name": "",
          "type": "uint256"
        },
        {
          "name": "",
          "type": "bool"
        },
        {
          "name": "",
          "type": "uint256"
        },
        {
          "name": "",
          "type": "uint256"
        },
        {
          "name": "",
          "type": "address"
        }
      ],
      "payable": false,
      "stateMutability": "view",
      "type": "function"
    },
    {
      "constant": false,
      "inputs": [
        {
          "name": "_name",
          "type": "string"
        },
        {
          "name": "capitalRequired",
          "type": "uint256"
        },
        {
          "name": "_valuation",
          "type": "uint256"
        },
        {
          "name": "_lat",
          "type": "string"
        },
        {
          "name": "_lng",
          "type": "string"
        }
      ],
      "name": "pitchProject",
      "outputs": [],
      "payable": true,
      "stateMutability": "payable",
      "type": "function"
    },
    {
      "constant": false,
      "inputs": [
        {
          "name": "_projectVotedForId",
          "type": "uint256"
        }
      ],
      "name": "buyTokensAndVote",
      "outputs": [],
      "payable": true,
      "stateMutability": "payable",
      "type": "function"
    },
    {
      "constant": false,
      "inputs": [
        {
          "name": "fromProjectId",
          "type": "uint256"
        },
        {
          "name": "toProjectId",
          "type": "uint256"
        },
        {
          "name": "votes",
          "type": "uint256"
        }
      ],
      "name": "transferVotes",
      "outputs": [],
      "payable": false,
      "stateMutability": "nonpayable",
      "type": "function"
    },
    {
      "constant": false,
      "inputs": [
        {
          "name": "fromProjectId",
          "type": "uint256"
        },
        {
          "name": "votes",
          "type": "uint256"
        }
      ],
      "name": "addVoteCredit",
      "outputs": [],
      "payable": false,
      "stateMutability": "nonpayable",
      "type": "function"
    },
    {
      "constant": false,
      "inputs": [
        {
          "name": "toProjectId",
          "type": "uint256"
        },
        {
          "name": "votes",
          "type": "uint256"
        }
      ],
      "name": "voteWithCredit",
      "outputs": [],
      "payable": false,
      "stateMutability": "nonpayable",
      "type": "function"
    },
    {
      "constant": false,
      "inputs": [],
      "name": "activateProject",
      "outputs": [],
      "payable": false,
      "stateMutability": "nonpayable",
      "type": "function"
    }
  ],
  "bytecode": "0x60806040523480156200001157600080fd5b5060405160c080620044ce83398101806040528101908080519060200190929190805190602001909291908051906020019092919080519060200190929190805190602001909291908051906020019092919050505085858585856000831115156200007c57600080fd5b600073ffffffffffffffffffffffffffffffffffffffff168273ffffffffffffffffffffffffffffffffffffffff1614151515620000b957600080fd5b8260028190555081600160006101000a81548173ffffffffffffffffffffffffffffffffffffffff021916908373ffffffffffffffffffffffffffffffffffffffff160217905550806000806101000a81548173ffffffffffffffffffffffffffffffffffffffff021916908373ffffffffffffffffffffffffffffffffffffffff1602179055505050504282101515156200015457600080fd5b8181101515156200016457600080fd5b8160048190555080600581905550505080600760006101000a81548173ffffffffffffffffffffffffffffffffffffffff021916908373ffffffffffffffffffffffffffffffffffffffff16021790555060006006819055505050505050506142fb80620001d36000396000f30060806040526004361062000103576000357c0100000000000000000000000000000000000000000000000000000000900463ffffffff168063107046bd14620001055780631515bc2b14620001755780631a3cd59a14620001a7578063295b930014620002bb5780632c4e722e14620002e95780632c77b93d1462000317578063340945cf146200035b5780633cb78fe014620003955780633fff906414620003af5780634042b66f14620003e9578063589679c7146200041757806365af16721462000439578063b7a8807c1462000537578063c19b7bc01462000565578063ca4b208b1462000593578063ec8ac4d814620005ed578063fc0c546a1462000639575b005b3480156200011257600080fd5b50620001336004803603810190808035906020019092919050505062000693565b604051808273ffffffffffffffffffffffffffffffffffffffff1673ffffffffffffffffffffffffffffffffffffffff16815260200191505060405180910390f35b3480156200018257600080fd5b506200018d620006d2565b604051808215151515815260200191505060405180910390f35b348015620001b457600080fd5b50620001d560048036038101908080359060200190929190505050620006de565b60405180806020018a8152602001898152602001888152602001878152602001861515151581526020018581526020018481526020018373ffffffffffffffffffffffffffffffffffffffff1673ffffffffffffffffffffffffffffffffffffffff16815260200182810382528b818151815260200191508051906020019080838360005b83811015620002775780820151818401526020810190506200025a565b50505050905090810190601f168015620002a55780820380516001836020036101000a031916815260200191505b509a505050505050505050505060405180910390f35b348015620002c857600080fd5b50620002d362000cb7565b6040518082815260200191505060405180910390f35b348015620002f657600080fd5b506200030162000cbd565b6040518082815260200191505060405180910390f35b3480156200032457600080fd5b506200035960048036038101908080359060200190929190803590602001909291908035906020019092919050505062000cc3565b005b3480156200036857600080fd5b5062000393600480360381019080803590602001909291908035906020019092919050505062000eb6565b005b348015620003a257600080fd5b50620003ad62001090565b005b348015620003bc57600080fd5b50620003e76004803603810190808035906020019092919080359060200190929190505050620014b0565b005b348015620003f657600080fd5b50620004016200168a565b6040518082815260200191505060405180910390f35b620004376004803603810190808035906020019092919050505062001690565b005b62000535600480360381019080803590602001908201803590602001908080601f01602080910402602001604051908101604052809392919081815260200183838082843782019150505050505091929192908035906020019092919080359060200190929190803590602001908201803590602001908080601f0160208091040260200160405190810160405280939291908181526020018383808284378201915050505050509192919290803590602001908201803590602001908080601f016020809104026020016040519081016040528093929190818152602001838380828437820191505050505050919291929050505062001871565b005b3480156200054457600080fd5b506200054f62001dca565b6040518082815260200191505060405180910390f35b3480156200057257600080fd5b506200057d62001dd0565b6040518082815260200191505060405180910390f35b348015620005a057600080fd5b50620005ab62001dd6565b604051808273ffffffffffffffffffffffffffffffffffffffff1673ffffffffffffffffffffffffffffffffffffffff16815260200191505060405180910390f35b62000623600480360381019080803573ffffffffffffffffffffffffffffffffffffffff16906020019092919050505062001dfc565b6040518082815260200191505060405180910390f35b3480156200064657600080fd5b506200065162001f8f565b604051808273ffffffffffffffffffffffffffffffffffffffff1673ffffffffffffffffffffffffffffffffffffffff16815260200191505060405180910390f35b600881815481101515620006a357fe5b906000526020600020016000915054906101000a900473ffffffffffffffffffffffffffffffffffffffff1681565b60006005544211905090565b6060600080600080600080600080600060088b815481101515620006fe57fe5b9060005260206000200160009054906101000a900473ffffffffffffffffffffffffffffffffffffffff1690508073ffffffffffffffffffffffffffffffffffffffff166306fdde036040518163ffffffff167c0100000000000000000000000000000000000000000000000000000000028152600401600060405180830381600087803b1580156200079057600080fd5b505af1158015620007a5573d6000803e3d6000fd5b505050506040513d6000823e3d601f19601f820116820180604052506020811015620007d057600080fd5b810190808051640100000000811115620007e957600080fd5b828101905060208101848111156200080057600080fd5b81518560018202830111640100000000821117156200081e57600080fd5b50509291905050508173ffffffffffffffffffffffffffffffffffffffff166321a7cfe46040518163ffffffff167c0100000000000000000000000000000000000000000000000000000000028152600401602060405180830381600087803b1580156200088b57600080fd5b505af1158015620008a0573d6000803e3d6000fd5b505050506040513d6020811015620008b757600080fd5b81019080805190602001909291905050508273ffffffffffffffffffffffffffffffffffffffff1663ec61b0866040518163ffffffff167c0100000000000000000000000000000000000000000000000000000000028152600401602060405180830381600087803b1580156200092d57600080fd5b505af115801562000942573d6000803e3d6000fd5b505050506040513d60208110156200095957600080fd5b81019080805190602001909291905050508373ffffffffffffffffffffffffffffffffffffffff16636417d7b06040518163ffffffff167c0100000000000000000000000000000000000000000000000000000000028152600401602060405180830381600087803b158015620009cf57600080fd5b505af1158015620009e4573d6000803e3d6000fd5b505050506040513d6020811015620009fb57600080fd5b81019080805190602001909291905050508473ffffffffffffffffffffffffffffffffffffffff16624dcde56040518163ffffffff167c0100000000000000000000000000000000000000000000000000000000028152600401602060405180830381600087803b15801562000a7057600080fd5b505af115801562000a85573d6000803e3d6000fd5b505050506040513d602081101562000a9c57600080fd5b81019080805190602001909291905050508573ffffffffffffffffffffffffffffffffffffffff166302fb0c5e6040518163ffffffff167c0100000000000000000000000000000000000000000000000000000000028152600401602060405180830381600087803b15801562000b1257600080fd5b505af115801562000b27573d6000803e3d6000fd5b505050506040513d602081101562000b3e57600080fd5b81019080805190602001909291905050508673ffffffffffffffffffffffffffffffffffffffff16630d15fd776040518163ffffffff167c0100000000000000000000000000000000000000000000000000000000028152600401602060405180830381600087803b15801562000bb457600080fd5b505af115801562000bc9573d6000803e3d6000fd5b505050506040513d602081101562000be057600080fd5b81019080805190602001909291905050508773ffffffffffffffffffffffffffffffffffffffff16634b6753bc6040518163ffffffff167c0100000000000000000000000000000000000000000000000000000000028152600401602060405180830381600087803b15801562000c5657600080fd5b505af115801562000c6b573d6000803e3d6000fd5b505050506040513d602081101562000c8257600080fd5b810190808051906020019092919050505088889850995099509950995099509950995099509950509193959799909294969850565b60065481565b60025481565b60088381548110151562000cd357fe5b9060005260206000200160009054906101000a900473ffffffffffffffffffffffffffffffffffffffff1673ffffffffffffffffffffffffffffffffffffffff1663ce6a088033836040518363ffffffff167c0100000000000000000000000000000000000000000000000000000000028152600401808373ffffffffffffffffffffffffffffffffffffffff1673ffffffffffffffffffffffffffffffffffffffff16815260200182815260200192505050600060405180830381600087803b15801562000da157600080fd5b505af115801562000db6573d6000803e3d6000fd5b5050505060088281548110151562000dca57fe5b9060005260206000200160009054906101000a900473ffffffffffffffffffffffffffffffffffffffff1673ffffffffffffffffffffffffffffffffffffffff16635f74bbde33836040518363ffffffff167c0100000000000000000000000000000000000000000000000000000000028152600401808373ffffffffffffffffffffffffffffffffffffffff1673ffffffffffffffffffffffffffffffffffffffff16815260200182815260200192505050600060405180830381600087803b15801562000e9857600080fd5b505af115801562000ead573d6000803e3d6000fd5b50505050505050565b600760009054906101000a900473ffffffffffffffffffffffffffffffffffffffff1673ffffffffffffffffffffffffffffffffffffffff1663595f4a2533836040518363ffffffff167c0100000000000000000000000000000000000000000000000000000000028152600401808373ffffffffffffffffffffffffffffffffffffffff1673ffffffffffffffffffffffffffffffffffffffff16815260200182815260200192505050600060405180830381600087803b15801562000f7c57600080fd5b505af115801562000f91573d6000803e3d6000fd5b5050505060088281548110151562000fa557fe5b9060005260206000200160009054906101000a900473ffffffffffffffffffffffffffffffffffffffff1673ffffffffffffffffffffffffffffffffffffffff16635f74bbde33836040518363ffffffff167c0100000000000000000000000000000000000000000000000000000000028152600401808373ffffffffffffffffffffffffffffffffffffffff1673ffffffffffffffffffffffffffffffffffffffff16815260200182815260200192505050600060405180830381600087803b1580156200107357600080fd5b505af115801562001088573d6000803e3d6000fd5b505050505050565b6000806000806000620010a262001fb4565b945094508315620014a957600885815481101515620010bd57fe5b9060005260206000200160009054906101000a900473ffffffffffffffffffffffffffffffffffffffff1692508273ffffffffffffffffffffffffffffffffffffffff1663929aebdf6040518163ffffffff167c0100000000000000000000000000000000000000000000000000000000028152600401602060405180830381600087803b1580156200114f57600080fd5b505af115801562001164573d6000803e3d6000fd5b505050506040513d60208110156200117b57600080fd5b810190808051906020019092919050505091506000809054906101000a900473ffffffffffffffffffffffffffffffffffffffff1673ffffffffffffffffffffffffffffffffffffffff1663ca11be69600160009054906101000a900473ffffffffffffffffffffffffffffffffffffffff16846040518363ffffffff167c0100000000000000000000000000000000000000000000000000000000028152600401808373ffffffffffffffffffffffffffffffffffffffff1673ffffffffffffffffffffffffffffffffffffffff16815260200182815260200192505050600060405180830381600087803b1580156200127557600080fd5b505af11580156200128a573d6000803e3d6000fd5b505050506200133b8373ffffffffffffffffffffffffffffffffffffffff1663d705f3876040518163ffffffff167c0100000000000000000000000000000000000000000000000000000000028152600401602060405180830381600087803b158015620012f757600080fd5b505af11580156200130c573d6000803e3d6000fd5b505050506040513d60208110156200132357600080fd5b81019080805190602001909291905050508662002242565b8273ffffffffffffffffffffffffffffffffffffffff1663d4cf7db66040518163ffffffff167c0100000000000000000000000000000000000000000000000000000000028152600401602060405180830381600087803b158015620013a057600080fd5b505af1158015620013b5573d6000803e3d6000fd5b505050506040513d6020811015620013cc57600080fd5b810190808051906020019092919050505090506200140d600160009054906101000a900473ffffffffffffffffffffffffffffffffffffffff1682620029e3565b620014248160035462002a4c90919063ffffffff16565b6003819055508273ffffffffffffffffffffffffffffffffffffffff16630f15f4c06040518163ffffffff167c0100000000000000000000000000000000000000000000000000000000028152600401600060405180830381600087803b1580156200148f57600080fd5b505af1158015620014a4573d6000803e3d6000fd5b505050505b5050505050565b600882815481101515620014c057fe5b9060005260206000200160009054906101000a900473ffffffffffffffffffffffffffffffffffffffff1673ffffffffffffffffffffffffffffffffffffffff1663ce6a088033836040518363ffffffff167c0100000000000000000000000000000000000000000000000000000000028152600401808373ffffffffffffffffffffffffffffffffffffffff1673ffffffffffffffffffffffffffffffffffffffff16815260200182815260200192505050600060405180830381600087803b1580156200158e57600080fd5b505af1158015620015a3573d6000803e3d6000fd5b50505050600760009054906101000a900473ffffffffffffffffffffffffffffffffffffffff1673ffffffffffffffffffffffffffffffffffffffff1663ad8f256f33836040518363ffffffff167c0100000000000000000000000000000000000000000000000000000000028152600401808373ffffffffffffffffffffffffffffffffffffffff1673ffffffffffffffffffffffffffffffffffffffff16815260200182815260200192505050600060405180830381600087803b1580156200166d57600080fd5b505af115801562001682573d6000803e3d6000fd5b505050505050565b60035481565b60006200169d3362001dfc565b9050600760009054906101000a900473ffffffffffffffffffffffffffffffffffffffff1673ffffffffffffffffffffffffffffffffffffffff1663e641bde1336040518263ffffffff167c0100000000000000000000000000000000000000000000000000000000028152600401808273ffffffffffffffffffffffffffffffffffffffff1673ffffffffffffffffffffffffffffffffffffffff168152602001915050600060405180830381600087803b1580156200175d57600080fd5b505af115801562001772573d6000803e3d6000fd5b505050506008828154811015156200178657fe5b9060005260206000200160009054906101000a900473ffffffffffffffffffffffffffffffffffffffff1673ffffffffffffffffffffffffffffffffffffffff16635f74bbde33836040518363ffffffff167c0100000000000000000000000000000000000000000000000000000000028152600401808373ffffffffffffffffffffffffffffffffffffffff1673ffffffffffffffffffffffffffffffffffffffff16815260200182815260200192505050600060405180830381600087803b1580156200185457600080fd5b505af115801562001869573d6000803e3d6000fd5b505050505050565b60008060008062001883878962002a66565b935093506000809054906101000a900473ffffffffffffffffffffffffffffffffffffffff1673ffffffffffffffffffffffffffffffffffffffff166340c10f19600160009054906101000a900473ffffffffffffffffffffffffffffffffffffffff16866040518363ffffffff167c0100000000000000000000000000000000000000000000000000000000028152600401808373ffffffffffffffffffffffffffffffffffffffff1673ffffffffffffffffffffffffffffffffffffffff16815260200182815260200192505050602060405180830381600087803b1580156200196e57600080fd5b505af115801562001983573d6000803e3d6000fd5b505050506040513d60208110156200199a57600080fd5b8101908080519060200190929190505050506000809054906101000a900473ffffffffffffffffffffffffffffffffffffffff1673ffffffffffffffffffffffffffffffffffffffff166340c10f1930856040518363ffffffff167c0100000000000000000000000000000000000000000000000000000000028152600401808373ffffffffffffffffffffffffffffffffffffffff1673ffffffffffffffffffffffffffffffffffffffff16815260200182815260200192505050602060405180830381600087803b15801562001a7157600080fd5b505af115801562001a86573d6000803e3d6000fd5b505050506040513d602081101562001a9d57600080fd5b81019080805190602001909291905050505062001ac68760065462002abc90919063ffffffff16565b60068190555062001ad8605a62002ad9565b60088054905091508189600160009054906101000a900473ffffffffffffffffffffffffffffffffffffffff16898b88888c8c62001b1562002c51565b808a8152602001806020018973ffffffffffffffffffffffffffffffffffffffff1673ffffffffffffffffffffffffffffffffffffffff168152602001888152602001878152602001868152602001858152602001806020018060200184810384528c818151815260200191508051906020019080838360005b8381101562001bac57808201518184015260208101905062001b8f565b50505050905090810190601f16801562001bda5780820380516001836020036101000a031916815260200191505b50848103835286818151815260200191508051906020019080838360005b8381101562001c1557808201518184015260208101905062001bf8565b50505050905090810190601f16801562001c435780820380516001836020036101000a031916815260200191505b50848103825285818151815260200191508051906020019080838360005b8381101562001c7e57808201518184015260208101905062001c61565b50505050905090810190601f16801562001cac5780820380516001836020036101000a031916815260200191505b509c50505050505050505050505050604051809103906000f08015801562001cd8573d6000803e3d6000fd5b50905060088190806001815401808255809150509060018203906000526020600020016000909192909190916101000a81548173ffffffffffffffffffffffffffffffffffffffff021916908373ffffffffffffffffffffffffffffffffffffffff160217905550508073ffffffffffffffffffffffffffffffffffffffff166351973ec96040518163ffffffff167c0100000000000000000000000000000000000000000000000000000000028152600401600060405180830381600087803b15801562001da657600080fd5b505af115801562001dbb573d6000803e3d6000fd5b50505050505050505050505050565b60045481565b60055481565b600160009054906101000a900473ffffffffffffffffffffffffffffffffffffffff1681565b600080600034915062001e10848362002b46565b62001e1b8262002b8c565b905062001e348260035462002abc90919063ffffffff16565b6003819055506000809054906101000a900473ffffffffffffffffffffffffffffffffffffffff1673ffffffffffffffffffffffffffffffffffffffff166309b38a5d85836040518363ffffffff167c0100000000000000000000000000000000000000000000000000000000028152600401808373ffffffffffffffffffffffffffffffffffffffff1673ffffffffffffffffffffffffffffffffffffffff16815260200182815260200192505050600060405180830381600087803b15801562001eff57600080fd5b505af115801562001f14573d6000803e3d6000fd5b505050508373ffffffffffffffffffffffffffffffffffffffff163373ffffffffffffffffffffffffffffffffffffffff167f623b3804fa71d67900d064613da8f94b9617215ee90799290593e1745087ad188484604051808381526020018281526020019250505060405180910390a38092505050919050565b6000809054906101000a900473ffffffffffffffffffffffffffffffffffffffff1681565b6000806000806000809150600090505b6008805490508110156200214b5760088181548110151562001fe257fe5b9060005260206000200160009054906101000a900473ffffffffffffffffffffffffffffffffffffffff1673ffffffffffffffffffffffffffffffffffffffff1663705c5be56008858154811015156200203857fe5b9060005260206000200160009054906101000a900473ffffffffffffffffffffffffffffffffffffffff166040518263ffffffff167c0100000000000000000000000000000000000000000000000000000000028152600401808273ffffffffffffffffffffffffffffffffffffffff1673ffffffffffffffffffffffffffffffffffffffff168152602001915050602060405180830381600087803b158015620020e257600080fd5b505af1158015620020f7573d6000803e3d6000fd5b505050506040513d60208110156200210e57600080fd5b8101908080519060200190929190505050156200212d57809250600191505b6200214360018262002abc90919063ffffffff16565b905062001fc4565b828280156200223757506003546008858154811015156200216857fe5b9060005260206000200160009054906101000a900473ffffffffffffffffffffffffffffffffffffffff1673ffffffffffffffffffffffffffffffffffffffff1663d4cf7db66040518163ffffffff167c0100000000000000000000000000000000000000000000000000000000028152600401602060405180830381600087803b158015620021f757600080fd5b505af11580156200220c573d6000803e3d6000fd5b505050506040513d60208110156200222357600080fd5b810190808051906020019092919050505011155b945094505050509091565b60008060008060006200243c6000809054906101000a900473ffffffffffffffffffffffffffffffffffffffff1673ffffffffffffffffffffffffffffffffffffffff166396b2b13b600160009054906101000a900473ffffffffffffffffffffffffffffffffffffffff166040518263ffffffff167c0100000000000000000000000000000000000000000000000000000000028152600401808273ffffffffffffffffffffffffffffffffffffffff1673ffffffffffffffffffffffffffffffffffffffff168152602001915050602060405180830381600087803b1580156200232d57600080fd5b505af115801562002342573d6000803e3d6000fd5b505050506040513d60208110156200235957600080fd5b81019080805190602001909291905050506000809054906101000a900473ffffffffffffffffffffffffffffffffffffffff1673ffffffffffffffffffffffffffffffffffffffff1663596cc0a86040518163ffffffff167c0100000000000000000000000000000000000000000000000000000000028152600401602060405180830381600087803b158015620023f057600080fd5b505af115801562002405573d6000803e3d6000fd5b505050506040513d60208110156200241c57600080fd5b810190808051906020019092919050505062002a4c90919063ffffffff16565b9450600193505b600760009054906101000a900473ffffffffffffffffffffffffffffffffffffffff1673ffffffffffffffffffffffffffffffffffffffff1663d7e64c006040518163ffffffff167c0100000000000000000000000000000000000000000000000000000000028152600401602060405180830381600087803b158015620024ca57600080fd5b505af1158015620024df573d6000803e3d6000fd5b505050506040513d6020811015620024f657600080fd5b810190808051906020019092919050505084111515620029da57600760009054906101000a900473ffffffffffffffffffffffffffffffffffffffff1673ffffffffffffffffffffffffffffffffffffffff1663e4e81ad8856040518263ffffffff167c010000000000000000000000000000000000000000000000000000000002815260040180828152602001915050602060405180830381600087803b158015620025a257600080fd5b505af1158015620025b7573d6000803e3d6000fd5b505050506040513d6020811015620025ce57600080fd5b810190808051906020019092919050505092506000809054906101000a900473ffffffffffffffffffffffffffffffffffffffff1673ffffffffffffffffffffffffffffffffffffffff166396b2b13b846040518263ffffffff167c0100000000000000000000000000000000000000000000000000000000028152600401808273ffffffffffffffffffffffffffffffffffffffff1673ffffffffffffffffffffffffffffffffffffffff168152602001915050602060405180830381600087803b1580156200269e57600080fd5b505af1158015620026b3573d6000803e3d6000fd5b505050506040513d6020811015620026ca57600080fd5b810190808051906020019092919050505091506200270685620026f7898562002bac90919063ffffffff16565b62002be890919063ffffffff16565b90506000809054906101000a900473ffffffffffffffffffffffffffffffffffffffff1673ffffffffffffffffffffffffffffffffffffffff1663ca11be6984836040518363ffffffff167c0100000000000000000000000000000000000000000000000000000000028152600401808373ffffffffffffffffffffffffffffffffffffffff1673ffffffffffffffffffffffffffffffffffffffff16815260200182815260200192505050600060405180830381600087803b158015620027cd57600080fd5b505af1158015620027e2573d6000803e3d6000fd5b50505050600886815481101515620027f657fe5b9060005260206000200160009054906101000a900473ffffffffffffffffffffffffffffffffffffffff1673ffffffffffffffffffffffffffffffffffffffff1663ce6a088084836040518363ffffffff167c0100000000000000000000000000000000000000000000000000000000028152600401808373ffffffffffffffffffffffffffffffffffffffff1673ffffffffffffffffffffffffffffffffffffffff16815260200182815260200192505050600060405180830381600087803b158015620028c457600080fd5b505af1158015620028d9573d6000803e3d6000fd5b50505050600760009054906101000a900473ffffffffffffffffffffffffffffffffffffffff1673ffffffffffffffffffffffffffffffffffffffff1663ad8f256f84836040518363ffffffff167c0100000000000000000000000000000000000000000000000000000000028152600401808373ffffffffffffffffffffffffffffffffffffffff1673ffffffffffffffffffffffffffffffffffffffff16815260200182815260200192505050600060405180830381600087803b158015620029a357600080fd5b505af1158015620029b8573d6000803e3d6000fd5b50505050620029d260018562002abc90919063ffffffff16565b935062002443565b50505050505050565b8173ffffffffffffffffffffffffffffffffffffffff166108fc829081150290604051600060405180830381858888f1935050505015801562002a2a573d6000803e3d6000fd5b5062002a428160035462002a4c90919063ffffffff16565b6003819055505050565b600082821115151562002a5b57fe5b818303905092915050565b600080600062002a80848662002a4c90919063ffffffff16565b905062002a996002548262002bac90919063ffffffff16565b62002ab06002548662002bac90919063ffffffff16565b92509250509250929050565b6000818301905082811015151562002ad057fe5b80905092915050565b600080600042925060045491506005549050600454421015801562002b0057506005544211155b151562002b0c57600080fd5b62002b3a62002b28621a5e008662002bac90919063ffffffff16565b60055462002abc90919063ffffffff16565b60058190555050505050565b600080600042925060045491506005549050600454421015801562002b6d57506005544211155b151562002b7957600080fd5b62002b85858562002bff565b5050505050565b600062002ba56002548362002bac90919063ffffffff16565b9050919050565b60008083141562002bc1576000905062002be2565b818302905081838281151562002bd357fe5b0414151562002bde57fe5b8090505b92915050565b6000818381151562002bf657fe5b04905092915050565b600073ffffffffffffffffffffffffffffffffffffffff168273ffffffffffffffffffffffffffffffffffffffff161415151562002c3c57600080fd5b6000811415151562002c4d57600080fd5b5050565b60405161166d8062002c6383390190560060806040523480156200001157600080fd5b506040516200166d3803806200166d833981018060405281019080805190602001909291908051820192919060200180519060200190929190805190602001909291908051906020019092919080519060200190929190805190602001909291908051820192919060200180518201929190505050886000819055508760019080519060200190620000a592919062000174565b5086600260006101000a81548173ffffffffffffffffffffffffffffffffffffffff021916908373ffffffffffffffffffffffffffffffffffffffff1602179055508560058190555084600681905550836007819055508260088190555081600990805190602001906200011b92919062000174565b5080600a90805190602001906200013492919062000174565b506000600b819055506000600c60006101000a81548160ff02191690831515021790555063013d2380420160048190555050505050505050505062000223565b828054600181600116156101000203166002900490600052602060002090601f016020900481019282601f10620001b757805160ff1916838001178555620001e8565b82800160010185558215620001e8579182015b82811115620001e7578251825591602001919060010190620001ca565b5b509050620001f79190620001fb565b5090565b6200022091905b808211156200021c57600081600090555060010162000202565b5090565b90565b61143a80620002336000396000f300608060405260043610610174576000357c0100000000000000000000000000000000000000000000000000000000900463ffffffff1680624dcde514610179578063015e72ec146101a457806302fb0c5e1461023457806306fdde03146102635780630d15fd77146102f35780630f15f4c01461031e57806321a7cfe414610335578063272666e3146103605780632d06177a1461038b57806335d97405146103ce5780634b6753bc146104255780634d7c09dd1461045057806351973ec91461047f57806355d576cc146104965780635b184f88146105265780635f74bbde146105695780636417d7b0146105b6578063705c5be5146105e157806379ec5d3a1461063c578063929aebdf14610693578063af640d0f146106be578063c78243cf146106e9578063ca4b208b14610714578063ce6a08801461076b578063d0e30db0146107b8578063d4cf7db6146107c2578063d705f387146107ed578063ec61b08614610818578063fcfff16f14610843575b600080fd5b34801561018557600080fd5b5061018e610872565b6040518082815260200191505060405180910390f35b3480156101b057600080fd5b506101b9610878565b6040518080602001828103825283818151815260200191508051906020019080838360005b838110156101f95780820151818401526020810190506101de565b50505050905090810190601f1680156102265780820380516001836020036101000a031916815260200191505b509250505060405180910390f35b34801561024057600080fd5b50610249610916565b604051808215151515815260200191505060405180910390f35b34801561026f57600080fd5b50610278610929565b6040518080602001828103825283818151815260200191508051906020019080838360005b838110156102b857808201518184015260208101905061029d565b50505050905090810190601f1680156102e55780820380516001836020036101000a031916815260200191505b509250505060405180910390f35b3480156102ff57600080fd5b506103086109c7565b6040518082815260200191505060405180910390f35b34801561032a57600080fd5b506103336109cd565b005b34801561034157600080fd5b5061034a6109f2565b6040518082815260200191505060405180910390f35b34801561036c57600080fd5b506103756109f8565b6040518082815260200191505060405180910390f35b34801561039757600080fd5b506103cc600480360381019080803573ffffffffffffffffffffffffffffffffffffffff169060200190929190505050610a02565b005b3480156103da57600080fd5b506103e3610b14565b604051808273ffffffffffffffffffffffffffffffffffffffff1673ffffffffffffffffffffffffffffffffffffffff16815260200191505060405180910390f35b34801561043157600080fd5b5061043a610b3a565b6040518082815260200191505060405180910390f35b34801561045c57600080fd5b50610465610b40565b604051808215151515815260200191505060405180910390f35b34801561048b57600080fd5b50610494610b57565b005b3480156104a257600080fd5b506104ab610d80565b6040518080602001828103825283818151815260200191508051906020019080838360005b838110156104eb5780820151818401526020810190506104d0565b50505050905090810190601f1680156105185780820380516001836020036101000a031916815260200191505b509250505060405180910390f35b34801561053257600080fd5b50610567600480360381019080803573ffffffffffffffffffffffffffffffffffffffff169060200190929190505050610e1e565b005b34801561057557600080fd5b506105b4600480360381019080803573ffffffffffffffffffffffffffffffffffffffff16906020019092919080359060200190929190505050610f19565b005b3480156105c257600080fd5b506105cb610fea565b6040518082815260200191505060405180910390f35b3480156105ed57600080fd5b50610622600480360381019080803573ffffffffffffffffffffffffffffffffffffffff169060200190929190505050610ff0565b604051808215151515815260200191505060405180910390f35b34801561064857600080fd5b5061067d600480360381019080803573ffffffffffffffffffffffffffffffffffffffff16906020019092919050505061117a565b6040518082815260200191505060405180910390f35b34801561069f57600080fd5b506106a86111c3565b6040518082815260200191505060405180910390f35b3480156106ca57600080fd5b506106d36111cd565b6040518082815260200191505060405180910390f35b3480156106f557600080fd5b506106fe6111d3565b6040518082815260200191505060405180910390f35b34801561072057600080fd5b506107296111dd565b604051808273ffffffffffffffffffffffffffffffffffffffff1673ffffffffffffffffffffffffffffffffffffffff16815260200191505060405180910390f35b34801561077757600080fd5b506107b6600480360381019080803573ffffffffffffffffffffffffffffffffffffffff16906020019092919080359060200190929190505050611203565b005b6107c0611333565b005b3480156107ce57600080fd5b506107d76113b3565b6040518082815260200191505060405180910390f35b3480156107f957600080fd5b506108026113bd565b6040518082815260200191505060405180910390f35b34801561082457600080fd5b5061082d6113c7565b6040518082815260200191505060405180910390f35b34801561084f57600080fd5b506108586113cd565b604051808215151515815260200191505060405180910390f35b60085481565b600a8054600181600116156101000203166002900480601f01602080910402602001604051908101604052809291908181526020018280546001816001161561010002031660029004801561090e5780601f106108e35761010080835404028352916020019161090e565b820191906000526020600020905b8154815290600101906020018083116108f157829003601f168201915b505050505081565b600c60009054906101000a900460ff1681565b60018054600181600116156101000203166002900480601f0160208091040260200160405190810160405280929190818152602001828054600181600116156101000203166002900480156109bf5780601f10610994576101008083540402835291602001916109bf565b820191906000526020600020905b8154815290600101906020018083116109a257829003601f168201915b505050505081565b600b5481565b6001600c60006101000a81548160ff0219169083151502179055506109f0610b57565b565b60055481565b6000600454905090565b60011515600e60003373ffffffffffffffffffffffffffffffffffffffff1673ffffffffffffffffffffffffffffffffffffffff16815260200190815260200160002060009054906101000a900460ff1615151480610aae5750600260009054906101000a900473ffffffffffffffffffffffffffffffffffffffff1673ffffffffffffffffffffffffffffffffffffffff163373ffffffffffffffffffffffffffffffffffffffff16145b1515610ab957600080fd5b6001600e60008373ffffffffffffffffffffffffffffffffffffffff1673ffffffffffffffffffffffffffffffffffffffff16815260200190815260200160002060006101000a81548160ff02191690831515021790555050565b600360009054906101000a900473ffffffffffffffffffffffffffffffffffffffff1681565b60045481565b6000600c60009054906101000a900460ff16905090565b7f2870b0d0558b1786ef247a7bb0787eaae7392b072f7ca327b464981f23fb0e9260005460016005546006546007546008546009600a600b54600c60009054906101000a900460ff16604051808b8152602001806020018a815260200189815260200188815260200187815260200180602001806020018681526020018515151515815260200184810384528d818154600181600116156101000203166002900481526020019150805460018160011615610100020316600290048015610c5f5780601f10610c3457610100808354040283529160200191610c5f565b820191906000526020600020905b815481529060010190602001808311610c4257829003601f168201915b5050848103835288818154600181600116156101000203166002900481526020019150805460018160011615610100020316600290048015610ce25780601f10610cb757610100808354040283529160200191610ce2565b820191906000526020600020905b815481529060010190602001808311610cc557829003601f168201915b5050848103825287818154600181600116156101000203166002900481526020019150805460018160011615610100020316600290048015610d655780601f10610d3a57610100808354040283529160200191610d65565b820191906000526020600020905b815481529060010190602001808311610d4857829003601f168201915b50509d505050505050505050505050505060405180910390a1565b60098054600181600116156101000203166002900480601f016020809104026020016040519081016040528092919081815260200182805460018160011615610100020316600290048015610e165780601f10610deb57610100808354040283529160200191610e16565b820191906000526020600020905b815481529060010190602001808311610df957829003601f168201915b505050505081565b60011515600e60003373ffffffffffffffffffffffffffffffffffffffff1673ffffffffffffffffffffffffffffffffffffffff16815260200190815260200160002060009054906101000a900460ff1615151480610eca5750600260009054906101000a900473ffffffffffffffffffffffffffffffffffffffff1673ffffffffffffffffffffffffffffffffffffffff163373ffffffffffffffffffffffffffffffffffffffff16145b1515610ed557600080fd5b80600360006101000a81548173ffffffffffffffffffffffffffffffffffffffff021916908373ffffffffffffffffffffffffffffffffffffffff16021790555050565b610f6b81600d60008573ffffffffffffffffffffffffffffffffffffffff1673ffffffffffffffffffffffffffffffffffffffff168152602001908152602001600020546113d990919063ffffffff16565b600d60008473ffffffffffffffffffffffffffffffffffffffff1673ffffffffffffffffffffffffffffffffffffffff16815260200190815260200160002081905550610fc381600b546113d990919063ffffffff16565b600b81905550610fe061a8c06004546113d990919063ffffffff16565b6004819055505050565b60075481565b6000600c60009054906101000a900460ff1615801561101157506000600b54115b801561102157506110206113cd565b5b80156110cd57508173ffffffffffffffffffffffffffffffffffffffff1663c78243cf6040518163ffffffff167c0100000000000000000000000000000000000000000000000000000000028152600401602060405180830381600087803b15801561108c57600080fd5b505af11580156110a0573d6000803e3d6000fd5b505050506040513d60208110156110b657600080fd5b8101908080519060200190929190505050600b5410155b8061117357508173ffffffffffffffffffffffffffffffffffffffff16634d7c09dd6040518163ffffffff167c0100000000000000000000000000000000000000000000000000000000028152600401602060405180830381600087803b15801561113757600080fd5b505af115801561114b573d6000803e3d6000fd5b505050506040513d602081101561116157600080fd5b81019080805190602001909291905050505b9050919050565b6000600d60008373ffffffffffffffffffffffffffffffffffffffff1673ffffffffffffffffffffffffffffffffffffffff168152602001908152602001600020549050919050565b6000600754905090565b60005481565b6000600b54905090565b600260009054906101000a900473ffffffffffffffffffffffffffffffffffffffff1681565b600b54811115151561121457600080fd5b600d60008373ffffffffffffffffffffffffffffffffffffffff1673ffffffffffffffffffffffffffffffffffffffff16815260200190815260200160002054811115151561126257600080fd5b6112b481600d60008573ffffffffffffffffffffffffffffffffffffffff1673ffffffffffffffffffffffffffffffffffffffff168152602001908152602001600020546113f590919063ffffffff16565b600d60008473ffffffffffffffffffffffffffffffffffffffff1673ffffffffffffffffffffffffffffffffffffffff1681526020019081526020016000208190555061130c81600b546113f590919063ffffffff16565b600b8190555061132961a8c06004546113f590919063ffffffff16565b6004819055505050565b600080341415151561134457600080fd5b349050600360009054906101000a900473ffffffffffffffffffffffffffffffffffffffff1673ffffffffffffffffffffffffffffffffffffffff166108fc829081150290604051600060405180830381858888f193505050501580156113af573d6000803e3d6000fd5b5050565b6000600654905090565b6000600854905090565b60065481565b60004260045411905090565b600081830190508281101515156113ec57fe5b80905092915050565b600082821115151561140357fe5b8183039050929150505600a165627a7a723058200242736ef99853dd49e57e8886e7052c01df459541a1850cefd235b976c15d810029a165627a7a72305820d7221c20b7b893a8389a68f72712c4757f8c5524d6345172ab6e5e350e0df6b70029",
  "source": "pragma solidity 0.4.25;\nimport './TimedCrowdsale.sol';\nimport '../utility/SafeMath.sol';\nimport '../Project.sol';\nimport '../token/ERC20/Token.sol';\nimport '../InvestorList.sol';\n\ncontract GNITokenCrowdsale is TimedCrowdsale {\n  using SafeMath for uint256;\n  uint256 public totalValuation;\n  InvestorList private investorList;\n\n  constructor\n      (\n        uint256 _openingTime,\n        uint256 _doomsDay,\n        uint256 _rate,\n        address _developer,\n        Token _token,\n        InvestorList _investorList\n      )\n      public\n      Crowdsale(_rate, _developer, _token)\n      TimedCrowdsale(_openingTime, _doomsDay) {\n        investorList = InvestorList(_investorList);\n        totalValuation = 0;\n  }\n\n  address[] public projects;\n\n  function getInfo(uint256 id) public view returns(\n    string, uint256, uint256, uint256, uint256, bool, uint256, uint256, address\n    ) {\n      address projectAddr = projects[id];\n      return (\n        Project(projectAddr).name(),\n        Project(projectAddr).valuation(),\n        Project(projectAddr).capitalRequired(),\n        Project(projectAddr).developerTokens(),\n        Project(projectAddr).investorTokens(),\n        Project(projectAddr).active(),\n        Project(projectAddr).totalVotes(),\n        Project(projectAddr).closingTime(),\n        projectAddr\n        );\n      }\n\n//after this, the developer has to approve this contract to spend the amount of inactive tokens associated with developers on its behalf\n function pitchProject(string _name, uint256 capitalRequired, uint256 _valuation, string _lat, string _lng) public payable {\n   (uint256 developerTokens, uint256 investorTokens) = tokensToMint(_valuation, capitalRequired);\n\n   Token(token).mint(developer, developerTokens);\n   Token(token).mint(this, investorTokens);\n\n   totalValuation = totalValuation.add(_valuation);\n\n     // Increase crowdsale duation by 90 days\n   _extendDoomsDay(90);\n\n    uint256 _id = projects.length;\n    address projectAddr = new Project(_id, _name, developer, _valuation, capitalRequired, developerTokens, investorTokens, _lat, _lng);\n    projects.push(projectAddr);\n    Project(projectAddr).log();\n }\n\n function tokensToMint (uint256 valuation, uint256 investorValue) private view returns (uint256, uint256) {\n   uint256 developerValue = valuation.sub(investorValue);\n\n   return (developerValue.mul(rate), investorValue.mul(rate));\n }\n\n function buyTokensAndVote (uint256 _projectVotedForId) public payable {\n   uint256 tokens = buyTokens(msg.sender);\n   investorList.addInvestor(msg.sender);\n   Project(projects[_projectVotedForId]).vote(msg.sender, tokens);\n }\n\n /* function sellTokens (address to, uint256 tokens) external {\n   Token(token).transferActiveTokens(msg.sender, to, tokens);\n   investorList.removeVoteCredit(msg.sender, tokens);\n   investorList.addVoteCredit(to, tokens);\n } */\n\n function transferVotes (uint256 fromProjectId, uint256 toProjectId, uint256 votes) external {\n   Project(projects[fromProjectId]).removeVotes(msg.sender, votes);\n   Project(projects[toProjectId]).vote(msg.sender, votes);\n }\n\n function addVoteCredit (uint256 fromProjectId, uint256 votes) external {\n   Project(projects[fromProjectId]).removeVotes(msg.sender, votes);\n   investorList.addVoteCredit(msg.sender, votes);\n }\n\n function voteWithCredit (uint256 toProjectId, uint256 votes) external {\n   investorList.removeVoteCredit(msg.sender, votes);\n   Project(projects[toProjectId]).vote(msg.sender, votes);\n }\n\n function _extendDoomsDay(uint256 _days) internal onlyWhileOpen {\n    doomsDay = doomsDay.add(_days.mul(1728000));\n }\n\n function activateProject() public {\n    (uint256 projectId, bool canActivate) = projectToActivateDetails();\n\n    if(canActivate){\n      Project project = Project(projects[projectId]);\n\n      uint256 developerTokens = project.developerTokens_();\n\n      Token(token).activate(developer, developerTokens);\n\n      updateInvestors(project.investorTokens_(), projectId);\n\n      uint256 capital = project.capitalRequired_();\n\n      forwardFunds(developer, capital);\n      weiRaised = weiRaised.sub(capital);\n\n      project.activate();\n    }\n  }\n\n  function projectToActivateDetails() private view returns (uint256, bool) {\n    uint256 leadingProjectId;\n    bool candidateFound = false;\n\n    for(uint256 i = 0; i < projects.length; i = i.add(1)) {\n      if (Project(projects[i]).beats(projects[leadingProjectId])) {\n        leadingProjectId = i;\n        candidateFound = true;\n      }\n    }\n\n    return (leadingProjectId, candidateFound && Project(projects[leadingProjectId]).capitalRequired_() <= weiRaised);\n  }\n\n  function updateInvestors (uint256 tokens, uint256 projectId) private {\n    uint256 supply = Token(token).totalInactiveSupply().sub(Token(token).inactiveBalanceOf(developer));\n\n    for (uint256 i = 1; i <= investorList.investorCount(); i = i.add(1)) {\n      address investor = investorList.addrById(i);\n      uint256 investorBalance = Token(token).inactiveBalanceOf(investor);\n      uint256 tokensToActivate = investorBalance.mul(tokens).div(supply);\n\n      Token(token).activate(investor, tokensToActivate);\n\n      /* investorList.cacheVoteCredit(investor, projectId, tokensToActivate); */\n      Project(projects[projectId]).removeVotes(investor, tokensToActivate);\n      investorList.addVoteCredit(investor, tokensToActivate);\n    }\n  }\n\n  function forwardFunds (address _to, uint256 amount) internal {\n    _to.transfer(amount);\n    weiRaised = weiRaised.sub(amount);\n  }\n}\n",
  "sourcePath": "/Users/steven/genie-portal/truffle/contracts/crowdsale/GNITokenCrowdsale.sol",
  "compiler": {
    "name": "solc",
    "version": "0.4.25+commit.59dbf8f1.Emscripten.clang"
  },
  "schemaVersion": "3.0.0-beta.1",
  "updatedAt": "2018-11-09T01:14:48.232Z"
}