{
  "contractName": "GNITokenCrowdsale",
  "abi": [
    {
      "constant": true,
      "inputs": [],
      "name": "hasClosed",
      "outputs": [
        {
          "name": "",
          "type": "bool"
        }
      ],
      "payable": false,
      "stateMutability": "view",
      "type": "function"
    },
    {
      "constant": true,
      "inputs": [],
      "name": "developerWallet",
      "outputs": [
        {
          "name": "",
          "type": "address"
        }
      ],
      "payable": false,
      "stateMutability": "view",
      "type": "function"
    },
    {
      "constant": true,
      "inputs": [],
      "name": "totalValuation",
      "outputs": [
        {
          "name": "",
          "type": "uint256"
        }
      ],
      "payable": false,
      "stateMutability": "view",
      "type": "function"
    },
    {
      "constant": true,
      "inputs": [],
      "name": "rate",
      "outputs": [
        {
          "name": "",
          "type": "uint256"
        }
      ],
      "payable": false,
      "stateMutability": "view",
      "type": "function"
    },
    {
      "constant": true,
      "inputs": [],
      "name": "cap",
      "outputs": [
        {
          "name": "",
          "type": "uint256"
        }
      ],
      "payable": false,
      "stateMutability": "view",
      "type": "function"
    },
    {
      "constant": true,
      "inputs": [],
      "name": "weiRaised",
      "outputs": [
        {
          "name": "",
          "type": "uint256"
        }
      ],
      "payable": false,
      "stateMutability": "view",
      "type": "function"
    },
    {
      "constant": true,
      "inputs": [],
      "name": "capReached",
      "outputs": [
        {
          "name": "",
          "type": "bool"
        }
      ],
      "payable": false,
      "stateMutability": "view",
      "type": "function"
    },
    {
      "constant": true,
      "inputs": [],
      "name": "wallet",
      "outputs": [
        {
          "name": "",
          "type": "address"
        }
      ],
      "payable": false,
      "stateMutability": "view",
      "type": "function"
    },
    {
      "constant": true,
      "inputs": [],
      "name": "openingTime",
      "outputs": [
        {
          "name": "",
          "type": "uint256"
        }
      ],
      "payable": false,
      "stateMutability": "view",
      "type": "function"
    },
    {
      "constant": true,
      "inputs": [],
      "name": "doomsDay",
      "outputs": [
        {
          "name": "",
          "type": "uint256"
        }
      ],
      "payable": false,
      "stateMutability": "view",
      "type": "function"
    },
    {
      "constant": false,
      "inputs": [
        {
          "name": "_beneficiary",
          "type": "address"
        }
      ],
      "name": "buyTokens",
      "outputs": [],
      "payable": true,
      "stateMutability": "payable",
      "type": "function"
    },
    {
      "constant": true,
      "inputs": [],
      "name": "token",
      "outputs": [
        {
          "name": "",
          "type": "address"
        }
      ],
      "payable": false,
      "stateMutability": "view",
      "type": "function"
    },
    {
      "inputs": [
        {
          "name": "_openingTime",
          "type": "uint256"
        },
        {
          "name": "_doomsDay",
          "type": "uint256"
        },
        {
          "name": "_rate",
          "type": "uint256"
        },
        {
          "name": "_wallet",
          "type": "address"
        },
        {
          "name": "_developerWallet",
          "type": "address"
        },
        {
          "name": "_cap",
          "type": "uint256"
        },
        {
          "name": "_token",
          "type": "address"
        }
      ],
      "payable": false,
      "stateMutability": "nonpayable",
      "type": "constructor"
    },
    {
      "payable": true,
      "stateMutability": "payable",
      "type": "fallback"
    },
    {
      "anonymous": false,
      "inputs": [
        {
          "indexed": false,
          "name": "name",
          "type": "string"
        },
        {
          "indexed": false,
          "name": "valuation",
          "type": "uint256"
        },
        {
          "indexed": false,
          "name": "capitalRequired",
          "type": "uint256"
        },
        {
          "indexed": false,
          "name": "lat",
          "type": "string"
        },
        {
          "indexed": false,
          "name": "lng",
          "type": "string"
        },
        {
          "indexed": false,
          "name": "voteCount",
          "type": "uint256"
        },
        {
          "indexed": false,
          "name": "capitalReached",
          "type": "bool"
        },
        {
          "indexed": false,
          "name": "active",
          "type": "bool"
        }
      ],
      "name": "LogProject",
      "type": "event"
    },
    {
      "anonymous": false,
      "inputs": [
        {
          "indexed": true,
          "name": "purchaser",
          "type": "address"
        },
        {
          "indexed": true,
          "name": "beneficiary",
          "type": "address"
        },
        {
          "indexed": false,
          "name": "value",
          "type": "uint256"
        },
        {
          "indexed": false,
          "name": "amount",
          "type": "uint256"
        }
      ],
      "name": "TokenPurchase",
      "type": "event"
    },
    {
      "constant": true,
      "inputs": [
        {
          "name": "_name",
          "type": "string"
        }
      ],
      "name": "getProjectInfo",
      "outputs": [
        {
          "name": "",
          "type": "string"
        },
        {
          "name": "",
          "type": "uint256"
        },
        {
          "name": "",
          "type": "uint256"
        },
        {
          "name": "",
          "type": "bool"
        },
        {
          "name": "",
          "type": "uint256"
        }
      ],
      "payable": false,
      "stateMutability": "view",
      "type": "function"
    },
    {
      "constant": false,
      "inputs": [
        {
          "name": "_name",
          "type": "string"
        },
        {
          "name": "capitalRequired",
          "type": "uint256"
        },
        {
          "name": "_valuation",
          "type": "uint256"
        },
        {
          "name": "_lat",
          "type": "string"
        },
        {
          "name": "_lng",
          "type": "string"
        }
      ],
      "name": "pitchProject",
      "outputs": [],
      "payable": true,
      "stateMutability": "payable",
      "type": "function"
    },
    {
      "constant": false,
      "inputs": [
        {
          "name": "_beneficiary",
          "type": "address"
        },
        {
          "name": "_projectVotedFor",
          "type": "string"
        }
      ],
      "name": "buyToken",
      "outputs": [],
      "payable": true,
      "stateMutability": "payable",
      "type": "function"
    },
    {
      "constant": false,
      "inputs": [
        {
          "name": "_projectValue",
          "type": "uint256"
        }
      ],
      "name": "pitchProjectandRaiseCap",
      "outputs": [],
      "payable": false,
      "stateMutability": "nonpayable",
      "type": "function"
    }
  ],
  "bytecode": "0x608060405234801561001057600080fd5b5060405160e0806119c08339810180604052810190808051906020019092919080519060200190929190805190602001909291908051906020019092919080519060200190929190805190602001909291908051906020019092919050505081878787878560008311151561008457600080fd5b600073ffffffffffffffffffffffffffffffffffffffff168273ffffffffffffffffffffffffffffffffffffffff16141515156100c057600080fd5b600073ffffffffffffffffffffffffffffffffffffffff168173ffffffffffffffffffffffffffffffffffffffff16141515156100fc57600080fd5b8260028190555081600160006101000a81548173ffffffffffffffffffffffffffffffffffffffff021916908373ffffffffffffffffffffffffffffffffffffffff160217905550806000806101000a81548173ffffffffffffffffffffffffffffffffffffffff021916908373ffffffffffffffffffffffffffffffffffffffff16021790555050505042821015151561019657600080fd5b8181101515156101a557600080fd5b816004819055508060058190555050508060068190555050600060088190555082600760006101000a81548173ffffffffffffffffffffffffffffffffffffffff021916908373ffffffffffffffffffffffffffffffffffffffff160217905550505050505050506117a48061021c6000396000f3006080604052600436106100e6576000357c0100000000000000000000000000000000000000000000000000000000900463ffffffff1680631515bc2b146100f1578063185870f914610120578063295b9300146101775780632c4e722e146101a2578063355274ea146101cd5780634042b66f146101f85780634f93594514610223578063521eb27314610252578063629dcf11146102a957806365af1672146102d6578063b0dfa98e146103d2578063b7a8807c1461044e578063c19b7bc014610479578063ec8ac4d8146104a4578063f339118d146104da578063fc0c546a146105dc575b6100ef33610633565b005b3480156100fd57600080fd5b50610106610701565b604051808215151515815260200191505060405180910390f35b34801561012c57600080fd5b5061013561070d565b604051808273ffffffffffffffffffffffffffffffffffffffff1673ffffffffffffffffffffffffffffffffffffffff16815260200191505060405180910390f35b34801561018357600080fd5b5061018c610733565b6040518082815260200191505060405180910390f35b3480156101ae57600080fd5b506101b7610739565b6040518082815260200191505060405180910390f35b3480156101d957600080fd5b506101e261073f565b6040518082815260200191505060405180910390f35b34801561020457600080fd5b5061020d610745565b6040518082815260200191505060405180910390f35b34801561022f57600080fd5b5061023861074b565b604051808215151515815260200191505060405180910390f35b34801561025e57600080fd5b5061026761075a565b604051808273ffffffffffffffffffffffffffffffffffffffff1673ffffffffffffffffffffffffffffffffffffffff16815260200191505060405180910390f35b3480156102b557600080fd5b506102d460048036038101908080359060200190929190505050610780565b005b6103d0600480360381019080803590602001908201803590602001908080601f01602080910402602001604051908101604052809392919081815260200183838082843782019150505050505091929192908035906020019092919080359060200190929190803590602001908201803590602001908080601f0160208091040260200160405190810160405280939291908181526020018383808284378201915050505050509192919290803590602001908201803590602001908080601f01602080910402602001604051908101604052809392919081815260200183838082843782019150505050505091929192905050506109a6565b005b61044c600480360381019080803573ffffffffffffffffffffffffffffffffffffffff169060200190929190803590602001908201803590602001908080601f0160208091040260200160405190810160405280939291908181526020018383808284378201915050505050509192919290505050610d67565b005b34801561045a57600080fd5b50610463610dd9565b6040518082815260200191505060405180910390f35b34801561048557600080fd5b5061048e610ddf565b6040518082815260200191505060405180910390f35b6104d8600480360381019080803573ffffffffffffffffffffffffffffffffffffffff169060200190929190505050610633565b005b3480156104e657600080fd5b50610541600480360381019080803590602001908201803590602001908080601f0160208091040260200160405190810160405280939291908181526020018383808284378201915050505050509192919290505050610de5565b604051808060200186815260200185815260200184151515158152602001838152602001828103825287818151815260200191508051906020019080838360005b8381101561059d578082015181840152602081019050610582565b50505050905090810190601f1680156105ca5780820380516001836020036101000a031916815260200191505b50965050505050505060405180910390f35b3480156105e857600080fd5b506105f16110e4565b604051808273ffffffffffffffffffffffffffffffffffffffff1673ffffffffffffffffffffffffffffffffffffffff16815260200191505060405180910390f35b6000803491506106438383611109565b61064c8261113c565b90506106638260035461115a90919063ffffffff16565b6003819055506106738382611176565b8273ffffffffffffffffffffffffffffffffffffffff163373ffffffffffffffffffffffffffffffffffffffff167f623b3804fa71d67900d064613da8f94b9617215ee90799290593e1745087ad188484604051808381526020018281526020019250505060405180910390a36106ea8383611184565b6106f2611188565b6106fc83836111f3565b505050565b60006005544211905090565b600760009054906101000a900473ffffffffffffffffffffffffffffffffffffffff1681565b60085481565b60025481565b60065481565b60035481565b60006006546003541015905090565b600160009054906101000a900473ffffffffffffffffffffffffffffffffffffffff1681565b60008060006103e892506000809054906101000a900473ffffffffffffffffffffffffffffffffffffffff1673ffffffffffffffffffffffffffffffffffffffff166340c10f19600160009054906101000a900473ffffffffffffffffffffffffffffffffffffffff16856040518363ffffffff167c0100000000000000000000000000000000000000000000000000000000028152600401808373ffffffffffffffffffffffffffffffffffffffff1673ffffffffffffffffffffffffffffffffffffffff16815260200182815260200192505050602060405180830381600087803b15801561087057600080fd5b505af1158015610884573d6000803e3d6000fd5b505050506040513d602081101561089a57600080fd5b8101908080519060200190929190505050506000809054906101000a900473ffffffffffffffffffffffffffffffffffffffff1673ffffffffffffffffffffffffffffffffffffffff166318160ddd6040518163ffffffff167c0100000000000000000000000000000000000000000000000000000000028152600401602060405180830381600087803b15801561093157600080fd5b505af1158015610945573d6000803e3d6000fd5b505050506040513d602081101561095b57600080fd5b810190808051906020019092919050505091506109838460065461115a90919063ffffffff16565b6006819055508160065481151561099657fe5b0490508060028190555050505050565b6109ae611682565b600760009054906101000a900473ffffffffffffffffffffffffffffffffffffffff1673ffffffffffffffffffffffffffffffffffffffff163373ffffffffffffffffffffffffffffffffffffffff16141515610a0a57600080fd5b610a13846111f7565b610a288460085461115a90919063ffffffff16565b600881905550610a38605a611336565b6101206040519081016040528087815260200163013d23804201815260200185815260200186815260200184815260200183815260200160008152602001600015158152602001600015158152509050806009876040518082805190602001908083835b602083101515610ac15780518252602082019150602081019050602083039250610a9c565b6001836020036101000a03801982511681845116808217855250505050505090500191505090815260200160405180910390206000820151816000019080519060200190610b109291906116d3565b506020820151816001015560408201518160020155606082015181600301556080820151816004019080519060200190610b4b9291906116d3565b5060a0820151816005019080519060200190610b689291906116d3565b5060c0820151816006015560e08201518160070160006101000a81548160ff0219169083151502179055506101008201518160070160016101000a81548160ff0219169083151502179055509050507f5c483cef42dc819af5a97db071c1a233161605e876a45a0991b781f18d47e4ae8685878686600080600060405180806020018981526020018881526020018060200180602001878152602001861515151581526020018515151515815260200184810384528c818151815260200191508051906020019080838360005b83811015610c50578082015181840152602081019050610c35565b50505050905090810190601f168015610c7d5780820380516001836020036101000a031916815260200191505b50848103835289818151815260200191508051906020019080838360005b83811015610cb6578082015181840152602081019050610c9b565b50505050905090810190601f168015610ce35780820380516001836020036101000a031916815260200191505b50848103825288818151815260200191508051906020019080838360005b83811015610d1c578082015181840152602081019050610d01565b50505050905090810190601f168015610d495780820380516001836020036101000a031916815260200191505b509b50505050505050505050505060405180910390a1505050505050565b600760009054906101000a900473ffffffffffffffffffffffffffffffffffffffff1673ffffffffffffffffffffffffffffffffffffffff163373ffffffffffffffffffffffffffffffffffffffff16141515610dc357600080fd5b610dcc82610633565b610dd58161139d565b5050565b60045481565b60055481565b6060600080600080610df5611682565b6009876040518082805190602001908083835b602083101515610e2d5780518252602082019150602081019050602083039250610e08565b6001836020036101000a03801982511681845116808217855250505050505090500191505090815260200160405180910390206101206040519081016040529081600082018054600181600116156101000203166002900480601f016020809104026020016040519081016040528092919081815260200182805460018160011615610100020316600290048015610f065780601f10610edb57610100808354040283529160200191610f06565b820191906000526020600020905b815481529060010190602001808311610ee957829003601f168201915b50505050508152602001600182015481526020016002820154815260200160038201548152602001600482018054600181600116156101000203166002900480601f016020809104026020016040519081016040528092919081815260200182805460018160011615610100020316600290048015610fc65780601f10610f9b57610100808354040283529160200191610fc6565b820191906000526020600020905b815481529060010190602001808311610fa957829003601f168201915b50505050508152602001600582018054600181600116156101000203166002900480601f0160208091040260200160405190810160405280929190818152602001828054600181600116156101000203166002900480156110685780601f1061103d57610100808354040283529160200191611068565b820191906000526020600020905b81548152906001019060200180831161104b57829003601f168201915b50505050508152602001600682015481526020016007820160009054906101000a900460ff161515151581526020016007820160019054906101000a900460ff16151515158152505090508060000151816040015182606001518361010001518460c00151849450955095509550955095505091939590929450565b6000809054906101000a900473ffffffffffffffffffffffffffffffffffffffff1681565b6111138282611494565b60065461112b8260035461115a90919063ffffffff16565b1115151561113857600080fd5b5050565b6000611153600254836114d690919063ffffffff16565b9050919050565b6000818301905082811015151561116d57fe5b80905092915050565b611180828261150e565b5050565b5050565b600160009054906101000a900473ffffffffffffffffffffffffffffffffffffffff1673ffffffffffffffffffffffffffffffffffffffff166108fc349081150290604051600060405180830381858888f193505050501580156111f0573d6000803e3d6000fd5b50565b5050565b600061120e6002548361161c90919063ffffffff16565b90506000809054906101000a900473ffffffffffffffffffffffffffffffffffffffff1673ffffffffffffffffffffffffffffffffffffffff166340c10f19600160009054906101000a900473ffffffffffffffffffffffffffffffffffffffff16836040518363ffffffff167c0100000000000000000000000000000000000000000000000000000000028152600401808373ffffffffffffffffffffffffffffffffffffffff1673ffffffffffffffffffffffffffffffffffffffff16815260200182815260200192505050602060405180830381600087803b1580156112f657600080fd5b505af115801561130a573d6000803e3d6000fd5b505050506040513d602081101561132057600080fd5b8101908080519060200190929190505050505050565b600080600042925060045491506005549050600454421015801561135c57506005544211155b151561136757600080fd5b611391611380621a5e00866114d690919063ffffffff16565b60055461115a90919063ffffffff16565b60058190555050505050565b61141f60016009836040518082805190602001908083835b6020831015156113da57805182526020820191506020810190506020830392506113b5565b6001836020036101000a03801982511681845116808217855250505050505090500191505090815260200160405180910390206006015461115a90919063ffffffff16565b6009826040518082805190602001908083835b6020831015156114575780518252602082019150602081019050602083039250611432565b6001836020036101000a03801982511681845116808217855250505050505090500191505090815260200160405180910390206006018190555050565b60008060004292506004549150600554905060045442101580156114ba57506005544211155b15156114c557600080fd5b6114cf8585611632565b5050505050565b6000808314156114e95760009050611508565b81830290508183828115156114fa57fe5b0414151561150457fe5b8090505b92915050565b6000809054906101000a900473ffffffffffffffffffffffffffffffffffffffff1673ffffffffffffffffffffffffffffffffffffffff166340c10f1983836040518363ffffffff167c0100000000000000000000000000000000000000000000000000000000028152600401808373ffffffffffffffffffffffffffffffffffffffff1673ffffffffffffffffffffffffffffffffffffffff16815260200182815260200192505050602060405180830381600087803b1580156115d257600080fd5b505af11580156115e6573d6000803e3d6000fd5b505050506040513d60208110156115fc57600080fd5b8101908080519060200190929190505050151561161857600080fd5b5050565b6000818381151561162957fe5b04905092915050565b600073ffffffffffffffffffffffffffffffffffffffff168273ffffffffffffffffffffffffffffffffffffffff161415151561166e57600080fd5b6000811415151561167e57600080fd5b5050565b61012060405190810160405280606081526020016000815260200160008152602001600081526020016060815260200160608152602001600081526020016000151581526020016000151581525090565b828054600181600116156101000203166002900490600052602060002090601f016020900481019282601f1061171457805160ff1916838001178555611742565b82800160010185558215611742579182015b82811115611741578251825591602001919060010190611726565b5b50905061174f9190611753565b5090565b61177591905b80821115611771576000816000905550600101611759565b5090565b905600a165627a7a72305820f4aa44bd78884406acd211cdf19f0f3660ab9590f442674525a2277fcd94ca560029",
  "source": "pragma solidity 0.4.24;\n\nimport '../token/GNIToken.sol';\nimport './MintedCrowdsale.sol';\nimport './TimedCrowdsale.sol';\nimport './CappedCrowdsale.sol';\nimport '../utility/SafeMath.sol';\n\ncontract GNITokenCrowdsale is TimedCrowdsale, CappedCrowdsale,  MintedCrowdsale {\n    using SafeMath for uint256;\n    address public developerWallet;\n    uint256 public totalValuation;\n\n    constructor\n        (\n          uint256 _openingTime,\n          uint256 _doomsDay,\n          uint256 _rate,\n          address _wallet,\n          address _developerWallet,\n          uint256 _cap,\n          MintableToken _token\n        )\n        public\n        Crowdsale(_rate, _wallet, _token)\n        //remove capped crowdsale\n        CappedCrowdsale(_cap)\n        TimedCrowdsale(_openingTime, _doomsDay) {\n            // rewriting wallet to this will not work in contructor\n            totalValuation = 0;\n            developerWallet = _developerWallet;\n        }\n\n        struct Project {\n            string name;\n            uint256 projectClosingTime;\n            uint256 valuation;\n            uint256 capitalRequired;\n            string lat;\n            string lng;\n            uint256 voteCount;\n            bool capitalReached;\n            bool active;\n        }\n\n        event LogProject (\n            string name,\n            uint256 valuation,\n            uint256 capitalRequired,\n            string lat,\n            string lng,\n            uint256 voteCount,\n            bool capitalReached,\n            bool active\n        );\n\n\n        mapping(string => Project) private projects;\n\n\n         function getProjectInfo(string _name) public view returns(\n             string, uint256, uint256, bool, uint256\n\n         ) {\n             Project memory project = projects[_name];\n             return (\n                 project.name,\n                 project.valuation,\n                 project.capitalRequired,\n                 project.active,\n                 project.voteCount\n             );\n         }\n\n         function pitchProject(string _name, uint capitalRequired, uint _valuation, string _lat, string _lng) public payable onlyDeveloper {\n            issueTokensBasedOnPrice(_valuation);\n\n             totalValuation = totalValuation.add(_valuation);\n\n             // Increase crowdsale duation by 90 days\n             _extendClosingTime(90);\n\n             // Create project information\n             Project memory newProject = Project({\n                 name: _name,\n                 projectClosingTime: now + 86600 * 240,\n                 valuation: _valuation,\n                 capitalRequired: capitalRequired,\n                 lat: _lat,\n                 lng: _lng,\n                 capitalReached: false,\n                 active: false,\n                 voteCount: 0\n             });\n\n             // Save project information\n             projects[_name] = newProject;\n\n\n\n             // log the creation of the new project\n             emit LogProject(_name, _valuation, capitalRequired, _lat, _lng, 0, false, false);\n         }\n\n         function issueTokensBasedOnPrice(uint256 valuation) private {\n           uint tokensToIssue = valuation.div(rate);\n\n           GNIToken(token).mint(wallet, tokensToIssue); // change logic to only issue if cap is reached\n         }\n\n         function buyToken(address _beneficiary, string _projectVotedFor) public payable onlyDeveloper {\n             // Can we change this to msg.sender so that there is not option to buy on behalf of someone else;\n\n             // before buyToken, verify that the project is still undeployed\n             buyTokens(_beneficiary);\n             updateVoteCount(_projectVotedFor);\n         }\n\n\n         function updateVoteCount(string _projectVotedFor) internal {\n             projects[_projectVotedFor].voteCount = projects[_projectVotedFor].voteCount.add(1);\n         }\n\n         // All Project addresses\n         struct ProjectAddress {\n             string location;\n             bool deployed;\n         }\n\n        function pitchProjectandRaiseCap(uint256 _projectValue) public {\n          uint newTokensIssued = 1000;\n          GNIToken(token).mint(wallet, newTokensIssued); // change logic to only issue if cap is reached\n          uint updatedTotalSupply = GNIToken(token).totalSupply();\n          cap = cap.add(_projectValue);\n          uint newRate = cap/updatedTotalSupply;\n          rate = newRate;\n        }\n\n        modifier onlyDeveloper() {\n          require(msg.sender == developerWallet);\n          _;\n        }\n\n        function _extendClosingTime(uint256 _days) internal onlyWhileOpen {\n            doomsDay = doomsDay.add(_days.mul(1728000));\n        }\n\n}\n",
  "sourcePath": "/Users/steven/genie-portal/truffle/contracts/crowdsale/GNITokenCrowdsale.sol",
  "compiler": {
    "name": "solc",
    "version": "0.4.24+commit.e67f0147.Emscripten.clang"
  },
  "schemaVersion": "2.0.1",
  "updatedAt": "2018-10-02T20:39:49.633Z"
}