{
  "contractName": "GNITokenCrowdsale",
  "abi": [
    {
      "constant": true,
      "inputs": [],
      "name": "hasClosed",
      "outputs": [
        {
          "name": "",
          "type": "bool"
        }
      ],
      "payable": false,
      "stateMutability": "view",
      "type": "function"
    },
    {
      "constant": true,
      "inputs": [],
      "name": "totalValuation",
      "outputs": [
        {
          "name": "",
          "type": "uint256"
        }
      ],
      "payable": false,
      "stateMutability": "view",
      "type": "function"
    },
    {
      "constant": true,
      "inputs": [
        {
          "name": "",
          "type": "uint256"
        }
      ],
      "name": "projectAddrs",
      "outputs": [
        {
          "name": "",
          "type": "address"
        }
      ],
      "payable": false,
      "stateMutability": "view",
      "type": "function"
    },
    {
      "constant": true,
      "inputs": [],
      "name": "investorList",
      "outputs": [
        {
          "name": "",
          "type": "address"
        }
      ],
      "payable": false,
      "stateMutability": "view",
      "type": "function"
    },
    {
      "constant": true,
      "inputs": [],
      "name": "dividendWallet",
      "outputs": [
        {
          "name": "",
          "type": "address"
        }
      ],
      "payable": false,
      "stateMutability": "view",
      "type": "function"
    },
    {
      "constant": true,
      "inputs": [],
      "name": "openingTime",
      "outputs": [
        {
          "name": "",
          "type": "uint256"
        }
      ],
      "payable": false,
      "stateMutability": "view",
      "type": "function"
    },
    {
      "constant": true,
      "inputs": [],
      "name": "doomsDay",
      "outputs": [
        {
          "name": "",
          "type": "uint256"
        }
      ],
      "payable": false,
      "stateMutability": "view",
      "type": "function"
    },
    {
      "constant": true,
      "inputs": [],
      "name": "projectQueue",
      "outputs": [
        {
          "name": "",
          "type": "address"
        }
      ],
      "payable": false,
      "stateMutability": "view",
      "type": "function"
    },
    {
      "constant": false,
      "inputs": [],
      "name": "weiRaised_",
      "outputs": [
        {
          "name": "",
          "type": "uint256"
        }
      ],
      "payable": false,
      "stateMutability": "nonpayable",
      "type": "function"
    },
    {
      "constant": false,
      "inputs": [
        {
          "name": "_beneficiary",
          "type": "address"
        }
      ],
      "name": "buyTokens",
      "outputs": [
        {
          "name": "",
          "type": "uint256"
        }
      ],
      "payable": true,
      "stateMutability": "payable",
      "type": "function"
    },
    {
      "constant": true,
      "inputs": [],
      "name": "token",
      "outputs": [
        {
          "name": "",
          "type": "address"
        }
      ],
      "payable": false,
      "stateMutability": "view",
      "type": "function"
    },
    {
      "inputs": [
        {
          "name": "_openingTime",
          "type": "uint256"
        },
        {
          "name": "_doomsDay",
          "type": "uint256"
        },
        {
          "name": "_rate",
          "type": "uint256"
        },
        {
          "name": "_developer",
          "type": "address"
        },
        {
          "name": "_dividendWallet",
          "type": "address"
        },
        {
          "name": "_token",
          "type": "address"
        },
        {
          "name": "_investorList",
          "type": "address"
        },
        {
          "name": "_projectQueue",
          "type": "address"
        }
      ],
      "payable": false,
      "stateMutability": "nonpayable",
      "type": "constructor"
    },
    {
      "payable": true,
      "stateMutability": "payable",
      "type": "fallback"
    },
    {
      "anonymous": false,
      "inputs": [
        {
          "indexed": true,
          "name": "purchaser",
          "type": "address"
        },
        {
          "indexed": true,
          "name": "beneficiary",
          "type": "address"
        },
        {
          "indexed": false,
          "name": "value",
          "type": "uint256"
        },
        {
          "indexed": false,
          "name": "amount",
          "type": "uint256"
        }
      ],
      "name": "TokenPurchase",
      "type": "event"
    },
    {
      "constant": false,
      "inputs": [
        {
          "name": "_name",
          "type": "string"
        },
        {
          "name": "capitalRequired",
          "type": "uint256"
        },
        {
          "name": "_valuation",
          "type": "uint256"
        },
        {
          "name": "_lat",
          "type": "string"
        },
        {
          "name": "_lng",
          "type": "string"
        }
      ],
      "name": "pitchProject",
      "outputs": [],
      "payable": false,
      "stateMutability": "nonpayable",
      "type": "function"
    },
    {
      "constant": false,
      "inputs": [
        {
          "name": "_projectVotedForId",
          "type": "uint256"
        }
      ],
      "name": "buyTokensAndVote",
      "outputs": [],
      "payable": true,
      "stateMutability": "payable",
      "type": "function"
    },
    {
      "constant": false,
      "inputs": [
        {
          "name": "_projectId",
          "type": "uint256"
        }
      ],
      "name": "considerTentativeLeaderShip",
      "outputs": [],
      "payable": false,
      "stateMutability": "nonpayable",
      "type": "function"
    },
    {
      "constant": false,
      "inputs": [],
      "name": "attemptProjectActivation",
      "outputs": [],
      "payable": false,
      "stateMutability": "nonpayable",
      "type": "function"
    },
    {
      "constant": false,
      "inputs": [],
      "name": "activateProject",
      "outputs": [],
      "payable": false,
      "stateMutability": "nonpayable",
      "type": "function"
    },
    {
      "constant": false,
      "inputs": [
        {
          "name": "fromProjectId",
          "type": "uint256"
        },
        {
          "name": "toProjectId",
          "type": "uint256"
        },
        {
          "name": "votes",
          "type": "uint256"
        }
      ],
      "name": "transferVotes",
      "outputs": [],
      "payable": false,
      "stateMutability": "nonpayable",
      "type": "function"
    },
    {
      "constant": false,
      "inputs": [
        {
          "name": "fromProjectId",
          "type": "uint256"
        },
        {
          "name": "votes",
          "type": "uint256"
        }
      ],
      "name": "addVoteCredit",
      "outputs": [],
      "payable": false,
      "stateMutability": "nonpayable",
      "type": "function"
    },
    {
      "constant": false,
      "inputs": [
        {
          "name": "to",
          "type": "address"
        },
        {
          "name": "fromProjectId",
          "type": "uint256"
        },
        {
          "name": "votes",
          "type": "uint256"
        }
      ],
      "name": "addVoteCreditTo",
      "outputs": [],
      "payable": false,
      "stateMutability": "nonpayable",
      "type": "function"
    },
    {
      "constant": false,
      "inputs": [
        {
          "name": "toProjectId",
          "type": "uint256"
        },
        {
          "name": "votes",
          "type": "uint256"
        }
      ],
      "name": "voteWithCredit",
      "outputs": [],
      "payable": false,
      "stateMutability": "nonpayable",
      "type": "function"
    }
  ],
  "bytecode": "0x608060405234801561001057600080fd5b5060405161010080620038f58339810180604052810190808051906020019092919080519060200190929190805190602001909291908051906020019092919080519060200190929190805190602001909291908051906020019092919080519060200190929190505050878787878660008311151561008f57600080fd5b600073ffffffffffffffffffffffffffffffffffffffff168273ffffffffffffffffffffffffffffffffffffffff16141515156100cb57600080fd5b8260028190555081600160006101000a81548173ffffffffffffffffffffffffffffffffffffffff021916908373ffffffffffffffffffffffffffffffffffffffff160217905550806000806101000a81548173ffffffffffffffffffffffffffffffffffffffff021916908373ffffffffffffffffffffffffffffffffffffffff16021790555050505042821015151561016557600080fd5b81811015151561017457600080fd5b8160048190555080600581905550505081600760006101000a81548173ffffffffffffffffffffffffffffffffffffffff021916908373ffffffffffffffffffffffffffffffffffffffff16021790555080600860006101000a81548173ffffffffffffffffffffffffffffffffffffffff021916908373ffffffffffffffffffffffffffffffffffffffff160217905550600060068190555083600960006101000a81548173ffffffffffffffffffffffffffffffffffffffff021916908373ffffffffffffffffffffffffffffffffffffffff160217905550505050505050505061368e80620002676000396000f30060806040526004361062000127576000357c0100000000000000000000000000000000000000000000000000000000900463ffffffff1680631515bc2b1462000129578063295b9300146200015b5780632c77b93d1462000189578063340945cf14620001cd5780633cb78fe014620002075780633fff906414620002215780634e4c08ca146200025b578063589679c714620002cb57806365af167214620002ed5780636bd42fb114620003f9578063a1f8adac1462000429578063b0e011641462000483578063b7a8807c14620004dd578063c19b7bc0146200050b578063d93b2b591462000539578063e31bc6141462000593578063ec8ac4d814620005c1578063f4e7659d146200060d578063f89b4b1f1462000667578063fc0c546a1462000681575b005b3480156200013657600080fd5b5062000141620006db565b604051808215151515815260200191505060405180910390f35b3480156200016857600080fd5b5062000173620006e7565b6040518082815260200191505060405180910390f35b3480156200019657600080fd5b50620001cb600480360381019080803590602001909291908035906020019092919080359060200190929190505050620006ed565b005b348015620001da57600080fd5b50620002056004803603810190808035906020019092919080359060200190929190505050620008eb565b005b3480156200021457600080fd5b506200021f62000acb565b005b3480156200022e57600080fd5b5062000259600480360381019080803590602001909291908035906020019092919050505062000d73565b005b3480156200026857600080fd5b50620002896004803603810190808035906020019092919050505062000d84565b604051808273ffffffffffffffffffffffffffffffffffffffff1673ffffffffffffffffffffffffffffffffffffffff16815260200191505060405180910390f35b620002eb6004803603810190808035906020019092919050505062000dc3565b005b348015620002fa57600080fd5b50620003f7600480360381019080803590602001908201803590602001908080601f01602080910402602001604051908101604052809392919081815260200183838082843782019150505050505091929192908035906020019092919080359060200190929190803590602001908201803590602001908080601f0160208091040260200160405190810160405280939291908181526020018383808284378201915050505050509192919290803590602001908201803590602001908080601f0160208091040260200160405190810160405280939291908181526020018383808284378201915050505050509192919290505050620010c4565b005b3480156200040657600080fd5b50620004276004803603810190808035906020019092919050505062001765565b005b3480156200043657600080fd5b5062000441620018fe565b604051808273ffffffffffffffffffffffffffffffffffffffff1673ffffffffffffffffffffffffffffffffffffffff16815260200191505060405180910390f35b3480156200049057600080fd5b506200049b62001924565b604051808273ffffffffffffffffffffffffffffffffffffffff1673ffffffffffffffffffffffffffffffffffffffff16815260200191505060405180910390f35b348015620004ea57600080fd5b50620004f56200194a565b6040518082815260200191505060405180910390f35b3480156200051857600080fd5b506200052362001950565b6040518082815260200191505060405180910390f35b3480156200054657600080fd5b506200055162001956565b604051808273ffffffffffffffffffffffffffffffffffffffff1673ffffffffffffffffffffffffffffffffffffffff16815260200191505060405180910390f35b348015620005a057600080fd5b50620005ab6200197c565b6040518082815260200191505060405180910390f35b620005f7600480360381019080803573ffffffffffffffffffffffffffffffffffffffff16906020019092919050505062001986565b6040518082815260200191505060405180910390f35b3480156200061a57600080fd5b5062000665600480360381019080803573ffffffffffffffffffffffffffffffffffffffff169060200190929190803590602001909291908035906020019092919050505062001b19565b005b3480156200067457600080fd5b506200067f62001cc4565b005b3480156200068e57600080fd5b506200069962001d06565b604051808273ffffffffffffffffffffffffffffffffffffffff1673ffffffffffffffffffffffffffffffffffffffff16815260200191505060405180910390f35b60006005544211905090565b60065481565b600080600a858154811015156200070057fe5b9060005260206000200160009054906101000a900473ffffffffffffffffffffffffffffffffffffffff169150600a848154811015156200073d57fe5b9060005260206000200160009054906101000a900473ffffffffffffffffffffffffffffffffffffffff1690508173ffffffffffffffffffffffffffffffffffffffff1663ce6a088033856040518363ffffffff167c0100000000000000000000000000000000000000000000000000000000028152600401808373ffffffffffffffffffffffffffffffffffffffff1673ffffffffffffffffffffffffffffffffffffffff16815260200182815260200192505050600060405180830381600087803b1580156200080e57600080fd5b505af115801562000823573d6000803e3d6000fd5b505050508073ffffffffffffffffffffffffffffffffffffffff16635f74bbde33856040518363ffffffff167c0100000000000000000000000000000000000000000000000000000000028152600401808373ffffffffffffffffffffffffffffffffffffffff1673ffffffffffffffffffffffffffffffffffffffff16815260200182815260200192505050600060405180830381600087803b158015620008cb57600080fd5b505af1158015620008e0573d6000803e3d6000fd5b505050505050505050565b6000600a83815481101515620008fd57fe5b9060005260206000200160009054906101000a900473ffffffffffffffffffffffffffffffffffffffff169050600760009054906101000a900473ffffffffffffffffffffffffffffffffffffffff1673ffffffffffffffffffffffffffffffffffffffff1663595f4a2533846040518363ffffffff167c0100000000000000000000000000000000000000000000000000000000028152600401808373ffffffffffffffffffffffffffffffffffffffff1673ffffffffffffffffffffffffffffffffffffffff16815260200182815260200192505050600060405180830381600087803b158015620009f057600080fd5b505af115801562000a05573d6000803e3d6000fd5b505050508073ffffffffffffffffffffffffffffffffffffffff16635f74bbde33846040518363ffffffff167c0100000000000000000000000000000000000000000000000000000000028152600401808373ffffffffffffffffffffffffffffffffffffffff1673ffffffffffffffffffffffffffffffffffffffff16815260200182815260200192505050600060405180830381600087803b15801562000aad57600080fd5b505af115801562000ac2573d6000803e3d6000fd5b50505050505050565b6000600c60009054906101000a900473ffffffffffffffffffffffffffffffffffffffff1690508073ffffffffffffffffffffffffffffffffffffffff16630f15f4c06040518163ffffffff167c0100000000000000000000000000000000000000000000000000000000028152600401600060405180830381600087803b15801562000b5757600080fd5b505af115801562000b6c573d6000803e3d6000fd5b505050506000809054906101000a900473ffffffffffffffffffffffffffffffffffffffff1673ffffffffffffffffffffffffffffffffffffffff166375a9158762000d048373ffffffffffffffffffffffffffffffffffffffff1663d705f3876040518163ffffffff167c0100000000000000000000000000000000000000000000000000000000028152600401602060405180830381600087803b15801562000c1657600080fd5b505af115801562000c2b573d6000803e3d6000fd5b505050506040513d602081101562000c4257600080fd5b81019080805190602001909291905050508473ffffffffffffffffffffffffffffffffffffffff1663929aebdf6040518163ffffffff167c0100000000000000000000000000000000000000000000000000000000028152600401602060405180830381600087803b15801562000cb857600080fd5b505af115801562000ccd573d6000803e3d6000fd5b505050506040513d602081101562000ce457600080fd5b810190808051906020019092919050505062001d2b90919063ffffffff16565b6040518263ffffffff167c010000000000000000000000000000000000000000000000000000000002815260040180828152602001915050600060405180830381600087803b15801562000d5757600080fd5b505af115801562000d6c573d6000803e3d6000fd5b5050505050565b62000d8033838362001d48565b5050565b600a8181548110151562000d9457fe5b906000526020600020016000915054906101000a900473ffffffffffffffffffffffffffffffffffffffff1681565b6000806000809054906101000a900473ffffffffffffffffffffffffffffffffffffffff1673ffffffffffffffffffffffffffffffffffffffff16630d8654e8336040518263ffffffff167c0100000000000000000000000000000000000000000000000000000000028152600401808273ffffffffffffffffffffffffffffffffffffffff1673ffffffffffffffffffffffffffffffffffffffff168152602001915050602060405180830381600087803b15801562000e8357600080fd5b505af115801562000e98573d6000803e3d6000fd5b505050506040513d602081101562000eaf57600080fd5b8101908080519060200190929190505050151562000ecc57600080fd5b62000ed73362001986565b9150600760009054906101000a900473ffffffffffffffffffffffffffffffffffffffff1673ffffffffffffffffffffffffffffffffffffffff1663e641bde1336040518263ffffffff167c0100000000000000000000000000000000000000000000000000000000028152600401808273ffffffffffffffffffffffffffffffffffffffff1673ffffffffffffffffffffffffffffffffffffffff168152602001915050600060405180830381600087803b15801562000f9757600080fd5b505af115801562000fac573d6000803e3d6000fd5b50505050600a8381548110151562000fc057fe5b9060005260206000200160009054906101000a900473ffffffffffffffffffffffffffffffffffffffff1690508073ffffffffffffffffffffffffffffffffffffffff16635f74bbde33846040518363ffffffff167c0100000000000000000000000000000000000000000000000000000000028152600401808373ffffffffffffffffffffffffffffffffffffffff1673ffffffffffffffffffffffffffffffffffffffff16815260200182815260200192505050600060405180830381600087803b1580156200109157600080fd5b505af1158015620010a6573d6000803e3d6000fd5b50505050620010b58362001765565b620010bf62001cc4565b505050565b600080600080620010d6878962001f29565b935093506000809054906101000a900473ffffffffffffffffffffffffffffffffffffffff1673ffffffffffffffffffffffffffffffffffffffff166340c10f19600160009054906101000a900473ffffffffffffffffffffffffffffffffffffffff16866040518363ffffffff167c0100000000000000000000000000000000000000000000000000000000028152600401808373ffffffffffffffffffffffffffffffffffffffff1673ffffffffffffffffffffffffffffffffffffffff16815260200182815260200192505050602060405180830381600087803b158015620011c157600080fd5b505af1158015620011d6573d6000803e3d6000fd5b505050506040513d6020811015620011ed57600080fd5b8101908080519060200190929190505050506000809054906101000a900473ffffffffffffffffffffffffffffffffffffffff1673ffffffffffffffffffffffffffffffffffffffff166340c10f1930856040518363ffffffff167c0100000000000000000000000000000000000000000000000000000000028152600401808373ffffffffffffffffffffffffffffffffffffffff1673ffffffffffffffffffffffffffffffffffffffff16815260200182815260200192505050602060405180830381600087803b158015620012c457600080fd5b505af1158015620012d9573d6000803e3d6000fd5b505050506040513d6020811015620012f057600080fd5b810190808051906020019092919050505050620013198760065462001d2b90919063ffffffff16565b6006819055506200132b605a62001f7f565b600b5491508189600160009054906101000a900473ffffffffffffffffffffffffffffffffffffffff16600960009054906101000a900473ffffffffffffffffffffffffffffffffffffffff168a8c89898d8d62001388620024ff565b808b8152602001806020018a73ffffffffffffffffffffffffffffffffffffffff1673ffffffffffffffffffffffffffffffffffffffff1681526020018973ffffffffffffffffffffffffffffffffffffffff1673ffffffffffffffffffffffffffffffffffffffff168152602001888152602001878152602001868152602001858152602001806020018060200184810384528d818151815260200191508051906020019080838360005b838110156200145157808201518184015260208101905062001434565b50505050905090810190601f1680156200147f5780820380516001836020036101000a031916815260200191505b50848103835286818151815260200191508051906020019080838360005b83811015620014ba5780820151818401526020810190506200149d565b50505050905090810190601f168015620014e85780820380516001836020036101000a031916815260200191505b50848103825285818151815260200191508051906020019080838360005b838110156200152357808201518184015260208101905062001506565b50505050905090810190601f168015620015515780820380516001836020036101000a031916815260200191505b509d5050505050505050505050505050604051809103906000f0801580156200157e573d6000803e3d6000fd5b509050600a8190806001815401808255809150509060018203906000526020600020016000909192909190916101000a81548173ffffffffffffffffffffffffffffffffffffffff021916908373ffffffffffffffffffffffffffffffffffffffff16021790555050600860009054906101000a900473ffffffffffffffffffffffffffffffffffffffff1673ffffffffffffffffffffffffffffffffffffffff16638f807f6b826040518263ffffffff167c0100000000000000000000000000000000000000000000000000000000028152600401808273ffffffffffffffffffffffffffffffffffffffff1673ffffffffffffffffffffffffffffffffffffffff168152602001915050600060405180830381600087803b158015620016a557600080fd5b505af1158015620016ba573d6000803e3d6000fd5b50505050620016d66001600b5462001d2b90919063ffffffff16565b600b819055508073ffffffffffffffffffffffffffffffffffffffff166351973ec96040518163ffffffff167c0100000000000000000000000000000000000000000000000000000000028152600401600060405180830381600087803b1580156200174157600080fd5b505af115801562001756573d6000803e3d6000fd5b50505050505050505050505050565b6000600a828154811015156200177757fe5b9060005260206000200160009054906101000a900473ffffffffffffffffffffffffffffffffffffffff169050600073ffffffffffffffffffffffffffffffffffffffff16600c60009054906101000a900473ffffffffffffffffffffffffffffffffffffffff1673ffffffffffffffffffffffffffffffffffffffff161480620018a45750600d548173ffffffffffffffffffffffffffffffffffffffff1663c78243cf6040518163ffffffff167c0100000000000000000000000000000000000000000000000000000000028152600401602060405180830381600087803b1580156200186557600080fd5b505af11580156200187a573d6000803e3d6000fd5b505050506040513d60208110156200189157600080fd5b8101908080519060200190929190505050115b80620018b1575042600f54105b15620018c357620018c28162001fec565b5b620018ce816200206a565b600b546011600101541415620018fa576001601060006101000a81548160ff0219169083151502179055505b5050565b600760009054906101000a900473ffffffffffffffffffffffffffffffffffffffff1681565b600960009054906101000a900473ffffffffffffffffffffffffffffffffffffffff1681565b60045481565b60055481565b600860009054906101000a900473ffffffffffffffffffffffffffffffffffffffff1681565b6000600354905090565b60008060003491506200199a84836200214a565b620019a58262002190565b9050620019be8260035462001d2b90919063ffffffff16565b6003819055506000809054906101000a900473ffffffffffffffffffffffffffffffffffffffff1673ffffffffffffffffffffffffffffffffffffffff166309b38a5d85836040518363ffffffff167c0100000000000000000000000000000000000000000000000000000000028152600401808373ffffffffffffffffffffffffffffffffffffffff1673ffffffffffffffffffffffffffffffffffffffff16815260200182815260200192505050600060405180830381600087803b15801562001a8957600080fd5b505af115801562001a9e573d6000803e3d6000fd5b505050508373ffffffffffffffffffffffffffffffffffffffff163373ffffffffffffffffffffffffffffffffffffffff167f623b3804fa71d67900d064613da8f94b9617215ee90799290593e1745087ad188484604051808381526020018281526020019250505060405180910390a38092505050919050565b6000600a8381548110151562001b2b57fe5b9060005260206000200160009054906101000a900473ffffffffffffffffffffffffffffffffffffffff1690508073ffffffffffffffffffffffffffffffffffffffff1663fcfff16f6040518163ffffffff167c0100000000000000000000000000000000000000000000000000000000028152600401602060405180830381600087803b15801562001bbd57600080fd5b505af115801562001bd2573d6000803e3d6000fd5b505050506040513d602081101562001be957600080fd5b8101908080519060200190929190505050158062001ca557508073ffffffffffffffffffffffffffffffffffffffff16634d7c09dd6040518163ffffffff167c0100000000000000000000000000000000000000000000000000000000028152600401602060405180830381600087803b15801562001c6757600080fd5b505af115801562001c7c573d6000803e3d6000fd5b505050506040513d602081101562001c9357600080fd5b81019080805190602001909291905050505b151562001cb157600080fd5b62001cbe84848462001d48565b50505050565b600354600e541015801562001ce55750601060009054906101000a900460ff165b801562001cf3575042600f54115b1562001d045762001d0362000acb565b5b565b6000809054906101000a900473ffffffffffffffffffffffffffffffffffffffff1681565b6000818301905082811015151562001d3f57fe5b80905092915050565b6000600a8381548110151562001d5a57fe5b9060005260206000200160009054906101000a900473ffffffffffffffffffffffffffffffffffffffff1690508073ffffffffffffffffffffffffffffffffffffffff1663ce6a088085846040518363ffffffff167c0100000000000000000000000000000000000000000000000000000000028152600401808373ffffffffffffffffffffffffffffffffffffffff1673ffffffffffffffffffffffffffffffffffffffff16815260200182815260200192505050600060405180830381600087803b15801562001e2b57600080fd5b505af115801562001e40573d6000803e3d6000fd5b50505050600760009054906101000a900473ffffffffffffffffffffffffffffffffffffffff1673ffffffffffffffffffffffffffffffffffffffff1663ad8f256f85846040518363ffffffff167c0100000000000000000000000000000000000000000000000000000000028152600401808373ffffffffffffffffffffffffffffffffffffffff1673ffffffffffffffffffffffffffffffffffffffff16815260200182815260200192505050600060405180830381600087803b15801562001f0a57600080fd5b505af115801562001f1f573d6000803e3d6000fd5b5050505050505050565b600080600062001f438486620021b090919063ffffffff16565b905062001f5c60025482620021ca90919063ffffffff16565b62001f7360025486620021ca90919063ffffffff16565b92509250509250929050565b600080600042925060045491506005549050600454421015801562001fa657506005544211155b151562001fb257600080fd5b62001fe062001fce621a5e0086620021ca90919063ffffffff16565b60055462001d2b90919063ffffffff16565b60058190555050505050565b42600f5410806200204b5750600073ffffffffffffffffffffffffffffffffffffffff16600c60009054906101000a900473ffffffffffffffffffffffffffffffffffffffff1673ffffffffffffffffffffffffffffffffffffffff16145b156200205c576200205b62002206565b5b620020678162002250565b50565b6000601160000160008373ffffffffffffffffffffffffffffffffffffffff1673ffffffffffffffffffffffffffffffffffffffff16815260200190815260200160002060009054906101000a900460ff1690508015156200214657620020e1600160116001015462001d2b90919063ffffffff16565b6011600101819055506001601160000160008473ffffffffffffffffffffffffffffffffffffffff1673ffffffffffffffffffffffffffffffffffffffff16815260200190815260200160002060006101000a81548160ff0219169083151502179055505b5050565b60008060004292506004549150600554905060045442101580156200217157506005544211155b15156200217d57600080fd5b620021898585620024ad565b5050505050565b6000620021a960025483620021ca90919063ffffffff16565b9050919050565b6000828211151515620021bf57fe5b818303905092915050565b600080831415620021df576000905062002200565b8183029050818382811515620021f157fe5b04141515620021fc57fe5b8090505b92915050565b6200221062002510565b806011600082015181600101559050506200224d600c60009054906101000a900473ffffffffffffffffffffffffffffffffffffffff166200206a565b50565b600081905081600c60006101000a81548173ffffffffffffffffffffffffffffffffffffffff021916908373ffffffffffffffffffffffffffffffffffffffff1602179055508073ffffffffffffffffffffffffffffffffffffffff1663c78243cf6040518163ffffffff167c0100000000000000000000000000000000000000000000000000000000028152600401602060405180830381600087803b158015620022fb57600080fd5b505af115801562002310573d6000803e3d6000fd5b505050506040513d60208110156200232757600080fd5b8101908080519060200190929190505050600d819055508073ffffffffffffffffffffffffffffffffffffffff1663272666e36040518163ffffffff167c0100000000000000000000000000000000000000000000000000000000028152600401602060405180830381600087803b158015620023a357600080fd5b505af1158015620023b8573d6000803e3d6000fd5b505050506040513d6020811015620023cf57600080fd5b8101908080519060200190929190505050600f819055508073ffffffffffffffffffffffffffffffffffffffff1663d4cf7db66040518163ffffffff167c0100000000000000000000000000000000000000000000000000000000028152600401602060405180830381600087803b1580156200244b57600080fd5b505af115801562002460573d6000803e3d6000fd5b505050506040513d60208110156200247757600080fd5b8101908080519060200190929190505050600e819055506000601060006101000a81548160ff0219169083151502179055505050565b600073ffffffffffffffffffffffffffffffffffffffff168273ffffffffffffffffffffffffffffffffffffffff1614151515620024ea57600080fd5b60008114151515620024fb57600080fd5b5050565b60405161113e806200252583390190565b602060405190810160405280600081525090560060806040523480156200001157600080fd5b506040516200113e3803806200113e83398101806040528101908080519060200190929190805182019291906020018051906020019092919080519060200190929190805190602001909291908051906020019092919080519060200190929190805190602001909291908051820192919060200180518201929190505050896000819055508860019080519060200190620000af929190620001c0565b5087600260006101000a81548173ffffffffffffffffffffffffffffffffffffffff021916908373ffffffffffffffffffffffffffffffffffffffff16021790555086600360006101000a81548173ffffffffffffffffffffffffffffffffffffffff021916908373ffffffffffffffffffffffffffffffffffffffff16021790555085600581905550846006819055508360078190555082600881905550816009908051906020019062000166929190620001c0565b5080600a90805190602001906200017f929190620001c0565b506000600b819055506000600c60006101000a81548160ff02191690831515021790555063013d23804201600481905550505050505050505050506200026f565b828054600181600116156101000203166002900490600052602060002090601f016020900481019282601f106200020357805160ff191683800117855562000234565b8280016001018555821562000234579182015b828111156200023357825182559160200191906001019062000216565b5b50905062000243919062000247565b5090565b6200026c91905b80821115620002685760008160009055506001016200024e565b5090565b90565b610ebf806200027f6000396000f300608060405260043610610107576000357c0100000000000000000000000000000000000000000000000000000000900463ffffffff1680630f15f4c01461010c578063272666e3146101235780632d06177a1461014e5780634d7c09dd1461019157806351973ec9146101c057806355d576cc146101d75780635b184f88146102675780635f74bbde146102aa5780636f219831146102f7578063705c5be51461032257806379ec5d3a1461037d578063929aebdf146103d4578063b0e01164146103ff578063c78243cf14610456578063ce6a088014610481578063d0e30db0146104ce578063d4cf7db6146104d8578063d705f38714610503578063fcfff16f1461052e575b600080fd5b34801561011857600080fd5b5061012161055d565b005b34801561012f57600080fd5b50610138610582565b6040518082815260200191505060405180910390f35b34801561015a57600080fd5b5061018f600480360381019080803573ffffffffffffffffffffffffffffffffffffffff16906020019092919050505061058c565b005b34801561019d57600080fd5b506101a661069e565b604051808215151515815260200191505060405180910390f35b3480156101cc57600080fd5b506101d56106b5565b005b3480156101e357600080fd5b506101ec6108de565b6040518080602001828103825283818151815260200191508051906020019080838360005b8381101561022c578082015181840152602081019050610211565b50505050905090810190601f1680156102595780820380516001836020036101000a031916815260200191505b509250505060405180910390f35b34801561027357600080fd5b506102a8600480360381019080803573ffffffffffffffffffffffffffffffffffffffff16906020019092919050505061097c565b005b3480156102b657600080fd5b506102f5600480360381019080803573ffffffffffffffffffffffffffffffffffffffff16906020019092919080359060200190929190505050610a77565b005b34801561030357600080fd5b5061030c610b48565b6040518082815260200191505060405180910390f35b34801561032e57600080fd5b50610363600480360381019080803573ffffffffffffffffffffffffffffffffffffffff169060200190929190505050610b51565b604051808215151515815260200191505060405180910390f35b34801561038957600080fd5b506103be600480360381019080803573ffffffffffffffffffffffffffffffffffffffff169060200190929190505050610c0b565b6040518082815260200191505060405180910390f35b3480156103e057600080fd5b506103e9610c54565b6040518082815260200191505060405180910390f35b34801561040b57600080fd5b50610414610c5e565b604051808273ffffffffffffffffffffffffffffffffffffffff1673ffffffffffffffffffffffffffffffffffffffff16815260200191505060405180910390f35b34801561046257600080fd5b5061046b610c84565b6040518082815260200191505060405180910390f35b34801561048d57600080fd5b506104cc600480360381019080803573ffffffffffffffffffffffffffffffffffffffff16906020019092919080359060200190929190505050610c8e565b005b6104d6610dbe565b005b3480156104e457600080fd5b506104ed610e3e565b6040518082815260200191505060405180910390f35b34801561050f57600080fd5b50610518610e48565b6040518082815260200191505060405180910390f35b34801561053a57600080fd5b50610543610e52565b604051808215151515815260200191505060405180910390f35b6001600c60006101000a81548160ff0219169083151502179055506105806106b5565b565b6000600454905090565b60011515600e60003373ffffffffffffffffffffffffffffffffffffffff1673ffffffffffffffffffffffffffffffffffffffff16815260200190815260200160002060009054906101000a900460ff16151514806106385750600260009054906101000a900473ffffffffffffffffffffffffffffffffffffffff1673ffffffffffffffffffffffffffffffffffffffff163373ffffffffffffffffffffffffffffffffffffffff16145b151561064357600080fd5b6001600e60008373ffffffffffffffffffffffffffffffffffffffff1673ffffffffffffffffffffffffffffffffffffffff16815260200190815260200160002060006101000a81548160ff02191690831515021790555050565b6000600c60009054906101000a900460ff16905090565b7f2870b0d0558b1786ef247a7bb0787eaae7392b072f7ca327b464981f23fb0e9260005460016005546006546007546008546009600a600b54600c60009054906101000a900460ff16604051808b8152602001806020018a815260200189815260200188815260200187815260200180602001806020018681526020018515151515815260200184810384528d8181546001816001161561010002031660029004815260200191508054600181600116156101000203166002900480156107bd5780601f10610792576101008083540402835291602001916107bd565b820191906000526020600020905b8154815290600101906020018083116107a057829003601f168201915b50508481038352888181546001816001161561010002031660029004815260200191508054600181600116156101000203166002900480156108405780601f1061081557610100808354040283529160200191610840565b820191906000526020600020905b81548152906001019060200180831161082357829003601f168201915b50508481038252878181546001816001161561010002031660029004815260200191508054600181600116156101000203166002900480156108c35780601f10610898576101008083540402835291602001916108c3565b820191906000526020600020905b8154815290600101906020018083116108a657829003601f168201915b50509d505050505050505050505050505060405180910390a1565b60098054600181600116156101000203166002900480601f0160208091040260200160405190810160405280929190818152602001828054600181600116156101000203166002900480156109745780601f1061094957610100808354040283529160200191610974565b820191906000526020600020905b81548152906001019060200180831161095757829003601f168201915b505050505081565b60011515600e60003373ffffffffffffffffffffffffffffffffffffffff1673ffffffffffffffffffffffffffffffffffffffff16815260200190815260200160002060009054906101000a900460ff1615151480610a285750600260009054906101000a900473ffffffffffffffffffffffffffffffffffffffff1673ffffffffffffffffffffffffffffffffffffffff163373ffffffffffffffffffffffffffffffffffffffff16145b1515610a3357600080fd5b80600360006101000a81548173ffffffffffffffffffffffffffffffffffffffff021916908373ffffffffffffffffffffffffffffffffffffffff16021790555050565b610ac981600d60008573ffffffffffffffffffffffffffffffffffffffff1673ffffffffffffffffffffffffffffffffffffffff16815260200190815260200160002054610e5e90919063ffffffff16565b600d60008473ffffffffffffffffffffffffffffffffffffffff1673ffffffffffffffffffffffffffffffffffffffff16815260200190815260200160002081905550610b2181600b54610e5e90919063ffffffff16565b600b81905550610b3e61a8c0600454610e5e90919063ffffffff16565b6004819055505050565b60008054905090565b600080600b54118015610c0457508173ffffffffffffffffffffffffffffffffffffffff1663c78243cf6040518163ffffffff167c0100000000000000000000000000000000000000000000000000000000028152600401602060405180830381600087803b158015610bc357600080fd5b505af1158015610bd7573d6000803e3d6000fd5b505050506040513d6020811015610bed57600080fd5b8101908080519060200190929190505050600b5410155b9050919050565b6000600d60008373ffffffffffffffffffffffffffffffffffffffff1673ffffffffffffffffffffffffffffffffffffffff168152602001908152602001600020549050919050565b6000600754905090565b600360009054906101000a900473ffffffffffffffffffffffffffffffffffffffff1681565b6000600b54905090565b600b548111151515610c9f57600080fd5b600d60008373ffffffffffffffffffffffffffffffffffffffff1673ffffffffffffffffffffffffffffffffffffffff168152602001908152602001600020548111151515610ced57600080fd5b610d3f81600d60008573ffffffffffffffffffffffffffffffffffffffff1673ffffffffffffffffffffffffffffffffffffffff16815260200190815260200160002054610e7a90919063ffffffff16565b600d60008473ffffffffffffffffffffffffffffffffffffffff1673ffffffffffffffffffffffffffffffffffffffff16815260200190815260200160002081905550610d9781600b54610e7a90919063ffffffff16565b600b81905550610db461a8c0600454610e7a90919063ffffffff16565b6004819055505050565b6000803414151515610dcf57600080fd5b349050600360009054906101000a900473ffffffffffffffffffffffffffffffffffffffff1673ffffffffffffffffffffffffffffffffffffffff166108fc829081150290604051600060405180830381858888f19350505050158015610e3a573d6000803e3d6000fd5b5050565b6000600654905090565b6000600854905090565b60004260045411905090565b60008183019050828110151515610e7157fe5b80905092915050565b6000828211151515610e8857fe5b8183039050929150505600a165627a7a72305820c34a0825dbe8bce7cf5226df79c18f37991f9724efaa28ce1fd516614d4120e90029a165627a7a723058204c28654caaaff81d378b5298e2a4c97b76852205fef90e9281eaa0f71602f2990029",
  "source": "pragma solidity 0.4.24;\nimport './TimedCrowdsale.sol';\nimport '../utility/SafeMath.sol';\nimport '../ProjectQueue.sol';\nimport '../Project.sol';\nimport '../ProjectStub.sol';\nimport '../token/ERC20/Token.sol';\nimport '../InvestorList.sol';\n\ncontract GNITokenCrowdsale is TimedCrowdsale {\n  using SafeMath for uint256;\n  uint256 public totalValuation;\n  InvestorList public investorList;\n  ProjectQueue public projectQueue;\n  address public dividendWallet;\n\n  constructor\n      (\n        uint256 _openingTime,\n        uint256 _doomsDay,\n        uint256 _rate,\n        address _developer,\n        address _dividendWallet,\n        Token _token,\n        InvestorList _investorList,\n        ProjectQueue _projectQueue\n      )\n      public\n      Crowdsale(_rate, _developer, _token)\n      TimedCrowdsale(_openingTime, _doomsDay) {\n        investorList = InvestorList(_investorList);\n        projectQueue = ProjectQueue(_projectQueue);\n        totalValuation = 0;\n        dividendWallet = _dividendWallet;\n  }\n\n  address[] public projectAddrs;\n  uint256 projectCount;\n\n//after this, the developer has to approve this contract to spend the amount of inactive tokens associated with developers on its behalf\n function pitchProject(string _name, uint256 capitalRequired, uint256 _valuation, string _lat, string _lng) public {\n   (uint256 developerTokens, uint256 investorTokens) = tokensToMint(_valuation, capitalRequired);\n\n   Token(token).mint(developer, developerTokens);//test if this is called\n   Token(token).mint(this, investorTokens);//test if this is called\n\n   totalValuation = totalValuation.add(_valuation);\n\n   _extendDoomsDay(90);\n\n    uint256 _id = projectCount;\n    address projectAddr = new Project(_id, _name, developer, dividendWallet, _valuation, capitalRequired, developerTokens, investorTokens, _lat, _lng);\n    projectAddrs.push(projectAddr);\n    projectQueue.enqueue(projectAddr);//we want to test if this is called\n    projectCount = projectCount.add(1);\n    Project(projectAddr).log();\n }\n\n function tokensToMint (uint256 valuation, uint256 investorValue) private view returns (uint256, uint256) {\n   uint256 developerValue = valuation.sub(investorValue);\n   return (developerValue.mul(rate), investorValue.mul(rate));\n }\n\n modifier activatePendingTokens_() {\n   require(Token(token).activatePending(msg.sender));\n   _;\n }\n\n //before this, we need to execute any pending token activations for the sender account. We need to do this so that the correct number of tokens are activated\n function buyTokensAndVote (uint256 _projectVotedForId) public payable activatePendingTokens_ {\n   uint256 tokens = buyTokens(msg.sender);\n   investorList.addInvestor(msg.sender);//test that this is called\n\n   address projAddr = projectAddrs[_projectVotedForId];\n   Project(projAddr).vote(msg.sender, tokens);//test that this is called\n   considerTentativeLeaderShip(_projectVotedForId);\n   attemptProjectActivation();\n }\n\n address tentativeLeaderAddr;\n uint256 tentativeLeaderVotes;\n uint256 tentativeLeaderCapRequired;\n uint256 tentativeLeaderClosingTime;\n bool tentativeLeaderConfirmed;\n\n\n struct ProjectsChecked {\n   mapping(address => bool) isChecked;\n   uint256 totalChecked;\n }\n\n ProjectsChecked projectsChecked;\n\n function considerTentativeLeaderShip (uint256 _projectId) public {\n   address projectAddr = projectAddrs[_projectId];\n\n   if (\n     tentativeLeaderAddr == address(0) ||\n     Project(projectAddr).totalVotes_() > tentativeLeaderVotes ||\n     tentativeLeaderClosingTime < now\n     )\n   {\n     updateTentativeLeader(projectAddr);\n   }\n\n   recordCheck(projectAddr);\n\n   if (projectsChecked.totalChecked == projectCount){\n     tentativeLeaderConfirmed = true;\n   }\n }\n\n function recordCheck (address projectAddr) internal {\n   bool hasBeenChecked = projectsChecked.isChecked[projectAddr];\n\n   if (!hasBeenChecked){\n    projectsChecked.totalChecked = projectsChecked.totalChecked.add(1);\n    projectsChecked.isChecked[projectAddr] = true;\n   }\n }\n\n function updateTentativeLeader (address newLeaderAddr) internal {\n   if (tentativeLeaderClosingTime < now || tentativeLeaderAddr == address(0)) {\n     resetProjectsChecked();\n   }\n   setTentativeLeader(newLeaderAddr);\n }\n\n function resetProjectsChecked() internal {\n   ProjectsChecked memory newProjectsChecked;\n   projectsChecked = newProjectsChecked;\n   recordCheck(tentativeLeaderAddr);\n }\n\n function setTentativeLeader(address newLeaderAddr) internal {\n   Project newLeader = Project(newLeaderAddr);\n\n   tentativeLeaderAddr = newLeaderAddr;\n   tentativeLeaderVotes = newLeader.totalVotes_();\n   tentativeLeaderClosingTime = newLeader.closingTime_();\n   tentativeLeaderCapRequired = newLeader.capitalRequired_();\n   tentativeLeaderConfirmed = false;\n }\n\n function attemptProjectActivation () public {\n   if (\n     tentativeLeaderCapRequired >= weiRaised &&\n     tentativeLeaderConfirmed &&\n     tentativeLeaderClosingTime > now\n     ) {\n     activateProject();\n   }\n }\n\n function activateProject () public {\n   Project project = Project(tentativeLeaderAddr);\n   project.activate();\n   Token(token).increasePendingActivations(project.developerTokens_().add(project.investorTokens_()));\n }\n\n function transferVotes (uint256 fromProjectId, uint256 toProjectId, uint256 votes) external {\n   address fromAddr = projectAddrs[fromProjectId];\n   address toAddr = projectAddrs[toProjectId];\n   Project(fromAddr).removeVotes(msg.sender, votes);//test that this is called\n   Project(toAddr).vote(msg.sender, votes);//test that this is called\n }\n\n function addVoteCredit (uint256 fromProjectId, uint256 votes) external {\n   addVoteCredit_(msg.sender, fromProjectId, votes);\n }\n\n function addVoteCreditTo (address to, uint256 fromProjectId, uint256 votes) external {\n   Project project = Project(projectAddrs[fromProjectId]);\n   require(!project.open() || project.active_());\n   addVoteCredit_(to, fromProjectId, votes);\n }\n\n function addVoteCredit_ (address account, uint256 fromProjectId, uint256 votes) internal {\n   address projAddr = projectAddrs[fromProjectId];\n   Project(projAddr).removeVotes(account, votes);//test that this is called\n   investorList.addVoteCredit(account, votes);\n }\n\n function voteWithCredit (uint256 toProjectId, uint256 votes) external {\n   address projAddr = projectAddrs[toProjectId];\n   investorList.removeVoteCredit(msg.sender, votes);//test that this is called\n   Project(projAddr).vote(msg.sender, votes);//test that this is called\n }\n\n function _extendDoomsDay(uint256 _days) internal onlyWhileOpen {\n    doomsDay = doomsDay.add(_days.mul(1728000));\n }\n\n  function forwardFunds (address _to, uint256 amount) internal {\n    _to.transfer(amount);\n  }\n}\n\n/* function getInfo(uint256 id) public view returns(address) {\n    /* string, uint256, uint256, uint256, uint256, bool, uint256, uint256, address */\n    /* address projectAddr = projectAddrs[id]; */\n    /* return ( */\n      /* return Project(projectAddr).dividendWallet(); */\n      /* Project(projectAddr).name(),\n      Project(projectAddr).valuation(),\n      Project(projectAddr).capitalRequired(),\n      Project(projectAddr).developerTokens(),\n      Project(projectAddr).investorTokens(),\n      Project(projectAddr).active(),\n      Project(projectAddr).totalVotes(),\n      /* Project(projectAddr).closingTime(), */\n      /* projectAddr */\n      /* ); */\n    /* }  */\n",
  "sourcePath": "/Users/steven/genie-portal/truffle/contracts/crowdsale/GNITokenCrowdsale.sol",
  "compiler": {
    "name": "solc",
    "version": "0.4.24+commit.e67f0147.Emscripten.clang"
  },
  "schemaVersion": "2.0.1",
  "updatedAt": "2018-11-29T23:53:24.959Z"
}