{
  "contractName": "GNITokenCrowdsale",
  "abi": [
    {
      "constant": true,
      "inputs": [],
      "name": "tentativeLeaderAddr",
      "outputs": [
        {
          "name": "",
          "type": "address"
        }
      ],
      "payable": false,
      "stateMutability": "view",
      "type": "function"
    },
    {
      "constant": true,
      "inputs": [],
      "name": "hasClosed",
      "outputs": [
        {
          "name": "",
          "type": "bool"
        }
      ],
      "payable": false,
      "stateMutability": "view",
      "type": "function"
    },
    {
      "constant": true,
      "inputs": [],
      "name": "weiToReimburse",
      "outputs": [
        {
          "name": "",
          "type": "uint256"
        }
      ],
      "payable": false,
      "stateMutability": "view",
      "type": "function"
    },
    {
      "constant": true,
      "inputs": [],
      "name": "totalValuation",
      "outputs": [
        {
          "name": "",
          "type": "uint256"
        }
      ],
      "payable": false,
      "stateMutability": "view",
      "type": "function"
    },
    {
      "constant": true,
      "inputs": [
        {
          "name": "",
          "type": "uint256"
        }
      ],
      "name": "projectAddrs",
      "outputs": [
        {
          "name": "",
          "type": "address"
        }
      ],
      "payable": false,
      "stateMutability": "view",
      "type": "function"
    },
    {
      "constant": true,
      "inputs": [],
      "name": "tentativeLeaderConfirmed",
      "outputs": [
        {
          "name": "",
          "type": "bool"
        }
      ],
      "payable": false,
      "stateMutability": "view",
      "type": "function"
    },
    {
      "constant": true,
      "inputs": [],
      "name": "inactiveProjectCount",
      "outputs": [
        {
          "name": "",
          "type": "uint256"
        }
      ],
      "payable": false,
      "stateMutability": "view",
      "type": "function"
    },
    {
      "constant": true,
      "inputs": [],
      "name": "inactiveTokensAtClosing",
      "outputs": [
        {
          "name": "",
          "type": "uint256"
        }
      ],
      "payable": false,
      "stateMutability": "view",
      "type": "function"
    },
    {
      "constant": true,
      "inputs": [],
      "name": "investorList",
      "outputs": [
        {
          "name": "",
          "type": "address"
        }
      ],
      "payable": false,
      "stateMutability": "view",
      "type": "function"
    },
    {
      "constant": true,
      "inputs": [],
      "name": "tentativeLeaderCapRequired",
      "outputs": [
        {
          "name": "",
          "type": "uint256"
        }
      ],
      "payable": false,
      "stateMutability": "view",
      "type": "function"
    },
    {
      "constant": true,
      "inputs": [],
      "name": "dividendWallet",
      "outputs": [
        {
          "name": "",
          "type": "address"
        }
      ],
      "payable": false,
      "stateMutability": "view",
      "type": "function"
    },
    {
      "constant": true,
      "inputs": [],
      "name": "openingTime",
      "outputs": [
        {
          "name": "",
          "type": "uint256"
        }
      ],
      "payable": false,
      "stateMutability": "view",
      "type": "function"
    },
    {
      "constant": true,
      "inputs": [],
      "name": "doomsDay",
      "outputs": [
        {
          "name": "",
          "type": "uint256"
        }
      ],
      "payable": false,
      "stateMutability": "view",
      "type": "function"
    },
    {
      "constant": false,
      "inputs": [],
      "name": "weiRaised_",
      "outputs": [
        {
          "name": "",
          "type": "uint256"
        }
      ],
      "payable": false,
      "stateMutability": "nonpayable",
      "type": "function"
    },
    {
      "constant": false,
      "inputs": [
        {
          "name": "_beneficiary",
          "type": "address"
        }
      ],
      "name": "buyTokens",
      "outputs": [
        {
          "name": "",
          "type": "uint256"
        }
      ],
      "payable": true,
      "stateMutability": "payable",
      "type": "function"
    },
    {
      "constant": true,
      "inputs": [],
      "name": "token",
      "outputs": [
        {
          "name": "",
          "type": "address"
        }
      ],
      "payable": false,
      "stateMutability": "view",
      "type": "function"
    },
    {
      "inputs": [
        {
          "name": "_openingTime",
          "type": "uint256"
        },
        {
          "name": "_doomsDay",
          "type": "uint256"
        },
        {
          "name": "_rate",
          "type": "uint256"
        },
        {
          "name": "_developer",
          "type": "address"
        },
        {
          "name": "_dividendWallet",
          "type": "address"
        },
        {
          "name": "_token",
          "type": "address"
        },
        {
          "name": "_investorList",
          "type": "address"
        }
      ],
      "payable": false,
      "stateMutability": "nonpayable",
      "type": "constructor"
    },
    {
      "payable": true,
      "stateMutability": "payable",
      "type": "fallback"
    },
    {
      "anonymous": false,
      "inputs": [
        {
          "indexed": true,
          "name": "purchaser",
          "type": "address"
        },
        {
          "indexed": true,
          "name": "beneficiary",
          "type": "address"
        },
        {
          "indexed": false,
          "name": "value",
          "type": "uint256"
        },
        {
          "indexed": false,
          "name": "amount",
          "type": "uint256"
        }
      ],
      "name": "TokenPurchase",
      "type": "event"
    },
    {
      "constant": false,
      "inputs": [
        {
          "name": "_name",
          "type": "string"
        },
        {
          "name": "capitalRequired",
          "type": "uint256"
        },
        {
          "name": "_valuation",
          "type": "uint256"
        },
        {
          "name": "_lat",
          "type": "string"
        },
        {
          "name": "_lng",
          "type": "string"
        }
      ],
      "name": "pitchProject",
      "outputs": [],
      "payable": false,
      "stateMutability": "nonpayable",
      "type": "function"
    },
    {
      "constant": false,
      "inputs": [
        {
          "name": "_projectVotedForId",
          "type": "uint256"
        }
      ],
      "name": "buyTokensAndVote",
      "outputs": [],
      "payable": true,
      "stateMutability": "payable",
      "type": "function"
    },
    {
      "constant": false,
      "inputs": [
        {
          "name": "_projectId",
          "type": "uint256"
        }
      ],
      "name": "considerTentativeLeaderShip",
      "outputs": [],
      "payable": false,
      "stateMutability": "nonpayable",
      "type": "function"
    },
    {
      "constant": false,
      "inputs": [],
      "name": "attemptProjectActivation",
      "outputs": [],
      "payable": false,
      "stateMutability": "nonpayable",
      "type": "function"
    },
    {
      "constant": false,
      "inputs": [],
      "name": "reimburseFunds",
      "outputs": [],
      "payable": false,
      "stateMutability": "nonpayable",
      "type": "function"
    },
    {
      "constant": false,
      "inputs": [
        {
          "name": "account",
          "type": "address"
        }
      ],
      "name": "claimReimbursement",
      "outputs": [],
      "payable": false,
      "stateMutability": "nonpayable",
      "type": "function"
    },
    {
      "constant": false,
      "inputs": [
        {
          "name": "fromProjectId",
          "type": "uint256"
        },
        {
          "name": "toProjectId",
          "type": "uint256"
        },
        {
          "name": "votes",
          "type": "uint256"
        }
      ],
      "name": "transferVotes",
      "outputs": [],
      "payable": false,
      "stateMutability": "nonpayable",
      "type": "function"
    },
    {
      "constant": false,
      "inputs": [
        {
          "name": "fromProjectId",
          "type": "uint256"
        },
        {
          "name": "votes",
          "type": "uint256"
        }
      ],
      "name": "addVoteCredit",
      "outputs": [],
      "payable": false,
      "stateMutability": "nonpayable",
      "type": "function"
    },
    {
      "constant": false,
      "inputs": [
        {
          "name": "account",
          "type": "address"
        },
        {
          "name": "fromProjectId",
          "type": "uint256"
        }
      ],
      "name": "addVoteCreditTo",
      "outputs": [],
      "payable": false,
      "stateMutability": "nonpayable",
      "type": "function"
    },
    {
      "constant": false,
      "inputs": [
        {
          "name": "toProjectId",
          "type": "uint256"
        },
        {
          "name": "votes",
          "type": "uint256"
        }
      ],
      "name": "voteWithCredit",
      "outputs": [],
      "payable": false,
      "stateMutability": "nonpayable",
      "type": "function"
    }
  ],
  "bytecode": "0x60806040523480156200001157600080fd5b5060405160e080620041fd8339810180604052810190808051906020019092919080519060200190929190805190602001909291908051906020019092919080519060200190929190805190602001909291908051906020019092919050505086868686856000831115156200008657600080fd5b600073ffffffffffffffffffffffffffffffffffffffff168273ffffffffffffffffffffffffffffffffffffffff1614151515620000c357600080fd5b8260028190555081600160006101000a81548173ffffffffffffffffffffffffffffffffffffffff021916908373ffffffffffffffffffffffffffffffffffffffff160217905550806000806101000a81548173ffffffffffffffffffffffffffffffffffffffff021916908373ffffffffffffffffffffffffffffffffffffffff1602179055505050504282101515156200015e57600080fd5b8181101515156200016e57600080fd5b8160048190555080600581905550505080600760006101000a81548173ffffffffffffffffffffffffffffffffffffffff021916908373ffffffffffffffffffffffffffffffffffffffff160217905550600060068190555082600860006101000a81548173ffffffffffffffffffffffffffffffffffffffff021916908373ffffffffffffffffffffffffffffffffffffffff16021790555050505050505050613fde806200021f6000396000f3006080604052600436106200016f576000357c0100000000000000000000000000000000000000000000000000000000900463ffffffff16806303a46aa914620001715780631515bc2b14620001cb578063169961a514620001fd578063295b9300146200022b5780632c77b93d1462000259578063340945cf146200029d578063346f5e6114620002d75780633db9a548146200031d5780633fff9064146200036d5780634e4c08ca14620003a757806350b7342f146200041757806356bf9efb1462000431578063589679c7146200046357806365af167214620004855780636bd42fb11462000591578063708a514c14620005c15780637f8c5e9814620005ef578063a1f8adac146200061d578063a27b59e71462000677578063b0e0116414620006a5578063b7a8807c14620006ff578063c19b7bc0146200072d578063e31bc614146200075b578063ec8ac4d81462000789578063f89b4b1f14620007d5578063fc0c546a14620007ef575b005b3480156200017e57600080fd5b506200018962000849565b604051808273ffffffffffffffffffffffffffffffffffffffff1673ffffffffffffffffffffffffffffffffffffffff16815260200191505060405180910390f35b348015620001d857600080fd5b50620001e36200086f565b604051808215151515815260200191505060405180910390f35b3480156200020a57600080fd5b50620002156200087b565b6040518082815260200191505060405180910390f35b3480156200023857600080fd5b506200024362000881565b6040518082815260200191505060405180910390f35b3480156200026657600080fd5b506200029b60048036038101908080359060200190929190803590602001909291908035906020019092919050505062000887565b005b348015620002aa57600080fd5b50620002d5600480360381019080803590602001909291908035906020019092919050505062000a85565b005b348015620002e457600080fd5b506200031b600480360381019080803573ffffffffffffffffffffffffffffffffffffffff16906020019092919050505062000c65565b005b3480156200032a57600080fd5b506200036b600480360381019080803573ffffffffffffffffffffffffffffffffffffffff1690602001909291908035906020019092919050505062000ef8565b005b3480156200037a57600080fd5b50620003a560048036038101908080359060200190929190803590602001909291905050506200117f565b005b348015620003b457600080fd5b50620003d56004803603810190808035906020019092919050505062001190565b604051808273ffffffffffffffffffffffffffffffffffffffff1673ffffffffffffffffffffffffffffffffffffffff16815260200191505060405180910390f35b3480156200042457600080fd5b506200042f620011cf565b005b3480156200043e57600080fd5b50620004496200138f565b604051808215151515815260200191505060405180910390f35b6200048360048036038101908080359060200190929190505050620013a2565b005b3480156200049257600080fd5b506200058f600480360381019080803590602001908201803590602001908080601f01602080910402602001604051908101604052809392919081815260200183838082843782019150505050505091929192908035906020019092919080359060200190929190803590602001908201803590602001908080601f0160208091040260200160405190810160405280939291908181526020018383808284378201915050505050509192919290803590602001908201803590602001908080601f01602080910402602001604051908101604052809392919081815260200183838082843782019150505050505091929192905050506200169a565b005b3480156200059e57600080fd5b50620005bf6004803603810190808035906020019092919050505062001c64565b005b348015620005ce57600080fd5b50620005d962001f91565b6040518082815260200191505060405180910390f35b348015620005fc57600080fd5b506200060762001f97565b6040518082815260200191505060405180910390f35b3480156200062a57600080fd5b506200063562001f9d565b604051808273ffffffffffffffffffffffffffffffffffffffff1673ffffffffffffffffffffffffffffffffffffffff16815260200191505060405180910390f35b3480156200068457600080fd5b506200068f62001fc3565b6040518082815260200191505060405180910390f35b348015620006b257600080fd5b50620006bd62001fc9565b604051808273ffffffffffffffffffffffffffffffffffffffff1673ffffffffffffffffffffffffffffffffffffffff16815260200191505060405180910390f35b3480156200070c57600080fd5b506200071762001fef565b6040518082815260200191505060405180910390f35b3480156200073a57600080fd5b506200074562001ff5565b6040518082815260200191505060405180910390f35b3480156200076857600080fd5b506200077362001ffb565b6040518082815260200191505060405180910390f35b620007bf600480360381019080803573ffffffffffffffffffffffffffffffffffffffff16906020019092919050505062002005565b6040518082815260200191505060405180910390f35b348015620007e257600080fd5b50620007ed62002198565b005b348015620007fc57600080fd5b506200080762002299565b604051808273ffffffffffffffffffffffffffffffffffffffff1673ffffffffffffffffffffffffffffffffffffffff16815260200191505060405180910390f35b600b60009054906101000a900473ffffffffffffffffffffffffffffffffffffffff1681565b60006005544211905090565b60115481565b60065481565b6000806009858154811015156200089a57fe5b9060005260206000200160009054906101000a900473ffffffffffffffffffffffffffffffffffffffff169150600984815481101515620008d757fe5b9060005260206000200160009054906101000a900473ffffffffffffffffffffffffffffffffffffffff1690508173ffffffffffffffffffffffffffffffffffffffff1663ce6a088033856040518363ffffffff167c0100000000000000000000000000000000000000000000000000000000028152600401808373ffffffffffffffffffffffffffffffffffffffff1673ffffffffffffffffffffffffffffffffffffffff16815260200182815260200192505050600060405180830381600087803b158015620009a857600080fd5b505af1158015620009bd573d6000803e3d6000fd5b505050508073ffffffffffffffffffffffffffffffffffffffff16635f74bbde33856040518363ffffffff167c0100000000000000000000000000000000000000000000000000000000028152600401808373ffffffffffffffffffffffffffffffffffffffff1673ffffffffffffffffffffffffffffffffffffffff16815260200182815260200192505050600060405180830381600087803b15801562000a6557600080fd5b505af115801562000a7a573d6000803e3d6000fd5b505050505050505050565b600060098381548110151562000a9757fe5b9060005260206000200160009054906101000a900473ffffffffffffffffffffffffffffffffffffffff169050600760009054906101000a900473ffffffffffffffffffffffffffffffffffffffff1673ffffffffffffffffffffffffffffffffffffffff1663595f4a2533846040518363ffffffff167c0100000000000000000000000000000000000000000000000000000000028152600401808373ffffffffffffffffffffffffffffffffffffffff1673ffffffffffffffffffffffffffffffffffffffff16815260200182815260200192505050600060405180830381600087803b15801562000b8a57600080fd5b505af115801562000b9f573d6000803e3d6000fd5b505050508073ffffffffffffffffffffffffffffffffffffffff16635f74bbde33846040518363ffffffff167c0100000000000000000000000000000000000000000000000000000000028152600401808373ffffffffffffffffffffffffffffffffffffffff1673ffffffffffffffffffffffffffffffffffffffff16815260200182815260200192505050600060405180830381600087803b15801562000c4757600080fd5b505af115801562000c5c573d6000803e3d6000fd5b50505050505050565b6000806000806000809054906101000a900473ffffffffffffffffffffffffffffffffffffffff1673ffffffffffffffffffffffffffffffffffffffff166396b2b13b866040518263ffffffff167c0100000000000000000000000000000000000000000000000000000000028152600401808273ffffffffffffffffffffffffffffffffffffffff1673ffffffffffffffffffffffffffffffffffffffff168152602001915050602060405180830381600087803b15801562000d2857600080fd5b505af115801562000d3d573d6000803e3d6000fd5b505050506040513d602081101562000d5457600080fd5b810190808051906020019092919050505093506000809054906101000a900473ffffffffffffffffffffffffffffffffffffffff1673ffffffffffffffffffffffffffffffffffffffff1663170ca9f3866040518263ffffffff167c0100000000000000000000000000000000000000000000000000000000028152600401808273ffffffffffffffffffffffffffffffffffffffff1673ffffffffffffffffffffffffffffffffffffffff168152602001915050602060405180830381600087803b15801562000e2457600080fd5b505af115801562000e39573d6000803e3d6000fd5b505050506040513d602081101562000e5057600080fd5b8101908080519060200190929190505050925062000e788385620022be90919063ffffffff16565b915062000ea760105462000e9884601154620022d890919063ffffffff16565b6200231490919063ffffffff16565b90508473ffffffffffffffffffffffffffffffffffffffff166108fc829081150290604051600060405180830381858888f1935050505015801562000ef0573d6000803e3d6000fd5b505050505050565b60008060098381548110151562000f0b57fe5b9060005260206000200160009054906101000a900473ffffffffffffffffffffffffffffffffffffffff1691508173ffffffffffffffffffffffffffffffffffffffff1663fcfff16f6040518163ffffffff167c0100000000000000000000000000000000000000000000000000000000028152600401602060405180830381600087803b15801562000f9d57600080fd5b505af115801562000fb2573d6000803e3d6000fd5b505050506040513d602081101562000fc957600080fd5b810190808051906020019092919050505015806200108557508173ffffffffffffffffffffffffffffffffffffffff16634d7c09dd6040518163ffffffff167c0100000000000000000000000000000000000000000000000000000000028152600401602060405180830381600087803b1580156200104757600080fd5b505af11580156200105c573d6000803e3d6000fd5b505050506040513d60208110156200107357600080fd5b81019080805190602001909291905050505b15156200109157600080fd5b8173ffffffffffffffffffffffffffffffffffffffff166379ec5d3a856040518263ffffffff167c0100000000000000000000000000000000000000000000000000000000028152600401808273ffffffffffffffffffffffffffffffffffffffff1673ffffffffffffffffffffffffffffffffffffffff168152602001915050602060405180830381600087803b1580156200112d57600080fd5b505af115801562001142573d6000803e3d6000fd5b505050506040513d60208110156200115957600080fd5b81019080805190602001909291905050509050620011798484836200232b565b50505050565b6200118c3383836200232b565b5050565b600981815481101515620011a057fe5b906000526020600020016000915054906101000a900473ffffffffffffffffffffffffffffffffffffffff1681565b620011d96200086f565b1515620011e557600080fd5b6200137e6000809054906101000a900473ffffffffffffffffffffffffffffffffffffffff1673ffffffffffffffffffffffffffffffffffffffff1663519d1b456040518163ffffffff167c0100000000000000000000000000000000000000000000000000000000028152600401602060405180830381600087803b1580156200126f57600080fd5b505af115801562001284573d6000803e3d6000fd5b505050506040513d60208110156200129b57600080fd5b81019080805190602001909291905050506000809054906101000a900473ffffffffffffffffffffffffffffffffffffffff1673ffffffffffffffffffffffffffffffffffffffff1663596cc0a86040518163ffffffff167c0100000000000000000000000000000000000000000000000000000000028152600401602060405180830381600087803b1580156200133257600080fd5b505af115801562001347573d6000803e3d6000fd5b505050506040513d60208110156200135e57600080fd5b8101908080519060200190929190505050620022be90919063ffffffff16565b601081905550600354601181905550565b600d60009054906101000a900460ff1681565b6000806000809054906101000a900473ffffffffffffffffffffffffffffffffffffffff1673ffffffffffffffffffffffffffffffffffffffff16630d8654e8336040518263ffffffff167c0100000000000000000000000000000000000000000000000000000000028152600401808273ffffffffffffffffffffffffffffffffffffffff1673ffffffffffffffffffffffffffffffffffffffff168152602001915050602060405180830381600087803b1580156200146257600080fd5b505af115801562001477573d6000803e3d6000fd5b505050506040513d60208110156200148e57600080fd5b810190808051906020019092919050505050620014ab3362002005565b9150600760009054906101000a900473ffffffffffffffffffffffffffffffffffffffff1673ffffffffffffffffffffffffffffffffffffffff1663e641bde1336040518263ffffffff167c0100000000000000000000000000000000000000000000000000000000028152600401808273ffffffffffffffffffffffffffffffffffffffff1673ffffffffffffffffffffffffffffffffffffffff168152602001915050600060405180830381600087803b1580156200156b57600080fd5b505af115801562001580573d6000803e3d6000fd5b505050506009838154811015156200159457fe5b9060005260206000200160009054906101000a900473ffffffffffffffffffffffffffffffffffffffff1690508073ffffffffffffffffffffffffffffffffffffffff16635f74bbde33846040518363ffffffff167c0100000000000000000000000000000000000000000000000000000000028152600401808373ffffffffffffffffffffffffffffffffffffffff1673ffffffffffffffffffffffffffffffffffffffff16815260200182815260200192505050600060405180830381600087803b1580156200166557600080fd5b505af11580156200167a573d6000803e3d6000fd5b505050506200168a605a6200250c565b620016958362002579565b505050565b600080600080620016ac878962002591565b935093506000809054906101000a900473ffffffffffffffffffffffffffffffffffffffff1673ffffffffffffffffffffffffffffffffffffffff166340c10f19600160009054906101000a900473ffffffffffffffffffffffffffffffffffffffff16866040518363ffffffff167c0100000000000000000000000000000000000000000000000000000000028152600401808373ffffffffffffffffffffffffffffffffffffffff1673ffffffffffffffffffffffffffffffffffffffff16815260200182815260200192505050602060405180830381600087803b1580156200179757600080fd5b505af1158015620017ac573d6000803e3d6000fd5b505050506040513d6020811015620017c357600080fd5b8101908080519060200190929190505050506000809054906101000a900473ffffffffffffffffffffffffffffffffffffffff1673ffffffffffffffffffffffffffffffffffffffff166340c10f1930856040518363ffffffff167c0100000000000000000000000000000000000000000000000000000000028152600401808373ffffffffffffffffffffffffffffffffffffffff1673ffffffffffffffffffffffffffffffffffffffff16815260200182815260200192505050602060405180830381600087803b1580156200189a57600080fd5b505af1158015620018af573d6000803e3d6000fd5b505050506040513d6020811015620018c657600080fd5b810190808051906020019092919050505050620018ef87600654620025e790919063ffffffff16565b60068190555062001901605a6200250c565b600a5491508189600160009054906101000a900473ffffffffffffffffffffffffffffffffffffffff16600860009054906101000a900473ffffffffffffffffffffffffffffffffffffffff168a8c89898d8d6200195e62002e02565b808b8152602001806020018a73ffffffffffffffffffffffffffffffffffffffff1673ffffffffffffffffffffffffffffffffffffffff1681526020018973ffffffffffffffffffffffffffffffffffffffff1673ffffffffffffffffffffffffffffffffffffffff168152602001888152602001878152602001868152602001858152602001806020018060200184810384528d818151815260200191508051906020019080838360005b8381101562001a2757808201518184015260208101905062001a0a565b50505050905090810190601f16801562001a555780820380516001836020036101000a031916815260200191505b50848103835286818151815260200191508051906020019080838360005b8381101562001a9057808201518184015260208101905062001a73565b50505050905090810190601f16801562001abe5780820380516001836020036101000a031916815260200191505b50848103825285818151815260200191508051906020019080838360005b8381101562001af957808201518184015260208101905062001adc565b50505050905090810190601f16801562001b275780820380516001836020036101000a031916815260200191505b509d5050505050505050505050505050604051809103906000f08015801562001b54573d6000803e3d6000fd5b50905060098190806001815401808255809150509060018203906000526020600020016000909192909190916101000a81548173ffffffffffffffffffffffffffffffffffffffff021916908373ffffffffffffffffffffffffffffffffffffffff1602179055505062001bd56001600a54620025e790919063ffffffff16565b600a819055508073ffffffffffffffffffffffffffffffffffffffff166351973ec96040518163ffffffff167c0100000000000000000000000000000000000000000000000000000000028152600401600060405180830381600087803b15801562001c4057600080fd5b505af115801562001c55573d6000803e3d6000fd5b50505050505050505050505050565b600060098281548110151562001c7657fe5b9060005260206000200160009054906101000a900473ffffffffffffffffffffffffffffffffffffffff169050600073ffffffffffffffffffffffffffffffffffffffff16600b60009054906101000a900473ffffffffffffffffffffffffffffffffffffffff1673ffffffffffffffffffffffffffffffffffffffff16148062001e645750600b60009054906101000a900473ffffffffffffffffffffffffffffffffffffffff1673ffffffffffffffffffffffffffffffffffffffff1663c78243cf6040518163ffffffff167c0100000000000000000000000000000000000000000000000000000000028152600401602060405180830381600087803b15801562001d8357600080fd5b505af115801562001d98573d6000803e3d6000fd5b505050506040513d602081101562001daf57600080fd5b81019080805190602001909291905050508173ffffffffffffffffffffffffffffffffffffffff1663c78243cf6040518163ffffffff167c0100000000000000000000000000000000000000000000000000000000028152600401602060405180830381600087803b15801562001e2557600080fd5b505af115801562001e3a573d6000803e3d6000fd5b505050506040513d602081101562001e5157600080fd5b8101908080519060200190929190505050115b8062001f315750600b60009054906101000a900473ffffffffffffffffffffffffffffffffffffffff1673ffffffffffffffffffffffffffffffffffffffff1663fcfff16f6040518163ffffffff167c0100000000000000000000000000000000000000000000000000000000028152600401602060405180830381600087803b15801562001ef257600080fd5b505af115801562001f07573d6000803e3d6000fd5b505050506040513d602081101562001f1e57600080fd5b8101908080519060200190929190505050155b1562001f435762001f428162002604565b5b62001f4e8162002744565b600a54600f6000600e54815260200190815260200160002060010154141562001f8d576001600d60006101000a81548160ff0219169083151502179055505b5050565b600a5481565b60105481565b600760009054906101000a900473ffffffffffffffffffffffffffffffffffffffff1681565b600c5481565b600860009054906101000a900473ffffffffffffffffffffffffffffffffffffffff1681565b60045481565b60055481565b6000600354905090565b600080600034915062002019848362002870565b6200202482620028b6565b90506200203d82600354620025e790919063ffffffff16565b6003819055506000809054906101000a900473ffffffffffffffffffffffffffffffffffffffff1673ffffffffffffffffffffffffffffffffffffffff166309b38a5d85836040518363ffffffff167c0100000000000000000000000000000000000000000000000000000000028152600401808373ffffffffffffffffffffffffffffffffffffffff1673ffffffffffffffffffffffffffffffffffffffff16815260200182815260200192505050600060405180830381600087803b1580156200210857600080fd5b505af11580156200211d573d6000803e3d6000fd5b505050508373ffffffffffffffffffffffffffffffffffffffff163373ffffffffffffffffffffffffffffffffffffffff167f623b3804fa71d67900d064613da8f94b9617215ee90799290593e1745087ad188484604051808381526020018281526020019250505060405180910390a38092505050919050565b600354600c5411158015620021b95750600d60009054906101000a900460ff165b8015620022865750600b60009054906101000a900473ffffffffffffffffffffffffffffffffffffffff1673ffffffffffffffffffffffffffffffffffffffff1663fcfff16f6040518163ffffffff167c0100000000000000000000000000000000000000000000000000000000028152600401602060405180830381600087803b1580156200224857600080fd5b505af11580156200225d573d6000803e3d6000fd5b505050506040513d60208110156200227457600080fd5b81019080805190602001909291905050505b15620022975762002296620028d6565b5b565b6000809054906101000a900473ffffffffffffffffffffffffffffffffffffffff1681565b6000828211151515620022cd57fe5b818303905092915050565b600080831415620022ed57600090506200230e565b8183029050818382811515620022ff57fe5b041415156200230a57fe5b8090505b92915050565b600081838115156200232257fe5b04905092915050565b60006009838154811015156200233d57fe5b9060005260206000200160009054906101000a900473ffffffffffffffffffffffffffffffffffffffff1690508073ffffffffffffffffffffffffffffffffffffffff1663ce6a088085846040518363ffffffff167c0100000000000000000000000000000000000000000000000000000000028152600401808373ffffffffffffffffffffffffffffffffffffffff1673ffffffffffffffffffffffffffffffffffffffff16815260200182815260200192505050600060405180830381600087803b1580156200240e57600080fd5b505af115801562002423573d6000803e3d6000fd5b50505050600760009054906101000a900473ffffffffffffffffffffffffffffffffffffffff1673ffffffffffffffffffffffffffffffffffffffff1663ad8f256f85846040518363ffffffff167c0100000000000000000000000000000000000000000000000000000000028152600401808373ffffffffffffffffffffffffffffffffffffffff1673ffffffffffffffffffffffffffffffffffffffff16815260200182815260200192505050600060405180830381600087803b158015620024ed57600080fd5b505af115801562002502573d6000803e3d6000fd5b5050505050505050565b60008060004292506004549150600554905060045442101580156200253357506005544211155b15156200253f57600080fd5b6200256d6200255b621a5e0086620022d890919063ffffffff16565b600554620025e790919063ffffffff16565b60058190555050505050565b620025848162001c64565b6200258e62002198565b50565b6000806000620025ab8486620022be90919063ffffffff16565b9050620025c460025482620022d890919063ffffffff16565b620025db60025486620022d890919063ffffffff16565b92509250509250929050565b60008183019050828110151515620025fb57fe5b80905092915050565b600073ffffffffffffffffffffffffffffffffffffffff16600b60009054906101000a900473ffffffffffffffffffffffffffffffffffffffff1673ffffffffffffffffffffffffffffffffffffffff1614158015620027255750600b60009054906101000a900473ffffffffffffffffffffffffffffffffffffffff1673ffffffffffffffffffffffffffffffffffffffff1663fcfff16f6040518163ffffffff167c0100000000000000000000000000000000000000000000000000000000028152600401602060405180830381600087803b158015620026e657600080fd5b505af1158015620026fb573d6000803e3d6000fd5b505050506040513d60208110156200271257600080fd5b8101908080519060200190929190505050155b1562002736576200273562002beb565b5b620027418162002c57565b50565b6000600f6000600e54815260200190815260200160002060000160008373ffffffffffffffffffffffffffffffffffffffff1673ffffffffffffffffffffffffffffffffffffffff16815260200190815260200160002060009054906101000a900460ff1690508015156200286c57620027e16001600f6000600e54815260200190815260200160002060010154620025e790919063ffffffff16565b600f6000600e548152602001908152602001600020600101819055506001600f6000600e54815260200190815260200160002060000160008473ffffffffffffffffffffffffffffffffffffffff1673ffffffffffffffffffffffffffffffffffffffff16815260200190815260200160002060006101000a81548160ff0219169083151502179055505b5050565b60008060004292506004549150600554905060045442101580156200289757506005544211155b1515620028a357600080fd5b620028af858562002d64565b5050505050565b6000620028cf60025483620022d890919063ffffffff16565b9050919050565b6000600b60009054906101000a900473ffffffffffffffffffffffffffffffffffffffff1690508073ffffffffffffffffffffffffffffffffffffffff16630f15f4c06040518163ffffffff167c0100000000000000000000000000000000000000000000000000000000028152600401600060405180830381600087803b1580156200296257600080fd5b505af115801562002977573d6000803e3d6000fd5b50505050620029ab600160009054906101000a900473ffffffffffffffffffffffffffffffffffffffff16600c5462002db6565b620029c4600c54600354620022be90919063ffffffff16565b600381905550620029e26001600a54620022be90919063ffffffff16565b600a819055506000809054906101000a900473ffffffffffffffffffffffffffffffffffffffff1673ffffffffffffffffffffffffffffffffffffffff166375a9158762002b7c8373ffffffffffffffffffffffffffffffffffffffff1663d705f3876040518163ffffffff167c0100000000000000000000000000000000000000000000000000000000028152600401602060405180830381600087803b15801562002a8e57600080fd5b505af115801562002aa3573d6000803e3d6000fd5b505050506040513d602081101562002aba57600080fd5b81019080805190602001909291905050508473ffffffffffffffffffffffffffffffffffffffff1663929aebdf6040518163ffffffff167c0100000000000000000000000000000000000000000000000000000000028152600401602060405180830381600087803b15801562002b3057600080fd5b505af115801562002b45573d6000803e3d6000fd5b505050506040513d602081101562002b5c57600080fd5b8101908080519060200190929190505050620025e790919063ffffffff16565b6040518263ffffffff167c010000000000000000000000000000000000000000000000000000000002815260040180828152602001915050600060405180830381600087803b15801562002bcf57600080fd5b505af115801562002be4573d6000803e3d6000fd5b5050505050565b62002bf562002e13565b62002c0d6001600e54620025e790919063ffffffff16565b600e8190555080600f6000600e5481526020019081526020016000206000820151816001015590505062002c4e6001600a54620022be90919063ffffffff16565b600a8190555050565b600081905081600b60006101000a81548173ffffffffffffffffffffffffffffffffffffffff021916908373ffffffffffffffffffffffffffffffffffffffff1602179055508073ffffffffffffffffffffffffffffffffffffffff1663d4cf7db66040518163ffffffff167c0100000000000000000000000000000000000000000000000000000000028152600401602060405180830381600087803b15801562002d0257600080fd5b505af115801562002d17573d6000803e3d6000fd5b505050506040513d602081101562002d2e57600080fd5b8101908080519060200190929190505050600c819055506000600d60006101000a81548160ff0219169083151502179055505050565b600073ffffffffffffffffffffffffffffffffffffffff168273ffffffffffffffffffffffffffffffffffffffff161415151562002da157600080fd5b6000811415151562002db257600080fd5b5050565b8173ffffffffffffffffffffffffffffffffffffffff166108fc829081150290604051600060405180830381858888f1935050505015801562002dfd573d6000803e3d6000fd5b505050565b60405161118b8062002e2883390190565b602060405190810160405280600081525090560060806040523480156200001157600080fd5b506040516200118b3803806200118b83398101806040528101908080519060200190929190805182019291906020018051906020019092919080519060200190929190805190602001909291908051906020019092919080519060200190929190805190602001909291908051820192919060200180518201929190505050896000819055508860019080519060200190620000af929190620001c0565b5087600260006101000a81548173ffffffffffffffffffffffffffffffffffffffff021916908373ffffffffffffffffffffffffffffffffffffffff16021790555086600360006101000a81548173ffffffffffffffffffffffffffffffffffffffff021916908373ffffffffffffffffffffffffffffffffffffffff16021790555085600581905550846006819055508360078190555082600881905550816009908051906020019062000166929190620001c0565b5080600a90805190602001906200017f929190620001c0565b506000600b819055506000600c60006101000a81548160ff02191690831515021790555063013d23804201600481905550505050505050505050506200026f565b828054600181600116156101000203166002900490600052602060002090601f016020900481019282601f106200020357805160ff191683800117855562000234565b8280016001018555821562000234579182015b828111156200023357825182559160200191906001019062000216565b5b50905062000243919062000247565b5090565b6200026c91905b80821115620002685760008160009055506001016200024e565b5090565b90565b610f0c806200027f6000396000f300608060405260043610610112576000357c0100000000000000000000000000000000000000000000000000000000900463ffffffff16806302fb0c5e146101175780630f15f4c014610146578063272666e31461015d5780632d06177a146101885780634d7c09dd146101cb57806351973ec9146101fa57806355d576cc146102115780635b184f88146102a15780635f74bbde146102e45780636f21983114610331578063705c5be51461035c57806379ec5d3a146103b7578063929aebdf1461040e578063b0e0116414610439578063c78243cf14610490578063ce6a0880146104bb578063d0e30db014610508578063d4cf7db614610512578063d705f3871461053d578063fcfff16f14610568575b600080fd5b34801561012357600080fd5b5061012c610597565b604051808215151515815260200191505060405180910390f35b34801561015257600080fd5b5061015b6105aa565b005b34801561016957600080fd5b506101726105cf565b6040518082815260200191505060405180910390f35b34801561019457600080fd5b506101c9600480360381019080803573ffffffffffffffffffffffffffffffffffffffff1690602001909291905050506105d9565b005b3480156101d757600080fd5b506101e06106eb565b604051808215151515815260200191505060405180910390f35b34801561020657600080fd5b5061020f610702565b005b34801561021d57600080fd5b5061022661092b565b6040518080602001828103825283818151815260200191508051906020019080838360005b8381101561026657808201518184015260208101905061024b565b50505050905090810190601f1680156102935780820380516001836020036101000a031916815260200191505b509250505060405180910390f35b3480156102ad57600080fd5b506102e2600480360381019080803573ffffffffffffffffffffffffffffffffffffffff1690602001909291905050506109c9565b005b3480156102f057600080fd5b5061032f600480360381019080803573ffffffffffffffffffffffffffffffffffffffff16906020019092919080359060200190929190505050610ac4565b005b34801561033d57600080fd5b50610346610b95565b6040518082815260200191505060405180910390f35b34801561036857600080fd5b5061039d600480360381019080803573ffffffffffffffffffffffffffffffffffffffff169060200190929190505050610b9e565b604051808215151515815260200191505060405180910390f35b3480156103c357600080fd5b506103f8600480360381019080803573ffffffffffffffffffffffffffffffffffffffff169060200190929190505050610c58565b6040518082815260200191505060405180910390f35b34801561041a57600080fd5b50610423610ca1565b6040518082815260200191505060405180910390f35b34801561044557600080fd5b5061044e610cab565b604051808273ffffffffffffffffffffffffffffffffffffffff1673ffffffffffffffffffffffffffffffffffffffff16815260200191505060405180910390f35b34801561049c57600080fd5b506104a5610cd1565b6040518082815260200191505060405180910390f35b3480156104c757600080fd5b50610506600480360381019080803573ffffffffffffffffffffffffffffffffffffffff16906020019092919080359060200190929190505050610cdb565b005b610510610e0b565b005b34801561051e57600080fd5b50610527610e8b565b6040518082815260200191505060405180910390f35b34801561054957600080fd5b50610552610e95565b6040518082815260200191505060405180910390f35b34801561057457600080fd5b5061057d610e9f565b604051808215151515815260200191505060405180910390f35b600c60009054906101000a900460ff1681565b6001600c60006101000a81548160ff0219169083151502179055506105cd610702565b565b6000600454905090565b60011515600e60003373ffffffffffffffffffffffffffffffffffffffff1673ffffffffffffffffffffffffffffffffffffffff16815260200190815260200160002060009054906101000a900460ff16151514806106855750600260009054906101000a900473ffffffffffffffffffffffffffffffffffffffff1673ffffffffffffffffffffffffffffffffffffffff163373ffffffffffffffffffffffffffffffffffffffff16145b151561069057600080fd5b6001600e60008373ffffffffffffffffffffffffffffffffffffffff1673ffffffffffffffffffffffffffffffffffffffff16815260200190815260200160002060006101000a81548160ff02191690831515021790555050565b6000600c60009054906101000a900460ff16905090565b7f2870b0d0558b1786ef247a7bb0787eaae7392b072f7ca327b464981f23fb0e9260005460016005546006546007546008546009600a600b54600c60009054906101000a900460ff16604051808b8152602001806020018a815260200189815260200188815260200187815260200180602001806020018681526020018515151515815260200184810384528d81815460018160011615610100020316600290048152602001915080546001816001161561010002031660029004801561080a5780601f106107df5761010080835404028352916020019161080a565b820191906000526020600020905b8154815290600101906020018083116107ed57829003601f168201915b505084810383528881815460018160011615610100020316600290048152602001915080546001816001161561010002031660029004801561088d5780601f106108625761010080835404028352916020019161088d565b820191906000526020600020905b81548152906001019060200180831161087057829003601f168201915b50508481038252878181546001816001161561010002031660029004815260200191508054600181600116156101000203166002900480156109105780601f106108e557610100808354040283529160200191610910565b820191906000526020600020905b8154815290600101906020018083116108f357829003601f168201915b50509d505050505050505050505050505060405180910390a1565b60098054600181600116156101000203166002900480601f0160208091040260200160405190810160405280929190818152602001828054600181600116156101000203166002900480156109c15780601f10610996576101008083540402835291602001916109c1565b820191906000526020600020905b8154815290600101906020018083116109a457829003601f168201915b505050505081565b60011515600e60003373ffffffffffffffffffffffffffffffffffffffff1673ffffffffffffffffffffffffffffffffffffffff16815260200190815260200160002060009054906101000a900460ff1615151480610a755750600260009054906101000a900473ffffffffffffffffffffffffffffffffffffffff1673ffffffffffffffffffffffffffffffffffffffff163373ffffffffffffffffffffffffffffffffffffffff16145b1515610a8057600080fd5b80600360006101000a81548173ffffffffffffffffffffffffffffffffffffffff021916908373ffffffffffffffffffffffffffffffffffffffff16021790555050565b610b1681600d60008573ffffffffffffffffffffffffffffffffffffffff1673ffffffffffffffffffffffffffffffffffffffff16815260200190815260200160002054610eab90919063ffffffff16565b600d60008473ffffffffffffffffffffffffffffffffffffffff1673ffffffffffffffffffffffffffffffffffffffff16815260200190815260200160002081905550610b6e81600b54610eab90919063ffffffff16565b600b81905550610b8b61a8c0600454610eab90919063ffffffff16565b6004819055505050565b60008054905090565b600080600b54118015610c5157508173ffffffffffffffffffffffffffffffffffffffff1663c78243cf6040518163ffffffff167c0100000000000000000000000000000000000000000000000000000000028152600401602060405180830381600087803b158015610c1057600080fd5b505af1158015610c24573d6000803e3d6000fd5b505050506040513d6020811015610c3a57600080fd5b8101908080519060200190929190505050600b5410155b9050919050565b6000600d60008373ffffffffffffffffffffffffffffffffffffffff1673ffffffffffffffffffffffffffffffffffffffff168152602001908152602001600020549050919050565b6000600754905090565b600360009054906101000a900473ffffffffffffffffffffffffffffffffffffffff1681565b6000600b54905090565b600b548111151515610cec57600080fd5b600d60008373ffffffffffffffffffffffffffffffffffffffff1673ffffffffffffffffffffffffffffffffffffffff168152602001908152602001600020548111151515610d3a57600080fd5b610d8c81600d60008573ffffffffffffffffffffffffffffffffffffffff1673ffffffffffffffffffffffffffffffffffffffff16815260200190815260200160002054610ec790919063ffffffff16565b600d60008473ffffffffffffffffffffffffffffffffffffffff1673ffffffffffffffffffffffffffffffffffffffff16815260200190815260200160002081905550610de481600b54610ec790919063ffffffff16565b600b81905550610e0161a8c0600454610ec790919063ffffffff16565b6004819055505050565b6000803414151515610e1c57600080fd5b349050600360009054906101000a900473ffffffffffffffffffffffffffffffffffffffff1673ffffffffffffffffffffffffffffffffffffffff166108fc829081150290604051600060405180830381858888f19350505050158015610e87573d6000803e3d6000fd5b5050565b6000600654905090565b6000600854905090565b60004260045411905090565b60008183019050828110151515610ebe57fe5b80905092915050565b6000828211151515610ed557fe5b8183039050929150505600a165627a7a723058209a5f3f1def69c435029c791f80b6e99d7b02c8d53152474b7e5728082061b8710029a165627a7a72305820479a23420d7cbbbbc9ae6ac52d9cf5aaa9717a9442b4ceadcac12c7a9da2b2c10029",
  "source": "pragma solidity ^0.4.24;\nimport './TimedCrowdsale.sol';\nimport '../utility/SafeMath.sol';\nimport '../Project.sol';\nimport '../ProjectStub.sol';\nimport '../token/ERC20/Token.sol';\nimport '../InvestorList.sol';\n\ncontract GNITokenCrowdsale is TimedCrowdsale {\n  using SafeMath for uint256;\n  uint256 public totalValuation;\n  InvestorList public investorList;\n  address public dividendWallet;\n\n  constructor\n      (\n        uint256 _openingTime,\n        uint256 _doomsDay,\n        uint256 _rate,\n        address _developer,\n        address _dividendWallet,\n        Token _token,\n        InvestorList _investorList\n      )\n      public\n      Crowdsale(_rate, _developer, _token)\n      TimedCrowdsale(_openingTime, _doomsDay) {\n        investorList = InvestorList(_investorList);\n        totalValuation = 0;\n        dividendWallet = _dividendWallet;\n  }\n\n  address[] public projectAddrs;\n  uint256 public inactiveProjectCount;\n\n  function pitchProject(string _name, uint256 capitalRequired, uint256 _valuation, string _lat, string _lng) public {//we need more tests for this\n   (uint256 developerTokens, uint256 investorTokens) = tokensToMint(_valuation, capitalRequired);\n\n   Token(token).mint(developer, developerTokens);\n   Token(token).mint(this, investorTokens);\n\n   totalValuation = totalValuation.add(_valuation);\n\n   _extendDoomsDay(90);\n\n    uint256 _id = inactiveProjectCount;\n    address projectAddr = new Project(_id, _name, developer, dividendWallet, _valuation, capitalRequired, developerTokens, investorTokens, _lat, _lng);\n    projectAddrs.push(projectAddr);\n    inactiveProjectCount = inactiveProjectCount.add(1);\n    Project(projectAddr).log();\n  }\n\n function tokensToMint (uint256 valuation, uint256 investorValue) private view returns (uint256, uint256) {\n   uint256 developerValue = valuation.sub(investorValue);\n   return (developerValue.mul(rate), investorValue.mul(rate));\n }\n\n //before this, we need to execute any pending token activations with the modifier above for the sender account. We need to do this so that the correct number of tokens are activated\n function buyTokensAndVote (uint256 _projectVotedForId) public payable {//we need more tests for this\n   Token(token).activatePending(msg.sender);\n\n   uint256 tokens = buyTokens(msg.sender);\n   investorList.addInvestor(msg.sender);\n\n   address projAddr = projectAddrs[_projectVotedForId];\n   Project(projAddr).vote(msg.sender, tokens);\n\n   _extendDoomsDay(90);\n\n   updateProjects(_projectVotedForId);\n }\n\n address public tentativeLeaderAddr;\n uint256 public tentativeLeaderCapRequired;\n bool public tentativeLeaderConfirmed;\n\n struct ProjectsChecked {\n   mapping(address => bool) isChecked;\n   uint256 totalChecked;\n }\n\n uint256 internal currentCheckCycle;\n mapping(uint256 => ProjectsChecked) internal checkCycle;\n\n function considerTentativeLeaderShip (uint256 _projectId) public {\n   address projectAddr = projectAddrs[_projectId];\n\n   if (\n     tentativeLeaderAddr == address(0) ||\n     Project(projectAddr).totalVotes_() > Project(tentativeLeaderAddr).totalVotes_() ||\n     !Project(tentativeLeaderAddr).open()\n     )\n   {\n     updateTentativeLeader(projectAddr);\n   }\n\n   recordCheck(projectAddr);\n\n   if (checkCycle[currentCheckCycle].totalChecked == inactiveProjectCount){\n     tentativeLeaderConfirmed = true;\n   }\n }\n\n function recordCheck (address projectAddr) internal {\n   bool hasBeenChecked = checkCycle[currentCheckCycle].isChecked[projectAddr];\n\n   if (!hasBeenChecked) {\n    checkCycle[currentCheckCycle].totalChecked = checkCycle[currentCheckCycle].totalChecked.add(1);\n    checkCycle[currentCheckCycle].isChecked[projectAddr] = true;\n   }\n }\n\n function updateTentativeLeader (address newLeaderAddr) internal {\n   //if its overtaking a project that is open, that means it has more votes and we dont need to reset all the checks\n   if (tentativeLeaderAddr != address(0) && !Project(tentativeLeaderAddr).open()) {\n     resetProjectsChecked();\n   }\n   setTentativeLeader(newLeaderAddr);\n }\n\n function resetProjectsChecked() internal {\n   ProjectsChecked memory newProjectsChecked;\n   currentCheckCycle = currentCheckCycle.add(1);\n   checkCycle[currentCheckCycle] = newProjectsChecked;\n   inactiveProjectCount = inactiveProjectCount.sub(1);\n }\n\n function setTentativeLeader(address newLeaderAddr) internal {\n   Project newLeader = Project(newLeaderAddr);\n\n   tentativeLeaderAddr = newLeaderAddr;\n   tentativeLeaderCapRequired = newLeader.capitalRequired_();\n   tentativeLeaderConfirmed = false;\n }\n\n function attemptProjectActivation () public {\n   if (\n     tentativeLeaderCapRequired <= weiRaised &&\n     tentativeLeaderConfirmed &&\n     Project(tentativeLeaderAddr).open()\n     ) {\n     activateProject();\n   }\n }\n\n function activateProject () internal {\n   Project project = Project(tentativeLeaderAddr);\n   project.activate();\n\n   forwardFunds(developer, tentativeLeaderCapRequired);\n   weiRaised = weiRaised.sub(tentativeLeaderCapRequired);\n   inactiveProjectCount = inactiveProjectCount.sub(1);\n   Token(token).increasePendingActivations(project.developerTokens_().add(project.investorTokens_()));\n }\n\n uint256 public inactiveTokensAtClosing;\n uint256 public weiToReimburse;\n\n function reimburseFunds () public {\n   require(hasClosed());\n   inactiveTokensAtClosing = Token(token).totalInactiveSupply().sub(Token(token).totalPendingActivations());\n   weiToReimburse = weiRaised;\n }\n\n function claimReimbursement (address account) public {\n   uint256 inactiveTokens = Token(token).inactiveBalanceOf(account);\n   uint256 pendingActivations = Token(token).pendingActivations(account);\n   uint256 accountTokens = inactiveTokens.sub(pendingActivations);\n   uint256 reimbursement = weiToReimburse.mul(accountTokens).div(inactiveTokensAtClosing);\n   account.transfer(reimbursement);\n }\n\n function transferVotes (uint256 fromProjectId, uint256 toProjectId, uint256 votes) external {\n   address fromAddr = projectAddrs[fromProjectId];\n   address toAddr = projectAddrs[toProjectId];\n   Project(fromAddr).removeVotes(msg.sender, votes);\n   Project(toAddr).vote(msg.sender, votes);\n }\n\n function addVoteCredit (uint256 fromProjectId, uint256 votes) external {\n   addVoteCredit_(msg.sender, fromProjectId, votes);\n }\n\n //this is for adding vote credit for each investor from the frontend after a project has been activated\n function addVoteCreditTo (address account, uint256 fromProjectId) external {\n   Project project = Project(projectAddrs[fromProjectId]);\n   require(!project.open() || project.active_());\n   uint256 votes = project.votesOf(account);\n   addVoteCredit_(account, fromProjectId, votes);\n }\n\n function addVoteCredit_ (address account, uint256 fromProjectId, uint256 votes) internal {\n   address projAddr = projectAddrs[fromProjectId];\n   Project(projAddr).removeVotes(account, votes);\n   investorList.addVoteCredit(account, votes);\n }\n\n function voteWithCredit (uint256 toProjectId, uint256 votes) external {\n   address projAddr = projectAddrs[toProjectId];\n   investorList.removeVoteCredit(msg.sender, votes);\n   Project(projAddr).vote(msg.sender, votes);\n }\n\n function updateProjects (uint256 _projectId) internal {\n   considerTentativeLeaderShip(_projectId);\n   attemptProjectActivation();\n }\n\n function _extendDoomsDay(uint256 _days) internal onlyWhileOpen {\n    doomsDay = doomsDay.add(_days.mul(1728000));\n }\n\n  function forwardFunds (address _to, uint256 amount) internal {\n    _to.transfer(amount);\n  }\n}\n\n/* function getInfo(uint256 id) public view returns(address) {\n    /* string, uint256, uint256, uint256, uint256, bool, uint256, uint256, address */\n    /* address projectAddr = projectAddrs[id]; */\n    /* return ( */\n      /* return Project(projectAddr).dividendWallet(); */\n      /* Project(projectAddr).name(),\n      Project(projectAddr).valuation(),\n      Project(projectAddr).capitalRequired(),\n      Project(projectAddr).developerTokens(),\n      Project(projectAddr).investorTokens(),\n      Project(projectAddr).active(),\n      Project(projectAddr).totalVotes(),\n      /* Project(projectAddr).closingTime(), */\n      /* projectAddr */\n      /* ); */\n    /* }  */\n",
  "sourcePath": "/Users/steven/genie-portal/truffle/contracts/crowdsale/GNITokenCrowdsale.sol",
  "compiler": {
    "name": "solc",
    "version": "0.4.24+commit.e67f0147.Emscripten.clang"
  },
  "schemaVersion": "2.0.1",
  "updatedAt": "2018-12-06T18:02:53.037Z"
}