{
  "contractName": "GNITokenCrowdsale",
  "abi": [
    {
      "constant": true,
      "inputs": [],
      "name": "hasClosed",
      "outputs": [
        {
          "name": "",
          "type": "bool"
        }
      ],
      "payable": false,
      "stateMutability": "view",
      "type": "function"
    },
    {
      "constant": true,
      "inputs": [],
      "name": "developerWallet",
      "outputs": [
        {
          "name": "",
          "type": "address"
        }
      ],
      "payable": false,
      "stateMutability": "view",
      "type": "function"
    },
    {
      "constant": true,
      "inputs": [],
      "name": "totalValuation",
      "outputs": [
        {
          "name": "",
          "type": "uint256"
        }
      ],
      "payable": false,
      "stateMutability": "view",
      "type": "function"
    },
    {
      "constant": true,
      "inputs": [],
      "name": "rate",
      "outputs": [
        {
          "name": "",
          "type": "uint256"
        }
      ],
      "payable": false,
      "stateMutability": "view",
      "type": "function"
    },
    {
      "constant": true,
      "inputs": [],
      "name": "weiRaised",
      "outputs": [
        {
          "name": "",
          "type": "uint256"
        }
      ],
      "payable": false,
      "stateMutability": "view",
      "type": "function"
    },
    {
      "constant": true,
      "inputs": [],
      "name": "wallet",
      "outputs": [
        {
          "name": "",
          "type": "address"
        }
      ],
      "payable": false,
      "stateMutability": "view",
      "type": "function"
    },
    {
      "constant": false,
      "inputs": [],
      "name": "_forwardFunds",
      "outputs": [],
      "payable": true,
      "stateMutability": "payable",
      "type": "function"
    },
    {
      "constant": true,
      "inputs": [],
      "name": "openingTime",
      "outputs": [
        {
          "name": "",
          "type": "uint256"
        }
      ],
      "payable": false,
      "stateMutability": "view",
      "type": "function"
    },
    {
      "constant": true,
      "inputs": [],
      "name": "doomsDay",
      "outputs": [
        {
          "name": "",
          "type": "uint256"
        }
      ],
      "payable": false,
      "stateMutability": "view",
      "type": "function"
    },
    {
      "constant": false,
      "inputs": [
        {
          "name": "_beneficiary",
          "type": "address"
        }
      ],
      "name": "buyTokens",
      "outputs": [],
      "payable": true,
      "stateMutability": "payable",
      "type": "function"
    },
    {
      "constant": true,
      "inputs": [],
      "name": "token",
      "outputs": [
        {
          "name": "",
          "type": "address"
        }
      ],
      "payable": false,
      "stateMutability": "view",
      "type": "function"
    },
    {
      "inputs": [
        {
          "name": "_openingTime",
          "type": "uint256"
        },
        {
          "name": "_doomsDay",
          "type": "uint256"
        },
        {
          "name": "_rate",
          "type": "uint256"
        },
        {
          "name": "_wallet",
          "type": "address"
        },
        {
          "name": "_token",
          "type": "address"
        }
      ],
      "payable": false,
      "stateMutability": "nonpayable",
      "type": "constructor"
    },
    {
      "payable": true,
      "stateMutability": "payable",
      "type": "fallback"
    },
    {
      "anonymous": false,
      "inputs": [
        {
          "indexed": false,
          "name": "name",
          "type": "string"
        },
        {
          "indexed": false,
          "name": "valuation",
          "type": "uint256"
        },
        {
          "indexed": false,
          "name": "capitalRequired",
          "type": "uint256"
        },
        {
          "indexed": false,
          "name": "lat",
          "type": "string"
        },
        {
          "indexed": false,
          "name": "lng",
          "type": "string"
        },
        {
          "indexed": false,
          "name": "voteCount",
          "type": "uint256"
        },
        {
          "indexed": false,
          "name": "capitalReached",
          "type": "bool"
        },
        {
          "indexed": false,
          "name": "active",
          "type": "bool"
        }
      ],
      "name": "LogProject",
      "type": "event"
    },
    {
      "anonymous": false,
      "inputs": [
        {
          "indexed": true,
          "name": "purchaser",
          "type": "address"
        },
        {
          "indexed": true,
          "name": "beneficiary",
          "type": "address"
        },
        {
          "indexed": false,
          "name": "value",
          "type": "uint256"
        },
        {
          "indexed": false,
          "name": "amount",
          "type": "uint256"
        }
      ],
      "name": "TokenPurchase",
      "type": "event"
    },
    {
      "constant": true,
      "inputs": [
        {
          "name": "_name",
          "type": "string"
        }
      ],
      "name": "getProjectInfo",
      "outputs": [
        {
          "name": "",
          "type": "string"
        },
        {
          "name": "",
          "type": "uint256"
        },
        {
          "name": "",
          "type": "uint256"
        },
        {
          "name": "",
          "type": "bool"
        },
        {
          "name": "",
          "type": "uint256"
        },
        {
          "name": "",
          "type": "uint256"
        }
      ],
      "payable": false,
      "stateMutability": "view",
      "type": "function"
    },
    {
      "constant": false,
      "inputs": [
        {
          "name": "_name",
          "type": "string"
        },
        {
          "name": "capitalRequired",
          "type": "uint256"
        },
        {
          "name": "_valuation",
          "type": "uint256"
        },
        {
          "name": "_lat",
          "type": "string"
        },
        {
          "name": "_lng",
          "type": "string"
        }
      ],
      "name": "pitchProject",
      "outputs": [],
      "payable": true,
      "stateMutability": "payable",
      "type": "function"
    },
    {
      "constant": false,
      "inputs": [
        {
          "name": "_projectName",
          "type": "string"
        }
      ],
      "name": "buyTokensAndVote",
      "outputs": [],
      "payable": true,
      "stateMutability": "payable",
      "type": "function"
    },
    {
      "constant": false,
      "inputs": [],
      "name": "collectFunds",
      "outputs": [],
      "payable": false,
      "stateMutability": "nonpayable",
      "type": "function"
    },
    {
      "constant": false,
      "inputs": [
        {
          "name": "_projectName",
          "type": "string"
        }
      ],
      "name": "updateProjectVotedFor",
      "outputs": [],
      "payable": false,
      "stateMutability": "nonpayable",
      "type": "function"
    }
  ],
  "bytecode": "0x608060405234801561001057600080fd5b5060405160a0806117b38339810180604052810190808051906020019092919080519060200190929190805190602001909291908051906020019092919080519060200190929190505050848484848460008311151561006f57600080fd5b600073ffffffffffffffffffffffffffffffffffffffff168273ffffffffffffffffffffffffffffffffffffffff16141515156100ab57600080fd5b600073ffffffffffffffffffffffffffffffffffffffff168173ffffffffffffffffffffffffffffffffffffffff16141515156100e757600080fd5b8260028190555081600160006101000a81548173ffffffffffffffffffffffffffffffffffffffff021916908373ffffffffffffffffffffffffffffffffffffffff160217905550806000806101000a81548173ffffffffffffffffffffffffffffffffffffffff021916908373ffffffffffffffffffffffffffffffffffffffff16021790555050505042821015151561018157600080fd5b81811015151561019057600080fd5b81600481905550806005819055505050600060078190555050505050506115f7806101bc6000396000f3006080604052600436106100e6576000357c0100000000000000000000000000000000000000000000000000000000900463ffffffff1680631515bc2b146100f1578063185870f914610120578063295b9300146101775780632c4e722e146101a25780634042b66f146101cd578063521eb273146101f85780635b9806281461024f57806365af16721461026657806369f6ed6e14610362578063753e9d76146103be578063b3413d9f14610427578063b7a8807c14610431578063c19b7bc01461045c578063ec8ac4d814610487578063f339118d146104bd578063fc0c546a146105c6575b6100ef3361061d565b005b3480156100fd57600080fd5b506101066106eb565b604051808215151515815260200191505060405180910390f35b34801561012c57600080fd5b506101356106f7565b604051808273ffffffffffffffffffffffffffffffffffffffff1673ffffffffffffffffffffffffffffffffffffffff16815260200191505060405180910390f35b34801561018357600080fd5b5061018c61071d565b6040518082815260200191505060405180910390f35b3480156101ae57600080fd5b506101b7610723565b6040518082815260200191505060405180910390f35b3480156101d957600080fd5b506101e2610729565b6040518082815260200191505060405180910390f35b34801561020457600080fd5b5061020d61072f565b604051808273ffffffffffffffffffffffffffffffffffffffff1673ffffffffffffffffffffffffffffffffffffffff16815260200191505060405180910390f35b34801561025b57600080fd5b50610264610755565b005b610360600480360381019080803590602001908201803590602001908080601f01602080910402602001604051908101604052809392919081815260200183838082843782019150505050505091929192908035906020019092919080359060200190929190803590602001908201803590602001908080601f0160208091040260200160405190810160405280939291908181526020018383808284378201915050505050509192919290803590602001908201803590602001908080601f01602080910402602001604051908101604052809392919081815260200183838082843782019150505050505091929192905050506107c1565b005b6103bc600480360381019080803590602001908201803590602001908080601f0160208091040260200160405190810160405280939291908181526020018383808284378201915050505050509192919290505050610b26565b005b3480156103ca57600080fd5b50610425600480360381019080803590602001908201803590602001908080601f0160208091040260200160405190810160405280939291908181526020018383808284378201915050505050509192919290505050610b3b565b005b61042f610b50565b005b34801561043d57600080fd5b50610446610bbb565b6040518082815260200191505060405180910390f35b34801561046857600080fd5b50610471610bc1565b6040518082815260200191505060405180910390f35b6104bb600480360381019080803573ffffffffffffffffffffffffffffffffffffffff16906020019092919050505061061d565b005b3480156104c957600080fd5b50610524600480360381019080803590602001908201803590602001908080601f0160208091040260200160405190810160405280939291908181526020018383808284378201915050505050509192919290505050610bc7565b604051808060200187815260200186815260200185151515158152602001848152602001838152602001828103825288818151815260200191508051906020019080838360005b8381101561058657808201518184015260208101905061056b565b50505050905090810190601f1680156105b35780820380516001836020036101000a031916815260200191505b5097505050505050505060405180910390f35b3480156105d257600080fd5b506105db610ecf565b604051808273ffffffffffffffffffffffffffffffffffffffff1673ffffffffffffffffffffffffffffffffffffffff16815260200191505060405180910390f35b60008034915061062d8383610ef4565b61063682610f36565b905061064d82600354610f5490919063ffffffff16565b60038190555061065d8382610f70565b8273ffffffffffffffffffffffffffffffffffffffff163373ffffffffffffffffffffffffffffffffffffffff167f623b3804fa71d67900d064613da8f94b9617215ee90799290593e1745087ad188484604051808381526020018281526020019250505060405180910390a36106d48383610f7e565b6106dc610b50565b6106e68383610f82565b505050565b60006005544211905090565b600660009054906101000a900473ffffffffffffffffffffffffffffffffffffffff1681565b60075481565b60025481565b60035481565b600160009054906101000a900473ffffffffffffffffffffffffffffffffffffffff1681565b600160009054906101000a900473ffffffffffffffffffffffffffffffffffffffff1673ffffffffffffffffffffffffffffffffffffffff166108fc60019081150290604051600060405180830381858888f193505050501580156107be573d6000803e3d6000fd5b50565b6107c96114d5565b6107d284610f86565b6107e784600754610f5490919063ffffffff16565b6007819055506107f7605a6110a3565b6101206040519081016040528087815260200163013d23804201815260200185815260200186815260200184815260200183815260200160008152602001600015158152602001600015158152509050806008876040518082805190602001908083835b602083101515610880578051825260208201915060208101905060208303925061085b565b6001836020036101000a038019825116818451168082178552505050505050905001915050908152602001604051809103902060008201518160000190805190602001906108cf929190611526565b50602082015181600101556040820151816002015560608201518160030155608082015181600401908051906020019061090a929190611526565b5060a0820151816005019080519060200190610927929190611526565b5060c0820151816006015560e08201518160070160006101000a81548160ff0219169083151502179055506101008201518160070160016101000a81548160ff0219169083151502179055509050507f5c483cef42dc819af5a97db071c1a233161605e876a45a0991b781f18d47e4ae8685878686600080600060405180806020018981526020018881526020018060200180602001878152602001861515151581526020018515151515815260200184810384528c818151815260200191508051906020019080838360005b83811015610a0f5780820151818401526020810190506109f4565b50505050905090810190601f168015610a3c5780820380516001836020036101000a031916815260200191505b50848103835289818151815260200191508051906020019080838360005b83811015610a75578082015181840152602081019050610a5a565b50505050905090810190601f168015610aa25780820380516001836020036101000a031916815260200191505b50848103825288818151815260200191508051906020019080838360005b83811015610adb578082015181840152602081019050610ac0565b50505050905090810190601f168015610b085780820380516001836020036101000a031916815260200191505b509b50505050505050505050505060405180910390a1505050505050565b610b2f3361061d565b610b3881610b3b565b50565b610b448161110a565b610b4d81611201565b50565b600160009054906101000a900473ffffffffffffffffffffffffffffffffffffffff1673ffffffffffffffffffffffffffffffffffffffff166108fc349081150290604051600060405180830381858888f19350505050158015610bb8573d6000803e3d6000fd5b50565b60045481565b60055481565b60606000806000806000610bd96114d5565b6008886040518082805190602001908083835b602083101515610c115780518252602082019150602081019050602083039250610bec565b6001836020036101000a03801982511681845116808217855250505050505090500191505090815260200160405180910390206101206040519081016040529081600082018054600181600116156101000203166002900480601f016020809104026020016040519081016040528092919081815260200182805460018160011615610100020316600290048015610cea5780601f10610cbf57610100808354040283529160200191610cea565b820191906000526020600020905b815481529060010190602001808311610ccd57829003601f168201915b50505050508152602001600182015481526020016002820154815260200160038201548152602001600482018054600181600116156101000203166002900480601f016020809104026020016040519081016040528092919081815260200182805460018160011615610100020316600290048015610daa5780601f10610d7f57610100808354040283529160200191610daa565b820191906000526020600020905b815481529060010190602001808311610d8d57829003601f168201915b50505050508152602001600582018054600181600116156101000203166002900480601f016020809104026020016040519081016040528092919081815260200182805460018160011615610100020316600290048015610e4c5780601f10610e2157610100808354040283529160200191610e4c565b820191906000526020600020905b815481529060010190602001808311610e2f57829003601f168201915b50505050508152602001600682015481526020016007820160009054906101000a900460ff161515151581526020016007820160019054906101000a900460ff16151515158152505090508060000151816040015182606001518361010001518460c0015185602001518595509650965096509650965096505091939550919395565b6000809054906101000a900473ffffffffffffffffffffffffffffffffffffffff1681565b6000806000429250600454915060055490506004544210158015610f1a57506005544211155b1515610f2557600080fd5b610f2f85856112f9565b5050505050565b6000610f4d6002548361134990919063ffffffff16565b9050919050565b60008183019050828110151515610f6757fe5b80905092915050565b610f7a8282611381565b5050565b5050565b5050565b6000610f9d600254836113d190919063ffffffff16565b90506000809054906101000a900473ffffffffffffffffffffffffffffffffffffffff1673ffffffffffffffffffffffffffffffffffffffff166340c10f1930836040518363ffffffff167c0100000000000000000000000000000000000000000000000000000000028152600401808373ffffffffffffffffffffffffffffffffffffffff1673ffffffffffffffffffffffffffffffffffffffff16815260200182815260200192505050602060405180830381600087803b15801561106357600080fd5b505af1158015611077573d6000803e3d6000fd5b505050506040513d602081101561108d57600080fd5b8101908080519060200190929190505050505050565b60008060004292506004549150600554905060045442101580156110c957506005544211155b15156110d457600080fd5b6110fe6110ed621a5e008661134990919063ffffffff16565b600554610f5490919063ffffffff16565b60058190555050505050565b61118c60016008836040518082805190602001908083835b6020831015156111475780518252602082019150602081019050602083039250611122565b6001836020036101000a038019825116818451168082178552505050505050905001915050908152602001604051809103902060060154610f5490919063ffffffff16565b6008826040518082805190602001908083835b6020831015156111c4578051825260208201915060208101905060208303925061119f565b6001836020036101000a03801982511681845116808217855250505050505090500191505090815260200160405180910390206006018190555050565b61128461a8c06008836040518082805190602001908083835b60208310151561123f578051825260208201915060208101905060208303925061121a565b6001836020036101000a038019825116818451168082178552505050505050905001915050908152602001604051809103902060010154610f5490919063ffffffff16565b6008826040518082805190602001908083835b6020831015156112bc5780518252602082019150602081019050602083039250611297565b6001836020036101000a03801982511681845116808217855250505050505090500191505090815260200160405180910390206001018190555050565b600073ffffffffffffffffffffffffffffffffffffffff168273ffffffffffffffffffffffffffffffffffffffff161415151561133557600080fd5b6000811415151561134557600080fd5b5050565b60008083141561135c576000905061137b565b818302905081838281151561136d57fe5b0414151561137757fe5b8090505b92915050565b6113cd82826000809054906101000a900473ffffffffffffffffffffffffffffffffffffffff1673ffffffffffffffffffffffffffffffffffffffff166113e79092919063ffffffff16565b5050565b600081838115156113de57fe5b04905092915050565b8273ffffffffffffffffffffffffffffffffffffffff1663a9059cbb83836040518363ffffffff167c0100000000000000000000000000000000000000000000000000000000028152600401808373ffffffffffffffffffffffffffffffffffffffff1673ffffffffffffffffffffffffffffffffffffffff16815260200182815260200192505050602060405180830381600087803b15801561148a57600080fd5b505af115801561149e573d6000803e3d6000fd5b505050506040513d60208110156114b457600080fd5b810190808051906020019092919050505015156114d057600080fd5b505050565b61012060405190810160405280606081526020016000815260200160008152602001600081526020016060815260200160608152602001600081526020016000151581526020016000151581525090565b828054600181600116156101000203166002900490600052602060002090601f016020900481019282601f1061156757805160ff1916838001178555611595565b82800160010185558215611595579182015b82811115611594578251825591602001919060010190611579565b5b5090506115a291906115a6565b5090565b6115c891905b808211156115c45760008160009055506001016115ac565b5090565b905600a165627a7a723058208d199fbdd72192f98799c915077ef247f215d083f89133966768ba06939d36440029",
  "source": "pragma solidity 0.4.24;\n\nimport '../token/GNIToken.sol';\nimport './TimedCrowdsale.sol';\nimport '../utility/SafeMath.sol';\n\ncontract GNITokenCrowdsale is TimedCrowdsale {\n    using SafeMath for uint256;\n    address public developerWallet;\n    uint256 public totalValuation;\n\n    constructor\n        (\n          uint256 _openingTime,\n          uint256 _doomsDay,\n          uint256 _rate,\n          address _wallet,\n          MintableToken _token\n        )\n        public\n        Crowdsale(_rate, _wallet, _token)\n        TimedCrowdsale(_openingTime, _doomsDay) {\n            totalValuation = 0;\n        }\n\n        struct Project {\n            string name;\n            uint256 closingTime;\n            uint256 valuation;\n            uint256 capitalRequired;\n            string lat;\n            string lng;\n            uint256 voteCount;\n            bool capitalReached;\n            bool active;\n        }\n\n        event LogProject (\n            string name,\n            uint256 valuation,\n            uint256 capitalRequired,\n            string lat,\n            string lng,\n            uint256 voteCount,\n            bool capitalReached,\n            bool active\n        );\n\n\n        mapping(string => Project) private projects;\n\n\n         function getProjectInfo(string _name) public view returns(\n             string, uint256, uint256, bool, uint256, uint256\n\n         ) {\n             Project memory project = projects[_name];\n             return (\n                 project.name,\n                 project.valuation,\n                 project.capitalRequired,\n                 project.active,\n                 project.voteCount,\n                 project.closingTime\n             );\n         }\n\n         //change _valuation to projectvaluation\n         function pitchProject(string _name, uint capitalRequired, uint _valuation, string _lat, string _lng) public payable {\n            issueTokensBasedOnPrice(_valuation);\n\n             totalValuation = totalValuation.add(_valuation);\n\n             // Increase crowdsale duation by 90 days\n             _extendDoomsDay(90);\n\n             // Create project information\n             Project memory newProject = Project({\n                 name: _name,\n                 closingTime: now + 86600 * 240,\n                 valuation: _valuation,\n                 capitalRequired: capitalRequired,\n                 lat: _lat,\n                 lng: _lng,\n                 capitalReached: false,\n                 active: false,\n                 voteCount: 0\n             });\n\n             // Save project information\n             projects[_name] = newProject;\n\n\n\n             // log the creation of the new project\n             emit LogProject(_name, _valuation, capitalRequired, _lat, _lng, 0, false, false);\n         }\n\n         function issueTokensBasedOnPrice(uint256 valuation) private {\n           uint tokensToIssue = valuation.div(rate);\n\n           //tokens go to the this contract\n           //we need to do this because transfer expects to take tokens from msg.sender, which is this contract\n           GNIToken(token).mint(this, tokensToIssue);\n         }\n\n         //sender is always the beneficiary\n         //sender becomes this contract in BasicToken\n         //funds from msg.value are allocated to this contract since this function is a payable.\n         //later, we can assign funds to the wallet (which is the developer wallet). No second wallet is needed because the contract serves as an escrow wallet.\n         function buyTokensAndVote (string _projectName) public payable {\n           buyTokens(msg.sender);\n           updateProjectVotedFor(_projectName);\n         }\n\n         function collectFunds () public {\n           wallet.transfer(1);\n         }\n\n         function updateProjectVotedFor(string _projectName) {\n           updateVoteCount(_projectName);\n           extendProjectClosingTime(_projectName);\n         }\n\n         /* Project storage _projectVotedFor = projects[_projectName]; */\n\n         function updateVoteCount(string _projectName) internal {\n             projects[_projectName].voteCount = projects[_projectName].voteCount.add(1);\n         }\n\n        function extendProjectClosingTime(string _projectName) internal {\n          projects[_projectName].closingTime = projects[_projectName].closingTime.add(43200);\n        }\n\n        function _extendDoomsDay(uint256 _days) internal onlyWhileOpen {\n            doomsDay = doomsDay.add(_days.mul(1728000));\n        }\n\n}\n",
  "sourcePath": "/Users/steven/genie-portal/truffle/contracts/crowdsale/GNITokenCrowdsale.sol",
  "compiler": {
    "name": "solc",
    "version": "0.4.24+commit.e67f0147.Emscripten.clang"
  },
  "schemaVersion": "2.0.1",
  "updatedAt": "2018-10-04T21:14:35.887Z"
}