{
  "contractName": "GNITokenCrowdsale",
  "abi": [
    {
      "constant": true,
      "inputs": [
        {
          "name": "",
          "type": "uint256"
        }
      ],
      "name": "projects",
      "outputs": [
        {
          "name": "name",
          "type": "string"
        },
        {
          "name": "closingTime",
          "type": "uint256"
        },
        {
          "name": "valuation",
          "type": "uint256"
        },
        {
          "name": "capitalRequired",
          "type": "uint256"
        },
        {
          "name": "tokensIssued",
          "type": "uint256"
        },
        {
          "name": "lat",
          "type": "string"
        },
        {
          "name": "lng",
          "type": "string"
        },
        {
          "name": "voteCount",
          "type": "uint256"
        },
        {
          "name": "capitalReached",
          "type": "bool"
        },
        {
          "name": "active",
          "type": "bool"
        }
      ],
      "payable": false,
      "stateMutability": "view",
      "type": "function"
    },
    {
      "constant": true,
      "inputs": [],
      "name": "hasClosed",
      "outputs": [
        {
          "name": "",
          "type": "bool"
        }
      ],
      "payable": false,
      "stateMutability": "view",
      "type": "function"
    },
    {
      "constant": true,
      "inputs": [],
      "name": "totalValuation",
      "outputs": [
        {
          "name": "",
          "type": "uint256"
        }
      ],
      "payable": false,
      "stateMutability": "view",
      "type": "function"
    },
    {
      "constant": true,
      "inputs": [],
      "name": "rate",
      "outputs": [
        {
          "name": "",
          "type": "uint256"
        }
      ],
      "payable": false,
      "stateMutability": "view",
      "type": "function"
    },
    {
      "constant": true,
      "inputs": [],
      "name": "weiRaised",
      "outputs": [
        {
          "name": "",
          "type": "uint256"
        }
      ],
      "payable": false,
      "stateMutability": "view",
      "type": "function"
    },
    {
      "constant": true,
      "inputs": [],
      "name": "wallet",
      "outputs": [
        {
          "name": "",
          "type": "address"
        }
      ],
      "payable": false,
      "stateMutability": "view",
      "type": "function"
    },
    {
      "constant": true,
      "inputs": [],
      "name": "openingTime",
      "outputs": [
        {
          "name": "",
          "type": "uint256"
        }
      ],
      "payable": false,
      "stateMutability": "view",
      "type": "function"
    },
    {
      "constant": true,
      "inputs": [],
      "name": "doomsDay",
      "outputs": [
        {
          "name": "",
          "type": "uint256"
        }
      ],
      "payable": false,
      "stateMutability": "view",
      "type": "function"
    },
    {
      "constant": false,
      "inputs": [
        {
          "name": "_beneficiary",
          "type": "address"
        }
      ],
      "name": "buyTokens",
      "outputs": [],
      "payable": true,
      "stateMutability": "payable",
      "type": "function"
    },
    {
      "constant": true,
      "inputs": [],
      "name": "token",
      "outputs": [
        {
          "name": "",
          "type": "address"
        }
      ],
      "payable": false,
      "stateMutability": "view",
      "type": "function"
    },
    {
      "inputs": [
        {
          "name": "_openingTime",
          "type": "uint256"
        },
        {
          "name": "_doomsDay",
          "type": "uint256"
        },
        {
          "name": "_rate",
          "type": "uint256"
        },
        {
          "name": "_wallet",
          "type": "address"
        },
        {
          "name": "_token",
          "type": "address"
        }
      ],
      "payable": false,
      "stateMutability": "nonpayable",
      "type": "constructor"
    },
    {
      "payable": true,
      "stateMutability": "payable",
      "type": "fallback"
    },
    {
      "anonymous": false,
      "inputs": [
        {
          "indexed": false,
          "name": "id",
          "type": "uint256"
        },
        {
          "indexed": false,
          "name": "name",
          "type": "string"
        },
        {
          "indexed": false,
          "name": "valuation",
          "type": "uint256"
        },
        {
          "indexed": false,
          "name": "capitalRequired",
          "type": "uint256"
        },
        {
          "indexed": false,
          "name": "tokensIssued",
          "type": "uint256"
        },
        {
          "indexed": false,
          "name": "lat",
          "type": "string"
        },
        {
          "indexed": false,
          "name": "lng",
          "type": "string"
        },
        {
          "indexed": false,
          "name": "voteCount",
          "type": "uint256"
        },
        {
          "indexed": false,
          "name": "capitalReached",
          "type": "bool"
        },
        {
          "indexed": false,
          "name": "active",
          "type": "bool"
        }
      ],
      "name": "LogProject",
      "type": "event"
    },
    {
      "anonymous": false,
      "inputs": [
        {
          "indexed": true,
          "name": "purchaser",
          "type": "address"
        },
        {
          "indexed": true,
          "name": "beneficiary",
          "type": "address"
        },
        {
          "indexed": false,
          "name": "value",
          "type": "uint256"
        },
        {
          "indexed": false,
          "name": "amount",
          "type": "uint256"
        }
      ],
      "name": "TokenPurchase",
      "type": "event"
    },
    {
      "constant": true,
      "inputs": [
        {
          "name": "id",
          "type": "uint256"
        }
      ],
      "name": "getProjectInfo",
      "outputs": [
        {
          "name": "",
          "type": "string"
        },
        {
          "name": "",
          "type": "uint256"
        },
        {
          "name": "",
          "type": "uint256"
        },
        {
          "name": "",
          "type": "uint256"
        },
        {
          "name": "",
          "type": "bool"
        },
        {
          "name": "",
          "type": "uint256"
        },
        {
          "name": "",
          "type": "uint256"
        }
      ],
      "payable": false,
      "stateMutability": "view",
      "type": "function"
    },
    {
      "constant": false,
      "inputs": [
        {
          "name": "_name",
          "type": "string"
        },
        {
          "name": "capitalRequired",
          "type": "uint256"
        },
        {
          "name": "_valuation",
          "type": "uint256"
        },
        {
          "name": "_lat",
          "type": "string"
        },
        {
          "name": "_lng",
          "type": "string"
        }
      ],
      "name": "pitchProject",
      "outputs": [],
      "payable": true,
      "stateMutability": "payable",
      "type": "function"
    },
    {
      "constant": false,
      "inputs": [
        {
          "name": "_projectId",
          "type": "uint256"
        }
      ],
      "name": "handleTokenPurchase",
      "outputs": [],
      "payable": true,
      "stateMutability": "payable",
      "type": "function"
    },
    {
      "constant": false,
      "inputs": [
        {
          "name": "_projectId",
          "type": "uint256"
        }
      ],
      "name": "updateProjectVotedFor",
      "outputs": [],
      "payable": false,
      "stateMutability": "nonpayable",
      "type": "function"
    },
    {
      "constant": true,
      "inputs": [],
      "name": "projectToActivateDetails",
      "outputs": [
        {
          "name": "",
          "type": "uint256"
        },
        {
          "name": "",
          "type": "bool"
        }
      ],
      "payable": false,
      "stateMutability": "view",
      "type": "function"
    },
    {
      "constant": false,
      "inputs": [],
      "name": "activateProject",
      "outputs": [],
      "payable": false,
      "stateMutability": "nonpayable",
      "type": "function"
    }
  ],
  "bytecode": "0x608060405234801561001057600080fd5b5060405160a080611d9c8339810180604052810190808051906020019092919080519060200190929190805190602001909291908051906020019092919080519060200190929190505050848484848460008311151561006f57600080fd5b600073ffffffffffffffffffffffffffffffffffffffff168273ffffffffffffffffffffffffffffffffffffffff16141515156100ab57600080fd5b600073ffffffffffffffffffffffffffffffffffffffff168173ffffffffffffffffffffffffffffffffffffffff16141515156100e757600080fd5b8260028190555081600160006101000a81548173ffffffffffffffffffffffffffffffffffffffff021916908373ffffffffffffffffffffffffffffffffffffffff160217905550806000806101000a81548173ffffffffffffffffffffffffffffffffffffffff021916908373ffffffffffffffffffffffffffffffffffffffff16021790555050505042821015151561018157600080fd5b81811015151561019057600080fd5b8160048190555080600581905550505060006006819055505050505050611be0806101bc6000396000f3006080604052600436106100e6576000357c0100000000000000000000000000000000000000000000000000000000900463ffffffff168063107046bd146100f15780631515bc2b146102a8578063295b9300146102d75780632c4e722e146103025780633cb78fe01461032d5780634042b66f14610344578063521eb2731461036f57806365af1672146103c65780636634c99f146104c25780638f6cdd6f146104ef578063a13d77f11461050f578063b7a8807c14610545578063c19b7bc014610570578063ec8ac4d81461059b578063fabf5968146105d1578063fc0c546a146106a5575b6100ef336106fc565b005b3480156100fd57600080fd5b5061011c600480360381019080803590602001909291905050506107c2565b60405180806020018b81526020018a81526020018981526020018881526020018060200180602001878152602001861515151581526020018515151515815260200184810384528e818151815260200191508051906020019080838360005b8381101561019657808201518184015260208101905061017b565b50505050905090810190601f1680156101c35780820380516001836020036101000a031916815260200191505b50848103835289818151815260200191508051906020019080838360005b838110156101fc5780820151818401526020810190506101e1565b50505050905090810190601f1680156102295780820380516001836020036101000a031916815260200191505b50848103825288818151815260200191508051906020019080838360005b83811015610262578082015181840152602081019050610247565b50505050905090810190601f16801561028f5780820380516001836020036101000a031916815260200191505b509d505050505050505050505050505060405180910390f35b3480156102b457600080fd5b506102bd610a07565b604051808215151515815260200191505060405180910390f35b3480156102e357600080fd5b506102ec610a13565b6040518082815260200191505060405180910390f35b34801561030e57600080fd5b50610317610a19565b6040518082815260200191505060405180910390f35b34801561033957600080fd5b50610342610a1f565b005b34801561035057600080fd5b50610359610d77565b6040518082815260200191505060405180910390f35b34801561037b57600080fd5b50610384610d7d565b604051808273ffffffffffffffffffffffffffffffffffffffff1673ffffffffffffffffffffffffffffffffffffffff16815260200191505060405180910390f35b6104c0600480360381019080803590602001908201803590602001908080601f01602080910402602001604051908101604052809392919081815260200183838082843782019150505050505091929192908035906020019092919080359060200190929190803590602001908201803590602001908080601f0160208091040260200160405190810160405280939291908181526020018383808284378201915050505050509192919290803590602001908201803590602001908080601f0160208091040260200160405190810160405280939291908181526020018383808284378201915050505050509192919290505050610da3565b005b3480156104ce57600080fd5b506104ed600480360381019080803590602001909291905050506111f6565b005b61050d6004803603810190808035906020019092919050505061120b565b005b34801561051b57600080fd5b50610524611220565b60405180838152602001821515151581526020019250505060405180910390f35b34801561055157600080fd5b5061055a6113a7565b6040518082815260200191505060405180910390f35b34801561057c57600080fd5b506105856113ad565b6040518082815260200191505060405180910390f35b6105cf600480360381019080803573ffffffffffffffffffffffffffffffffffffffff1690602001909291905050506106fc565b005b3480156105dd57600080fd5b506105fc600480360381019080803590602001909291905050506113b3565b604051808060200188815260200187815260200186815260200185151515158152602001848152602001838152602001828103825289818151815260200191508051906020019080838360005b83811015610664578082015181840152602081019050610649565b50505050905090810190601f1680156106915780820380516001836020036101000a031916815260200191505b509850505050505050505060405180910390f35b3480156106b157600080fd5b506106ba611681565b604051808273ffffffffffffffffffffffffffffffffffffffff1673ffffffffffffffffffffffffffffffffffffffff16815260200191505060405180910390f35b60008034915061070c83836116a6565b610715826116e8565b905061072c8260035461170690919063ffffffff16565b60038190555061073c8382611722565b8273ffffffffffffffffffffffffffffffffffffffff163373ffffffffffffffffffffffffffffffffffffffff167f623b3804fa71d67900d064613da8f94b9617215ee90799290593e1745087ad188484604051808381526020018281526020019250505060405180910390a36107b38383611730565b6107bd8383611734565b505050565b6007818154811015156107d157fe5b9060005260206000209060090201600091509050806000018054600181600116156101000203166002900480601f01602080910402602001604051908101604052809291908181526020018280546001816001161561010002031660029004801561087d5780601f106108525761010080835404028352916020019161087d565b820191906000526020600020905b81548152906001019060200180831161086057829003601f168201915b505050505090806001015490806002015490806003015490806004015490806005018054600181600116156101000203166002900480601f0160208091040260200160405190810160405280929190818152602001828054600181600116156101000203166002900480156109335780601f1061090857610100808354040283529160200191610933565b820191906000526020600020905b81548152906001019060200180831161091657829003601f168201915b505050505090806006018054600181600116156101000203166002900480601f0160208091040260200160405190810160405280929190818152602001828054600181600116156101000203166002900480156109d15780601f106109a6576101008083540402835291602001916109d1565b820191906000526020600020905b8154815290600101906020018083116109b457829003601f168201915b5050505050908060070154908060080160009054906101000a900460ff16908060080160019054906101000a900460ff1690508a565b60006005544211905090565b60065481565b60025481565b6000806000610a2c611220565b925092508115610d7257600783815481101515610a4557fe5b906000526020600020906009020190506000809054906101000a900473ffffffffffffffffffffffffffffffffffffffff1673ffffffffffffffffffffffffffffffffffffffff166329c8d3ce82600401546040518263ffffffff167c010000000000000000000000000000000000000000000000000000000002815260040180828152602001915050600060405180830381600087803b158015610ae957600080fd5b505af1158015610afd573d6000803e3d6000fd5b50505050610b0e8160030154611738565b610b2781600301546003546117a490919063ffffffff16565b60038190555060018160080160016101000a81548160ff0219169083151502179055507f807f78e4e51c332557394f4b41e424932cdc7fc07efff414ebe3cce9d0f5e1be838260000183600201548460030154856004015486600501876006018860070154600180604051808b8152602001806020018a81526020018981526020018881526020018060200180602001878152602001861515151581526020018515151515815260200184810384528d818154600181600116156101000203166002900481526020019150805460018160011615610100020316600290048015610c525780601f10610c2757610100808354040283529160200191610c52565b820191906000526020600020905b815481529060010190602001808311610c3557829003601f168201915b5050848103835289818154600181600116156101000203166002900481526020019150805460018160011615610100020316600290048015610cd55780601f10610caa57610100808354040283529160200191610cd5565b820191906000526020600020905b815481529060010190602001808311610cb857829003601f168201915b5050848103825288818154600181600116156101000203166002900481526020019150805460018160011615610100020316600290048015610d585780601f10610d2d57610100808354040283529160200191610d58565b820191906000526020600020905b815481529060010190602001808311610d3b57829003601f168201915b50509d505050505050505050505050505060405180910390a15b505050565b60035481565b600160009054906101000a900473ffffffffffffffffffffffffffffffffffffffff1681565b600080610dbb600254866117bd90919063ffffffff16565b91506000809054906101000a900473ffffffffffffffffffffffffffffffffffffffff1673ffffffffffffffffffffffffffffffffffffffff166340c10f1930846040518363ffffffff167c0100000000000000000000000000000000000000000000000000000000028152600401808373ffffffffffffffffffffffffffffffffffffffff1673ffffffffffffffffffffffffffffffffffffffff16815260200182815260200192505050602060405180830381600087803b158015610e8157600080fd5b505af1158015610e95573d6000803e3d6000fd5b505050506040513d6020811015610eab57600080fd5b810190808051906020019092919050505050610ed28560065461170690919063ffffffff16565b600681905550610ee2605a6117d3565b60016007610140604051908101604052808a815260200163013d2380420181526020018881526020018981526020018581526020018781526020018681526020016000815260200160001515815260200160001515815250908060018154018082558091505090600182039060005260206000209060090201600090919290919091506000820151816000019080519060200190610f81929190611ab7565b506020820151816001015560408201518160020155606082015181600301556080820151816004015560a0820151816005019080519060200190610fc6929190611ab7565b5060c0820151816006019080519060200190610fe3929190611ab7565b5060e082015181600701556101008201518160080160006101000a81548160ff0219169083151502179055506101208201518160080160016101000a81548160ff02191690831515021790555050500390507f807f78e4e51c332557394f4b41e424932cdc7fc07efff414ebe3cce9d0f5e1be818887898689896000806000604051808b8152602001806020018a81526020018981526020018881526020018060200180602001878152602001861515151581526020018515151515815260200184810384528d818151815260200191508051906020019080838360005b838110156110dc5780820151818401526020810190506110c1565b50505050905090810190601f1680156111095780820380516001836020036101000a031916815260200191505b50848103835289818151815260200191508051906020019080838360005b83811015611142578082015181840152602081019050611127565b50505050905090810190601f16801561116f5780820380516001836020036101000a031916815260200191505b50848103825288818151815260200191508051906020019080838360005b838110156111a857808201518184015260208101905061118d565b50505050905090810190601f1680156111d55780820380516001836020036101000a031916815260200191505b509d505050505050505050505050505060405180910390a150505050505050565b6111ff8161183a565b61120881611895565b50565b611214336106fc565b61121d816111f6565b50565b6000806000806000809150600090505b60078054905081101561136c5760078181548110151561124c57fe5b906000526020600020906009020160080160019054906101000a900460ff161580156112985750600060078281548110151561128457fe5b906000526020600020906009020160070154115b80156112c35750426007828154811015156112af57fe5b906000526020600020906009020160010154115b801561134457506007838154811015156112d957fe5b9060005260206000209060090201600701546007828154811015156112fa57fe5b906000526020600020906009020160070154101580611343575060078381548110151561132357fe5b906000526020600020906009020160080160019054906101000a900460ff165b5b1561135157809250600191505b61136560018261170690919063ffffffff16565b9050611230565b8282801561139c575060035460078581548110151561138757fe5b90600052602060002090600902016003015411155b945094505050509091565b60045481565b60055481565b60606000806000806000806113c6611b37565b6007898154811015156113d557fe5b90600052602060002090600902016101406040519081016040529081600082018054600181600116156101000203166002900480601f0160208091040260200160405190810160405280929190818152602001828054600181600116156101000203166002900480156114895780601f1061145e57610100808354040283529160200191611489565b820191906000526020600020905b81548152906001019060200180831161146c57829003601f168201915b5050505050815260200160018201548152602001600282015481526020016003820154815260200160048201548152602001600582018054600181600116156101000203166002900480601f0160208091040260200160405190810160405280929190818152602001828054600181600116156101000203166002900480156115535780601f1061152857610100808354040283529160200191611553565b820191906000526020600020905b81548152906001019060200180831161153657829003601f168201915b50505050508152602001600682018054600181600116156101000203166002900480601f0160208091040260200160405190810160405280929190818152602001828054600181600116156101000203166002900480156115f55780601f106115ca576101008083540402835291602001916115f5565b820191906000526020600020905b8154815290600101906020018083116115d857829003601f168201915b50505050508152602001600782015481526020016008820160009054906101000a900460ff161515151581526020016008820160019054906101000a900460ff161515151581525050905080600001518160400151826060015183608001518461012001518560e001518660200151869650975097509750975097509750975050919395979092949650565b6000809054906101000a900473ffffffffffffffffffffffffffffffffffffffff1681565b60008060004292506004549150600554905060045442101580156116cc57506005544211155b15156116d757600080fd5b6116e185856118f1565b5050505050565b60006116ff6002548361194190919063ffffffff16565b9050919050565b6000818301905082811015151561171957fe5b80905092915050565b61172c8282611979565b5050565b5050565b5050565b600160009054906101000a900473ffffffffffffffffffffffffffffffffffffffff1673ffffffffffffffffffffffffffffffffffffffff166108fc829081150290604051600060405180830381858888f193505050501580156117a0573d6000803e3d6000fd5b5050565b60008282111515156117b257fe5b818303905092915050565b600081838115156117ca57fe5b04905092915050565b60008060004292506004549150600554905060045442101580156117f957506005544211155b151561180457600080fd5b61182e61181d621a5e008661194190919063ffffffff16565b60055461170690919063ffffffff16565b60058190555050505050565b61186e600160078381548110151561184e57fe5b90600052602060002090600902016007015461170690919063ffffffff16565b60078281548110151561187d57fe5b90600052602060002090600902016007018190555050565b6118ca61a8c06007838154811015156118aa57fe5b90600052602060002090600902016001015461170690919063ffffffff16565b6007828154811015156118d957fe5b90600052602060002090600902016001018190555050565b600073ffffffffffffffffffffffffffffffffffffffff168273ffffffffffffffffffffffffffffffffffffffff161415151561192d57600080fd5b6000811415151561193d57600080fd5b5050565b6000808314156119545760009050611973565b818302905081838281151561196557fe5b0414151561196f57fe5b8090505b92915050565b6119c582826000809054906101000a900473ffffffffffffffffffffffffffffffffffffffff1673ffffffffffffffffffffffffffffffffffffffff166119c99092919063ffffffff16565b5050565b8273ffffffffffffffffffffffffffffffffffffffff1663a9059cbb83836040518363ffffffff167c0100000000000000000000000000000000000000000000000000000000028152600401808373ffffffffffffffffffffffffffffffffffffffff1673ffffffffffffffffffffffffffffffffffffffff16815260200182815260200192505050602060405180830381600087803b158015611a6c57600080fd5b505af1158015611a80573d6000803e3d6000fd5b505050506040513d6020811015611a9657600080fd5b81019080805190602001909291905050501515611ab257600080fd5b505050565b828054600181600116156101000203166002900490600052602060002090601f016020900481019282601f10611af857805160ff1916838001178555611b26565b82800160010185558215611b26579182015b82811115611b25578251825591602001919060010190611b0a565b5b509050611b339190611b8f565b5090565b6101406040519081016040528060608152602001600081526020016000815260200160008152602001600081526020016060815260200160608152602001600081526020016000151581526020016000151581525090565b611bb191905b80821115611bad576000816000905550600101611b95565b5090565b905600a165627a7a723058207dd912450a87fcba132429482b5e7e895948858dc3aed16c8ec776df75f945700029",
  "source": "pragma solidity 0.4.24;\n\nimport '../token/GNIToken.sol';\nimport './TimedCrowdsale.sol';\nimport '../utility/SafeMath.sol';\n\ncontract GNITokenCrowdsale is TimedCrowdsale {\n    using SafeMath for uint256;\n    uint256 public totalValuation;\n\n    constructor\n        (\n          uint256 _openingTime,\n          uint256 _doomsDay,\n          uint256 _rate,\n          address _wallet,\n          MintableToken _token\n        )\n        public\n        Crowdsale(_rate, _wallet, _token)\n        TimedCrowdsale(_openingTime, _doomsDay) {\n            totalValuation = 0;\n        }\n\n        struct Project {\n            string name;\n            uint256 closingTime;\n            uint256 valuation;\n            uint256 capitalRequired;\n            uint256 tokensIssued;\n            string lat;\n            string lng;\n            uint256 voteCount;\n            bool capitalReached;\n            bool active;\n        }\n\n        event LogProject (\n            uint id,\n            string name,\n            uint256 valuation,\n            uint256 capitalRequired,\n            uint256 tokensIssued,\n            string lat,\n            string lng,\n            uint256 voteCount,\n            bool capitalReached,\n            bool active\n        );\n\n\n        /* mapping(string => Project) private projects; */\n        Project[] public projects;\n\n\n         function getProjectInfo(uint id) public view returns(\n             string, uint256, uint256, uint256, bool, uint256, uint256\n\n         ) {\n             Project memory project = projects[id];\n             return (\n                 project.name,\n                 project.valuation,\n                 project.capitalRequired,\n                 project.tokensIssued,\n                 project.active,\n                 project.voteCount,\n                 project.closingTime\n             );\n         }\n\n         //change _valuation to projectvaluation\n         function pitchProject(string _name, uint capitalRequired, uint256 _valuation, string _lat, string _lng) public payable {\n           uint256 tokensToIssue = _valuation.div(rate);\n\n           //tokens go to the this contract\n           //we need to do this because transfer expects to take tokens from msg.sender, which is this contract\n           GNIToken(token).mint(this, tokensToIssue);\n\n             totalValuation = totalValuation.add(_valuation);\n\n             // Increase crowdsale duation by 90 days\n             _extendDoomsDay(90);\n\n             // Create project information\n             /* Project memory newProject = Project({\n                 name: _name,\n                 closingTime: now + 86600 * 240,\n                 valuation: _valuation,\n                 capitalRequired: capitalRequired,\n                 lat: _lat,\n                 lng: _lng,\n                 capitalReached: false,\n                 active: false,\n                 voteCount: 0\n             }); */\n\n             // Save project information\n             /* projects[_name] = newProject; */\n\n             uint id = projects.push(Project(_name, now + 86600 * 240, _valuation, capitalRequired, tokensToIssue, _lat,_lng, 0, false, false)) - 1;\n\n             // log the creation of the new project\n             emit LogProject(id, _name, _valuation, capitalRequired, tokensToIssue, _lat, _lng, 0, false, false);\n         }\n\n         /* function issueTokensBasedOnPrice(uint256 valuation) private {\n           uint256 tokensToIssue = valuation.div(rate);\n\n           //tokens go to the this contract\n           //we need to do this because transfer expects to take tokens from msg.sender, which is this contract\n           GNIToken(token).mint(this, tokensToIssue);\n         } */\n\n         //sender is always the beneficiary\n         //sender becomes this contract in BasicToken\n         //funds from msg.value are allocated to this contract since this function is a payable.\n         //later, we can assign funds to the wallet (which is the developer wallet). No second wallet is needed because the contract serves as an escrow wallet.\n         function handleTokenPurchase (uint256 _projectId) public payable {\n           //add require statement that makes sure the projet isnt already active\n           buyTokens(msg.sender);\n           updateProjectVotedFor(_projectId);\n         }\n\n         function forwardFundsToDeveloper (uint256 amount) internal {\n           wallet.transfer(amount);\n         }\n\n         function updateProjectVotedFor(uint256 _projectId) {\n           updateVoteCount(_projectId);\n           extendProjectClosingTime(_projectId);\n         }\n\n         /* Project storage _projectVotedFor = projects[_projectId]; */\n\n        function updateVoteCount(uint256 _projectId) internal {\n          projects[_projectId].voteCount = projects[_projectId].voteCount.add(1);\n        }\n\n        function extendProjectClosingTime(uint256 _projectId) internal {\n          projects[_projectId].closingTime = projects[_projectId].closingTime.add(43200);\n        }\n\n        function _extendDoomsDay(uint256 _days) internal onlyWhileOpen {\n          doomsDay = doomsDay.add(_days.mul(1728000));\n        }\n\n\n\n    function projectToActivateDetails() public view returns (uint256, bool) {\n      uint256 leadingProjectId;\n      bool candidateFound = false;\n\n      for(uint256 i = 0; i < projects.length; i = i.add(1)) {\n\n          if (!projects[i].active &&\n              projects[i].voteCount > 0 &&\n              projects[i].closingTime > now &&\n              (projects[i].voteCount >= projects[leadingProjectId].voteCount || projects[leadingProjectId].active)\n             )\n          {\n            leadingProjectId = i;\n            candidateFound = true;\n          }\n      }\n\n      return (leadingProjectId, candidateFound && projects[leadingProjectId].capitalRequired <= weiRaised);\n    }\n\n    //we can keep track of whether or not a project is activatable on the frontend. If so, this function will be called. No need to check for this on blockchain\n    function activateProject() public {\n        (uint256 projectId, bool canActivate) = projectToActivateDetails();\n\n        if(canActivate){\n            Project storage project = projects[projectId];\n\n            GNIToken(token).activateTokens(project.tokensIssued);\n\n            forwardFundsToDeveloper(project.capitalRequired);\n\n            weiRaised = weiRaised.sub(project.capitalRequired);\n\n            project.active = true;\n\n            emit LogProject(projectId, project.name, project.valuation, project.capitalRequired, project.tokensIssued, project.lat, project.lng, project.voteCount, true, true);\n    }\n  }\n\n}\n",
  "sourcePath": "/Users/steven/genie-portal/truffle/contracts/crowdsale/GNITokenCrowdsale.sol",
  "compiler": {
    "name": "solc",
    "version": "0.4.24+commit.e67f0147.Emscripten.clang"
  },
  "schemaVersion": "2.0.1",
  "updatedAt": "2018-10-08T20:23:15.523Z"
}