{
  "contractName": "GNITokenCrowdsale",
  "abi": [
    {
      "constant": true,
      "inputs": [],
      "name": "hasClosed",
      "outputs": [
        {
          "name": "",
          "type": "bool"
        }
      ],
      "payable": false,
      "stateMutability": "view",
      "type": "function"
    },
    {
      "constant": true,
      "inputs": [],
      "name": "canReOpen",
      "outputs": [
        {
          "name": "",
          "type": "bool"
        }
      ],
      "payable": false,
      "stateMutability": "view",
      "type": "function"
    },
    {
      "constant": true,
      "inputs": [],
      "name": "projectLeaderTracker",
      "outputs": [
        {
          "name": "",
          "type": "address"
        }
      ],
      "payable": false,
      "stateMutability": "view",
      "type": "function"
    },
    {
      "constant": true,
      "inputs": [],
      "name": "dividendWallet",
      "outputs": [
        {
          "name": "",
          "type": "address"
        }
      ],
      "payable": false,
      "stateMutability": "view",
      "type": "function"
    },
    {
      "constant": true,
      "inputs": [],
      "name": "openingTime",
      "outputs": [
        {
          "name": "",
          "type": "uint256"
        }
      ],
      "payable": false,
      "stateMutability": "view",
      "type": "function"
    },
    {
      "constant": false,
      "inputs": [],
      "name": "allowReOpening",
      "outputs": [],
      "payable": false,
      "stateMutability": "nonpayable",
      "type": "function"
    },
    {
      "constant": true,
      "inputs": [],
      "name": "reimbursements",
      "outputs": [
        {
          "name": "",
          "type": "address"
        }
      ],
      "payable": false,
      "stateMutability": "view",
      "type": "function"
    },
    {
      "constant": true,
      "inputs": [],
      "name": "doomsDay",
      "outputs": [
        {
          "name": "",
          "type": "uint256"
        }
      ],
      "payable": false,
      "stateMutability": "view",
      "type": "function"
    },
    {
      "constant": true,
      "inputs": [],
      "name": "developer",
      "outputs": [
        {
          "name": "",
          "type": "address"
        }
      ],
      "payable": false,
      "stateMutability": "view",
      "type": "function"
    },
    {
      "constant": false,
      "inputs": [],
      "name": "weiRaised_",
      "outputs": [
        {
          "name": "",
          "type": "uint256"
        }
      ],
      "payable": false,
      "stateMutability": "nonpayable",
      "type": "function"
    },
    {
      "constant": true,
      "inputs": [],
      "name": "token",
      "outputs": [
        {
          "name": "",
          "type": "address"
        }
      ],
      "payable": false,
      "stateMutability": "view",
      "type": "function"
    },
    {
      "constant": true,
      "inputs": [],
      "name": "voting",
      "outputs": [
        {
          "name": "",
          "type": "address"
        }
      ],
      "payable": false,
      "stateMutability": "view",
      "type": "function"
    },
    {
      "inputs": [
        {
          "name": "_openingTime",
          "type": "uint256"
        },
        {
          "name": "_doomsDay",
          "type": "uint256"
        },
        {
          "name": "_rate",
          "type": "uint256"
        },
        {
          "name": "_developer",
          "type": "address"
        },
        {
          "name": "_dividendWallet",
          "type": "address"
        },
        {
          "name": "_token",
          "type": "address"
        },
        {
          "name": "_projectLeaderTracker",
          "type": "address"
        },
        {
          "name": "_reimbursements",
          "type": "address"
        },
        {
          "name": "_voting",
          "type": "address"
        }
      ],
      "payable": false,
      "stateMutability": "nonpayable",
      "type": "constructor"
    },
    {
      "payable": true,
      "stateMutability": "payable",
      "type": "fallback"
    },
    {
      "anonymous": false,
      "inputs": [
        {
          "indexed": false,
          "name": "projectAddress",
          "type": "address"
        },
        {
          "indexed": false,
          "name": "developer",
          "type": "address"
        },
        {
          "indexed": false,
          "name": "title",
          "type": "string"
        },
        {
          "indexed": false,
          "name": "lat",
          "type": "string"
        },
        {
          "indexed": false,
          "name": "lng",
          "type": "string"
        },
        {
          "indexed": false,
          "name": "capitalRequired",
          "type": "uint256"
        },
        {
          "indexed": false,
          "name": "valuation",
          "type": "uint256"
        },
        {
          "indexed": false,
          "name": "developerTokens",
          "type": "uint256"
        },
        {
          "indexed": false,
          "name": "investorTokens",
          "type": "uint256"
        },
        {
          "indexed": false,
          "name": "totalProjectCount",
          "type": "uint256"
        }
      ],
      "name": "ProjectPitch",
      "type": "event"
    },
    {
      "anonymous": false,
      "inputs": [
        {
          "indexed": false,
          "name": "addr",
          "type": "address"
        },
        {
          "indexed": false,
          "name": "capitalRequired",
          "type": "uint256"
        },
        {
          "indexed": false,
          "name": "time",
          "type": "uint256"
        }
      ],
      "name": "ProjectActivation",
      "type": "event"
    },
    {
      "anonymous": false,
      "inputs": [
        {
          "indexed": true,
          "name": "purchaser",
          "type": "address"
        },
        {
          "indexed": true,
          "name": "beneficiary",
          "type": "address"
        },
        {
          "indexed": false,
          "name": "value",
          "type": "uint256"
        },
        {
          "indexed": false,
          "name": "amount",
          "type": "uint256"
        }
      ],
      "name": "TokenPurchase",
      "type": "event"
    },
    {
      "constant": true,
      "inputs": [],
      "name": "totalProjectCount_",
      "outputs": [
        {
          "name": "",
          "type": "uint256"
        }
      ],
      "payable": false,
      "stateMutability": "view",
      "type": "function"
    },
    {
      "constant": true,
      "inputs": [
        {
          "name": "id",
          "type": "uint256"
        }
      ],
      "name": "projectById",
      "outputs": [
        {
          "name": "",
          "type": "address"
        }
      ],
      "payable": false,
      "stateMutability": "view",
      "type": "function"
    },
    {
      "constant": false,
      "inputs": [
        {
          "name": "_title",
          "type": "string"
        },
        {
          "name": "capitalRequired",
          "type": "uint256"
        },
        {
          "name": "_valuation",
          "type": "uint256"
        },
        {
          "name": "_lat",
          "type": "string"
        },
        {
          "name": "_lng",
          "type": "string"
        },
        {
          "name": "_voteForHash",
          "type": "bytes32"
        },
        {
          "name": "_voteAgainstHash",
          "type": "bytes32"
        }
      ],
      "name": "pitchProject",
      "outputs": [
        {
          "name": "",
          "type": "address"
        }
      ],
      "payable": false,
      "stateMutability": "nonpayable",
      "type": "function"
    },
    {
      "constant": false,
      "inputs": [],
      "name": "buyTokens",
      "outputs": [],
      "payable": true,
      "stateMutability": "payable",
      "type": "function"
    },
    {
      "constant": false,
      "inputs": [
        {
          "name": "_beneficiary",
          "type": "address"
        }
      ],
      "name": "buyTokens",
      "outputs": [
        {
          "name": "",
          "type": "uint256"
        }
      ],
      "payable": true,
      "stateMutability": "payable",
      "type": "function"
    },
    {
      "constant": false,
      "inputs": [],
      "name": "activateProject",
      "outputs": [],
      "payable": false,
      "stateMutability": "nonpayable",
      "type": "function"
    },
    {
      "constant": false,
      "inputs": [],
      "name": "reimburseFunds",
      "outputs": [],
      "payable": false,
      "stateMutability": "nonpayable",
      "type": "function"
    },
    {
      "constant": false,
      "inputs": [
        {
          "name": "_days",
          "type": "uint256"
        }
      ],
      "name": "extendDoomsDay",
      "outputs": [],
      "payable": false,
      "stateMutability": "nonpayable",
      "type": "function"
    },
    {
      "constant": false,
      "inputs": [
        {
          "name": "_days",
          "type": "uint256"
        }
      ],
      "name": "reduceDoomsDay",
      "outputs": [],
      "payable": false,
      "stateMutability": "nonpayable",
      "type": "function"
    }
  ],
  "bytecode": "0x608060405234801561001057600080fd5b506040516101208062003f4183398101806040528101908080519060200190929190805190602001909291908051906020019092919080519060200190929190805190602001909291908051906020019092919080519060200190929190805190602001909291908051906020019092919050505088888389898860008311151561009a57600080fd5b600073ffffffffffffffffffffffffffffffffffffffff168273ffffffffffffffffffffffffffffffffffffffff16141515156100d657600080fd5b8260028190555081600160006101000a81548173ffffffffffffffffffffffffffffffffffffffff021916908373ffffffffffffffffffffffffffffffffffffffff160217905550806000806101000a81548173ffffffffffffffffffffffffffffffffffffffff021916908373ffffffffffffffffffffffffffffffffffffffff16021790555050505042831015151561017057600080fd5b82821015151561017f57600080fd5b826004819055508160058190555080600660016101000a81548173ffffffffffffffffffffffffffffffffffffffff021916908373ffffffffffffffffffffffffffffffffffffffff16021790555050505080600860006101000a81548173ffffffffffffffffffffffffffffffffffffffff021916908373ffffffffffffffffffffffffffffffffffffffff16021790555082600760006101000a81548173ffffffffffffffffffffffffffffffffffffffff021916908373ffffffffffffffffffffffffffffffffffffffff16021790555084600960006101000a81548173ffffffffffffffffffffffffffffffffffffffff021916908373ffffffffffffffffffffffffffffffffffffffff160217905550505050505050505050613c9480620002ad6000396000f30060806040526004361062000133576000357c0100000000000000000000000000000000000000000000000000000000900463ffffffff168063034e390514620001355780630f1c1fe114620001a55780631515bc2b14620001d55780631d112fba146200020757806320eeb320146200036f5780632474525814620003a15780633cb78fe014620003fb57806350b7342f14620004155780639ff8068a146200042f578063b0e01164146200045f578063b7a8807c14620004b9578063bb9c049014620004e7578063bfa4893f1462000501578063c19b7bc0146200055b578063c8ab525b1462000589578063ca4b208b14620005b7578063d0febe4c1462000611578063e31bc614146200061d578063ec8ac4d8146200064b578063fc0c546a1462000697578063fce1ccca14620006f1575b005b3480156200014257600080fd5b5062000163600480360381019080803590602001909291905050506200074b565b604051808273ffffffffffffffffffffffffffffffffffffffff1673ffffffffffffffffffffffffffffffffffffffff16815260200191505060405180910390f35b348015620001b257600080fd5b50620001d36004803603810190808035906020019092919050505062000788565b005b348015620001e257600080fd5b50620001ed620007f3565b604051808215151515815260200191505060405180910390f35b3480156200021457600080fd5b506200032d600480360381019080803590602001908201803590602001908080601f01602080910402602001604051908101604052809392919081815260200183838082843782019150505050505091929192908035906020019092919080359060200190929190803590602001908201803590602001908080601f0160208091040260200160405190810160405280939291908181526020018383808284378201915050505050509192919290803590602001908201803590602001908080601f016020809104026020016040519081016040528093929190818152602001838380828437820191505050505050919291929080356000191690602001909291908035600019169060200190929190505050620007ff565b604051808273ffffffffffffffffffffffffffffffffffffffff1673ffffffffffffffffffffffffffffffffffffffff16815260200191505060405180910390f35b3480156200037c57600080fd5b50620003876200082b565b604051808215151515815260200191505060405180910390f35b348015620003ae57600080fd5b50620003b96200083e565b604051808273ffffffffffffffffffffffffffffffffffffffff1673ffffffffffffffffffffffffffffffffffffffff16815260200191505060405180910390f35b3480156200040857600080fd5b506200041362000864565b005b3480156200042257600080fd5b506200042d62000ef6565b005b3480156200043c57600080fd5b506200045d6004803603810190808035906020019092919050505062001151565b005b3480156200046c57600080fd5b50620004776200121e565b604051808273ffffffffffffffffffffffffffffffffffffffff1673ffffffffffffffffffffffffffffffffffffffff16815260200191505060405180910390f35b348015620004c657600080fd5b50620004d162001244565b6040518082815260200191505060405180910390f35b348015620004f457600080fd5b50620004ff6200124a565b005b3480156200050e57600080fd5b5062000519620012d7565b604051808273ffffffffffffffffffffffffffffffffffffffff1673ffffffffffffffffffffffffffffffffffffffff16815260200191505060405180910390f35b3480156200056857600080fd5b5062000573620012fd565b6040518082815260200191505060405180910390f35b3480156200059657600080fd5b50620005a162001303565b6040518082815260200191505060405180910390f35b348015620005c457600080fd5b50620005cf6200130d565b604051808273ffffffffffffffffffffffffffffffffffffffff1673ffffffffffffffffffffffffffffffffffffffff16815260200191505060405180910390f35b6200061b62001333565b005b3480156200062a57600080fd5b506200063562001448565b6040518082815260200191505060405180910390f35b62000681600480360381019080803573ffffffffffffffffffffffffffffffffffffffff16906020019092919050505062001452565b6040518082815260200191505060405180910390f35b348015620006a457600080fd5b50620006af62001633565b604051808273ffffffffffffffffffffffffffffffffffffffff1673ffffffffffffffffffffffffffffffffffffffff16815260200191505060405180910390f35b348015620006fe57600080fd5b506200070962001658565b604051808273ffffffffffffffffffffffffffffffffffffffff1673ffffffffffffffffffffffffffffffffffffffff16815260200191505060405180910390f35b6000600a600083815260200190815260200160002060009054906101000a900473ffffffffffffffffffffffffffffffffffffffff169050919050565b600860009054906101000a900473ffffffffffffffffffffffffffffffffffffffff1673ffffffffffffffffffffffffffffffffffffffff163373ffffffffffffffffffffffffffffffffffffffff16141515620007e557600080fd5b620007f0816200167e565b50565b60006005544211905090565b60006200080d605a6200167e565b6200081e8888888888888862001719565b9050979650505050505050565b600660009054906101000a900460ff1681565b600760009054906101000a900473ffffffffffffffffffffffffffffffffffffffff1681565b6000806000806000600760009054906101000a900473ffffffffffffffffffffffffffffffffffffffff1673ffffffffffffffffffffffffffffffffffffffff1663af29f2f46040518163ffffffff167c01000000000000000000000000000000000000000000000000000000000281526004016040805180830381600087803b158015620008f257600080fd5b505af115801562000907573d6000803e3d6000fd5b505050506040513d60408110156200091e57600080fd5b810190808051906020019092919080519060200190929190505050945094506200094960016200074b565b92508273ffffffffffffffffffffffffffffffffffffffff1663d4cf7db66040518163ffffffff167c0100000000000000000000000000000000000000000000000000000000028152600401602060405180830381600087803b158015620009b057600080fd5b505af1158015620009c5573d6000803e3d6000fd5b505050506040513d6020811015620009dc57600080fd5b81019080805190602001909291905050509150838015620009ff57506003548211155b801562000aaa57508273ffffffffffffffffffffffffffffffffffffffff1663fcfff16f6040518163ffffffff167c0100000000000000000000000000000000000000000000000000000000028152600401602060405180830381600087803b15801562000a6c57600080fd5b505af115801562000a81573d6000803e3d6000fd5b505050506040513d602081101562000a9857600080fd5b81019080805190602001909291905050505b1562000eef578273ffffffffffffffffffffffffffffffffffffffff16630f15f4c06040518163ffffffff167c0100000000000000000000000000000000000000000000000000000000028152600401602060405180830381600087803b15801562000b1557600080fd5b505af115801562000b2a573d6000803e3d6000fd5b505050506040513d602081101562000b4157600080fd5b81019080805190602001909291905050509050600160009054906101000a900473ffffffffffffffffffffffffffffffffffffffff1673ffffffffffffffffffffffffffffffffffffffff166108fc839081150290604051600060405180830381858888f1935050505015801562000bbd573d6000803e3d6000fd5b5062000bd58260035462001fcd90919063ffffffff16565b600381905550600760009054906101000a900473ffffffffffffffffffffffffffffffffffffffff1673ffffffffffffffffffffffffffffffffffffffff1663e53b61c96040518163ffffffff167c0100000000000000000000000000000000000000000000000000000000028152600401600060405180830381600087803b15801562000c6257600080fd5b505af115801562000c77573d6000803e3d6000fd5b505050506000809054906101000a900473ffffffffffffffffffffffffffffffffffffffff1673ffffffffffffffffffffffffffffffffffffffff166375a9158762000e0f8573ffffffffffffffffffffffffffffffffffffffff1663d705f3876040518163ffffffff167c0100000000000000000000000000000000000000000000000000000000028152600401602060405180830381600087803b15801562000d2157600080fd5b505af115801562000d36573d6000803e3d6000fd5b505050506040513d602081101562000d4d57600080fd5b81019080805190602001909291905050508673ffffffffffffffffffffffffffffffffffffffff1663929aebdf6040518163ffffffff167c0100000000000000000000000000000000000000000000000000000000028152600401602060405180830381600087803b15801562000dc357600080fd5b505af115801562000dd8573d6000803e3d6000fd5b505050506040513d602081101562000def57600080fd5b810190808051906020019092919050505062001fe790919063ffffffff16565b6040518263ffffffff167c010000000000000000000000000000000000000000000000000000000002815260040180828152602001915050600060405180830381600087803b15801562000e6257600080fd5b505af115801562000e77573d6000803e3d6000fd5b505050507f4a7532659dc13de2e8aa3255bf27f501a5842b14816f7d97c378e50fef955b07858383604051808473ffffffffffffffffffffffffffffffffffffffff1673ffffffffffffffffffffffffffffffffffffffff168152602001838152602001828152602001935050505060405180910390a15b5050505050565b62000f00620007f3565b151562000f0c57600080fd5b600660019054906101000a900473ffffffffffffffffffffffffffffffffffffffff1673ffffffffffffffffffffffffffffffffffffffff166349dd12dd6003546040518263ffffffff167c01000000000000000000000000000000000000000000000000000000000281526004016000604051808303818588803b15801562000f9557600080fd5b505af115801562000faa573d6000803e3d6000fd5b505050505060006003819055506000809054906101000a900473ffffffffffffffffffffffffffffffffffffffff1673ffffffffffffffffffffffffffffffffffffffff1663c4bc712a600160009054906101000a900473ffffffffffffffffffffffffffffffffffffffff166040518263ffffffff167c0100000000000000000000000000000000000000000000000000000000028152600401808273ffffffffffffffffffffffffffffffffffffffff1673ffffffffffffffffffffffffffffffffffffffff168152602001915050600060405180830381600087803b1580156200109657600080fd5b505af1158015620010ab573d6000803e3d6000fd5b50505050600760009054906101000a900473ffffffffffffffffffffffffffffffffffffffff1673ffffffffffffffffffffffffffffffffffffffff1663d826f88f6040518163ffffffff167c0100000000000000000000000000000000000000000000000000000000028152600401600060405180830381600087803b1580156200113657600080fd5b505af11580156200114b573d6000803e3d6000fd5b50505050565b60045442101580156200116657506005544211155b806200117e5750600660009054906101000a900460ff165b15156200118a57600080fd5b600860009054906101000a900473ffffffffffffffffffffffffffffffffffffffff1673ffffffffffffffffffffffffffffffffffffffff163373ffffffffffffffffffffffffffffffffffffffff16141515620011e757600080fd5b6200121562001203621a5e00836200200490919063ffffffff16565b60055462001fcd90919063ffffffff16565b60058190555050565b600960009054906101000a900473ffffffffffffffffffffffffffffffffffffffff1681565b60045481565b600660019054906101000a900473ffffffffffffffffffffffffffffffffffffffff1673ffffffffffffffffffffffffffffffffffffffff163373ffffffffffffffffffffffffffffffffffffffff16148015620012ae5750620012ad620007f3565b5b1515620012ba57600080fd5b6001600660006101000a81548160ff021916908315150217905550565b600660019054906101000a900473ffffffffffffffffffffffffffffffffffffffff1681565b60055481565b6000600b54905090565b600160009054906101000a900473ffffffffffffffffffffffffffffffffffffffff1681565b6000809054906101000a900473ffffffffffffffffffffffffffffffffffffffff1673ffffffffffffffffffffffffffffffffffffffff16630d8654e8336040518263ffffffff167c0100000000000000000000000000000000000000000000000000000000028152600401808273ffffffffffffffffffffffffffffffffffffffff1673ffffffffffffffffffffffffffffffffffffffff168152602001915050602060405180830381600087803b158015620013f057600080fd5b505af115801562001405573d6000803e3d6000fd5b505050506040513d60208110156200141c57600080fd5b810190808051906020019092919050505050620014393362001452565b5062001446605a6200167e565b565b6000600354905090565b6000806000349150600073ffffffffffffffffffffffffffffffffffffffff168473ffffffffffffffffffffffffffffffffffffffff16141515156200149757600080fd5b60008214151515620014a857600080fd5b620014bf600254836200200490919063ffffffff16565b9050620014d88260035462001fe790919063ffffffff16565b6003819055506000809054906101000a900473ffffffffffffffffffffffffffffffffffffffff1673ffffffffffffffffffffffffffffffffffffffff166309b38a5d85836040518363ffffffff167c0100000000000000000000000000000000000000000000000000000000028152600401808373ffffffffffffffffffffffffffffffffffffffff1673ffffffffffffffffffffffffffffffffffffffff16815260200182815260200192505050600060405180830381600087803b158015620015a357600080fd5b505af1158015620015b8573d6000803e3d6000fd5b505050508373ffffffffffffffffffffffffffffffffffffffff163373ffffffffffffffffffffffffffffffffffffffff167f623b3804fa71d67900d064613da8f94b9617215ee90799290593e1745087ad188484604051808381526020018281526020019250505060405180910390a38092505050919050565b6000809054906101000a900473ffffffffffffffffffffffffffffffffffffffff1681565b600860009054906101000a900473ffffffffffffffffffffffffffffffffffffffff1681565b600060045442101580156200169557506005544211155b80620016ad5750600660009054906101000a900460ff165b1515620016b957600080fd5b620016e5620016d5621a5e00846200200490919063ffffffff16565b4262001fe790919063ffffffff16565b90506005548111156200171557806005819055506000600660006101000a81548160ff0219169083151502179055505b5050565b6000806000806200172b898b62002040565b925092506000809054906101000a900473ffffffffffffffffffffffffffffffffffffffff1673ffffffffffffffffffffffffffffffffffffffff166340c10f19600160009054906101000a900473ffffffffffffffffffffffffffffffffffffffff16856040518363ffffffff167c0100000000000000000000000000000000000000000000000000000000028152600401808373ffffffffffffffffffffffffffffffffffffffff1673ffffffffffffffffffffffffffffffffffffffff16815260200182815260200192505050602060405180830381600087803b1580156200181657600080fd5b505af11580156200182b573d6000803e3d6000fd5b505050506040513d60208110156200184257600080fd5b8101908080519060200190929190505050506000809054906101000a900473ffffffffffffffffffffffffffffffffffffffff1673ffffffffffffffffffffffffffffffffffffffff166340c10f1930846040518363ffffffff167c0100000000000000000000000000000000000000000000000000000000028152600401808373ffffffffffffffffffffffffffffffffffffffff1673ffffffffffffffffffffffffffffffffffffffff16815260200182815260200192505050602060405180830381600087803b1580156200191957600080fd5b505af11580156200192e573d6000803e3d6000fd5b505050506040513d60208110156200194557600080fd5b8101908080519060200190929190505050508a600160009054906101000a900473ffffffffffffffffffffffffffffffffffffffff16600960009054906101000a900473ffffffffffffffffffffffffffffffffffffffff168b8d87878e8e620019ae62002096565b80806020018a73ffffffffffffffffffffffffffffffffffffffff1673ffffffffffffffffffffffffffffffffffffffff1681526020018973ffffffffffffffffffffffffffffffffffffffff1673ffffffffffffffffffffffffffffffffffffffff168152602001888152602001878152602001868152602001858152602001806020018060200184810384528d818151815260200191508051906020019080838360005b8381101562001a7157808201518184015260208101905062001a54565b50505050905090810190601f16801562001a9f5780820380516001836020036101000a031916815260200191505b50848103835286818151815260200191508051906020019080838360005b8381101562001ada57808201518184015260208101905062001abd565b50505050905090810190601f16801562001b085780820380516001836020036101000a031916815260200191505b50848103825285818151815260200191508051906020019080838360005b8381101562001b4357808201518184015260208101905062001b26565b50505050905090810190601f16801562001b715780820380516001836020036101000a031916815260200191505b509c50505050505050505050505050604051809103906000f08015801562001b9d573d6000803e3d6000fd5b509050600760009054906101000a900473ffffffffffffffffffffffffffffffffffffffff1673ffffffffffffffffffffffffffffffffffffffff1663b1a1f2476040518163ffffffff167c0100000000000000000000000000000000000000000000000000000000028152600401600060405180830381600087803b15801562001c2757600080fd5b505af115801562001c3c573d6000803e3d6000fd5b5050505062001c586001600b5462001fe790919063ffffffff16565b600b8190555080600a6000600b54815260200190815260200160002060006101000a81548173ffffffffffffffffffffffffffffffffffffffff021916908373ffffffffffffffffffffffffffffffffffffffff1602179055508073ffffffffffffffffffffffffffffffffffffffff1663f2fde38b600860009054906101000a900473ffffffffffffffffffffffffffffffffffffffff166040518263ffffffff167c0100000000000000000000000000000000000000000000000000000000028152600401808273ffffffffffffffffffffffffffffffffffffffff1673ffffffffffffffffffffffffffffffffffffffff168152602001915050600060405180830381600087803b15801562001d7057600080fd5b505af115801562001d85573d6000803e3d6000fd5b505050507f5cd4e9bb532f36dce45b3000fa5ce545935a2d0d0d98f916530f0aafa2b4082881600160009054906101000a900473ffffffffffffffffffffffffffffffffffffffff168d8b8b8f8f8a8a600b54604051808b73ffffffffffffffffffffffffffffffffffffffff1673ffffffffffffffffffffffffffffffffffffffff1681526020018a73ffffffffffffffffffffffffffffffffffffffff1673ffffffffffffffffffffffffffffffffffffffff16815260200180602001806020018060200189815260200188815260200187815260200186815260200185815260200184810384528c818151815260200191508051906020019080838360005b8381101562001ea457808201518184015260208101905062001e87565b50505050905090810190601f16801562001ed25780820380516001836020036101000a031916815260200191505b5084810383528b818151815260200191508051906020019080838360005b8381101562001f0d57808201518184015260208101905062001ef0565b50505050905090810190601f16801562001f3b5780820380516001836020036101000a031916815260200191505b5084810382528a818151815260200191508051906020019080838360005b8381101562001f7657808201518184015260208101905062001f59565b50505050905090810190601f16801562001fa45780820380516001836020036101000a031916815260200191505b509d505050505050505050505050505060405180910390a1809350505050979650505050505050565b600082821115151562001fdc57fe5b818303905092915050565b6000818301905082811015151562001ffb57fe5b80905092915050565b6000808314156200201957600090506200203a565b81830290508183828115156200202b57fe5b041415156200203657fe5b8090505b92915050565b60008060006200205a848662001fcd90919063ffffffff16565b905062002073600254826200200490919063ffffffff16565b6200208a600254866200200490919063ffffffff16565b92509250509250929050565b604051611bc180620020a883390190560060806040523480156200001157600080fd5b5060405162001bc138038062001bc1833981018060405281019080805182019291906020018051906020019092919080519060200190929190805190602001909291908051906020019092919080519060200190929190805190602001909291908051820192919060200180518201929190505050336000806101000a81548173ffffffffffffffffffffffffffffffffffffffff021916908373ffffffffffffffffffffffffffffffffffffffff16021790555033600260006101000a81548173ffffffffffffffffffffffffffffffffffffffff021916908373ffffffffffffffffffffffffffffffffffffffff1602179055507f4101e71e974f68df5e9730cc223280b41654676bbb052cdcc735c3337e64d2d9600260009054906101000a900473ffffffffffffffffffffffffffffffffffffffff16604051808273ffffffffffffffffffffffffffffffffffffffff1673ffffffffffffffffffffffffffffffffffffffff16815260200191505060405180910390a18860039080519060200190620001a4929190620002b4565b5087600460006101000a81548173ffffffffffffffffffffffffffffffffffffffff021916908373ffffffffffffffffffffffffffffffffffffffff16021790555086600560006101000a81548173ffffffffffffffffffffffffffffffffffffffff021916908373ffffffffffffffffffffffffffffffffffffffff16021790555085600781905550846008819055508360098190555082600a8190555081600b90805190602001906200025b929190620002b4565b5080600c908051906020019062000274929190620002b4565b506000600d819055506000600e60006101000a81548160ff02191690831515021790555063013d2380420160068190555050505050505050505062000363565b828054600181600116156101000203166002900490600052602060002090601f016020900481019282601f10620002f757805160ff191683800117855562000328565b8280016001018555821562000328579182015b82811115620003275782518255916020019190600101906200030a565b5b5090506200033791906200033b565b5090565b6200036091905b808211156200035c57600081600090555060010162000342565b5090565b90565b61184e80620003736000396000f300608060405260043610610175576000357c0100000000000000000000000000000000000000000000000000000000900463ffffffff16806302fb0c5e146101775780630f15f4c0146101a657806321a7cfe4146101d157806321fa7025146101fc5780632348238c14610249578063272666e31461028c5780632d06177a146102b75780634d7c09dd146102fa57806351973ec91461032957806355d576cc146103405780635b184f88146103d05780635f74bbde146104135780636f62d40514610460578063715018a6146104f057806379ec5d3a146105075780638da5cb5b1461055e578063929aebdf146105b5578063b0e01164146105e0578063b1053da614610637578063b2bdfa7b14610662578063c6dbdf61146106b9578063c78243cf14610710578063ce6a08801461073b578063d0e30db014610788578063d4cf7db614610792578063d705f387146107bd578063da4493f6146107e8578063f2fde38b14610813578063fcfff16f14610856575b005b34801561018357600080fd5b5061018c610885565b604051808215151515815260200191505060405180910390f35b3480156101b257600080fd5b506101bb610898565b6040518082815260200191505060405180910390f35b3480156101dd57600080fd5b506101e6610920565b6040518082815260200191505060405180910390f35b34801561020857600080fd5b50610247600480360381019080803573ffffffffffffffffffffffffffffffffffffffff16906020019092919080359060200190929190505050610926565b005b34801561025557600080fd5b5061028a600480360381019080803573ffffffffffffffffffffffffffffffffffffffff16906020019092919050505061098f565b005b34801561029857600080fd5b506102a1610af0565b6040518082815260200191505060405180910390f35b3480156102c357600080fd5b506102f8600480360381019080803573ffffffffffffffffffffffffffffffffffffffff169060200190929190505050610afa565b005b34801561030657600080fd5b5061030f610c0c565b604051808215151515815260200191505060405180910390f35b34801561033557600080fd5b5061033e610c23565b005b34801561034c57600080fd5b50610355610e76565b6040518080602001828103825283818151815260200191508051906020019080838360005b8381101561039557808201518184015260208101905061037a565b50505050905090810190601f1680156103c25780820380516001836020036101000a031916815260200191505b509250505060405180910390f35b3480156103dc57600080fd5b50610411600480360381019080803573ffffffffffffffffffffffffffffffffffffffff169060200190929190505050610f14565b005b34801561041f57600080fd5b5061045e600480360381019080803573ffffffffffffffffffffffffffffffffffffffff1690602001909291908035906020019092919050505061100f565b005b34801561046c57600080fd5b5061047561113b565b6040518080602001828103825283818151815260200191508051906020019080838360005b838110156104b557808201518184015260208101905061049a565b50505050905090810190601f1680156104e25780820380516001836020036101000a031916815260200191505b509250505060405180910390f35b3480156104fc57600080fd5b506105056111dd565b005b34801561051357600080fd5b50610548600480360381019080803573ffffffffffffffffffffffffffffffffffffffff1690602001909291905050506112df565b6040518082815260200191505060405180910390f35b34801561056a57600080fd5b50610573611328565b604051808273ffffffffffffffffffffffffffffffffffffffff1673ffffffffffffffffffffffffffffffffffffffff16815260200191505060405180910390f35b3480156105c157600080fd5b506105ca61134d565b6040518082815260200191505060405180910390f35b3480156105ec57600080fd5b506105f5611357565b604051808273ffffffffffffffffffffffffffffffffffffffff1673ffffffffffffffffffffffffffffffffffffffff16815260200191505060405180910390f35b34801561064357600080fd5b5061064c61137d565b6040518082815260200191505060405180910390f35b34801561066e57600080fd5b50610677611387565b604051808273ffffffffffffffffffffffffffffffffffffffff1673ffffffffffffffffffffffffffffffffffffffff16815260200191505060405180910390f35b3480156106c557600080fd5b506106ce6113b0565b604051808273ffffffffffffffffffffffffffffffffffffffff1673ffffffffffffffffffffffffffffffffffffffff16815260200191505060405180910390f35b34801561071c57600080fd5b506107256113da565b6040518082815260200191505060405180910390f35b34801561074757600080fd5b50610786600480360381019080803573ffffffffffffffffffffffffffffffffffffffff169060200190929190803590602001909291905050506113e4565b005b610790611478565b005b34801561079e57600080fd5b506107a761152e565b6040518082815260200191505060405180910390f35b3480156107c957600080fd5b506107d2611538565b6040518082815260200191505060405180910390f35b3480156107f457600080fd5b506107fd611542565b6040518082815260200191505060405180910390f35b34801561081f57600080fd5b50610854600480360381019080803573ffffffffffffffffffffffffffffffffffffffff169060200190929190505050611548565b005b34801561086257600080fd5b5061086b6115b7565b604051808215151515815260200191505060405180910390f35b600e60009054906101000a900460ff1681565b6000600260009054906101000a900473ffffffffffffffffffffffffffffffffffffffff1673ffffffffffffffffffffffffffffffffffffffff163373ffffffffffffffffffffffffffffffffffffffff161415156108f657600080fd5b6001600e60006101000a81548160ff02191690831515021790555042600f81905550600f54905090565b60075481565b6000809054906101000a900473ffffffffffffffffffffffffffffffffffffffff1673ffffffffffffffffffffffffffffffffffffffff163373ffffffffffffffffffffffffffffffffffffffff1614151561098157600080fd5b61098b82826115c3565b5050565b600260009054906101000a900473ffffffffffffffffffffffffffffffffffffffff1673ffffffffffffffffffffffffffffffffffffffff163373ffffffffffffffffffffffffffffffffffffffff161415156109eb57600080fd5b600073ffffffffffffffffffffffffffffffffffffffff168173ffffffffffffffffffffffffffffffffffffffff1614151515610a2757600080fd5b80600260006101000a81548173ffffffffffffffffffffffffffffffffffffffff021916908373ffffffffffffffffffffffffffffffffffffffff1602179055507f4101e71e974f68df5e9730cc223280b41654676bbb052cdcc735c3337e64d2d9600260009054906101000a900473ffffffffffffffffffffffffffffffffffffffff16604051808273ffffffffffffffffffffffffffffffffffffffff1673ffffffffffffffffffffffffffffffffffffffff16815260200191505060405180910390a150565b6000600654905090565b60011515601160003373ffffffffffffffffffffffffffffffffffffffff1673ffffffffffffffffffffffffffffffffffffffff16815260200190815260200160002060009054906101000a900460ff1615151480610ba65750600460009054906101000a900473ffffffffffffffffffffffffffffffffffffffff1673ffffffffffffffffffffffffffffffffffffffff163373ffffffffffffffffffffffffffffffffffffffff16145b1515610bb157600080fd5b6001601160008373ffffffffffffffffffffffffffffffffffffffff1673ffffffffffffffffffffffffffffffffffffffff16815260200190815260200160002060006101000a81548160ff02191690831515021790555050565b6000600e60009054906101000a900460ff16905090565b7f618aac77ac61fdbff533123688fa5e33fe0d021db44eac318ae37b90c6f71d56306003600754600854600954600a54600b600c600d54600e60009054906101000a900460ff16604051808b73ffffffffffffffffffffffffffffffffffffffff1673ffffffffffffffffffffffffffffffffffffffff168152602001806020018a815260200189815260200188815260200187815260200180602001806020018681526020018515151515815260200184810384528d818154600181600116156101000203166002900481526020019150805460018160011615610100020316600290048015610d555780601f10610d2a57610100808354040283529160200191610d55565b820191906000526020600020905b815481529060010190602001808311610d3857829003601f168201915b5050848103835288818154600181600116156101000203166002900481526020019150805460018160011615610100020316600290048015610dd85780601f10610dad57610100808354040283529160200191610dd8565b820191906000526020600020905b815481529060010190602001808311610dbb57829003601f168201915b5050848103825287818154600181600116156101000203166002900481526020019150805460018160011615610100020316600290048015610e5b5780601f10610e3057610100808354040283529160200191610e5b565b820191906000526020600020905b815481529060010190602001808311610e3e57829003601f168201915b50509d505050505050505050505050505060405180910390a1565b600b8054600181600116156101000203166002900480601f016020809104026020016040519081016040528092919081815260200182805460018160011615610100020316600290048015610f0c5780601f10610ee157610100808354040283529160200191610f0c565b820191906000526020600020905b815481529060010190602001808311610eef57829003601f168201915b505050505081565b60011515601160003373ffffffffffffffffffffffffffffffffffffffff1673ffffffffffffffffffffffffffffffffffffffff16815260200190815260200160002060009054906101000a900460ff1615151480610fc05750600460009054906101000a900473ffffffffffffffffffffffffffffffffffffffff1673ffffffffffffffffffffffffffffffffffffffff163373ffffffffffffffffffffffffffffffffffffffff16145b1515610fcb57600080fd5b80600560006101000a81548173ffffffffffffffffffffffffffffffffffffffff021916908373ffffffffffffffffffffffffffffffffffffffff16021790555050565b6000809054906101000a900473ffffffffffffffffffffffffffffffffffffffff1673ffffffffffffffffffffffffffffffffffffffff163373ffffffffffffffffffffffffffffffffffffffff1614151561106a57600080fd5b6110bc81601060008573ffffffffffffffffffffffffffffffffffffffff1673ffffffffffffffffffffffffffffffffffffffff168152602001908152602001600020546116f390919063ffffffff16565b601060008473ffffffffffffffffffffffffffffffffffffffff1673ffffffffffffffffffffffffffffffffffffffff1681526020019081526020016000208190555061111481600d546116f390919063ffffffff16565b600d8190555061113161a8c06006546116f390919063ffffffff16565b6006819055505050565b606060038054600181600116156101000203166002900480601f0160208091040260200160405190810160405280929190818152602001828054600181600116156101000203166002900480156111d35780601f106111a8576101008083540402835291602001916111d3565b820191906000526020600020905b8154815290600101906020018083116111b657829003601f168201915b5050505050905090565b6000809054906101000a900473ffffffffffffffffffffffffffffffffffffffff1673ffffffffffffffffffffffffffffffffffffffff163373ffffffffffffffffffffffffffffffffffffffff1614151561123857600080fd5b6000809054906101000a900473ffffffffffffffffffffffffffffffffffffffff1673ffffffffffffffffffffffffffffffffffffffff167ff8df31144d9c2f0f6b59d69b8b98abd5459d07f2742c4df920b25aae33c6482060405160405180910390a260008060006101000a81548173ffffffffffffffffffffffffffffffffffffffff021916908373ffffffffffffffffffffffffffffffffffffffff160217905550565b6000601060008373ffffffffffffffffffffffffffffffffffffffff1673ffffffffffffffffffffffffffffffffffffffff168152602001908152602001600020549050919050565b6000809054906101000a900473ffffffffffffffffffffffffffffffffffffffff1681565b6000600954905090565b600560009054906101000a900473ffffffffffffffffffffffffffffffffffffffff1681565b6000600f54905090565b60008060009054906101000a900473ffffffffffffffffffffffffffffffffffffffff16905090565b6000600260009054906101000a900473ffffffffffffffffffffffffffffffffffffffff16905090565b6000600d54905090565b6000809054906101000a900473ffffffffffffffffffffffffffffffffffffffff1673ffffffffffffffffffffffffffffffffffffffff163373ffffffffffffffffffffffffffffffffffffffff1614151561143f57600080fd5b6114476115b7565b158061145f5750600e60009054906101000a900460ff165b151561146a57600080fd5b61147482826115c3565b5050565b600080341415151561148957600080fd5b349050600560009054906101000a900473ffffffffffffffffffffffffffffffffffffffff1673ffffffffffffffffffffffffffffffffffffffff166379fc4687826040518263ffffffff167c01000000000000000000000000000000000000000000000000000000000281526004016000604051808303818588803b15801561151257600080fd5b505af1158015611526573d6000803e3d6000fd5b505050505050565b6000600854905090565b6000600a54905090565b600f5481565b6000809054906101000a900473ffffffffffffffffffffffffffffffffffffffff1673ffffffffffffffffffffffffffffffffffffffff163373ffffffffffffffffffffffffffffffffffffffff161415156115a357600080fd5b60056001819055506115b48161170f565b50565b60004260065411905090565b600d5481111515156115d457600080fd5b601060008373ffffffffffffffffffffffffffffffffffffffff1673ffffffffffffffffffffffffffffffffffffffff16815260200190815260200160002054811115151561162257600080fd5b61167481601060008573ffffffffffffffffffffffffffffffffffffffff1673ffffffffffffffffffffffffffffffffffffffff1681526020019081526020016000205461180990919063ffffffff16565b601060008473ffffffffffffffffffffffffffffffffffffffff1673ffffffffffffffffffffffffffffffffffffffff168152602001908152602001600020819055506116cc81600d5461180990919063ffffffff16565b600d819055506116e961a8c060065461180990919063ffffffff16565b6006819055505050565b6000818301905082811015151561170657fe5b80905092915050565b600073ffffffffffffffffffffffffffffffffffffffff168173ffffffffffffffffffffffffffffffffffffffff161415151561174b57600080fd5b8073ffffffffffffffffffffffffffffffffffffffff166000809054906101000a900473ffffffffffffffffffffffffffffffffffffffff1673ffffffffffffffffffffffffffffffffffffffff167f8be0079c531659141344cd1fd0a4f28419497f9722a3daafe3b4186f6b6457e060405160405180910390a3806000806101000a81548173ffffffffffffffffffffffffffffffffffffffff021916908373ffffffffffffffffffffffffffffffffffffffff16021790555050565b600082821115151561181757fe5b8183039050929150505600a165627a7a723058204e01238f5aad9700b8634568723f28f7b237cfbee7353a7eda0a24f3f1a665ea0029a165627a7a72305820663be82e6972f82fc8c6e28ccde482fd7ff169008d32b2f937366b424e5148e40029",
  "source": "pragma solidity >=0.4.22 <0.6.0;\nimport './TimedCrowdsale.sol';\nimport '../utility/SafeMath.sol';\nimport '../Project.sol';\nimport '../ProjectStub.sol';\nimport '../token/ERC20/Token.sol';\nimport '../Reimbursements.sol';\nimport '../ProjectLeaderTracker.sol';\nimport '../Voting.sol';\n\n\ncontract GNITokenCrowdsale is TimedCrowdsale {\n  using SafeMath for uint256;\n  ProjectLeaderTracker public projectLeaderTracker;\n  Voting public voting;\n  address  public dividendWallet;\n\n  constructor\n      (\n        uint256 _openingTime,\n        uint256 _doomsDay,\n        uint256 _rate,\n        address  _developer,\n        address  _dividendWallet,\n        Token _token,\n        ProjectLeaderTracker _projectLeaderTracker,\n        address  _reimbursements,\n        Voting _voting\n      )\n      public\n      Crowdsale(_rate, _developer, _token)\n      TimedCrowdsale(_openingTime, _doomsDay, _reimbursements) {\n        voting = _voting;\n        projectLeaderTracker = ProjectLeaderTracker(_projectLeaderTracker);\n        dividendWallet = _dividendWallet;\n  }\n\n  event ProjectPitch (\n    address projectAddress,\n    address developer,\n    string  title,\n    string  lat,\n    string  lng,\n    uint256 capitalRequired,\n    uint256 valuation,\n    uint256 developerTokens,\n    uint256 investorTokens,\n    uint256 totalProjectCount\n  );\n\n  mapping(uint256 => address ) internal projectAddress;\n  uint256 internal totalProjectCount;\n\n  function totalProjectCount_() public view returns (uint256) {\n    return totalProjectCount;\n  }\n\n  function projectById (uint256 id) public view returns (address ) {\n    return projectAddress[id];\n  }\n\n  function pitchProject(string memory _title, uint256 capitalRequired, uint256 _valuation, string memory _lat, string memory _lng, bytes32 _voteForHash, bytes32 _voteAgainstHash) public returns (address ) {//should only be callable by developer. may need more tests\n   _extendDoomsDay(90);\n    return _pitchProject(_title, capitalRequired, _valuation, _lat, _lng, _voteForHash, _voteAgainstHash);\n  }\n\n  function _pitchProject(string memory _title, uint256 capitalRequired, uint256 _valuation, string memory _lat, string memory _lng, bytes32 _voteForHash, bytes32 _voteAgainstHash) internal returns (address ) {//should only be callable by developer. may need more tests\n   (uint256 developerTokens, uint256 investorTokens) = tokensToMint(_valuation, capitalRequired);\n\n   Token(token).mint(developer, developerTokens);\n   Token(token).mint(this, investorTokens);\n\n    address  projectAddr = address(new Project(_title, developer, dividendWallet, _valuation, capitalRequired, developerTokens, investorTokens, _lat, _lng));\n    projectLeaderTracker.handleProjectPitch();\n    totalProjectCount = totalProjectCount.add(1);\n    projectAddress[totalProjectCount] = projectAddr;\n    Project(projectAddr).transferOwnership(address(Voting(voting)));\n\n    emit ProjectPitch(projectAddr, developer, _title, _lat, _lng, capitalRequired, _valuation, developerTokens, investorTokens, totalProjectCount);\n    return projectAddr;\n  }\n\n function tokensToMint (uint256 valuation, uint256 investorValue) private view returns (uint256, uint256) {\n   uint256 developerValue = valuation.sub(investorValue);\n   return (developerValue.mul(rate), investorValue.mul(rate));\n }\n\n //before this, we need to execute any pending token activations with the modifier above for the sender account. We need to do this so that the correct number of tokens are activated\n function buyTokens () public payable { //tests need to be removed/added to account for new functionality. we also may just put all the logic for the super function in here.\n   Token(token).activatePending(msg.sender);\n\n   super.buyTokens(msg.sender);\n   _extendDoomsDay(90);\n  }\n\n  event ProjectActivation (\n    address addr,\n    uint256 capitalRequired,\n    uint256 time\n  );\n\n\n function activateProject () public { //we need more tests for added functionality\n   (\n     address  tentativeLeaderAddr,\n     bool tentativeLeaderConfirmed\n   ) = projectLeaderTracker.tentativeLeader();\n\n   Project project = Project(projectById(1));\n   uint256 capitalRequired = project.capitalRequired_();\n   if (\n     tentativeLeaderConfirmed &&\n     capitalRequired <= weiRaised &&\n     project.open()\n     ) {\n     uint256 time = project.activate();\n     //set the number of project votes to 0.\n\n     developer.transfer(capitalRequired);\n     weiRaised = weiRaised.sub(capitalRequired);\n\n     projectLeaderTracker.handleProjectActivation();\n     Token(token).increasePendingActivations(project.developerTokens_().add(project.investorTokens_()));\n     emit ProjectActivation(tentativeLeaderAddr, capitalRequired, time);\n    }\n  }\n\n function reimburseFunds () public {\n   require(hasClosed());\n   Reimbursements(reimbursements).recordReimbursement.value(weiRaised)();\n   weiRaised = 0;\n   Token(token).resetInactiveTokenCycle(developer);\n   projectLeaderTracker.reset();\n }\n\n //tests need to be updated\n\n function extendDoomsDay (uint256 _days) external {\n   require(msg.sender == address(Voting(voting)));\n   _extendDoomsDay(_days);\n }\n\n function _extendDoomsDay(uint256 _days) internal canExtendDoomsDay {\n    uint256 newDoomsDay = now.add(_days.mul(1728000));\n    if (newDoomsDay > doomsDay) {\n      doomsDay = newDoomsDay;\n      canReOpen = false;\n    }\n }\n\n function reduceDoomsDay (uint256 _days) public canExtendDoomsDay {\n   require(msg.sender == address(Voting(voting)));\n   doomsDay = doomsDay.sub(_days.mul(1728000));\n }\n}\n\n/* function getInfo(uint256 id) public view returns(address) {\n    /* string, uint256, uint256, uint256, uint256, bool, uint256, uint256, address */\n    /* address projectAddr = projectAddrs[id]; */\n    /* return ( */\n      /* return Project(projectAddr).dividendWallet(); */\n      /* Project(projectAddr).name(),\n      Project(projectAddr).valuation(),\n      Project(projectAddr).capitalRequired(),\n      Project(projectAddr).developerTokens(),\n      Project(projectAddr).investorTokens(),\n      Project(projectAddr).active(),\n      Project(projectAddr).totalVotes(),\n      /* Project(projectAddr).closingTime(), */\n      /* projectAddr */\n      /* ); */\n    /* }  */\n",
  "sourcePath": "/Users/steven/genie-portal/truffle/contracts/crowdsale/GNITokenCrowdsale.sol",
  "compiler": {
    "name": "solc",
    "version": "0.4.25+commit.59dbf8f1.Emscripten.clang"
  },
  "schemaVersion": "2.0.2",
  "updatedAt": "2019-02-04T19:57:28.040Z"
}