{
  "contractName": "GNITokenCrowdsale",
  "abi": [
    {
      "constant": true,
      "inputs": [
        {
          "name": "",
          "type": "uint256"
        }
      ],
      "name": "projects",
      "outputs": [
        {
          "name": "",
          "type": "address"
        }
      ],
      "payable": false,
      "stateMutability": "view",
      "type": "function"
    },
    {
      "constant": true,
      "inputs": [],
      "name": "hasClosed",
      "outputs": [
        {
          "name": "",
          "type": "bool"
        }
      ],
      "payable": false,
      "stateMutability": "view",
      "type": "function"
    },
    {
      "constant": true,
      "inputs": [],
      "name": "activeToken_",
      "outputs": [
        {
          "name": "",
          "type": "address"
        }
      ],
      "payable": false,
      "stateMutability": "view",
      "type": "function"
    },
    {
      "constant": true,
      "inputs": [],
      "name": "totalValuation",
      "outputs": [
        {
          "name": "",
          "type": "uint256"
        }
      ],
      "payable": false,
      "stateMutability": "view",
      "type": "function"
    },
    {
      "constant": true,
      "inputs": [],
      "name": "rate",
      "outputs": [
        {
          "name": "",
          "type": "uint256"
        }
      ],
      "payable": false,
      "stateMutability": "view",
      "type": "function"
    },
    {
      "constant": true,
      "inputs": [
        {
          "name": "",
          "type": "uint256"
        }
      ],
      "name": "investors",
      "outputs": [
        {
          "name": "addr",
          "type": "address"
        },
        {
          "name": "id",
          "type": "uint256"
        },
        {
          "name": "voteCredit",
          "type": "uint256"
        }
      ],
      "payable": false,
      "stateMutability": "view",
      "type": "function"
    },
    {
      "constant": true,
      "inputs": [],
      "name": "weiRaised",
      "outputs": [
        {
          "name": "",
          "type": "uint256"
        }
      ],
      "payable": false,
      "stateMutability": "view",
      "type": "function"
    },
    {
      "constant": true,
      "inputs": [],
      "name": "openingTime",
      "outputs": [
        {
          "name": "",
          "type": "uint256"
        }
      ],
      "payable": false,
      "stateMutability": "view",
      "type": "function"
    },
    {
      "constant": true,
      "inputs": [],
      "name": "doomsDay",
      "outputs": [
        {
          "name": "",
          "type": "uint256"
        }
      ],
      "payable": false,
      "stateMutability": "view",
      "type": "function"
    },
    {
      "constant": true,
      "inputs": [],
      "name": "developer",
      "outputs": [
        {
          "name": "",
          "type": "address"
        }
      ],
      "payable": false,
      "stateMutability": "view",
      "type": "function"
    },
    {
      "constant": true,
      "inputs": [],
      "name": "inactiveToken_",
      "outputs": [
        {
          "name": "",
          "type": "address"
        }
      ],
      "payable": false,
      "stateMutability": "view",
      "type": "function"
    },
    {
      "constant": false,
      "inputs": [
        {
          "name": "_beneficiary",
          "type": "address"
        }
      ],
      "name": "buyTokens",
      "outputs": [],
      "payable": true,
      "stateMutability": "payable",
      "type": "function"
    },
    {
      "inputs": [
        {
          "name": "_openingTime",
          "type": "uint256"
        },
        {
          "name": "_doomsDay",
          "type": "uint256"
        },
        {
          "name": "_rate",
          "type": "uint256"
        },
        {
          "name": "_developer",
          "type": "address"
        },
        {
          "name": "_token",
          "type": "address"
        }
      ],
      "payable": false,
      "stateMutability": "nonpayable",
      "type": "constructor"
    },
    {
      "payable": true,
      "stateMutability": "payable",
      "type": "fallback"
    },
    {
      "anonymous": false,
      "inputs": [
        {
          "indexed": false,
          "name": "voter",
          "type": "address"
        },
        {
          "indexed": false,
          "name": "projectId",
          "type": "uint256"
        },
        {
          "indexed": false,
          "name": "amount",
          "type": "uint256"
        }
      ],
      "name": "LogVotes",
      "type": "event"
    },
    {
      "anonymous": false,
      "inputs": [
        {
          "indexed": true,
          "name": "purchaser",
          "type": "address"
        },
        {
          "indexed": true,
          "name": "beneficiary",
          "type": "address"
        },
        {
          "indexed": false,
          "name": "value",
          "type": "uint256"
        },
        {
          "indexed": false,
          "name": "amount",
          "type": "uint256"
        }
      ],
      "name": "TokenPurchase",
      "type": "event"
    },
    {
      "constant": true,
      "inputs": [
        {
          "name": "id",
          "type": "uint256"
        }
      ],
      "name": "getInfo",
      "outputs": [
        {
          "name": "",
          "type": "string"
        },
        {
          "name": "",
          "type": "uint256"
        },
        {
          "name": "",
          "type": "uint256"
        },
        {
          "name": "",
          "type": "uint256"
        },
        {
          "name": "",
          "type": "uint256"
        },
        {
          "name": "",
          "type": "bool"
        },
        {
          "name": "",
          "type": "uint256"
        },
        {
          "name": "",
          "type": "uint256"
        }
      ],
      "payable": false,
      "stateMutability": "view",
      "type": "function"
    },
    {
      "constant": false,
      "inputs": [
        {
          "name": "_name",
          "type": "string"
        },
        {
          "name": "_manager",
          "type": "address"
        },
        {
          "name": "capitalRequired",
          "type": "uint256"
        },
        {
          "name": "_valuation",
          "type": "uint256"
        },
        {
          "name": "_lat",
          "type": "string"
        },
        {
          "name": "_lng",
          "type": "string"
        }
      ],
      "name": "pitchProject",
      "outputs": [],
      "payable": true,
      "stateMutability": "payable",
      "type": "function"
    },
    {
      "constant": false,
      "inputs": [
        {
          "name": "_projectVotedForId",
          "type": "uint256"
        }
      ],
      "name": "buyTokensAndVote",
      "outputs": [],
      "payable": true,
      "stateMutability": "payable",
      "type": "function"
    },
    {
      "constant": false,
      "inputs": [],
      "name": "activateProject",
      "outputs": [],
      "payable": false,
      "stateMutability": "nonpayable",
      "type": "function"
    },
    {
      "constant": false,
      "inputs": [],
      "name": "distributeDividends",
      "outputs": [],
      "payable": false,
      "stateMutability": "nonpayable",
      "type": "function"
    }
  ],
  "bytecode": "0x60806040523480156200001157600080fd5b5060405160a0806200347083398101604090815281516020830151918301516060840151608090940151919390918484848484600083116200005257600080fd5b600160a060020a03821615156200006857600080fd5b600383905560028054600160a060020a03808516600160a060020a0319928316179092556000805492841692909116919091179055620000a76200011e565b604051809103906000f080158015620000c4573d6000803e3d6000fd5b5060018054600160a060020a031916600160a060020a039290921691909117905550505042821015620000f657600080fd5b818110156200010457600080fd5b60059190915560065550506000600755506200012f915050565b604051610b7a80620028f683390190565b6127b7806200013f6000396000f300608060405260043610620000e95763ffffffff60e060020a60003504166303c833028114620000f6578063107046bd146200010e5780631515bc2b14620001455780631807cd5f14620001715780631a3cd59a1462000189578063295b930014620002545780632c4e722e146200027e5780633cb78fe014620002965780633feb5f2b14620002ae5780634042b66f14620002f1578063589679c71462000309578063b7a8807c1462000316578063c19b7bc0146200032e578063ca4b208b1462000346578063da45be0a146200035e578063e07272621462000376578063ec8ac4d8146200045b575b620000f4336200046c565b005b3480156200010357600080fd5b50620000f46200059c565b3480156200011b57600080fd5b5062000129600435620006c3565b60408051600160a060020a039092168252519081900360200190f35b3480156200015257600080fd5b506200015d620006ec565b604080519115158252519081900360200190f35b3480156200017e57600080fd5b5062000129620006f4565b3480156200019657600080fd5b50620001a460043562000703565b60405180806020018981526020018881526020018781526020018681526020018515151515815260200184815260200183815260200182810382528a818151815260200191508051906020019080838360005b8381101562000211578181015183820152602001620001f7565b50505050905090810190601f1680156200023f5780820380516001836020036101000a031916815260200191505b50995050505050505050505060405180910390f35b3480156200026157600080fd5b506200026c62000bdc565b60408051918252519081900360200190f35b3480156200028b57600080fd5b506200026c62000be2565b348015620002a357600080fd5b50620000f462000be8565b348015620002bb57600080fd5b50620002c960043562000f4d565b60408051600160a060020a039094168452602084019290925282820152519081900360600190f35b348015620002fe57600080fd5b506200026c62000f89565b620000f460043562000f8f565b3480156200032357600080fd5b506200026c62001038565b3480156200033b57600080fd5b506200026c6200103e565b3480156200035357600080fd5b506200012962001044565b3480156200036b57600080fd5b506200012962001053565b6040805160206004803580820135601f8101849004840285018401909552848452620000f494369492936024939284019190819084018382808284375050604080516020601f60608a01358b0180359182018390048302840183018552818452989b600160a060020a038b35169b838c01359b958601359a91995097506080909401955091935091820191819084018382808284375050604080516020601f89358b018035918201839004830284018301909452808352979a999881019791965091820194509250829150840183828082843750949750620010629650505050505050565b620000f4600160a060020a03600435165b3460006200047b8383620013e9565b62000486826200141d565b6004549091506200049e908363ffffffff6200143c16565b600490815560008054600254604080517f23b872dd000000000000000000000000000000000000000000000000000000008152600160a060020a0392831695810195909552878216602486015260448501869052519116926323b872dd9260648083019360209390929083900390910190829087803b1580156200052157600080fd5b505af115801562000536573d6000803e3d6000fd5b505050506040513d60208110156200054d57600080fd5b505060408051838152602081018390528151600160a060020a0386169233927f623b3804fa71d67900d064613da8f94b9617215ee90799290593e1745087ad18929081900390910190a3505050565b600080600080600160009054906101000a9004600160a060020a0316600160a060020a03166318160ddd6040518163ffffffff1660e060020a028152600401602060405180830381600087803b158015620005f657600080fd5b505af11580156200060b573d6000803e3d6000fd5b505050506040513d60208110156200062257600080fd5b50516004549094506200063e9030319063ffffffff6200144a16565b9250600091505b6009548211620006a45760098054839081106200065e57fe5b6000918252602090912060049091020180549091506200068990600160a060020a031685856200145d565b6200069c82600163ffffffff6200143c16565b915062000645565b600254620006bd90600160a060020a031685856200145d565b50505050565b6008805482908110620006d257fe5b600091825260209091200154600160a060020a0316905081565b600654421190565b600154600160a060020a031681565b606060008060008060008060008060088a8154811015156200072157fe5b6000918252602082200154604080517f06fdde030000000000000000000000000000000000000000000000000000000081529051600160a060020a03909216935083926306fdde039260048084019382900301818387803b1580156200078657600080fd5b505af11580156200079b573d6000803e3d6000fd5b505050506040513d6000823e601f3d908101601f191682016040526020811015620007c557600080fd5b810190808051640100000000811115620007de57600080fd5b82016020810184811115620007f257600080fd5b81516401000000008111828201871017156200080d57600080fd5b505092919050505081600160a060020a03166321a7cfe46040518163ffffffff1660e060020a028152600401602060405180830381600087803b1580156200085457600080fd5b505af115801562000869573d6000803e3d6000fd5b505050506040513d60208110156200088057600080fd5b5051604080517fec61b0860000000000000000000000000000000000000000000000000000000081529051600160a060020a0385169163ec61b0869160048083019260209291908290030181600087803b158015620008de57600080fd5b505af1158015620008f3573d6000803e3d6000fd5b505050506040513d60208110156200090a57600080fd5b5051604080517f6417d7b00000000000000000000000000000000000000000000000000000000081529051600160a060020a03861691636417d7b09160048083019260209291908290030181600087803b1580156200096857600080fd5b505af11580156200097d573d6000803e3d6000fd5b505050506040513d60208110156200099457600080fd5b5051604080517e4dcde50000000000000000000000000000000000000000000000000000000081529051600160a060020a03871691624dcde59160048083019260209291908290030181600087803b158015620009f057600080fd5b505af115801562000a05573d6000803e3d6000fd5b505050506040513d602081101562000a1c57600080fd5b5051604080517f02fb0c5e0000000000000000000000000000000000000000000000000000000081529051600160a060020a038816916302fb0c5e9160048083019260209291908290030181600087803b15801562000a7a57600080fd5b505af115801562000a8f573d6000803e3d6000fd5b505050506040513d602081101562000aa657600080fd5b5051604080517fc63840710000000000000000000000000000000000000000000000000000000081529051600160a060020a0389169163c63840719160048083019260209291908290030181600087803b15801562000b0457600080fd5b505af115801562000b19573d6000803e3d6000fd5b505050506040513d602081101562000b3057600080fd5b5051604080517f4b6753bc0000000000000000000000000000000000000000000000000000000081529051600160a060020a038a1691634b6753bc9160048083019260209291908290030181600087803b15801562000b8e57600080fd5b505af115801562000ba3573d6000803e3d6000fd5b505050506040513d602081101562000bba57600080fd5b5051969f50949d50929b50909950975095509350915050919395975091939597565b60075481565b60035481565b60008060008062000bf862001560565b935093508215620006bd57600880548590811062000c1257fe5b9060005260206000200160009054906101000a9004600160a060020a0316915081600160a060020a031663929aebdf6040518163ffffffff1660e060020a028152600401602060405180830381600087803b15801562000c7157600080fd5b505af115801562000c86573d6000803e3d6000fd5b505050506040513d602081101562000c9d57600080fd5b505160008054600254604080517f79cc6790000000000000000000000000000000000000000000000000000000008152600160a060020a0392831660048201526024810186905290519495509116926379cc67909260448084019391929182900301818387803b15801562000d1157600080fd5b505af115801562000d26573d6000803e3d6000fd5b5050600154600254604080517f40c10f19000000000000000000000000000000000000000000000000000000008152600160a060020a0392831660048201526024810187905290519190921693506340c10f19925060448083019260209291908290030181600087803b15801562000d9d57600080fd5b505af115801562000db2573d6000803e3d6000fd5b505050506040513d602081101562000dc957600080fd5b5050604080517fd705f387000000000000000000000000000000000000000000000000000000008152905162000e6291600160a060020a0385169163d705f387916004808201926020929091908290030181600087803b15801562000e2d57600080fd5b505af115801562000e42573d6000803e3d6000fd5b505050506040513d602081101562000e5957600080fd5b5051856200170b565b62000eef600260009054906101000a9004600160a060020a031683600160a060020a031663d4cf7db66040518163ffffffff1660e060020a028152600401602060405180830381600087803b15801562000ebb57600080fd5b505af115801562000ed0573d6000803e3d6000fd5b505050506040513d602081101562000ee757600080fd5b5051620018e9565b81600160a060020a0316630f15f4c06040518163ffffffff1660e060020a028152600401600060405180830381600087803b15801562000f2e57600080fd5b505af115801562000f43573d6000803e3d6000fd5b5050505050505050565b600980548290811062000f5c57fe5b6000918252602090912060049091020180546001820154600290920154600160a060020a03909116925083565b60045481565b62000f9a336200046c565b62000fa5816200193d565b600880548290811062000fb457fe5b6000918252602082200154604080517f82ab890a0000000000000000000000000000000000000000000000000000000081523460048201529051600160a060020a03909216926382ab890a9260248084019382900301818387803b1580156200101c57600080fd5b505af115801562001031573d6000803e3d6000fd5b5050505050565b60055481565b60065481565b600254600160a060020a031681565b600054600160a060020a031681565b60008060008062001074878962001a43565b600054600254929650909450600160a060020a03908116916340c10f199116620010a5878763ffffffff6200143c16565b6040518363ffffffff1660e060020a0281526004018083600160a060020a0316600160a060020a0316815260200182815260200192505050602060405180830381600087803b158015620010f857600080fd5b505af11580156200110d573d6000803e3d6000fd5b505050506040513d60208110156200112457600080fd5b50506007546200113b908863ffffffff6200143c16565b6007556200114a605a62001a94565b6008549150818a8a308a8c89898d8d6200116362001c2d565b808b8152602001806020018a600160a060020a0316600160a060020a0316815260200189600160a060020a0316600160a060020a03168152602001888152602001878152602001868152602001858152602001806020018060200184810384528d818151815260200191508051906020019080838360005b83811015620011f5578181015183820152602001620011db565b50505050905090810190601f168015620012235780820380516001836020036101000a031916815260200191505b50848103835286518152865160209182019188019080838360005b83811015620012585781810151838201526020016200123e565b50505050905090810190601f168015620012865780820380516001836020036101000a031916815260200191505b50848103825285518152855160209182019187019080838360005b83811015620012bb578181015183820152602001620012a1565b50505050905090810190601f168015620012e95780820380516001836020036101000a031916815260200191505b509d5050505050505050505050505050604051809103906000f08015801562001316573d6000803e3d6000fd5b506008805460018101825560009182527ff3f7a9fe364faab93b216da50a3214154f22a0a2b415b23a84c8169e8b636ee301805473ffffffffffffffffffffffffffffffffffffffff1916600160a060020a038416908117909155604080517f51973ec9000000000000000000000000000000000000000000000000000000008152905193945090926351973ec99260048084019391929182900301818387803b158015620013c457600080fd5b505af1158015620013d9573d6000803e3d6000fd5b5050505050505050505050505050565b6005546006544291908183108015906200140557506006544211155b15156200141157600080fd5b62001031858562001aee565b6000620014366003548362001b1590919063ffffffff16565b92915050565b818101828110156200143657fe5b6000828211156200145757fe5b50900390565b600154604080517f70a08231000000000000000000000000000000000000000000000000000000008152600160a060020a038681166004830152915160009384936200150a939116916370a082319160248082019260209290919082900301818887803b158015620014ce57600080fd5b505af1158015620014e3573d6000803e3d6000fd5b505050506040513d6020811015620014fa57600080fd5b5051859063ffffffff62001b4216565b91506200151e838363ffffffff62001b4216565b604051909150600160a060020a0386169082156108fc029083906000818181858888f1935050505015801562001558573d6000803e3d6000fd5b505050505050565b6000808080805b600854811015620016575760088054829081106200158157fe5b60009182526020909120015460088054600160a060020a039092169163705c5be5919086908110620015af57fe5b60009182526020808320909101546040805160e060020a63ffffffff8716028152600160a060020a0390921660048301525160248083019491928390030190829087803b1580156200160057600080fd5b505af115801562001615573d6000803e3d6000fd5b505050506040513d60208110156200162c57600080fd5b5051156200163c57809250600191505b6200164f81600163ffffffff6200143c16565b905062001567565b8282801562001700575060045460088054869081106200167357fe5b9060005260206000200160009054906101000a9004600160a060020a0316600160a060020a031663d4cf7db66040518163ffffffff1660e060020a028152600401602060405180830381600087803b158015620016cf57600080fd5b505af1158015620016e4573d6000803e3d6000fd5b505050506040513d6020811015620016fb57600080fd5b505111155b945094505050509091565b60008060006200171a62001c3e565b60008054600254604080517f70a08231000000000000000000000000000000000000000000000000000000008152600160a060020a0392831660048201529051620018599492909316926370a0823192602480840193602093929083900390910190829087803b1580156200178e57600080fd5b505af1158015620017a3573d6000803e3d6000fd5b505050506040513d6020811015620017ba57600080fd5b505160008054604080517f18160ddd0000000000000000000000000000000000000000000000000000000081529051600160a060020a03909216926318160ddd926004808401936020939083900390910190829087803b1580156200181e57600080fd5b505af115801562001833573d6000803e3d6000fd5b505050506040513d60208110156200184a57600080fd5b50519063ffffffff6200144a16565b93506200186d848763ffffffff62001b4216565b9250600091505b6009548211620015585760098054839081106200188d57fe5b60009182526020918290206040805160608101825260049093029091018054600160a060020a031683526001808201549484019490945260020154908201529150620018e190839063ffffffff6200143c16565b915062001874565b604051600160a060020a0383169082156108fc029083906000818181858888f1935050505015801562001920573d6000803e3d6000fd5b5060045462001936908263ffffffff6200144a16565b6004555050565b6200194762001c3e565b336000908152600a6020526040812054151562001a335750338082526009805460208085018281526000948552600a90915260408085208390556001830184559290935283517f6e1540171b6c0c960b71a7020d9f60077f6af931a8bbf590da0223dacf75c7af60048302908101805473ffffffffffffffffffffffffffffffffffffffff1916600160a060020a039093169290921790915592517f6e1540171b6c0c960b71a7020d9f60077f6af931a8bbf590da0223dacf75c7b0840155908301517f6e1540171b6c0c960b71a7020d9f60077f6af931a8bbf590da0223dacf75c7b1909201919091555b62001a3e8362001b58565b505050565b6000808062001a59858563ffffffff6200144a16565b905062001a726003548262001b1590919063ffffffff16565b60035462001a8890869063ffffffff62001b1516565b92509250509250929050565b60055460065442919081831080159062001ab057506006544211155b151562001abc57600080fd5b62001ae562001ad585621a5e0063ffffffff62001b1516565b6006549063ffffffff6200143c16565b60065550505050565b600160a060020a038216151562001b0457600080fd5b80151562001b1157600080fd5b5050565b600082151562001b285750600062001436565b5081810281838281151562001b3957fe5b04146200143657fe5b6000818381151562001b5057fe5b049392505050565b336000908152600a60205260409020546009805462001baa92349291811062001b7d57fe5b60009182526020808320868452600360049093020191909101905260409020549063ffffffff6200143c16565b336000908152600a602052604090205460098054909190811062001bca57fe5b6000918252602080832085845260036004909302019190910181526040918290209290925580513381529182018390523482820152517f1cfed8e6708dd89e1137769a805a4f0bb9a3bd615d751d5b2c078d2f3b34c5749181900360600190a150565b604051610b228062001c6a83390190565b6060604051908101604052806000600160a060020a03168152602001600081526020016000815250905600608060405234801561001057600080fd5b50604051610b22380380610b228339810160409081528151602080840151928401516060850151608086015160a087015160c088015160e08901516101008a01516101208b015160008a9055998b018051999b909a97999698959794969395929491810193910191610087916001918c019061011d565b5060028054600160a060020a03808b16600160a060020a03199283161790925560038054928a1692909116919091179055600586905560068590556007849055600883905581516100df90600990602085019061011d565b5080516100f390600a90602084019061011d565b50506000600b555050600c805460ff1916905550505063013d23804201600455506101b892505050565b828054600181600116156101000203166002900490600052602060002090601f016020900481019282601f1061015e57805160ff191683800117855561018b565b8280016001018555821561018b579182015b8281111561018b578251825591602001919060010190610170565b5061019792915061019b565b5090565b6101b591905b8082111561019757600081556001016101a1565b90565b61095b806101c76000396000f30060806040526004361061010d5763ffffffff60e060020a6000350416624dcde58114610112578063015e72ec1461013957806302fb0c5e146101c357806306fdde03146101ec5780630f15f4c01461020157806321a7cfe414610218578063272666e31461022d5780634b6753bc146102425780634d7c09dd1461025757806351973ec91461026c57806355d576cc146102815780636417d7b014610296578063705c5be5146102ab57806382ab890a146102d9578063929aebdf146102f1578063af640d0f14610306578063c63840711461031b578063d0e30db014610330578063d4cf7db614610338578063d705f3871461034d578063ec61b08614610362578063f25874c814610377575b600080fd5b34801561011e57600080fd5b5061012761038c565b60408051918252519081900360200190f35b34801561014557600080fd5b5061014e610392565b6040805160208082528351818301528351919283929083019185019080838360005b83811015610188578181015183820152602001610170565b50505050905090810190601f1680156101b55780820380516001836020036101000a031916815260200191505b509250505060405180910390f35b3480156101cf57600080fd5b506101d8610420565b604080519115158252519081900360200190f35b3480156101f857600080fd5b5061014e610429565b34801561020d57600080fd5b50610216610483565b005b34801561022457600080fd5b5061012761049a565b34801561023957600080fd5b506101276104a0565b34801561024e57600080fd5b506101276104a6565b34801561026357600080fd5b506101d86104ac565b34801561027857600080fd5b506102166104b5565b34801561028d57600080fd5b5061014e6106c0565b3480156102a257600080fd5b5061012761071b565b3480156102b757600080fd5b506101d873ffffffffffffffffffffffffffffffffffffffff60043516610721565b3480156102e557600080fd5b5061021660043561084e565b3480156102fd57600080fd5b5061012761087f565b34801561031257600080fd5b50610127610885565b34801561032757600080fd5b5061012761088b565b610216610891565b34801561034457600080fd5b5061012761090a565b34801561035957600080fd5b50610127610910565b34801561036e57600080fd5b50610127610916565b34801561038357600080fd5b5061012761091c565b60085481565b600a805460408051602060026001851615610100026000190190941693909304601f810184900484028201840190925281815292918301828280156104185780601f106103ed57610100808354040283529160200191610418565b820191906000526020600020905b8154815290600101906020018083116103fb57829003601f168201915b505050505081565b600c5460ff1681565b60018054604080516020600284861615610100026000190190941693909304601f810184900484028201840190925281815292918301828280156104185780601f106103ed57610100808354040283529160200191610418565b600c805460ff191660011790556104986104b5565b565b60055481565b60045490565b60045481565b600c5460ff1690565b7f2870b0d0558b1786ef247a7bb0787eaae7392b072f7ca327b464981f23fb0e9260005460016005546006546007546008546009600a600b54600c60009054906101000a900460ff16604051808b8152602001806020018a815260200189815260200188815260200187815260200180602001806020018681526020018515151515815260200184810384528d8181546001816001161561010002031660029004815260200191508054600181600116156101000203166002900480156105bd5780601f10610592576101008083540402835291602001916105bd565b820191906000526020600020905b8154815290600101906020018083116105a057829003601f168201915b50508481038352885460026000196101006001841615020190911604808252602090910190899080156106315780601f1061060657610100808354040283529160200191610631565b820191906000526020600020905b81548152906001019060200180831161061457829003601f168201915b50508481038252875460026000196101006001841615020190911604808252602090910190889080156106a55780601f1061067a576101008083540402835291602001916106a5565b820191906000526020600020905b81548152906001019060200180831161068857829003601f168201915b50509d505050505050505050505050505060405180910390a1565b6009805460408051602060026001851615610100026000190190941693909304601f810184900484028201840190925281815292918301828280156104185780601f106103ed57610100808354040283529160200191610418565b60075481565b600c5460009060ff1615801561073957506000600b54115b8015610746575042600454115b80156107ca57508173ffffffffffffffffffffffffffffffffffffffff1663f25874c86040518163ffffffff1660e060020a028152600401602060405180830381600087803b15801561079857600080fd5b505af11580156107ac573d6000803e3d6000fd5b505050506040513d60208110156107c257600080fd5b5051600b5410155b8061084857508173ffffffffffffffffffffffffffffffffffffffff16634d7c09dd6040518163ffffffff1660e060020a028152600401602060405180830381600087803b15801561081b57600080fd5b505af115801561082f573d6000803e3d6000fd5b505050506040513d602081101561084557600080fd5b50515b92915050565b600b54610861908263ffffffff61092216565b600b556004546108799061a8c063ffffffff61092216565b60045550565b60075490565b60005481565b600b5481565b34151561089d57600080fd5b60025473ffffffffffffffffffffffffffffffffffffffff1633146108c157600080fd5b60035460405173ffffffffffffffffffffffffffffffffffffffff909116903480156108fc02916000818181858888f19350505050158015610907573d6000803e3d6000fd5b50565b60065490565b60085490565b60065481565b600b5490565b8181018281101561084857fe00a165627a7a7230582055a3936febd844cb2c1cbc518f2fae5e4ae5d9f2073ce29c030f8c183be5d8480029a165627a7a72305820f3bd9e8355d412686d462184fb0f39413f1f106632593403a89336c8f43ab4500029608060405260038054600160a860020a03191633179055610b55806100256000396000f3006080604052600436106100e55763ffffffff7c010000000000000000000000000000000000000000000000000000000060003504166305d2035b81146100ea578063095ea7b31461011357806318160ddd1461013757806323b872dd1461015e57806340c10f191461018857806342966c68146101ac57806366188463146101c657806370a08231146101ea578063715018a61461020b57806379cc6790146102205780637d64bcb4146102445780638da5cb5b14610259578063a9059cbb1461028a578063d73dd623146102ae578063dd62ed3e146102d2578063f2fde38b146102f9575b600080fd5b3480156100f657600080fd5b506100ff61031a565b604080519115158252519081900360200190f35b34801561011f57600080fd5b506100ff600160a060020a036004351660243561033b565b34801561014357600080fd5b5061014c6103a1565b60408051918252519081900360200190f35b34801561016a57600080fd5b506100ff600160a060020a03600435811690602435166044356103a7565b34801561019457600080fd5b506100ff600160a060020a036004351660243561048c565b3480156101b857600080fd5b506101c460043561057e565b005b3480156101d257600080fd5b506100ff600160a060020a036004351660243561058b565b3480156101f657600080fd5b5061014c600160a060020a036004351661067a565b34801561021757600080fd5b506101c4610695565b34801561022c57600080fd5b506101c4600160a060020a0360043516602435610703565b34801561025057600080fd5b506100ff610711565b34801561026557600080fd5b5061026e6107b7565b60408051600160a060020a039092168252519081900360200190f35b34801561029657600080fd5b506100ff600160a060020a03600435166024356107c6565b3480156102ba57600080fd5b506100ff600160a060020a0360043516602435610893565b3480156102de57600080fd5b5061014c600160a060020a036004358116906024351661092c565b34801561030557600080fd5b506101c4600160a060020a0360043516610957565b60035474010000000000000000000000000000000000000000900460ff1681565b336000818152600260209081526040808320600160a060020a038716808552908352818420869055815186815291519394909390927f8c5be1e5ebec7d5bd14f71427d1e84f3dd0314c0f7b2291e5b200ac8c7c3b925928290030190a350600192915050565b60015490565b600160a060020a0383166000908152602081905260408120548211156103cc57600080fd5b600160a060020a03831615156103e157600080fd5b600160a060020a03841660009081526020819052604090205461040a908363ffffffff61097716565b600160a060020a03808616600090815260208190526040808220939093559085168152205461043f908363ffffffff61098916565b600160a060020a03808516600081815260208181526040918290209490945580518681529051919392881692600080516020610b0a83398151915292918290030190a35060019392505050565b60035460009074010000000000000000000000000000000000000000900460ff16156104b757600080fd5b6001546104ca908363ffffffff61098916565b600155600160a060020a0383166000908152602081905260409020546104f6908363ffffffff61098916565b600160a060020a03841660008181526020818152604091829020939093558051858152905191927f0f6798a560793a54c3bcfe86a93cde1e73087d944c0ea20544137d412139688592918290030190a2604080518381529051600160a060020a03851691600091600080516020610b0a8339815191529181900360200190a350600192915050565b610588338261099c565b50565b336000908152600260209081526040808320600160a060020a03861684529091528120548083106105df57336000908152600260209081526040808320600160a060020a0388168452909152812055610614565b6105ef818463ffffffff61097716565b336000908152600260209081526040808320600160a060020a03891684529091529020555b336000818152600260209081526040808320600160a060020a0389168085529083529281902054815190815290519293927f8c5be1e5ebec7d5bd14f71427d1e84f3dd0314c0f7b2291e5b200ac8c7c3b925929181900390910190a35060019392505050565b600160a060020a031660009081526020819052604090205490565b600354600160a060020a031633146106ac57600080fd5b600354604051600160a060020a03909116907ff8df31144d9c2f0f6b59d69b8b98abd5459d07f2742c4df920b25aae33c6482090600090a26003805473ffffffffffffffffffffffffffffffffffffffff19169055565b61070d828261099c565b5050565b600354600090600160a060020a0316331461072b57600080fd5b60035474010000000000000000000000000000000000000000900460ff161561075357600080fd5b6003805474ff00000000000000000000000000000000000000001916740100000000000000000000000000000000000000001790556040517fae5184fba832cb2b1f702aca6117b8d265eaf03ad33eb133f19dde0f5920fa0890600090a150600190565b600354600160a060020a031681565b336000908152602081905260408120548211156107e257600080fd5b600160a060020a03831615156107f757600080fd5b33600090815260208190526040902054610817908363ffffffff61097716565b3360009081526020819052604080822092909255600160a060020a03851681522054610849908363ffffffff61098916565b600160a060020a03841660008181526020818152604091829020939093558051858152905191923392600080516020610b0a8339815191529281900390910190a350600192915050565b336000908152600260209081526040808320600160a060020a03861684529091528120546108c7908363ffffffff61098916565b336000818152600260209081526040808320600160a060020a0389168085529083529281902085905580519485525191937f8c5be1e5ebec7d5bd14f71427d1e84f3dd0314c0f7b2291e5b200ac8c7c3b925929081900390910190a350600192915050565b600160a060020a03918216600090815260026020908152604080832093909416825291909152205490565b600354600160a060020a0316331461096e57600080fd5b61058881610a8b565b60008282111561098357fe5b50900390565b8181018281101561099657fe5b92915050565b600160a060020a0382166000908152602081905260409020548111156109c157600080fd5b600160a060020a0382166000908152602081905260409020546109ea908263ffffffff61097716565b600160a060020a038316600090815260208190526040902055600154610a16908263ffffffff61097716565b600155604080518281529051600160a060020a038416917fcc16f5dbb4873280815c1ee09dbd06736cffcc184412cf7a71a0fdb75d397ca5919081900360200190a2604080518281529051600091600160a060020a03851691600080516020610b0a8339815191529181900360200190a35050565b600160a060020a0381161515610aa057600080fd5b600354604051600160a060020a038084169216907f8be0079c531659141344cd1fd0a4f28419497f9722a3daafe3b4186f6b6457e090600090a36003805473ffffffffffffffffffffffffffffffffffffffff1916600160a060020a03929092169190911790555600ddf252ad1be2c89b69c2b068fc378daa952ba7f163c4a11628f55a4df523b3efa165627a7a7230582040e8f76bcab580ae5cf648a9e94aa610dd94c9a44524b530d7c05e4797eeaa1e0029",
  "source": "pragma solidity 0.4.24;\nimport './TimedCrowdsale.sol';\nimport '../utility/SafeMath.sol';\nimport '../Project.sol';\nimport '../token/ERC20/GNIToken.sol';\n\ncontract GNITokenCrowdsale is TimedCrowdsale {\n  using SafeMath for uint256;\n  uint256 public totalValuation;\n\n  constructor\n      (\n        uint256 _openingTime,\n        uint256 _doomsDay,\n        uint256 _rate,\n        address _developer,\n        GNIToken _token\n      )\n      public\n      Crowdsale(_rate, _developer, _token)\n      TimedCrowdsale(_openingTime, _doomsDay) {\n          totalValuation = 0;\n  }\n\n  event LogVotes (\n    address voter,\n    uint256 projectId,\n    uint256 amount\n    );\n\n\n  address[] public projects;\n\n  function getInfo(uint256 id) public view returns(\n    string, uint256, uint256, uint256, uint256, bool, uint256, uint256\n    ) {\n      address projectAddr = projects[id];\n      return (\n        Project(projectAddr).name(),\n        Project(projectAddr).valuation(),\n        Project(projectAddr).capitalRequired(),\n        Project(projectAddr).developerTokens(),\n        Project(projectAddr).investorTokens(),\n        Project(projectAddr).active(),\n        Project(projectAddr).voteCount(),\n        Project(projectAddr).closingTime()\n        );\n      }\n\n//after this, the developer has to approve this contract to spend the amount of inactive tokens associated with developers on its behalf\n function pitchProject(string _name, address _manager, uint capitalRequired, uint256 _valuation, string _lat, string _lng) public payable {\n   (uint256 developerTokens, uint256 investorTokens) = tokensToIssue(_valuation, capitalRequired);\n\n   GNIToken(inactiveToken_).mint(developer, developerTokens.add(investorTokens));\n   totalValuation = totalValuation.add(_valuation);\n\n     // Increase crowdsale duation by 90 days\n   _extendDoomsDay(90);\n\n    uint256 _id = projects.length;\n    //the following line causes a migration error...\n    address projectAddr = new Project(_id, _name, _manager, address(this), _valuation, capitalRequired, developerTokens, investorTokens, _lat, _lng);\n    projects.push(projectAddr);\n    Project(projectAddr).log();\n }\n\n function tokensToIssue (uint256 valuation, uint256 investorValue) private view returns (uint256, uint256) {\n   uint256 developerValue = valuation.sub(investorValue);\n\n   return (developerValue.mul(rate), investorValue.mul(rate));\n }\n\n //before this, the investor has to approve this contract to spend the amount of tokens they'll be buying on their behalf. this is needed to activate tokens later.\n function buyTokensAndVote (uint256 _projectVotedForId) public payable {\n   //add require statement that makes sure the projet isnt already active\n   buyTokens(msg.sender);\n   updateInvestor(_projectVotedForId);\n   Project(projects[_projectVotedForId]).update(msg.value);\n }\n\n struct Investor {\n   address addr;\n   uint256 id;\n   uint256 voteCredit;\n   //maps from projectId to number of votes for that project\n   mapping(uint256 => uint256) votes;\n }\n\n Investor[] public investors;\n mapping(address => uint256) internal investorIds;\n\n function updateInvestor (uint256 _projectId) private {\n   if (investorIds[msg.sender] == 0) {\n     Investor memory newInvestor;\n\n     newInvestor.addr = msg.sender;\n\n     uint256 id = investors.length;\n     newInvestor.id = id;\n     investorIds[msg.sender] = id;\n\n     investors.push(newInvestor);\n   }\n\n   updateInvestorVotes(_projectId);\n }\n\n function updateInvestorVotes(uint256 _projectId) internal {\n   investors[investorIds[msg.sender]].votes[_projectId] = investors[investorIds[msg.sender]].votes[_projectId].add(msg.value);\n   emit LogVotes(msg.sender, _projectId, msg.value);\n }\n\n function _extendDoomsDay(uint256 _days) internal onlyWhileOpen {\n    doomsDay = doomsDay.add(_days.mul(1728000));\n }\n\n function activateProject() public {\n    (uint256 projectId, bool canActivate) = projectToActivateDetails();\n\n    if(canActivate){\n      Project project = Project(projects[projectId]);\n\n      uint256 developerTokens = project.developerTokens_();\n      GNIToken(inactiveToken_).burnFrom(developer, developerTokens);\n      GNIToken(activeToken_).mint(developer, developerTokens);\n      updateInvestors(project.investorTokens_(), projectId);\n\n      forwardFunds(developer, project.capitalRequired_());\n      project.activate();\n    }\n  }\n\n  function projectToActivateDetails() private returns (uint256, bool) {\n    uint256 leadingProjectId;\n    bool candidateFound = false;\n\n    for(uint256 i = 0; i < projects.length; i = i.add(1)) {\n      if (Project(projects[i]).beats(projects[leadingProjectId])) {\n        leadingProjectId = i;\n        candidateFound = true;\n      }\n    }\n\n    return (leadingProjectId, candidateFound && Project(projects[leadingProjectId]).capitalRequired_() <= weiRaised);\n  }\n\n  function updateInvestors (uint256 tokens, uint256 projectId) private {\n    uint256 supply = GNIToken(inactiveToken_).totalSupply().sub(GNIToken(inactiveToken_).balanceOf(developer));\n    uint256 activationDivisor = supply.div(tokens);\n\n    for (uint256 i = 0; i <= investors.length; i = i.add(1)) {\n      Investor memory investor = investors[i];\n\n      /* uint256 investorBalance = GNIToken(inactiveToken_).balanceOf(investors[i].addr); */\n      /* uint256 tokensToActivate = investorBalance.div(activationDivisor); */\n      /* GNIToken(inactiveToken_).burnFrom(investors[i].addr, tokensToActivate);\n      GNIToken(activeToken_).mint(investors[i].addr, tokensToActivate);\n\n      uint256 voteCredit = investors[i].votes[projectId];\n      investors[i].votes[projectId] = 0;\n      investors[i].voteCredit = investors[i].voteCredit.add(voteCredit); */\n    }\n  }\n\n  function forwardFunds (address _to, uint256 amount) internal {\n    _to.transfer(amount);\n    weiRaised = weiRaised.sub(amount);\n  }\n\n  //we want this to be called on intervals\n  function distributeDividends () external {\n    //store the total amount of wei in a variable\n    //iterate through each investor.\n    //divide the total active tokens by the number of active investor tokens.\n    //divide the total wei by the resulting number to find out how much to wei to transfer\n    uint256 activeTokens = GNIToken(activeToken_).totalSupply();\n    uint256 profits = address(this).balance.sub(weiRaised);\n\n    for (uint256 i = 0; i <= investors.length; i = i.add(1)) {\n      Investor storage investor = investors[i];\n      grantDividend(investor.addr, activeTokens, profits);\n    }\n\n    grantDividend(developer, activeTokens, profits);\n  }\n\n  function grantDividend (address investor, uint256 activeTokens, uint256 profits) private {\n    uint256 investorShare = activeTokens.div(GNIToken(activeToken_).balanceOf(investor));\n    uint256 dividend = profits.div(investorShare);\n    investor.transfer(dividend);\n  }\n}\n",
  "sourcePath": "/Users/steven/genie-portal/truffle/contracts/crowdsale/GNITokenCrowdsale.sol",
  "compiler": {
    "name": "solc",
    "version": "0.4.24+commit.e67f0147.Emscripten.clang"
  },
  "schemaVersion": "2.0.1",
  "updatedAt": "2018-10-22T21:00:38.518Z"
}