{
  "contractName": "GNITokenCrowdsale",
  "abi": [
    {
      "constant": true,
      "inputs": [],
      "name": "hasClosed",
      "outputs": [
        {
          "name": "",
          "type": "bool"
        }
      ],
      "payable": false,
      "stateMutability": "view",
      "type": "function"
    },
    {
      "constant": true,
      "inputs": [],
      "name": "canReOpen",
      "outputs": [
        {
          "name": "",
          "type": "bool"
        }
      ],
      "payable": false,
      "stateMutability": "view",
      "type": "function"
    },
    {
      "constant": true,
      "inputs": [],
      "name": "projectLeaderTracker",
      "outputs": [
        {
          "name": "",
          "type": "address"
        }
      ],
      "payable": false,
      "stateMutability": "view",
      "type": "function"
    },
    {
      "constant": true,
      "inputs": [],
      "name": "dividendWallet",
      "outputs": [
        {
          "name": "",
          "type": "address"
        }
      ],
      "payable": false,
      "stateMutability": "view",
      "type": "function"
    },
    {
      "constant": true,
      "inputs": [],
      "name": "openingTime",
      "outputs": [
        {
          "name": "",
          "type": "uint256"
        }
      ],
      "payable": false,
      "stateMutability": "view",
      "type": "function"
    },
    {
      "constant": false,
      "inputs": [],
      "name": "allowReOpening",
      "outputs": [],
      "payable": false,
      "stateMutability": "nonpayable",
      "type": "function"
    },
    {
      "constant": true,
      "inputs": [],
      "name": "reimbursements",
      "outputs": [
        {
          "name": "",
          "type": "address"
        }
      ],
      "payable": false,
      "stateMutability": "view",
      "type": "function"
    },
    {
      "constant": true,
      "inputs": [],
      "name": "doomsDay",
      "outputs": [
        {
          "name": "",
          "type": "uint256"
        }
      ],
      "payable": false,
      "stateMutability": "view",
      "type": "function"
    },
    {
      "constant": false,
      "inputs": [],
      "name": "weiRaised_",
      "outputs": [
        {
          "name": "",
          "type": "uint256"
        }
      ],
      "payable": false,
      "stateMutability": "nonpayable",
      "type": "function"
    },
    {
      "constant": true,
      "inputs": [],
      "name": "token",
      "outputs": [
        {
          "name": "",
          "type": "address"
        }
      ],
      "payable": false,
      "stateMutability": "view",
      "type": "function"
    },
    {
      "constant": true,
      "inputs": [],
      "name": "voting",
      "outputs": [
        {
          "name": "",
          "type": "address"
        }
      ],
      "payable": false,
      "stateMutability": "view",
      "type": "function"
    },
    {
      "inputs": [
        {
          "name": "_openingTime",
          "type": "uint256"
        },
        {
          "name": "_doomsDay",
          "type": "uint256"
        },
        {
          "name": "_rate",
          "type": "uint256"
        },
        {
          "name": "_developer",
          "type": "address"
        },
        {
          "name": "_dividendWallet",
          "type": "address"
        },
        {
          "name": "_token",
          "type": "address"
        },
        {
          "name": "_projectLeaderTracker",
          "type": "address"
        },
        {
          "name": "_reimbursements",
          "type": "address"
        },
        {
          "name": "_voting",
          "type": "address"
        }
      ],
      "payable": false,
      "stateMutability": "nonpayable",
      "type": "constructor"
    },
    {
      "payable": true,
      "stateMutability": "payable",
      "type": "fallback"
    },
    {
      "anonymous": false,
      "inputs": [
        {
          "indexed": false,
          "name": "projectAddress",
          "type": "address"
        },
        {
          "indexed": false,
          "name": "developer",
          "type": "address"
        },
        {
          "indexed": false,
          "name": "title",
          "type": "string"
        },
        {
          "indexed": false,
          "name": "lat",
          "type": "string"
        },
        {
          "indexed": false,
          "name": "lng",
          "type": "string"
        },
        {
          "indexed": false,
          "name": "capitalRequired",
          "type": "uint256"
        },
        {
          "indexed": false,
          "name": "valuation",
          "type": "uint256"
        },
        {
          "indexed": false,
          "name": "developerTokens",
          "type": "uint256"
        },
        {
          "indexed": false,
          "name": "investorTokens",
          "type": "uint256"
        },
        {
          "indexed": false,
          "name": "totalProjectCount",
          "type": "uint256"
        }
      ],
      "name": "ProjectPitch",
      "type": "event"
    },
    {
      "anonymous": false,
      "inputs": [
        {
          "indexed": false,
          "name": "addr",
          "type": "address"
        },
        {
          "indexed": false,
          "name": "capitalRequired",
          "type": "uint256"
        },
        {
          "indexed": false,
          "name": "time",
          "type": "uint256"
        }
      ],
      "name": "ProjectActivation",
      "type": "event"
    },
    {
      "anonymous": false,
      "inputs": [
        {
          "indexed": true,
          "name": "purchaser",
          "type": "address"
        },
        {
          "indexed": true,
          "name": "beneficiary",
          "type": "address"
        },
        {
          "indexed": false,
          "name": "value",
          "type": "uint256"
        },
        {
          "indexed": false,
          "name": "amount",
          "type": "uint256"
        }
      ],
      "name": "TokenPurchase",
      "type": "event"
    },
    {
      "constant": true,
      "inputs": [],
      "name": "totalProjectCount_",
      "outputs": [
        {
          "name": "",
          "type": "uint256"
        }
      ],
      "payable": false,
      "stateMutability": "view",
      "type": "function"
    },
    {
      "constant": true,
      "inputs": [
        {
          "name": "id",
          "type": "uint256"
        }
      ],
      "name": "projectById",
      "outputs": [
        {
          "name": "",
          "type": "address"
        }
      ],
      "payable": false,
      "stateMutability": "view",
      "type": "function"
    },
    {
      "constant": false,
      "inputs": [
        {
          "name": "_title",
          "type": "string"
        },
        {
          "name": "capitalRequired",
          "type": "uint256"
        },
        {
          "name": "_valuation",
          "type": "uint256"
        },
        {
          "name": "_lat",
          "type": "string"
        },
        {
          "name": "_lng",
          "type": "string"
        },
        {
          "name": "_voteForHash",
          "type": "bytes32"
        },
        {
          "name": "_voteAgainstHash",
          "type": "bytes32"
        }
      ],
      "name": "pitchProject",
      "outputs": [],
      "payable": false,
      "stateMutability": "nonpayable",
      "type": "function"
    },
    {
      "constant": false,
      "inputs": [],
      "name": "buyTokens",
      "outputs": [],
      "payable": true,
      "stateMutability": "payable",
      "type": "function"
    },
    {
      "constant": false,
      "inputs": [
        {
          "name": "_beneficiary",
          "type": "address"
        }
      ],
      "name": "buyTokens",
      "outputs": [
        {
          "name": "",
          "type": "uint256"
        }
      ],
      "payable": true,
      "stateMutability": "payable",
      "type": "function"
    },
    {
      "constant": false,
      "inputs": [],
      "name": "activateProject",
      "outputs": [],
      "payable": false,
      "stateMutability": "nonpayable",
      "type": "function"
    },
    {
      "constant": false,
      "inputs": [],
      "name": "reimburseFunds",
      "outputs": [],
      "payable": false,
      "stateMutability": "nonpayable",
      "type": "function"
    },
    {
      "constant": false,
      "inputs": [
        {
          "name": "_days",
          "type": "uint256"
        }
      ],
      "name": "extendDoomsDay",
      "outputs": [],
      "payable": false,
      "stateMutability": "nonpayable",
      "type": "function"
    },
    {
      "constant": false,
      "inputs": [
        {
          "name": "_days",
          "type": "uint256"
        }
      ],
      "name": "reduceDoomsDay",
      "outputs": [],
      "payable": false,
      "stateMutability": "nonpayable",
      "type": "function"
    }
  ],
  "bytecode": "0x608060405234801561001057600080fd5b5060405161012080613df583398101806040528101908080519060200190929190805190602001909291908051906020019092919080519060200190929190805190602001909291908051906020019092919080519060200190929190805190602001909291908051906020019092919050505088888389898860008311151561009957600080fd5b600073ffffffffffffffffffffffffffffffffffffffff168273ffffffffffffffffffffffffffffffffffffffff16141515156100d557600080fd5b8260028190555081600160006101000a81548173ffffffffffffffffffffffffffffffffffffffff021916908373ffffffffffffffffffffffffffffffffffffffff160217905550806000806101000a81548173ffffffffffffffffffffffffffffffffffffffff021916908373ffffffffffffffffffffffffffffffffffffffff16021790555050505042831015151561016f57600080fd5b82821015151561017e57600080fd5b826004819055508160058190555080600660016101000a81548173ffffffffffffffffffffffffffffffffffffffff021916908373ffffffffffffffffffffffffffffffffffffffff16021790555050505080600860006101000a81548173ffffffffffffffffffffffffffffffffffffffff021916908373ffffffffffffffffffffffffffffffffffffffff16021790555082600760006101000a81548173ffffffffffffffffffffffffffffffffffffffff021916908373ffffffffffffffffffffffffffffffffffffffff16021790555084600960006101000a81548173ffffffffffffffffffffffffffffffffffffffff021916908373ffffffffffffffffffffffffffffffffffffffff160217905550505050505050505050613b4a806102ab6000396000f30060806040526004361062000127576000357c0100000000000000000000000000000000000000000000000000000000900463ffffffff168063034e390514620001295780630f1c1fe114620001995780631515bc2b14620001c95780631d112fba14620001fb57806320eeb32014620003235780632474525814620003555780633cb78fe014620003af57806350b7342f14620003c95780639ff8068a14620003e3578063b0e011641462000413578063b7a8807c146200046d578063bb9c0490146200049b578063bfa4893f14620004b5578063c19b7bc0146200050f578063c8ab525b146200053d578063d0febe4c146200056b578063e31bc6141462000577578063ec8ac4d814620005a5578063fc0c546a14620005f1578063fce1ccca146200064b575b005b3480156200013657600080fd5b506200015760048036038101908080359060200190929190505050620006a5565b604051808273ffffffffffffffffffffffffffffffffffffffff1673ffffffffffffffffffffffffffffffffffffffff16815260200191505060405180910390f35b348015620001a657600080fd5b50620001c760048036038101908080359060200190929190505050620006e2565b005b348015620001d657600080fd5b50620001e16200074d565b604051808215151515815260200191505060405180910390f35b3480156200020857600080fd5b5062000321600480360381019080803590602001908201803590602001908080601f01602080910402602001604051908101604052809392919081815260200183838082843782019150505050505091929192908035906020019092919080359060200190929190803590602001908201803590602001908080601f0160208091040260200160405190810160405280939291908181526020018383808284378201915050505050509192919290803590602001908201803590602001908080601f01602080910402602001604051908101604052809392919081815260200183838082843782019150505050505091929192908035600019169060200190929190803560001916906020019092919050505062000759565b005b3480156200033057600080fd5b506200033b62000f5c565b604051808215151515815260200191505060405180910390f35b3480156200036257600080fd5b506200036d62000f6f565b604051808273ffffffffffffffffffffffffffffffffffffffff1673ffffffffffffffffffffffffffffffffffffffff16815260200191505060405180910390f35b348015620003bc57600080fd5b50620003c762000f95565b005b348015620003d657600080fd5b50620003e162001627565b005b348015620003f057600080fd5b50620004116004803603810190808035906020019092919050505062001882565b005b3480156200042057600080fd5b506200042b6200194f565b604051808273ffffffffffffffffffffffffffffffffffffffff1673ffffffffffffffffffffffffffffffffffffffff16815260200191505060405180910390f35b3480156200047a57600080fd5b506200048562001975565b6040518082815260200191505060405180910390f35b348015620004a857600080fd5b50620004b36200197b565b005b348015620004c257600080fd5b50620004cd62001a08565b604051808273ffffffffffffffffffffffffffffffffffffffff1673ffffffffffffffffffffffffffffffffffffffff16815260200191505060405180910390f35b3480156200051c57600080fd5b506200052762001a2e565b6040518082815260200191505060405180910390f35b3480156200054a57600080fd5b506200055562001a34565b6040518082815260200191505060405180910390f35b6200057562001a3e565b005b3480156200058457600080fd5b506200058f62001b57565b6040518082815260200191505060405180910390f35b620005db600480360381019080803573ffffffffffffffffffffffffffffffffffffffff16906020019092919050505062001b61565b6040518082815260200191505060405180910390f35b348015620005fe57600080fd5b506200060962001d42565b604051808273ffffffffffffffffffffffffffffffffffffffff1673ffffffffffffffffffffffffffffffffffffffff16815260200191505060405180910390f35b3480156200065857600080fd5b506200066362001d67565b604051808273ffffffffffffffffffffffffffffffffffffffff1673ffffffffffffffffffffffffffffffffffffffff16815260200191505060405180910390f35b6000600a600083815260200190815260200160002060009054906101000a900473ffffffffffffffffffffffffffffffffffffffff169050919050565b600860009054906101000a900473ffffffffffffffffffffffffffffffffffffffff1673ffffffffffffffffffffffffffffffffffffffff163373ffffffffffffffffffffffffffffffffffffffff161415156200073f57600080fd5b6200074a8162001d8d565b50565b60006005544211905090565b60008060006200076a888a62001e28565b925092506000809054906101000a900473ffffffffffffffffffffffffffffffffffffffff1673ffffffffffffffffffffffffffffffffffffffff166340c10f19600160009054906101000a900473ffffffffffffffffffffffffffffffffffffffff16856040518363ffffffff167c0100000000000000000000000000000000000000000000000000000000028152600401808373ffffffffffffffffffffffffffffffffffffffff1673ffffffffffffffffffffffffffffffffffffffff16815260200182815260200192505050602060405180830381600087803b1580156200085557600080fd5b505af11580156200086a573d6000803e3d6000fd5b505050506040513d60208110156200088157600080fd5b8101908080519060200190929190505050506000809054906101000a900473ffffffffffffffffffffffffffffffffffffffff1673ffffffffffffffffffffffffffffffffffffffff166340c10f1930846040518363ffffffff167c0100000000000000000000000000000000000000000000000000000000028152600401808373ffffffffffffffffffffffffffffffffffffffff1673ffffffffffffffffffffffffffffffffffffffff16815260200182815260200192505050602060405180830381600087803b1580156200095857600080fd5b505af11580156200096d573d6000803e3d6000fd5b505050506040513d60208110156200098457600080fd5b810190808051906020019092919050505050620009a2605a62001d8d565b89600160009054906101000a900473ffffffffffffffffffffffffffffffffffffffff16600960009054906101000a900473ffffffffffffffffffffffffffffffffffffffff168a8c87878d8d8d8d620009fb62001ef1565b80806020018c73ffffffffffffffffffffffffffffffffffffffff1673ffffffffffffffffffffffffffffffffffffffff1681526020018b73ffffffffffffffffffffffffffffffffffffffff1673ffffffffffffffffffffffffffffffffffffffff1681526020018a815260200189815260200188815260200187815260200180602001806020018660001916600019168152602001856000191660001916815260200184810384528f818151815260200191508051906020019080838360005b8381101562000ada57808201518184015260208101905062000abd565b50505050905090810190601f16801562000b085780820380516001836020036101000a031916815260200191505b50848103835288818151815260200191508051906020019080838360005b8381101562000b4357808201518184015260208101905062000b26565b50505050905090810190601f16801562000b715780820380516001836020036101000a031916815260200191505b50848103825287818151815260200191508051906020019080838360005b8381101562000bac57808201518184015260208101905062000b8f565b50505050905090810190601f16801562000bda5780820380516001836020036101000a031916815260200191505b509e505050505050505050505050505050604051809103906000f08015801562000c08573d6000803e3d6000fd5b509050600760009054906101000a900473ffffffffffffffffffffffffffffffffffffffff1673ffffffffffffffffffffffffffffffffffffffff1663b1a1f2476040518163ffffffff167c0100000000000000000000000000000000000000000000000000000000028152600401600060405180830381600087803b15801562000c9257600080fd5b505af115801562000ca7573d6000803e3d6000fd5b5050505062000cc36001600b5462001e7e90919063ffffffff16565b600b8190555080600a6000600b54815260200190815260200160002060006101000a81548173ffffffffffffffffffffffffffffffffffffffff021916908373ffffffffffffffffffffffffffffffffffffffff1602179055507f5cd4e9bb532f36dce45b3000fa5ce545935a2d0d0d98f916530f0aafa2b4082881600160009054906101000a900473ffffffffffffffffffffffffffffffffffffffff168c8a8a8e8e8a8a600b54604051808b73ffffffffffffffffffffffffffffffffffffffff1673ffffffffffffffffffffffffffffffffffffffff1681526020018a73ffffffffffffffffffffffffffffffffffffffff1673ffffffffffffffffffffffffffffffffffffffff16815260200180602001806020018060200189815260200188815260200187815260200186815260200185815260200184810384528c818151815260200191508051906020019080838360005b8381101562000e3857808201518184015260208101905062000e1b565b50505050905090810190601f16801562000e665780820380516001836020036101000a031916815260200191505b5084810383528b818151815260200191508051906020019080838360005b8381101562000ea157808201518184015260208101905062000e84565b50505050905090810190601f16801562000ecf5780820380516001836020036101000a031916815260200191505b5084810382528a818151815260200191508051906020019080838360005b8381101562000f0a57808201518184015260208101905062000eed565b50505050905090810190601f16801562000f385780820380516001836020036101000a031916815260200191505b509d505050505050505050505050505060405180910390a150505050505050505050565b600660009054906101000a900460ff1681565b600760009054906101000a900473ffffffffffffffffffffffffffffffffffffffff1681565b6000806000806000600760009054906101000a900473ffffffffffffffffffffffffffffffffffffffff1673ffffffffffffffffffffffffffffffffffffffff1663af29f2f46040518163ffffffff167c01000000000000000000000000000000000000000000000000000000000281526004016040805180830381600087803b1580156200102357600080fd5b505af115801562001038573d6000803e3d6000fd5b505050506040513d60408110156200104f57600080fd5b810190808051906020019092919080519060200190929190505050945094506200107a6001620006a5565b92508273ffffffffffffffffffffffffffffffffffffffff1663d4cf7db66040518163ffffffff167c0100000000000000000000000000000000000000000000000000000000028152600401602060405180830381600087803b158015620010e157600080fd5b505af1158015620010f6573d6000803e3d6000fd5b505050506040513d60208110156200110d57600080fd5b810190808051906020019092919050505091508380156200113057506003548211155b8015620011db57508273ffffffffffffffffffffffffffffffffffffffff1663fcfff16f6040518163ffffffff167c0100000000000000000000000000000000000000000000000000000000028152600401602060405180830381600087803b1580156200119d57600080fd5b505af1158015620011b2573d6000803e3d6000fd5b505050506040513d6020811015620011c957600080fd5b81019080805190602001909291905050505b1562001620578273ffffffffffffffffffffffffffffffffffffffff16630f15f4c06040518163ffffffff167c0100000000000000000000000000000000000000000000000000000000028152600401602060405180830381600087803b1580156200124657600080fd5b505af11580156200125b573d6000803e3d6000fd5b505050506040513d60208110156200127257600080fd5b81019080805190602001909291905050509050600160009054906101000a900473ffffffffffffffffffffffffffffffffffffffff1673ffffffffffffffffffffffffffffffffffffffff166108fc839081150290604051600060405180830381858888f19350505050158015620012ee573d6000803e3d6000fd5b50620013068260035462001e9b90919063ffffffff16565b600381905550600760009054906101000a900473ffffffffffffffffffffffffffffffffffffffff1673ffffffffffffffffffffffffffffffffffffffff1663e53b61c96040518163ffffffff167c0100000000000000000000000000000000000000000000000000000000028152600401600060405180830381600087803b1580156200139357600080fd5b505af1158015620013a8573d6000803e3d6000fd5b505050506000809054906101000a900473ffffffffffffffffffffffffffffffffffffffff1673ffffffffffffffffffffffffffffffffffffffff166375a91587620015408573ffffffffffffffffffffffffffffffffffffffff1663d705f3876040518163ffffffff167c0100000000000000000000000000000000000000000000000000000000028152600401602060405180830381600087803b1580156200145257600080fd5b505af115801562001467573d6000803e3d6000fd5b505050506040513d60208110156200147e57600080fd5b81019080805190602001909291905050508673ffffffffffffffffffffffffffffffffffffffff1663929aebdf6040518163ffffffff167c0100000000000000000000000000000000000000000000000000000000028152600401602060405180830381600087803b158015620014f457600080fd5b505af115801562001509573d6000803e3d6000fd5b505050506040513d60208110156200152057600080fd5b810190808051906020019092919050505062001e7e90919063ffffffff16565b6040518263ffffffff167c010000000000000000000000000000000000000000000000000000000002815260040180828152602001915050600060405180830381600087803b1580156200159357600080fd5b505af1158015620015a8573d6000803e3d6000fd5b505050507f4a7532659dc13de2e8aa3255bf27f501a5842b14816f7d97c378e50fef955b07858383604051808473ffffffffffffffffffffffffffffffffffffffff1673ffffffffffffffffffffffffffffffffffffffff168152602001838152602001828152602001935050505060405180910390a15b5050505050565b620016316200074d565b15156200163d57600080fd5b600660019054906101000a900473ffffffffffffffffffffffffffffffffffffffff1673ffffffffffffffffffffffffffffffffffffffff166349dd12dd6003546040518263ffffffff167c01000000000000000000000000000000000000000000000000000000000281526004016000604051808303818588803b158015620016c657600080fd5b505af1158015620016db573d6000803e3d6000fd5b505050505060006003819055506000809054906101000a900473ffffffffffffffffffffffffffffffffffffffff1673ffffffffffffffffffffffffffffffffffffffff1663c4bc712a600160009054906101000a900473ffffffffffffffffffffffffffffffffffffffff166040518263ffffffff167c0100000000000000000000000000000000000000000000000000000000028152600401808273ffffffffffffffffffffffffffffffffffffffff1673ffffffffffffffffffffffffffffffffffffffff168152602001915050600060405180830381600087803b158015620017c757600080fd5b505af1158015620017dc573d6000803e3d6000fd5b50505050600760009054906101000a900473ffffffffffffffffffffffffffffffffffffffff1673ffffffffffffffffffffffffffffffffffffffff1663d826f88f6040518163ffffffff167c0100000000000000000000000000000000000000000000000000000000028152600401600060405180830381600087803b1580156200186757600080fd5b505af11580156200187c573d6000803e3d6000fd5b50505050565b60045442101580156200189757506005544211155b80620018af5750600660009054906101000a900460ff165b1515620018bb57600080fd5b600860009054906101000a900473ffffffffffffffffffffffffffffffffffffffff1673ffffffffffffffffffffffffffffffffffffffff163373ffffffffffffffffffffffffffffffffffffffff161415156200191857600080fd5b6200194662001934621a5e008362001eb590919063ffffffff16565b60055462001e9b90919063ffffffff16565b60058190555050565b600960009054906101000a900473ffffffffffffffffffffffffffffffffffffffff1681565b60045481565b600660019054906101000a900473ffffffffffffffffffffffffffffffffffffffff1673ffffffffffffffffffffffffffffffffffffffff163373ffffffffffffffffffffffffffffffffffffffff16148015620019df5750620019de6200074d565b5b1515620019eb57600080fd5b6001600660006101000a81548160ff021916908315150217905550565b600660019054906101000a900473ffffffffffffffffffffffffffffffffffffffff1681565b60055481565b6000600b54905090565b60008060009054906101000a900473ffffffffffffffffffffffffffffffffffffffff1673ffffffffffffffffffffffffffffffffffffffff16630d8654e8336040518263ffffffff167c0100000000000000000000000000000000000000000000000000000000028152600401808273ffffffffffffffffffffffffffffffffffffffff1673ffffffffffffffffffffffffffffffffffffffff168152602001915050602060405180830381600087803b15801562001afd57600080fd5b505af115801562001b12573d6000803e3d6000fd5b505050506040513d602081101562001b2957600080fd5b81019080805190602001909291905050505062001b463362001b61565b905062001b54605a62001d8d565b50565b6000600354905090565b6000806000349150600073ffffffffffffffffffffffffffffffffffffffff168473ffffffffffffffffffffffffffffffffffffffff161415151562001ba657600080fd5b6000821415151562001bb757600080fd5b62001bce6002548362001eb590919063ffffffff16565b905062001be78260035462001e7e90919063ffffffff16565b6003819055506000809054906101000a900473ffffffffffffffffffffffffffffffffffffffff1673ffffffffffffffffffffffffffffffffffffffff166309b38a5d85836040518363ffffffff167c0100000000000000000000000000000000000000000000000000000000028152600401808373ffffffffffffffffffffffffffffffffffffffff1673ffffffffffffffffffffffffffffffffffffffff16815260200182815260200192505050600060405180830381600087803b15801562001cb257600080fd5b505af115801562001cc7573d6000803e3d6000fd5b505050508373ffffffffffffffffffffffffffffffffffffffff163373ffffffffffffffffffffffffffffffffffffffff167f623b3804fa71d67900d064613da8f94b9617215ee90799290593e1745087ad188484604051808381526020018281526020019250505060405180910390a38092505050919050565b6000809054906101000a900473ffffffffffffffffffffffffffffffffffffffff1681565b600860009054906101000a900473ffffffffffffffffffffffffffffffffffffffff1681565b6000600454421015801562001da457506005544211155b8062001dbc5750600660009054906101000a900460ff165b151562001dc857600080fd5b62001df462001de4621a5e008462001eb590919063ffffffff16565b4262001e7e90919063ffffffff16565b905060055481111562001e2457806005819055506000600660006101000a81548160ff0219169083151502179055505b5050565b600080600062001e42848662001e9b90919063ffffffff16565b905062001e5b6002548262001eb590919063ffffffff16565b62001e726002548662001eb590919063ffffffff16565b92509250509250929050565b6000818301905082811015151562001e9257fe5b80905092915050565b600082821115151562001eaa57fe5b818303905092915050565b60008083141562001eca576000905062001eeb565b818302905081838281151562001edc57fe5b0414151562001ee757fe5b8090505b92915050565b604051611c1c8062001f0383390190560060806040523480156200001157600080fd5b5060405162001c1c38038062001c1c8339810180604052810190808051820192919060200180519060200190929190805190602001909291908051906020019092919080519060200190929190805190602001909291908051906020019092919080518201929190602001805182019291906020018051906020019092919080519060200190929190505050336000806101000a81548173ffffffffffffffffffffffffffffffffffffffff021916908373ffffffffffffffffffffffffffffffffffffffff1602179055508a60019080519060200190620000f59291906200021d565b5089600260006101000a81548173ffffffffffffffffffffffffffffffffffffffff021916908373ffffffffffffffffffffffffffffffffffffffff16021790555088600360006101000a81548173ffffffffffffffffffffffffffffffffffffffff021916908373ffffffffffffffffffffffffffffffffffffffff160217905550876005819055508660068190555085600781905550846008819055508360099080519060200190620001ac9291906200021d565b5082600a9080519060200190620001c59291906200021d565b506000600b819055506000600c60006101000a81548160ff02191690831515021790555063013d2380420160048190555081600e816000191690555080600f81600019169055505050505050505050505050620002cc565b828054600181600116156101000203166002900490600052602060002090601f016020900481019282601f106200026057805160ff191683800117855562000291565b8280016001018555821562000291579182015b828111156200029057825182559160200191906001019062000273565b5b509050620002a09190620002a4565b5090565b620002c991905b80821115620002c5576000816000905550600101620002ab565b5090565b90565b61194080620002dc6000396000f300608060405260043610610154576000357c0100000000000000000000000000000000000000000000000000000000900463ffffffff16806302fb0c5e146101595780630f15f4c01461018857806324c4322b146101b3578063272666e3146102465780632d06177a146102715780634d7c09dd146102b457806351973ec9146102e357806355d576cc146102fa5780635b184f881461038a5780636f62d405146103cd578063705c5be51461045d578063715018a6146104b857806379ec5d3a146104cf57806386cbaed8146105265780638da5cb5b1461058b578063929aebdf146105e2578063b0e011641461060d578063b1053da614610664578063c78243cf1461068f578063ce6a0880146106ba578063d0e30db014610707578063d4cf7db614610711578063d705f3871461073c578063da4493f614610767578063f2fde38b14610792578063fcfff16f146107d5575b600080fd5b34801561016557600080fd5b5061016e610804565b604051808215151515815260200191505060405180910390f35b34801561019457600080fd5b5061019d610817565b6040518082815260200191505060405180910390f35b3480156101bf57600080fd5b50610244600480360381019080803573ffffffffffffffffffffffffffffffffffffffff16906020019092919080359060200190929190803590602001908201803590602001908080601f016020809104026020016040519081016040528093929190818152602001838380828437820191505050505050919291929050505061089e565b005b34801561025257600080fd5b5061025b610a6a565b6040518082815260200191505060405180910390f35b34801561027d57600080fd5b506102b2600480360381019080803573ffffffffffffffffffffffffffffffffffffffff169060200190929190505050610a74565b005b3480156102c057600080fd5b506102c9610b86565b604051808215151515815260200191505060405180910390f35b3480156102ef57600080fd5b506102f8610b9d565b005b34801561030657600080fd5b5061030f610df0565b6040518080602001828103825283818151815260200191508051906020019080838360005b8381101561034f578082015181840152602081019050610334565b50505050905090810190601f16801561037c5780820380516001836020036101000a031916815260200191505b509250505060405180910390f35b34801561039657600080fd5b506103cb600480360381019080803573ffffffffffffffffffffffffffffffffffffffff169060200190929190505050610e8e565b005b3480156103d957600080fd5b506103e2610f89565b6040518080602001828103825283818151815260200191508051906020019080838360005b83811015610422578082015181840152602081019050610407565b50505050905090810190601f16801561044f5780820380516001836020036101000a031916815260200191505b509250505060405180910390f35b34801561046957600080fd5b5061049e600480360381019080803573ffffffffffffffffffffffffffffffffffffffff16906020019092919050505061102b565b604051808215151515815260200191505060405180910390f35b3480156104c457600080fd5b506104cd6110e5565b005b3480156104db57600080fd5b50610510600480360381019080803573ffffffffffffffffffffffffffffffffffffffff1690602001909291905050506111e7565b6040518082815260200191505060405180910390f35b34801561053257600080fd5b50610589600480360381019080803573ffffffffffffffffffffffffffffffffffffffff16906020019092919080359060200190929190803590602001908201803590602001919091929391929390505050611230565b005b34801561059757600080fd5b506105a0611475565b604051808273ffffffffffffffffffffffffffffffffffffffff1673ffffffffffffffffffffffffffffffffffffffff16815260200191505060405180910390f35b3480156105ee57600080fd5b506105f761149a565b6040518082815260200191505060405180910390f35b34801561061957600080fd5b506106226114a4565b604051808273ffffffffffffffffffffffffffffffffffffffff1673ffffffffffffffffffffffffffffffffffffffff16815260200191505060405180910390f35b34801561067057600080fd5b506106796114ca565b6040518082815260200191505060405180910390f35b34801561069b57600080fd5b506106a46114d4565b6040518082815260200191505060405180910390f35b3480156106c657600080fd5b50610705600480360381019080803573ffffffffffffffffffffffffffffffffffffffff169060200190929190803590602001909291905050506114de565b005b61070f611572565b005b34801561071d57600080fd5b50610726611628565b6040518082815260200191505060405180910390f35b34801561074857600080fd5b50610751611632565b6040518082815260200191505060405180910390f35b34801561077357600080fd5b5061077c61163c565b6040518082815260200191505060405180910390f35b34801561079e57600080fd5b506107d3600480360381019080803573ffffffffffffffffffffffffffffffffffffffff169060200190929190505050611642565b005b3480156107e157600080fd5b506107ea6116a9565b604051808215151515815260200191505060405180910390f35b600c60009054906101000a900460ff1681565b60008060009054906101000a900473ffffffffffffffffffffffffffffffffffffffff1673ffffffffffffffffffffffffffffffffffffffff163373ffffffffffffffffffffffffffffffffffffffff1614151561087457600080fd5b6001600c60006101000a81548160ff02191690831515021790555042600d81905550600d54905090565b60008060009054906101000a900473ffffffffffffffffffffffffffffffffffffffff1673ffffffffffffffffffffffffffffffffffffffff163373ffffffffffffffffffffffffffffffffffffffff161415156108fb57600080fd5b600f546000191673__ECRecovery____________________________6319045a259091846040518363ffffffff167c010000000000000000000000000000000000000000000000000000000002815260040180836000191660001916815260200180602001828103825283818151815260200191508051906020019080838360005b8381101561099857808201518184015260208101905061097d565b50505050905090810190601f1680156109c55780820380516001836020036101000a031916815260200191505b50935050505060206040518083038186803b1580156109e357600080fd5b505af41580156109f7573d6000803e3d6000fd5b505050506040513d6020811015610a0d57600080fd5b810190808051906020019092919050505090508373ffffffffffffffffffffffffffffffffffffffff168173ffffffffffffffffffffffffffffffffffffffff16141515610a5a57600080fd5b610a6484846116b5565b50505050565b6000600454905090565b60011515601160003373ffffffffffffffffffffffffffffffffffffffff1673ffffffffffffffffffffffffffffffffffffffff16815260200190815260200160002060009054906101000a900460ff1615151480610b205750600260009054906101000a900473ffffffffffffffffffffffffffffffffffffffff1673ffffffffffffffffffffffffffffffffffffffff163373ffffffffffffffffffffffffffffffffffffffff16145b1515610b2b57600080fd5b6001601160008373ffffffffffffffffffffffffffffffffffffffff1673ffffffffffffffffffffffffffffffffffffffff16815260200190815260200160002060006101000a81548160ff02191690831515021790555050565b6000600c60009054906101000a900460ff16905090565b7f618aac77ac61fdbff533123688fa5e33fe0d021db44eac318ae37b90c6f71d563060016005546006546007546008546009600a600b54600c60009054906101000a900460ff16604051808b73ffffffffffffffffffffffffffffffffffffffff1673ffffffffffffffffffffffffffffffffffffffff168152602001806020018a815260200189815260200188815260200187815260200180602001806020018681526020018515151515815260200184810384528d818154600181600116156101000203166002900481526020019150805460018160011615610100020316600290048015610ccf5780601f10610ca457610100808354040283529160200191610ccf565b820191906000526020600020905b815481529060010190602001808311610cb257829003601f168201915b5050848103835288818154600181600116156101000203166002900481526020019150805460018160011615610100020316600290048015610d525780601f10610d2757610100808354040283529160200191610d52565b820191906000526020600020905b815481529060010190602001808311610d3557829003601f168201915b5050848103825287818154600181600116156101000203166002900481526020019150805460018160011615610100020316600290048015610dd55780601f10610daa57610100808354040283529160200191610dd5565b820191906000526020600020905b815481529060010190602001808311610db857829003601f168201915b50509d505050505050505050505050505060405180910390a1565b60098054600181600116156101000203166002900480601f016020809104026020016040519081016040528092919081815260200182805460018160011615610100020316600290048015610e865780601f10610e5b57610100808354040283529160200191610e86565b820191906000526020600020905b815481529060010190602001808311610e6957829003601f168201915b505050505081565b60011515601160003373ffffffffffffffffffffffffffffffffffffffff1673ffffffffffffffffffffffffffffffffffffffff16815260200190815260200160002060009054906101000a900460ff1615151480610f3a5750600260009054906101000a900473ffffffffffffffffffffffffffffffffffffffff1673ffffffffffffffffffffffffffffffffffffffff163373ffffffffffffffffffffffffffffffffffffffff16145b1515610f4557600080fd5b80600360006101000a81548173ffffffffffffffffffffffffffffffffffffffff021916908373ffffffffffffffffffffffffffffffffffffffff16021790555050565b606060018054600181600116156101000203166002900480601f0160208091040260200160405190810160405280929190818152602001828054600181600116156101000203166002900480156110215780601f10610ff657610100808354040283529160200191611021565b820191906000526020600020905b81548152906001019060200180831161100457829003601f168201915b5050505050905090565b600080600b541180156110de57508173ffffffffffffffffffffffffffffffffffffffff1663c78243cf6040518163ffffffff167c0100000000000000000000000000000000000000000000000000000000028152600401602060405180830381600087803b15801561109d57600080fd5b505af11580156110b1573d6000803e3d6000fd5b505050506040513d60208110156110c757600080fd5b8101908080519060200190929190505050600b5410155b9050919050565b6000809054906101000a900473ffffffffffffffffffffffffffffffffffffffff1673ffffffffffffffffffffffffffffffffffffffff163373ffffffffffffffffffffffffffffffffffffffff1614151561114057600080fd5b6000809054906101000a900473ffffffffffffffffffffffffffffffffffffffff1673ffffffffffffffffffffffffffffffffffffffff167ff8df31144d9c2f0f6b59d69b8b98abd5459d07f2742c4df920b25aae33c6482060405160405180910390a260008060006101000a81548173ffffffffffffffffffffffffffffffffffffffff021916908373ffffffffffffffffffffffffffffffffffffffff160217905550565b6000601060008373ffffffffffffffffffffffffffffffffffffffff1673ffffffffffffffffffffffffffffffffffffffff168152602001908152602001600020549050919050565b60008060009054906101000a900473ffffffffffffffffffffffffffffffffffffffff1673ffffffffffffffffffffffffffffffffffffffff163373ffffffffffffffffffffffffffffffffffffffff1614151561128d57600080fd5b600e546000191673__ECRecovery____________________________6319045a25909185856040518463ffffffff167c0100000000000000000000000000000000000000000000000000000000028152600401808460001916600019168152602001806020018281038252848482818152602001925080828437820191505094505050505060206040518083038186803b15801561132a57600080fd5b505af415801561133e573d6000803e3d6000fd5b505050506040513d602081101561135457600080fd5b810190808051906020019092919050505090508473ffffffffffffffffffffffffffffffffffffffff168173ffffffffffffffffffffffffffffffffffffffff161415156113a157600080fd5b6113f384601060008873ffffffffffffffffffffffffffffffffffffffff1673ffffffffffffffffffffffffffffffffffffffff168152602001908152602001600020546117e590919063ffffffff16565b601060008773ffffffffffffffffffffffffffffffffffffffff1673ffffffffffffffffffffffffffffffffffffffff1681526020019081526020016000208190555061144b84600b546117e590919063ffffffff16565b600b8190555061146861a8c06004546117e590919063ffffffff16565b6004819055505050505050565b6000809054906101000a900473ffffffffffffffffffffffffffffffffffffffff1681565b6000600754905090565b600360009054906101000a900473ffffffffffffffffffffffffffffffffffffffff1681565b6000600d54905090565b6000600b54905090565b6000809054906101000a900473ffffffffffffffffffffffffffffffffffffffff1673ffffffffffffffffffffffffffffffffffffffff163373ffffffffffffffffffffffffffffffffffffffff1614151561153957600080fd5b6115416116a9565b15806115595750600c60009054906101000a900460ff165b151561156457600080fd5b61156e82826116b5565b5050565b600080341415151561158357600080fd5b349050600360009054906101000a900473ffffffffffffffffffffffffffffffffffffffff1673ffffffffffffffffffffffffffffffffffffffff166379fc4687826040518263ffffffff167c01000000000000000000000000000000000000000000000000000000000281526004016000604051808303818588803b15801561160c57600080fd5b505af1158015611620573d6000803e3d6000fd5b505050505050565b6000600654905090565b6000600854905090565b600d5481565b6000809054906101000a900473ffffffffffffffffffffffffffffffffffffffff1673ffffffffffffffffffffffffffffffffffffffff163373ffffffffffffffffffffffffffffffffffffffff1614151561169d57600080fd5b6116a681611801565b50565b60004260045411905090565b600b5481111515156116c657600080fd5b601060008373ffffffffffffffffffffffffffffffffffffffff1673ffffffffffffffffffffffffffffffffffffffff16815260200190815260200160002054811115151561171457600080fd5b61176681601060008573ffffffffffffffffffffffffffffffffffffffff1673ffffffffffffffffffffffffffffffffffffffff168152602001908152602001600020546118fb90919063ffffffff16565b601060008473ffffffffffffffffffffffffffffffffffffffff1673ffffffffffffffffffffffffffffffffffffffff168152602001908152602001600020819055506117be81600b546118fb90919063ffffffff16565b600b819055506117db61a8c06004546118fb90919063ffffffff16565b6004819055505050565b600081830190508281101515156117f857fe5b80905092915050565b600073ffffffffffffffffffffffffffffffffffffffff168173ffffffffffffffffffffffffffffffffffffffff161415151561183d57600080fd5b8073ffffffffffffffffffffffffffffffffffffffff166000809054906101000a900473ffffffffffffffffffffffffffffffffffffffff1673ffffffffffffffffffffffffffffffffffffffff167f8be0079c531659141344cd1fd0a4f28419497f9722a3daafe3b4186f6b6457e060405160405180910390a3806000806101000a81548173ffffffffffffffffffffffffffffffffffffffff021916908373ffffffffffffffffffffffffffffffffffffffff16021790555050565b600082821115151561190957fe5b8183039050929150505600a165627a7a72305820ec6619f0a80965345d243c6067b9ea8950b1e0ca883a5fbda1978ec0f7b2f21a0029a165627a7a72305820d3d8f8661c94baf21c43378611e350beb600965afadea0944ba454a17d72b0a80029",
  "source": "pragma solidity ^0.4.24;\nimport './TimedCrowdsale.sol';\nimport '../utility/SafeMath.sol';\nimport '../Project.sol';\nimport '../ProjectStub.sol';\nimport '../token/ERC20/Token.sol';\nimport '../Reimbursements.sol';\nimport '../ProjectLeaderTracker.sol';\nimport '../Voting.sol';\n\n\ncontract GNITokenCrowdsale is TimedCrowdsale {\n  using SafeMath for uint256;\n  /* using ECRecovery for bytes32; */\n  /* InvestorList public investorList; */\n  ProjectLeaderTracker public projectLeaderTracker;\n  Voting public voting;\n  address public dividendWallet;\n\n  constructor\n      (\n        uint256 _openingTime,\n        uint256 _doomsDay,\n        uint256 _rate,\n        address _developer,\n        address _dividendWallet,\n        Token _token,\n        /* InvestorList _investorList, */\n        ProjectLeaderTracker _projectLeaderTracker,\n        address _reimbursements,\n        Voting _voting\n      )\n      public\n      Crowdsale(_rate, _developer, _token)\n      TimedCrowdsale(_openingTime, _doomsDay, _reimbursements) {\n        /* investorList = InvestorList(_investorList); */\n        voting = _voting;\n        projectLeaderTracker = ProjectLeaderTracker(_projectLeaderTracker);\n        dividendWallet = _dividendWallet;\n  }\n\n  event ProjectPitch (\n    address projectAddress,\n    address developer,\n    string  title,\n    string  lat,\n    string  lng,\n    uint256 capitalRequired,\n    uint256 valuation,\n    uint256 developerTokens,\n    uint256 investorTokens,\n    uint256 totalProjectCount\n  );\n\n  /* mapping(address => bytes32) public voteHash;\n  mapping(address => bytes32) public removeVoteHash; */\n\n  mapping(uint256 => address) internal projectAddress;\n  uint256 internal totalProjectCount;\n\n  function totalProjectCount_() public view returns (uint256) {\n    return totalProjectCount;\n  }\n\n  function projectById (uint256 id) public view returns (address) {\n    return projectAddress[id];\n  }\n\n  function pitchProject(string _title, uint256 capitalRequired, uint256 _valuation, string _lat, string _lng, bytes32 _voteForHash, bytes32 _voteAgainstHash) public {//should only be callable by developer. may need more tests\n   (uint256 developerTokens, uint256 investorTokens) = tokensToMint(_valuation, capitalRequired);\n\n   Token(token).mint(developer, developerTokens);\n   Token(token).mint(this, investorTokens);\n\n   _extendDoomsDay(90);\n\n    address projectAddr = new Project(_title, developer, dividendWallet, _valuation, capitalRequired, developerTokens, investorTokens, _lat, _lng, _voteForHash, _voteAgainstHash);\n    projectLeaderTracker.handleProjectPitch();\n    totalProjectCount = totalProjectCount.add(1);\n    projectAddress[totalProjectCount] = projectAddr;\n\n    emit ProjectPitch(projectAddr, developer, _title, _lat, _lng, capitalRequired, _valuation, developerTokens, investorTokens, totalProjectCount);\n  }\n\n function tokensToMint (uint256 valuation, uint256 investorValue) private view returns (uint256, uint256) {\n   uint256 developerValue = valuation.sub(investorValue);\n   return (developerValue.mul(rate), investorValue.mul(rate));\n }\n\n //before this, we need to execute any pending token activations with the modifier above for the sender account. We need to do this so that the correct number of tokens are activated\n function buyTokens () public payable { //tests need to be removed/added to account for new functionality. we also may just put all the logic for the super function in here.\n   Token(token).activatePending(msg.sender);\n\n   uint256 voteCredit = super.buyTokens(msg.sender);\n   _extendDoomsDay(90);\n  }\n\n  event ProjectActivation (\n    address addr,\n    uint256 capitalRequired,\n    uint256 time\n  );\n\n\n function activateProject () public { //we need more tests for added functionality\n   (\n     address tentativeLeaderAddr,\n     bool tentativeLeaderConfirmed\n   ) = projectLeaderTracker.tentativeLeader();\n\n   Project project = Project(projectById(1));\n   uint256 capitalRequired = project.capitalRequired_();\n   if (\n     tentativeLeaderConfirmed &&\n     capitalRequired <= weiRaised &&\n     project.open()\n     ) {\n     uint256 time = project.activate();\n     //set the number of project votes to 0. */\n\n     developer.transfer(capitalRequired);\n     weiRaised = weiRaised.sub(capitalRequired);\n\n     projectLeaderTracker.handleProjectActivation();\n     Token(token).increasePendingActivations(project.developerTokens_().add(project.investorTokens_()));\n     emit ProjectActivation(tentativeLeaderAddr, capitalRequired, time);\n    }\n  }\n\n function reimburseFunds () public {\n   require(hasClosed());\n   Reimbursements(reimbursements).recordReimbursement.value(weiRaised)();\n   weiRaised = 0;\n   Token(token).resetInactiveTokenCycle(developer);\n   projectLeaderTracker.reset();\n }\n\n//we need to see if it creates a different hash every time...if the hash is exposed to the frontend it is not secure and anyone can use it to sign this transaction\n/* function voteForProject(address _project, address _voter, uint256 votes, bytes _signedMessage) public {\n  require(Token(token).existingAccount(_voter));\n\n  Project(_project).vote(_voter, votes, _signedMessage);\n  Token(token).assign(_voter, votes);\n  _extendDoomsDay(6);//this can be called externally\n  updateProjects(_project);\n}\n\nfunction voteAgainstProject(address _project, address _voter, uint256 votes, bytes _signedMessage) public {\n  Project(_project).voteAgainst(_voter, votes, _signedMessage);\n  handleVoteRemoval(_voter, _project, votes);\n}\n\n //this is for adding vote credit for each investor from the frontend after a project has been activated\n //call this function removeVotesFromIneligibleProject\n function removeVotesFromProject (address account, address fromProjectAddr) external {\n   uint256 votes = Project(fromProjectAddr).votesOf(account);\n   Project(fromProjectAddr).removeVotes(account, votes);\n   handleVoteRemoval(account, fromProjectAddr, votes);\n }\n\n function handleVoteRemoval (address account, address fromProjectAddr, uint256 votes) internal {\n   Token(token).freeUp(account, votes);\n   doomsDay = doomsDay.sub(43200);\n   updateProjects(fromProjectAddr);\n} */\n\n //we will test this separately\n /* function authenticateVoter(bytes _signedMessage, address voter, bytes32 unsignedMessage) internal {\n   address recoveredVoter = unsignedMessage.recover(_signedMessage);\n   require(recoveredVoter == voter);\n   /* require(investorList.validAccount(voter));//token.existingAccount */\n /* }  */\n\n /* function updateProjects (address votedForProj) internal {\n   projectLeaderTracker.trackProject(votedForProj);\n   /* activateProject(); */\n /* }  */\n\n //tests need to be updated\n\n function extendDoomsDay (uint256 _days) external {\n   require(msg.sender == address(Voting(voting)));\n   _extendDoomsDay(_days);\n }\n\n function _extendDoomsDay(uint256 _days) internal canExtendDoomsDay {\n    uint256 newDoomsDay = now.add(_days.mul(1728000));\n    if (newDoomsDay > doomsDay) {\n      doomsDay = newDoomsDay;\n      canReOpen = false;\n    }\n }\n\n function reduceDoomsDay (uint256 _days) public canExtendDoomsDay {\n   require(msg.sender == address(Voting(voting)));\n   doomsDay = doomsDay.sub(_days.mul(1728000));\n }\n  /* function forwardFunds (address _to, uint256 amount) internal {\n    _to.transfer(amount);\n  } */\n}\n\n/* function transferVotes (address fromProjectAddr, address toProjectAddr, uint256 votes) external {\n  Project fromProj = Project(fromProjectAddr);\n  Project toProj = Project(toProjectAddr);\n\n  fromProj.removeVotes(msg.sender, votes);\n  toProj.vote(msg.sender, votes);\n\n  fromProj.log();\n  toProj.log();\n} */\n\n/* function getInfo(uint256 id) public view returns(address) {\n    /* string, uint256, uint256, uint256, uint256, bool, uint256, uint256, address */\n    /* address projectAddr = projectAddrs[id]; */\n    /* return ( */\n      /* return Project(projectAddr).dividendWallet(); */\n      /* Project(projectAddr).name(),\n      Project(projectAddr).valuation(),\n      Project(projectAddr).capitalRequired(),\n      Project(projectAddr).developerTokens(),\n      Project(projectAddr).investorTokens(),\n      Project(projectAddr).active(),\n      Project(projectAddr).totalVotes(),\n      /* Project(projectAddr).closingTime(), */\n      /* projectAddr */\n      /* ); */\n    /* }  */\n\n    /* event VoteAddition (\n      uint256 voteAdditions,\n      uint256 num\n    );\n\n\n    event VoteRemoval (\n      uint256 voteRemovals\n    );\n\n    uint256 voteAdditions;\n    uint256 voteRemovals; */\n",
  "sourcePath": "/Users/matsteelelap/Desktop/ProjectFolder/genie-portal/truffle/contracts/crowdsale/GNITokenCrowdsale.sol",
  "compiler": {
    "name": "solc",
    "version": "0.4.24+commit.e67f0147.Emscripten.clang"
  },
  "schemaVersion": "2.0.1",
  "updatedAt": "2019-01-19T19:53:24.803Z"
}