{
  "contractName": "GNITokenCrowdsale",
  "abi": [
    {
      "constant": true,
      "inputs": [],
      "name": "tentativeLeaderAddr",
      "outputs": [
        {
          "name": "",
          "type": "address"
        }
      ],
      "payable": false,
      "stateMutability": "view",
      "type": "function"
    },
    {
      "constant": true,
      "inputs": [],
      "name": "hasClosed",
      "outputs": [
        {
          "name": "",
          "type": "bool"
        }
      ],
      "payable": false,
      "stateMutability": "view",
      "type": "function"
    },
    {
      "constant": true,
      "inputs": [],
      "name": "totalValuation",
      "outputs": [
        {
          "name": "",
          "type": "uint256"
        }
      ],
      "payable": false,
      "stateMutability": "view",
      "type": "function"
    },
    {
      "constant": true,
      "inputs": [],
      "name": "tentativeLeaderConfirmed",
      "outputs": [
        {
          "name": "",
          "type": "bool"
        }
      ],
      "payable": false,
      "stateMutability": "view",
      "type": "function"
    },
    {
      "constant": true,
      "inputs": [],
      "name": "inactiveProjectCount",
      "outputs": [
        {
          "name": "",
          "type": "uint256"
        }
      ],
      "payable": false,
      "stateMutability": "view",
      "type": "function"
    },
    {
      "constant": true,
      "inputs": [],
      "name": "totalVotesCast",
      "outputs": [
        {
          "name": "",
          "type": "uint256"
        }
      ],
      "payable": false,
      "stateMutability": "view",
      "type": "function"
    },
    {
      "constant": true,
      "inputs": [],
      "name": "investorList",
      "outputs": [
        {
          "name": "",
          "type": "address"
        }
      ],
      "payable": false,
      "stateMutability": "view",
      "type": "function"
    },
    {
      "constant": true,
      "inputs": [],
      "name": "tentativeLeaderCapRequired",
      "outputs": [
        {
          "name": "",
          "type": "uint256"
        }
      ],
      "payable": false,
      "stateMutability": "view",
      "type": "function"
    },
    {
      "constant": true,
      "inputs": [],
      "name": "dividendWallet",
      "outputs": [
        {
          "name": "",
          "type": "address"
        }
      ],
      "payable": false,
      "stateMutability": "view",
      "type": "function"
    },
    {
      "constant": true,
      "inputs": [],
      "name": "openingTime",
      "outputs": [
        {
          "name": "",
          "type": "uint256"
        }
      ],
      "payable": false,
      "stateMutability": "view",
      "type": "function"
    },
    {
      "constant": true,
      "inputs": [],
      "name": "reimbursements",
      "outputs": [
        {
          "name": "",
          "type": "address"
        }
      ],
      "payable": false,
      "stateMutability": "view",
      "type": "function"
    },
    {
      "constant": true,
      "inputs": [],
      "name": "doomsDay",
      "outputs": [
        {
          "name": "",
          "type": "uint256"
        }
      ],
      "payable": false,
      "stateMutability": "view",
      "type": "function"
    },
    {
      "constant": false,
      "inputs": [],
      "name": "weiRaised_",
      "outputs": [
        {
          "name": "",
          "type": "uint256"
        }
      ],
      "payable": false,
      "stateMutability": "nonpayable",
      "type": "function"
    },
    {
      "constant": true,
      "inputs": [],
      "name": "token",
      "outputs": [
        {
          "name": "",
          "type": "address"
        }
      ],
      "payable": false,
      "stateMutability": "view",
      "type": "function"
    },
    {
      "inputs": [
        {
          "name": "_openingTime",
          "type": "uint256"
        },
        {
          "name": "_doomsDay",
          "type": "uint256"
        },
        {
          "name": "_rate",
          "type": "uint256"
        },
        {
          "name": "_developer",
          "type": "address"
        },
        {
          "name": "_dividendWallet",
          "type": "address"
        },
        {
          "name": "_token",
          "type": "address"
        },
        {
          "name": "_investorList",
          "type": "address"
        },
        {
          "name": "_reimbursements",
          "type": "address"
        }
      ],
      "payable": false,
      "stateMutability": "nonpayable",
      "type": "constructor"
    },
    {
      "payable": true,
      "stateMutability": "payable",
      "type": "fallback"
    },
    {
      "anonymous": false,
      "inputs": [
        {
          "indexed": true,
          "name": "purchaser",
          "type": "address"
        },
        {
          "indexed": true,
          "name": "beneficiary",
          "type": "address"
        },
        {
          "indexed": false,
          "name": "value",
          "type": "uint256"
        },
        {
          "indexed": false,
          "name": "amount",
          "type": "uint256"
        }
      ],
      "name": "TokenPurchase",
      "type": "event"
    },
    {
      "constant": false,
      "inputs": [
        {
          "name": "_name",
          "type": "string"
        },
        {
          "name": "capitalRequired",
          "type": "uint256"
        },
        {
          "name": "_valuation",
          "type": "uint256"
        },
        {
          "name": "_lat",
          "type": "string"
        },
        {
          "name": "_lng",
          "type": "string"
        }
      ],
      "name": "pitchProject",
      "outputs": [
        {
          "name": "",
          "type": "address"
        }
      ],
      "payable": false,
      "stateMutability": "nonpayable",
      "type": "function"
    },
    {
      "constant": false,
      "inputs": [],
      "name": "buyTokens",
      "outputs": [],
      "payable": true,
      "stateMutability": "payable",
      "type": "function"
    },
    {
      "constant": false,
      "inputs": [
        {
          "name": "_beneficiary",
          "type": "address"
        }
      ],
      "name": "buyTokens",
      "outputs": [
        {
          "name": "",
          "type": "uint256"
        }
      ],
      "payable": true,
      "stateMutability": "payable",
      "type": "function"
    },
    {
      "constant": false,
      "inputs": [
        {
          "name": "projectAddr",
          "type": "address"
        }
      ],
      "name": "considerTentativeLeaderShip",
      "outputs": [],
      "payable": false,
      "stateMutability": "nonpayable",
      "type": "function"
    },
    {
      "constant": false,
      "inputs": [],
      "name": "attemptProjectActivation",
      "outputs": [],
      "payable": false,
      "stateMutability": "nonpayable",
      "type": "function"
    },
    {
      "constant": false,
      "inputs": [],
      "name": "reimburseFunds",
      "outputs": [],
      "payable": false,
      "stateMutability": "nonpayable",
      "type": "function"
    },
    {
      "constant": false,
      "inputs": [
        {
          "name": "fromProjectAddr",
          "type": "address"
        },
        {
          "name": "votes",
          "type": "uint256"
        }
      ],
      "name": "addVoteCredit",
      "outputs": [],
      "payable": false,
      "stateMutability": "nonpayable",
      "type": "function"
    },
    {
      "constant": false,
      "inputs": [
        {
          "name": "account",
          "type": "address"
        },
        {
          "name": "fromProjectAddr",
          "type": "address"
        }
      ],
      "name": "addVoteCreditTo",
      "outputs": [],
      "payable": false,
      "stateMutability": "nonpayable",
      "type": "function"
    },
    {
      "constant": false,
      "inputs": [
        {
          "name": "toProjectAddr",
          "type": "address"
        },
        {
          "name": "votes",
          "type": "uint256"
        }
      ],
      "name": "voteWithCredit",
      "outputs": [],
      "payable": false,
      "stateMutability": "nonpayable",
      "type": "function"
    }
  ],
  "bytecode": "0x608060405234801561001057600080fd5b506040516101008062003e048339810180604052810190808051906020019092919080519060200190929190805190602001909291908051906020019092919080519060200190929190805190602001909291908051906020019092919080519060200190929190505050878787878660008311151561008f57600080fd5b600073ffffffffffffffffffffffffffffffffffffffff168273ffffffffffffffffffffffffffffffffffffffff16141515156100cb57600080fd5b8260028190555081600160006101000a81548173ffffffffffffffffffffffffffffffffffffffff021916908373ffffffffffffffffffffffffffffffffffffffff160217905550806000806101000a81548173ffffffffffffffffffffffffffffffffffffffff021916908373ffffffffffffffffffffffffffffffffffffffff16021790555050505042821015151561016557600080fd5b81811015151561017457600080fd5b8160048190555080600581905550505081600760006101000a81548173ffffffffffffffffffffffffffffffffffffffff021916908373ffffffffffffffffffffffffffffffffffffffff160217905550600060068190555083600860006101000a81548173ffffffffffffffffffffffffffffffffffffffff021916908373ffffffffffffffffffffffffffffffffffffffff16021790555080600960006101000a81548173ffffffffffffffffffffffffffffffffffffffff021916908373ffffffffffffffffffffffffffffffffffffffff1602179055505050505050505050613b9d80620002676000396000f3006080604052600436106200014b576000357c0100000000000000000000000000000000000000000000000000000000900463ffffffff16806303a46aa9146200014d5780631515bc2b14620001a7578063295b930014620001d957806350b7342f146200020757806356bf9efb146200022157806365af16721462000253578063708a514c146200039f5780637de418d514620003cd578063a1e7c81e14620003fb578063a1f8adac1462000461578063a27b59e714620004bb578063ad8f256f14620004e9578063b0e011641462000539578063b7a8807c1462000593578063bfa4893f14620005c1578063c19b7bc0146200061b578063d0febe4c1462000649578063d43e47a61462000655578063e31bc61414620006a5578063ec8ac4d814620006d3578063f89b4b1f146200071f578063f9a59a991462000739578063fc0c546a146200077f575b005b3480156200015a57600080fd5b5062000165620007d9565b604051808273ffffffffffffffffffffffffffffffffffffffff1673ffffffffffffffffffffffffffffffffffffffff16815260200191505060405180910390f35b348015620001b457600080fd5b50620001bf620007ff565b604051808215151515815260200191505060405180910390f35b348015620001e657600080fd5b50620001f16200080b565b6040518082815260200191505060405180910390f35b3480156200021457600080fd5b506200021f62000811565b005b3480156200022e57600080fd5b50620002396200093c565b604051808215151515815260200191505060405180910390f35b3480156200026057600080fd5b506200035d600480360381019080803590602001908201803590602001908080601f01602080910402602001604051908101604052809392919081815260200183838082843782019150505050505091929192908035906020019092919080359060200190929190803590602001908201803590602001908080601f0160208091040260200160405190810160405280939291908181526020018383808284378201915050505050509192919290803590602001908201803590602001908080601f01602080910402602001604051908101604052809392919081815260200183838082843782019150505050505091929192905050506200094f565b604051808273ffffffffffffffffffffffffffffffffffffffff1673ffffffffffffffffffffffffffffffffffffffff16815260200191505060405180910390f35b348015620003ac57600080fd5b50620003b762000eaa565b6040518082815260200191505060405180910390f35b348015620003da57600080fd5b50620003e562000eb0565b6040518082815260200191505060405180910390f35b3480156200040857600080fd5b506200045f600480360381019080803573ffffffffffffffffffffffffffffffffffffffff169060200190929190803573ffffffffffffffffffffffffffffffffffffffff16906020019092919050505062000eb6565b005b3480156200046e57600080fd5b506200047962001103565b604051808273ffffffffffffffffffffffffffffffffffffffff1673ffffffffffffffffffffffffffffffffffffffff16815260200191505060405180910390f35b348015620004c857600080fd5b50620004d362001129565b6040518082815260200191505060405180910390f35b348015620004f657600080fd5b5062000537600480360381019080803573ffffffffffffffffffffffffffffffffffffffff169060200190929190803590602001909291905050506200112f565b005b3480156200054657600080fd5b506200055162001140565b604051808273ffffffffffffffffffffffffffffffffffffffff1673ffffffffffffffffffffffffffffffffffffffff16815260200191505060405180910390f35b348015620005a057600080fd5b50620005ab62001166565b6040518082815260200191505060405180910390f35b348015620005ce57600080fd5b50620005d96200116c565b604051808273ffffffffffffffffffffffffffffffffffffffff1673ffffffffffffffffffffffffffffffffffffffff16815260200191505060405180910390f35b3480156200062857600080fd5b506200063362001192565b6040518082815260200191505060405180910390f35b6200065362001198565b005b3480156200066257600080fd5b50620006a3600480360381019080803573ffffffffffffffffffffffffffffffffffffffff1690602001909291908035906020019092919050505062001467565b005b348015620006b257600080fd5b50620006bd620016b3565b6040518082815260200191505060405180910390f35b62000709600480360381019080803573ffffffffffffffffffffffffffffffffffffffff169060200190929190505050620016bd565b6040518082815260200191505060405180910390f35b3480156200072c57600080fd5b506200073762001850565b005b3480156200074657600080fd5b506200077d600480360381019080803573ffffffffffffffffffffffffffffffffffffffff16906020019092919050505062001951565b005b3480156200078c57600080fd5b506200079762001dac565b604051808273ffffffffffffffffffffffffffffffffffffffff1673ffffffffffffffffffffffffffffffffffffffff16815260200191505060405180910390f35b600b60009054906101000a900473ffffffffffffffffffffffffffffffffffffffff1681565b60006005544211905090565b60065481565b6200081b620007ff565b15156200082757600080fd5b600960009054906101000a900473ffffffffffffffffffffffffffffffffffffffff1673ffffffffffffffffffffffffffffffffffffffff166108fc6003549081150290604051600060405180830381858888f1935050505015801562000892573d6000803e3d6000fd5b5060006003819055506000809054906101000a900473ffffffffffffffffffffffffffffffffffffffff1673ffffffffffffffffffffffffffffffffffffffff1663ca8164df6040518163ffffffff167c0100000000000000000000000000000000000000000000000000000000028152600401600060405180830381600087803b1580156200092157600080fd5b505af115801562000936573d6000803e3d6000fd5b50505050565b600d60009054906101000a900460ff1681565b60008060008062000961878962001dd1565b925092506000809054906101000a900473ffffffffffffffffffffffffffffffffffffffff1673ffffffffffffffffffffffffffffffffffffffff166340c10f19600160009054906101000a900473ffffffffffffffffffffffffffffffffffffffff16856040518363ffffffff167c0100000000000000000000000000000000000000000000000000000000028152600401808373ffffffffffffffffffffffffffffffffffffffff1673ffffffffffffffffffffffffffffffffffffffff16815260200182815260200192505050602060405180830381600087803b15801562000a4c57600080fd5b505af115801562000a61573d6000803e3d6000fd5b505050506040513d602081101562000a7857600080fd5b8101908080519060200190929190505050506000809054906101000a900473ffffffffffffffffffffffffffffffffffffffff1673ffffffffffffffffffffffffffffffffffffffff166340c10f1930846040518363ffffffff167c0100000000000000000000000000000000000000000000000000000000028152600401808373ffffffffffffffffffffffffffffffffffffffff1673ffffffffffffffffffffffffffffffffffffffff16815260200182815260200192505050602060405180830381600087803b15801562000b4f57600080fd5b505af115801562000b64573d6000803e3d6000fd5b505050506040513d602081101562000b7b57600080fd5b81019080805190602001909291905050505062000ba48760065462001e2790919063ffffffff16565b60068190555062000bb6605a62001e44565b88600160009054906101000a900473ffffffffffffffffffffffffffffffffffffffff16600860009054906101000a900473ffffffffffffffffffffffffffffffffffffffff16898b87878c8c62000c0d620029e8565b80806020018a73ffffffffffffffffffffffffffffffffffffffff1673ffffffffffffffffffffffffffffffffffffffff1681526020018973ffffffffffffffffffffffffffffffffffffffff1673ffffffffffffffffffffffffffffffffffffffff168152602001888152602001878152602001868152602001858152602001806020018060200184810384528d818151815260200191508051906020019080838360005b8381101562000cd057808201518184015260208101905062000cb3565b50505050905090810190601f16801562000cfe5780820380516001836020036101000a031916815260200191505b50848103835286818151815260200191508051906020019080838360005b8381101562000d3957808201518184015260208101905062000d1c565b50505050905090810190601f16801562000d675780820380516001836020036101000a031916815260200191505b50848103825285818151815260200191508051906020019080838360005b8381101562000da257808201518184015260208101905062000d85565b50505050905090810190601f16801562000dd05780820380516001836020036101000a031916815260200191505b509c50505050505050505050505050604051809103906000f08015801562000dfc573d6000803e3d6000fd5b50905062000e176001600a5462001e2790919063ffffffff16565b600a819055508073ffffffffffffffffffffffffffffffffffffffff166351973ec96040518163ffffffff167c0100000000000000000000000000000000000000000000000000000000028152600401600060405180830381600087803b15801562000e8257600080fd5b505af115801562000e97573d6000803e3d6000fd5b5050505080935050505095945050505050565b600a5481565b60105481565b6000808291508173ffffffffffffffffffffffffffffffffffffffff1663fcfff16f6040518163ffffffff167c0100000000000000000000000000000000000000000000000000000000028152600401602060405180830381600087803b15801562000f2157600080fd5b505af115801562000f36573d6000803e3d6000fd5b505050506040513d602081101562000f4d57600080fd5b810190808051906020019092919050505015806200100957508173ffffffffffffffffffffffffffffffffffffffff16634d7c09dd6040518163ffffffff167c0100000000000000000000000000000000000000000000000000000000028152600401602060405180830381600087803b15801562000fcb57600080fd5b505af115801562000fe0573d6000803e3d6000fd5b505050506040513d602081101562000ff757600080fd5b81019080805190602001909291905050505b15156200101557600080fd5b8173ffffffffffffffffffffffffffffffffffffffff166379ec5d3a856040518263ffffffff167c0100000000000000000000000000000000000000000000000000000000028152600401808273ffffffffffffffffffffffffffffffffffffffff1673ffffffffffffffffffffffffffffffffffffffff168152602001915050602060405180830381600087803b158015620010b157600080fd5b505af1158015620010c6573d6000803e3d6000fd5b505050506040513d6020811015620010dd57600080fd5b81019080805190602001909291905050509050620010fd84848362001eb1565b50505050565b600760009054906101000a900473ffffffffffffffffffffffffffffffffffffffff1681565b600c5481565b6200113c33838362001eb1565b5050565b600860009054906101000a900473ffffffffffffffffffffffffffffffffffffffff1681565b60045481565b600960009054906101000a900473ffffffffffffffffffffffffffffffffffffffff1681565b60055481565b60008060009054906101000a900473ffffffffffffffffffffffffffffffffffffffff1673ffffffffffffffffffffffffffffffffffffffff16630d8654e8336040518263ffffffff167c0100000000000000000000000000000000000000000000000000000000028152600401808273ffffffffffffffffffffffffffffffffffffffff1673ffffffffffffffffffffffffffffffffffffffff168152602001915050602060405180830381600087803b1580156200125757600080fd5b505af11580156200126c573d6000803e3d6000fd5b505050506040513d60208110156200128357600080fd5b810190808051906020019092919050505050620012a033620016bd565b9050600760009054906101000a900473ffffffffffffffffffffffffffffffffffffffff1673ffffffffffffffffffffffffffffffffffffffff1663e641bde1336040518263ffffffff167c0100000000000000000000000000000000000000000000000000000000028152600401808273ffffffffffffffffffffffffffffffffffffffff1673ffffffffffffffffffffffffffffffffffffffff168152602001915050600060405180830381600087803b1580156200136057600080fd5b505af115801562001375573d6000803e3d6000fd5b50505050600760009054906101000a900473ffffffffffffffffffffffffffffffffffffffff1673ffffffffffffffffffffffffffffffffffffffff1663ad8f256f33836040518363ffffffff167c0100000000000000000000000000000000000000000000000000000000028152600401808373ffffffffffffffffffffffffffffffffffffffff1673ffffffffffffffffffffffffffffffffffffffff16815260200182815260200192505050600060405180830381600087803b1580156200143f57600080fd5b505af115801562001454573d6000803e3d6000fd5b5050505062001464605a62001e44565b50565b6000600760009054906101000a900473ffffffffffffffffffffffffffffffffffffffff1673ffffffffffffffffffffffffffffffffffffffff1663595f4a2533846040518363ffffffff167c0100000000000000000000000000000000000000000000000000000000028152600401808373ffffffffffffffffffffffffffffffffffffffff1673ffffffffffffffffffffffffffffffffffffffff16815260200182815260200192505050600060405180830381600087803b1580156200152f57600080fd5b505af115801562001544573d6000803e3d6000fd5b505050508290508073ffffffffffffffffffffffffffffffffffffffff16635f74bbde33846040518363ffffffff167c0100000000000000000000000000000000000000000000000000000000028152600401808373ffffffffffffffffffffffffffffffffffffffff1673ffffffffffffffffffffffffffffffffffffffff16815260200182815260200192505050600060405180830381600087803b158015620015ef57600080fd5b505af115801562001604573d6000803e3d6000fd5b505050506200161f8260105462001e2790919063ffffffff16565b6010819055508073ffffffffffffffffffffffffffffffffffffffff166351973ec96040518163ffffffff167c0100000000000000000000000000000000000000000000000000000000028152600401600060405180830381600087803b1580156200168a57600080fd5b505af11580156200169f573d6000803e3d6000fd5b50505050620016ae83620020fe565b505050565b6000600354905090565b6000806000349150620016d1848362002116565b620016dc826200215c565b9050620016f58260035462001e2790919063ffffffff16565b6003819055506000809054906101000a900473ffffffffffffffffffffffffffffffffffffffff1673ffffffffffffffffffffffffffffffffffffffff166309b38a5d85836040518363ffffffff167c0100000000000000000000000000000000000000000000000000000000028152600401808373ffffffffffffffffffffffffffffffffffffffff1673ffffffffffffffffffffffffffffffffffffffff16815260200182815260200192505050600060405180830381600087803b158015620017c057600080fd5b505af1158015620017d5573d6000803e3d6000fd5b505050508373ffffffffffffffffffffffffffffffffffffffff163373ffffffffffffffffffffffffffffffffffffffff167f623b3804fa71d67900d064613da8f94b9617215ee90799290593e1745087ad188484604051808381526020018281526020019250505060405180910390a38092505050919050565b600354600c5411158015620018715750600d60009054906101000a900460ff165b80156200193e5750600b60009054906101000a900473ffffffffffffffffffffffffffffffffffffffff1673ffffffffffffffffffffffffffffffffffffffff1663fcfff16f6040518163ffffffff167c0100000000000000000000000000000000000000000000000000000000028152600401602060405180830381600087803b1580156200190057600080fd5b505af115801562001915573d6000803e3d6000fd5b505050506040513d60208110156200192c57600080fd5b81019080805190602001909291905050505b156200194f576200194e6200217c565b5b565b8073ffffffffffffffffffffffffffffffffffffffff1663fcfff16f6040518163ffffffff167c0100000000000000000000000000000000000000000000000000000000028152600401602060405180830381600087803b158015620019b657600080fd5b505af1158015620019cb573d6000803e3d6000fd5b505050506040513d6020811015620019e257600080fd5b8101908080519060200190929190505050801562001a9f57508073ffffffffffffffffffffffffffffffffffffffff166302fb0c5e6040518163ffffffff167c0100000000000000000000000000000000000000000000000000000000028152600401602060405180830381600087803b15801562001a6057600080fd5b505af115801562001a75573d6000803e3d6000fd5b505050506040513d602081101562001a8c57600080fd5b8101908080519060200190929190505050155b151562001aab57600080fd5b600073ffffffffffffffffffffffffffffffffffffffff16600b60009054906101000a900473ffffffffffffffffffffffffffffffffffffffff1673ffffffffffffffffffffffffffffffffffffffff16148062001c6c5750600b60009054906101000a900473ffffffffffffffffffffffffffffffffffffffff1673ffffffffffffffffffffffffffffffffffffffff1663c78243cf6040518163ffffffff167c0100000000000000000000000000000000000000000000000000000000028152600401602060405180830381600087803b15801562001b8b57600080fd5b505af115801562001ba0573d6000803e3d6000fd5b505050506040513d602081101562001bb757600080fd5b81019080805190602001909291905050508173ffffffffffffffffffffffffffffffffffffffff1663c78243cf6040518163ffffffff167c0100000000000000000000000000000000000000000000000000000000028152600401602060405180830381600087803b15801562001c2d57600080fd5b505af115801562001c42573d6000803e3d6000fd5b505050506040513d602081101562001c5957600080fd5b8101908080519060200190929190505050115b8062001d395750600b60009054906101000a900473ffffffffffffffffffffffffffffffffffffffff1673ffffffffffffffffffffffffffffffffffffffff1663fcfff16f6040518163ffffffff167c0100000000000000000000000000000000000000000000000000000000028152600401602060405180830381600087803b15801562001cfa57600080fd5b505af115801562001d0f573d6000803e3d6000fd5b505050506040513d602081101562001d2657600080fd5b8101908080519060200190929190505050155b1562001d505762001d4a816200250f565b62001d5f565b600b60009054906101000a9050505b62001d6a816200264f565b600a54600f6000600e54815260200190815260200160002060010154141562001da9576001600d60006101000a81548160ff0219169083151502179055505b50565b6000809054906101000a900473ffffffffffffffffffffffffffffffffffffffff1681565b600080600062001deb84866200277b90919063ffffffff16565b905062001e04600254826200279590919063ffffffff16565b62001e1b600254866200279590919063ffffffff16565b92509250509250929050565b6000818301905082811015151562001e3b57fe5b80905092915050565b600080600042925060045491506005549050600454421015801562001e6b57506005544211155b151562001e7757600080fd5b62001ea562001e93621a5e00866200279590919063ffffffff16565b60055462001e2790919063ffffffff16565b60058190555050505050565b60008290508073ffffffffffffffffffffffffffffffffffffffff1663ce6a088085846040518363ffffffff167c0100000000000000000000000000000000000000000000000000000000028152600401808373ffffffffffffffffffffffffffffffffffffffff1673ffffffffffffffffffffffffffffffffffffffff16815260200182815260200192505050600060405180830381600087803b15801562001f5a57600080fd5b505af115801562001f6f573d6000803e3d6000fd5b5050505062001f8a826010546200277b90919063ffffffff16565b601081905550600760009054906101000a900473ffffffffffffffffffffffffffffffffffffffff1673ffffffffffffffffffffffffffffffffffffffff1663ad8f256f85846040518363ffffffff167c0100000000000000000000000000000000000000000000000000000000028152600401808373ffffffffffffffffffffffffffffffffffffffff1673ffffffffffffffffffffffffffffffffffffffff16815260200182815260200192505050600060405180830381600087803b1580156200205657600080fd5b505af11580156200206b573d6000803e3d6000fd5b505050508073ffffffffffffffffffffffffffffffffffffffff166351973ec96040518163ffffffff167c0100000000000000000000000000000000000000000000000000000000028152600401600060405180830381600087803b158015620020d457600080fd5b505af1158015620020e9573d6000803e3d6000fd5b50505050620020f883620020fe565b50505050565b620021098162001951565b6200211362001850565b50565b60008060004292506004549150600554905060045442101580156200213d57506005544211155b15156200214957600080fd5b620021558585620027d1565b5050505050565b600062002175600254836200279590919063ffffffff16565b9050919050565b6000600b60009054906101000a900473ffffffffffffffffffffffffffffffffffffffff1690508073ffffffffffffffffffffffffffffffffffffffff16630f15f4c06040518163ffffffff167c0100000000000000000000000000000000000000000000000000000000028152600401600060405180830381600087803b1580156200220857600080fd5b505af11580156200221d573d6000803e3d6000fd5b505050508073ffffffffffffffffffffffffffffffffffffffff166351973ec96040518163ffffffff167c0100000000000000000000000000000000000000000000000000000000028152600401600060405180830381600087803b1580156200228657600080fd5b505af11580156200229b573d6000803e3d6000fd5b50505050620022cf600160009054906101000a900473ffffffffffffffffffffffffffffffffffffffff16600c5462002823565b620022e8600c546003546200277b90919063ffffffff16565b600381905550620023066001600a546200277b90919063ffffffff16565b600a819055506000809054906101000a900473ffffffffffffffffffffffffffffffffffffffff1673ffffffffffffffffffffffffffffffffffffffff166375a91587620024a08373ffffffffffffffffffffffffffffffffffffffff1663d705f3876040518163ffffffff167c0100000000000000000000000000000000000000000000000000000000028152600401602060405180830381600087803b158015620023b257600080fd5b505af1158015620023c7573d6000803e3d6000fd5b505050506040513d6020811015620023de57600080fd5b81019080805190602001909291905050508473ffffffffffffffffffffffffffffffffffffffff1663929aebdf6040518163ffffffff167c0100000000000000000000000000000000000000000000000000000000028152600401602060405180830381600087803b1580156200245457600080fd5b505af115801562002469573d6000803e3d6000fd5b505050506040513d60208110156200248057600080fd5b810190808051906020019092919050505062001e2790919063ffffffff16565b6040518263ffffffff167c010000000000000000000000000000000000000000000000000000000002815260040180828152602001915050600060405180830381600087803b158015620024f357600080fd5b505af115801562002508573d6000803e3d6000fd5b5050505050565b600073ffffffffffffffffffffffffffffffffffffffff16600b60009054906101000a900473ffffffffffffffffffffffffffffffffffffffff1673ffffffffffffffffffffffffffffffffffffffff1614158015620026305750600b60009054906101000a900473ffffffffffffffffffffffffffffffffffffffff1673ffffffffffffffffffffffffffffffffffffffff1663fcfff16f6040518163ffffffff167c0100000000000000000000000000000000000000000000000000000000028152600401602060405180830381600087803b158015620025f157600080fd5b505af115801562002606573d6000803e3d6000fd5b505050506040513d60208110156200261d57600080fd5b8101908080519060200190929190505050155b156200264157620026406200286f565b5b6200264c81620028db565b50565b6000600f6000600e54815260200190815260200160002060000160008373ffffffffffffffffffffffffffffffffffffffff1673ffffffffffffffffffffffffffffffffffffffff16815260200190815260200160002060009054906101000a900460ff1690508015156200277757620026ec6001600f6000600e5481526020019081526020016000206001015462001e2790919063ffffffff16565b600f6000600e548152602001908152602001600020600101819055506001600f6000600e54815260200190815260200160002060000160008473ffffffffffffffffffffffffffffffffffffffff1673ffffffffffffffffffffffffffffffffffffffff16815260200190815260200160002060006101000a81548160ff0219169083151502179055505b5050565b60008282111515156200278a57fe5b818303905092915050565b600080831415620027aa5760009050620027cb565b8183029050818382811515620027bc57fe5b04141515620027c757fe5b8090505b92915050565b600073ffffffffffffffffffffffffffffffffffffffff168273ffffffffffffffffffffffffffffffffffffffff16141515156200280e57600080fd5b600081141515156200281f57600080fd5b5050565b8173ffffffffffffffffffffffffffffffffffffffff166108fc829081150290604051600060405180830381858888f193505050501580156200286a573d6000803e3d6000fd5b505050565b62002879620029f9565b620028916001600e5462001e2790919063ffffffff16565b600e8190555080600f6000600e54815260200190815260200160002060008201518160010155905050620028d26001600a546200277b90919063ffffffff16565b600a8190555050565b600081905081600b60006101000a81548173ffffffffffffffffffffffffffffffffffffffff021916908373ffffffffffffffffffffffffffffffffffffffff1602179055508073ffffffffffffffffffffffffffffffffffffffff1663d4cf7db66040518163ffffffff167c0100000000000000000000000000000000000000000000000000000000028152600401602060405180830381600087803b1580156200298657600080fd5b505af11580156200299b573d6000803e3d6000fd5b505050506040513d6020811015620029b257600080fd5b8101908080519060200190929190505050600c819055506000600d60006101000a81548160ff0219169083151502179055505050565b6040516111648062002a0e83390190565b602060405190810160405280600081525090560060806040523480156200001157600080fd5b50604051620011643803806200116483398101806040528101908080518201929190602001805190602001909291908051906020019092919080519060200190929190805190602001909291908051906020019092919080519060200190929190805182019291906020018051820192919050505088600090805190602001906200009e929190620001ae565b5087600160006101000a81548173ffffffffffffffffffffffffffffffffffffffff021916908373ffffffffffffffffffffffffffffffffffffffff16021790555086600260006101000a81548173ffffffffffffffffffffffffffffffffffffffff021916908373ffffffffffffffffffffffffffffffffffffffff16021790555085600481905550846005819055508360068190555082600781905550816008908051906020019062000155929190620001ae565b5080600990805190602001906200016e929190620001ae565b506000600a819055506000600b60006101000a81548160ff02191690831515021790555063013d238042016003819055505050505050505050506200025d565b828054600181600116156101000203166002900490600052602060002090601f016020900481019282601f10620001f157805160ff191683800117855562000222565b8280016001018555821562000222579182015b828111156200022157825182559160200191906001019062000204565b5b50905062000231919062000235565b5090565b6200025a91905b80821115620002565760008160009055506001016200023c565b5090565b90565b610ef7806200026d6000396000f300608060405260043610610107576000357c0100000000000000000000000000000000000000000000000000000000900463ffffffff16806302fb0c5e1461010c5780630f15f4c01461013b578063272666e3146101525780632d06177a1461017d5780634d7c09dd146101c057806351973ec9146101ef57806355d576cc146102065780635b184f88146102965780635f74bbde146102d9578063705c5be51461032657806379ec5d3a14610381578063929aebdf146103d8578063b0e0116414610403578063c78243cf1461045a578063ce6a088014610485578063d0e30db0146104d2578063d4cf7db6146104dc578063d705f38714610507578063fcfff16f14610532575b600080fd5b34801561011857600080fd5b50610121610561565b604051808215151515815260200191505060405180910390f35b34801561014757600080fd5b50610150610574565b005b34801561015e57600080fd5b50610167610599565b6040518082815260200191505060405180910390f35b34801561018957600080fd5b506101be600480360381019080803573ffffffffffffffffffffffffffffffffffffffff1690602001909291905050506105a3565b005b3480156101cc57600080fd5b506101d56106b5565b604051808215151515815260200191505060405180910390f35b3480156101fb57600080fd5b506102046106cc565b005b34801561021257600080fd5b5061021b61091f565b6040518080602001828103825283818151815260200191508051906020019080838360005b8381101561025b578082015181840152602081019050610240565b50505050905090810190601f1680156102885780820380516001836020036101000a031916815260200191505b509250505060405180910390f35b3480156102a257600080fd5b506102d7600480360381019080803573ffffffffffffffffffffffffffffffffffffffff1690602001909291905050506109bd565b005b3480156102e557600080fd5b50610324600480360381019080803573ffffffffffffffffffffffffffffffffffffffff16906020019092919080359060200190929190505050610ab8565b005b34801561033257600080fd5b50610367600480360381019080803573ffffffffffffffffffffffffffffffffffffffff169060200190929190505050610b89565b604051808215151515815260200191505060405180910390f35b34801561038d57600080fd5b506103c2600480360381019080803573ffffffffffffffffffffffffffffffffffffffff169060200190929190505050610c43565b6040518082815260200191505060405180910390f35b3480156103e457600080fd5b506103ed610c8c565b6040518082815260200191505060405180910390f35b34801561040f57600080fd5b50610418610c96565b604051808273ffffffffffffffffffffffffffffffffffffffff1673ffffffffffffffffffffffffffffffffffffffff16815260200191505060405180910390f35b34801561046657600080fd5b5061046f610cbc565b6040518082815260200191505060405180910390f35b34801561049157600080fd5b506104d0600480360381019080803573ffffffffffffffffffffffffffffffffffffffff16906020019092919080359060200190929190505050610cc6565b005b6104da610df6565b005b3480156104e857600080fd5b506104f1610e76565b6040518082815260200191505060405180910390f35b34801561051357600080fd5b5061051c610e80565b6040518082815260200191505060405180910390f35b34801561053e57600080fd5b50610547610e8a565b604051808215151515815260200191505060405180910390f35b600b60009054906101000a900460ff1681565b6001600b60006101000a81548160ff0219169083151502179055506105976106cc565b565b6000600354905090565b60011515600d60003373ffffffffffffffffffffffffffffffffffffffff1673ffffffffffffffffffffffffffffffffffffffff16815260200190815260200160002060009054906101000a900460ff161515148061064f5750600160009054906101000a900473ffffffffffffffffffffffffffffffffffffffff1673ffffffffffffffffffffffffffffffffffffffff163373ffffffffffffffffffffffffffffffffffffffff16145b151561065a57600080fd5b6001600d60008373ffffffffffffffffffffffffffffffffffffffff1673ffffffffffffffffffffffffffffffffffffffff16815260200190815260200160002060006101000a81548160ff02191690831515021790555050565b6000600b60009054906101000a900460ff16905090565b7f618aac77ac61fdbff533123688fa5e33fe0d021db44eac318ae37b90c6f71d5630600060045460055460065460075460086009600a54600b60009054906101000a900460ff16604051808b73ffffffffffffffffffffffffffffffffffffffff1673ffffffffffffffffffffffffffffffffffffffff168152602001806020018a815260200189815260200188815260200187815260200180602001806020018681526020018515151515815260200184810384528d8181546001816001161561010002031660029004815260200191508054600181600116156101000203166002900480156107fe5780601f106107d3576101008083540402835291602001916107fe565b820191906000526020600020905b8154815290600101906020018083116107e157829003601f168201915b50508481038352888181546001816001161561010002031660029004815260200191508054600181600116156101000203166002900480156108815780601f1061085657610100808354040283529160200191610881565b820191906000526020600020905b81548152906001019060200180831161086457829003601f168201915b50508481038252878181546001816001161561010002031660029004815260200191508054600181600116156101000203166002900480156109045780601f106108d957610100808354040283529160200191610904565b820191906000526020600020905b8154815290600101906020018083116108e757829003601f168201915b50509d505050505050505050505050505060405180910390a1565b60088054600181600116156101000203166002900480601f0160208091040260200160405190810160405280929190818152602001828054600181600116156101000203166002900480156109b55780601f1061098a576101008083540402835291602001916109b5565b820191906000526020600020905b81548152906001019060200180831161099857829003601f168201915b505050505081565b60011515600d60003373ffffffffffffffffffffffffffffffffffffffff1673ffffffffffffffffffffffffffffffffffffffff16815260200190815260200160002060009054906101000a900460ff1615151480610a695750600160009054906101000a900473ffffffffffffffffffffffffffffffffffffffff1673ffffffffffffffffffffffffffffffffffffffff163373ffffffffffffffffffffffffffffffffffffffff16145b1515610a7457600080fd5b80600260006101000a81548173ffffffffffffffffffffffffffffffffffffffff021916908373ffffffffffffffffffffffffffffffffffffffff16021790555050565b610b0a81600c60008573ffffffffffffffffffffffffffffffffffffffff1673ffffffffffffffffffffffffffffffffffffffff16815260200190815260200160002054610e9690919063ffffffff16565b600c60008473ffffffffffffffffffffffffffffffffffffffff1673ffffffffffffffffffffffffffffffffffffffff16815260200190815260200160002081905550610b6281600a54610e9690919063ffffffff16565b600a81905550610b7f61a8c0600354610e9690919063ffffffff16565b6003819055505050565b600080600a54118015610c3c57508173ffffffffffffffffffffffffffffffffffffffff1663c78243cf6040518163ffffffff167c0100000000000000000000000000000000000000000000000000000000028152600401602060405180830381600087803b158015610bfb57600080fd5b505af1158015610c0f573d6000803e3d6000fd5b505050506040513d6020811015610c2557600080fd5b8101908080519060200190929190505050600a5410155b9050919050565b6000600c60008373ffffffffffffffffffffffffffffffffffffffff1673ffffffffffffffffffffffffffffffffffffffff168152602001908152602001600020549050919050565b6000600654905090565b600260009054906101000a900473ffffffffffffffffffffffffffffffffffffffff1681565b6000600a54905090565b600a548111151515610cd757600080fd5b600c60008373ffffffffffffffffffffffffffffffffffffffff1673ffffffffffffffffffffffffffffffffffffffff168152602001908152602001600020548111151515610d2557600080fd5b610d7781600c60008573ffffffffffffffffffffffffffffffffffffffff1673ffffffffffffffffffffffffffffffffffffffff16815260200190815260200160002054610eb290919063ffffffff16565b600c60008473ffffffffffffffffffffffffffffffffffffffff1673ffffffffffffffffffffffffffffffffffffffff16815260200190815260200160002081905550610dcf81600a54610eb290919063ffffffff16565b600a81905550610dec61a8c0600354610eb290919063ffffffff16565b6003819055505050565b6000803414151515610e0757600080fd5b349050600260009054906101000a900473ffffffffffffffffffffffffffffffffffffffff1673ffffffffffffffffffffffffffffffffffffffff166108fc829081150290604051600060405180830381858888f19350505050158015610e72573d6000803e3d6000fd5b5050565b6000600554905090565b6000600754905090565b60004260035411905090565b60008183019050828110151515610ea957fe5b80905092915050565b6000828211151515610ec057fe5b8183039050929150505600a165627a7a72305820122ec82ac83af062cc2479264aa965dbf835134467d959a4f928bd5d4c4659f00029a165627a7a723058201ee0b10496fa4a3571bc933f2b07635ca10315738310850a51836482d140d19e0029",
  "source": "pragma solidity ^0.4.24;\nimport './TimedCrowdsale.sol';\nimport '../utility/SafeMath.sol';\nimport '../Project.sol';\nimport '../ProjectStub.sol';\nimport '../token/ERC20/Token.sol';\nimport '../InvestorList.sol';\nimport '../Reimbursements.sol';\n\n\ncontract GNITokenCrowdsale is TimedCrowdsale {\n  using SafeMath for uint256;\n  uint256 public totalValuation;\n  InvestorList public investorList;\n  address public dividendWallet;\n  address public reimbursements;\n\n  constructor\n      (\n        uint256 _openingTime,\n        uint256 _doomsDay,\n        uint256 _rate,\n        address _developer,\n        address _dividendWallet,\n        Token _token,\n        InvestorList _investorList,\n        address _reimbursements\n      )\n      public\n      Crowdsale(_rate, _developer, _token)\n      TimedCrowdsale(_openingTime, _doomsDay) {\n        investorList = InvestorList(_investorList);\n        totalValuation = 0;\n        dividendWallet = _dividendWallet;\n        reimbursements = _reimbursements;\n  }\n\n  uint256 public inactiveProjectCount;\n\n  function pitchProject(string _name, uint256 capitalRequired, uint256 _valuation, string _lat, string _lng) public returns (address) {//we need more tests for this\n   (uint256 developerTokens, uint256 investorTokens) = tokensToMint(_valuation, capitalRequired);\n\n   Token(token).mint(developer, developerTokens);\n   Token(token).mint(this, investorTokens);\n\n   totalValuation = totalValuation.add(_valuation);\n\n   _extendDoomsDay(90);\n\n    address projectAddr = address(new Project(_name, developer, dividendWallet, _valuation, capitalRequired, developerTokens, investorTokens, _lat, _lng));\n    inactiveProjectCount = inactiveProjectCount.add(1);\n    Project(projectAddr).log(); //needs to be made\n    return projectAddr;\n  }\n\n function tokensToMint (uint256 valuation, uint256 investorValue) private view returns (uint256, uint256) {\n   uint256 developerValue = valuation.sub(investorValue);\n   return (developerValue.mul(rate), investorValue.mul(rate));\n }\n\n //before this, we need to execute any pending token activations with the modifier above for the sender account. We need to do this so that the correct number of tokens are activated\n function buyTokens () public payable { //tests need to be removed/added to account for new functionality. we also may just put all the logic for the super function in here.\n   Token(token).activatePending(msg.sender);\n\n   uint256 voteCredit = super.buyTokens(msg.sender);\n   investorList.addInvestor(msg.sender);\n   investorList.addVoteCredit(msg.sender, voteCredit);\n   _extendDoomsDay(90);\n  }\n\n address public tentativeLeaderAddr;\n uint256 public tentativeLeaderCapRequired;\n bool public tentativeLeaderConfirmed;\n\n struct ProjectsChecked {\n   mapping(address => bool) isChecked;\n   uint256 totalChecked;\n }\n\n uint256 internal currentCheckCycle;\n mapping(uint256 => ProjectsChecked) internal checkCycle;\n\n function considerTentativeLeaderShip (address projectAddr) public { //we need more tests for new functionality (when its implemented)\n   require(Project(projectAddr).open() && !Project(projectAddr).active());\n\n   if (\n     tentativeLeaderAddr == address(0) ||\n     Project(projectAddr).totalVotes_() > Project(tentativeLeaderAddr).totalVotes_() ||\n     !Project(tentativeLeaderAddr).open()\n     )\n   {\n     updateTentativeLeader(projectAddr);\n   } else if (projectAddr == tentativeLeaderAddr) {\n     //if it increased, we just increase the variable.\n     //if votes decreased, we call updateTentativeLeader with address 0\n   }\n\n   recordCheck(projectAddr);\n\n   if (checkCycle[currentCheckCycle].totalChecked == inactiveProjectCount){\n     tentativeLeaderConfirmed = true;\n   }\n }\n\n function recordCheck (address projectAddr) internal {\n   bool hasBeenChecked = checkCycle[currentCheckCycle].isChecked[projectAddr];\n\n   if (!hasBeenChecked) {\n    checkCycle[currentCheckCycle].totalChecked = checkCycle[currentCheckCycle].totalChecked.add(1);\n    checkCycle[currentCheckCycle].isChecked[projectAddr] = true;\n   }\n }\n\n function updateTentativeLeader (address newLeaderAddr) internal {\n   //if its overtaking a project that is open, that means it has more votes and we dont need to reset all the checks\n   if (tentativeLeaderAddr != address(0) && !Project(tentativeLeaderAddr).open()) {\n     resetProjectsChecked();\n   }\n   setTentativeLeader(newLeaderAddr);\n }\n\n function resetProjectsChecked() internal {\n   ProjectsChecked memory newProjectsChecked;\n   currentCheckCycle = currentCheckCycle.add(1);\n   checkCycle[currentCheckCycle] = newProjectsChecked;\n   inactiveProjectCount = inactiveProjectCount.sub(1);\n }\n\n function setTentativeLeader(address newLeaderAddr) internal {\n   Project newLeader = Project(newLeaderAddr);\n\n   tentativeLeaderAddr = newLeaderAddr;\n   //these next two lines only runs if the address isnt addr(0)\n   tentativeLeaderCapRequired = newLeader.capitalRequired_();\n   //we also need to reset the tentative leader votes, either to a real amount or based on if there is a new leader\n   tentativeLeaderConfirmed = false;\n }\n\n function attemptProjectActivation () public {\n   if (\n     tentativeLeaderCapRequired <= weiRaised &&\n     tentativeLeaderConfirmed &&\n     Project(tentativeLeaderAddr).open()\n     ) {\n     activateProject();\n   }\n }\n\n function activateProject () internal { //we need more tests for added functionality\n   Project project = Project(tentativeLeaderAddr);\n   project.activate();\n   project.log();\n   //reduce cast vote count by the number of project votes, set the number of project votes to 0.\n\n   forwardFunds(developer, tentativeLeaderCapRequired);\n   weiRaised = weiRaised.sub(tentativeLeaderCapRequired);\n   inactiveProjectCount = inactiveProjectCount.sub(1);\n   Token(token).increasePendingActivations(project.developerTokens_().add(project.investorTokens_()));\n }\n\n function reimburseFunds () public { //we need tests for this\n   require(hasClosed());\n   reimbursements.transfer(weiRaised);\n   weiRaised = 0;\n   Token(token).resetInactiveTokenCycle();\n }\n\n /* function transferVotes (address fromProjectAddr, address toProjectAddr, uint256 votes) external {\n   Project fromProj = Project(fromProjectAddr);\n   Project toProj = Project(toProjectAddr);\n\n   fromProj.removeVotes(msg.sender, votes);\n   toProj.vote(msg.sender, votes);\n\n   fromProj.log();\n   toProj.log();\n } */\n uint256 public totalVotesCast;\n\n//tests need to be modified for all voting functions\n function addVoteCredit (address fromProjectAddr, uint256 votes) external { //tests need to be modified\n   addVoteCredit_(msg.sender, fromProjectAddr, votes);\n }\n\n //this is for adding vote credit for each investor from the frontend after a project has been activated\n function addVoteCreditTo (address account, address fromProjectAddr) external {\n   Project project = Project(fromProjectAddr);\n   require(!project.open() || project.active_());\n   uint256 votes = project.votesOf(account);\n   addVoteCredit_(account, fromProjectAddr, votes);\n }\n\n function addVoteCredit_ (address account, address fromProjectAddr, uint256 votes) internal {\n   Project project = Project(fromProjectAddr);\n\n   project.removeVotes(account, votes);\n   totalVotesCast = totalVotesCast.sub(votes);\n   investorList.addVoteCredit(account, votes);\n\n   project.log();\n   updateProjects(fromProjectAddr);\n }\n\n function voteWithCredit (address toProjectAddr, uint256 votes) external {\n   investorList.removeVoteCredit(msg.sender, votes);\n\n   Project project = Project(toProjectAddr);\n   project.vote(msg.sender, votes);\n   totalVotesCast = totalVotesCast.add(votes);\n\n   project.log();\n   updateProjects(toProjectAddr);\n }\n\n function updateProjects (address votedForProj) internal {\n   considerTentativeLeaderShip(votedForProj);\n   attemptProjectActivation();\n }\n\n function _extendDoomsDay(uint256 _days) internal onlyWhileOpen {\n    doomsDay = doomsDay.add(_days.mul(1728000));\n }\n\n  function forwardFunds (address _to, uint256 amount) internal {\n    _to.transfer(amount);\n  }\n}\n\n/* function getInfo(uint256 id) public view returns(address) {\n    /* string, uint256, uint256, uint256, uint256, bool, uint256, uint256, address */\n    /* address projectAddr = projectAddrs[id]; */\n    /* return ( */\n      /* return Project(projectAddr).dividendWallet(); */\n      /* Project(projectAddr).name(),\n      Project(projectAddr).valuation(),\n      Project(projectAddr).capitalRequired(),\n      Project(projectAddr).developerTokens(),\n      Project(projectAddr).investorTokens(),\n      Project(projectAddr).active(),\n      Project(projectAddr).totalVotes(),\n      /* Project(projectAddr).closingTime(), */\n      /* projectAddr */\n      /* ); */\n    /* }  */\n",
  "sourcePath": "/Users/steven/genie-portal/truffle/contracts/crowdsale/GNITokenCrowdsale.sol",
  "compiler": {
    "name": "solc",
    "version": "0.4.24+commit.e67f0147.Emscripten.clang"
  },
  "schemaVersion": "2.0.1",
  "updatedAt": "2018-12-22T03:19:03.595Z"
}