{
  "contractName": "GNITokenCrowdsale",
  "abi": [
    {
      "constant": true,
      "inputs": [
        {
          "name": "",
          "type": "uint256"
        }
      ],
      "name": "projects",
      "outputs": [
        {
          "name": "name",
          "type": "string"
        },
        {
          "name": "closingTime",
          "type": "uint256"
        },
        {
          "name": "valuation",
          "type": "uint256"
        },
        {
          "name": "capitalRequired",
          "type": "uint256"
        },
        {
          "name": "developerTokens",
          "type": "uint256"
        },
        {
          "name": "investorTokens",
          "type": "uint256"
        },
        {
          "name": "lat",
          "type": "string"
        },
        {
          "name": "lng",
          "type": "string"
        },
        {
          "name": "voteCount",
          "type": "uint256"
        },
        {
          "name": "capitalReached",
          "type": "bool"
        },
        {
          "name": "active",
          "type": "bool"
        }
      ],
      "payable": false,
      "stateMutability": "view",
      "type": "function"
    },
    {
      "constant": true,
      "inputs": [],
      "name": "hasClosed",
      "outputs": [
        {
          "name": "",
          "type": "bool"
        }
      ],
      "payable": false,
      "stateMutability": "view",
      "type": "function"
    },
    {
      "constant": true,
      "inputs": [],
      "name": "totalValuation",
      "outputs": [
        {
          "name": "",
          "type": "uint256"
        }
      ],
      "payable": false,
      "stateMutability": "view",
      "type": "function"
    },
    {
      "constant": true,
      "inputs": [],
      "name": "rate",
      "outputs": [
        {
          "name": "",
          "type": "uint256"
        }
      ],
      "payable": false,
      "stateMutability": "view",
      "type": "function"
    },
    {
      "constant": true,
      "inputs": [],
      "name": "weiRaised",
      "outputs": [
        {
          "name": "",
          "type": "uint256"
        }
      ],
      "payable": false,
      "stateMutability": "view",
      "type": "function"
    },
    {
      "constant": true,
      "inputs": [],
      "name": "wallet",
      "outputs": [
        {
          "name": "",
          "type": "address"
        }
      ],
      "payable": false,
      "stateMutability": "view",
      "type": "function"
    },
    {
      "constant": true,
      "inputs": [],
      "name": "openingTime",
      "outputs": [
        {
          "name": "",
          "type": "uint256"
        }
      ],
      "payable": false,
      "stateMutability": "view",
      "type": "function"
    },
    {
      "constant": true,
      "inputs": [],
      "name": "doomsDay",
      "outputs": [
        {
          "name": "",
          "type": "uint256"
        }
      ],
      "payable": false,
      "stateMutability": "view",
      "type": "function"
    },
    {
      "constant": false,
      "inputs": [
        {
          "name": "_beneficiary",
          "type": "address"
        }
      ],
      "name": "buyTokens",
      "outputs": [],
      "payable": true,
      "stateMutability": "payable",
      "type": "function"
    },
    {
      "constant": true,
      "inputs": [],
      "name": "token",
      "outputs": [
        {
          "name": "",
          "type": "address"
        }
      ],
      "payable": false,
      "stateMutability": "view",
      "type": "function"
    },
    {
      "inputs": [
        {
          "name": "_openingTime",
          "type": "uint256"
        },
        {
          "name": "_doomsDay",
          "type": "uint256"
        },
        {
          "name": "_rate",
          "type": "uint256"
        },
        {
          "name": "_wallet",
          "type": "address"
        },
        {
          "name": "_token",
          "type": "address"
        }
      ],
      "payable": false,
      "stateMutability": "nonpayable",
      "type": "constructor"
    },
    {
      "payable": true,
      "stateMutability": "payable",
      "type": "fallback"
    },
    {
      "anonymous": false,
      "inputs": [
        {
          "indexed": false,
          "name": "id",
          "type": "uint256"
        },
        {
          "indexed": false,
          "name": "name",
          "type": "string"
        },
        {
          "indexed": false,
          "name": "valuation",
          "type": "uint256"
        },
        {
          "indexed": false,
          "name": "capitalRequired",
          "type": "uint256"
        },
        {
          "indexed": false,
          "name": "developerTokens",
          "type": "uint256"
        },
        {
          "indexed": false,
          "name": "investorTokens",
          "type": "uint256"
        },
        {
          "indexed": false,
          "name": "lat",
          "type": "string"
        },
        {
          "indexed": false,
          "name": "lng",
          "type": "string"
        },
        {
          "indexed": false,
          "name": "voteCount",
          "type": "uint256"
        },
        {
          "indexed": false,
          "name": "capitalReached",
          "type": "bool"
        },
        {
          "indexed": false,
          "name": "active",
          "type": "bool"
        }
      ],
      "name": "LogProject",
      "type": "event"
    },
    {
      "anonymous": false,
      "inputs": [
        {
          "indexed": false,
          "name": "voter",
          "type": "address"
        },
        {
          "indexed": false,
          "name": "projectId",
          "type": "uint256"
        },
        {
          "indexed": false,
          "name": "amount",
          "type": "uint256"
        }
      ],
      "name": "LogVotes",
      "type": "event"
    },
    {
      "anonymous": false,
      "inputs": [
        {
          "indexed": true,
          "name": "purchaser",
          "type": "address"
        },
        {
          "indexed": true,
          "name": "beneficiary",
          "type": "address"
        },
        {
          "indexed": false,
          "name": "value",
          "type": "uint256"
        },
        {
          "indexed": false,
          "name": "amount",
          "type": "uint256"
        }
      ],
      "name": "TokenPurchase",
      "type": "event"
    },
    {
      "constant": true,
      "inputs": [
        {
          "name": "id",
          "type": "uint256"
        }
      ],
      "name": "getProjectInfo",
      "outputs": [
        {
          "name": "",
          "type": "string"
        },
        {
          "name": "",
          "type": "uint256"
        },
        {
          "name": "",
          "type": "uint256"
        },
        {
          "name": "",
          "type": "uint256"
        },
        {
          "name": "",
          "type": "uint256"
        },
        {
          "name": "",
          "type": "bool"
        },
        {
          "name": "",
          "type": "uint256"
        },
        {
          "name": "",
          "type": "uint256"
        }
      ],
      "payable": false,
      "stateMutability": "view",
      "type": "function"
    },
    {
      "constant": false,
      "inputs": [
        {
          "name": "_investor",
          "type": "address"
        },
        {
          "name": "_projectId",
          "type": "uint256"
        }
      ],
      "name": "votesByProjectandAddress",
      "outputs": [
        {
          "name": "",
          "type": "uint256"
        }
      ],
      "payable": false,
      "stateMutability": "nonpayable",
      "type": "function"
    },
    {
      "constant": false,
      "inputs": [
        {
          "name": "_name",
          "type": "string"
        },
        {
          "name": "capitalRequired",
          "type": "uint256"
        },
        {
          "name": "_valuation",
          "type": "uint256"
        },
        {
          "name": "_lat",
          "type": "string"
        },
        {
          "name": "_lng",
          "type": "string"
        }
      ],
      "name": "pitchProject",
      "outputs": [],
      "payable": true,
      "stateMutability": "payable",
      "type": "function"
    },
    {
      "constant": false,
      "inputs": [
        {
          "name": "_projectId",
          "type": "uint256"
        }
      ],
      "name": "handleTokenPurchase",
      "outputs": [],
      "payable": true,
      "stateMutability": "payable",
      "type": "function"
    },
    {
      "constant": false,
      "inputs": [
        {
          "name": "_projectId",
          "type": "uint256"
        }
      ],
      "name": "updateProjectVotedFor",
      "outputs": [],
      "payable": false,
      "stateMutability": "nonpayable",
      "type": "function"
    },
    {
      "constant": true,
      "inputs": [],
      "name": "projectToActivateDetails",
      "outputs": [
        {
          "name": "",
          "type": "uint256"
        },
        {
          "name": "",
          "type": "bool"
        }
      ],
      "payable": false,
      "stateMutability": "view",
      "type": "function"
    },
    {
      "constant": false,
      "inputs": [],
      "name": "activateProject",
      "outputs": [],
      "payable": false,
      "stateMutability": "nonpayable",
      "type": "function"
    }
  ],
  "bytecode": "0x608060405234801561001057600080fd5b5060405160a08061208f8339810180604052810190808051906020019092919080519060200190929190805190602001909291908051906020019092919080519060200190929190505050848484848460008311151561006f57600080fd5b600073ffffffffffffffffffffffffffffffffffffffff168273ffffffffffffffffffffffffffffffffffffffff16141515156100ab57600080fd5b600073ffffffffffffffffffffffffffffffffffffffff168173ffffffffffffffffffffffffffffffffffffffff16141515156100e757600080fd5b8260028190555081600160006101000a81548173ffffffffffffffffffffffffffffffffffffffff021916908373ffffffffffffffffffffffffffffffffffffffff160217905550806000806101000a81548173ffffffffffffffffffffffffffffffffffffffff021916908373ffffffffffffffffffffffffffffffffffffffff16021790555050505042821015151561018157600080fd5b81811015151561019057600080fd5b8160048190555080600581905550505060006006819055505050505050611ed3806101bc6000396000f3006080604052600436106100f1576000357c0100000000000000000000000000000000000000000000000000000000900463ffffffff168063107046bd146100fc5780631515bc2b146102ba578063295b9300146102e95780632c4e722e146103145780633cb78fe01461033f5780634042b66f14610356578063521eb2731461038157806365af1672146103d85780636634c99f146104d45780638f6cdd6f14610501578063a13d77f114610521578063a4a7474614610557578063b7a8807c146105b8578063c19b7bc0146105e3578063ec8ac4d81461060e578063fabf596814610644578063fc0c546a1461071f575b6100fa33610776565b005b34801561010857600080fd5b506101276004803603810190808035906020019092919050505061083c565b60405180806020018c81526020018b81526020018a81526020018981526020018881526020018060200180602001878152602001861515151581526020018515151515815260200184810384528f818151815260200191508051906020019080838360005b838110156101a757808201518184015260208101905061018c565b50505050905090810190601f1680156101d45780820380516001836020036101000a031916815260200191505b50848103835289818151815260200191508051906020019080838360005b8381101561020d5780820151818401526020810190506101f2565b50505050905090810190601f16801561023a5780820380516001836020036101000a031916815260200191505b50848103825288818151815260200191508051906020019080838360005b83811015610273578082015181840152602081019050610258565b50505050905090810190601f1680156102a05780820380516001836020036101000a031916815260200191505b509e50505050505050505050505050505060405180910390f35b3480156102c657600080fd5b506102cf610a87565b604051808215151515815260200191505060405180910390f35b3480156102f557600080fd5b506102fe610a93565b6040518082815260200191505060405180910390f35b34801561032057600080fd5b50610329610a99565b6040518082815260200191505060405180910390f35b34801561034b57600080fd5b50610354610a9f565b005b34801561036257600080fd5b5061036b610e65565b6040518082815260200191505060405180910390f35b34801561038d57600080fd5b50610396610e6b565b604051808273ffffffffffffffffffffffffffffffffffffffff1673ffffffffffffffffffffffffffffffffffffffff16815260200191505060405180910390f35b6104d2600480360381019080803590602001908201803590602001908080601f01602080910402602001604051908101604052809392919081815260200183838082843782019150505050505091929192908035906020019092919080359060200190929190803590602001908201803590602001908080601f0160208091040260200160405190810160405280939291908181526020018383808284378201915050505050509192919290803590602001908201803590602001908080601f0160208091040260200160405190810160405280939291908181526020018383808284378201915050505050509192919290505050610e91565b005b3480156104e057600080fd5b506104ff600480360381019080803590602001909291905050506112ff565b005b61051f60048036038101908080359060200190929190505050611314565b005b34801561052d57600080fd5b50610536611332565b60405180838152602001821515151581526020019250505060405180910390f35b34801561056357600080fd5b506105a2600480360381019080803573ffffffffffffffffffffffffffffffffffffffff169060200190929190803590602001909291905050506114b9565b6040518082815260200191505060405180910390f35b3480156105c457600080fd5b506105cd611519565b6040518082815260200191505060405180910390f35b3480156105ef57600080fd5b506105f861151f565b6040518082815260200191505060405180910390f35b610642600480360381019080803573ffffffffffffffffffffffffffffffffffffffff169060200190929190505050610776565b005b34801561065057600080fd5b5061066f60048036038101908080359060200190929190505050611525565b60405180806020018981526020018881526020018781526020018681526020018515151515815260200184815260200183815260200182810382528a818151815260200191508051906020019080838360005b838110156106dd5780820151818401526020810190506106c2565b50505050905090810190601f16801561070a5780820380516001836020036101000a031916815260200191505b50995050505050505050505060405180910390f35b34801561072b57600080fd5b50610734611807565b604051808273ffffffffffffffffffffffffffffffffffffffff1673ffffffffffffffffffffffffffffffffffffffff16815260200191505060405180910390f35b600080349150610786838361182c565b61078f8261186e565b90506107a68260035461188c90919063ffffffff16565b6003819055506107b683826118a8565b8273ffffffffffffffffffffffffffffffffffffffff163373ffffffffffffffffffffffffffffffffffffffff167f623b3804fa71d67900d064613da8f94b9617215ee90799290593e1745087ad188484604051808381526020018281526020019250505060405180910390a361082d83836118b6565b61083783836118ba565b505050565b60078181548110151561084b57fe5b90600052602060002090600a0201600091509050806000018054600181600116156101000203166002900480601f0160208091040260200160405190810160405280929190818152602001828054600181600116156101000203166002900480156108f75780601f106108cc576101008083540402835291602001916108f7565b820191906000526020600020905b8154815290600101906020018083116108da57829003601f168201915b505050505090806001015490806002015490806003015490806004015490806005015490806006018054600181600116156101000203166002900480601f0160208091040260200160405190810160405280929190818152602001828054600181600116156101000203166002900480156109b35780601f10610988576101008083540402835291602001916109b3565b820191906000526020600020905b81548152906001019060200180831161099657829003601f168201915b505050505090806007018054600181600116156101000203166002900480601f016020809104026020016040519081016040528092919081815260200182805460018160011615610100020316600290048015610a515780601f10610a2657610100808354040283529160200191610a51565b820191906000526020600020905b815481529060010190602001808311610a3457829003601f168201915b5050505050908060080154908060090160009054906101000a900460ff16908060090160019054906101000a900460ff1690508b565b60006005544211905090565b60065481565b60025481565b6000806000610aac611332565b925092508115610e6057600783815481101515610ac557fe5b90600052602060002090600a020190506000809054906101000a900473ffffffffffffffffffffffffffffffffffffffff1673ffffffffffffffffffffffffffffffffffffffff16632392999f82600401548360050154600160009054906101000a900473ffffffffffffffffffffffffffffffffffffffff166040518463ffffffff167c0100000000000000000000000000000000000000000000000000000000028152600401808481526020018381526020018273ffffffffffffffffffffffffffffffffffffffff1673ffffffffffffffffffffffffffffffffffffffff1681526020019350505050600060405180830381600087803b158015610bcb57600080fd5b505af1158015610bdf573d6000803e3d6000fd5b50505050610bf081600301546118be565b610c09816003015460035461192a90919063ffffffff16565b60038190555060018160090160016101000a81548160ff0219169083151502179055507f01fbd73723effdef492008556c201264e37cfa21ddb81d6fd2887e3e93fda0328382600001836002015484600301548560040154866005015487600601886007018960080154600180604051808c8152602001806020018b81526020018a81526020018981526020018881526020018060200180602001878152602001861515151581526020018515151515815260200184810384528e818154600181600116156101000203166002900481526020019150805460018160011615610100020316600290048015610d3f5780601f10610d1457610100808354040283529160200191610d3f565b820191906000526020600020905b815481529060010190602001808311610d2257829003601f168201915b5050848103835289818154600181600116156101000203166002900481526020019150805460018160011615610100020316600290048015610dc25780601f10610d9757610100808354040283529160200191610dc2565b820191906000526020600020905b815481529060010190602001808311610da557829003601f168201915b5050848103825288818154600181600116156101000203166002900481526020019150805460018160011615610100020316600290048015610e455780601f10610e1a57610100808354040283529160200191610e45565b820191906000526020600020905b815481529060010190602001808311610e2857829003601f168201915b50509e50505050505050505050505050505060405180910390a15b505050565b60035481565b600160009054906101000a900473ffffffffffffffffffffffffffffffffffffffff1681565b6000806000610ea08688611943565b925092506000809054906101000a900473ffffffffffffffffffffffffffffffffffffffff1673ffffffffffffffffffffffffffffffffffffffff1663156e29f63085856040518463ffffffff167c0100000000000000000000000000000000000000000000000000000000028152600401808473ffffffffffffffffffffffffffffffffffffffff1673ffffffffffffffffffffffffffffffffffffffff1681526020018381526020018281526020019350505050602060405180830381600087803b158015610f7057600080fd5b505af1158015610f84573d6000803e3d6000fd5b505050506040513d6020811015610f9a57600080fd5b810190808051906020019092919050505050610fc18660065461188c90919063ffffffff16565b600681905550610fd1605a611993565b60016007610160604051908101604052808b815260200163013d2380420181526020018981526020018a815260200186815260200185815260200188815260200187815260200160008152602001600015158152602001600015158152509080600181540180825580915050906001820390600052602060002090600a0201600090919290919091506000820151816000019080519060200190611076929190611da3565b506020820151816001015560408201518160020155606082015181600301556080820151816004015560a0820151816005015560c08201518160060190805190602001906110c5929190611da3565b5060e08201518160070190805190602001906110e2929190611da3565b5061010082015181600801556101208201518160090160006101000a81548160ff0219169083151502179055506101408201518160090160016101000a81548160ff02191690831515021790555050500390507f01fbd73723effdef492008556c201264e37cfa21ddb81d6fd2887e3e93fda0328189888a87878b8b6000806000604051808c8152602001806020018b81526020018a81526020018981526020018881526020018060200180602001878152602001861515151581526020018515151515815260200184810384528e818151815260200191508051906020019080838360005b838110156111e35780820151818401526020810190506111c8565b50505050905090810190601f1680156112105780820380516001836020036101000a031916815260200191505b50848103835289818151815260200191508051906020019080838360005b8381101561124957808201518184015260208101905061122e565b50505050905090810190601f1680156112765780820380516001836020036101000a031916815260200191505b50848103825288818151815260200191508051906020019080838360005b838110156112af578082015181840152602081019050611294565b50505050905090810190601f1680156112dc5780820380516001836020036101000a031916815260200191505b509e50505050505050505050505050505060405180910390a15050505050505050565b611308816119fa565b61131181611a54565b50565b61131d33610776565b611326816112ff565b61132f81611ab0565b50565b6000806000806000809150600090505b60078054905081101561147e5760078181548110151561135e57fe5b90600052602060002090600a020160090160019054906101000a900460ff161580156113aa5750600060078281548110151561139657fe5b90600052602060002090600a020160080154115b80156113d55750426007828154811015156113c157fe5b90600052602060002090600a020160010154115b801561145657506007838154811015156113eb57fe5b90600052602060002090600a02016008015460078281548110151561140c57fe5b90600052602060002090600a020160080154101580611455575060078381548110151561143557fe5b90600052602060002090600a020160090160019054906101000a900460ff165b5b1561146357809250600191505b61147760018261188c90919063ffffffff16565b9050611342565b828280156114ae575060035460078581548110151561149957fe5b90600052602060002090600a02016003015411155b945094505050509091565b600080600860008573ffffffffffffffffffffffffffffffffffffffff1673ffffffffffffffffffffffffffffffffffffffff16815260200190815260200160002060008481526020019081526020016000205490508091505092915050565b60045481565b60055481565b6060600080600080600080600061153a611e23565b60078a81548110151561154957fe5b90600052602060002090600a02016101606040519081016040529081600082018054600181600116156101000203166002900480601f0160208091040260200160405190810160405280929190818152602001828054600181600116156101000203166002900480156115fd5780601f106115d2576101008083540402835291602001916115fd565b820191906000526020600020905b8154815290600101906020018083116115e057829003601f168201915b505050505081526020016001820154815260200160028201548152602001600382015481526020016004820154815260200160058201548152602001600682018054600181600116156101000203166002900480601f0160208091040260200160405190810160405280929190818152602001828054600181600116156101000203166002900480156116d15780601f106116a6576101008083540402835291602001916116d1565b820191906000526020600020905b8154815290600101906020018083116116b457829003601f168201915b50505050508152602001600782018054600181600116156101000203166002900480601f0160208091040260200160405190810160405280929190818152602001828054600181600116156101000203166002900480156117735780601f1061174857610100808354040283529160200191611773565b820191906000526020600020905b81548152906001019060200180831161175657829003601f168201915b50505050508152602001600882015481526020016009820160009054906101000a900460ff161515151581526020016009820160019054906101000a900460ff161515151581525050905080600001518160400151826060015183608001518460a0015185610140015186610100015187602001518797509850985098509850985098509850985050919395975091939597565b6000809054906101000a900473ffffffffffffffffffffffffffffffffffffffff1681565b600080600042925060045491506005549050600454421015801561185257506005544211155b151561185d57600080fd5b6118678585611bdd565b5050505050565b600061188560025483611c2d90919063ffffffff16565b9050919050565b6000818301905082811015151561189f57fe5b80905092915050565b6118b28282611c65565b5050565b5050565b5050565b600160009054906101000a900473ffffffffffffffffffffffffffffffffffffffff1673ffffffffffffffffffffffffffffffffffffffff166108fc829081150290604051600060405180830381858888f19350505050158015611926573d6000803e3d6000fd5b5050565b600082821115151561193857fe5b818303905092915050565b600080600061195b848661192a90919063ffffffff16565b905061197260025482611c2d90919063ffffffff16565b61198760025486611c2d90919063ffffffff16565b92509250509250929050565b60008060004292506004549150600554905060045442101580156119b957506005544211155b15156119c457600080fd5b6119ee6119dd621a5e0086611c2d90919063ffffffff16565b60055461188c90919063ffffffff16565b60058190555050505050565b611a2d34600783815481101515611a0d57fe5b90600052602060002090600a02016008015461188c90919063ffffffff16565b600782815481101515611a3c57fe5b90600052602060002090600a02016008018190555050565b611a8961a8c0600783815481101515611a6957fe5b90600052602060002090600a02016001015461188c90919063ffffffff16565b600782815481101515611a9857fe5b90600052602060002090600a02016001018190555050565b611b1334600860003373ffffffffffffffffffffffffffffffffffffffff1673ffffffffffffffffffffffffffffffffffffffff16815260200190815260200160002060008481526020019081526020016000205461188c90919063ffffffff16565b600860003373ffffffffffffffffffffffffffffffffffffffff1673ffffffffffffffffffffffffffffffffffffffff1681526020019081526020016000206000838152602001908152602001600020819055507f1cfed8e6708dd89e1137769a805a4f0bb9a3bd615d751d5b2c078d2f3b34c574338234604051808473ffffffffffffffffffffffffffffffffffffffff1673ffffffffffffffffffffffffffffffffffffffff168152602001838152602001828152602001935050505060405180910390a150565b600073ffffffffffffffffffffffffffffffffffffffff168273ffffffffffffffffffffffffffffffffffffffff1614151515611c1957600080fd5b60008114151515611c2957600080fd5b5050565b600080831415611c405760009050611c5f565b8183029050818382811515611c5157fe5b04141515611c5b57fe5b8090505b92915050565b611cb182826000809054906101000a900473ffffffffffffffffffffffffffffffffffffffff1673ffffffffffffffffffffffffffffffffffffffff16611cb59092919063ffffffff16565b5050565b8273ffffffffffffffffffffffffffffffffffffffff1663a9059cbb83836040518363ffffffff167c0100000000000000000000000000000000000000000000000000000000028152600401808373ffffffffffffffffffffffffffffffffffffffff1673ffffffffffffffffffffffffffffffffffffffff16815260200182815260200192505050602060405180830381600087803b158015611d5857600080fd5b505af1158015611d6c573d6000803e3d6000fd5b505050506040513d6020811015611d8257600080fd5b81019080805190602001909291905050501515611d9e57600080fd5b505050565b828054600181600116156101000203166002900490600052602060002090601f016020900481019282601f10611de457805160ff1916838001178555611e12565b82800160010185558215611e12579182015b82811115611e11578251825591602001919060010190611df6565b5b509050611e1f9190611e82565b5090565b610160604051908101604052806060815260200160008152602001600081526020016000815260200160008152602001600081526020016060815260200160608152602001600081526020016000151581526020016000151581525090565b611ea491905b80821115611ea0576000816000905550600101611e88565b5090565b905600a165627a7a72305820f419b9dff7903a74cbb3ec02d159062a9b23bfd0e95f1344a94023b318f382650029",
  "source": "pragma solidity 0.4.24;\n\nimport '../token/GNIToken.sol';\nimport './TimedCrowdsale.sol';\nimport '../utility/SafeMath.sol';\n\ncontract GNITokenCrowdsale is TimedCrowdsale {\n  using SafeMath for uint256;\n  uint256 public totalValuation;\n\n  constructor\n      (\n        uint256 _openingTime,\n        uint256 _doomsDay,\n        uint256 _rate,\n        address _wallet,\n        MintableToken _token\n      )\n      public\n      Crowdsale(_rate, _wallet, _token)\n      TimedCrowdsale(_openingTime, _doomsDay) {\n          totalValuation = 0;\n  }\n\n  struct Project {\n      string name;\n      uint256 closingTime;\n      uint256 valuation;\n      uint256 capitalRequired;\n      uint256 developerTokens;\n      uint256 investorTokens;\n      string lat;\n      string lng;\n      uint256 voteCount;\n      bool capitalReached;\n      bool active;\n  }\n\n  event LogProject (\n      uint id,\n      string name,\n      uint256 valuation,\n      uint256 capitalRequired,\n      uint256 developerTokens,\n      uint256 investorTokens,\n      string lat,\n      string lng,\n      uint256 voteCount,\n      bool capitalReached,\n      bool active\n  );\n\n  event LogVotes (\n    address voter,\n    uint256 projectId,\n    uint256 amount\n    );\n\n\n  /* mapping(string => Project) private projects; */\n  Project[] public projects;\n\n function getProjectInfo(uint id) public view returns(\n     string, uint256, uint256, uint256, uint256, bool, uint256, uint256\n     ) {\n     Project memory project = projects[id];\n     return (\n         project.name,\n         project.valuation,\n         project.capitalRequired,\n         project.developerTokens,\n         project.investorTokens,\n         project.active,\n         project.voteCount,\n         project.closingTime\n     );\n }\n\n //maps from address to projectIds. projectIds map to\n mapping(address => mapping(uint256 => uint256)) internal votes;\n\n function votesByProjectandAddress(address _investor, uint256 _projectId) public returns (uint256) {\n   uint256 result = votes[_investor][_projectId];\n   return result;\n }\n\n function pitchProject(string _name, uint capitalRequired, uint256 _valuation, string _lat, string _lng) public payable {\n   (uint256 developerTokens, uint256 investorTokens) = tokensToIssue(_valuation, capitalRequired);\n\n   //tokens go to the this contract\n   //we need to do this because transfer expects to take tokens from msg.sender, which is this contract\n   GNIToken(token).mint(this, developerTokens, investorTokens);\n\n   totalValuation = totalValuation.add(_valuation);\n\n     // Increase crowdsale duation by 90 days\n   _extendDoomsDay(90);\n\n     uint id = projects.push(Project(_name, now + 86600 * 240, _valuation, capitalRequired, developerTokens, investorTokens, _lat,_lng, 0, false, false)) - 1;\n\n     // log the creation of the new project\n     emit LogProject(id, _name, _valuation, capitalRequired, developerTokens, investorTokens, _lat, _lng, 0, false, false);\n }\n\n function tokensToIssue (uint256 valuation, uint256 investorValue) private returns (uint256, uint256) {\n   uint256 developerValue = valuation.sub(investorValue);\n\n   return (developerValue.mul(rate), investorValue.mul(rate));\n }\n\n //sender is always the beneficiary\n //sender becomes this contract in BasicToken\n //funds from msg.value are allocated to this contract since this function is a payable.\n //later, we can assign funds to the wallet (which is the developer wallet). No second wallet is needed because the contract serves as an escrow wallet.\n function handleTokenPurchase (uint256 _projectId) public payable {\n   //add require statement that makes sure the projet isnt already active\n   buyTokens(msg.sender);\n   updateProjectVotedFor(_projectId);\n   updateAccountVotes(_projectId);\n }\n\n function forwardFundsToDeveloper (uint256 amount) internal {\n   wallet.transfer(amount);\n }\n\n function updateProjectVotedFor(uint256 _projectId) {\n   updateVoteCount(_projectId);\n   extendProjectClosingTime(_projectId);\n }\n\n function updateAccountVotes(uint256 _projectId) internal {\n   votes[msg.sender][_projectId] = votes[msg.sender][_projectId].add(msg.value);\n   LogVotes(msg.sender, _projectId, msg.value);\n }\n\n   /* Project storage _projectVotedFor = projects[_projectId]; */\n\n  function updateVoteCount(uint256 _projectId) internal {\n    projects[_projectId].voteCount = projects[_projectId].voteCount.add(msg.value);\n  }\n\n  function extendProjectClosingTime(uint256 _projectId) internal {\n    projects[_projectId].closingTime = projects[_projectId].closingTime.add(43200);\n  }\n\n  function _extendDoomsDay(uint256 _days) internal onlyWhileOpen {\n    doomsDay = doomsDay.add(_days.mul(1728000));\n  }\n\n  function projectToActivateDetails() public view returns (uint256, bool) {\n    uint256 leadingProjectId;\n    bool candidateFound = false;\n\n    for(uint256 i = 0; i < projects.length; i = i.add(1)) {\n\n        if (!projects[i].active &&\n            projects[i].voteCount > 0 &&\n            projects[i].closingTime > now &&\n            (projects[i].voteCount >= projects[leadingProjectId].voteCount || projects[leadingProjectId].active)\n           )\n        {\n          leadingProjectId = i;\n          candidateFound = true;\n        }\n    }\n\n    return (leadingProjectId, candidateFound && projects[leadingProjectId].capitalRequired <= weiRaised);\n  }\n\n  //we can keep track of whether or not a project is activatable on the frontend. If so, this function will be called. No need to check for this on blockchain\n    function activateProject() public {\n      (uint256 projectId, bool canActivate) = projectToActivateDetails();\n\n      if(canActivate){\n        Project storage project = projects[projectId];\n\n        GNIToken(token).activateTokens(project.developerTokens, project.investorTokens, wallet);\n\n        forwardFundsToDeveloper(project.capitalRequired);\n\n        weiRaised = weiRaised.sub(project.capitalRequired);\n\n        project.active = true;\n\n        emit LogProject(projectId, project.name, project.valuation, project.capitalRequired, project.developerTokens, project.investorTokens, project.lat, project.lng, project.voteCount, true, true);\n      }\n  }\n}\n",
  "sourcePath": "/Users/steven/genie-portal/truffle/contracts/crowdsale/GNITokenCrowdsale.sol",
  "compiler": {
    "name": "solc",
    "version": "0.4.24+commit.e67f0147.Emscripten.clang"
  },
  "schemaVersion": "2.0.1",
  "updatedAt": "2018-10-11T22:29:07.802Z"
}