{
  "contractName": "GNITokenCrowdsale",
  "abi": [
    {
      "constant": true,
      "inputs": [],
      "name": "hasClosed",
      "outputs": [
        {
          "name": "",
          "type": "bool"
        }
      ],
      "payable": false,
      "stateMutability": "view",
      "type": "function"
    },
    {
      "constant": true,
      "inputs": [],
      "name": "canReOpen",
      "outputs": [
        {
          "name": "",
          "type": "bool"
        }
      ],
      "payable": false,
      "stateMutability": "view",
      "type": "function"
    },
    {
      "constant": true,
      "inputs": [],
      "name": "projectLeaderTracker",
      "outputs": [
        {
          "name": "",
          "type": "address"
        }
      ],
      "payable": false,
      "stateMutability": "view",
      "type": "function"
    },
    {
      "constant": true,
      "inputs": [],
      "name": "totalValuation",
      "outputs": [
        {
          "name": "",
          "type": "uint256"
        }
      ],
      "payable": false,
      "stateMutability": "view",
      "type": "function"
    },
    {
      "constant": true,
      "inputs": [
        {
          "name": "",
          "type": "address"
        }
      ],
      "name": "voteHash",
      "outputs": [
        {
          "name": "",
          "type": "bytes32"
        }
      ],
      "payable": false,
      "stateMutability": "view",
      "type": "function"
    },
    {
      "constant": true,
      "inputs": [],
      "name": "dividendWallet",
      "outputs": [
        {
          "name": "",
          "type": "address"
        }
      ],
      "payable": false,
      "stateMutability": "view",
      "type": "function"
    },
    {
      "constant": true,
      "inputs": [],
      "name": "openingTime",
      "outputs": [
        {
          "name": "",
          "type": "uint256"
        }
      ],
      "payable": false,
      "stateMutability": "view",
      "type": "function"
    },
    {
      "constant": false,
      "inputs": [],
      "name": "allowReOpening",
      "outputs": [],
      "payable": false,
      "stateMutability": "nonpayable",
      "type": "function"
    },
    {
      "constant": true,
      "inputs": [],
      "name": "reimbursements",
      "outputs": [
        {
          "name": "",
          "type": "address"
        }
      ],
      "payable": false,
      "stateMutability": "view",
      "type": "function"
    },
    {
      "constant": true,
      "inputs": [],
      "name": "doomsDay",
      "outputs": [
        {
          "name": "",
          "type": "uint256"
        }
      ],
      "payable": false,
      "stateMutability": "view",
      "type": "function"
    },
    {
      "constant": true,
      "inputs": [
        {
          "name": "",
          "type": "address"
        }
      ],
      "name": "removeVoteHash",
      "outputs": [
        {
          "name": "",
          "type": "bytes32"
        }
      ],
      "payable": false,
      "stateMutability": "view",
      "type": "function"
    },
    {
      "constant": false,
      "inputs": [],
      "name": "weiRaised_",
      "outputs": [
        {
          "name": "",
          "type": "uint256"
        }
      ],
      "payable": false,
      "stateMutability": "nonpayable",
      "type": "function"
    },
    {
      "constant": true,
      "inputs": [],
      "name": "token",
      "outputs": [
        {
          "name": "",
          "type": "address"
        }
      ],
      "payable": false,
      "stateMutability": "view",
      "type": "function"
    },
    {
      "inputs": [
        {
          "name": "_openingTime",
          "type": "uint256"
        },
        {
          "name": "_doomsDay",
          "type": "uint256"
        },
        {
          "name": "_rate",
          "type": "uint256"
        },
        {
          "name": "_developer",
          "type": "address"
        },
        {
          "name": "_dividendWallet",
          "type": "address"
        },
        {
          "name": "_token",
          "type": "address"
        },
        {
          "name": "_projectLeaderTracker",
          "type": "address"
        },
        {
          "name": "_reimbursements",
          "type": "address"
        }
      ],
      "payable": false,
      "stateMutability": "nonpayable",
      "type": "constructor"
    },
    {
      "payable": true,
      "stateMutability": "payable",
      "type": "fallback"
    },
    {
      "anonymous": false,
      "inputs": [
        {
          "indexed": false,
          "name": "projectAddress",
          "type": "address"
        },
        {
          "indexed": false,
          "name": "developer",
          "type": "address"
        },
        {
          "indexed": false,
          "name": "name",
          "type": "string"
        },
        {
          "indexed": false,
          "name": "lat",
          "type": "string"
        },
        {
          "indexed": false,
          "name": "lng",
          "type": "string"
        },
        {
          "indexed": false,
          "name": "capitalRequired",
          "type": "uint256"
        },
        {
          "indexed": false,
          "name": "valuation",
          "type": "uint256"
        },
        {
          "indexed": false,
          "name": "developerTokens",
          "type": "uint256"
        },
        {
          "indexed": false,
          "name": "investorTokens",
          "type": "uint256"
        },
        {
          "indexed": false,
          "name": "totalProjectCount",
          "type": "uint256"
        }
      ],
      "name": "ProjectPitch",
      "type": "event"
    },
    {
      "anonymous": false,
      "inputs": [
        {
          "indexed": true,
          "name": "purchaser",
          "type": "address"
        },
        {
          "indexed": true,
          "name": "beneficiary",
          "type": "address"
        },
        {
          "indexed": false,
          "name": "value",
          "type": "uint256"
        },
        {
          "indexed": false,
          "name": "amount",
          "type": "uint256"
        }
      ],
      "name": "TokenPurchase",
      "type": "event"
    },
    {
      "constant": true,
      "inputs": [],
      "name": "totalProjectCount_",
      "outputs": [
        {
          "name": "",
          "type": "uint256"
        }
      ],
      "payable": false,
      "stateMutability": "view",
      "type": "function"
    },
    {
      "constant": true,
      "inputs": [
        {
          "name": "id",
          "type": "uint256"
        }
      ],
      "name": "projectById",
      "outputs": [
        {
          "name": "",
          "type": "address"
        }
      ],
      "payable": false,
      "stateMutability": "view",
      "type": "function"
    },
    {
      "constant": false,
      "inputs": [
        {
          "name": "_name",
          "type": "string"
        },
        {
          "name": "capitalRequired",
          "type": "uint256"
        },
        {
          "name": "_valuation",
          "type": "uint256"
        },
        {
          "name": "_lat",
          "type": "string"
        },
        {
          "name": "_lng",
          "type": "string"
        },
        {
          "name": "_voteHash",
          "type": "bytes32"
        },
        {
          "name": "_removeVoteHash",
          "type": "bytes32"
        }
      ],
      "name": "pitchProject",
      "outputs": [],
      "payable": false,
      "stateMutability": "nonpayable",
      "type": "function"
    },
    {
      "constant": false,
      "inputs": [],
      "name": "buyTokens",
      "outputs": [],
      "payable": true,
      "stateMutability": "payable",
      "type": "function"
    },
    {
      "constant": false,
      "inputs": [
        {
          "name": "_beneficiary",
          "type": "address"
        }
      ],
      "name": "buyTokens",
      "outputs": [
        {
          "name": "",
          "type": "uint256"
        }
      ],
      "payable": true,
      "stateMutability": "payable",
      "type": "function"
    },
    {
      "constant": false,
      "inputs": [],
      "name": "reimburseFunds",
      "outputs": [],
      "payable": false,
      "stateMutability": "nonpayable",
      "type": "function"
    },
    {
      "constant": false,
      "inputs": [
        {
          "name": "_project",
          "type": "address"
        },
        {
          "name": "_voter",
          "type": "address"
        },
        {
          "name": "votes",
          "type": "uint256"
        },
        {
          "name": "_signedMessage",
          "type": "bytes"
        }
      ],
      "name": "voteForProject",
      "outputs": [],
      "payable": false,
      "stateMutability": "nonpayable",
      "type": "function"
    },
    {
      "constant": false,
      "inputs": [
        {
          "name": "_project",
          "type": "address"
        },
        {
          "name": "_voter",
          "type": "address"
        },
        {
          "name": "votes",
          "type": "uint256"
        },
        {
          "name": "_signedMessage",
          "type": "bytes"
        }
      ],
      "name": "removeVotesFromProject",
      "outputs": [],
      "payable": false,
      "stateMutability": "nonpayable",
      "type": "function"
    },
    {
      "constant": false,
      "inputs": [
        {
          "name": "account",
          "type": "address"
        },
        {
          "name": "fromProjectAddr",
          "type": "address"
        }
      ],
      "name": "removeVotesFromProjectByAccount",
      "outputs": [],
      "payable": false,
      "stateMutability": "nonpayable",
      "type": "function"
    }
  ],
  "bytecode": "0x608060405234801561001057600080fd5b50604051610100806200450b833981018060405281019080805190602001909291908051906020019092919080519060200190929190805190602001909291908051906020019092919080519060200190929190805190602001909291908051906020019092919050505087878288888760008311151561009057600080fd5b600073ffffffffffffffffffffffffffffffffffffffff168273ffffffffffffffffffffffffffffffffffffffff16141515156100cc57600080fd5b8260028190555081600160006101000a81548173ffffffffffffffffffffffffffffffffffffffff021916908373ffffffffffffffffffffffffffffffffffffffff160217905550806000806101000a81548173ffffffffffffffffffffffffffffffffffffffff021916908373ffffffffffffffffffffffffffffffffffffffff16021790555050505042831015151561016657600080fd5b82821015151561017557600080fd5b826004819055508160058190555080600660016101000a81548173ffffffffffffffffffffffffffffffffffffffff021916908373ffffffffffffffffffffffffffffffffffffffff160217905550505050600060078190555081600860006101000a81548173ffffffffffffffffffffffffffffffffffffffff021916908373ffffffffffffffffffffffffffffffffffffffff16021790555083600960006101000a81548173ffffffffffffffffffffffffffffffffffffffff021916908373ffffffffffffffffffffffffffffffffffffffff16021790555050505050505050506142a280620002696000396000f3006080604052600436106200013f576000357c0100000000000000000000000000000000000000000000000000000000900463ffffffff168063034e390514620001415780631515bc2b14620001b15780631d112fba14620001e357806320eeb320146200030b57806324745258146200033d578063295b9300146200039757806350b7342f14620003c557806355a6e11b14620003df5780636fc39a6d14620004955780639a38bfae146200054b578063b0e0116414620005ad578063b7a8807c1462000607578063bb9c04901462000635578063bfa4893f146200064f578063c19b7bc014620006a9578063c8592b1214620006d7578063c8ab525b1462000739578063d0febe4c1462000767578063e31bc6141462000773578063e5ae959e14620007a1578063ec8ac4d81462000807578063fc0c546a1462000853575b005b3480156200014e57600080fd5b506200016f60048036038101908080359060200190929190505050620008ad565b604051808273ffffffffffffffffffffffffffffffffffffffff1673ffffffffffffffffffffffffffffffffffffffff16815260200191505060405180910390f35b348015620001be57600080fd5b50620001c9620008ea565b604051808215151515815260200191505060405180910390f35b348015620001f057600080fd5b5062000309600480360381019080803590602001908201803590602001908080601f01602080910402602001604051908101604052809392919081815260200183838082843782019150505050505091929192908035906020019092919080359060200190929190803590602001908201803590602001908080601f0160208091040260200160405190810160405280939291908181526020018383808284378201915050505050509192919290803590602001908201803590602001908080601f016020809104026020016040519081016040528093929190818152602001838380828437820191505050505050919291929080356000191690602001909291908035600019169060200190929190505050620008f6565b005b3480156200031857600080fd5b506200032362001186565b604051808215151515815260200191505060405180910390f35b3480156200034a57600080fd5b506200035562001199565b604051808273ffffffffffffffffffffffffffffffffffffffff1673ffffffffffffffffffffffffffffffffffffffff16815260200191505060405180910390f35b348015620003a457600080fd5b50620003af620011bf565b6040518082815260200191505060405180910390f35b348015620003d257600080fd5b50620003dd620011c5565b005b348015620003ec57600080fd5b5062000493600480360381019080803573ffffffffffffffffffffffffffffffffffffffff169060200190929190803573ffffffffffffffffffffffffffffffffffffffff16906020019092919080359060200190929190803590602001908201803590602001908080601f016020809104026020016040519081016040528093929190818152602001838380828437820191505050505050919291929050505062001380565b005b348015620004a257600080fd5b5062000549600480360381019080803573ffffffffffffffffffffffffffffffffffffffff169060200190929190803573ffffffffffffffffffffffffffffffffffffffff16906020019092919080359060200190929190803590602001908201803590602001908080601f0160208091040260200160405190810160405280939291908181526020018383808284378201915050505050509192919290505050620013e5565b005b3480156200055857600080fd5b506200058f600480360381019080803573ffffffffffffffffffffffffffffffffffffffff16906020019092919050505062001529565b60405180826000191660001916815260200191505060405180910390f35b348015620005ba57600080fd5b50620005c562001541565b604051808273ffffffffffffffffffffffffffffffffffffffff1673ffffffffffffffffffffffffffffffffffffffff16815260200191505060405180910390f35b3480156200061457600080fd5b506200061f62001567565b6040518082815260200191505060405180910390f35b3480156200064257600080fd5b506200064d6200156d565b005b3480156200065c57600080fd5b5062000667620015fa565b604051808273ffffffffffffffffffffffffffffffffffffffff1673ffffffffffffffffffffffffffffffffffffffff16815260200191505060405180910390f35b348015620006b657600080fd5b50620006c162001620565b6040518082815260200191505060405180910390f35b348015620006e457600080fd5b506200071b600480360381019080803573ffffffffffffffffffffffffffffffffffffffff16906020019092919050505062001626565b60405180826000191660001916815260200191505060405180910390f35b3480156200074657600080fd5b50620007516200163e565b6040518082815260200191505060405180910390f35b6200077162001648565b005b3480156200078057600080fd5b506200078b62001761565b6040518082815260200191505060405180910390f35b348015620007ae57600080fd5b5062000805600480360381019080803573ffffffffffffffffffffffffffffffffffffffff169060200190929190803573ffffffffffffffffffffffffffffffffffffffff1690602001909291905050506200176b565b005b6200083d600480360381019080803573ffffffffffffffffffffffffffffffffffffffff169060200190929190505050620019b8565b6040518082815260200191505060405180910390f35b3480156200086057600080fd5b506200086b62001b4b565b604051808273ffffffffffffffffffffffffffffffffffffffff1673ffffffffffffffffffffffffffffffffffffffff16815260200191505060405180910390f35b6000600c600083815260200190815260200160002060009054906101000a900473ffffffffffffffffffffffffffffffffffffffff169050919050565b60006005544211905090565b600080600062000907888a62001b70565b925092506000809054906101000a900473ffffffffffffffffffffffffffffffffffffffff1673ffffffffffffffffffffffffffffffffffffffff166340c10f19600160009054906101000a900473ffffffffffffffffffffffffffffffffffffffff16856040518363ffffffff167c0100000000000000000000000000000000000000000000000000000000028152600401808373ffffffffffffffffffffffffffffffffffffffff1673ffffffffffffffffffffffffffffffffffffffff16815260200182815260200192505050602060405180830381600087803b158015620009f257600080fd5b505af115801562000a07573d6000803e3d6000fd5b505050506040513d602081101562000a1e57600080fd5b8101908080519060200190929190505050506000809054906101000a900473ffffffffffffffffffffffffffffffffffffffff1673ffffffffffffffffffffffffffffffffffffffff166340c10f1930846040518363ffffffff167c0100000000000000000000000000000000000000000000000000000000028152600401808373ffffffffffffffffffffffffffffffffffffffff1673ffffffffffffffffffffffffffffffffffffffff16815260200182815260200192505050602060405180830381600087803b15801562000af557600080fd5b505af115801562000b0a573d6000803e3d6000fd5b505050506040513d602081101562000b2157600080fd5b81019080805190602001909291905050505062000b4a8860075462001bc690919063ffffffff16565b60078190555062000b5c605a62001be3565b89600160009054906101000a900473ffffffffffffffffffffffffffffffffffffffff16600960009054906101000a900473ffffffffffffffffffffffffffffffffffffffff168a8c87878d8d62000bb36200275b565b80806020018a73ffffffffffffffffffffffffffffffffffffffff1673ffffffffffffffffffffffffffffffffffffffff1681526020018973ffffffffffffffffffffffffffffffffffffffff1673ffffffffffffffffffffffffffffffffffffffff168152602001888152602001878152602001868152602001858152602001806020018060200184810384528d818151815260200191508051906020019080838360005b8381101562000c7657808201518184015260208101905062000c59565b50505050905090810190601f16801562000ca45780820380516001836020036101000a031916815260200191505b50848103835286818151815260200191508051906020019080838360005b8381101562000cdf57808201518184015260208101905062000cc2565b50505050905090810190601f16801562000d0d5780820380516001836020036101000a031916815260200191505b50848103825285818151815260200191508051906020019080838360005b8381101562000d4857808201518184015260208101905062000d2b565b50505050905090810190601f16801562000d765780820380516001836020036101000a031916815260200191505b509c50505050505050505050505050604051809103906000f08015801562000da2573d6000803e3d6000fd5b509050600860009054906101000a900473ffffffffffffffffffffffffffffffffffffffff1673ffffffffffffffffffffffffffffffffffffffff1663b1a1f2476040518163ffffffff167c0100000000000000000000000000000000000000000000000000000000028152600401600060405180830381600087803b15801562000e2c57600080fd5b505af115801562000e41573d6000803e3d6000fd5b5050505062000e5d6001600d5462001bc690919063ffffffff16565b600d8190555080600c6000600d54815260200190815260200160002060006101000a81548173ffffffffffffffffffffffffffffffffffffffff021916908373ffffffffffffffffffffffffffffffffffffffff16021790555084600a60008373ffffffffffffffffffffffffffffffffffffffff1673ffffffffffffffffffffffffffffffffffffffff168152602001908152602001600020816000191690555083600b60008373ffffffffffffffffffffffffffffffffffffffff1673ffffffffffffffffffffffffffffffffffffffff16815260200190815260200160002081600019169055507f5cd4e9bb532f36dce45b3000fa5ce545935a2d0d0d98f916530f0aafa2b4082881600160009054906101000a900473ffffffffffffffffffffffffffffffffffffffff168c8a8a8e8e8a8a600d54604051808b73ffffffffffffffffffffffffffffffffffffffff1673ffffffffffffffffffffffffffffffffffffffff1681526020018a73ffffffffffffffffffffffffffffffffffffffff1673ffffffffffffffffffffffffffffffffffffffff16815260200180602001806020018060200189815260200188815260200187815260200186815260200185815260200184810384528c818151815260200191508051906020019080838360005b838110156200106257808201518184015260208101905062001045565b50505050905090810190601f168015620010905780820380516001836020036101000a031916815260200191505b5084810383528b818151815260200191508051906020019080838360005b83811015620010cb578082015181840152602081019050620010ae565b50505050905090810190601f168015620010f95780820380516001836020036101000a031916815260200191505b5084810382528a818151815260200191508051906020019080838360005b838110156200113457808201518184015260208101905062001117565b50505050905090810190601f168015620011625780820380516001836020036101000a031916815260200191505b509d505050505050505050505050505060405180910390a150505050505050505050565b600660009054906101000a900460ff1681565b600860009054906101000a900473ffffffffffffffffffffffffffffffffffffffff1681565b60075481565b620011cf620008ea565b1515620011db57600080fd5b600660019054906101000a900473ffffffffffffffffffffffffffffffffffffffff1673ffffffffffffffffffffffffffffffffffffffff166349dd12dd6003546040518263ffffffff167c01000000000000000000000000000000000000000000000000000000000281526004016000604051808303818588803b1580156200126457600080fd5b505af115801562001279573d6000803e3d6000fd5b505050505060006003819055506000809054906101000a900473ffffffffffffffffffffffffffffffffffffffff1673ffffffffffffffffffffffffffffffffffffffff1663c4bc712a600160009054906101000a900473ffffffffffffffffffffffffffffffffffffffff166040518263ffffffff167c0100000000000000000000000000000000000000000000000000000000028152600401808273ffffffffffffffffffffffffffffffffffffffff1673ffffffffffffffffffffffffffffffffffffffff168152602001915050600060405180830381600087803b1580156200136557600080fd5b505af11580156200137a573d6000803e3d6000fd5b50505050565b6000600b60008673ffffffffffffffffffffffffffffffffffffffff1673ffffffffffffffffffffffffffffffffffffffff168152602001908152602001600020549050620013d182858362001c92565b620013de84868562001dfe565b5050505050565b600080600a60008773ffffffffffffffffffffffffffffffffffffffff1673ffffffffffffffffffffffffffffffffffffffff1681526020019081526020016000205491506200143783868462001c92565b8590508073ffffffffffffffffffffffffffffffffffffffff16635f74bbde86866040518363ffffffff167c0100000000000000000000000000000000000000000000000000000000028152600401808373ffffffffffffffffffffffffffffffffffffffff1673ffffffffffffffffffffffffffffffffffffffff16815260200182815260200192505050600060405180830381600087803b158015620014de57600080fd5b505af1158015620014f3573d6000803e3d6000fd5b505050506200151061a8c060055462001bc690919063ffffffff16565b600581905550620015218662001ef0565b505050505050565b600a6020528060005260406000206000915090505481565b600960009054906101000a900473ffffffffffffffffffffffffffffffffffffffff1681565b60045481565b600660019054906101000a900473ffffffffffffffffffffffffffffffffffffffff1673ffffffffffffffffffffffffffffffffffffffff163373ffffffffffffffffffffffffffffffffffffffff16148015620015d15750620015d0620008ea565b5b1515620015dd57600080fd5b6001600660006101000a81548160ff021916908315150217905550565b600660019054906101000a900473ffffffffffffffffffffffffffffffffffffffff1681565b60055481565b600b6020528060005260406000206000915090505481565b6000600d54905090565b60008060009054906101000a900473ffffffffffffffffffffffffffffffffffffffff1673ffffffffffffffffffffffffffffffffffffffff16630d8654e8336040518263ffffffff167c0100000000000000000000000000000000000000000000000000000000028152600401808273ffffffffffffffffffffffffffffffffffffffff1673ffffffffffffffffffffffffffffffffffffffff168152602001915050602060405180830381600087803b1580156200170757600080fd5b505af11580156200171c573d6000803e3d6000fd5b505050506040513d60208110156200173357600080fd5b8101908080519060200190929190505050506200175033620019b8565b90506200175e605a62001be3565b50565b6000600354905090565b6000808291508173ffffffffffffffffffffffffffffffffffffffff1663fcfff16f6040518163ffffffff167c0100000000000000000000000000000000000000000000000000000000028152600401602060405180830381600087803b158015620017d657600080fd5b505af1158015620017eb573d6000803e3d6000fd5b505050506040513d60208110156200180257600080fd5b81019080805190602001909291905050501580620018be57508173ffffffffffffffffffffffffffffffffffffffff16634d7c09dd6040518163ffffffff167c0100000000000000000000000000000000000000000000000000000000028152600401602060405180830381600087803b1580156200188057600080fd5b505af115801562001895573d6000803e3d6000fd5b505050506040513d6020811015620018ac57600080fd5b81019080805190602001909291905050505b1515620018ca57600080fd5b8173ffffffffffffffffffffffffffffffffffffffff166379ec5d3a856040518263ffffffff167c0100000000000000000000000000000000000000000000000000000000028152600401808273ffffffffffffffffffffffffffffffffffffffff1673ffffffffffffffffffffffffffffffffffffffff168152602001915050602060405180830381600087803b1580156200196657600080fd5b505af11580156200197b573d6000803e3d6000fd5b505050506040513d60208110156200199257600080fd5b81019080805190602001909291905050509050620019b284848362001dfe565b50505050565b6000806000349150620019cc848362001fd4565b620019d7826200201a565b9050620019f08260035462001bc690919063ffffffff16565b6003819055506000809054906101000a900473ffffffffffffffffffffffffffffffffffffffff1673ffffffffffffffffffffffffffffffffffffffff166309b38a5d85836040518363ffffffff167c0100000000000000000000000000000000000000000000000000000000028152600401808373ffffffffffffffffffffffffffffffffffffffff1673ffffffffffffffffffffffffffffffffffffffff16815260200182815260200192505050600060405180830381600087803b15801562001abb57600080fd5b505af115801562001ad0573d6000803e3d6000fd5b505050508373ffffffffffffffffffffffffffffffffffffffff163373ffffffffffffffffffffffffffffffffffffffff167f623b3804fa71d67900d064613da8f94b9617215ee90799290593e1745087ad188484604051808381526020018281526020019250505060405180910390a38092505050919050565b6000809054906101000a900473ffffffffffffffffffffffffffffffffffffffff1681565b600080600062001b8a84866200203a90919063ffffffff16565b905062001ba3600254826200205490919063ffffffff16565b62001bba600254866200205490919063ffffffff16565b92509250509250929050565b6000818301905082811015151562001bda57fe5b80905092915050565b60008060008042925060045491506005549050600454421015801562001c0b57506005544211155b8062001c235750600660009054906101000a900460ff165b151562001c2f57600080fd5b62001c5b62001c4b621a5e00876200205490919063ffffffff16565b4262001bc690919063ffffffff16565b935060055484111562001c8b57836005819055506000600660006101000a81548160ff0219169083151502179055505b5050505050565b6000816000191673__ECRecovery____________________________6319045a259091866040518363ffffffff167c010000000000000000000000000000000000000000000000000000000002815260040180836000191660001916815260200180602001828103825283818151815260200191508051906020019080838360005b8381101562001d3157808201518184015260208101905062001d14565b50505050905090810190601f16801562001d5f5780820380516001836020036101000a031916815260200191505b50935050505060206040518083038186803b15801562001d7e57600080fd5b505af415801562001d93573d6000803e3d6000fd5b505050506040513d602081101562001daa57600080fd5b810190808051906020019092919050505090508273ffffffffffffffffffffffffffffffffffffffff168173ffffffffffffffffffffffffffffffffffffffff1614151562001df857600080fd5b50505050565b60008290508073ffffffffffffffffffffffffffffffffffffffff1663ce6a088085846040518363ffffffff167c0100000000000000000000000000000000000000000000000000000000028152600401808373ffffffffffffffffffffffffffffffffffffffff1673ffffffffffffffffffffffffffffffffffffffff16815260200182815260200192505050600060405180830381600087803b15801562001ea757600080fd5b505af115801562001ebc573d6000803e3d6000fd5b5050505062001ed961a8c06005546200203a90919063ffffffff16565b60058190555062001eea8362001ef0565b50505050565b600860009054906101000a900473ffffffffffffffffffffffffffffffffffffffff1673ffffffffffffffffffffffffffffffffffffffff1663b1ccf10a826040518263ffffffff167c0100000000000000000000000000000000000000000000000000000000028152600401808273ffffffffffffffffffffffffffffffffffffffff1673ffffffffffffffffffffffffffffffffffffffff168152602001915050600060405180830381600087803b15801562001fae57600080fd5b505af115801562001fc3573d6000803e3d6000fd5b5050505062001fd162002090565b50565b600080600042925060045491506005549050600454421015801562001ffb57506005544211155b15156200200757600080fd5b620020138585620026bd565b5050505050565b600062002033600254836200205490919063ffffffff16565b9050919050565b60008282111515156200204957fe5b818303905092915050565b6000808314156200206957600090506200208a565b81830290508183828115156200207b57fe5b041415156200208657fe5b8090505b92915050565b600080600080600860009054906101000a900473ffffffffffffffffffffffffffffffffffffffff1673ffffffffffffffffffffffffffffffffffffffff1663af29f2f46040518163ffffffff167c01000000000000000000000000000000000000000000000000000000000281526004016040805180830381600087803b1580156200211c57600080fd5b505af115801562002131573d6000803e3d6000fd5b505050506040513d60408110156200214857600080fd5b810190808051906020019092919080519060200190929190505050935093508391508173ffffffffffffffffffffffffffffffffffffffff1663d4cf7db66040518163ffffffff167c0100000000000000000000000000000000000000000000000000000000028152600401602060405180830381600087803b158015620021cf57600080fd5b505af1158015620021e4573d6000803e3d6000fd5b505050506040513d6020811015620021fb57600080fd5b810190808051906020019092919050505090508280156200221e57506003548111155b8015620022c957508173ffffffffffffffffffffffffffffffffffffffff1663fcfff16f6040518163ffffffff167c0100000000000000000000000000000000000000000000000000000000028152600401602060405180830381600087803b1580156200228b57600080fd5b505af1158015620022a0573d6000803e3d6000fd5b505050506040513d6020811015620022b757600080fd5b81019080805190602001909291905050505b15620026b7578173ffffffffffffffffffffffffffffffffffffffff16630f15f4c06040518163ffffffff167c0100000000000000000000000000000000000000000000000000000000028152600401600060405180830381600087803b1580156200233457600080fd5b505af115801562002349573d6000803e3d6000fd5b505050508173ffffffffffffffffffffffffffffffffffffffff166351973ec96040518163ffffffff167c0100000000000000000000000000000000000000000000000000000000028152600401600060405180830381600087803b158015620023b257600080fd5b505af1158015620023c7573d6000803e3d6000fd5b50505050620023f9600160009054906101000a900473ffffffffffffffffffffffffffffffffffffffff16826200270f565b62002410816003546200203a90919063ffffffff16565b600381905550600860009054906101000a900473ffffffffffffffffffffffffffffffffffffffff1673ffffffffffffffffffffffffffffffffffffffff1663e53b61c96040518163ffffffff167c0100000000000000000000000000000000000000000000000000000000028152600401600060405180830381600087803b1580156200249d57600080fd5b505af1158015620024b2573d6000803e3d6000fd5b505050506000809054906101000a900473ffffffffffffffffffffffffffffffffffffffff1673ffffffffffffffffffffffffffffffffffffffff166375a915876200264a8473ffffffffffffffffffffffffffffffffffffffff1663d705f3876040518163ffffffff167c0100000000000000000000000000000000000000000000000000000000028152600401602060405180830381600087803b1580156200255c57600080fd5b505af115801562002571573d6000803e3d6000fd5b505050506040513d60208110156200258857600080fd5b81019080805190602001909291905050508573ffffffffffffffffffffffffffffffffffffffff1663929aebdf6040518163ffffffff167c0100000000000000000000000000000000000000000000000000000000028152600401602060405180830381600087803b158015620025fe57600080fd5b505af115801562002613573d6000803e3d6000fd5b505050506040513d60208110156200262a57600080fd5b810190808051906020019092919050505062001bc690919063ffffffff16565b6040518263ffffffff167c010000000000000000000000000000000000000000000000000000000002815260040180828152602001915050600060405180830381600087803b1580156200269d57600080fd5b505af1158015620026b2573d6000803e3d6000fd5b505050505b50505050565b600073ffffffffffffffffffffffffffffffffffffffff168273ffffffffffffffffffffffffffffffffffffffff1614151515620026fa57600080fd5b600081141515156200270b57600080fd5b5050565b8173ffffffffffffffffffffffffffffffffffffffff166108fc829081150290604051600060405180830381858888f1935050505015801562002756573d6000803e3d6000fd5b505050565b604051611b0a806200276d83390190560060806040523480156200001157600080fd5b5060405162001b0a38038062001b0a833981018060405281019080805182019291906020018051906020019092919080519060200190929190805190602001909291908051906020019092919080519060200190929190805190602001909291908051820192919060200180518201929190505050336000806101000a81548173ffffffffffffffffffffffffffffffffffffffff021916908373ffffffffffffffffffffffffffffffffffffffff1602179055508860019080519060200190620000de929190620001ee565b5087600260006101000a81548173ffffffffffffffffffffffffffffffffffffffff021916908373ffffffffffffffffffffffffffffffffffffffff16021790555086600360006101000a81548173ffffffffffffffffffffffffffffffffffffffff021916908373ffffffffffffffffffffffffffffffffffffffff16021790555085600581905550846006819055508360078190555082600881905550816009908051906020019062000195929190620001ee565b5080600a9080519060200190620001ae929190620001ee565b506000600b819055506000600c60006101000a81548160ff02191690831515021790555063013d238042016004819055505050505050505050506200029d565b828054600181600116156101000203166002900490600052602060002090601f016020900481019282601f106200023157805160ff191683800117855562000262565b8280016001018555821562000262579182015b828111156200026157825182559160200191906001019062000244565b5b50905062000271919062000275565b5090565b6200029a91905b80821115620002965760008160009055506001016200027c565b5090565b90565b61185d80620002ad6000396000f300608060405260043610610149576000357c0100000000000000000000000000000000000000000000000000000000900463ffffffff16806302fb0c5e1461014e5780630f15f4c01461017d578063272666e3146101945780632d06177a146101bf5780634d7c09dd1461020257806351973ec91461023157806355d576cc146102485780635b184f88146102d85780635f74bbde1461031b578063705c5be514610368578063715018a6146103c357806379ec5d3a146103da5780638da5cb5b14610431578063929aebdf14610488578063b0e01164146104b3578063b1053da61461050a578063c78243cf14610535578063ce6a088014610560578063d0e30db0146105ad578063d4cf7db6146105b7578063d705f387146105e2578063da4493f61461060d578063e2b9e18614610638578063f2fde38b146106c8578063fcfff16f1461070b575b600080fd5b34801561015a57600080fd5b5061016361073a565b604051808215151515815260200191505060405180910390f35b34801561018957600080fd5b5061019261074d565b005b3480156101a057600080fd5b506101a96108e9565b6040518082815260200191505060405180910390f35b3480156101cb57600080fd5b50610200600480360381019080803573ffffffffffffffffffffffffffffffffffffffff1690602001909291905050506108f3565b005b34801561020e57600080fd5b50610217610a05565b604051808215151515815260200191505060405180910390f35b34801561023d57600080fd5b50610246610a1c565b005b34801561025457600080fd5b5061025d610c6f565b6040518080602001828103825283818151815260200191508051906020019080838360005b8381101561029d578082015181840152602081019050610282565b50505050905090810190601f1680156102ca5780820380516001836020036101000a031916815260200191505b509250505060405180910390f35b3480156102e457600080fd5b50610319600480360381019080803573ffffffffffffffffffffffffffffffffffffffff169060200190929190505050610d0d565b005b34801561032757600080fd5b50610366600480360381019080803573ffffffffffffffffffffffffffffffffffffffff16906020019092919080359060200190929190505050610e08565b005b34801561037457600080fd5b506103a9600480360381019080803573ffffffffffffffffffffffffffffffffffffffff16906020019092919050505061102c565b604051808215151515815260200191505060405180910390f35b3480156103cf57600080fd5b506103d86110e6565b005b3480156103e657600080fd5b5061041b600480360381019080803573ffffffffffffffffffffffffffffffffffffffff1690602001909291905050506111e8565b6040518082815260200191505060405180910390f35b34801561043d57600080fd5b50610446611231565b604051808273ffffffffffffffffffffffffffffffffffffffff1673ffffffffffffffffffffffffffffffffffffffff16815260200191505060405180910390f35b34801561049457600080fd5b5061049d611256565b6040518082815260200191505060405180910390f35b3480156104bf57600080fd5b506104c8611260565b604051808273ffffffffffffffffffffffffffffffffffffffff1673ffffffffffffffffffffffffffffffffffffffff16815260200191505060405180910390f35b34801561051657600080fd5b5061051f611286565b6040518082815260200191505060405180910390f35b34801561054157600080fd5b5061054a611290565b6040518082815260200191505060405180910390f35b34801561056c57600080fd5b506105ab600480360381019080803573ffffffffffffffffffffffffffffffffffffffff1690602001909291908035906020019092919050505061129a565b005b6105b561151d565b005b3480156105c357600080fd5b506105cc6115d3565b6040518082815260200191505060405180910390f35b3480156105ee57600080fd5b506105f76115dd565b6040518082815260200191505060405180910390f35b34801561061957600080fd5b506106226115e7565b6040518082815260200191505060405180910390f35b34801561064457600080fd5b5061064d6115ed565b6040518080602001828103825283818151815260200191508051906020019080838360005b8381101561068d578082015181840152602081019050610672565b50505050905090810190601f1680156106ba5780820380516001836020036101000a031916815260200191505b509250505060405180910390f35b3480156106d457600080fd5b50610709600480360381019080803573ffffffffffffffffffffffffffffffffffffffff16906020019092919050505061168f565b005b34801561071757600080fd5b506107206116f6565b604051808215151515815260200191505060405180910390f35b600c60009054906101000a900460ff1681565b6000809054906101000a900473ffffffffffffffffffffffffffffffffffffffff1673ffffffffffffffffffffffffffffffffffffffff163373ffffffffffffffffffffffffffffffffffffffff161415156107a857600080fd5b6001600c60006101000a81548160ff02191690831515021790555042600d819055507fbb68ecd801c9a6b91d3a2dfeb388cd808da6c2d25461274ca796905fd9236f58306001600c60009054906101000a900460ff16600654600554604051808673ffffffffffffffffffffffffffffffffffffffff1673ffffffffffffffffffffffffffffffffffffffff16815260200180602001851515151581526020018481526020018381526020018281038252868181546001816001161561010002031660029004815260200191508054600181600116156101000203166002900480156108d55780601f106108aa576101008083540402835291602001916108d5565b820191906000526020600020905b8154815290600101906020018083116108b857829003601f168201915b5050965050505050505060405180910390a1565b6000600454905090565b60011515600f60003373ffffffffffffffffffffffffffffffffffffffff1673ffffffffffffffffffffffffffffffffffffffff16815260200190815260200160002060009054906101000a900460ff161515148061099f5750600260009054906101000a900473ffffffffffffffffffffffffffffffffffffffff1673ffffffffffffffffffffffffffffffffffffffff163373ffffffffffffffffffffffffffffffffffffffff16145b15156109aa57600080fd5b6001600f60008373ffffffffffffffffffffffffffffffffffffffff1673ffffffffffffffffffffffffffffffffffffffff16815260200190815260200160002060006101000a81548160ff02191690831515021790555050565b6000600c60009054906101000a900460ff16905090565b7f618aac77ac61fdbff533123688fa5e33fe0d021db44eac318ae37b90c6f71d563060016005546006546007546008546009600a600b54600c60009054906101000a900460ff16604051808b73ffffffffffffffffffffffffffffffffffffffff1673ffffffffffffffffffffffffffffffffffffffff168152602001806020018a815260200189815260200188815260200187815260200180602001806020018681526020018515151515815260200184810384528d818154600181600116156101000203166002900481526020019150805460018160011615610100020316600290048015610b4e5780601f10610b2357610100808354040283529160200191610b4e565b820191906000526020600020905b815481529060010190602001808311610b3157829003601f168201915b5050848103835288818154600181600116156101000203166002900481526020019150805460018160011615610100020316600290048015610bd15780601f10610ba657610100808354040283529160200191610bd1565b820191906000526020600020905b815481529060010190602001808311610bb457829003601f168201915b5050848103825287818154600181600116156101000203166002900481526020019150805460018160011615610100020316600290048015610c545780601f10610c2957610100808354040283529160200191610c54565b820191906000526020600020905b815481529060010190602001808311610c3757829003601f168201915b50509d505050505050505050505050505060405180910390a1565b60098054600181600116156101000203166002900480601f016020809104026020016040519081016040528092919081815260200182805460018160011615610100020316600290048015610d055780601f10610cda57610100808354040283529160200191610d05565b820191906000526020600020905b815481529060010190602001808311610ce857829003601f168201915b505050505081565b60011515600f60003373ffffffffffffffffffffffffffffffffffffffff1673ffffffffffffffffffffffffffffffffffffffff16815260200190815260200160002060009054906101000a900460ff1615151480610db95750600260009054906101000a900473ffffffffffffffffffffffffffffffffffffffff1673ffffffffffffffffffffffffffffffffffffffff163373ffffffffffffffffffffffffffffffffffffffff16145b1515610dc457600080fd5b80600360006101000a81548173ffffffffffffffffffffffffffffffffffffffff021916908373ffffffffffffffffffffffffffffffffffffffff16021790555050565b6000809054906101000a900473ffffffffffffffffffffffffffffffffffffffff1673ffffffffffffffffffffffffffffffffffffffff163373ffffffffffffffffffffffffffffffffffffffff16141515610e6357600080fd5b610eb581600e60008573ffffffffffffffffffffffffffffffffffffffff1673ffffffffffffffffffffffffffffffffffffffff1681526020019081526020016000205461170290919063ffffffff16565b600e60008473ffffffffffffffffffffffffffffffffffffffff1673ffffffffffffffffffffffffffffffffffffffff16815260200190815260200160002081905550610f0d81600b5461170290919063ffffffff16565b600b81905550610f2a61a8c060045461170290919063ffffffff16565b6004819055507fcf9b861cde9b2e35562b9c022cf860169c6ef8df3f29b757e508509057e8c2ab306001600b54604051808473ffffffffffffffffffffffffffffffffffffffff1673ffffffffffffffffffffffffffffffffffffffff168152602001806020018381526020018281038252848181546001816001161561010002031660029004815260200191508054600181600116156101000203166002900480156110185780601f10610fed57610100808354040283529160200191611018565b820191906000526020600020905b815481529060010190602001808311610ffb57829003601f168201915b505094505050505060405180910390a15050565b600080600b541180156110df57508173ffffffffffffffffffffffffffffffffffffffff1663c78243cf6040518163ffffffff167c0100000000000000000000000000000000000000000000000000000000028152600401602060405180830381600087803b15801561109e57600080fd5b505af11580156110b2573d6000803e3d6000fd5b505050506040513d60208110156110c857600080fd5b8101908080519060200190929190505050600b5410155b9050919050565b6000809054906101000a900473ffffffffffffffffffffffffffffffffffffffff1673ffffffffffffffffffffffffffffffffffffffff163373ffffffffffffffffffffffffffffffffffffffff1614151561114157600080fd5b6000809054906101000a900473ffffffffffffffffffffffffffffffffffffffff1673ffffffffffffffffffffffffffffffffffffffff167ff8df31144d9c2f0f6b59d69b8b98abd5459d07f2742c4df920b25aae33c6482060405160405180910390a260008060006101000a81548173ffffffffffffffffffffffffffffffffffffffff021916908373ffffffffffffffffffffffffffffffffffffffff160217905550565b6000600e60008373ffffffffffffffffffffffffffffffffffffffff1673ffffffffffffffffffffffffffffffffffffffff168152602001908152602001600020549050919050565b6000809054906101000a900473ffffffffffffffffffffffffffffffffffffffff1681565b6000600754905090565b600360009054906101000a900473ffffffffffffffffffffffffffffffffffffffff1681565b6000600d54905090565b6000600b54905090565b6000809054906101000a900473ffffffffffffffffffffffffffffffffffffffff1673ffffffffffffffffffffffffffffffffffffffff163373ffffffffffffffffffffffffffffffffffffffff161415156112f557600080fd5b600b54811115151561130657600080fd5b600e60008373ffffffffffffffffffffffffffffffffffffffff1673ffffffffffffffffffffffffffffffffffffffff16815260200190815260200160002054811115151561135457600080fd5b6113a681600e60008573ffffffffffffffffffffffffffffffffffffffff1673ffffffffffffffffffffffffffffffffffffffff1681526020019081526020016000205461171e90919063ffffffff16565b600e60008473ffffffffffffffffffffffffffffffffffffffff1673ffffffffffffffffffffffffffffffffffffffff168152602001908152602001600020819055506113fe81600b5461171e90919063ffffffff16565b600b8190555061141b61a8c060045461171e90919063ffffffff16565b6004819055507fcf9b861cde9b2e35562b9c022cf860169c6ef8df3f29b757e508509057e8c2ab306001600b54604051808473ffffffffffffffffffffffffffffffffffffffff1673ffffffffffffffffffffffffffffffffffffffff168152602001806020018381526020018281038252848181546001816001161561010002031660029004815260200191508054600181600116156101000203166002900480156115095780601f106114de57610100808354040283529160200191611509565b820191906000526020600020905b8154815290600101906020018083116114ec57829003601f168201915b505094505050505060405180910390a15050565b600080341415151561152e57600080fd5b349050600360009054906101000a900473ffffffffffffffffffffffffffffffffffffffff1673ffffffffffffffffffffffffffffffffffffffff166379fc4687826040518263ffffffff167c01000000000000000000000000000000000000000000000000000000000281526004016000604051808303818588803b1580156115b757600080fd5b505af11580156115cb573d6000803e3d6000fd5b505050505050565b6000600654905090565b6000600854905090565b600d5481565b606060018054600181600116156101000203166002900480601f0160208091040260200160405190810160405280929190818152602001828054600181600116156101000203166002900480156116855780601f1061165a57610100808354040283529160200191611685565b820191906000526020600020905b81548152906001019060200180831161166857829003601f168201915b5050505050905090565b6000809054906101000a900473ffffffffffffffffffffffffffffffffffffffff1673ffffffffffffffffffffffffffffffffffffffff163373ffffffffffffffffffffffffffffffffffffffff161415156116ea57600080fd5b6116f381611737565b50565b60004260045411905090565b6000818301905082811015151561171557fe5b80905092915050565b600082821115151561172c57fe5b818303905092915050565b600073ffffffffffffffffffffffffffffffffffffffff168173ffffffffffffffffffffffffffffffffffffffff161415151561177357600080fd5b8073ffffffffffffffffffffffffffffffffffffffff166000809054906101000a900473ffffffffffffffffffffffffffffffffffffffff1673ffffffffffffffffffffffffffffffffffffffff167f8be0079c531659141344cd1fd0a4f28419497f9722a3daafe3b4186f6b6457e060405160405180910390a3806000806101000a81548173ffffffffffffffffffffffffffffffffffffffff021916908373ffffffffffffffffffffffffffffffffffffffff160217905550505600a165627a7a72305820427c1c429f678fee9c39771267387db4e61dea13f4115c02298c5d24c547693c0029a165627a7a723058201a01d177bd8c784242780858ad94211a94510158bd8f0817254cb3d6f5419e110029",
  "source": "pragma solidity ^0.4.24;\nimport './TimedCrowdsale.sol';\nimport '../utility/SafeMath.sol';\nimport '../Project.sol';\nimport '../ProjectStub.sol';\nimport '../token/ERC20/Token.sol';\n/* import '../InvestorList.sol'; */\nimport '../Reimbursements.sol';\nimport '../ProjectLeaderTracker.sol';\nimport '../ECRecovery.sol';\n\n\ncontract GNITokenCrowdsale is TimedCrowdsale {\n  using SafeMath for uint256;\n  using ECRecovery for bytes32;\n  uint256 public totalValuation;\n  /* InvestorList public investorList; */\n  ProjectLeaderTracker public projectLeaderTracker;\n  address public dividendWallet;\n\n  constructor\n      (\n        uint256 _openingTime,\n        uint256 _doomsDay,\n        uint256 _rate,\n        address _developer,\n        address _dividendWallet,\n        Token _token,\n        /* InvestorList _investorList, */\n        ProjectLeaderTracker _projectLeaderTracker,\n        address _reimbursements\n      )\n      public\n      Crowdsale(_rate, _developer, _token)\n      TimedCrowdsale(_openingTime, _doomsDay, _reimbursements) {\n        /* investorList = InvestorList(_investorList); */\n        totalValuation = 0;\n        projectLeaderTracker = ProjectLeaderTracker(_projectLeaderTracker);\n        dividendWallet = _dividendWallet;\n  }\n\n  event ProjectPitch (\n    address projectAddress,\n    address developer,\n    string name,\n    string lat,\n    string lng,\n    uint256 capitalRequired,\n    uint256 valuation,\n    uint256 developerTokens,\n    uint256 investorTokens,\n    uint256 totalProjectCount\n  );\n\n  mapping(address => bytes32) public voteHash;\n  mapping(address => bytes32) public removeVoteHash;\n\n  mapping(uint256 => address) internal projectAddress;\n  uint256 internal totalProjectCount;\n\n  function totalProjectCount_() public view returns (uint256) {\n    return totalProjectCount;\n  }\n\n  function projectById (uint256 id) public view returns (address) {\n    return projectAddress[id];\n  }\n\n  function pitchProject(string _name, uint256 capitalRequired, uint256 _valuation, string _lat, string _lng, bytes32 _voteHash, bytes32 _removeVoteHash) public {//should only be callable by developer. may need more tests\n   (uint256 developerTokens, uint256 investorTokens) = tokensToMint(_valuation, capitalRequired);\n\n   Token(token).mint(developer, developerTokens);\n   Token(token).mint(this, investorTokens);\n\n   totalValuation = totalValuation.add(_valuation);\n\n   _extendDoomsDay(90);\n\n    address projectAddr = new Project(_name, developer, dividendWallet, _valuation, capitalRequired, developerTokens, investorTokens, _lat, _lng);\n    projectLeaderTracker.handleProjectPitch();\n    totalProjectCount = totalProjectCount.add(1);\n    projectAddress[totalProjectCount] = projectAddr;\n\n    voteHash[projectAddr] = _voteHash;\n    removeVoteHash[projectAddr] = _removeVoteHash;\n\n    emit ProjectPitch(projectAddr, developer, _name, _lat, _lng, capitalRequired, _valuation, developerTokens, investorTokens, totalProjectCount);\n  }\n\n function tokensToMint (uint256 valuation, uint256 investorValue) private view returns (uint256, uint256) {\n   uint256 developerValue = valuation.sub(investorValue);\n   return (developerValue.mul(rate), investorValue.mul(rate));\n }\n\n //before this, we need to execute any pending token activations with the modifier above for the sender account. We need to do this so that the correct number of tokens are activated\n function buyTokens () public payable { //tests need to be removed/added to account for new functionality. we also may just put all the logic for the super function in here.\n   Token(token).activatePending(msg.sender);\n\n   uint256 voteCredit = super.buyTokens(msg.sender);\n   /* investorList.addInvestor(msg.sender);//recordAccount - will be handled in the call above\n   investorList.addVoteCredit(msg.sender, voteCredit);//recordVoteRemoval - will be handled in the call above */\n   _extendDoomsDay(90);\n  }\n\n function activateProject () internal { //we need more tests for added functionality\n   (\n     address tentativeLeaderAddr,\n     bool tentativeLeaderConfirmed\n   ) = projectLeaderTracker.tentativeLeader();\n\n   Project project = Project(tentativeLeaderAddr);\n   uint256 capitalRequired = project.capitalRequired_();\n   if (\n     tentativeLeaderConfirmed &&\n     capitalRequired <= weiRaised &&\n     project.open()\n     ) {\n     project.activate();\n     project.log();\n     //set the number of project votes to 0.\n\n     forwardFunds(developer, capitalRequired);\n     weiRaised = weiRaised.sub(capitalRequired);\n\n     projectLeaderTracker.handleProjectActivation();\n     Token(token).increasePendingActivations(project.developerTokens_().add(project.investorTokens_()));\n   }\n }\n\n function reimburseFunds () public {\n   require(hasClosed());\n   Reimbursements(reimbursements).recordReimbursement.value(weiRaised)();\n   weiRaised = 0;\n   Token(token).resetInactiveTokenCycle(developer);\n }\n\n//tests need to be modified for all voting functions\n//we need to see if it creates a different hash every time...if the hash is exposed to the frontend it is not secure and anyone can use it to sign this transaction\nfunction voteForProject(address _project, address _voter, uint256 votes, bytes _signedMessage) public {\n  bytes32 unsignedMessage = voteHash[_project];\n  authenticateVoter(_signedMessage, _voter, unsignedMessage);\n\n  /* investorList.removeVoteCredit(_voter, votes);//token.cast(account, amount) */\n\n  Project project = Project(_project);\n  project.vote(_voter, votes);\n  doomsDay = doomsDay.add(43200);\n\n  updateProjects(_project);\n}\n\nfunction removeVotesFromProject(address _project, address _voter, uint256 votes, bytes _signedMessage) public {\n  bytes32 unsignedMessage = removeVoteHash[_project];\n  authenticateVoter(_signedMessage, _voter, unsignedMessage);\n  removeVotesFromProject_(_voter, _project, votes);\n}\n\n //this is for adding vote credit for each investor from the frontend after a project has been activated\n //call this function removeVotesFromIneligibleProject\n function removeVotesFromProjectByAccount (address account, address fromProjectAddr) external {\n   Project project = Project(fromProjectAddr);\n   require(!project.open() || project.active_());\n   uint256 votes = project.votesOf(account);\n   removeVotesFromProject_(account, fromProjectAddr, votes);\n }\n\n function removeVotesFromProject_ (address account, address fromProjectAddr, uint256 votes) internal {\n   Project project = Project(fromProjectAddr);\n\n   project.removeVotes(account, votes);\n   doomsDay = doomsDay.sub(43200);\n   /* investorList.addVoteCredit(account, votes);//token.freeUp(account, amount) */\n\n   updateProjects(fromProjectAddr);\n }\n\n //we will test this separately\n function authenticateVoter(bytes _signedMessage, address voter, bytes32 unsignedMessage) internal {\n   address recoveredVoter = unsignedMessage.recover(_signedMessage);\n   require(recoveredVoter == voter);\n   /* require(investorList.validAccount(voter));//token.existingAccount */\n }\n\n function updateProjects (address votedForProj) internal {\n   projectLeaderTracker.trackProject(votedForProj);\n   activateProject();\n }\n\n //tests need to be updated\n function _extendDoomsDay(uint256 _days) internal canExtendDoomsDay {\n    uint256 newDoomsDay = now.add(_days.mul(1728000));\n    if (newDoomsDay > doomsDay) {\n      doomsDay = newDoomsDay;\n      canReOpen = false;\n    }\n }\n\n  function forwardFunds (address _to, uint256 amount) internal {\n    _to.transfer(amount);\n  }\n}\n\n/* function transferVotes (address fromProjectAddr, address toProjectAddr, uint256 votes) external {\n  Project fromProj = Project(fromProjectAddr);\n  Project toProj = Project(toProjectAddr);\n\n  fromProj.removeVotes(msg.sender, votes);\n  toProj.vote(msg.sender, votes);\n\n  fromProj.log();\n  toProj.log();\n} */\n\n/* function getInfo(uint256 id) public view returns(address) {\n    /* string, uint256, uint256, uint256, uint256, bool, uint256, uint256, address */\n    /* address projectAddr = projectAddrs[id]; */\n    /* return ( */\n      /* return Project(projectAddr).dividendWallet(); */\n      /* Project(projectAddr).name(),\n      Project(projectAddr).valuation(),\n      Project(projectAddr).capitalRequired(),\n      Project(projectAddr).developerTokens(),\n      Project(projectAddr).investorTokens(),\n      Project(projectAddr).active(),\n      Project(projectAddr).totalVotes(),\n      /* Project(projectAddr).closingTime(), */\n      /* projectAddr */\n      /* ); */\n    /* }  */\n\n    /* event VoteAddition (\n      uint256 voteAdditions,\n      uint256 num\n    );\n\n\n    event VoteRemoval (\n      uint256 voteRemovals\n    );\n\n    uint256 voteAdditions;\n    uint256 voteRemovals; */\n",
  "sourcePath": "/Users/matsteelelap/Desktop/ProjectFolder/genie-portal/truffle/contracts/crowdsale/GNITokenCrowdsale.sol",
  "compiler": {
    "name": "solc",
    "version": "0.4.24+commit.e67f0147.Emscripten.clang"
  },
  "schemaVersion": "2.0.1",
  "updatedAt": "2019-01-15T21:45:51.721Z"
}