{
  "contractName": "GNITokenCrowdsale",
  "abi": [
    {
      "constant": true,
      "inputs": [],
      "name": "hasClosed",
      "outputs": [
        {
          "name": "",
          "type": "bool"
        }
      ],
      "payable": false,
      "stateMutability": "view",
      "type": "function"
    },
    {
      "constant": true,
      "inputs": [],
      "name": "totalValuation",
      "outputs": [
        {
          "name": "",
          "type": "uint256"
        }
      ],
      "payable": false,
      "stateMutability": "view",
      "type": "function"
    },
    {
      "constant": true,
      "inputs": [
        {
          "name": "",
          "type": "uint256"
        }
      ],
      "name": "projectAddrs",
      "outputs": [
        {
          "name": "",
          "type": "address"
        }
      ],
      "payable": false,
      "stateMutability": "view",
      "type": "function"
    },
    {
      "constant": true,
      "inputs": [],
      "name": "investorList",
      "outputs": [
        {
          "name": "",
          "type": "address"
        }
      ],
      "payable": false,
      "stateMutability": "view",
      "type": "function"
    },
    {
      "constant": true,
      "inputs": [],
      "name": "dividendWallet",
      "outputs": [
        {
          "name": "",
          "type": "address"
        }
      ],
      "payable": false,
      "stateMutability": "view",
      "type": "function"
    },
    {
      "constant": true,
      "inputs": [],
      "name": "openingTime",
      "outputs": [
        {
          "name": "",
          "type": "uint256"
        }
      ],
      "payable": false,
      "stateMutability": "view",
      "type": "function"
    },
    {
      "constant": true,
      "inputs": [],
      "name": "doomsDay",
      "outputs": [
        {
          "name": "",
          "type": "uint256"
        }
      ],
      "payable": false,
      "stateMutability": "view",
      "type": "function"
    },
    {
      "constant": true,
      "inputs": [],
      "name": "projectQueue",
      "outputs": [
        {
          "name": "",
          "type": "address"
        }
      ],
      "payable": false,
      "stateMutability": "view",
      "type": "function"
    },
    {
      "constant": false,
      "inputs": [],
      "name": "weiRaised_",
      "outputs": [
        {
          "name": "",
          "type": "uint256"
        }
      ],
      "payable": false,
      "stateMutability": "nonpayable",
      "type": "function"
    },
    {
      "constant": false,
      "inputs": [
        {
          "name": "_beneficiary",
          "type": "address"
        }
      ],
      "name": "buyTokens",
      "outputs": [
        {
          "name": "",
          "type": "uint256"
        }
      ],
      "payable": true,
      "stateMutability": "payable",
      "type": "function"
    },
    {
      "constant": true,
      "inputs": [],
      "name": "token",
      "outputs": [
        {
          "name": "",
          "type": "address"
        }
      ],
      "payable": false,
      "stateMutability": "view",
      "type": "function"
    },
    {
      "inputs": [
        {
          "name": "_openingTime",
          "type": "uint256"
        },
        {
          "name": "_doomsDay",
          "type": "uint256"
        },
        {
          "name": "_rate",
          "type": "uint256"
        },
        {
          "name": "_developer",
          "type": "address"
        },
        {
          "name": "_dividendWallet",
          "type": "address"
        },
        {
          "name": "_token",
          "type": "address"
        },
        {
          "name": "_investorList",
          "type": "address"
        },
        {
          "name": "_projectQueue",
          "type": "address"
        }
      ],
      "payable": false,
      "stateMutability": "nonpayable",
      "type": "constructor"
    },
    {
      "payable": true,
      "stateMutability": "payable",
      "type": "fallback"
    },
    {
      "anonymous": false,
      "inputs": [
        {
          "indexed": true,
          "name": "purchaser",
          "type": "address"
        },
        {
          "indexed": true,
          "name": "beneficiary",
          "type": "address"
        },
        {
          "indexed": false,
          "name": "value",
          "type": "uint256"
        },
        {
          "indexed": false,
          "name": "amount",
          "type": "uint256"
        }
      ],
      "name": "TokenPurchase",
      "type": "event"
    },
    {
      "constant": true,
      "inputs": [
        {
          "name": "id",
          "type": "uint256"
        }
      ],
      "name": "getInfo",
      "outputs": [
        {
          "name": "",
          "type": "address"
        }
      ],
      "payable": false,
      "stateMutability": "view",
      "type": "function"
    },
    {
      "constant": false,
      "inputs": [
        {
          "name": "_name",
          "type": "string"
        },
        {
          "name": "capitalRequired",
          "type": "uint256"
        },
        {
          "name": "_valuation",
          "type": "uint256"
        },
        {
          "name": "_lat",
          "type": "string"
        },
        {
          "name": "_lng",
          "type": "string"
        }
      ],
      "name": "pitchProject",
      "outputs": [],
      "payable": false,
      "stateMutability": "nonpayable",
      "type": "function"
    },
    {
      "constant": false,
      "inputs": [
        {
          "name": "_projectVotedForId",
          "type": "uint256"
        }
      ],
      "name": "buyTokensAndVote",
      "outputs": [],
      "payable": true,
      "stateMutability": "payable",
      "type": "function"
    },
    {
      "constant": false,
      "inputs": [
        {
          "name": "fromProjectId",
          "type": "uint256"
        },
        {
          "name": "toProjectId",
          "type": "uint256"
        },
        {
          "name": "votes",
          "type": "uint256"
        }
      ],
      "name": "transferVotes",
      "outputs": [],
      "payable": false,
      "stateMutability": "nonpayable",
      "type": "function"
    },
    {
      "constant": false,
      "inputs": [
        {
          "name": "fromProjectId",
          "type": "uint256"
        },
        {
          "name": "votes",
          "type": "uint256"
        }
      ],
      "name": "addVoteCredit",
      "outputs": [],
      "payable": false,
      "stateMutability": "nonpayable",
      "type": "function"
    },
    {
      "constant": false,
      "inputs": [
        {
          "name": "toProjectId",
          "type": "uint256"
        },
        {
          "name": "votes",
          "type": "uint256"
        }
      ],
      "name": "voteWithCredit",
      "outputs": [],
      "payable": false,
      "stateMutability": "nonpayable",
      "type": "function"
    }
  ],
  "bytecode": "0x60806040523480156200001157600080fd5b506040516101008062003ea1833981018060405281019080805190602001909291908051906020019092919080519060200190929190805190602001909291908051906020019092919080519060200190929190805190602001909291908051906020019092919050505087878787866000831115156200009157600080fd5b600073ffffffffffffffffffffffffffffffffffffffff168273ffffffffffffffffffffffffffffffffffffffff1614151515620000ce57600080fd5b8260028190555081600160006101000a81548173ffffffffffffffffffffffffffffffffffffffff021916908373ffffffffffffffffffffffffffffffffffffffff160217905550806000806101000a81548173ffffffffffffffffffffffffffffffffffffffff021916908373ffffffffffffffffffffffffffffffffffffffff1602179055505050504282101515156200016957600080fd5b8181101515156200017957600080fd5b8160048190555080600581905550505081600760006101000a81548173ffffffffffffffffffffffffffffffffffffffff021916908373ffffffffffffffffffffffffffffffffffffffff16021790555080600860006101000a81548173ffffffffffffffffffffffffffffffffffffffff021916908373ffffffffffffffffffffffffffffffffffffffff160217905550600060068190555083600960006101000a81548173ffffffffffffffffffffffffffffffffffffffff021916908373ffffffffffffffffffffffffffffffffffffffff1602179055505050505050505050613c35806200026c6000396000f30060806040526004361062000103576000357c0100000000000000000000000000000000000000000000000000000000900463ffffffff1680631515bc2b14620001055780631a3cd59a1462000137578063295b930014620001a75780632c77b93d14620001d5578063340945cf14620002195780633fff906414620002535780634e4c08ca146200028d578063589679c714620002fd57806365af1672146200031f578063a1f8adac146200042b578063b0e011641462000485578063b7a8807c14620004df578063c19b7bc0146200050d578063d93b2b59146200053b578063e31bc6141462000595578063ec8ac4d814620005c3578063fc0c546a146200060f575b005b3480156200011257600080fd5b506200011d62000669565b604051808215151515815260200191505060405180910390f35b3480156200014457600080fd5b50620001656004803603810190808035906020019092919050505062000675565b604051808273ffffffffffffffffffffffffffffffffffffffff1673ffffffffffffffffffffffffffffffffffffffff16815260200191505060405180910390f35b348015620001b457600080fd5b50620001bf6200075f565b6040518082815260200191505060405180910390f35b348015620001e257600080fd5b506200021760048036038101908080359060200190929190803590602001909291908035906020019092919050505062000765565b005b3480156200022657600080fd5b5062000251600480360381019080803590602001909291908035906020019092919050505062000983565b005b3480156200026057600080fd5b506200028b600480360381019080803590602001909291908035906020019092919050505062000b78565b005b3480156200029a57600080fd5b50620002bb6004803603810190808035906020019092919050505062000d6d565b604051808273ffffffffffffffffffffffffffffffffffffffff1673ffffffffffffffffffffffffffffffffffffffff16815260200191505060405180910390f35b6200031d6004803603810190808035906020019092919050505062000dac565b005b3480156200032c57600080fd5b5062000429600480360381019080803590602001908201803590602001908080601f01602080910402602001604051908101604052809392919081815260200183838082843782019150505050505091929192908035906020019092919080359060200190929190803590602001908201803590602001908080601f0160208091040260200160405190810160405280939291908181526020018383808284378201915050505050509192919290803590602001908201803590602001908080601f016020809104026020016040519081016040528093929190818152602001838380828437820191505050505050919291929050505062000fa7565b005b3480156200043857600080fd5b50620004436200162d565b604051808273ffffffffffffffffffffffffffffffffffffffff1673ffffffffffffffffffffffffffffffffffffffff16815260200191505060405180910390f35b3480156200049257600080fd5b506200049d62001653565b604051808273ffffffffffffffffffffffffffffffffffffffff1673ffffffffffffffffffffffffffffffffffffffff16815260200191505060405180910390f35b348015620004ec57600080fd5b50620004f762001679565b6040518082815260200191505060405180910390f35b3480156200051a57600080fd5b50620005256200167f565b6040518082815260200191505060405180910390f35b3480156200054857600080fd5b506200055362001685565b604051808273ffffffffffffffffffffffffffffffffffffffff1673ffffffffffffffffffffffffffffffffffffffff16815260200191505060405180910390f35b348015620005a257600080fd5b50620005ad620016ab565b6040518082815260200191505060405180910390f35b620005f9600480360381019080803573ffffffffffffffffffffffffffffffffffffffff169060200190929190505050620016b5565b6040518082815260200191505060405180910390f35b3480156200061c57600080fd5b506200062762001848565b604051808273ffffffffffffffffffffffffffffffffffffffff1673ffffffffffffffffffffffffffffffffffffffff16815260200191505060405180910390f35b60006005544211905090565b600080600a838154811015156200068857fe5b9060005260206000200160009054906101000a900473ffffffffffffffffffffffffffffffffffffffff1690508073ffffffffffffffffffffffffffffffffffffffff1663b0e011646040518163ffffffff167c0100000000000000000000000000000000000000000000000000000000028152600401602060405180830381600087803b1580156200071a57600080fd5b505af11580156200072f573d6000803e3d6000fd5b505050506040513d60208110156200074657600080fd5b8101908080519060200190929190505050915050919050565b60065481565b600080600a858154811015156200077857fe5b9060005260206000200160009054906101000a900473ffffffffffffffffffffffffffffffffffffffff169150600a84815481101515620007b557fe5b9060005260206000200160009054906101000a900473ffffffffffffffffffffffffffffffffffffffff1690508173ffffffffffffffffffffffffffffffffffffffff1663ce6a088033856040518363ffffffff167c0100000000000000000000000000000000000000000000000000000000028152600401808373ffffffffffffffffffffffffffffffffffffffff1673ffffffffffffffffffffffffffffffffffffffff16815260200182815260200192505050600060405180830381600087803b1580156200088657600080fd5b505af11580156200089b573d6000803e3d6000fd5b505050508073ffffffffffffffffffffffffffffffffffffffff16635f74bbde33856040518363ffffffff167c0100000000000000000000000000000000000000000000000000000000028152600401808373ffffffffffffffffffffffffffffffffffffffff1673ffffffffffffffffffffffffffffffffffffffff16815260200182815260200192505050600060405180830381600087803b1580156200094357600080fd5b505af115801562000958573d6000803e3d6000fd5b5050505062000967826200186d565b62000972816200186d565b6200097c62001947565b5050505050565b6000600a838154811015156200099557fe5b9060005260206000200160009054906101000a900473ffffffffffffffffffffffffffffffffffffffff169050600760009054906101000a900473ffffffffffffffffffffffffffffffffffffffff1673ffffffffffffffffffffffffffffffffffffffff1663595f4a2533846040518363ffffffff167c0100000000000000000000000000000000000000000000000000000000028152600401808373ffffffffffffffffffffffffffffffffffffffff1673ffffffffffffffffffffffffffffffffffffffff16815260200182815260200192505050600060405180830381600087803b15801562000a8857600080fd5b505af115801562000a9d573d6000803e3d6000fd5b505050508073ffffffffffffffffffffffffffffffffffffffff16635f74bbde33846040518363ffffffff167c0100000000000000000000000000000000000000000000000000000000028152600401808373ffffffffffffffffffffffffffffffffffffffff1673ffffffffffffffffffffffffffffffffffffffff16815260200182815260200192505050600060405180830381600087803b15801562000b4557600080fd5b505af115801562000b5a573d6000803e3d6000fd5b5050505062000b69816200186d565b62000b7362001947565b505050565b6000600a8381548110151562000b8a57fe5b9060005260206000200160009054906101000a900473ffffffffffffffffffffffffffffffffffffffff1690508073ffffffffffffffffffffffffffffffffffffffff1663ce6a088033846040518363ffffffff167c0100000000000000000000000000000000000000000000000000000000028152600401808373ffffffffffffffffffffffffffffffffffffffff1673ffffffffffffffffffffffffffffffffffffffff16815260200182815260200192505050600060405180830381600087803b15801562000c5b57600080fd5b505af115801562000c70573d6000803e3d6000fd5b50505050600760009054906101000a900473ffffffffffffffffffffffffffffffffffffffff1673ffffffffffffffffffffffffffffffffffffffff1663ad8f256f33846040518363ffffffff167c0100000000000000000000000000000000000000000000000000000000028152600401808373ffffffffffffffffffffffffffffffffffffffff1673ffffffffffffffffffffffffffffffffffffffff16815260200182815260200192505050600060405180830381600087803b15801562000d3a57600080fd5b505af115801562000d4f573d6000803e3d6000fd5b5050505062000d5e816200186d565b62000d6862001947565b505050565b600a8181548110151562000d7d57fe5b906000526020600020016000915054906101000a900473ffffffffffffffffffffffffffffffffffffffff1681565b60008062000dba33620016b5565b9150600760009054906101000a900473ffffffffffffffffffffffffffffffffffffffff1673ffffffffffffffffffffffffffffffffffffffff1663e641bde1336040518263ffffffff167c0100000000000000000000000000000000000000000000000000000000028152600401808273ffffffffffffffffffffffffffffffffffffffff1673ffffffffffffffffffffffffffffffffffffffff168152602001915050600060405180830381600087803b15801562000e7a57600080fd5b505af115801562000e8f573d6000803e3d6000fd5b50505050600a8381548110151562000ea357fe5b9060005260206000200160009054906101000a900473ffffffffffffffffffffffffffffffffffffffff1690508073ffffffffffffffffffffffffffffffffffffffff16635f74bbde33846040518363ffffffff167c0100000000000000000000000000000000000000000000000000000000028152600401808373ffffffffffffffffffffffffffffffffffffffff1673ffffffffffffffffffffffffffffffffffffffff16815260200182815260200192505050600060405180830381600087803b15801562000f7457600080fd5b505af115801562000f89573d6000803e3d6000fd5b5050505062000f98816200186d565b62000fa262001947565b505050565b60008060008062000fb987896200201c565b935093506000809054906101000a900473ffffffffffffffffffffffffffffffffffffffff1673ffffffffffffffffffffffffffffffffffffffff166340c10f19600160009054906101000a900473ffffffffffffffffffffffffffffffffffffffff16866040518363ffffffff167c0100000000000000000000000000000000000000000000000000000000028152600401808373ffffffffffffffffffffffffffffffffffffffff1673ffffffffffffffffffffffffffffffffffffffff16815260200182815260200192505050602060405180830381600087803b158015620010a457600080fd5b505af1158015620010b9573d6000803e3d6000fd5b505050506040513d6020811015620010d057600080fd5b8101908080519060200190929190505050506000809054906101000a900473ffffffffffffffffffffffffffffffffffffffff1673ffffffffffffffffffffffffffffffffffffffff166340c10f1930856040518363ffffffff167c0100000000000000000000000000000000000000000000000000000000028152600401808373ffffffffffffffffffffffffffffffffffffffff1673ffffffffffffffffffffffffffffffffffffffff16815260200182815260200192505050602060405180830381600087803b158015620011a757600080fd5b505af1158015620011bc573d6000803e3d6000fd5b505050506040513d6020811015620011d357600080fd5b810190808051906020019092919050505050620011fc876006546200207290919063ffffffff16565b6006819055506200120e605a6200208f565b600a8054905091508189600160009054906101000a900473ffffffffffffffffffffffffffffffffffffffff16600960009054906101000a900473ffffffffffffffffffffffffffffffffffffffff168a8c89898d8d6200126e62002aba565b808b8152602001806020018a73ffffffffffffffffffffffffffffffffffffffff1673ffffffffffffffffffffffffffffffffffffffff1681526020018973ffffffffffffffffffffffffffffffffffffffff1673ffffffffffffffffffffffffffffffffffffffff168152602001888152602001878152602001868152602001858152602001806020018060200184810384528d818151815260200191508051906020019080838360005b83811015620013375780820151818401526020810190506200131a565b50505050905090810190601f168015620013655780820380516001836020036101000a031916815260200191505b50848103835286818151815260200191508051906020019080838360005b83811015620013a057808201518184015260208101905062001383565b50505050905090810190601f168015620013ce5780820380516001836020036101000a031916815260200191505b50848103825285818151815260200191508051906020019080838360005b8381101562001409578082015181840152602081019050620013ec565b50505050905090810190601f168015620014375780820380516001836020036101000a031916815260200191505b509d5050505050505050505050505050604051809103906000f08015801562001464573d6000803e3d6000fd5b509050600a8190806001815401808255809150509060018203906000526020600020016000909192909190916101000a81548173ffffffffffffffffffffffffffffffffffffffff021916908373ffffffffffffffffffffffffffffffffffffffff16021790555050600860009054906101000a900473ffffffffffffffffffffffffffffffffffffffff1673ffffffffffffffffffffffffffffffffffffffff16638f807f6b826040518263ffffffff167c0100000000000000000000000000000000000000000000000000000000028152600401808273ffffffffffffffffffffffffffffffffffffffff1673ffffffffffffffffffffffffffffffffffffffff168152602001915050600060405180830381600087803b1580156200158b57600080fd5b505af1158015620015a0573d6000803e3d6000fd5b505050508073ffffffffffffffffffffffffffffffffffffffff166351973ec96040518163ffffffff167c0100000000000000000000000000000000000000000000000000000000028152600401600060405180830381600087803b1580156200160957600080fd5b505af11580156200161e573d6000803e3d6000fd5b50505050505050505050505050565b600760009054906101000a900473ffffffffffffffffffffffffffffffffffffffff1681565b600960009054906101000a900473ffffffffffffffffffffffffffffffffffffffff1681565b60045481565b60055481565b600860009054906101000a900473ffffffffffffffffffffffffffffffffffffffff1681565b6000600354905090565b6000806000349150620016c98483620020fc565b620016d48262002142565b9050620016ed826003546200207290919063ffffffff16565b6003819055506000809054906101000a900473ffffffffffffffffffffffffffffffffffffffff1673ffffffffffffffffffffffffffffffffffffffff166309b38a5d85836040518363ffffffff167c0100000000000000000000000000000000000000000000000000000000028152600401808373ffffffffffffffffffffffffffffffffffffffff1673ffffffffffffffffffffffffffffffffffffffff16815260200182815260200192505050600060405180830381600087803b158015620017b857600080fd5b505af1158015620017cd573d6000803e3d6000fd5b505050508373ffffffffffffffffffffffffffffffffffffffff163373ffffffffffffffffffffffffffffffffffffffff167f623b3804fa71d67900d064613da8f94b9617215ee90799290593e1745087ad188484604051808381526020018281526020019250505060405180910390a38092505050919050565b6000809054906101000a900473ffffffffffffffffffffffffffffffffffffffff1681565b600860009054906101000a900473ffffffffffffffffffffffffffffffffffffffff1673ffffffffffffffffffffffffffffffffffffffff1663ef0438f7826040518263ffffffff167c0100000000000000000000000000000000000000000000000000000000028152600401808273ffffffffffffffffffffffffffffffffffffffff1673ffffffffffffffffffffffffffffffffffffffff168152602001915050600060405180830381600087803b1580156200192b57600080fd5b505af115801562001940573d6000803e3d6000fd5b5050505050565b6000806000806000806000600860009054906101000a900473ffffffffffffffffffffffffffffffffffffffff1673ffffffffffffffffffffffffffffffffffffffff1663cad187986040518163ffffffff167c0100000000000000000000000000000000000000000000000000000000028152600401602060405180830381600087803b158015620019d957600080fd5b505af1158015620019ee573d6000803e3d6000fd5b505050506040513d602081101562001a0557600080fd5b810190808051906020019092919050505096508695508573ffffffffffffffffffffffffffffffffffffffff1663fcfff16f6040518163ffffffff167c0100000000000000000000000000000000000000000000000000000000028152600401602060405180830381600087803b15801562001a8057600080fd5b505af115801562001a95573d6000803e3d6000fd5b505050506040513d602081101562001aac57600080fd5b810190808051906020019092919050505094508573ffffffffffffffffffffffffffffffffffffffff1663d4cf7db66040518163ffffffff167c0100000000000000000000000000000000000000000000000000000000028152600401602060405180830381600087803b15801562001b2457600080fd5b505af115801562001b39573d6000803e3d6000fd5b505050506040513d602081101562001b5057600080fd5b810190808051906020019092919050505093506003548411158062001b73575084155b1562002013578573ffffffffffffffffffffffffffffffffffffffff1663d705f3876040518163ffffffff167c0100000000000000000000000000000000000000000000000000000000028152600401602060405180830381600087803b15801562001bde57600080fd5b505af115801562001bf3573d6000803e3d6000fd5b505050506040513d602081101562001c0a57600080fd5b81019080805190602001909291905050509250600860009054906101000a900473ffffffffffffffffffffffffffffffffffffffff1673ffffffffffffffffffffffffffffffffffffffff1663957908d16040518163ffffffff167c0100000000000000000000000000000000000000000000000000000000028152600401602060405180830381600087803b15801562001ca457600080fd5b505af115801562001cb9573d6000803e3d6000fd5b505050506040513d602081101562001cd057600080fd5b81019080805190602001909291905050505062001cef83888762002162565b841562002008578573ffffffffffffffffffffffffffffffffffffffff1663929aebdf6040518163ffffffff167c0100000000000000000000000000000000000000000000000000000000028152600401602060405180830381600087803b15801562001d5b57600080fd5b505af115801562001d70573d6000803e3d6000fd5b505050506040513d602081101562001d8757600080fd5b810190808051906020019092919050505091508573ffffffffffffffffffffffffffffffffffffffff16636f2198316040518163ffffffff167c0100000000000000000000000000000000000000000000000000000000028152600401602060405180830381600087803b15801562001dff57600080fd5b505af115801562001e14573d6000803e3d6000fd5b505050506040513d602081101562001e2b57600080fd5b810190808051906020019092919050505090506000809054906101000a900473ffffffffffffffffffffffffffffffffffffffff1673ffffffffffffffffffffffffffffffffffffffff1663ca11be69600160009054906101000a900473ffffffffffffffffffffffffffffffffffffffff16846040518363ffffffff167c0100000000000000000000000000000000000000000000000000000000028152600401808373ffffffffffffffffffffffffffffffffffffffff1673ffffffffffffffffffffffffffffffffffffffff16815260200182815260200192505050600060405180830381600087803b15801562001f2557600080fd5b505af115801562001f3a573d6000803e3d6000fd5b5050505062001f6c600160009054906101000a900473ffffffffffffffffffffffffffffffffffffffff1685620029af565b62001f8384600354620029fb90919063ffffffff16565b6003819055508573ffffffffffffffffffffffffffffffffffffffff16630f15f4c06040518163ffffffff167c0100000000000000000000000000000000000000000000000000000000028152600401600060405180830381600087803b15801562001fee57600080fd5b505af115801562002003573d6000803e3d6000fd5b505050505b6200201262001947565b5b50505050505050565b6000806000620020368486620029fb90919063ffffffff16565b90506200204f6002548262002a1590919063ffffffff16565b620020666002548662002a1590919063ffffffff16565b92509250509250929050565b600081830190508281101515156200208657fe5b80905092915050565b6000806000429250600454915060055490506004544210158015620020b657506005544211155b1515620020c257600080fd5b620020f0620020de621a5e008662002a1590919063ffffffff16565b6005546200207290919063ffffffff16565b60058190555050505050565b60008060004292506004549150600554905060045442101580156200212357506005544211155b15156200212f57600080fd5b6200213b858562002a51565b5050505050565b60006200215b6002548362002a1590919063ffffffff16565b9050919050565b6000806000806000806200235d6000809054906101000a900473ffffffffffffffffffffffffffffffffffffffff1673ffffffffffffffffffffffffffffffffffffffff166396b2b13b600160009054906101000a900473ffffffffffffffffffffffffffffffffffffffff166040518263ffffffff167c0100000000000000000000000000000000000000000000000000000000028152600401808273ffffffffffffffffffffffffffffffffffffffff1673ffffffffffffffffffffffffffffffffffffffff168152602001915050602060405180830381600087803b1580156200224e57600080fd5b505af115801562002263573d6000803e3d6000fd5b505050506040513d60208110156200227a57600080fd5b81019080805190602001909291905050506000809054906101000a900473ffffffffffffffffffffffffffffffffffffffff1673ffffffffffffffffffffffffffffffffffffffff1663596cc0a86040518163ffffffff167c0100000000000000000000000000000000000000000000000000000000028152600401602060405180830381600087803b1580156200231157600080fd5b505af115801562002326573d6000803e3d6000fd5b505050506040513d60208110156200233d57600080fd5b8101908080519060200190929190505050620029fb90919063ffffffff16565b9550600194505b600760009054906101000a900473ffffffffffffffffffffffffffffffffffffffff1673ffffffffffffffffffffffffffffffffffffffff1663d7e64c006040518163ffffffff167c0100000000000000000000000000000000000000000000000000000000028152600401602060405180830381600087803b158015620023eb57600080fd5b505af115801562002400573d6000803e3d6000fd5b505050506040513d60208110156200241757600080fd5b810190808051906020019092919050505085111515620029a457600760009054906101000a900473ffffffffffffffffffffffffffffffffffffffff1673ffffffffffffffffffffffffffffffffffffffff1663e4e81ad8866040518263ffffffff167c010000000000000000000000000000000000000000000000000000000002815260040180828152602001915050602060405180830381600087803b158015620024c357600080fd5b505af1158015620024d8573d6000803e3d6000fd5b505050506040513d6020811015620024ef57600080fd5b8101908080519060200190929190505050935086156200270f576000809054906101000a900473ffffffffffffffffffffffffffffffffffffffff1673ffffffffffffffffffffffffffffffffffffffff166396b2b13b856040518263ffffffff167c0100000000000000000000000000000000000000000000000000000000028152600401808273ffffffffffffffffffffffffffffffffffffffff1673ffffffffffffffffffffffffffffffffffffffff168152602001915050602060405180830381600087803b158015620025c657600080fd5b505af1158015620025db573d6000803e3d6000fd5b505050506040513d6020811015620025f257600080fd5b810190808051906020019092919050505092506200262e866200261f8b8662002a1590919063ffffffff16565b62002aa390919063ffffffff16565b91506000809054906101000a900473ffffffffffffffffffffffffffffffffffffffff1673ffffffffffffffffffffffffffffffffffffffff1663ca11be6985846040518363ffffffff167c0100000000000000000000000000000000000000000000000000000000028152600401808373ffffffffffffffffffffffffffffffffffffffff1673ffffffffffffffffffffffffffffffffffffffff16815260200182815260200192505050600060405180830381600087803b158015620026f557600080fd5b505af11580156200270a573d6000803e3d6000fd5b505050505b8773ffffffffffffffffffffffffffffffffffffffff166379ec5d3a856040518263ffffffff167c0100000000000000000000000000000000000000000000000000000000028152600401808273ffffffffffffffffffffffffffffffffffffffff1673ffffffffffffffffffffffffffffffffffffffff168152602001915050602060405180830381600087803b158015620027ab57600080fd5b505af1158015620027c0573d6000803e3d6000fd5b505050506040513d6020811015620027d757600080fd5b810190808051906020019092919050505090508773ffffffffffffffffffffffffffffffffffffffff1663ce6a088085836040518363ffffffff167c0100000000000000000000000000000000000000000000000000000000028152600401808373ffffffffffffffffffffffffffffffffffffffff1673ffffffffffffffffffffffffffffffffffffffff16815260200182815260200192505050600060405180830381600087803b1580156200288e57600080fd5b505af1158015620028a3573d6000803e3d6000fd5b50505050600760009054906101000a900473ffffffffffffffffffffffffffffffffffffffff1673ffffffffffffffffffffffffffffffffffffffff1663ad8f256f85836040518363ffffffff167c0100000000000000000000000000000000000000000000000000000000028152600401808373ffffffffffffffffffffffffffffffffffffffff1673ffffffffffffffffffffffffffffffffffffffff16815260200182815260200192505050600060405180830381600087803b1580156200296d57600080fd5b505af115801562002982573d6000803e3d6000fd5b505050506200299c6001866200207290919063ffffffff16565b945062002364565b505050505050505050565b8173ffffffffffffffffffffffffffffffffffffffff166108fc829081150290604051600060405180830381858888f19350505050158015620029f6573d6000803e3d6000fd5b505050565b600082821115151562002a0a57fe5b818303905092915050565b60008083141562002a2a576000905062002a4b565b818302905081838281151562002a3c57fe5b0414151562002a4757fe5b8090505b92915050565b600073ffffffffffffffffffffffffffffffffffffffff168273ffffffffffffffffffffffffffffffffffffffff161415151562002a8e57600080fd5b6000811415151562002a9f57600080fd5b5050565b6000818381151562002ab157fe5b04905092915050565b60405161113e8062002acc83390190560060806040523480156200001157600080fd5b506040516200113e3803806200113e83398101806040528101908080519060200190929190805182019291906020018051906020019092919080519060200190929190805190602001909291908051906020019092919080519060200190929190805190602001909291908051820192919060200180518201929190505050896000819055508860019080519060200190620000af929190620001c0565b5087600260006101000a81548173ffffffffffffffffffffffffffffffffffffffff021916908373ffffffffffffffffffffffffffffffffffffffff16021790555086600360006101000a81548173ffffffffffffffffffffffffffffffffffffffff021916908373ffffffffffffffffffffffffffffffffffffffff16021790555085600581905550846006819055508360078190555082600881905550816009908051906020019062000166929190620001c0565b5080600a90805190602001906200017f929190620001c0565b506000600b819055506000600c60006101000a81548160ff02191690831515021790555063013d23804201600481905550505050505050505050506200026f565b828054600181600116156101000203166002900490600052602060002090601f016020900481019282601f106200020357805160ff191683800117855562000234565b8280016001018555821562000234579182015b828111156200023357825182559160200191906001019062000216565b5b50905062000243919062000247565b5090565b6200026c91905b80821115620002685760008160009055506001016200024e565b5090565b90565b610ebf806200027f6000396000f300608060405260043610610107576000357c0100000000000000000000000000000000000000000000000000000000900463ffffffff1680630f15f4c01461010c578063272666e3146101235780632d06177a1461014e5780634d7c09dd1461019157806351973ec9146101c057806355d576cc146101d75780635b184f88146102675780635f74bbde146102aa5780636f219831146102f7578063705c5be51461032257806379ec5d3a1461037d578063929aebdf146103d4578063b0e01164146103ff578063c78243cf14610456578063ce6a088014610481578063d0e30db0146104ce578063d4cf7db6146104d8578063d705f38714610503578063fcfff16f1461052e575b600080fd5b34801561011857600080fd5b5061012161055d565b005b34801561012f57600080fd5b50610138610582565b6040518082815260200191505060405180910390f35b34801561015a57600080fd5b5061018f600480360381019080803573ffffffffffffffffffffffffffffffffffffffff16906020019092919050505061058c565b005b34801561019d57600080fd5b506101a661069e565b604051808215151515815260200191505060405180910390f35b3480156101cc57600080fd5b506101d56106b5565b005b3480156101e357600080fd5b506101ec6108de565b6040518080602001828103825283818151815260200191508051906020019080838360005b8381101561022c578082015181840152602081019050610211565b50505050905090810190601f1680156102595780820380516001836020036101000a031916815260200191505b509250505060405180910390f35b34801561027357600080fd5b506102a8600480360381019080803573ffffffffffffffffffffffffffffffffffffffff16906020019092919050505061097c565b005b3480156102b657600080fd5b506102f5600480360381019080803573ffffffffffffffffffffffffffffffffffffffff16906020019092919080359060200190929190505050610a77565b005b34801561030357600080fd5b5061030c610b48565b6040518082815260200191505060405180910390f35b34801561032e57600080fd5b50610363600480360381019080803573ffffffffffffffffffffffffffffffffffffffff169060200190929190505050610b51565b604051808215151515815260200191505060405180910390f35b34801561038957600080fd5b506103be600480360381019080803573ffffffffffffffffffffffffffffffffffffffff169060200190929190505050610c0b565b6040518082815260200191505060405180910390f35b3480156103e057600080fd5b506103e9610c54565b6040518082815260200191505060405180910390f35b34801561040b57600080fd5b50610414610c5e565b604051808273ffffffffffffffffffffffffffffffffffffffff1673ffffffffffffffffffffffffffffffffffffffff16815260200191505060405180910390f35b34801561046257600080fd5b5061046b610c84565b6040518082815260200191505060405180910390f35b34801561048d57600080fd5b506104cc600480360381019080803573ffffffffffffffffffffffffffffffffffffffff16906020019092919080359060200190929190505050610c8e565b005b6104d6610dbe565b005b3480156104e457600080fd5b506104ed610e3e565b6040518082815260200191505060405180910390f35b34801561050f57600080fd5b50610518610e48565b6040518082815260200191505060405180910390f35b34801561053a57600080fd5b50610543610e52565b604051808215151515815260200191505060405180910390f35b6001600c60006101000a81548160ff0219169083151502179055506105806106b5565b565b6000600454905090565b60011515600e60003373ffffffffffffffffffffffffffffffffffffffff1673ffffffffffffffffffffffffffffffffffffffff16815260200190815260200160002060009054906101000a900460ff16151514806106385750600260009054906101000a900473ffffffffffffffffffffffffffffffffffffffff1673ffffffffffffffffffffffffffffffffffffffff163373ffffffffffffffffffffffffffffffffffffffff16145b151561064357600080fd5b6001600e60008373ffffffffffffffffffffffffffffffffffffffff1673ffffffffffffffffffffffffffffffffffffffff16815260200190815260200160002060006101000a81548160ff02191690831515021790555050565b6000600c60009054906101000a900460ff16905090565b7f2870b0d0558b1786ef247a7bb0787eaae7392b072f7ca327b464981f23fb0e9260005460016005546006546007546008546009600a600b54600c60009054906101000a900460ff16604051808b8152602001806020018a815260200189815260200188815260200187815260200180602001806020018681526020018515151515815260200184810384528d8181546001816001161561010002031660029004815260200191508054600181600116156101000203166002900480156107bd5780601f10610792576101008083540402835291602001916107bd565b820191906000526020600020905b8154815290600101906020018083116107a057829003601f168201915b50508481038352888181546001816001161561010002031660029004815260200191508054600181600116156101000203166002900480156108405780601f1061081557610100808354040283529160200191610840565b820191906000526020600020905b81548152906001019060200180831161082357829003601f168201915b50508481038252878181546001816001161561010002031660029004815260200191508054600181600116156101000203166002900480156108c35780601f10610898576101008083540402835291602001916108c3565b820191906000526020600020905b8154815290600101906020018083116108a657829003601f168201915b50509d505050505050505050505050505060405180910390a1565b60098054600181600116156101000203166002900480601f0160208091040260200160405190810160405280929190818152602001828054600181600116156101000203166002900480156109745780601f1061094957610100808354040283529160200191610974565b820191906000526020600020905b81548152906001019060200180831161095757829003601f168201915b505050505081565b60011515600e60003373ffffffffffffffffffffffffffffffffffffffff1673ffffffffffffffffffffffffffffffffffffffff16815260200190815260200160002060009054906101000a900460ff1615151480610a285750600260009054906101000a900473ffffffffffffffffffffffffffffffffffffffff1673ffffffffffffffffffffffffffffffffffffffff163373ffffffffffffffffffffffffffffffffffffffff16145b1515610a3357600080fd5b80600360006101000a81548173ffffffffffffffffffffffffffffffffffffffff021916908373ffffffffffffffffffffffffffffffffffffffff16021790555050565b610ac981600d60008573ffffffffffffffffffffffffffffffffffffffff1673ffffffffffffffffffffffffffffffffffffffff16815260200190815260200160002054610e5e90919063ffffffff16565b600d60008473ffffffffffffffffffffffffffffffffffffffff1673ffffffffffffffffffffffffffffffffffffffff16815260200190815260200160002081905550610b2181600b54610e5e90919063ffffffff16565b600b81905550610b3e61a8c0600454610e5e90919063ffffffff16565b6004819055505050565b60008054905090565b600080600b54118015610c0457508173ffffffffffffffffffffffffffffffffffffffff1663c78243cf6040518163ffffffff167c0100000000000000000000000000000000000000000000000000000000028152600401602060405180830381600087803b158015610bc357600080fd5b505af1158015610bd7573d6000803e3d6000fd5b505050506040513d6020811015610bed57600080fd5b8101908080519060200190929190505050600b5410155b9050919050565b6000600d60008373ffffffffffffffffffffffffffffffffffffffff1673ffffffffffffffffffffffffffffffffffffffff168152602001908152602001600020549050919050565b6000600754905090565b600360009054906101000a900473ffffffffffffffffffffffffffffffffffffffff1681565b6000600b54905090565b600b548111151515610c9f57600080fd5b600d60008373ffffffffffffffffffffffffffffffffffffffff1673ffffffffffffffffffffffffffffffffffffffff168152602001908152602001600020548111151515610ced57600080fd5b610d3f81600d60008573ffffffffffffffffffffffffffffffffffffffff1673ffffffffffffffffffffffffffffffffffffffff16815260200190815260200160002054610e7a90919063ffffffff16565b600d60008473ffffffffffffffffffffffffffffffffffffffff1673ffffffffffffffffffffffffffffffffffffffff16815260200190815260200160002081905550610d9781600b54610e7a90919063ffffffff16565b600b81905550610db461a8c0600454610e7a90919063ffffffff16565b6004819055505050565b6000803414151515610dcf57600080fd5b349050600360009054906101000a900473ffffffffffffffffffffffffffffffffffffffff1673ffffffffffffffffffffffffffffffffffffffff166108fc829081150290604051600060405180830381858888f19350505050158015610e3a573d6000803e3d6000fd5b5050565b6000600654905090565b6000600854905090565b60004260045411905090565b60008183019050828110151515610e7157fe5b80905092915050565b6000828211151515610e8857fe5b8183039050929150505600a165627a7a72305820c34a0825dbe8bce7cf5226df79c18f37991f9724efaa28ce1fd516614d4120e90029a165627a7a72305820a9b68302b144590eaabdde5d7b75022c5a0a64e5a5bfbaae08fe8d2bcea7eec60029",
  "source": "pragma solidity 0.4.24;\nimport './TimedCrowdsale.sol';\nimport '../utility/SafeMath.sol';\nimport '../ProjectQueue.sol';\nimport '../Project.sol';\nimport '../ProjectStub.sol';\nimport '../token/ERC20/Token.sol';\nimport '../InvestorList.sol';\n\ncontract GNITokenCrowdsale is TimedCrowdsale {\n  using SafeMath for uint256;\n  uint256 public totalValuation;\n  InvestorList public investorList;\n  ProjectQueue public projectQueue;\n  address public dividendWallet;\n\n  constructor\n      (\n        uint256 _openingTime,\n        uint256 _doomsDay,\n        uint256 _rate,\n        address _developer,\n        address _dividendWallet,\n        Token _token,\n        InvestorList _investorList,\n        ProjectQueue _projectQueue\n      )\n      public\n      Crowdsale(_rate, _developer, _token)\n      TimedCrowdsale(_openingTime, _doomsDay) {\n        investorList = InvestorList(_investorList);\n        projectQueue = ProjectQueue(_projectQueue);\n        totalValuation = 0;\n        dividendWallet = _dividendWallet;\n  }\n\n  address[] public projectAddrs;\n\n  function getInfo(uint256 id) public view returns(address) {\n      /* string, uint256, uint256, uint256, uint256, bool, uint256, uint256, address */\n      address projectAddr = projectAddrs[id];\n      /* return ( */\n        return Project(projectAddr).dividendWallet();\n        /* Project(projectAddr).name(),\n        Project(projectAddr).valuation(),\n        Project(projectAddr).capitalRequired(),\n        Project(projectAddr).developerTokens(),\n        Project(projectAddr).investorTokens(),\n        Project(projectAddr).active(),\n        Project(projectAddr).totalVotes(),\n        /* Project(projectAddr).closingTime(), */\n        /* projectAddr */\n        /* ); */\n      }\n\n//after this, the developer has to approve this contract to spend the amount of inactive tokens associated with developers on its behalf\n function pitchProject(string _name, uint256 capitalRequired, uint256 _valuation, string _lat, string _lng) public {\n   (uint256 developerTokens, uint256 investorTokens) = tokensToMint(_valuation, capitalRequired);\n\n   Token(token).mint(developer, developerTokens);//test if this is called\n   Token(token).mint(this, investorTokens);//test if this is called\n\n   totalValuation = totalValuation.add(_valuation);\n\n     // Increase crowdsale duation by 90 days\n   _extendDoomsDay(90);\n\n    uint256 _id = projectAddrs.length;\n    address projectAddr = new Project(_id, _name, developer, dividendWallet, _valuation, capitalRequired, developerTokens, investorTokens, _lat, _lng);\n    projectAddrs.push(projectAddr);\n    projectQueue.enqueue(projectAddr);//we want to test if this is called\n    Project(projectAddr).log();\n }\n\n function tokensToMint (uint256 valuation, uint256 investorValue) private view returns (uint256, uint256) {\n   uint256 developerValue = valuation.sub(investorValue);\n   return (developerValue.mul(rate), investorValue.mul(rate));\n }\n\n function buyTokensAndVote (uint256 _projectVotedForId) public payable {\n   uint256 tokens = buyTokens(msg.sender);\n   investorList.addInvestor(msg.sender);//test that this is called\n\n   address projAddr = projectAddrs[_projectVotedForId];\n   Project(projAddr).vote(msg.sender, tokens);//test that this is called\n\n   updateProjectQueue(projAddr);\n   tryActivateProject();\n }\n\n /* function sellTokens (address to, uint256 tokens) external {\n   Token(token).transferActiveTokens(msg.sender, to, tokens);\n   investorList.removeVoteCredit(msg.sender, tokens);\n   investorList.addVoteCredit(to, tokens);\n } */\n\n function transferVotes (uint256 fromProjectId, uint256 toProjectId, uint256 votes) external {\n   address fromAddr = projectAddrs[fromProjectId];\n   address toAddr = projectAddrs[toProjectId];\n   Project(fromAddr).removeVotes(msg.sender, votes);//test that this is called\n   Project(toAddr).vote(msg.sender, votes);//test that this is called\n\n   updateProjectQueue(fromAddr);\n   updateProjectQueue(toAddr);\n   tryActivateProject();\n }\n\n function addVoteCredit (uint256 fromProjectId, uint256 votes) external {\n   address projAddr = projectAddrs[fromProjectId];\n   Project(projAddr).removeVotes(msg.sender, votes);//test that this is called\n   investorList.addVoteCredit(msg.sender, votes);//test that this is called\n\n   updateProjectQueue(projAddr);\n   tryActivateProject();\n }\n\n function voteWithCredit (uint256 toProjectId, uint256 votes) external {\n   address projAddr = projectAddrs[toProjectId];\n   investorList.removeVoteCredit(msg.sender, votes);//test that this is called\n   Project(projAddr).vote(msg.sender, votes);//test that this is called\n\n   updateProjectQueue(projAddr);\n   tryActivateProject();\n }\n\n function _extendDoomsDay(uint256 _days) internal onlyWhileOpen {\n    doomsDay = doomsDay.add(_days.mul(1728000));\n }\n\n function updateProjectQueue (address projectAddress) internal {\n   projectQueue.heapify(projectAddress);\n }\n\n function tryActivateProject () internal {\n   address leadingProjectAddr = projectQueue.leadingProjectAddr();\n   Project leadingProject = Project(leadingProjectAddr);//in stub, we return an address\n   bool stillOpen = leadingProject.open(); //we set up an open status in the stub\n   uint256 capitalRequired = leadingProject.capitalRequired_(); //we return a capital amount\n\n   if (capitalRequired <= weiRaised || !stillOpen) {\n     uint256 investorTokens = leadingProject.investorTokens_();//return arbitrary amount in the stub\n     projectQueue.dequeue();//check that this was called\n     updateInvestorVotesAndTokens(investorTokens, leadingProjectAddr, stillOpen);\n\n     if (stillOpen) {\n       uint256 developerTokens = leadingProject.developerTokens_();//return arbitrary amount in the stub\n       uint256 projectId = leadingProject.id_();\n\n       Token(token).activate(developer, developerTokens);//test that this was called w/ correct shit\n       /* updateInvestorVotesAndTokens(investorTokens, leadingProject, stillOpen);//make sure investors are gucci */\n\n       forwardFunds(developer, capitalRequired);//test that the funds are transfered\n       weiRaised = weiRaised.sub(capitalRequired);//test that the weiRaised decreases\n\n       leadingProject.activate();//test that this is called\n     }\n\n     tryActivateProject();//test that this is called again\n   }\n }\n /* function activateProject() public {\n    (uint256 projectId, bool canActivate) = projectToActivateDetails();\n\n    if(canActivate){\n      Project project = Project(projectAddrs[projectId]);\n\n      uint256 developerTokens = project.developerTokens_();\n\n      Token(token).activate(developer, developerTokens);\n\n      updateInvestors(project.investorTokens_(), projectId);\n\n      uint256 capital = project.capitalRequired_();\n\n      forwardFunds(developer, capital);\n      weiRaised = weiRaised.sub(capital);\n\n      project.activate();\n    }\n  } */\n\n  //we need some functionality for granting vote credit for closed projectAddrs/removing votes from closed pro\n  /* function projectToActivateDetails() private view returns (uint256, bool) {\n    uint256 leadingProjectId;\n    bool candidateFound = false;\n\n    for(uint256 i = 0; i < projectAddrs.length; i = i.add(1)) {\n      if (Project(projectAddrs[i]).beats(projectAddrs[leadingProjectId])) {\n        leadingProjectId = i;\n        candidateFound = true;\n      }\n    }\n\n    return (leadingProjectId, candidateFound && Project(projectAddrs[leadingProjectId]).capitalRequired_() <= weiRaised);\n  } */\n\n  function updateInvestorVotesAndTokens (uint256 tokens, address projectAddress, bool canActivateTokens) private {\n    uint256 supply = Token(token).totalInactiveSupply().sub(Token(token).inactiveBalanceOf(developer));\n\n    for (uint256 i = 1; i <= investorList.investorCount(); i = i.add(1)) {\n      address investor = investorList.addrById(i);\n\n      if (canActivateTokens) {\n        uint256 investorBalance = Token(token).inactiveBalanceOf(investor);\n        uint256 tokensToActivate = investorBalance.mul(tokens).div(supply);\n        Token(token).activate(investor, tokensToActivate);\n      }\n\n      uint256 voteCredit = Project(projectAddress).votesOf(investor);\n      Project(projectAddress).removeVotes(investor, voteCredit); //not needed if theyre removed from the queue\n      investorList.addVoteCredit(investor, voteCredit);\n    }\n  }\n\n  function forwardFunds (address _to, uint256 amount) internal {\n    _to.transfer(amount);\n  }\n}\n",
  "sourcePath": "/Users/steven/genie-portal/truffle/contracts/crowdsale/GNITokenCrowdsale.sol",
  "compiler": {
    "name": "solc",
    "version": "0.4.24+commit.e67f0147.Emscripten.clang"
  },
  "schemaVersion": "2.0.1",
  "updatedAt": "2018-11-25T22:47:14.372Z"
}