{
  "contractName": "GNITokenCrowdsale",
  "abi": [
    {
      "constant": true,
      "inputs": [],
      "name": "hasClosed",
      "outputs": [
        {
          "name": "",
          "type": "bool"
        }
      ],
      "payable": false,
      "stateMutability": "view",
      "type": "function"
    },
    {
      "constant": true,
      "inputs": [],
      "name": "developerWallet",
      "outputs": [
        {
          "name": "",
          "type": "address"
        }
      ],
      "payable": false,
      "stateMutability": "view",
      "type": "function"
    },
    {
      "constant": true,
      "inputs": [],
      "name": "totalValuation",
      "outputs": [
        {
          "name": "",
          "type": "uint256"
        }
      ],
      "payable": false,
      "stateMutability": "view",
      "type": "function"
    },
    {
      "constant": true,
      "inputs": [],
      "name": "rate",
      "outputs": [
        {
          "name": "",
          "type": "uint256"
        }
      ],
      "payable": false,
      "stateMutability": "view",
      "type": "function"
    },
    {
      "constant": true,
      "inputs": [],
      "name": "weiRaised",
      "outputs": [
        {
          "name": "",
          "type": "uint256"
        }
      ],
      "payable": false,
      "stateMutability": "view",
      "type": "function"
    },
    {
      "constant": true,
      "inputs": [],
      "name": "wallet",
      "outputs": [
        {
          "name": "",
          "type": "address"
        }
      ],
      "payable": false,
      "stateMutability": "view",
      "type": "function"
    },
    {
      "constant": true,
      "inputs": [],
      "name": "openingTime",
      "outputs": [
        {
          "name": "",
          "type": "uint256"
        }
      ],
      "payable": false,
      "stateMutability": "view",
      "type": "function"
    },
    {
      "constant": true,
      "inputs": [],
      "name": "doomsDay",
      "outputs": [
        {
          "name": "",
          "type": "uint256"
        }
      ],
      "payable": false,
      "stateMutability": "view",
      "type": "function"
    },
    {
      "constant": false,
      "inputs": [
        {
          "name": "_beneficiary",
          "type": "address"
        }
      ],
      "name": "buyTokens",
      "outputs": [],
      "payable": true,
      "stateMutability": "payable",
      "type": "function"
    },
    {
      "constant": true,
      "inputs": [],
      "name": "token",
      "outputs": [
        {
          "name": "",
          "type": "address"
        }
      ],
      "payable": false,
      "stateMutability": "view",
      "type": "function"
    },
    {
      "inputs": [
        {
          "name": "_openingTime",
          "type": "uint256"
        },
        {
          "name": "_doomsDay",
          "type": "uint256"
        },
        {
          "name": "_rate",
          "type": "uint256"
        },
        {
          "name": "_wallet",
          "type": "address"
        },
        {
          "name": "_token",
          "type": "address"
        }
      ],
      "payable": false,
      "stateMutability": "nonpayable",
      "type": "constructor"
    },
    {
      "payable": true,
      "stateMutability": "payable",
      "type": "fallback"
    },
    {
      "anonymous": false,
      "inputs": [
        {
          "indexed": false,
          "name": "name",
          "type": "string"
        },
        {
          "indexed": false,
          "name": "valuation",
          "type": "uint256"
        },
        {
          "indexed": false,
          "name": "capitalRequired",
          "type": "uint256"
        },
        {
          "indexed": false,
          "name": "lat",
          "type": "string"
        },
        {
          "indexed": false,
          "name": "lng",
          "type": "string"
        },
        {
          "indexed": false,
          "name": "voteCount",
          "type": "uint256"
        },
        {
          "indexed": false,
          "name": "capitalReached",
          "type": "bool"
        },
        {
          "indexed": false,
          "name": "active",
          "type": "bool"
        }
      ],
      "name": "LogProject",
      "type": "event"
    },
    {
      "anonymous": false,
      "inputs": [
        {
          "indexed": true,
          "name": "purchaser",
          "type": "address"
        },
        {
          "indexed": true,
          "name": "beneficiary",
          "type": "address"
        },
        {
          "indexed": false,
          "name": "value",
          "type": "uint256"
        },
        {
          "indexed": false,
          "name": "amount",
          "type": "uint256"
        }
      ],
      "name": "TokenPurchase",
      "type": "event"
    },
    {
      "constant": true,
      "inputs": [
        {
          "name": "_name",
          "type": "string"
        }
      ],
      "name": "getProjectInfo",
      "outputs": [
        {
          "name": "",
          "type": "string"
        },
        {
          "name": "",
          "type": "uint256"
        },
        {
          "name": "",
          "type": "uint256"
        },
        {
          "name": "",
          "type": "bool"
        },
        {
          "name": "",
          "type": "uint256"
        },
        {
          "name": "",
          "type": "uint256"
        }
      ],
      "payable": false,
      "stateMutability": "view",
      "type": "function"
    },
    {
      "constant": false,
      "inputs": [
        {
          "name": "_name",
          "type": "string"
        },
        {
          "name": "capitalRequired",
          "type": "uint256"
        },
        {
          "name": "_valuation",
          "type": "uint256"
        },
        {
          "name": "_lat",
          "type": "string"
        },
        {
          "name": "_lng",
          "type": "string"
        }
      ],
      "name": "pitchProject",
      "outputs": [],
      "payable": true,
      "stateMutability": "payable",
      "type": "function"
    },
    {
      "constant": false,
      "inputs": [
        {
          "name": "_projectName",
          "type": "string"
        }
      ],
      "name": "buyTokensAndVote",
      "outputs": [],
      "payable": true,
      "stateMutability": "payable",
      "type": "function"
    },
    {
      "constant": false,
      "inputs": [
        {
          "name": "_projectName",
          "type": "string"
        }
      ],
      "name": "updateProjectVotedFor",
      "outputs": [],
      "payable": false,
      "stateMutability": "nonpayable",
      "type": "function"
    }
  ],
  "bytecode": "0x608060405234801561001057600080fd5b5060405160a08061169d8339810180604052810190808051906020019092919080519060200190929190805190602001909291908051906020019092919080519060200190929190505050848484848460008311151561006f57600080fd5b600073ffffffffffffffffffffffffffffffffffffffff168273ffffffffffffffffffffffffffffffffffffffff16141515156100ab57600080fd5b600073ffffffffffffffffffffffffffffffffffffffff168173ffffffffffffffffffffffffffffffffffffffff16141515156100e757600080fd5b8260028190555081600160006101000a81548173ffffffffffffffffffffffffffffffffffffffff021916908373ffffffffffffffffffffffffffffffffffffffff160217905550806000806101000a81548173ffffffffffffffffffffffffffffffffffffffff021916908373ffffffffffffffffffffffffffffffffffffffff16021790555050505042821015151561018157600080fd5b81811015151561019057600080fd5b81600481905550806005819055505050600060078190555050505050506114e1806101bc6000396000f3006080604052600436106100d0576000357c0100000000000000000000000000000000000000000000000000000000900463ffffffff1680631515bc2b146100db578063185870f91461010a578063295b9300146101615780632c4e722e1461018c5780634042b66f146101b7578063521eb273146101e257806365af16721461023957806369f6ed6e14610335578063753e9d7614610391578063b7a8807c146103fa578063c19b7bc014610425578063ec8ac4d814610450578063f339118d14610486578063fc0c546a1461058f575b6100d9336105e6565b005b3480156100e757600080fd5b506100f06106ac565b604051808215151515815260200191505060405180910390f35b34801561011657600080fd5b5061011f6106b8565b604051808273ffffffffffffffffffffffffffffffffffffffff1673ffffffffffffffffffffffffffffffffffffffff16815260200191505060405180910390f35b34801561016d57600080fd5b506101766106de565b6040518082815260200191505060405180910390f35b34801561019857600080fd5b506101a16106e4565b6040518082815260200191505060405180910390f35b3480156101c357600080fd5b506101cc6106ea565b6040518082815260200191505060405180910390f35b3480156101ee57600080fd5b506101f76106f0565b604051808273ffffffffffffffffffffffffffffffffffffffff1673ffffffffffffffffffffffffffffffffffffffff16815260200191505060405180910390f35b610333600480360381019080803590602001908201803590602001908080601f01602080910402602001604051908101604052809392919081815260200183838082843782019150505050505091929192908035906020019092919080359060200190929190803590602001908201803590602001908080601f0160208091040260200160405190810160405280939291908181526020018383808284378201915050505050509192919290803590602001908201803590602001908080601f0160208091040260200160405190810160405280939291908181526020018383808284378201915050505050509192919290505050610716565b005b61038f600480360381019080803590602001908201803590602001908080601f0160208091040260200160405190810160405280939291908181526020018383808284378201915050505050509192919290505050610a7b565b005b34801561039d57600080fd5b506103f8600480360381019080803590602001908201803590602001908080601f0160208091040260200160405190810160405280939291908181526020018383808284378201915050505050509192919290505050610a90565b005b34801561040657600080fd5b5061040f610aa5565b6040518082815260200191505060405180910390f35b34801561043157600080fd5b5061043a610aab565b6040518082815260200191505060405180910390f35b610484600480360381019080803573ffffffffffffffffffffffffffffffffffffffff1690602001909291905050506105e6565b005b34801561049257600080fd5b506104ed600480360381019080803590602001908201803590602001908080601f0160208091040260200160405190810160405280939291908181526020018383808284378201915050505050509192919290505050610ab1565b604051808060200187815260200186815260200185151515158152602001848152602001838152602001828103825288818151815260200191508051906020019080838360005b8381101561054f578082015181840152602081019050610534565b50505050905090810190601f16801561057c5780820380516001836020036101000a031916815260200191505b5097505050505050505060405180910390f35b34801561059b57600080fd5b506105a4610db9565b604051808273ffffffffffffffffffffffffffffffffffffffff1673ffffffffffffffffffffffffffffffffffffffff16815260200191505060405180910390f35b6000803491506105f68383610dde565b6105ff82610e20565b905061061682600354610e3e90919063ffffffff16565b6003819055506106268382610e5a565b8273ffffffffffffffffffffffffffffffffffffffff163373ffffffffffffffffffffffffffffffffffffffff167f623b3804fa71d67900d064613da8f94b9617215ee90799290593e1745087ad188484604051808381526020018281526020019250505060405180910390a361069d8383610e68565b6106a78383610e6c565b505050565b60006005544211905090565b600660009054906101000a900473ffffffffffffffffffffffffffffffffffffffff1681565b60075481565b60025481565b60035481565b600160009054906101000a900473ffffffffffffffffffffffffffffffffffffffff1681565b61071e6113bf565b61072784610e70565b61073c84600754610e3e90919063ffffffff16565b60078190555061074c605a610f8d565b6101206040519081016040528087815260200163013d23804201815260200185815260200186815260200184815260200183815260200160008152602001600015158152602001600015158152509050806008876040518082805190602001908083835b6020831015156107d557805182526020820191506020810190506020830392506107b0565b6001836020036101000a03801982511681845116808217855250505050505090500191505090815260200160405180910390206000820151816000019080519060200190610824929190611410565b50602082015181600101556040820151816002015560608201518160030155608082015181600401908051906020019061085f929190611410565b5060a082015181600501908051906020019061087c929190611410565b5060c0820151816006015560e08201518160070160006101000a81548160ff0219169083151502179055506101008201518160070160016101000a81548160ff0219169083151502179055509050507f5c483cef42dc819af5a97db071c1a233161605e876a45a0991b781f18d47e4ae8685878686600080600060405180806020018981526020018881526020018060200180602001878152602001861515151581526020018515151515815260200184810384528c818151815260200191508051906020019080838360005b83811015610964578082015181840152602081019050610949565b50505050905090810190601f1680156109915780820380516001836020036101000a031916815260200191505b50848103835289818151815260200191508051906020019080838360005b838110156109ca5780820151818401526020810190506109af565b50505050905090810190601f1680156109f75780820380516001836020036101000a031916815260200191505b50848103825288818151815260200191508051906020019080838360005b83811015610a30578082015181840152602081019050610a15565b50505050905090810190601f168015610a5d5780820380516001836020036101000a031916815260200191505b509b50505050505050505050505060405180910390a1505050505050565b610a84336105e6565b610a8d81610a90565b50565b610a9981610ff4565b610aa2816110eb565b50565b60045481565b60055481565b60606000806000806000610ac36113bf565b6008886040518082805190602001908083835b602083101515610afb5780518252602082019150602081019050602083039250610ad6565b6001836020036101000a03801982511681845116808217855250505050505090500191505090815260200160405180910390206101206040519081016040529081600082018054600181600116156101000203166002900480601f016020809104026020016040519081016040528092919081815260200182805460018160011615610100020316600290048015610bd45780601f10610ba957610100808354040283529160200191610bd4565b820191906000526020600020905b815481529060010190602001808311610bb757829003601f168201915b50505050508152602001600182015481526020016002820154815260200160038201548152602001600482018054600181600116156101000203166002900480601f016020809104026020016040519081016040528092919081815260200182805460018160011615610100020316600290048015610c945780601f10610c6957610100808354040283529160200191610c94565b820191906000526020600020905b815481529060010190602001808311610c7757829003601f168201915b50505050508152602001600582018054600181600116156101000203166002900480601f016020809104026020016040519081016040528092919081815260200182805460018160011615610100020316600290048015610d365780601f10610d0b57610100808354040283529160200191610d36565b820191906000526020600020905b815481529060010190602001808311610d1957829003601f168201915b50505050508152602001600682015481526020016007820160009054906101000a900460ff161515151581526020016007820160019054906101000a900460ff16151515158152505090508060000151816040015182606001518361010001518460c0015185602001518595509650965096509650965096505091939550919395565b6000809054906101000a900473ffffffffffffffffffffffffffffffffffffffff1681565b6000806000429250600454915060055490506004544210158015610e0457506005544211155b1515610e0f57600080fd5b610e1985856111e3565b5050505050565b6000610e376002548361123390919063ffffffff16565b9050919050565b60008183019050828110151515610e5157fe5b80905092915050565b610e64828261126b565b5050565b5050565b5050565b6000610e87600254836112bb90919063ffffffff16565b90506000809054906101000a900473ffffffffffffffffffffffffffffffffffffffff1673ffffffffffffffffffffffffffffffffffffffff166340c10f1930836040518363ffffffff167c0100000000000000000000000000000000000000000000000000000000028152600401808373ffffffffffffffffffffffffffffffffffffffff1673ffffffffffffffffffffffffffffffffffffffff16815260200182815260200192505050602060405180830381600087803b158015610f4d57600080fd5b505af1158015610f61573d6000803e3d6000fd5b505050506040513d6020811015610f7757600080fd5b8101908080519060200190929190505050505050565b6000806000429250600454915060055490506004544210158015610fb357506005544211155b1515610fbe57600080fd5b610fe8610fd7621a5e008661123390919063ffffffff16565b600554610e3e90919063ffffffff16565b60058190555050505050565b61107660016008836040518082805190602001908083835b602083101515611031578051825260208201915060208101905060208303925061100c565b6001836020036101000a038019825116818451168082178552505050505050905001915050908152602001604051809103902060060154610e3e90919063ffffffff16565b6008826040518082805190602001908083835b6020831015156110ae5780518252602082019150602081019050602083039250611089565b6001836020036101000a03801982511681845116808217855250505050505090500191505090815260200160405180910390206006018190555050565b61116e61a8c06008836040518082805190602001908083835b6020831015156111295780518252602082019150602081019050602083039250611104565b6001836020036101000a038019825116818451168082178552505050505050905001915050908152602001604051809103902060010154610e3e90919063ffffffff16565b6008826040518082805190602001908083835b6020831015156111a65780518252602082019150602081019050602083039250611181565b6001836020036101000a03801982511681845116808217855250505050505090500191505090815260200160405180910390206001018190555050565b600073ffffffffffffffffffffffffffffffffffffffff168273ffffffffffffffffffffffffffffffffffffffff161415151561121f57600080fd5b6000811415151561122f57600080fd5b5050565b6000808314156112465760009050611265565b818302905081838281151561125757fe5b0414151561126157fe5b8090505b92915050565b6112b782826000809054906101000a900473ffffffffffffffffffffffffffffffffffffffff1673ffffffffffffffffffffffffffffffffffffffff166112d19092919063ffffffff16565b5050565b600081838115156112c857fe5b04905092915050565b8273ffffffffffffffffffffffffffffffffffffffff1663a9059cbb83836040518363ffffffff167c0100000000000000000000000000000000000000000000000000000000028152600401808373ffffffffffffffffffffffffffffffffffffffff1673ffffffffffffffffffffffffffffffffffffffff16815260200182815260200192505050602060405180830381600087803b15801561137457600080fd5b505af1158015611388573d6000803e3d6000fd5b505050506040513d602081101561139e57600080fd5b810190808051906020019092919050505015156113ba57600080fd5b505050565b61012060405190810160405280606081526020016000815260200160008152602001600081526020016060815260200160608152602001600081526020016000151581526020016000151581525090565b828054600181600116156101000203166002900490600052602060002090601f016020900481019282601f1061145157805160ff191683800117855561147f565b8280016001018555821561147f579182015b8281111561147e578251825591602001919060010190611463565b5b50905061148c9190611490565b5090565b6114b291905b808211156114ae576000816000905550600101611496565b5090565b905600a165627a7a723058209ce0dbd61eb5c43f8d0220b29a8b730a30249b7ba84491f31a15ff1aad5318d80029",
  "source": "pragma solidity 0.4.24;\n\nimport '../token/GNIToken.sol';\nimport './TimedCrowdsale.sol';\nimport '../utility/SafeMath.sol';\n\ncontract GNITokenCrowdsale is TimedCrowdsale {\n    using SafeMath for uint256;\n    address public developerWallet;\n    uint256 public totalValuation;\n\n    constructor\n        (\n          uint256 _openingTime,\n          uint256 _doomsDay,\n          uint256 _rate,\n          address _wallet,\n          MintableToken _token\n        )\n        public\n        Crowdsale(_rate, _wallet, _token)\n        TimedCrowdsale(_openingTime, _doomsDay) {\n            totalValuation = 0;\n        }\n\n        struct Project {\n            string name;\n            uint256 closingTime;\n            uint256 valuation;\n            uint256 capitalRequired;\n            string lat;\n            string lng;\n            uint256 voteCount;\n            bool capitalReached;\n            bool active;\n        }\n\n        event LogProject (\n            string name,\n            uint256 valuation,\n            uint256 capitalRequired,\n            string lat,\n            string lng,\n            uint256 voteCount,\n            bool capitalReached,\n            bool active\n        );\n\n\n        mapping(string => Project) private projects;\n\n\n         function getProjectInfo(string _name) public view returns(\n             string, uint256, uint256, bool, uint256, uint256\n\n         ) {\n             Project memory project = projects[_name];\n             return (\n                 project.name,\n                 project.valuation,\n                 project.capitalRequired,\n                 project.active,\n                 project.voteCount,\n                 project.closingTime\n             );\n         }\n\n         //change _valuation to projectvaluation\n         function pitchProject(string _name, uint capitalRequired, uint _valuation, string _lat, string _lng) public payable {\n            issueTokensBasedOnPrice(_valuation);\n\n             totalValuation = totalValuation.add(_valuation);\n\n             // Increase crowdsale duation by 90 days\n             _extendDoomsDay(90);\n\n             // Create project information\n             Project memory newProject = Project({\n                 name: _name,\n                 closingTime: now + 86600 * 240,\n                 valuation: _valuation,\n                 capitalRequired: capitalRequired,\n                 lat: _lat,\n                 lng: _lng,\n                 capitalReached: false,\n                 active: false,\n                 voteCount: 0\n             });\n\n             // Save project information\n             projects[_name] = newProject;\n\n\n\n             // log the creation of the new project\n             emit LogProject(_name, _valuation, capitalRequired, _lat, _lng, 0, false, false);\n         }\n\n         function issueTokensBasedOnPrice(uint256 valuation) private {\n           uint tokensToIssue = valuation.div(rate);\n\n           //tokens go to the this contract\n           //we need to do this because transfer expects to take tokens from msg.sender, which is this contract\n           GNIToken(token).mint(this, tokensToIssue);\n         }\n\n         //sender is always the beneficiary\n         //sender becomes this contract in BasicToken\n         //funds from msg.value are allocated to this contract. later, we can assign them to the wallet (which is the developer wallet). No second wallet is needed.\n         function buyTokensAndVote (string _projectName) public payable {\n           buyTokens(msg.sender);\n           updateProjectVotedFor(_projectName);\n         }\n\n         function updateProjectVotedFor(string _projectName) {\n           updateVoteCount(_projectName);\n           extendProjectClosingTime(_projectName);\n         }\n\n         /* Project storage _projectVotedFor = projects[_projectName]; */\n\n         function updateVoteCount(string _projectName) internal {\n             projects[_projectName].voteCount = projects[_projectName].voteCount.add(1);\n         }\n\n        function extendProjectClosingTime(string _projectName) internal {\n          projects[_projectName].closingTime = projects[_projectName].closingTime.add(43200);\n        }\n\n        function _extendDoomsDay(uint256 _days) internal onlyWhileOpen {\n            doomsDay = doomsDay.add(_days.mul(1728000));\n        }\n\n}\n",
  "sourcePath": "/Users/steven/genie-portal/truffle/contracts/crowdsale/GNITokenCrowdsale.sol",
  "compiler": {
    "name": "solc",
    "version": "0.4.24+commit.e67f0147.Emscripten.clang"
  },
  "schemaVersion": "2.0.1",
  "updatedAt": "2018-10-04T17:53:10.206Z"
}