{
  "contractName": "GNITokenCrowdsale",
  "abi": [
    {
      "constant": true,
      "inputs": [
        {
          "name": "",
          "type": "uint256"
        }
      ],
      "name": "projects",
      "outputs": [
        {
          "name": "name",
          "type": "string"
        },
        {
          "name": "closingTime",
          "type": "uint256"
        },
        {
          "name": "valuation",
          "type": "uint256"
        },
        {
          "name": "capitalRequired",
          "type": "uint256"
        },
        {
          "name": "lat",
          "type": "string"
        },
        {
          "name": "lng",
          "type": "string"
        },
        {
          "name": "voteCount",
          "type": "uint256"
        },
        {
          "name": "capitalReached",
          "type": "bool"
        },
        {
          "name": "active",
          "type": "bool"
        }
      ],
      "payable": false,
      "stateMutability": "view",
      "type": "function"
    },
    {
      "constant": true,
      "inputs": [],
      "name": "hasClosed",
      "outputs": [
        {
          "name": "",
          "type": "bool"
        }
      ],
      "payable": false,
      "stateMutability": "view",
      "type": "function"
    },
    {
      "constant": true,
      "inputs": [],
      "name": "totalValuation",
      "outputs": [
        {
          "name": "",
          "type": "uint256"
        }
      ],
      "payable": false,
      "stateMutability": "view",
      "type": "function"
    },
    {
      "constant": true,
      "inputs": [],
      "name": "rate",
      "outputs": [
        {
          "name": "",
          "type": "uint256"
        }
      ],
      "payable": false,
      "stateMutability": "view",
      "type": "function"
    },
    {
      "constant": true,
      "inputs": [],
      "name": "weiRaised",
      "outputs": [
        {
          "name": "",
          "type": "uint256"
        }
      ],
      "payable": false,
      "stateMutability": "view",
      "type": "function"
    },
    {
      "constant": true,
      "inputs": [],
      "name": "wallet",
      "outputs": [
        {
          "name": "",
          "type": "address"
        }
      ],
      "payable": false,
      "stateMutability": "view",
      "type": "function"
    },
    {
      "constant": true,
      "inputs": [],
      "name": "openingTime",
      "outputs": [
        {
          "name": "",
          "type": "uint256"
        }
      ],
      "payable": false,
      "stateMutability": "view",
      "type": "function"
    },
    {
      "constant": true,
      "inputs": [],
      "name": "doomsDay",
      "outputs": [
        {
          "name": "",
          "type": "uint256"
        }
      ],
      "payable": false,
      "stateMutability": "view",
      "type": "function"
    },
    {
      "constant": false,
      "inputs": [
        {
          "name": "_beneficiary",
          "type": "address"
        }
      ],
      "name": "buyTokens",
      "outputs": [],
      "payable": true,
      "stateMutability": "payable",
      "type": "function"
    },
    {
      "constant": true,
      "inputs": [],
      "name": "token",
      "outputs": [
        {
          "name": "",
          "type": "address"
        }
      ],
      "payable": false,
      "stateMutability": "view",
      "type": "function"
    },
    {
      "inputs": [
        {
          "name": "_openingTime",
          "type": "uint256"
        },
        {
          "name": "_doomsDay",
          "type": "uint256"
        },
        {
          "name": "_rate",
          "type": "uint256"
        },
        {
          "name": "_wallet",
          "type": "address"
        },
        {
          "name": "_token",
          "type": "address"
        }
      ],
      "payable": false,
      "stateMutability": "nonpayable",
      "type": "constructor"
    },
    {
      "payable": true,
      "stateMutability": "payable",
      "type": "fallback"
    },
    {
      "anonymous": false,
      "inputs": [
        {
          "indexed": false,
          "name": "id",
          "type": "uint256"
        },
        {
          "indexed": false,
          "name": "name",
          "type": "string"
        },
        {
          "indexed": false,
          "name": "valuation",
          "type": "uint256"
        },
        {
          "indexed": false,
          "name": "capitalRequired",
          "type": "uint256"
        },
        {
          "indexed": false,
          "name": "lat",
          "type": "string"
        },
        {
          "indexed": false,
          "name": "lng",
          "type": "string"
        },
        {
          "indexed": false,
          "name": "voteCount",
          "type": "uint256"
        },
        {
          "indexed": false,
          "name": "capitalReached",
          "type": "bool"
        },
        {
          "indexed": false,
          "name": "active",
          "type": "bool"
        }
      ],
      "name": "NewProject",
      "type": "event"
    },
    {
      "anonymous": false,
      "inputs": [
        {
          "indexed": true,
          "name": "purchaser",
          "type": "address"
        },
        {
          "indexed": true,
          "name": "beneficiary",
          "type": "address"
        },
        {
          "indexed": false,
          "name": "value",
          "type": "uint256"
        },
        {
          "indexed": false,
          "name": "amount",
          "type": "uint256"
        }
      ],
      "name": "TokenPurchase",
      "type": "event"
    },
    {
      "constant": true,
      "inputs": [
        {
          "name": "id",
          "type": "uint256"
        }
      ],
      "name": "getProjectInfo",
      "outputs": [
        {
          "name": "",
          "type": "string"
        },
        {
          "name": "",
          "type": "uint256"
        },
        {
          "name": "",
          "type": "uint256"
        },
        {
          "name": "",
          "type": "bool"
        },
        {
          "name": "",
          "type": "uint256"
        },
        {
          "name": "",
          "type": "uint256"
        }
      ],
      "payable": false,
      "stateMutability": "view",
      "type": "function"
    },
    {
      "constant": false,
      "inputs": [
        {
          "name": "_name",
          "type": "string"
        },
        {
          "name": "capitalRequired",
          "type": "uint256"
        },
        {
          "name": "_valuation",
          "type": "uint256"
        },
        {
          "name": "_lat",
          "type": "string"
        },
        {
          "name": "_lng",
          "type": "string"
        }
      ],
      "name": "pitchProject",
      "outputs": [],
      "payable": true,
      "stateMutability": "payable",
      "type": "function"
    },
    {
      "constant": false,
      "inputs": [
        {
          "name": "_projectId",
          "type": "uint256"
        }
      ],
      "name": "handleTokenPurchase",
      "outputs": [],
      "payable": true,
      "stateMutability": "payable",
      "type": "function"
    },
    {
      "constant": false,
      "inputs": [],
      "name": "collectFunds",
      "outputs": [],
      "payable": false,
      "stateMutability": "nonpayable",
      "type": "function"
    },
    {
      "constant": false,
      "inputs": [
        {
          "name": "_projectId",
          "type": "uint256"
        }
      ],
      "name": "updateProjectVotedFor",
      "outputs": [],
      "payable": false,
      "stateMutability": "nonpayable",
      "type": "function"
    }
  ],
  "bytecode": "0x608060405234801561001057600080fd5b5060405160a0806118288339810180604052810190808051906020019092919080519060200190929190805190602001909291908051906020019092919080519060200190929190505050848484848460008311151561006f57600080fd5b600073ffffffffffffffffffffffffffffffffffffffff168273ffffffffffffffffffffffffffffffffffffffff16141515156100ab57600080fd5b600073ffffffffffffffffffffffffffffffffffffffff168173ffffffffffffffffffffffffffffffffffffffff16141515156100e757600080fd5b8260028190555081600160006101000a81548173ffffffffffffffffffffffffffffffffffffffff021916908373ffffffffffffffffffffffffffffffffffffffff160217905550806000806101000a81548173ffffffffffffffffffffffffffffffffffffffff021916908373ffffffffffffffffffffffffffffffffffffffff16021790555050505042821015151561018157600080fd5b81811015151561019057600080fd5b816004819055508060058190555050506000600681905550505050505061166c806101bc6000396000f3006080604052600436106100db576000357c0100000000000000000000000000000000000000000000000000000000900463ffffffff168063107046bd146100e65780631515bc2b14610296578063295b9300146102c55780632c4e722e146102f05780634042b66f1461031b578063521eb273146103465780635b9806281461039d57806365af1672146103b45780636634c99f146104b05780638f6cdd6f146104dd578063b7a8807c146104fd578063c19b7bc014610528578063ec8ac4d814610553578063fabf596814610589578063fc0c546a14610656575b6100e4336106ad565b005b3480156100f257600080fd5b5061011160048036038101908080359060200190929190505050610773565b60405180806020018a81526020018981526020018881526020018060200180602001878152602001861515151581526020018515151515815260200184810384528d818151815260200191508051906020019080838360005b8381101561018557808201518184015260208101905061016a565b50505050905090810190601f1680156101b25780820380516001836020036101000a031916815260200191505b50848103835289818151815260200191508051906020019080838360005b838110156101eb5780820151818401526020810190506101d0565b50505050905090810190601f1680156102185780820380516001836020036101000a031916815260200191505b50848103825288818151815260200191508051906020019080838360005b83811015610251578082015181840152602081019050610236565b50505050905090810190601f16801561027e5780820380516001836020036101000a031916815260200191505b509c5050505050505050505050505060405180910390f35b3480156102a257600080fd5b506102ab6109b2565b604051808215151515815260200191505060405180910390f35b3480156102d157600080fd5b506102da6109be565b6040518082815260200191505060405180910390f35b3480156102fc57600080fd5b506103056109c4565b6040518082815260200191505060405180910390f35b34801561032757600080fd5b506103306109ca565b6040518082815260200191505060405180910390f35b34801561035257600080fd5b5061035b6109d0565b604051808273ffffffffffffffffffffffffffffffffffffffff1673ffffffffffffffffffffffffffffffffffffffff16815260200191505060405180910390f35b3480156103a957600080fd5b506103b26109f6565b005b6104ae600480360381019080803590602001908201803590602001908080601f01602080910402602001604051908101604052809392919081815260200183838082843782019150505050505091929192908035906020019092919080359060200190929190803590602001908201803590602001908080601f0160208091040260200160405190810160405280939291908181526020018383808284378201915050505050509192919290803590602001908201803590602001908080601f0160208091040260200160405190810160405280939291908181526020018383808284378201915050505050509192919290505050610a62565b005b3480156104bc57600080fd5b506104db60048036038101908080359060200190929190505050610d8c565b005b6104fb60048036038101908080359060200190929190505050610da1565b005b34801561050957600080fd5b50610512610db6565b6040518082815260200191505060405180910390f35b34801561053457600080fd5b5061053d610dbc565b6040518082815260200191505060405180910390f35b610587600480360381019080803573ffffffffffffffffffffffffffffffffffffffff1690602001909291905050506106ad565b005b34801561059557600080fd5b506105b460048036038101908080359060200190929190505050610dc2565b604051808060200187815260200186815260200185151515158152602001848152602001838152602001828103825288818151815260200191508051906020019080838360005b838110156106165780820151818401526020810190506105fb565b50505050905090810190601f1680156106435780820380516001836020036101000a031916815260200191505b5097505050505050505060405180910390f35b34801561066257600080fd5b5061066b61107c565b604051808273ffffffffffffffffffffffffffffffffffffffff1673ffffffffffffffffffffffffffffffffffffffff16815260200191505060405180910390f35b6000803491506106bd83836110a1565b6106c6826110e3565b90506106dd8260035461110190919063ffffffff16565b6003819055506106ed838261111d565b8273ffffffffffffffffffffffffffffffffffffffff163373ffffffffffffffffffffffffffffffffffffffff167f623b3804fa71d67900d064613da8f94b9617215ee90799290593e1745087ad188484604051808381526020018281526020019250505060405180910390a3610764838361112b565b61076e838361112f565b505050565b60078181548110151561078257fe5b9060005260206000209060080201600091509050806000018054600181600116156101000203166002900480601f01602080910402602001604051908101604052809291908181526020018280546001816001161561010002031660029004801561082e5780601f106108035761010080835404028352916020019161082e565b820191906000526020600020905b81548152906001019060200180831161081157829003601f168201915b505050505090806001015490806002015490806003015490806004018054600181600116156101000203166002900480601f0160208091040260200160405190810160405280929190818152602001828054600181600116156101000203166002900480156108de5780601f106108b3576101008083540402835291602001916108de565b820191906000526020600020905b8154815290600101906020018083116108c157829003601f168201915b505050505090806005018054600181600116156101000203166002900480601f01602080910402602001604051908101604052809291908181526020018280546001816001161561010002031660029004801561097c5780601f106109515761010080835404028352916020019161097c565b820191906000526020600020905b81548152906001019060200180831161095f57829003601f168201915b5050505050908060060154908060070160009054906101000a900460ff16908060070160019054906101000a900460ff16905089565b60006005544211905090565b60065481565b60025481565b60035481565b600160009054906101000a900473ffffffffffffffffffffffffffffffffffffffff1681565b600160009054906101000a900473ffffffffffffffffffffffffffffffffffffffff1673ffffffffffffffffffffffffffffffffffffffff166108fc60019081150290604051600060405180830381858888f19350505050158015610a5f573d6000803e3d6000fd5b50565b6000610a6d84611133565b610a828460065461110190919063ffffffff16565b600681905550610a92605a611250565b600160076101206040519081016040528089815260200163013d2380420181526020018781526020018881526020018681526020018581526020016000815260200160001515815260200160001515815250908060018154018082558091505090600182039060005260206000209060080201600090919290919091506000820151816000019080519060200190610b2b92919061154a565b506020820151816001015560408201518160020155606082015181600301556080820151816004019080519060200190610b6692919061154a565b5060a0820151816005019080519060200190610b8392919061154a565b5060c0820151816006015560e08201518160070160006101000a81548160ff0219169083151502179055506101008201518160070160016101000a81548160ff02191690831515021790555050500390507fb92f8e6f7e6965876744a97535a6d402de7cb4762908e650c87e3ad7f52f410e8187868887876000806000604051808a8152602001806020018981526020018881526020018060200180602001878152602001861515151581526020018515151515815260200184810384528c818151815260200191508051906020019080838360005b83811015610c74578082015181840152602081019050610c59565b50505050905090810190601f168015610ca15780820380516001836020036101000a031916815260200191505b50848103835289818151815260200191508051906020019080838360005b83811015610cda578082015181840152602081019050610cbf565b50505050905090810190601f168015610d075780820380516001836020036101000a031916815260200191505b50848103825288818151815260200191508051906020019080838360005b83811015610d40578082015181840152602081019050610d25565b50505050905090810190601f168015610d6d5780820380516001836020036101000a031916815260200191505b509c5050505050505050505050505060405180910390a1505050505050565b610d95816112b7565b610d9e81611312565b50565b610daa336106ad565b610db381610d8c565b50565b60045481565b60055481565b60606000806000806000610dd46115ca565b600788815481101515610de357fe5b90600052602060002090600802016101206040519081016040529081600082018054600181600116156101000203166002900480601f016020809104026020016040519081016040528092919081815260200182805460018160011615610100020316600290048015610e975780601f10610e6c57610100808354040283529160200191610e97565b820191906000526020600020905b815481529060010190602001808311610e7a57829003601f168201915b50505050508152602001600182015481526020016002820154815260200160038201548152602001600482018054600181600116156101000203166002900480601f016020809104026020016040519081016040528092919081815260200182805460018160011615610100020316600290048015610f575780601f10610f2c57610100808354040283529160200191610f57565b820191906000526020600020905b815481529060010190602001808311610f3a57829003601f168201915b50505050508152602001600582018054600181600116156101000203166002900480601f016020809104026020016040519081016040528092919081815260200182805460018160011615610100020316600290048015610ff95780601f10610fce57610100808354040283529160200191610ff9565b820191906000526020600020905b815481529060010190602001808311610fdc57829003601f168201915b50505050508152602001600682015481526020016007820160009054906101000a900460ff161515151581526020016007820160019054906101000a900460ff16151515158152505090508060000151816040015182606001518361010001518460c0015185602001518595509650965096509650965096505091939550919395565b6000809054906101000a900473ffffffffffffffffffffffffffffffffffffffff1681565b60008060004292506004549150600554905060045442101580156110c757506005544211155b15156110d257600080fd5b6110dc858561136e565b5050505050565b60006110fa600254836113be90919063ffffffff16565b9050919050565b6000818301905082811015151561111457fe5b80905092915050565b61112782826113f6565b5050565b5050565b5050565b600061114a6002548361144690919063ffffffff16565b90506000809054906101000a900473ffffffffffffffffffffffffffffffffffffffff1673ffffffffffffffffffffffffffffffffffffffff166340c10f1930836040518363ffffffff167c0100000000000000000000000000000000000000000000000000000000028152600401808373ffffffffffffffffffffffffffffffffffffffff1673ffffffffffffffffffffffffffffffffffffffff16815260200182815260200192505050602060405180830381600087803b15801561121057600080fd5b505af1158015611224573d6000803e3d6000fd5b505050506040513d602081101561123a57600080fd5b8101908080519060200190929190505050505050565b600080600042925060045491506005549050600454421015801561127657506005544211155b151561128157600080fd5b6112ab61129a621a5e00866113be90919063ffffffff16565b60055461110190919063ffffffff16565b60058190555050505050565b6112eb60016007838154811015156112cb57fe5b90600052602060002090600802016006015461110190919063ffffffff16565b6007828154811015156112fa57fe5b90600052602060002090600802016006018190555050565b61134761a8c060078381548110151561132757fe5b90600052602060002090600802016001015461110190919063ffffffff16565b60078281548110151561135657fe5b90600052602060002090600802016001018190555050565b600073ffffffffffffffffffffffffffffffffffffffff168273ffffffffffffffffffffffffffffffffffffffff16141515156113aa57600080fd5b600081141515156113ba57600080fd5b5050565b6000808314156113d157600090506113f0565b81830290508183828115156113e257fe5b041415156113ec57fe5b8090505b92915050565b61144282826000809054906101000a900473ffffffffffffffffffffffffffffffffffffffff1673ffffffffffffffffffffffffffffffffffffffff1661145c9092919063ffffffff16565b5050565b6000818381151561145357fe5b04905092915050565b8273ffffffffffffffffffffffffffffffffffffffff1663a9059cbb83836040518363ffffffff167c0100000000000000000000000000000000000000000000000000000000028152600401808373ffffffffffffffffffffffffffffffffffffffff1673ffffffffffffffffffffffffffffffffffffffff16815260200182815260200192505050602060405180830381600087803b1580156114ff57600080fd5b505af1158015611513573d6000803e3d6000fd5b505050506040513d602081101561152957600080fd5b8101908080519060200190929190505050151561154557600080fd5b505050565b828054600181600116156101000203166002900490600052602060002090601f016020900481019282601f1061158b57805160ff19168380011785556115b9565b828001600101855582156115b9579182015b828111156115b857825182559160200191906001019061159d565b5b5090506115c6919061161b565b5090565b61012060405190810160405280606081526020016000815260200160008152602001600081526020016060815260200160608152602001600081526020016000151581526020016000151581525090565b61163d91905b80821115611639576000816000905550600101611621565b5090565b905600a165627a7a7230582003435c41d072ddb3a7beeaf377a1d787ff2160c6d87275172c46e72ebe5eb23e0029",
  "source": "pragma solidity 0.4.24;\n\nimport '../token/GNIToken.sol';\nimport './TimedCrowdsale.sol';\nimport '../utility/SafeMath.sol';\n\ncontract GNITokenCrowdsale is TimedCrowdsale {\n    using SafeMath for uint256;\n    uint256 public totalValuation;\n\n    constructor\n        (\n          uint256 _openingTime,\n          uint256 _doomsDay,\n          uint256 _rate,\n          address _wallet,\n          MintableToken _token\n        )\n        public\n        Crowdsale(_rate, _wallet, _token)\n        TimedCrowdsale(_openingTime, _doomsDay) {\n            totalValuation = 0;\n        }\n\n        struct Project {\n            string name;\n            uint256 closingTime;\n            uint256 valuation;\n            uint256 capitalRequired;\n            string lat;\n            string lng;\n            uint256 voteCount;\n            bool capitalReached;\n            bool active;\n        }\n\n        event NewProject (\n            uint id,\n            string name,\n            uint256 valuation,\n            uint256 capitalRequired,\n            string lat,\n            string lng,\n            uint256 voteCount,\n            bool capitalReached,\n            bool active\n        );\n\n\n        /* mapping(string => Project) private projects; */\n        Project[] public projects;\n\n\n         function getProjectInfo(uint id) public view returns(\n             string, uint256, uint256, bool, uint256, uint256\n\n         ) {\n             Project memory project = projects[id];\n             return (\n                 project.name,\n                 project.valuation,\n                 project.capitalRequired,\n                 project.active,\n                 project.voteCount,\n                 project.closingTime\n             );\n         }\n\n         //change _valuation to projectvaluation\n         function pitchProject(string _name, uint capitalRequired, uint256 _valuation, string _lat, string _lng) public payable {\n            issueTokensBasedOnPrice(_valuation);\n\n             totalValuation = totalValuation.add(_valuation);\n\n             // Increase crowdsale duation by 90 days\n             _extendDoomsDay(90);\n\n             // Create project information\n             /* Project memory newProject = Project({\n                 name: _name,\n                 closingTime: now + 86600 * 240,\n                 valuation: _valuation,\n                 capitalRequired: capitalRequired,\n                 lat: _lat,\n                 lng: _lng,\n                 capitalReached: false,\n                 active: false,\n                 voteCount: 0\n             }); */\n\n             // Save project information\n             /* projects[_name] = newProject; */\n\n             uint id = projects.push(Project(_name, now + 86600 * 240, _valuation, capitalRequired, _lat,_lng, 0, false, false)) - 1;\n\n             // log the creation of the new project\n             emit NewProject(id, _name, _valuation, capitalRequired, _lat, _lng, 0, false, false);\n         }\n\n         function issueTokensBasedOnPrice(uint256 valuation) private {\n           uint256 tokensToIssue = valuation.div(rate);\n\n           //tokens go to the this contract\n           //we need to do this because transfer expects to take tokens from msg.sender, which is this contract\n           GNIToken(token).mint(this, tokensToIssue);\n         }\n\n         //sender is always the beneficiary\n         //sender becomes this contract in BasicToken\n         //funds from msg.value are allocated to this contract since this function is a payable.\n         //later, we can assign funds to the wallet (which is the developer wallet). No second wallet is needed because the contract serves as an escrow wallet.\n         function handleTokenPurchase (uint256 _projectId) public payable {\n           buyTokens(msg.sender);\n           updateProjectVotedFor(_projectId);\n         }\n\n         function collectFunds () public {\n           wallet.transfer(1);\n         }\n\n         function updateProjectVotedFor(uint256 _projectId) {\n           updateVoteCount(_projectId);\n           extendProjectClosingTime(_projectId);\n         }\n\n         /* Project storage _projectVotedFor = projects[_projectId]; */\n\n        function updateVoteCount(uint256 _projectId) internal {\n          projects[_projectId].voteCount = projects[_projectId].voteCount.add(1);\n        }\n\n        function extendProjectClosingTime(uint256 _projectId) internal {\n          projects[_projectId].closingTime = projects[_projectId].closingTime.add(43200);\n        }\n\n        function _extendDoomsDay(uint256 _days) internal onlyWhileOpen {\n          doomsDay = doomsDay.add(_days.mul(1728000));\n        }\n\n        /* function canActivateProject() public view returns (string, uint256){\n        string memory leadingProject;\n        uint256 leadingPercentage;\n        uint256 votePercentage;\n        uint256 secondLeadingPercentage;\n        uint256 projectVoteCount;\n        uint256 leadingProjectIndex;\n        for(uint256 i = 0; i < projectAddresses.length; i = i.add(1)){\n            if (!projectAddresses[i].deployed){\n                projectVoteCount = projects[projectAddresses[i].location].voteCount;\n                if (projectVoteCount > 0){\n                    votePercentage = (projectVoteCount.mul(1000000)).div(totalVoteCount);\n                    if (votePercentage >= leadingPercentage){\n                        secondLeadingPercentage = leadingPercentage;\n                        leadingPercentage = votePercentage;\n                        leadingProjectIndex = i;\n                        leadingProject = projectAddresses[i].location;\n                    }\n                }\n            }\n\n        }\n        if(projects[leadingProject].cost <= weiRaised && leadingPercentage > secondLeadingPercentage){\n            return (leadingProject, leadingProjectIndex);\n        } else {\n            return (\"\",0);\n        }\n    } */\n\n}\n",
  "sourcePath": "/Users/steven/genie-portal/truffle/contracts/crowdsale/GNITokenCrowdsale.sol",
  "compiler": {
    "name": "solc",
    "version": "0.4.24+commit.e67f0147.Emscripten.clang"
  },
  "schemaVersion": "2.0.1",
  "updatedAt": "2018-10-04T23:16:23.605Z"
}