{
  "contractName": "GNITokenCrowdsale",
  "abi": [
    {
      "constant": true,
      "inputs": [],
      "name": "projectLeaderBoard",
      "outputs": [
        {
          "name": "",
          "type": "address"
        }
      ],
      "payable": false,
      "stateMutability": "view",
      "type": "function"
    },
    {
      "constant": true,
      "inputs": [],
      "name": "hasClosed",
      "outputs": [
        {
          "name": "",
          "type": "bool"
        }
      ],
      "payable": false,
      "stateMutability": "view",
      "type": "function"
    },
    {
      "constant": true,
      "inputs": [],
      "name": "totalValuation",
      "outputs": [
        {
          "name": "",
          "type": "uint256"
        }
      ],
      "payable": false,
      "stateMutability": "view",
      "type": "function"
    },
    {
      "constant": true,
      "inputs": [
        {
          "name": "",
          "type": "address"
        }
      ],
      "name": "voteHash",
      "outputs": [
        {
          "name": "",
          "type": "bytes32"
        }
      ],
      "payable": false,
      "stateMutability": "view",
      "type": "function"
    },
    {
      "constant": true,
      "inputs": [],
      "name": "investorList",
      "outputs": [
        {
          "name": "",
          "type": "address"
        }
      ],
      "payable": false,
      "stateMutability": "view",
      "type": "function"
    },
    {
      "constant": true,
      "inputs": [],
      "name": "dividendWallet",
      "outputs": [
        {
          "name": "",
          "type": "address"
        }
      ],
      "payable": false,
      "stateMutability": "view",
      "type": "function"
    },
    {
      "constant": true,
      "inputs": [],
      "name": "openingTime",
      "outputs": [
        {
          "name": "",
          "type": "uint256"
        }
      ],
      "payable": false,
      "stateMutability": "view",
      "type": "function"
    },
    {
      "constant": true,
      "inputs": [],
      "name": "reimbursements",
      "outputs": [
        {
          "name": "",
          "type": "address"
        }
      ],
      "payable": false,
      "stateMutability": "view",
      "type": "function"
    },
    {
      "constant": true,
      "inputs": [],
      "name": "doomsDay",
      "outputs": [
        {
          "name": "",
          "type": "uint256"
        }
      ],
      "payable": false,
      "stateMutability": "view",
      "type": "function"
    },
    {
      "constant": true,
      "inputs": [
        {
          "name": "",
          "type": "address"
        }
      ],
      "name": "removeVoteHash",
      "outputs": [
        {
          "name": "",
          "type": "bytes32"
        }
      ],
      "payable": false,
      "stateMutability": "view",
      "type": "function"
    },
    {
      "constant": false,
      "inputs": [],
      "name": "weiRaised_",
      "outputs": [
        {
          "name": "",
          "type": "uint256"
        }
      ],
      "payable": false,
      "stateMutability": "nonpayable",
      "type": "function"
    },
    {
      "constant": true,
      "inputs": [],
      "name": "token",
      "outputs": [
        {
          "name": "",
          "type": "address"
        }
      ],
      "payable": false,
      "stateMutability": "view",
      "type": "function"
    },
    {
      "inputs": [
        {
          "name": "_openingTime",
          "type": "uint256"
        },
        {
          "name": "_doomsDay",
          "type": "uint256"
        },
        {
          "name": "_rate",
          "type": "uint256"
        },
        {
          "name": "_developer",
          "type": "address"
        },
        {
          "name": "_dividendWallet",
          "type": "address"
        },
        {
          "name": "_token",
          "type": "address"
        },
        {
          "name": "_investorList",
          "type": "address"
        },
        {
          "name": "_projectLeaderBoard",
          "type": "address"
        },
        {
          "name": "_reimbursements",
          "type": "address"
        }
      ],
      "payable": false,
      "stateMutability": "nonpayable",
      "type": "constructor"
    },
    {
      "payable": true,
      "stateMutability": "payable",
      "type": "fallback"
    },
    {
      "anonymous": false,
      "inputs": [
        {
          "indexed": false,
          "name": "projectAddress",
          "type": "address"
        },
        {
          "indexed": false,
          "name": "developer",
          "type": "address"
        },
        {
          "indexed": false,
          "name": "name",
          "type": "string"
        },
        {
          "indexed": false,
          "name": "lat",
          "type": "string"
        },
        {
          "indexed": false,
          "name": "lng",
          "type": "string"
        },
        {
          "indexed": false,
          "name": "capitalRequired",
          "type": "uint256"
        },
        {
          "indexed": false,
          "name": "valuation",
          "type": "uint256"
        },
        {
          "indexed": false,
          "name": "developerTokens",
          "type": "uint256"
        },
        {
          "indexed": false,
          "name": "investorTokens",
          "type": "uint256"
        },
        {
          "indexed": false,
          "name": "totalProjectCount",
          "type": "uint256"
        }
      ],
      "name": "ProjectPitch",
      "type": "event"
    },
    {
      "anonymous": false,
      "inputs": [
        {
          "indexed": true,
          "name": "purchaser",
          "type": "address"
        },
        {
          "indexed": true,
          "name": "beneficiary",
          "type": "address"
        },
        {
          "indexed": false,
          "name": "value",
          "type": "uint256"
        },
        {
          "indexed": false,
          "name": "amount",
          "type": "uint256"
        }
      ],
      "name": "TokenPurchase",
      "type": "event"
    },
    {
      "constant": true,
      "inputs": [],
      "name": "totalProjectCount_",
      "outputs": [
        {
          "name": "",
          "type": "uint256"
        }
      ],
      "payable": false,
      "stateMutability": "view",
      "type": "function"
    },
    {
      "constant": true,
      "inputs": [
        {
          "name": "id",
          "type": "uint256"
        }
      ],
      "name": "projectById",
      "outputs": [
        {
          "name": "",
          "type": "address"
        }
      ],
      "payable": false,
      "stateMutability": "view",
      "type": "function"
    },
    {
      "constant": false,
      "inputs": [
        {
          "name": "_name",
          "type": "string"
        },
        {
          "name": "capitalRequired",
          "type": "uint256"
        },
        {
          "name": "_valuation",
          "type": "uint256"
        },
        {
          "name": "_lat",
          "type": "string"
        },
        {
          "name": "_lng",
          "type": "string"
        },
        {
          "name": "_voteHash",
          "type": "bytes32"
        },
        {
          "name": "_removeVoteHash",
          "type": "bytes32"
        }
      ],
      "name": "pitchProject",
      "outputs": [],
      "payable": false,
      "stateMutability": "nonpayable",
      "type": "function"
    },
    {
      "constant": false,
      "inputs": [],
      "name": "buyTokens",
      "outputs": [],
      "payable": true,
      "stateMutability": "payable",
      "type": "function"
    },
    {
      "constant": false,
      "inputs": [
        {
          "name": "_beneficiary",
          "type": "address"
        }
      ],
      "name": "buyTokens",
      "outputs": [
        {
          "name": "",
          "type": "uint256"
        }
      ],
      "payable": true,
      "stateMutability": "payable",
      "type": "function"
    },
    {
      "constant": false,
      "inputs": [],
      "name": "reimburseFunds",
      "outputs": [],
      "payable": false,
      "stateMutability": "nonpayable",
      "type": "function"
    },
    {
      "constant": false,
      "inputs": [
        {
          "name": "_project",
          "type": "address"
        },
        {
          "name": "_voter",
          "type": "address"
        },
        {
          "name": "votes",
          "type": "uint256"
        },
        {
          "name": "_signedMessage",
          "type": "bytes"
        }
      ],
      "name": "voteForProject",
      "outputs": [],
      "payable": false,
      "stateMutability": "nonpayable",
      "type": "function"
    },
    {
      "constant": false,
      "inputs": [
        {
          "name": "_project",
          "type": "address"
        },
        {
          "name": "_voter",
          "type": "address"
        },
        {
          "name": "votes",
          "type": "uint256"
        },
        {
          "name": "_signedMessage",
          "type": "bytes"
        }
      ],
      "name": "removeVotesFromProject",
      "outputs": [],
      "payable": false,
      "stateMutability": "nonpayable",
      "type": "function"
    },
    {
      "constant": false,
      "inputs": [
        {
          "name": "account",
          "type": "address"
        },
        {
          "name": "fromProjectAddr",
          "type": "address"
        }
      ],
      "name": "removeVotesFromProjectByAccount",
      "outputs": [],
      "payable": false,
      "stateMutability": "nonpayable",
      "type": "function"
    }
  ],
  "bytecode": "0x608060405234801561001057600080fd5b50604051610120806200427b833981018060405281019080805190602001909291908051906020019092919080519060200190929190805190602001909291908051906020019092919080519060200190929190805190602001909291908051906020019092919080519060200190929190505050888888888760008311151561009957600080fd5b600073ffffffffffffffffffffffffffffffffffffffff168273ffffffffffffffffffffffffffffffffffffffff16141515156100d557600080fd5b8260028190555081600160006101000a81548173ffffffffffffffffffffffffffffffffffffffff021916908373ffffffffffffffffffffffffffffffffffffffff160217905550806000806101000a81548173ffffffffffffffffffffffffffffffffffffffff021916908373ffffffffffffffffffffffffffffffffffffffff16021790555050505042821015151561016f57600080fd5b81811015151561017e57600080fd5b8160048190555080600581905550505082600760006101000a81548173ffffffffffffffffffffffffffffffffffffffff021916908373ffffffffffffffffffffffffffffffffffffffff160217905550600060068190555081600860006101000a81548173ffffffffffffffffffffffffffffffffffffffff021916908373ffffffffffffffffffffffffffffffffffffffff16021790555084600960006101000a81548173ffffffffffffffffffffffffffffffffffffffff021916908373ffffffffffffffffffffffffffffffffffffffff16021790555080600a60006101000a81548173ffffffffffffffffffffffffffffffffffffffff021916908373ffffffffffffffffffffffffffffffffffffffff160217905550505050505050505050613fc880620002b36000396000f30060806040526004361062000133576000357c0100000000000000000000000000000000000000000000000000000000900463ffffffff168063034e3905146200013557806313e9e53114620001a55780631515bc2b14620001ff5780631d112fba1462000231578063295b9300146200035957806350b7342f146200038757806355a6e11b14620003a15780636fc39a6d14620004575780639a38bfae146200050d578063a1f8adac146200056f578063b0e0116414620005c9578063b7a8807c1462000623578063bfa4893f1462000651578063c19b7bc014620006ab578063c8592b1214620006d9578063c8ab525b146200073b578063d0febe4c1462000769578063e31bc6141462000775578063e5ae959e14620007a3578063ec8ac4d81462000809578063fc0c546a1462000855575b005b3480156200014257600080fd5b506200016360048036038101908080359060200190929190505050620008af565b604051808273ffffffffffffffffffffffffffffffffffffffff1673ffffffffffffffffffffffffffffffffffffffff16815260200191505060405180910390f35b348015620001b257600080fd5b50620001bd620008ec565b604051808273ffffffffffffffffffffffffffffffffffffffff1673ffffffffffffffffffffffffffffffffffffffff16815260200191505060405180910390f35b3480156200020c57600080fd5b506200021762000912565b604051808215151515815260200191505060405180910390f35b3480156200023e57600080fd5b5062000357600480360381019080803590602001908201803590602001908080601f01602080910402602001604051908101604052809392919081815260200183838082843782019150505050505091929192908035906020019092919080359060200190929190803590602001908201803590602001908080601f0160208091040260200160405190810160405280939291908181526020018383808284378201915050505050509192919290803590602001908201803590602001908080601f0160208091040260200160405190810160405280939291908181526020018383808284378201915050505050509192919290803560001916906020019092919080356000191690602001909291905050506200091e565b005b3480156200036657600080fd5b5062000371620011ae565b6040518082815260200191505060405180910390f35b3480156200039457600080fd5b506200039f620011b4565b005b348015620003ae57600080fd5b5062000455600480360381019080803573ffffffffffffffffffffffffffffffffffffffff169060200190929190803573ffffffffffffffffffffffffffffffffffffffff16906020019092919080359060200190929190803590602001908201803590602001908080601f016020809104026020016040519081016040528093929190818152602001838380828437820191505050505050919291929050505062001338565b005b3480156200046457600080fd5b506200050b600480360381019080803573ffffffffffffffffffffffffffffffffffffffff169060200190929190803573ffffffffffffffffffffffffffffffffffffffff16906020019092919080359060200190929190803590602001908201803590602001908080601f01602080910402602001604051908101604052809392919081815260200183838082843782019150505050505091929192905050506200139d565b005b3480156200051a57600080fd5b5062000551600480360381019080803573ffffffffffffffffffffffffffffffffffffffff169060200190929190505050620015c0565b60405180826000191660001916815260200191505060405180910390f35b3480156200057c57600080fd5b5062000587620015d8565b604051808273ffffffffffffffffffffffffffffffffffffffff1673ffffffffffffffffffffffffffffffffffffffff16815260200191505060405180910390f35b348015620005d657600080fd5b50620005e1620015fe565b604051808273ffffffffffffffffffffffffffffffffffffffff1673ffffffffffffffffffffffffffffffffffffffff16815260200191505060405180910390f35b3480156200063057600080fd5b506200063b62001624565b6040518082815260200191505060405180910390f35b3480156200065e57600080fd5b50620006696200162a565b604051808273ffffffffffffffffffffffffffffffffffffffff1673ffffffffffffffffffffffffffffffffffffffff16815260200191505060405180910390f35b348015620006b857600080fd5b50620006c362001650565b6040518082815260200191505060405180910390f35b348015620006e657600080fd5b506200071d600480360381019080803573ffffffffffffffffffffffffffffffffffffffff16906020019092919050505062001656565b60405180826000191660001916815260200191505060405180910390f35b3480156200074857600080fd5b50620007536200166e565b6040518082815260200191505060405180910390f35b6200077362001678565b005b3480156200078257600080fd5b506200078d6200184c565b6040518082815260200191505060405180910390f35b348015620007b057600080fd5b5062000807600480360381019080803573ffffffffffffffffffffffffffffffffffffffff169060200190929190803573ffffffffffffffffffffffffffffffffffffffff16906020019092919050505062001856565b005b6200083f600480360381019080803573ffffffffffffffffffffffffffffffffffffffff16906020019092919050505062001aa3565b6040518082815260200191505060405180910390f35b3480156200086257600080fd5b506200086d62001c36565b604051808273ffffffffffffffffffffffffffffffffffffffff1673ffffffffffffffffffffffffffffffffffffffff16815260200191505060405180910390f35b6000600d600083815260200190815260200160002060009054906101000a900473ffffffffffffffffffffffffffffffffffffffff169050919050565b600860009054906101000a900473ffffffffffffffffffffffffffffffffffffffff1681565b60006005544211905090565b60008060006200092f888a62001c5b565b925092506000809054906101000a900473ffffffffffffffffffffffffffffffffffffffff1673ffffffffffffffffffffffffffffffffffffffff166340c10f19600160009054906101000a900473ffffffffffffffffffffffffffffffffffffffff16856040518363ffffffff167c0100000000000000000000000000000000000000000000000000000000028152600401808373ffffffffffffffffffffffffffffffffffffffff1673ffffffffffffffffffffffffffffffffffffffff16815260200182815260200192505050602060405180830381600087803b15801562000a1a57600080fd5b505af115801562000a2f573d6000803e3d6000fd5b505050506040513d602081101562000a4657600080fd5b8101908080519060200190929190505050506000809054906101000a900473ffffffffffffffffffffffffffffffffffffffff1673ffffffffffffffffffffffffffffffffffffffff166340c10f1930846040518363ffffffff167c0100000000000000000000000000000000000000000000000000000000028152600401808373ffffffffffffffffffffffffffffffffffffffff1673ffffffffffffffffffffffffffffffffffffffff16815260200182815260200192505050602060405180830381600087803b15801562000b1d57600080fd5b505af115801562000b32573d6000803e3d6000fd5b505050506040513d602081101562000b4957600080fd5b81019080805190602001909291905050505062000b728860065462001cb190919063ffffffff16565b60068190555062000b84605a62001cce565b89600160009054906101000a900473ffffffffffffffffffffffffffffffffffffffff16600960009054906101000a900473ffffffffffffffffffffffffffffffffffffffff168a8c87878d8d62000bdb62002962565b80806020018a73ffffffffffffffffffffffffffffffffffffffff1673ffffffffffffffffffffffffffffffffffffffff1681526020018973ffffffffffffffffffffffffffffffffffffffff1673ffffffffffffffffffffffffffffffffffffffff168152602001888152602001878152602001868152602001858152602001806020018060200184810384528d818151815260200191508051906020019080838360005b8381101562000c9e57808201518184015260208101905062000c81565b50505050905090810190601f16801562000ccc5780820380516001836020036101000a031916815260200191505b50848103835286818151815260200191508051906020019080838360005b8381101562000d0757808201518184015260208101905062000cea565b50505050905090810190601f16801562000d355780820380516001836020036101000a031916815260200191505b50848103825285818151815260200191508051906020019080838360005b8381101562000d7057808201518184015260208101905062000d53565b50505050905090810190601f16801562000d9e5780820380516001836020036101000a031916815260200191505b509c50505050505050505050505050604051809103906000f08015801562000dca573d6000803e3d6000fd5b509050600860009054906101000a900473ffffffffffffffffffffffffffffffffffffffff1673ffffffffffffffffffffffffffffffffffffffff1663c3ca58266040518163ffffffff167c0100000000000000000000000000000000000000000000000000000000028152600401600060405180830381600087803b15801562000e5457600080fd5b505af115801562000e69573d6000803e3d6000fd5b5050505062000e856001600e5462001cb190919063ffffffff16565b600e8190555080600d6000600e54815260200190815260200160002060006101000a81548173ffffffffffffffffffffffffffffffffffffffff021916908373ffffffffffffffffffffffffffffffffffffffff16021790555084600b60008373ffffffffffffffffffffffffffffffffffffffff1673ffffffffffffffffffffffffffffffffffffffff168152602001908152602001600020816000191690555083600c60008373ffffffffffffffffffffffffffffffffffffffff1673ffffffffffffffffffffffffffffffffffffffff16815260200190815260200160002081600019169055507f5cd4e9bb532f36dce45b3000fa5ce545935a2d0d0d98f916530f0aafa2b4082881600160009054906101000a900473ffffffffffffffffffffffffffffffffffffffff168c8a8a8e8e8a8a600e54604051808b73ffffffffffffffffffffffffffffffffffffffff1673ffffffffffffffffffffffffffffffffffffffff1681526020018a73ffffffffffffffffffffffffffffffffffffffff1673ffffffffffffffffffffffffffffffffffffffff16815260200180602001806020018060200189815260200188815260200187815260200186815260200185815260200184810384528c818151815260200191508051906020019080838360005b838110156200108a5780820151818401526020810190506200106d565b50505050905090810190601f168015620010b85780820380516001836020036101000a031916815260200191505b5084810383528b818151815260200191508051906020019080838360005b83811015620010f3578082015181840152602081019050620010d6565b50505050905090810190601f168015620011215780820380516001836020036101000a031916815260200191505b5084810382528a818151815260200191508051906020019080838360005b838110156200115c5780820151818401526020810190506200113f565b50505050905090810190601f1680156200118a5780820380516001836020036101000a031916815260200191505b509d505050505050505050505050505060405180910390a150505050505050505050565b60065481565b620011be62000912565b1515620011ca57600080fd5b600a60009054906101000a900473ffffffffffffffffffffffffffffffffffffffff1673ffffffffffffffffffffffffffffffffffffffff166108fc6003549081150290604051600060405180830381858888f1935050505015801562001235573d6000803e3d6000fd5b5060006003819055506000809054906101000a900473ffffffffffffffffffffffffffffffffffffffff1673ffffffffffffffffffffffffffffffffffffffff1663c4bc712a600160009054906101000a900473ffffffffffffffffffffffffffffffffffffffff166040518263ffffffff167c0100000000000000000000000000000000000000000000000000000000028152600401808273ffffffffffffffffffffffffffffffffffffffff1673ffffffffffffffffffffffffffffffffffffffff168152602001915050600060405180830381600087803b1580156200131d57600080fd5b505af115801562001332573d6000803e3d6000fd5b50505050565b6000600c60008673ffffffffffffffffffffffffffffffffffffffff1673ffffffffffffffffffffffffffffffffffffffff1681526020019081526020016000205490506200138982858362001d4a565b6200139684868562001fbd565b5050505050565b600080600b60008773ffffffffffffffffffffffffffffffffffffffff1673ffffffffffffffffffffffffffffffffffffffff168152602001908152602001600020549150620013ef83868462001d4a565b600760009054906101000a900473ffffffffffffffffffffffffffffffffffffffff1673ffffffffffffffffffffffffffffffffffffffff1663595f4a2586866040518363ffffffff167c0100000000000000000000000000000000000000000000000000000000028152600401808373ffffffffffffffffffffffffffffffffffffffff1673ffffffffffffffffffffffffffffffffffffffff16815260200182815260200192505050600060405180830381600087803b158015620014b557600080fd5b505af1158015620014ca573d6000803e3d6000fd5b505050508590508073ffffffffffffffffffffffffffffffffffffffff16635f74bbde86866040518363ffffffff167c0100000000000000000000000000000000000000000000000000000000028152600401808373ffffffffffffffffffffffffffffffffffffffff1673ffffffffffffffffffffffffffffffffffffffff16815260200182815260200192505050600060405180830381600087803b1580156200157557600080fd5b505af11580156200158a573d6000803e3d6000fd5b50505050620015a761a8c060055462001cb190919063ffffffff16565b600581905550620015b8866200218e565b505050505050565b600b6020528060005260406000206000915090505481565b600760009054906101000a900473ffffffffffffffffffffffffffffffffffffffff1681565b600960009054906101000a900473ffffffffffffffffffffffffffffffffffffffff1681565b60045481565b600a60009054906101000a900473ffffffffffffffffffffffffffffffffffffffff1681565b60055481565b600c6020528060005260406000206000915090505481565b6000600e54905090565b6000620016853362001aa3565b9050600760009054906101000a900473ffffffffffffffffffffffffffffffffffffffff1673ffffffffffffffffffffffffffffffffffffffff1663e641bde1336040518263ffffffff167c0100000000000000000000000000000000000000000000000000000000028152600401808273ffffffffffffffffffffffffffffffffffffffff1673ffffffffffffffffffffffffffffffffffffffff168152602001915050600060405180830381600087803b1580156200174557600080fd5b505af11580156200175a573d6000803e3d6000fd5b50505050600760009054906101000a900473ffffffffffffffffffffffffffffffffffffffff1673ffffffffffffffffffffffffffffffffffffffff1663ad8f256f33836040518363ffffffff167c0100000000000000000000000000000000000000000000000000000000028152600401808373ffffffffffffffffffffffffffffffffffffffff1673ffffffffffffffffffffffffffffffffffffffff16815260200182815260200192505050600060405180830381600087803b1580156200182457600080fd5b505af115801562001839573d6000803e3d6000fd5b5050505062001849605a62001cce565b50565b6000600354905090565b6000808291508173ffffffffffffffffffffffffffffffffffffffff1663fcfff16f6040518163ffffffff167c0100000000000000000000000000000000000000000000000000000000028152600401602060405180830381600087803b158015620018c157600080fd5b505af1158015620018d6573d6000803e3d6000fd5b505050506040513d6020811015620018ed57600080fd5b81019080805190602001909291905050501580620019a957508173ffffffffffffffffffffffffffffffffffffffff16634d7c09dd6040518163ffffffff167c0100000000000000000000000000000000000000000000000000000000028152600401602060405180830381600087803b1580156200196b57600080fd5b505af115801562001980573d6000803e3d6000fd5b505050506040513d60208110156200199757600080fd5b81019080805190602001909291905050505b1515620019b557600080fd5b8173ffffffffffffffffffffffffffffffffffffffff166379ec5d3a856040518263ffffffff167c0100000000000000000000000000000000000000000000000000000000028152600401808273ffffffffffffffffffffffffffffffffffffffff1673ffffffffffffffffffffffffffffffffffffffff168152602001915050602060405180830381600087803b15801562001a5157600080fd5b505af115801562001a66573d6000803e3d6000fd5b505050506040513d602081101562001a7d57600080fd5b8101908080519060200190929190505050905062001a9d84848362001fbd565b50505050565b600080600034915062001ab7848362002272565b62001ac282620022b8565b905062001adb8260035462001cb190919063ffffffff16565b6003819055506000809054906101000a900473ffffffffffffffffffffffffffffffffffffffff1673ffffffffffffffffffffffffffffffffffffffff166309b38a5d85836040518363ffffffff167c0100000000000000000000000000000000000000000000000000000000028152600401808373ffffffffffffffffffffffffffffffffffffffff1673ffffffffffffffffffffffffffffffffffffffff16815260200182815260200192505050600060405180830381600087803b15801562001ba657600080fd5b505af115801562001bbb573d6000803e3d6000fd5b505050508373ffffffffffffffffffffffffffffffffffffffff163373ffffffffffffffffffffffffffffffffffffffff167f623b3804fa71d67900d064613da8f94b9617215ee90799290593e1745087ad188484604051808381526020018281526020019250505060405180910390a38092505050919050565b6000809054906101000a900473ffffffffffffffffffffffffffffffffffffffff1681565b600080600062001c758486620022d890919063ffffffff16565b905062001c8e60025482620022f290919063ffffffff16565b62001ca560025486620022f290919063ffffffff16565b92509250509250929050565b6000818301905082811015151562001cc557fe5b80905092915050565b60008060008042925060045491506005549050600454421015801562001cf657506005544211155b151562001d0257600080fd5b62001d2e62001d1e621a5e0087620022f290919063ffffffff16565b4262001cb190919063ffffffff16565b935060055484111562001d4357836005819055505b5050505050565b6000816000191673__ECRecovery____________________________6319045a259091866040518363ffffffff167c010000000000000000000000000000000000000000000000000000000002815260040180836000191660001916815260200180602001828103825283818151815260200191508051906020019080838360005b8381101562001de957808201518184015260208101905062001dcc565b50505050905090810190601f16801562001e175780820380516001836020036101000a031916815260200191505b50935050505060206040518083038186803b15801562001e3657600080fd5b505af415801562001e4b573d6000803e3d6000fd5b505050506040513d602081101562001e6257600080fd5b810190808051906020019092919050505090508273ffffffffffffffffffffffffffffffffffffffff168173ffffffffffffffffffffffffffffffffffffffff1614151562001eb057600080fd5b600760009054906101000a900473ffffffffffffffffffffffffffffffffffffffff1673ffffffffffffffffffffffffffffffffffffffff1663c4b0c96a846040518263ffffffff167c0100000000000000000000000000000000000000000000000000000000028152600401808273ffffffffffffffffffffffffffffffffffffffff1673ffffffffffffffffffffffffffffffffffffffff168152602001915050602060405180830381600087803b15801562001f6e57600080fd5b505af115801562001f83573d6000803e3d6000fd5b505050506040513d602081101562001f9a57600080fd5b8101908080519060200190929190505050151562001fb757600080fd5b50505050565b60008290508073ffffffffffffffffffffffffffffffffffffffff1663ce6a088085846040518363ffffffff167c0100000000000000000000000000000000000000000000000000000000028152600401808373ffffffffffffffffffffffffffffffffffffffff1673ffffffffffffffffffffffffffffffffffffffff16815260200182815260200192505050600060405180830381600087803b1580156200206657600080fd5b505af11580156200207b573d6000803e3d6000fd5b505050506200209861a8c0600554620022d890919063ffffffff16565b600581905550600760009054906101000a900473ffffffffffffffffffffffffffffffffffffffff1673ffffffffffffffffffffffffffffffffffffffff1663ad8f256f85846040518363ffffffff167c0100000000000000000000000000000000000000000000000000000000028152600401808373ffffffffffffffffffffffffffffffffffffffff1673ffffffffffffffffffffffffffffffffffffffff16815260200182815260200192505050600060405180830381600087803b1580156200216457600080fd5b505af115801562002179573d6000803e3d6000fd5b5050505062002188836200218e565b50505050565b600860009054906101000a900473ffffffffffffffffffffffffffffffffffffffff1673ffffffffffffffffffffffffffffffffffffffff1663f9a59a99826040518263ffffffff167c0100000000000000000000000000000000000000000000000000000000028152600401808273ffffffffffffffffffffffffffffffffffffffff1673ffffffffffffffffffffffffffffffffffffffff168152602001915050600060405180830381600087803b1580156200224c57600080fd5b505af115801562002261573d6000803e3d6000fd5b505050506200226f6200232e565b50565b60008060004292506004549150600554905060045442101580156200229957506005544211155b1515620022a557600080fd5b620022b18585620028c4565b5050505050565b6000620022d160025483620022f290919063ffffffff16565b9050919050565b6000828211151515620022e757fe5b818303905092915050565b60008083141562002307576000905062002328565b81830290508183828115156200231957fe5b041415156200232457fe5b8090505b92915050565b600080600080600860009054906101000a900473ffffffffffffffffffffffffffffffffffffffff1673ffffffffffffffffffffffffffffffffffffffff1663af29f2f46040518163ffffffff167c0100000000000000000000000000000000000000000000000000000000028152600401606060405180830381600087803b158015620023bb57600080fd5b505af1158015620023d0573d6000803e3d6000fd5b505050506040513d6060811015620023e757600080fd5b810190808051906020019092919080519060200190929190805190602001909291905050509350935093506003548311158015620024225750815b8015620024cd57508373ffffffffffffffffffffffffffffffffffffffff1663fcfff16f6040518163ffffffff167c0100000000000000000000000000000000000000000000000000000000028152600401602060405180830381600087803b1580156200248f57600080fd5b505af1158015620024a4573d6000803e3d6000fd5b505050506040513d6020811015620024bb57600080fd5b81019080805190602001909291905050505b15620028be578390508073ffffffffffffffffffffffffffffffffffffffff16630f15f4c06040518163ffffffff167c0100000000000000000000000000000000000000000000000000000000028152600401600060405180830381600087803b1580156200253b57600080fd5b505af115801562002550573d6000803e3d6000fd5b505050508073ffffffffffffffffffffffffffffffffffffffff166351973ec96040518163ffffffff167c0100000000000000000000000000000000000000000000000000000000028152600401600060405180830381600087803b158015620025b957600080fd5b505af1158015620025ce573d6000803e3d6000fd5b5050505062002600600160009054906101000a900473ffffffffffffffffffffffffffffffffffffffff168462002916565b6200261783600354620022d890919063ffffffff16565b600381905550600860009054906101000a900473ffffffffffffffffffffffffffffffffffffffff1673ffffffffffffffffffffffffffffffffffffffff1663e53b61c96040518163ffffffff167c0100000000000000000000000000000000000000000000000000000000028152600401600060405180830381600087803b158015620026a457600080fd5b505af1158015620026b9573d6000803e3d6000fd5b505050506000809054906101000a900473ffffffffffffffffffffffffffffffffffffffff1673ffffffffffffffffffffffffffffffffffffffff166375a91587620028518373ffffffffffffffffffffffffffffffffffffffff1663d705f3876040518163ffffffff167c0100000000000000000000000000000000000000000000000000000000028152600401602060405180830381600087803b1580156200276357600080fd5b505af115801562002778573d6000803e3d6000fd5b505050506040513d60208110156200278f57600080fd5b81019080805190602001909291905050508473ffffffffffffffffffffffffffffffffffffffff1663929aebdf6040518163ffffffff167c0100000000000000000000000000000000000000000000000000000000028152600401602060405180830381600087803b1580156200280557600080fd5b505af11580156200281a573d6000803e3d6000fd5b505050506040513d60208110156200283157600080fd5b810190808051906020019092919050505062001cb190919063ffffffff16565b6040518263ffffffff167c010000000000000000000000000000000000000000000000000000000002815260040180828152602001915050600060405180830381600087803b158015620028a457600080fd5b505af1158015620028b9573d6000803e3d6000fd5b505050505b50505050565b600073ffffffffffffffffffffffffffffffffffffffff168273ffffffffffffffffffffffffffffffffffffffff16141515156200290157600080fd5b600081141515156200291257600080fd5b5050565b8173ffffffffffffffffffffffffffffffffffffffff166108fc829081150290604051600060405180830381858888f193505050501580156200295d573d6000803e3d6000fd5b505050565b604051611629806200297483390190560060806040523480156200001157600080fd5b50604051620016293803806200162983398101806040528101908080518201929190602001805190602001909291908051906020019092919080519060200190929190805190602001909291908051906020019092919080519060200190929190805182019291906020018051820192919050505088600090805190602001906200009e929190620001ae565b5087600160006101000a81548173ffffffffffffffffffffffffffffffffffffffff021916908373ffffffffffffffffffffffffffffffffffffffff16021790555086600260006101000a81548173ffffffffffffffffffffffffffffffffffffffff021916908373ffffffffffffffffffffffffffffffffffffffff16021790555085600481905550846005819055508360068190555082600781905550816008908051906020019062000155929190620001ae565b5080600990805190602001906200016e929190620001ae565b506000600a819055506000600b60006101000a81548160ff02191690831515021790555063013d238042016003819055505050505050505050506200025d565b828054600181600116156101000203166002900490600052602060002090601f016020900481019282601f10620001f157805160ff191683800117855562000222565b8280016001018555821562000222579182015b828111156200022157825182559160200191906001019062000204565b5b50905062000231919062000235565b5090565b6200025a91905b80821115620002565760008160009055506001016200023c565b5090565b90565b6113bc806200026d6000396000f300608060405260043610610128576000357c0100000000000000000000000000000000000000000000000000000000900463ffffffff16806302fb0c5e1461012d5780630f15f4c01461015c578063272666e3146101735780632d06177a1461019e5780634d7c09dd146101e157806351973ec91461021057806355d576cc146102275780635b184f88146102b75780635f74bbde146102fa578063705c5be51461034757806379ec5d3a146103a2578063929aebdf146103f9578063b0e0116414610424578063b1053da61461047b578063c78243cf146104a6578063ce6a0880146104d1578063d0e30db01461051e578063d4cf7db614610528578063d705f38714610553578063da4493f61461057e578063e2b9e186146105a9578063fcfff16f14610639575b600080fd5b34801561013957600080fd5b50610142610668565b604051808215151515815260200191505060405180910390f35b34801561016857600080fd5b5061017161067b565b005b34801561017f57600080fd5b506101886107bc565b6040518082815260200191505060405180910390f35b3480156101aa57600080fd5b506101df600480360381019080803573ffffffffffffffffffffffffffffffffffffffff1690602001909291905050506107c6565b005b3480156101ed57600080fd5b506101f66108d8565b604051808215151515815260200191505060405180910390f35b34801561021c57600080fd5b506102256108ef565b005b34801561023357600080fd5b5061023c610b42565b6040518080602001828103825283818151815260200191508051906020019080838360005b8381101561027c578082015181840152602081019050610261565b50505050905090810190601f1680156102a95780820380516001836020036101000a031916815260200191505b509250505060405180910390f35b3480156102c357600080fd5b506102f8600480360381019080803573ffffffffffffffffffffffffffffffffffffffff169060200190929190505050610be0565b005b34801561030657600080fd5b50610345600480360381019080803573ffffffffffffffffffffffffffffffffffffffff16906020019092919080359060200190929190505050610cdb565b005b34801561035357600080fd5b50610388600480360381019080803573ffffffffffffffffffffffffffffffffffffffff169060200190929190505050610ea4565b604051808215151515815260200191505060405180910390f35b3480156103ae57600080fd5b506103e3600480360381019080803573ffffffffffffffffffffffffffffffffffffffff169060200190929190505050610f5e565b6040518082815260200191505060405180910390f35b34801561040557600080fd5b5061040e610fa7565b6040518082815260200191505060405180910390f35b34801561043057600080fd5b50610439610fb1565b604051808273ffffffffffffffffffffffffffffffffffffffff1673ffffffffffffffffffffffffffffffffffffffff16815260200191505060405180910390f35b34801561048757600080fd5b50610490610fd7565b6040518082815260200191505060405180910390f35b3480156104b257600080fd5b506104bb610fe1565b6040518082815260200191505060405180910390f35b3480156104dd57600080fd5b5061051c600480360381019080803573ffffffffffffffffffffffffffffffffffffffff16906020019092919080359060200190929190505050610feb565b005b610526611213565b005b34801561053457600080fd5b5061053d611293565b6040518082815260200191505060405180910390f35b34801561055f57600080fd5b5061056861129d565b6040518082815260200191505060405180910390f35b34801561058a57600080fd5b506105936112a7565b6040518082815260200191505060405180910390f35b3480156105b557600080fd5b506105be6112ad565b6040518080602001828103825283818151815260200191508051906020019080838360005b838110156105fe5780820151818401526020810190506105e3565b50505050905090810190601f16801561062b5780820380516001836020036101000a031916815260200191505b509250505060405180910390f35b34801561064557600080fd5b5061064e61134f565b604051808215151515815260200191505060405180910390f35b600b60009054906101000a900460ff1681565b6001600b60006101000a81548160ff02191690831515021790555042600c819055507fbb68ecd801c9a6b91d3a2dfeb388cd808da6c2d25461274ca796905fd9236f58306000600b60009054906101000a900460ff16600554600454604051808673ffffffffffffffffffffffffffffffffffffffff1673ffffffffffffffffffffffffffffffffffffffff16815260200180602001851515151581526020018481526020018381526020018281038252868181546001816001161561010002031660029004815260200191508054600181600116156101000203166002900480156107a85780601f1061077d576101008083540402835291602001916107a8565b820191906000526020600020905b81548152906001019060200180831161078b57829003601f168201915b5050965050505050505060405180910390a1565b6000600354905090565b60011515600e60003373ffffffffffffffffffffffffffffffffffffffff1673ffffffffffffffffffffffffffffffffffffffff16815260200190815260200160002060009054906101000a900460ff16151514806108725750600160009054906101000a900473ffffffffffffffffffffffffffffffffffffffff1673ffffffffffffffffffffffffffffffffffffffff163373ffffffffffffffffffffffffffffffffffffffff16145b151561087d57600080fd5b6001600e60008373ffffffffffffffffffffffffffffffffffffffff1673ffffffffffffffffffffffffffffffffffffffff16815260200190815260200160002060006101000a81548160ff02191690831515021790555050565b6000600b60009054906101000a900460ff16905090565b7f618aac77ac61fdbff533123688fa5e33fe0d021db44eac318ae37b90c6f71d5630600060045460055460065460075460086009600a54600b60009054906101000a900460ff16604051808b73ffffffffffffffffffffffffffffffffffffffff1673ffffffffffffffffffffffffffffffffffffffff168152602001806020018a815260200189815260200188815260200187815260200180602001806020018681526020018515151515815260200184810384528d818154600181600116156101000203166002900481526020019150805460018160011615610100020316600290048015610a215780601f106109f657610100808354040283529160200191610a21565b820191906000526020600020905b815481529060010190602001808311610a0457829003601f168201915b5050848103835288818154600181600116156101000203166002900481526020019150805460018160011615610100020316600290048015610aa45780601f10610a7957610100808354040283529160200191610aa4565b820191906000526020600020905b815481529060010190602001808311610a8757829003601f168201915b5050848103825287818154600181600116156101000203166002900481526020019150805460018160011615610100020316600290048015610b275780601f10610afc57610100808354040283529160200191610b27565b820191906000526020600020905b815481529060010190602001808311610b0a57829003601f168201915b50509d505050505050505050505050505060405180910390a1565b60088054600181600116156101000203166002900480601f016020809104026020016040519081016040528092919081815260200182805460018160011615610100020316600290048015610bd85780601f10610bad57610100808354040283529160200191610bd8565b820191906000526020600020905b815481529060010190602001808311610bbb57829003601f168201915b505050505081565b60011515600e60003373ffffffffffffffffffffffffffffffffffffffff1673ffffffffffffffffffffffffffffffffffffffff16815260200190815260200160002060009054906101000a900460ff1615151480610c8c5750600160009054906101000a900473ffffffffffffffffffffffffffffffffffffffff1673ffffffffffffffffffffffffffffffffffffffff163373ffffffffffffffffffffffffffffffffffffffff16145b1515610c9757600080fd5b80600260006101000a81548173ffffffffffffffffffffffffffffffffffffffff021916908373ffffffffffffffffffffffffffffffffffffffff16021790555050565b610d2d81600d60008573ffffffffffffffffffffffffffffffffffffffff1673ffffffffffffffffffffffffffffffffffffffff1681526020019081526020016000205461135b90919063ffffffff16565b600d60008473ffffffffffffffffffffffffffffffffffffffff1673ffffffffffffffffffffffffffffffffffffffff16815260200190815260200160002081905550610d8581600a5461135b90919063ffffffff16565b600a81905550610da261a8c060035461135b90919063ffffffff16565b6003819055507fcf9b861cde9b2e35562b9c022cf860169c6ef8df3f29b757e508509057e8c2ab306000600a54604051808473ffffffffffffffffffffffffffffffffffffffff1673ffffffffffffffffffffffffffffffffffffffff16815260200180602001838152602001828103825284818154600181600116156101000203166002900481526020019150805460018160011615610100020316600290048015610e905780601f10610e6557610100808354040283529160200191610e90565b820191906000526020600020905b815481529060010190602001808311610e7357829003601f168201915b505094505050505060405180910390a15050565b600080600a54118015610f5757508173ffffffffffffffffffffffffffffffffffffffff1663c78243cf6040518163ffffffff167c0100000000000000000000000000000000000000000000000000000000028152600401602060405180830381600087803b158015610f1657600080fd5b505af1158015610f2a573d6000803e3d6000fd5b505050506040513d6020811015610f4057600080fd5b8101908080519060200190929190505050600a5410155b9050919050565b6000600d60008373ffffffffffffffffffffffffffffffffffffffff1673ffffffffffffffffffffffffffffffffffffffff168152602001908152602001600020549050919050565b6000600654905090565b600260009054906101000a900473ffffffffffffffffffffffffffffffffffffffff1681565b6000600c54905090565b6000600a54905090565b600a548111151515610ffc57600080fd5b600d60008373ffffffffffffffffffffffffffffffffffffffff1673ffffffffffffffffffffffffffffffffffffffff16815260200190815260200160002054811115151561104a57600080fd5b61109c81600d60008573ffffffffffffffffffffffffffffffffffffffff1673ffffffffffffffffffffffffffffffffffffffff1681526020019081526020016000205461137790919063ffffffff16565b600d60008473ffffffffffffffffffffffffffffffffffffffff1673ffffffffffffffffffffffffffffffffffffffff168152602001908152602001600020819055506110f481600a5461137790919063ffffffff16565b600a8190555061111161a8c060035461137790919063ffffffff16565b6003819055507fcf9b861cde9b2e35562b9c022cf860169c6ef8df3f29b757e508509057e8c2ab306000600a54604051808473ffffffffffffffffffffffffffffffffffffffff1673ffffffffffffffffffffffffffffffffffffffff168152602001806020018381526020018281038252848181546001816001161561010002031660029004815260200191508054600181600116156101000203166002900480156111ff5780601f106111d4576101008083540402835291602001916111ff565b820191906000526020600020905b8154815290600101906020018083116111e257829003601f168201915b505094505050505060405180910390a15050565b600080341415151561122457600080fd5b349050600260009054906101000a900473ffffffffffffffffffffffffffffffffffffffff1673ffffffffffffffffffffffffffffffffffffffff166108fc829081150290604051600060405180830381858888f1935050505015801561128f573d6000803e3d6000fd5b5050565b6000600554905090565b6000600754905090565b600c5481565b606060008054600181600116156101000203166002900480601f0160208091040260200160405190810160405280929190818152602001828054600181600116156101000203166002900480156113455780601f1061131a57610100808354040283529160200191611345565b820191906000526020600020905b81548152906001019060200180831161132857829003601f168201915b5050505050905090565b60004260035411905090565b6000818301905082811015151561136e57fe5b80905092915050565b600082821115151561138557fe5b8183039050929150505600a165627a7a7230582039bc09e0d07f4a1818207f4eb2fe897c841f77ce99603b55d5325b95c3826df20029a165627a7a72305820208c1e8d274b800d1ec04207414c5aab2cf663c5cb8798fe47337a3aafde80e30029",
  "source": "pragma solidity ^0.4.24;\nimport './TimedCrowdsale.sol';\nimport '../utility/SafeMath.sol';\nimport '../Project.sol';\nimport '../ProjectStub.sol';\nimport '../token/ERC20/Token.sol';\nimport '../InvestorList.sol';\nimport '../Reimbursements.sol';\nimport '../ProjectLeaderBoard.sol';\nimport '../ECRecovery.sol';\n\n\ncontract GNITokenCrowdsale is TimedCrowdsale {\n  using SafeMath for uint256;\n  using ECRecovery for bytes32;\n  uint256 public totalValuation;\n  InvestorList public investorList;\n  ProjectLeaderBoard public projectLeaderBoard;\n  address public dividendWallet;\n  address public reimbursements;\n\n  constructor\n      (\n        uint256 _openingTime,\n        uint256 _doomsDay,\n        uint256 _rate,\n        address _developer,\n        address _dividendWallet,\n        Token _token,\n        InvestorList _investorList,\n        ProjectLeaderBoard _projectLeaderBoard,\n        address _reimbursements\n      )\n      public\n      Crowdsale(_rate, _developer, _token)\n      TimedCrowdsale(_openingTime, _doomsDay) {\n        investorList = InvestorList(_investorList);\n        totalValuation = 0;\n        projectLeaderBoard = ProjectLeaderBoard(_projectLeaderBoard);\n        dividendWallet = _dividendWallet;\n        reimbursements = _reimbursements;\n  }\n\n  event ProjectPitch (\n    address projectAddress,\n    address developer,\n    string name,\n    string lat,\n    string lng,\n    uint256 capitalRequired,\n    uint256 valuation,\n    uint256 developerTokens,\n    uint256 investorTokens,\n    uint256 totalProjectCount\n  );\n\n  mapping(address => bytes32) public voteHash;\n  mapping(address => bytes32) public removeVoteHash;\n\n  mapping(uint256 => address) internal projectAddress;\n  uint256 internal totalProjectCount;\n\n  function totalProjectCount_() public view returns (uint256) {\n    return totalProjectCount;\n  }\n\n  function projectById (uint256 id) public view returns (address) {\n    return projectAddress[id];\n  }\n\n  function pitchProject(string _name, uint256 capitalRequired, uint256 _valuation, string _lat, string _lng, bytes32 _voteHash, bytes32 _removeVoteHash) public {//we need more tests for this\n   (uint256 developerTokens, uint256 investorTokens) = tokensToMint(_valuation, capitalRequired);\n\n   Token(token).mint(developer, developerTokens);\n   Token(token).mint(this, investorTokens);\n\n   totalValuation = totalValuation.add(_valuation);\n\n   _extendDoomsDay(90);\n\n    address projectAddr = new Project(_name, developer, dividendWallet, _valuation, capitalRequired, developerTokens, investorTokens, _lat, _lng);\n    projectLeaderBoard.incrementCandidateCount();\n    totalProjectCount = totalProjectCount.add(1);\n    projectAddress[totalProjectCount] = projectAddr;\n\n    voteHash[projectAddr] = _voteHash;\n    removeVoteHash[projectAddr] = _removeVoteHash;\n\n    emit ProjectPitch(projectAddr, developer, _name, _lat, _lng, capitalRequired, _valuation, developerTokens, investorTokens, totalProjectCount);\n  }\n\n function tokensToMint (uint256 valuation, uint256 investorValue) private view returns (uint256, uint256) {\n   uint256 developerValue = valuation.sub(investorValue);\n   return (developerValue.mul(rate), investorValue.mul(rate));\n }\n\n //before this, we need to execute any pending token activations with the modifier above for the sender account. We need to do this so that the correct number of tokens are activated\n function buyTokens () public payable { //tests need to be removed/added to account for new functionality. we also may just put all the logic for the super function in here.\n   /* Token(token).activatePending(msg.sender); */\n\n   uint256 voteCredit = super.buyTokens(msg.sender);\n   investorList.addInvestor(msg.sender);\n   investorList.addVoteCredit(msg.sender, voteCredit);\n   _extendDoomsDay(90);\n  }\n\n function activateProject () internal { //we need more tests for added functionality\n   (\n     address tentativeLeaderAddr,\n     uint256 tentativeLeaderCapRequired,\n     bool tentativeLeaderConfirmed\n   ) = projectLeaderBoard.tentativeLeader();\n\n   if (\n     tentativeLeaderCapRequired <= weiRaised &&\n     tentativeLeaderConfirmed &&\n     Project(tentativeLeaderAddr).open()\n     ) {\n     Project project = Project(tentativeLeaderAddr);\n     project.activate();\n     project.log();\n     //reduce cast vote count by the number of project votes, set the number of project votes to 0.\n\n     forwardFunds(developer, tentativeLeaderCapRequired);\n     weiRaised = weiRaised.sub(tentativeLeaderCapRequired);\n\n     projectLeaderBoard.handleProjectActivation();\n     Token(token).increasePendingActivations(project.developerTokens_().add(project.investorTokens_()));\n   }\n }\n\n function reimburseFunds () public { //we need tests for this\n   require(hasClosed());\n   reimbursements.transfer(weiRaised);\n   weiRaised = 0;\n   Token(token).resetInactiveTokenCycle(developer);\n }\n\n /* uint256 public totalVotesCast; */\n\n//tests need to be modified for all voting functions\n//needs to be callable only by the developer\nfunction voteForProject(address _project, address _voter, uint256 votes, bytes _signedMessage) public {\n  bytes32 unsignedMessage = voteHash[_project];\n  authenticateVoter(_signedMessage, _voter, unsignedMessage);\n\n  investorList.removeVoteCredit(_voter, votes);\n\n  Project project = Project(_project);\n  project.vote(_voter, votes);\n  doomsDay = doomsDay.add(43200);\n\n  updateProjects(_project);\n}\n\nfunction removeVotesFromProject(address _project, address _voter, uint256 votes, bytes _signedMessage) public {\n  bytes32 unsignedMessage = removeVoteHash[_project];\n  authenticateVoter(_signedMessage, _voter, unsignedMessage);\n  removeVotesFromProject_(_voter, _project, votes);\n}\n\n //this is for adding vote credit for each investor from the frontend after a project has been activated\n //call this function removeVotesFromIneligibleProject\n function removeVotesFromProjectByAccount (address account, address fromProjectAddr) external {\n   Project project = Project(fromProjectAddr);\n   require(!project.open() || project.active_());\n   uint256 votes = project.votesOf(account);\n   removeVotesFromProject_(account, fromProjectAddr, votes);\n }\n\n function removeVotesFromProject_ (address account, address fromProjectAddr, uint256 votes) internal {\n   Project project = Project(fromProjectAddr);\n\n   project.removeVotes(account, votes);\n   doomsDay = doomsDay.sub(43200);\n   investorList.addVoteCredit(account, votes);\n\n   updateProjects(fromProjectAddr);\n }\n\n function authenticateVoter(bytes _signedMessage, address voter, bytes32 unsignedMessage) internal {\n   address recoveredVoter = unsignedMessage.recover(_signedMessage);\n   require(recoveredVoter == voter);\n   require(investorList.validAccount(voter));\n }\n\n function updateProjects (address votedForProj) internal {\n   projectLeaderBoard.considerTentativeLeaderShip(votedForProj);\n   activateProject();\n }\n\n function _extendDoomsDay(uint256 _days) internal onlyWhileOpen {\n    uint256 newDoomsDay = now.add(_days.mul(1728000));\n    if (newDoomsDay > doomsDay) {\n      doomsDay = newDoomsDay;\n    }\n }\n\n  function forwardFunds (address _to, uint256 amount) internal {\n\n    _to.transfer(amount);\n  }\n}\n\n/* function transferVotes (address fromProjectAddr, address toProjectAddr, uint256 votes) external {\n  Project fromProj = Project(fromProjectAddr);\n  Project toProj = Project(toProjectAddr);\n\n  fromProj.removeVotes(msg.sender, votes);\n  toProj.vote(msg.sender, votes);\n\n  fromProj.log();\n  toProj.log();\n} */\n\n/* function getInfo(uint256 id) public view returns(address) {\n    /* string, uint256, uint256, uint256, uint256, bool, uint256, uint256, address */\n    /* address projectAddr = projectAddrs[id]; */\n    /* return ( */\n      /* return Project(projectAddr).dividendWallet(); */\n      /* Project(projectAddr).name(),\n      Project(projectAddr).valuation(),\n      Project(projectAddr).capitalRequired(),\n      Project(projectAddr).developerTokens(),\n      Project(projectAddr).investorTokens(),\n      Project(projectAddr).active(),\n      Project(projectAddr).totalVotes(),\n      /* Project(projectAddr).closingTime(), */\n      /* projectAddr */\n      /* ); */\n    /* }  */\n\n    /* event VoteAddition (\n      uint256 voteAdditions,\n      uint256 num\n    );\n\n\n    event VoteRemoval (\n      uint256 voteRemovals\n    );\n\n    uint256 voteAdditions;\n    uint256 voteRemovals; */\n",
  "sourcePath": "/Users/steven/genie-portal/truffle/contracts/crowdsale/GNITokenCrowdsale.sol",
  "compiler": {
    "name": "solc",
    "version": "0.4.24+commit.e67f0147.Emscripten.clang"
  },
  "schemaVersion": "2.0.1",
  "updatedAt": "2019-01-08T19:02:49.673Z"
}