{
  "contractName": "GNITokenCrowdsale",
  "abi": [
    {
      "constant": true,
      "inputs": [
        {
          "name": "",
          "type": "uint256"
        }
      ],
      "name": "projects",
      "outputs": [
        {
          "name": "name",
          "type": "string"
        },
        {
          "name": "closingTime",
          "type": "uint256"
        },
        {
          "name": "valuation",
          "type": "uint256"
        },
        {
          "name": "capitalRequired",
          "type": "uint256"
        },
        {
          "name": "developerTokens",
          "type": "uint256"
        },
        {
          "name": "investorTokens",
          "type": "uint256"
        },
        {
          "name": "lat",
          "type": "string"
        },
        {
          "name": "lng",
          "type": "string"
        },
        {
          "name": "voteCount",
          "type": "uint256"
        },
        {
          "name": "capitalReached",
          "type": "bool"
        },
        {
          "name": "active",
          "type": "bool"
        }
      ],
      "payable": false,
      "stateMutability": "view",
      "type": "function"
    },
    {
      "constant": true,
      "inputs": [],
      "name": "hasClosed",
      "outputs": [
        {
          "name": "",
          "type": "bool"
        }
      ],
      "payable": false,
      "stateMutability": "view",
      "type": "function"
    },
    {
      "constant": true,
      "inputs": [],
      "name": "totalValuation",
      "outputs": [
        {
          "name": "",
          "type": "uint256"
        }
      ],
      "payable": false,
      "stateMutability": "view",
      "type": "function"
    },
    {
      "constant": true,
      "inputs": [],
      "name": "rate",
      "outputs": [
        {
          "name": "",
          "type": "uint256"
        }
      ],
      "payable": false,
      "stateMutability": "view",
      "type": "function"
    },
    {
      "constant": true,
      "inputs": [],
      "name": "weiRaised",
      "outputs": [
        {
          "name": "",
          "type": "uint256"
        }
      ],
      "payable": false,
      "stateMutability": "view",
      "type": "function"
    },
    {
      "constant": true,
      "inputs": [],
      "name": "wallet",
      "outputs": [
        {
          "name": "",
          "type": "address"
        }
      ],
      "payable": false,
      "stateMutability": "view",
      "type": "function"
    },
    {
      "constant": true,
      "inputs": [],
      "name": "openingTime",
      "outputs": [
        {
          "name": "",
          "type": "uint256"
        }
      ],
      "payable": false,
      "stateMutability": "view",
      "type": "function"
    },
    {
      "constant": true,
      "inputs": [],
      "name": "doomsDay",
      "outputs": [
        {
          "name": "",
          "type": "uint256"
        }
      ],
      "payable": false,
      "stateMutability": "view",
      "type": "function"
    },
    {
      "constant": false,
      "inputs": [
        {
          "name": "_beneficiary",
          "type": "address"
        }
      ],
      "name": "buyTokens",
      "outputs": [],
      "payable": true,
      "stateMutability": "payable",
      "type": "function"
    },
    {
      "constant": true,
      "inputs": [],
      "name": "token",
      "outputs": [
        {
          "name": "",
          "type": "address"
        }
      ],
      "payable": false,
      "stateMutability": "view",
      "type": "function"
    },
    {
      "inputs": [
        {
          "name": "_openingTime",
          "type": "uint256"
        },
        {
          "name": "_doomsDay",
          "type": "uint256"
        },
        {
          "name": "_rate",
          "type": "uint256"
        },
        {
          "name": "_wallet",
          "type": "address"
        },
        {
          "name": "_token",
          "type": "address"
        }
      ],
      "payable": false,
      "stateMutability": "nonpayable",
      "type": "constructor"
    },
    {
      "payable": true,
      "stateMutability": "payable",
      "type": "fallback"
    },
    {
      "anonymous": false,
      "inputs": [
        {
          "indexed": false,
          "name": "id",
          "type": "uint256"
        },
        {
          "indexed": false,
          "name": "name",
          "type": "string"
        },
        {
          "indexed": false,
          "name": "valuation",
          "type": "uint256"
        },
        {
          "indexed": false,
          "name": "capitalRequired",
          "type": "uint256"
        },
        {
          "indexed": false,
          "name": "developerTokens",
          "type": "uint256"
        },
        {
          "indexed": false,
          "name": "investorTokens",
          "type": "uint256"
        },
        {
          "indexed": false,
          "name": "lat",
          "type": "string"
        },
        {
          "indexed": false,
          "name": "lng",
          "type": "string"
        },
        {
          "indexed": false,
          "name": "voteCount",
          "type": "uint256"
        },
        {
          "indexed": false,
          "name": "capitalReached",
          "type": "bool"
        },
        {
          "indexed": false,
          "name": "active",
          "type": "bool"
        }
      ],
      "name": "LogProject",
      "type": "event"
    },
    {
      "anonymous": false,
      "inputs": [
        {
          "indexed": true,
          "name": "purchaser",
          "type": "address"
        },
        {
          "indexed": true,
          "name": "beneficiary",
          "type": "address"
        },
        {
          "indexed": false,
          "name": "value",
          "type": "uint256"
        },
        {
          "indexed": false,
          "name": "amount",
          "type": "uint256"
        }
      ],
      "name": "TokenPurchase",
      "type": "event"
    },
    {
      "constant": true,
      "inputs": [
        {
          "name": "id",
          "type": "uint256"
        }
      ],
      "name": "getProjectInfo",
      "outputs": [
        {
          "name": "",
          "type": "string"
        },
        {
          "name": "",
          "type": "uint256"
        },
        {
          "name": "",
          "type": "uint256"
        },
        {
          "name": "",
          "type": "uint256"
        },
        {
          "name": "",
          "type": "uint256"
        },
        {
          "name": "",
          "type": "bool"
        },
        {
          "name": "",
          "type": "uint256"
        },
        {
          "name": "",
          "type": "uint256"
        }
      ],
      "payable": false,
      "stateMutability": "view",
      "type": "function"
    },
    {
      "constant": false,
      "inputs": [
        {
          "name": "_name",
          "type": "string"
        },
        {
          "name": "capitalRequired",
          "type": "uint256"
        },
        {
          "name": "_valuation",
          "type": "uint256"
        },
        {
          "name": "_lat",
          "type": "string"
        },
        {
          "name": "_lng",
          "type": "string"
        }
      ],
      "name": "pitchProject",
      "outputs": [],
      "payable": true,
      "stateMutability": "payable",
      "type": "function"
    },
    {
      "constant": false,
      "inputs": [
        {
          "name": "_projectId",
          "type": "uint256"
        }
      ],
      "name": "handleTokenPurchase",
      "outputs": [],
      "payable": true,
      "stateMutability": "payable",
      "type": "function"
    },
    {
      "constant": false,
      "inputs": [
        {
          "name": "_projectId",
          "type": "uint256"
        }
      ],
      "name": "updateProjectVotedFor",
      "outputs": [],
      "payable": false,
      "stateMutability": "nonpayable",
      "type": "function"
    },
    {
      "constant": true,
      "inputs": [],
      "name": "projectToActivateDetails",
      "outputs": [
        {
          "name": "",
          "type": "uint256"
        },
        {
          "name": "",
          "type": "bool"
        }
      ],
      "payable": false,
      "stateMutability": "view",
      "type": "function"
    },
    {
      "constant": false,
      "inputs": [],
      "name": "activateProject",
      "outputs": [],
      "payable": false,
      "stateMutability": "nonpayable",
      "type": "function"
    }
  ],
  "bytecode": "0x608060405234801561001057600080fd5b5060405160a080611e8e8339810180604052810190808051906020019092919080519060200190929190805190602001909291908051906020019092919080519060200190929190505050848484848460008311151561006f57600080fd5b600073ffffffffffffffffffffffffffffffffffffffff168273ffffffffffffffffffffffffffffffffffffffff16141515156100ab57600080fd5b600073ffffffffffffffffffffffffffffffffffffffff168173ffffffffffffffffffffffffffffffffffffffff16141515156100e757600080fd5b8260028190555081600160006101000a81548173ffffffffffffffffffffffffffffffffffffffff021916908373ffffffffffffffffffffffffffffffffffffffff160217905550806000806101000a81548173ffffffffffffffffffffffffffffffffffffffff021916908373ffffffffffffffffffffffffffffffffffffffff16021790555050505042821015151561018157600080fd5b81811015151561019057600080fd5b8160048190555080600581905550505060006006819055505050505050611cd2806101bc6000396000f3006080604052600436106100e6576000357c0100000000000000000000000000000000000000000000000000000000900463ffffffff168063107046bd146100f15780631515bc2b146102af578063295b9300146102de5780632c4e722e146103095780633cb78fe0146103345780634042b66f1461034b578063521eb2731461037657806365af1672146103cd5780636634c99f146104c95780638f6cdd6f146104f6578063a13d77f114610516578063b7a8807c1461054c578063c19b7bc014610577578063ec8ac4d8146105a2578063fabf5968146105d8578063fc0c546a146106b3575b6100ef3361070a565b005b3480156100fd57600080fd5b5061011c600480360381019080803590602001909291905050506107d0565b60405180806020018c81526020018b81526020018a81526020018981526020018881526020018060200180602001878152602001861515151581526020018515151515815260200184810384528f818151815260200191508051906020019080838360005b8381101561019c578082015181840152602081019050610181565b50505050905090810190601f1680156101c95780820380516001836020036101000a031916815260200191505b50848103835289818151815260200191508051906020019080838360005b838110156102025780820151818401526020810190506101e7565b50505050905090810190601f16801561022f5780820380516001836020036101000a031916815260200191505b50848103825288818151815260200191508051906020019080838360005b8381101561026857808201518184015260208101905061024d565b50505050905090810190601f1680156102955780820380516001836020036101000a031916815260200191505b509e50505050505050505050505050505060405180910390f35b3480156102bb57600080fd5b506102c4610a1b565b604051808215151515815260200191505060405180910390f35b3480156102ea57600080fd5b506102f3610a27565b6040518082815260200191505060405180910390f35b34801561031557600080fd5b5061031e610a2d565b6040518082815260200191505060405180910390f35b34801561034057600080fd5b50610349610a33565b005b34801561035757600080fd5b50610360610df9565b6040518082815260200191505060405180910390f35b34801561038257600080fd5b5061038b610dff565b604051808273ffffffffffffffffffffffffffffffffffffffff1673ffffffffffffffffffffffffffffffffffffffff16815260200191505060405180910390f35b6104c7600480360381019080803590602001908201803590602001908080601f01602080910402602001604051908101604052809392919081815260200183838082843782019150505050505091929192908035906020019092919080359060200190929190803590602001908201803590602001908080601f0160208091040260200160405190810160405280939291908181526020018383808284378201915050505050509192919290803590602001908201803590602001908080601f0160208091040260200160405190810160405280939291908181526020018383808284378201915050505050509192919290505050610e25565b005b3480156104d557600080fd5b506104f460048036038101908080359060200190929190505050611293565b005b610514600480360381019080803590602001909291905050506112a8565b005b34801561052257600080fd5b5061052b6112bd565b60405180838152602001821515151581526020019250505060405180910390f35b34801561055857600080fd5b50610561611444565b6040518082815260200191505060405180910390f35b34801561058357600080fd5b5061058c61144a565b6040518082815260200191505060405180910390f35b6105d6600480360381019080803573ffffffffffffffffffffffffffffffffffffffff16906020019092919050505061070a565b005b3480156105e457600080fd5b5061060360048036038101908080359060200190929190505050611450565b60405180806020018981526020018881526020018781526020018681526020018515151515815260200184815260200183815260200182810382528a818151815260200191508051906020019080838360005b83811015610671578082015181840152602081019050610656565b50505050905090810190601f16801561069e5780820380516001836020036101000a031916815260200191505b50995050505050505050505060405180910390f35b3480156106bf57600080fd5b506106c8611732565b604051808273ffffffffffffffffffffffffffffffffffffffff1673ffffffffffffffffffffffffffffffffffffffff16815260200191505060405180910390f35b60008034915061071a8383611757565b61072382611799565b905061073a826003546117b790919063ffffffff16565b60038190555061074a83826117d3565b8273ffffffffffffffffffffffffffffffffffffffff163373ffffffffffffffffffffffffffffffffffffffff167f623b3804fa71d67900d064613da8f94b9617215ee90799290593e1745087ad188484604051808381526020018281526020019250505060405180910390a36107c183836117e1565b6107cb83836117e5565b505050565b6007818154811015156107df57fe5b90600052602060002090600a0201600091509050806000018054600181600116156101000203166002900480601f01602080910402602001604051908101604052809291908181526020018280546001816001161561010002031660029004801561088b5780601f106108605761010080835404028352916020019161088b565b820191906000526020600020905b81548152906001019060200180831161086e57829003601f168201915b505050505090806001015490806002015490806003015490806004015490806005015490806006018054600181600116156101000203166002900480601f0160208091040260200160405190810160405280929190818152602001828054600181600116156101000203166002900480156109475780601f1061091c57610100808354040283529160200191610947565b820191906000526020600020905b81548152906001019060200180831161092a57829003601f168201915b505050505090806007018054600181600116156101000203166002900480601f0160208091040260200160405190810160405280929190818152602001828054600181600116156101000203166002900480156109e55780601f106109ba576101008083540402835291602001916109e5565b820191906000526020600020905b8154815290600101906020018083116109c857829003601f168201915b5050505050908060080154908060090160009054906101000a900460ff16908060090160019054906101000a900460ff1690508b565b60006005544211905090565b60065481565b60025481565b6000806000610a406112bd565b925092508115610df457600783815481101515610a5957fe5b90600052602060002090600a020190506000809054906101000a900473ffffffffffffffffffffffffffffffffffffffff1673ffffffffffffffffffffffffffffffffffffffff16632392999f82600401548360050154600160009054906101000a900473ffffffffffffffffffffffffffffffffffffffff166040518463ffffffff167c0100000000000000000000000000000000000000000000000000000000028152600401808481526020018381526020018273ffffffffffffffffffffffffffffffffffffffff1673ffffffffffffffffffffffffffffffffffffffff1681526020019350505050600060405180830381600087803b158015610b5f57600080fd5b505af1158015610b73573d6000803e3d6000fd5b50505050610b8481600301546117e9565b610b9d816003015460035461185590919063ffffffff16565b60038190555060018160090160016101000a81548160ff0219169083151502179055507f01fbd73723effdef492008556c201264e37cfa21ddb81d6fd2887e3e93fda0328382600001836002015484600301548560040154866005015487600601886007018960080154600180604051808c8152602001806020018b81526020018a81526020018981526020018881526020018060200180602001878152602001861515151581526020018515151515815260200184810384528e818154600181600116156101000203166002900481526020019150805460018160011615610100020316600290048015610cd35780601f10610ca857610100808354040283529160200191610cd3565b820191906000526020600020905b815481529060010190602001808311610cb657829003601f168201915b5050848103835289818154600181600116156101000203166002900481526020019150805460018160011615610100020316600290048015610d565780601f10610d2b57610100808354040283529160200191610d56565b820191906000526020600020905b815481529060010190602001808311610d3957829003601f168201915b5050848103825288818154600181600116156101000203166002900481526020019150805460018160011615610100020316600290048015610dd95780601f10610dae57610100808354040283529160200191610dd9565b820191906000526020600020905b815481529060010190602001808311610dbc57829003601f168201915b50509e50505050505050505050505050505060405180910390a15b505050565b60035481565b600160009054906101000a900473ffffffffffffffffffffffffffffffffffffffff1681565b6000806000610e34868861186e565b925092506000809054906101000a900473ffffffffffffffffffffffffffffffffffffffff1673ffffffffffffffffffffffffffffffffffffffff1663156e29f63085856040518463ffffffff167c0100000000000000000000000000000000000000000000000000000000028152600401808473ffffffffffffffffffffffffffffffffffffffff1673ffffffffffffffffffffffffffffffffffffffff1681526020018381526020018281526020019350505050602060405180830381600087803b158015610f0457600080fd5b505af1158015610f18573d6000803e3d6000fd5b505050506040513d6020811015610f2e57600080fd5b810190808051906020019092919050505050610f55866006546117b790919063ffffffff16565b600681905550610f65605a6118be565b60016007610160604051908101604052808b815260200163013d2380420181526020018981526020018a815260200186815260200185815260200188815260200187815260200160008152602001600015158152602001600015158152509080600181540180825580915050906001820390600052602060002090600a020160009091929091909150600082015181600001908051906020019061100a929190611ba2565b506020820151816001015560408201518160020155606082015181600301556080820151816004015560a0820151816005015560c0820151816006019080519060200190611059929190611ba2565b5060e0820151816007019080519060200190611076929190611ba2565b5061010082015181600801556101208201518160090160006101000a81548160ff0219169083151502179055506101408201518160090160016101000a81548160ff02191690831515021790555050500390507f01fbd73723effdef492008556c201264e37cfa21ddb81d6fd2887e3e93fda0328189888a87878b8b6000806000604051808c8152602001806020018b81526020018a81526020018981526020018881526020018060200180602001878152602001861515151581526020018515151515815260200184810384528e818151815260200191508051906020019080838360005b8381101561117757808201518184015260208101905061115c565b50505050905090810190601f1680156111a45780820380516001836020036101000a031916815260200191505b50848103835289818151815260200191508051906020019080838360005b838110156111dd5780820151818401526020810190506111c2565b50505050905090810190601f16801561120a5780820380516001836020036101000a031916815260200191505b50848103825288818151815260200191508051906020019080838360005b83811015611243578082015181840152602081019050611228565b50505050905090810190601f1680156112705780820380516001836020036101000a031916815260200191505b509e50505050505050505050505050505060405180910390a15050505050505050565b61129c81611925565b6112a581611980565b50565b6112b13361070a565b6112ba81611293565b50565b6000806000806000809150600090505b600780549050811015611409576007818154811015156112e957fe5b90600052602060002090600a020160090160019054906101000a900460ff161580156113355750600060078281548110151561132157fe5b90600052602060002090600a020160080154115b801561136057504260078281548110151561134c57fe5b90600052602060002090600a020160010154115b80156113e1575060078381548110151561137657fe5b90600052602060002090600a02016008015460078281548110151561139757fe5b90600052602060002090600a0201600801541015806113e057506007838154811015156113c057fe5b90600052602060002090600a020160090160019054906101000a900460ff165b5b156113ee57809250600191505b6114026001826117b790919063ffffffff16565b90506112cd565b82828015611439575060035460078581548110151561142457fe5b90600052602060002090600a02016003015411155b945094505050509091565b60045481565b60055481565b60606000806000806000806000611465611c22565b60078a81548110151561147457fe5b90600052602060002090600a02016101606040519081016040529081600082018054600181600116156101000203166002900480601f0160208091040260200160405190810160405280929190818152602001828054600181600116156101000203166002900480156115285780601f106114fd57610100808354040283529160200191611528565b820191906000526020600020905b81548152906001019060200180831161150b57829003601f168201915b505050505081526020016001820154815260200160028201548152602001600382015481526020016004820154815260200160058201548152602001600682018054600181600116156101000203166002900480601f0160208091040260200160405190810160405280929190818152602001828054600181600116156101000203166002900480156115fc5780601f106115d1576101008083540402835291602001916115fc565b820191906000526020600020905b8154815290600101906020018083116115df57829003601f168201915b50505050508152602001600782018054600181600116156101000203166002900480601f01602080910402602001604051908101604052809291908181526020018280546001816001161561010002031660029004801561169e5780601f106116735761010080835404028352916020019161169e565b820191906000526020600020905b81548152906001019060200180831161168157829003601f168201915b50505050508152602001600882015481526020016009820160009054906101000a900460ff161515151581526020016009820160019054906101000a900460ff161515151581525050905080600001518160400151826060015183608001518460a0015185610140015186610100015187602001518797509850985098509850985098509850985050919395975091939597565b6000809054906101000a900473ffffffffffffffffffffffffffffffffffffffff1681565b600080600042925060045491506005549050600454421015801561177d57506005544211155b151561178857600080fd5b61179285856119dc565b5050505050565b60006117b060025483611a2c90919063ffffffff16565b9050919050565b600081830190508281101515156117ca57fe5b80905092915050565b6117dd8282611a64565b5050565b5050565b5050565b600160009054906101000a900473ffffffffffffffffffffffffffffffffffffffff1673ffffffffffffffffffffffffffffffffffffffff166108fc829081150290604051600060405180830381858888f19350505050158015611851573d6000803e3d6000fd5b5050565b600082821115151561186357fe5b818303905092915050565b6000806000611886848661185590919063ffffffff16565b905061189d60025482611a2c90919063ffffffff16565b6118b260025486611a2c90919063ffffffff16565b92509250509250929050565b60008060004292506004549150600554905060045442101580156118e457506005544211155b15156118ef57600080fd5b611919611908621a5e0086611a2c90919063ffffffff16565b6005546117b790919063ffffffff16565b60058190555050505050565b611959600160078381548110151561193957fe5b90600052602060002090600a0201600801546117b790919063ffffffff16565b60078281548110151561196857fe5b90600052602060002090600a02016008018190555050565b6119b561a8c060078381548110151561199557fe5b90600052602060002090600a0201600101546117b790919063ffffffff16565b6007828154811015156119c457fe5b90600052602060002090600a02016001018190555050565b600073ffffffffffffffffffffffffffffffffffffffff168273ffffffffffffffffffffffffffffffffffffffff1614151515611a1857600080fd5b60008114151515611a2857600080fd5b5050565b600080831415611a3f5760009050611a5e565b8183029050818382811515611a5057fe5b04141515611a5a57fe5b8090505b92915050565b611ab082826000809054906101000a900473ffffffffffffffffffffffffffffffffffffffff1673ffffffffffffffffffffffffffffffffffffffff16611ab49092919063ffffffff16565b5050565b8273ffffffffffffffffffffffffffffffffffffffff1663a9059cbb83836040518363ffffffff167c0100000000000000000000000000000000000000000000000000000000028152600401808373ffffffffffffffffffffffffffffffffffffffff1673ffffffffffffffffffffffffffffffffffffffff16815260200182815260200192505050602060405180830381600087803b158015611b5757600080fd5b505af1158015611b6b573d6000803e3d6000fd5b505050506040513d6020811015611b8157600080fd5b81019080805190602001909291905050501515611b9d57600080fd5b505050565b828054600181600116156101000203166002900490600052602060002090601f016020900481019282601f10611be357805160ff1916838001178555611c11565b82800160010185558215611c11579182015b82811115611c10578251825591602001919060010190611bf5565b5b509050611c1e9190611c81565b5090565b610160604051908101604052806060815260200160008152602001600081526020016000815260200160008152602001600081526020016060815260200160608152602001600081526020016000151581526020016000151581525090565b611ca391905b80821115611c9f576000816000905550600101611c87565b5090565b905600a165627a7a7230582044bc875e720c349ca903f130dadf2caf0829bd8e6aa084963621f8d5419cfeab0029",
  "source": "pragma solidity 0.4.24;\n\nimport '../token/GNIToken.sol';\nimport './TimedCrowdsale.sol';\nimport '../utility/SafeMath.sol';\n\ncontract GNITokenCrowdsale is TimedCrowdsale {\n  using SafeMath for uint256;\n  uint256 public totalValuation;\n\n  constructor\n      (\n        uint256 _openingTime,\n        uint256 _doomsDay,\n        uint256 _rate,\n        address _wallet,\n        MintableToken _token\n      )\n      public\n      Crowdsale(_rate, _wallet, _token)\n      TimedCrowdsale(_openingTime, _doomsDay) {\n          totalValuation = 0;\n  }\n\n  struct Project {\n      string name;\n      uint256 closingTime;\n      uint256 valuation;\n      uint256 capitalRequired;\n      uint256 developerTokens;\n      uint256 investorTokens;\n      string lat;\n      string lng;\n      uint256 voteCount;\n      bool capitalReached;\n      bool active;\n  }\n\n  event LogProject (\n      uint id,\n      string name,\n      uint256 valuation,\n      uint256 capitalRequired,\n      uint256 developerTokens,\n      uint256 investorTokens,\n      string lat,\n      string lng,\n      uint256 voteCount,\n      bool capitalReached,\n      bool active\n  );\n\n\n  /* mapping(string => Project) private projects; */\n  Project[] public projects;\n\n\n function getProjectInfo(uint id) public view returns(\n     string, uint256, uint256, uint256, uint256, bool, uint256, uint256\n     ) {\n     Project memory project = projects[id];\n     return (\n         project.name,\n         project.valuation,\n         project.capitalRequired,\n         project.developerTokens,\n         project.investorTokens,\n         project.active,\n         project.voteCount,\n         project.closingTime\n     );\n }\n\n function pitchProject(string _name, uint capitalRequired, uint256 _valuation, string _lat, string _lng) public payable {\n   (uint256 developerTokens, uint256 investorTokens) = tokensToIssue(_valuation, capitalRequired);\n\n   //tokens go to the this contract\n   //we need to do this because transfer expects to take tokens from msg.sender, which is this contract\n   GNIToken(token).mint(this, developerTokens, investorTokens);\n\n   totalValuation = totalValuation.add(_valuation);\n\n     // Increase crowdsale duation by 90 days\n   _extendDoomsDay(90);\n\n     uint id = projects.push(Project(_name, now + 86600 * 240, _valuation, capitalRequired, developerTokens, investorTokens, _lat,_lng, 0, false, false)) - 1;\n\n     // log the creation of the new project\n     emit LogProject(id, _name, _valuation, capitalRequired, developerTokens, investorTokens, _lat, _lng, 0, false, false);\n }\n\n function tokensToIssue (uint256 valuation, uint256 investorValue) private returns (uint256, uint256) {\n   uint256 developerValue = valuation.sub(investorValue);\n\n   return (developerValue.mul(rate), investorValue.mul(rate));\n }\n\n //sender is always the beneficiary\n //sender becomes this contract in BasicToken\n //funds from msg.value are allocated to this contract since this function is a payable.\n //later, we can assign funds to the wallet (which is the developer wallet). No second wallet is needed because the contract serves as an escrow wallet.\n function handleTokenPurchase (uint256 _projectId) public payable {\n   //add require statement that makes sure the projet isnt already active\n   buyTokens(msg.sender);\n   updateProjectVotedFor(_projectId);\n }\n\n function forwardFundsToDeveloper (uint256 amount) internal {\n   wallet.transfer(amount);\n }\n\n function updateProjectVotedFor(uint256 _projectId) {\n   updateVoteCount(_projectId);\n   extendProjectClosingTime(_projectId);\n }\n\n   /* Project storage _projectVotedFor = projects[_projectId]; */\n\n  function updateVoteCount(uint256 _projectId) internal {\n    projects[_projectId].voteCount = projects[_projectId].voteCount.add(1);\n  }\n\n  function extendProjectClosingTime(uint256 _projectId) internal {\n    projects[_projectId].closingTime = projects[_projectId].closingTime.add(43200);\n  }\n\n  function _extendDoomsDay(uint256 _days) internal onlyWhileOpen {\n    doomsDay = doomsDay.add(_days.mul(1728000));\n  }\n\n  function projectToActivateDetails() public view returns (uint256, bool) {\n    uint256 leadingProjectId;\n    bool candidateFound = false;\n\n    for(uint256 i = 0; i < projects.length; i = i.add(1)) {\n\n        if (!projects[i].active &&\n            projects[i].voteCount > 0 &&\n            projects[i].closingTime > now &&\n            (projects[i].voteCount >= projects[leadingProjectId].voteCount || projects[leadingProjectId].active)\n           )\n        {\n          leadingProjectId = i;\n          candidateFound = true;\n        }\n    }\n\n    return (leadingProjectId, candidateFound && projects[leadingProjectId].capitalRequired <= weiRaised);\n  }\n\n  //we can keep track of whether or not a project is activatable on the frontend. If so, this function will be called. No need to check for this on blockchain\n    function activateProject() public {\n      (uint256 projectId, bool canActivate) = projectToActivateDetails();\n\n      if(canActivate){\n        Project storage project = projects[projectId];\n\n        GNIToken(token).activateTokens(project.developerTokens, project.investorTokens, wallet);\n\n        forwardFundsToDeveloper(project.capitalRequired);\n\n        weiRaised = weiRaised.sub(project.capitalRequired);\n\n        project.active = true;\n\n        emit LogProject(projectId, project.name, project.valuation, project.capitalRequired, project.developerTokens, project.investorTokens, project.lat, project.lng, project.voteCount, true, true);\n      }\n  }\n}\n",
  "sourcePath": "/Users/steven/genie-portal/truffle/contracts/crowdsale/GNITokenCrowdsale.sol",
  "compiler": {
    "name": "solc",
    "version": "0.4.24+commit.e67f0147.Emscripten.clang"
  },
  "schemaVersion": "2.0.1",
  "updatedAt": "2018-10-10T20:32:17.968Z"
}