{
  "contractName": "GNITokenCrowdsale",
  "abi": [
    {
      "constant": true,
      "inputs": [],
      "name": "hasClosed",
      "outputs": [
        {
          "name": "",
          "type": "bool"
        }
      ],
      "payable": false,
      "stateMutability": "view",
      "type": "function"
    },
    {
      "constant": true,
      "inputs": [],
      "name": "rate",
      "outputs": [
        {
          "name": "",
          "type": "uint256"
        }
      ],
      "payable": false,
      "stateMutability": "view",
      "type": "function"
    },
    {
      "constant": true,
      "inputs": [],
      "name": "cap",
      "outputs": [
        {
          "name": "",
          "type": "uint256"
        }
      ],
      "payable": false,
      "stateMutability": "view",
      "type": "function"
    },
    {
      "constant": true,
      "inputs": [],
      "name": "weiRaised",
      "outputs": [
        {
          "name": "",
          "type": "uint256"
        }
      ],
      "payable": false,
      "stateMutability": "view",
      "type": "function"
    },
    {
      "constant": true,
      "inputs": [],
      "name": "closingTime",
      "outputs": [
        {
          "name": "",
          "type": "uint256"
        }
      ],
      "payable": false,
      "stateMutability": "view",
      "type": "function"
    },
    {
      "constant": true,
      "inputs": [],
      "name": "capReached",
      "outputs": [
        {
          "name": "",
          "type": "bool"
        }
      ],
      "payable": false,
      "stateMutability": "view",
      "type": "function"
    },
    {
      "constant": true,
      "inputs": [],
      "name": "wallet",
      "outputs": [
        {
          "name": "",
          "type": "address"
        }
      ],
      "payable": false,
      "stateMutability": "view",
      "type": "function"
    },
    {
      "constant": true,
      "inputs": [],
      "name": "openingTime",
      "outputs": [
        {
          "name": "",
          "type": "uint256"
        }
      ],
      "payable": false,
      "stateMutability": "view",
      "type": "function"
    },
    {
      "constant": false,
      "inputs": [
        {
          "name": "_beneficiary",
          "type": "address"
        }
      ],
      "name": "buyTokens",
      "outputs": [],
      "payable": true,
      "stateMutability": "payable",
      "type": "function"
    },
    {
      "constant": true,
      "inputs": [],
      "name": "token",
      "outputs": [
        {
          "name": "",
          "type": "address"
        }
      ],
      "payable": false,
      "stateMutability": "view",
      "type": "function"
    },
    {
      "inputs": [
        {
          "name": "_openingTime",
          "type": "uint256"
        },
        {
          "name": "_closingTime",
          "type": "uint256"
        },
        {
          "name": "_rate",
          "type": "uint256"
        },
        {
          "name": "_wallet",
          "type": "address"
        },
        {
          "name": "_cap",
          "type": "uint256"
        },
        {
          "name": "_token",
          "type": "address"
        }
      ],
      "payable": false,
      "stateMutability": "nonpayable",
      "type": "constructor"
    },
    {
      "payable": true,
      "stateMutability": "payable",
      "type": "fallback"
    },
    {
      "anonymous": false,
      "inputs": [
        {
          "indexed": true,
          "name": "purchaser",
          "type": "address"
        },
        {
          "indexed": true,
          "name": "beneficiary",
          "type": "address"
        },
        {
          "indexed": false,
          "name": "value",
          "type": "uint256"
        },
        {
          "indexed": false,
          "name": "amount",
          "type": "uint256"
        }
      ],
      "name": "TokenPurchase",
      "type": "event"
    },
    {
      "constant": false,
      "inputs": [
        {
          "name": "_projectValue",
          "type": "uint256"
        }
      ],
      "name": "pitchProjectandRaiseCap",
      "outputs": [],
      "payable": false,
      "stateMutability": "nonpayable",
      "type": "function"
    }
  ],
  "bytecode": "0x608060405234801561001057600080fd5b5060405160c080610b5e83398101806040528101908080519060200190929190805190602001909291908051906020019092919080519060200190929190805190602001909291908051906020019092919050505081868686868560008311151561007a57600080fd5b600073ffffffffffffffffffffffffffffffffffffffff168273ffffffffffffffffffffffffffffffffffffffff16141515156100b657600080fd5b600073ffffffffffffffffffffffffffffffffffffffff168173ffffffffffffffffffffffffffffffffffffffff16141515156100f257600080fd5b8260028190555081600160006101000a81548173ffffffffffffffffffffffffffffffffffffffff021916908373ffffffffffffffffffffffffffffffffffffffff160217905550806000806101000a81548173ffffffffffffffffffffffffffffffffffffffff021916908373ffffffffffffffffffffffffffffffffffffffff16021790555050505042821015151561018c57600080fd5b81811015151561019b57600080fd5b81600481905550806005819055505050806006819055505030600160006101000a81548173ffffffffffffffffffffffffffffffffffffffff021916908373ffffffffffffffffffffffffffffffffffffffff160217905550505050505050610955806102096000396000f3006080604052600436106100af576000357c0100000000000000000000000000000000000000000000000000000000900463ffffffff1680631515bc2b146100ba5780632c4e722e146100e9578063355274ea146101145780634042b66f1461013f5780634b6753bc1461016a5780634f93594514610195578063521eb273146101c4578063629dcf111461021b578063b7a8807c14610248578063ec8ac4d814610273578063fc0c546a146102a9575b6100b833610300565b005b3480156100c657600080fd5b506100cf6103ce565b604051808215151515815260200191505060405180910390f35b3480156100f557600080fd5b506100fe6103da565b6040518082815260200191505060405180910390f35b34801561012057600080fd5b506101296103e0565b6040518082815260200191505060405180910390f35b34801561014b57600080fd5b506101546103e6565b6040518082815260200191505060405180910390f35b34801561017657600080fd5b5061017f6103ec565b6040518082815260200191505060405180910390f35b3480156101a157600080fd5b506101aa6103f2565b604051808215151515815260200191505060405180910390f35b3480156101d057600080fd5b506101d9610401565b604051808273ffffffffffffffffffffffffffffffffffffffff1673ffffffffffffffffffffffffffffffffffffffff16815260200191505060405180910390f35b34801561022757600080fd5b5061024660048036038101908080359060200190929190505050610427565b005b34801561025457600080fd5b5061025d61064d565b6040518082815260200191505060405180910390f35b6102a7600480360381019080803573ffffffffffffffffffffffffffffffffffffffff169060200190929190505050610300565b005b3480156102b557600080fd5b506102be610653565b604051808273ffffffffffffffffffffffffffffffffffffffff1673ffffffffffffffffffffffffffffffffffffffff16815260200191505060405180910390f35b6000803491506103108383610678565b610319826106ab565b9050610330826003546106c990919063ffffffff16565b60038190555061034083826106e5565b8273ffffffffffffffffffffffffffffffffffffffff163373ffffffffffffffffffffffffffffffffffffffff167f623b3804fa71d67900d064613da8f94b9617215ee90799290593e1745087ad188484604051808381526020018281526020019250505060405180910390a36103b783836106f3565b6103bf6106f7565b6103c98383610762565b505050565b60006005544211905090565b60025481565b60065481565b60035481565b60055481565b60006006546003541015905090565b600160009054906101000a900473ffffffffffffffffffffffffffffffffffffffff1681565b60008060006103e892506000809054906101000a900473ffffffffffffffffffffffffffffffffffffffff1673ffffffffffffffffffffffffffffffffffffffff166340c10f19600160009054906101000a900473ffffffffffffffffffffffffffffffffffffffff16856040518363ffffffff167c0100000000000000000000000000000000000000000000000000000000028152600401808373ffffffffffffffffffffffffffffffffffffffff1673ffffffffffffffffffffffffffffffffffffffff16815260200182815260200192505050602060405180830381600087803b15801561051757600080fd5b505af115801561052b573d6000803e3d6000fd5b505050506040513d602081101561054157600080fd5b8101908080519060200190929190505050506000809054906101000a900473ffffffffffffffffffffffffffffffffffffffff1673ffffffffffffffffffffffffffffffffffffffff166318160ddd6040518163ffffffff167c0100000000000000000000000000000000000000000000000000000000028152600401602060405180830381600087803b1580156105d857600080fd5b505af11580156105ec573d6000803e3d6000fd5b505050506040513d602081101561060257600080fd5b8101908080519060200190929190505050915061062a846006546106c990919063ffffffff16565b6006819055508160065481151561063d57fe5b0490508060028190555050505050565b60045481565b6000809054906101000a900473ffffffffffffffffffffffffffffffffffffffff1681565b6106828282610766565b60065461069a826003546106c990919063ffffffff16565b111515156106a757600080fd5b5050565b60006106c26002548361079390919063ffffffff16565b9050919050565b600081830190508281101515156106dc57fe5b80905092915050565b6106ef82826107cb565b5050565b5050565b600160009054906101000a900473ffffffffffffffffffffffffffffffffffffffff1673ffffffffffffffffffffffffffffffffffffffff166108fc349081150290604051600060405180830381858888f1935050505015801561075f573d6000803e3d6000fd5b50565b5050565b600454421015801561077a57506005544211155b151561078557600080fd5b61078f82826108d9565b5050565b6000808314156107a657600090506107c5565b81830290508183828115156107b757fe5b041415156107c157fe5b8090505b92915050565b6000809054906101000a900473ffffffffffffffffffffffffffffffffffffffff1673ffffffffffffffffffffffffffffffffffffffff166340c10f1983836040518363ffffffff167c0100000000000000000000000000000000000000000000000000000000028152600401808373ffffffffffffffffffffffffffffffffffffffff1673ffffffffffffffffffffffffffffffffffffffff16815260200182815260200192505050602060405180830381600087803b15801561088f57600080fd5b505af11580156108a3573d6000803e3d6000fd5b505050506040513d60208110156108b957600080fd5b810190808051906020019092919050505015156108d557600080fd5b5050565b600073ffffffffffffffffffffffffffffffffffffffff168273ffffffffffffffffffffffffffffffffffffffff161415151561091557600080fd5b6000811415151561092557600080fd5b50505600a165627a7a72305820891a1af13a246fc7f1ed6c3a35c2fcc5b79f711ca140979f66e8825475f2420d0029",
  "source": "pragma solidity 0.4.24;\n\nimport '../token/GNIToken.sol';\nimport './MintedCrowdsale.sol';\nimport './TimedCrowdsale.sol';\nimport './CappedCrowdsale.sol';\nimport '../utility/SafeMath.sol';\n\ncontract GNITokenCrowdsale is TimedCrowdsale, CappedCrowdsale,  MintedCrowdsale {\n    using SafeMath for uint256;\n\n    constructor\n        (\n          uint256 _openingTime,\n          uint256 _closingTime,\n          uint256 _rate,\n          address _wallet,\n          uint256 _cap,\n          MintableToken _token\n        )\n        public\n        Crowdsale(_rate, _wallet, _token)\n        CappedCrowdsale(_cap)\n        TimedCrowdsale(_openingTime, _closingTime) {\n            // rewriting wallet to this will not work in contructor\n            wallet = this;\n        }\n\n\n\n        /**\n         * @dev pitching a project to raise cap\n         * @param _projectValue - value of total project\n         */\n         // TODO make ownable\n         // TODO\n        function pitchProjectandRaiseCap(uint256 _projectValue) public {\n          uint newTokensIssued = 1000;\n          GNIToken(token).mint(wallet, newTokensIssued); // change logic to only issue if cap is reached\n          uint updatedTotalSupply = GNIToken(token).totalSupply();\n          cap = cap.add(_projectValue);\n          uint newRate = cap/updatedTotalSupply;\n          rate = newRate;\n        }\n}\n",
  "sourcePath": "/Users/matthewsteele/Desktop/ProjectFolder/genie-portal/truffle/contracts/crowdsale/GNITokenCrowdsale.sol",
  "compiler": {
    "name": "solc",
    "version": "0.4.24+commit.e67f0147.Emscripten.clang"
  },
  "schemaVersion": "2.0.1",
  "updatedAt": "2018-09-22T18:58:58.903Z"
}