{
  "contractName": "GNITokenCrowdsale",
  "abi": [
    {
      "constant": true,
      "inputs": [],
      "name": "tentativeLeaderAddr",
      "outputs": [
        {
          "name": "",
          "type": "address"
        }
      ],
      "payable": false,
      "stateMutability": "view",
      "type": "function"
    },
    {
      "constant": true,
      "inputs": [],
      "name": "hasClosed",
      "outputs": [
        {
          "name": "",
          "type": "bool"
        }
      ],
      "payable": false,
      "stateMutability": "view",
      "type": "function"
    },
    {
      "constant": true,
      "inputs": [],
      "name": "totalValuation",
      "outputs": [
        {
          "name": "",
          "type": "uint256"
        }
      ],
      "payable": false,
      "stateMutability": "view",
      "type": "function"
    },
    {
      "constant": true,
      "inputs": [
        {
          "name": "",
          "type": "uint256"
        }
      ],
      "name": "projectAddrs",
      "outputs": [
        {
          "name": "",
          "type": "address"
        }
      ],
      "payable": false,
      "stateMutability": "view",
      "type": "function"
    },
    {
      "constant": true,
      "inputs": [],
      "name": "tentativeLeaderConfirmed",
      "outputs": [
        {
          "name": "",
          "type": "bool"
        }
      ],
      "payable": false,
      "stateMutability": "view",
      "type": "function"
    },
    {
      "constant": true,
      "inputs": [],
      "name": "inactiveProjectCount",
      "outputs": [
        {
          "name": "",
          "type": "uint256"
        }
      ],
      "payable": false,
      "stateMutability": "view",
      "type": "function"
    },
    {
      "constant": true,
      "inputs": [],
      "name": "investorList",
      "outputs": [
        {
          "name": "",
          "type": "address"
        }
      ],
      "payable": false,
      "stateMutability": "view",
      "type": "function"
    },
    {
      "constant": true,
      "inputs": [],
      "name": "tentativeLeaderCapRequired",
      "outputs": [
        {
          "name": "",
          "type": "uint256"
        }
      ],
      "payable": false,
      "stateMutability": "view",
      "type": "function"
    },
    {
      "constant": true,
      "inputs": [],
      "name": "dividendWallet",
      "outputs": [
        {
          "name": "",
          "type": "address"
        }
      ],
      "payable": false,
      "stateMutability": "view",
      "type": "function"
    },
    {
      "constant": true,
      "inputs": [],
      "name": "openingTime",
      "outputs": [
        {
          "name": "",
          "type": "uint256"
        }
      ],
      "payable": false,
      "stateMutability": "view",
      "type": "function"
    },
    {
      "constant": true,
      "inputs": [],
      "name": "reimbursements",
      "outputs": [
        {
          "name": "",
          "type": "address"
        }
      ],
      "payable": false,
      "stateMutability": "view",
      "type": "function"
    },
    {
      "constant": true,
      "inputs": [],
      "name": "doomsDay",
      "outputs": [
        {
          "name": "",
          "type": "uint256"
        }
      ],
      "payable": false,
      "stateMutability": "view",
      "type": "function"
    },
    {
      "constant": false,
      "inputs": [],
      "name": "weiRaised_",
      "outputs": [
        {
          "name": "",
          "type": "uint256"
        }
      ],
      "payable": false,
      "stateMutability": "nonpayable",
      "type": "function"
    },
    {
      "constant": false,
      "inputs": [
        {
          "name": "_beneficiary",
          "type": "address"
        }
      ],
      "name": "buyTokens",
      "outputs": [
        {
          "name": "",
          "type": "uint256"
        }
      ],
      "payable": true,
      "stateMutability": "payable",
      "type": "function"
    },
    {
      "constant": true,
      "inputs": [],
      "name": "token",
      "outputs": [
        {
          "name": "",
          "type": "address"
        }
      ],
      "payable": false,
      "stateMutability": "view",
      "type": "function"
    },
    {
      "inputs": [
        {
          "name": "_openingTime",
          "type": "uint256"
        },
        {
          "name": "_doomsDay",
          "type": "uint256"
        },
        {
          "name": "_rate",
          "type": "uint256"
        },
        {
          "name": "_developer",
          "type": "address"
        },
        {
          "name": "_dividendWallet",
          "type": "address"
        },
        {
          "name": "_token",
          "type": "address"
        },
        {
          "name": "_investorList",
          "type": "address"
        },
        {
          "name": "_reimbursements",
          "type": "address"
        }
      ],
      "payable": false,
      "stateMutability": "nonpayable",
      "type": "constructor"
    },
    {
      "payable": true,
      "stateMutability": "payable",
      "type": "fallback"
    },
    {
      "anonymous": false,
      "inputs": [
        {
          "indexed": true,
          "name": "purchaser",
          "type": "address"
        },
        {
          "indexed": true,
          "name": "beneficiary",
          "type": "address"
        },
        {
          "indexed": false,
          "name": "value",
          "type": "uint256"
        },
        {
          "indexed": false,
          "name": "amount",
          "type": "uint256"
        }
      ],
      "name": "TokenPurchase",
      "type": "event"
    },
    {
      "constant": false,
      "inputs": [
        {
          "name": "_name",
          "type": "string"
        },
        {
          "name": "capitalRequired",
          "type": "uint256"
        },
        {
          "name": "_valuation",
          "type": "uint256"
        },
        {
          "name": "_lat",
          "type": "string"
        },
        {
          "name": "_lng",
          "type": "string"
        }
      ],
      "name": "pitchProject",
      "outputs": [],
      "payable": false,
      "stateMutability": "nonpayable",
      "type": "function"
    },
    {
      "constant": false,
      "inputs": [
        {
          "name": "_projectVotedForId",
          "type": "uint256"
        }
      ],
      "name": "buyTokensAndVote",
      "outputs": [],
      "payable": true,
      "stateMutability": "payable",
      "type": "function"
    },
    {
      "constant": false,
      "inputs": [
        {
          "name": "_projectId",
          "type": "uint256"
        }
      ],
      "name": "considerTentativeLeaderShip",
      "outputs": [],
      "payable": false,
      "stateMutability": "nonpayable",
      "type": "function"
    },
    {
      "constant": false,
      "inputs": [],
      "name": "attemptProjectActivation",
      "outputs": [],
      "payable": false,
      "stateMutability": "nonpayable",
      "type": "function"
    },
    {
      "constant": false,
      "inputs": [],
      "name": "reimburseFunds",
      "outputs": [],
      "payable": false,
      "stateMutability": "nonpayable",
      "type": "function"
    },
    {
      "constant": false,
      "inputs": [
        {
          "name": "fromProjectId",
          "type": "uint256"
        },
        {
          "name": "toProjectId",
          "type": "uint256"
        },
        {
          "name": "votes",
          "type": "uint256"
        }
      ],
      "name": "transferVotes",
      "outputs": [],
      "payable": false,
      "stateMutability": "nonpayable",
      "type": "function"
    },
    {
      "constant": false,
      "inputs": [
        {
          "name": "fromProjectId",
          "type": "uint256"
        },
        {
          "name": "votes",
          "type": "uint256"
        }
      ],
      "name": "addVoteCredit",
      "outputs": [],
      "payable": false,
      "stateMutability": "nonpayable",
      "type": "function"
    },
    {
      "constant": false,
      "inputs": [
        {
          "name": "account",
          "type": "address"
        },
        {
          "name": "fromProjectId",
          "type": "uint256"
        }
      ],
      "name": "addVoteCreditTo",
      "outputs": [],
      "payable": false,
      "stateMutability": "nonpayable",
      "type": "function"
    },
    {
      "constant": false,
      "inputs": [
        {
          "name": "toProjectId",
          "type": "uint256"
        },
        {
          "name": "votes",
          "type": "uint256"
        }
      ],
      "name": "voteWithCredit",
      "outputs": [],
      "payable": false,
      "stateMutability": "nonpayable",
      "type": "function"
    }
  ],
  "bytecode": "0x60806040523480156200001157600080fd5b506040516101008062003f78833981018060405281019080805190602001909291908051906020019092919080519060200190929190805190602001909291908051906020019092919080519060200190929190805190602001909291908051906020019092919050505087878787866000831115156200009157600080fd5b600073ffffffffffffffffffffffffffffffffffffffff168273ffffffffffffffffffffffffffffffffffffffff1614151515620000ce57600080fd5b8260028190555081600160006101000a81548173ffffffffffffffffffffffffffffffffffffffff021916908373ffffffffffffffffffffffffffffffffffffffff160217905550806000806101000a81548173ffffffffffffffffffffffffffffffffffffffff021916908373ffffffffffffffffffffffffffffffffffffffff1602179055505050504282101515156200016957600080fd5b8181101515156200017957600080fd5b8160048190555080600581905550505081600760006101000a81548173ffffffffffffffffffffffffffffffffffffffff021916908373ffffffffffffffffffffffffffffffffffffffff160217905550600060068190555083600860006101000a81548173ffffffffffffffffffffffffffffffffffffffff021916908373ffffffffffffffffffffffffffffffffffffffff16021790555080600960006101000a81548173ffffffffffffffffffffffffffffffffffffffff021916908373ffffffffffffffffffffffffffffffffffffffff1602179055505050505050505050613d0c806200026c6000396000f30060806040526004361062000157576000357c0100000000000000000000000000000000000000000000000000000000900463ffffffff16806303a46aa914620001595780631515bc2b14620001b3578063295b930014620001e55780632c77b93d1462000213578063340945cf14620002575780633db9a54814620002915780633fff906414620002e15780634e4c08ca146200031b57806350b7342f146200038b57806356bf9efb14620003a5578063589679c714620003d757806365af167214620003f95780636bd42fb11462000505578063708a514c1462000535578063a1f8adac1462000563578063a27b59e714620005bd578063b0e0116414620005eb578063b7a8807c1462000645578063bfa4893f1462000673578063c19b7bc014620006cd578063e31bc61414620006fb578063ec8ac4d81462000729578063f89b4b1f1462000775578063fc0c546a146200078f575b005b3480156200016657600080fd5b5062000171620007e9565b604051808273ffffffffffffffffffffffffffffffffffffffff1673ffffffffffffffffffffffffffffffffffffffff16815260200191505060405180910390f35b348015620001c057600080fd5b50620001cb6200080f565b604051808215151515815260200191505060405180910390f35b348015620001f257600080fd5b50620001fd6200081b565b6040518082815260200191505060405180910390f35b3480156200022057600080fd5b506200025560048036038101908080359060200190929190803590602001909291908035906020019092919050505062000821565b005b3480156200026457600080fd5b506200028f600480360381019080803590602001909291908035906020019092919050505062000a1f565b005b3480156200029e57600080fd5b50620002df600480360381019080803573ffffffffffffffffffffffffffffffffffffffff1690602001909291908035906020019092919050505062000bff565b005b348015620002ee57600080fd5b5062000319600480360381019080803590602001909291908035906020019092919050505062000e86565b005b3480156200032857600080fd5b50620003496004803603810190808035906020019092919050505062000e97565b604051808273ffffffffffffffffffffffffffffffffffffffff1673ffffffffffffffffffffffffffffffffffffffff16815260200191505060405180910390f35b3480156200039857600080fd5b50620003a362000ed6565b005b348015620003b257600080fd5b50620003bd62000f5a565b604051808215151515815260200191505060405180910390f35b620003f76004803603810190808035906020019092919050505062000f6d565b005b3480156200040657600080fd5b5062000503600480360381019080803590602001908201803590602001908080601f01602080910402602001604051908101604052809392919081815260200183838082843782019150505050505091929192908035906020019092919080359060200190929190803590602001908201803590602001908080601f0160208091040260200160405190810160405280939291908181526020018383808284378201915050505050509192919290803590602001908201803590602001908080601f016020809104026020016040519081016040528093929190818152602001838380828437820191505050505050919291929050505062001265565b005b3480156200051257600080fd5b5062000533600480360381019080803590602001909291905050506200182f565b005b3480156200054257600080fd5b506200054d62001cb6565b6040518082815260200191505060405180910390f35b3480156200057057600080fd5b506200057b62001cbc565b604051808273ffffffffffffffffffffffffffffffffffffffff1673ffffffffffffffffffffffffffffffffffffffff16815260200191505060405180910390f35b348015620005ca57600080fd5b50620005d562001ce2565b6040518082815260200191505060405180910390f35b348015620005f857600080fd5b506200060362001ce8565b604051808273ffffffffffffffffffffffffffffffffffffffff1673ffffffffffffffffffffffffffffffffffffffff16815260200191505060405180910390f35b3480156200065257600080fd5b506200065d62001d0e565b6040518082815260200191505060405180910390f35b3480156200068057600080fd5b506200068b62001d14565b604051808273ffffffffffffffffffffffffffffffffffffffff1673ffffffffffffffffffffffffffffffffffffffff16815260200191505060405180910390f35b348015620006da57600080fd5b50620006e562001d3a565b6040518082815260200191505060405180910390f35b3480156200070857600080fd5b506200071362001d40565b6040518082815260200191505060405180910390f35b6200075f600480360381019080803573ffffffffffffffffffffffffffffffffffffffff16906020019092919050505062001d4a565b6040518082815260200191505060405180910390f35b3480156200078257600080fd5b506200078d62001edd565b005b3480156200079c57600080fd5b50620007a762001fde565b604051808273ffffffffffffffffffffffffffffffffffffffff1673ffffffffffffffffffffffffffffffffffffffff16815260200191505060405180910390f35b600c60009054906101000a900473ffffffffffffffffffffffffffffffffffffffff1681565b60006005544211905090565b60065481565b600080600a858154811015156200083457fe5b9060005260206000200160009054906101000a900473ffffffffffffffffffffffffffffffffffffffff169150600a848154811015156200087157fe5b9060005260206000200160009054906101000a900473ffffffffffffffffffffffffffffffffffffffff1690508173ffffffffffffffffffffffffffffffffffffffff1663ce6a088033856040518363ffffffff167c0100000000000000000000000000000000000000000000000000000000028152600401808373ffffffffffffffffffffffffffffffffffffffff1673ffffffffffffffffffffffffffffffffffffffff16815260200182815260200192505050600060405180830381600087803b1580156200094257600080fd5b505af115801562000957573d6000803e3d6000fd5b505050508073ffffffffffffffffffffffffffffffffffffffff16635f74bbde33856040518363ffffffff167c0100000000000000000000000000000000000000000000000000000000028152600401808373ffffffffffffffffffffffffffffffffffffffff1673ffffffffffffffffffffffffffffffffffffffff16815260200182815260200192505050600060405180830381600087803b158015620009ff57600080fd5b505af115801562000a14573d6000803e3d6000fd5b505050505050505050565b6000600a8381548110151562000a3157fe5b9060005260206000200160009054906101000a900473ffffffffffffffffffffffffffffffffffffffff169050600760009054906101000a900473ffffffffffffffffffffffffffffffffffffffff1673ffffffffffffffffffffffffffffffffffffffff1663595f4a2533846040518363ffffffff167c0100000000000000000000000000000000000000000000000000000000028152600401808373ffffffffffffffffffffffffffffffffffffffff1673ffffffffffffffffffffffffffffffffffffffff16815260200182815260200192505050600060405180830381600087803b15801562000b2457600080fd5b505af115801562000b39573d6000803e3d6000fd5b505050508073ffffffffffffffffffffffffffffffffffffffff16635f74bbde33846040518363ffffffff167c0100000000000000000000000000000000000000000000000000000000028152600401808373ffffffffffffffffffffffffffffffffffffffff1673ffffffffffffffffffffffffffffffffffffffff16815260200182815260200192505050600060405180830381600087803b15801562000be157600080fd5b505af115801562000bf6573d6000803e3d6000fd5b50505050505050565b600080600a8381548110151562000c1257fe5b9060005260206000200160009054906101000a900473ffffffffffffffffffffffffffffffffffffffff1691508173ffffffffffffffffffffffffffffffffffffffff1663fcfff16f6040518163ffffffff167c0100000000000000000000000000000000000000000000000000000000028152600401602060405180830381600087803b15801562000ca457600080fd5b505af115801562000cb9573d6000803e3d6000fd5b505050506040513d602081101562000cd057600080fd5b8101908080519060200190929190505050158062000d8c57508173ffffffffffffffffffffffffffffffffffffffff16634d7c09dd6040518163ffffffff167c0100000000000000000000000000000000000000000000000000000000028152600401602060405180830381600087803b15801562000d4e57600080fd5b505af115801562000d63573d6000803e3d6000fd5b505050506040513d602081101562000d7a57600080fd5b81019080805190602001909291905050505b151562000d9857600080fd5b8173ffffffffffffffffffffffffffffffffffffffff166379ec5d3a856040518263ffffffff167c0100000000000000000000000000000000000000000000000000000000028152600401808273ffffffffffffffffffffffffffffffffffffffff1673ffffffffffffffffffffffffffffffffffffffff168152602001915050602060405180830381600087803b15801562000e3457600080fd5b505af115801562000e49573d6000803e3d6000fd5b505050506040513d602081101562000e6057600080fd5b8101908080519060200190929190505050905062000e8084848362002003565b50505050565b62000e9333838362002003565b5050565b600a8181548110151562000ea757fe5b906000526020600020016000915054906101000a900473ffffffffffffffffffffffffffffffffffffffff1681565b62000ee06200080f565b151562000eec57600080fd5b600960009054906101000a900473ffffffffffffffffffffffffffffffffffffffff1673ffffffffffffffffffffffffffffffffffffffff166108fc6003549081150290604051600060405180830381858888f1935050505015801562000f57573d6000803e3d6000fd5b50565b600e60009054906101000a900460ff1681565b6000806000809054906101000a900473ffffffffffffffffffffffffffffffffffffffff1673ffffffffffffffffffffffffffffffffffffffff16630d8654e8336040518263ffffffff167c0100000000000000000000000000000000000000000000000000000000028152600401808273ffffffffffffffffffffffffffffffffffffffff1673ffffffffffffffffffffffffffffffffffffffff168152602001915050602060405180830381600087803b1580156200102d57600080fd5b505af115801562001042573d6000803e3d6000fd5b505050506040513d60208110156200105957600080fd5b810190808051906020019092919050505050620010763362001d4a565b9150600760009054906101000a900473ffffffffffffffffffffffffffffffffffffffff1673ffffffffffffffffffffffffffffffffffffffff1663e641bde1336040518263ffffffff167c0100000000000000000000000000000000000000000000000000000000028152600401808273ffffffffffffffffffffffffffffffffffffffff1673ffffffffffffffffffffffffffffffffffffffff168152602001915050600060405180830381600087803b1580156200113657600080fd5b505af11580156200114b573d6000803e3d6000fd5b50505050600a838154811015156200115f57fe5b9060005260206000200160009054906101000a900473ffffffffffffffffffffffffffffffffffffffff1690508073ffffffffffffffffffffffffffffffffffffffff16635f74bbde33846040518363ffffffff167c0100000000000000000000000000000000000000000000000000000000028152600401808373ffffffffffffffffffffffffffffffffffffffff1673ffffffffffffffffffffffffffffffffffffffff16815260200182815260200192505050600060405180830381600087803b1580156200123057600080fd5b505af115801562001245573d6000803e3d6000fd5b5050505062001255605a620021e4565b620012608362002251565b505050565b60008060008062001277878962002269565b935093506000809054906101000a900473ffffffffffffffffffffffffffffffffffffffff1673ffffffffffffffffffffffffffffffffffffffff166340c10f19600160009054906101000a900473ffffffffffffffffffffffffffffffffffffffff16866040518363ffffffff167c0100000000000000000000000000000000000000000000000000000000028152600401808373ffffffffffffffffffffffffffffffffffffffff1673ffffffffffffffffffffffffffffffffffffffff16815260200182815260200192505050602060405180830381600087803b1580156200136257600080fd5b505af115801562001377573d6000803e3d6000fd5b505050506040513d60208110156200138e57600080fd5b8101908080519060200190929190505050506000809054906101000a900473ffffffffffffffffffffffffffffffffffffffff1673ffffffffffffffffffffffffffffffffffffffff166340c10f1930856040518363ffffffff167c0100000000000000000000000000000000000000000000000000000000028152600401808373ffffffffffffffffffffffffffffffffffffffff1673ffffffffffffffffffffffffffffffffffffffff16815260200182815260200192505050602060405180830381600087803b1580156200146557600080fd5b505af11580156200147a573d6000803e3d6000fd5b505050506040513d60208110156200149157600080fd5b810190808051906020019092919050505050620014ba87600654620022bf90919063ffffffff16565b600681905550620014cc605a620021e4565b600b5491508189600160009054906101000a900473ffffffffffffffffffffffffffffffffffffffff16600860009054906101000a900473ffffffffffffffffffffffffffffffffffffffff168a8c89898d8d6200152962002b30565b808b8152602001806020018a73ffffffffffffffffffffffffffffffffffffffff1673ffffffffffffffffffffffffffffffffffffffff1681526020018973ffffffffffffffffffffffffffffffffffffffff1673ffffffffffffffffffffffffffffffffffffffff168152602001888152602001878152602001868152602001858152602001806020018060200184810384528d818151815260200191508051906020019080838360005b83811015620015f2578082015181840152602081019050620015d5565b50505050905090810190601f168015620016205780820380516001836020036101000a031916815260200191505b50848103835286818151815260200191508051906020019080838360005b838110156200165b5780820151818401526020810190506200163e565b50505050905090810190601f168015620016895780820380516001836020036101000a031916815260200191505b50848103825285818151815260200191508051906020019080838360005b83811015620016c4578082015181840152602081019050620016a7565b50505050905090810190601f168015620016f25780820380516001836020036101000a031916815260200191505b509d5050505050505050505050505050604051809103906000f0801580156200171f573d6000803e3d6000fd5b509050600a8190806001815401808255809150509060018203906000526020600020016000909192909190916101000a81548173ffffffffffffffffffffffffffffffffffffffff021916908373ffffffffffffffffffffffffffffffffffffffff16021790555050620017a06001600b54620022bf90919063ffffffff16565b600b819055508073ffffffffffffffffffffffffffffffffffffffff166351973ec96040518163ffffffff167c0100000000000000000000000000000000000000000000000000000000028152600401600060405180830381600087803b1580156200180b57600080fd5b505af115801562001820573d6000803e3d6000fd5b50505050505050505050505050565b6000600a828154811015156200184157fe5b9060005260206000200160009054906101000a900473ffffffffffffffffffffffffffffffffffffffff1690508073ffffffffffffffffffffffffffffffffffffffff1663fcfff16f6040518163ffffffff167c0100000000000000000000000000000000000000000000000000000000028152600401602060405180830381600087803b158015620018d357600080fd5b505af1158015620018e8573d6000803e3d6000fd5b505050506040513d6020811015620018ff57600080fd5b81019080805190602001909291905050508015620019bc57508073ffffffffffffffffffffffffffffffffffffffff166302fb0c5e6040518163ffffffff167c0100000000000000000000000000000000000000000000000000000000028152600401602060405180830381600087803b1580156200197d57600080fd5b505af115801562001992573d6000803e3d6000fd5b505050506040513d6020811015620019a957600080fd5b8101908080519060200190929190505050155b1515620019c857600080fd5b600073ffffffffffffffffffffffffffffffffffffffff16600c60009054906101000a900473ffffffffffffffffffffffffffffffffffffffff1673ffffffffffffffffffffffffffffffffffffffff16148062001b895750600c60009054906101000a900473ffffffffffffffffffffffffffffffffffffffff1673ffffffffffffffffffffffffffffffffffffffff1663c78243cf6040518163ffffffff167c0100000000000000000000000000000000000000000000000000000000028152600401602060405180830381600087803b15801562001aa857600080fd5b505af115801562001abd573d6000803e3d6000fd5b505050506040513d602081101562001ad457600080fd5b81019080805190602001909291905050508173ffffffffffffffffffffffffffffffffffffffff1663c78243cf6040518163ffffffff167c0100000000000000000000000000000000000000000000000000000000028152600401602060405180830381600087803b15801562001b4a57600080fd5b505af115801562001b5f573d6000803e3d6000fd5b505050506040513d602081101562001b7657600080fd5b8101908080519060200190929190505050115b8062001c565750600c60009054906101000a900473ffffffffffffffffffffffffffffffffffffffff1673ffffffffffffffffffffffffffffffffffffffff1663fcfff16f6040518163ffffffff167c0100000000000000000000000000000000000000000000000000000000028152600401602060405180830381600087803b15801562001c1757600080fd5b505af115801562001c2c573d6000803e3d6000fd5b505050506040513d602081101562001c4357600080fd5b8101908080519060200190929190505050155b1562001c685762001c6781620022dc565b5b62001c73816200241c565b600b5460106000600f54815260200190815260200160002060010154141562001cb2576001600e60006101000a81548160ff0219169083151502179055505b5050565b600b5481565b600760009054906101000a900473ffffffffffffffffffffffffffffffffffffffff1681565b600d5481565b600860009054906101000a900473ffffffffffffffffffffffffffffffffffffffff1681565b60045481565b600960009054906101000a900473ffffffffffffffffffffffffffffffffffffffff1681565b60055481565b6000600354905090565b600080600034915062001d5e848362002548565b62001d69826200258e565b905062001d8282600354620022bf90919063ffffffff16565b6003819055506000809054906101000a900473ffffffffffffffffffffffffffffffffffffffff1673ffffffffffffffffffffffffffffffffffffffff166309b38a5d85836040518363ffffffff167c0100000000000000000000000000000000000000000000000000000000028152600401808373ffffffffffffffffffffffffffffffffffffffff1673ffffffffffffffffffffffffffffffffffffffff16815260200182815260200192505050600060405180830381600087803b15801562001e4d57600080fd5b505af115801562001e62573d6000803e3d6000fd5b505050508373ffffffffffffffffffffffffffffffffffffffff163373ffffffffffffffffffffffffffffffffffffffff167f623b3804fa71d67900d064613da8f94b9617215ee90799290593e1745087ad188484604051808381526020018281526020019250505060405180910390a38092505050919050565b600354600d541115801562001efe5750600e60009054906101000a900460ff165b801562001fcb5750600c60009054906101000a900473ffffffffffffffffffffffffffffffffffffffff1673ffffffffffffffffffffffffffffffffffffffff1663fcfff16f6040518163ffffffff167c0100000000000000000000000000000000000000000000000000000000028152600401602060405180830381600087803b15801562001f8d57600080fd5b505af115801562001fa2573d6000803e3d6000fd5b505050506040513d602081101562001fb957600080fd5b81019080805190602001909291905050505b1562001fdc5762001fdb620025ae565b5b565b6000809054906101000a900473ffffffffffffffffffffffffffffffffffffffff1681565b6000600a838154811015156200201557fe5b9060005260206000200160009054906101000a900473ffffffffffffffffffffffffffffffffffffffff1690508073ffffffffffffffffffffffffffffffffffffffff1663ce6a088085846040518363ffffffff167c0100000000000000000000000000000000000000000000000000000000028152600401808373ffffffffffffffffffffffffffffffffffffffff1673ffffffffffffffffffffffffffffffffffffffff16815260200182815260200192505050600060405180830381600087803b158015620020e657600080fd5b505af1158015620020fb573d6000803e3d6000fd5b50505050600760009054906101000a900473ffffffffffffffffffffffffffffffffffffffff1673ffffffffffffffffffffffffffffffffffffffff1663ad8f256f85846040518363ffffffff167c0100000000000000000000000000000000000000000000000000000000028152600401808373ffffffffffffffffffffffffffffffffffffffff1673ffffffffffffffffffffffffffffffffffffffff16815260200182815260200192505050600060405180830381600087803b158015620021c557600080fd5b505af1158015620021da573d6000803e3d6000fd5b5050505050505050565b60008060004292506004549150600554905060045442101580156200220b57506005544211155b15156200221757600080fd5b6200224562002233621a5e0086620028c390919063ffffffff16565b600554620022bf90919063ffffffff16565b60058190555050505050565b6200225c816200182f565b6200226662001edd565b50565b6000806000620022838486620028ff90919063ffffffff16565b90506200229c60025482620028c390919063ffffffff16565b620022b360025486620028c390919063ffffffff16565b92509250509250929050565b60008183019050828110151515620022d357fe5b80905092915050565b600073ffffffffffffffffffffffffffffffffffffffff16600c60009054906101000a900473ffffffffffffffffffffffffffffffffffffffff1673ffffffffffffffffffffffffffffffffffffffff1614158015620023fd5750600c60009054906101000a900473ffffffffffffffffffffffffffffffffffffffff1673ffffffffffffffffffffffffffffffffffffffff1663fcfff16f6040518163ffffffff167c0100000000000000000000000000000000000000000000000000000000028152600401602060405180830381600087803b158015620023be57600080fd5b505af1158015620023d3573d6000803e3d6000fd5b505050506040513d6020811015620023ea57600080fd5b8101908080519060200190929190505050155b156200240e576200240d62002919565b5b620024198162002985565b50565b600060106000600f54815260200190815260200160002060000160008373ffffffffffffffffffffffffffffffffffffffff1673ffffffffffffffffffffffffffffffffffffffff16815260200190815260200160002060009054906101000a900460ff1690508015156200254457620024b9600160106000600f54815260200190815260200160002060010154620022bf90919063ffffffff16565b60106000600f54815260200190815260200160002060010181905550600160106000600f54815260200190815260200160002060000160008473ffffffffffffffffffffffffffffffffffffffff1673ffffffffffffffffffffffffffffffffffffffff16815260200190815260200160002060006101000a81548160ff0219169083151502179055505b5050565b60008060004292506004549150600554905060045442101580156200256f57506005544211155b15156200257b57600080fd5b62002587858562002a92565b5050505050565b6000620025a760025483620028c390919063ffffffff16565b9050919050565b6000600c60009054906101000a900473ffffffffffffffffffffffffffffffffffffffff1690508073ffffffffffffffffffffffffffffffffffffffff16630f15f4c06040518163ffffffff167c0100000000000000000000000000000000000000000000000000000000028152600401600060405180830381600087803b1580156200263a57600080fd5b505af11580156200264f573d6000803e3d6000fd5b5050505062002683600160009054906101000a900473ffffffffffffffffffffffffffffffffffffffff16600d5462002ae4565b6200269c600d54600354620028ff90919063ffffffff16565b600381905550620026ba6001600b54620028ff90919063ffffffff16565b600b819055506000809054906101000a900473ffffffffffffffffffffffffffffffffffffffff1673ffffffffffffffffffffffffffffffffffffffff166375a91587620028548373ffffffffffffffffffffffffffffffffffffffff1663d705f3876040518163ffffffff167c0100000000000000000000000000000000000000000000000000000000028152600401602060405180830381600087803b1580156200276657600080fd5b505af11580156200277b573d6000803e3d6000fd5b505050506040513d60208110156200279257600080fd5b81019080805190602001909291905050508473ffffffffffffffffffffffffffffffffffffffff1663929aebdf6040518163ffffffff167c0100000000000000000000000000000000000000000000000000000000028152600401602060405180830381600087803b1580156200280857600080fd5b505af11580156200281d573d6000803e3d6000fd5b505050506040513d60208110156200283457600080fd5b8101908080519060200190929190505050620022bf90919063ffffffff16565b6040518263ffffffff167c010000000000000000000000000000000000000000000000000000000002815260040180828152602001915050600060405180830381600087803b158015620028a757600080fd5b505af1158015620028bc573d6000803e3d6000fd5b5050505050565b600080831415620028d85760009050620028f9565b8183029050818382811515620028ea57fe5b04141515620028f557fe5b8090505b92915050565b60008282111515156200290e57fe5b818303905092915050565b6200292362002b41565b6200293b6001600f54620022bf90919063ffffffff16565b600f819055508060106000600f548152602001908152602001600020600082015181600101559050506200297c6001600b54620028ff90919063ffffffff16565b600b8190555050565b600081905081600c60006101000a81548173ffffffffffffffffffffffffffffffffffffffff021916908373ffffffffffffffffffffffffffffffffffffffff1602179055508073ffffffffffffffffffffffffffffffffffffffff1663d4cf7db66040518163ffffffff167c0100000000000000000000000000000000000000000000000000000000028152600401602060405180830381600087803b15801562002a3057600080fd5b505af115801562002a45573d6000803e3d6000fd5b505050506040513d602081101562002a5c57600080fd5b8101908080519060200190929190505050600d819055506000600e60006101000a81548160ff0219169083151502179055505050565b600073ffffffffffffffffffffffffffffffffffffffff168273ffffffffffffffffffffffffffffffffffffffff161415151562002acf57600080fd5b6000811415151562002ae057600080fd5b5050565b8173ffffffffffffffffffffffffffffffffffffffff166108fc829081150290604051600060405180830381858888f1935050505015801562002b2b573d6000803e3d6000fd5b505050565b60405161118b8062002b5683390190565b602060405190810160405280600081525090560060806040523480156200001157600080fd5b506040516200118b3803806200118b83398101806040528101908080519060200190929190805182019291906020018051906020019092919080519060200190929190805190602001909291908051906020019092919080519060200190929190805190602001909291908051820192919060200180518201929190505050896000819055508860019080519060200190620000af929190620001c0565b5087600260006101000a81548173ffffffffffffffffffffffffffffffffffffffff021916908373ffffffffffffffffffffffffffffffffffffffff16021790555086600360006101000a81548173ffffffffffffffffffffffffffffffffffffffff021916908373ffffffffffffffffffffffffffffffffffffffff16021790555085600581905550846006819055508360078190555082600881905550816009908051906020019062000166929190620001c0565b5080600a90805190602001906200017f929190620001c0565b506000600b819055506000600c60006101000a81548160ff02191690831515021790555063013d23804201600481905550505050505050505050506200026f565b828054600181600116156101000203166002900490600052602060002090601f016020900481019282601f106200020357805160ff191683800117855562000234565b8280016001018555821562000234579182015b828111156200023357825182559160200191906001019062000216565b5b50905062000243919062000247565b5090565b6200026c91905b80821115620002685760008160009055506001016200024e565b5090565b90565b610f0c806200027f6000396000f300608060405260043610610112576000357c0100000000000000000000000000000000000000000000000000000000900463ffffffff16806302fb0c5e146101175780630f15f4c014610146578063272666e31461015d5780632d06177a146101885780634d7c09dd146101cb57806351973ec9146101fa57806355d576cc146102115780635b184f88146102a15780635f74bbde146102e45780636f21983114610331578063705c5be51461035c57806379ec5d3a146103b7578063929aebdf1461040e578063b0e0116414610439578063c78243cf14610490578063ce6a0880146104bb578063d0e30db014610508578063d4cf7db614610512578063d705f3871461053d578063fcfff16f14610568575b600080fd5b34801561012357600080fd5b5061012c610597565b604051808215151515815260200191505060405180910390f35b34801561015257600080fd5b5061015b6105aa565b005b34801561016957600080fd5b506101726105cf565b6040518082815260200191505060405180910390f35b34801561019457600080fd5b506101c9600480360381019080803573ffffffffffffffffffffffffffffffffffffffff1690602001909291905050506105d9565b005b3480156101d757600080fd5b506101e06106eb565b604051808215151515815260200191505060405180910390f35b34801561020657600080fd5b5061020f610702565b005b34801561021d57600080fd5b5061022661092b565b6040518080602001828103825283818151815260200191508051906020019080838360005b8381101561026657808201518184015260208101905061024b565b50505050905090810190601f1680156102935780820380516001836020036101000a031916815260200191505b509250505060405180910390f35b3480156102ad57600080fd5b506102e2600480360381019080803573ffffffffffffffffffffffffffffffffffffffff1690602001909291905050506109c9565b005b3480156102f057600080fd5b5061032f600480360381019080803573ffffffffffffffffffffffffffffffffffffffff16906020019092919080359060200190929190505050610ac4565b005b34801561033d57600080fd5b50610346610b95565b6040518082815260200191505060405180910390f35b34801561036857600080fd5b5061039d600480360381019080803573ffffffffffffffffffffffffffffffffffffffff169060200190929190505050610b9e565b604051808215151515815260200191505060405180910390f35b3480156103c357600080fd5b506103f8600480360381019080803573ffffffffffffffffffffffffffffffffffffffff169060200190929190505050610c58565b6040518082815260200191505060405180910390f35b34801561041a57600080fd5b50610423610ca1565b6040518082815260200191505060405180910390f35b34801561044557600080fd5b5061044e610cab565b604051808273ffffffffffffffffffffffffffffffffffffffff1673ffffffffffffffffffffffffffffffffffffffff16815260200191505060405180910390f35b34801561049c57600080fd5b506104a5610cd1565b6040518082815260200191505060405180910390f35b3480156104c757600080fd5b50610506600480360381019080803573ffffffffffffffffffffffffffffffffffffffff16906020019092919080359060200190929190505050610cdb565b005b610510610e0b565b005b34801561051e57600080fd5b50610527610e8b565b6040518082815260200191505060405180910390f35b34801561054957600080fd5b50610552610e95565b6040518082815260200191505060405180910390f35b34801561057457600080fd5b5061057d610e9f565b604051808215151515815260200191505060405180910390f35b600c60009054906101000a900460ff1681565b6001600c60006101000a81548160ff0219169083151502179055506105cd610702565b565b6000600454905090565b60011515600e60003373ffffffffffffffffffffffffffffffffffffffff1673ffffffffffffffffffffffffffffffffffffffff16815260200190815260200160002060009054906101000a900460ff16151514806106855750600260009054906101000a900473ffffffffffffffffffffffffffffffffffffffff1673ffffffffffffffffffffffffffffffffffffffff163373ffffffffffffffffffffffffffffffffffffffff16145b151561069057600080fd5b6001600e60008373ffffffffffffffffffffffffffffffffffffffff1673ffffffffffffffffffffffffffffffffffffffff16815260200190815260200160002060006101000a81548160ff02191690831515021790555050565b6000600c60009054906101000a900460ff16905090565b7f2870b0d0558b1786ef247a7bb0787eaae7392b072f7ca327b464981f23fb0e9260005460016005546006546007546008546009600a600b54600c60009054906101000a900460ff16604051808b8152602001806020018a815260200189815260200188815260200187815260200180602001806020018681526020018515151515815260200184810384528d81815460018160011615610100020316600290048152602001915080546001816001161561010002031660029004801561080a5780601f106107df5761010080835404028352916020019161080a565b820191906000526020600020905b8154815290600101906020018083116107ed57829003601f168201915b505084810383528881815460018160011615610100020316600290048152602001915080546001816001161561010002031660029004801561088d5780601f106108625761010080835404028352916020019161088d565b820191906000526020600020905b81548152906001019060200180831161087057829003601f168201915b50508481038252878181546001816001161561010002031660029004815260200191508054600181600116156101000203166002900480156109105780601f106108e557610100808354040283529160200191610910565b820191906000526020600020905b8154815290600101906020018083116108f357829003601f168201915b50509d505050505050505050505050505060405180910390a1565b60098054600181600116156101000203166002900480601f0160208091040260200160405190810160405280929190818152602001828054600181600116156101000203166002900480156109c15780601f10610996576101008083540402835291602001916109c1565b820191906000526020600020905b8154815290600101906020018083116109a457829003601f168201915b505050505081565b60011515600e60003373ffffffffffffffffffffffffffffffffffffffff1673ffffffffffffffffffffffffffffffffffffffff16815260200190815260200160002060009054906101000a900460ff1615151480610a755750600260009054906101000a900473ffffffffffffffffffffffffffffffffffffffff1673ffffffffffffffffffffffffffffffffffffffff163373ffffffffffffffffffffffffffffffffffffffff16145b1515610a8057600080fd5b80600360006101000a81548173ffffffffffffffffffffffffffffffffffffffff021916908373ffffffffffffffffffffffffffffffffffffffff16021790555050565b610b1681600d60008573ffffffffffffffffffffffffffffffffffffffff1673ffffffffffffffffffffffffffffffffffffffff16815260200190815260200160002054610eab90919063ffffffff16565b600d60008473ffffffffffffffffffffffffffffffffffffffff1673ffffffffffffffffffffffffffffffffffffffff16815260200190815260200160002081905550610b6e81600b54610eab90919063ffffffff16565b600b81905550610b8b61a8c0600454610eab90919063ffffffff16565b6004819055505050565b60008054905090565b600080600b54118015610c5157508173ffffffffffffffffffffffffffffffffffffffff1663c78243cf6040518163ffffffff167c0100000000000000000000000000000000000000000000000000000000028152600401602060405180830381600087803b158015610c1057600080fd5b505af1158015610c24573d6000803e3d6000fd5b505050506040513d6020811015610c3a57600080fd5b8101908080519060200190929190505050600b5410155b9050919050565b6000600d60008373ffffffffffffffffffffffffffffffffffffffff1673ffffffffffffffffffffffffffffffffffffffff168152602001908152602001600020549050919050565b6000600754905090565b600360009054906101000a900473ffffffffffffffffffffffffffffffffffffffff1681565b6000600b54905090565b600b548111151515610cec57600080fd5b600d60008373ffffffffffffffffffffffffffffffffffffffff1673ffffffffffffffffffffffffffffffffffffffff168152602001908152602001600020548111151515610d3a57600080fd5b610d8c81600d60008573ffffffffffffffffffffffffffffffffffffffff1673ffffffffffffffffffffffffffffffffffffffff16815260200190815260200160002054610ec790919063ffffffff16565b600d60008473ffffffffffffffffffffffffffffffffffffffff1673ffffffffffffffffffffffffffffffffffffffff16815260200190815260200160002081905550610de481600b54610ec790919063ffffffff16565b600b81905550610e0161a8c0600454610ec790919063ffffffff16565b6004819055505050565b6000803414151515610e1c57600080fd5b349050600360009054906101000a900473ffffffffffffffffffffffffffffffffffffffff1673ffffffffffffffffffffffffffffffffffffffff166108fc829081150290604051600060405180830381858888f19350505050158015610e87573d6000803e3d6000fd5b5050565b6000600654905090565b6000600854905090565b60004260045411905090565b60008183019050828110151515610ebe57fe5b80905092915050565b6000828211151515610ed557fe5b8183039050929150505600a165627a7a723058209a5f3f1def69c435029c791f80b6e99d7b02c8d53152474b7e5728082061b8710029a165627a7a723058205f2056339d4df24c2424d2259021ef91f4af6b3b94477c6b6f868bdd1c55bcdc0029",
  "source": "pragma solidity ^0.4.24;\nimport './TimedCrowdsale.sol';\nimport '../utility/SafeMath.sol';\nimport '../Project.sol';\nimport '../ProjectStub.sol';\nimport '../token/ERC20/Token.sol';\nimport '../InvestorList.sol';\nimport '../Reimbursements.sol';\n\n\ncontract GNITokenCrowdsale is TimedCrowdsale {\n  using SafeMath for uint256;\n  uint256 public totalValuation;\n  InvestorList public investorList;\n  address public dividendWallet;\n  address public reimbursements;\n\n  constructor\n      (\n        uint256 _openingTime,\n        uint256 _doomsDay,\n        uint256 _rate,\n        address _developer,\n        address _dividendWallet,\n        Token _token,\n        InvestorList _investorList,\n        address _reimbursements\n      )\n      public\n      Crowdsale(_rate, _developer, _token)\n      TimedCrowdsale(_openingTime, _doomsDay) {\n        investorList = InvestorList(_investorList);\n        totalValuation = 0;\n        dividendWallet = _dividendWallet;\n        reimbursements = _reimbursements;\n  }\n\n  address[] public projectAddrs;\n  uint256 public inactiveProjectCount;\n\n  function pitchProject(string _name, uint256 capitalRequired, uint256 _valuation, string _lat, string _lng) public {//we need more tests for this\n   (uint256 developerTokens, uint256 investorTokens) = tokensToMint(_valuation, capitalRequired);\n\n   Token(token).mint(developer, developerTokens);\n   Token(token).mint(this, investorTokens);\n\n   totalValuation = totalValuation.add(_valuation);\n\n   _extendDoomsDay(90);\n\n    uint256 _id = inactiveProjectCount;\n    address projectAddr = new Project(_id, _name, developer, dividendWallet, _valuation, capitalRequired, developerTokens, investorTokens, _lat, _lng);\n    projectAddrs.push(projectAddr);\n    inactiveProjectCount = inactiveProjectCount.add(1);\n    Project(projectAddr).log();\n  }\n\n function tokensToMint (uint256 valuation, uint256 investorValue) private view returns (uint256, uint256) {\n   uint256 developerValue = valuation.sub(investorValue);\n   return (developerValue.mul(rate), investorValue.mul(rate));\n }\n\n //before this, we need to execute any pending token activations with the modifier above for the sender account. We need to do this so that the correct number of tokens are activated\n function buyTokensAndVote (uint256 _projectVotedForId) public payable {//we need more tests for this\n   Token(token).activatePending(msg.sender);\n\n   uint256 tokens = buyTokens(msg.sender);\n   investorList.addInvestor(msg.sender);\n\n   address projAddr = projectAddrs[_projectVotedForId];\n   Project(projAddr).vote(msg.sender, tokens);\n\n   _extendDoomsDay(90);\n\n   updateProjects(_projectVotedForId);\n  }\n\n address public tentativeLeaderAddr;\n uint256 public tentativeLeaderCapRequired;\n bool public tentativeLeaderConfirmed;\n\n struct ProjectsChecked {\n   mapping(address => bool) isChecked;\n   uint256 totalChecked;\n }\n\n uint256 internal currentCheckCycle;\n mapping(uint256 => ProjectsChecked) internal checkCycle;\n\n function considerTentativeLeaderShip (uint256 _projectId) public {\n   address projectAddr = projectAddrs[_projectId];\n\n   require(Project(projectAddr).open() && !Project(projectAddr).active());\n\n   if (\n     tentativeLeaderAddr == address(0) ||\n     Project(projectAddr).totalVotes_() > Project(tentativeLeaderAddr).totalVotes_() ||\n     !Project(tentativeLeaderAddr).open()\n     )\n   {\n     updateTentativeLeader(projectAddr);\n   }\n\n   recordCheck(projectAddr);\n\n   if (checkCycle[currentCheckCycle].totalChecked == inactiveProjectCount){\n     tentativeLeaderConfirmed = true;\n   }\n }\n\n function recordCheck (address projectAddr) internal {\n   bool hasBeenChecked = checkCycle[currentCheckCycle].isChecked[projectAddr];\n\n   if (!hasBeenChecked) {\n    checkCycle[currentCheckCycle].totalChecked = checkCycle[currentCheckCycle].totalChecked.add(1);\n    checkCycle[currentCheckCycle].isChecked[projectAddr] = true;\n   }\n }\n\n function updateTentativeLeader (address newLeaderAddr) internal {\n   //if its overtaking a project that is open, that means it has more votes and we dont need to reset all the checks\n   if (tentativeLeaderAddr != address(0) && !Project(tentativeLeaderAddr).open()) {\n     resetProjectsChecked();\n   }\n   setTentativeLeader(newLeaderAddr);\n }\n\n function resetProjectsChecked() internal {\n   ProjectsChecked memory newProjectsChecked;\n   currentCheckCycle = currentCheckCycle.add(1);\n   checkCycle[currentCheckCycle] = newProjectsChecked;\n   inactiveProjectCount = inactiveProjectCount.sub(1);\n }\n\n function setTentativeLeader(address newLeaderAddr) internal {\n   Project newLeader = Project(newLeaderAddr);\n\n   tentativeLeaderAddr = newLeaderAddr;\n   tentativeLeaderCapRequired = newLeader.capitalRequired_();\n   tentativeLeaderConfirmed = false;\n }\n\n function attemptProjectActivation () public {\n   if (\n     tentativeLeaderCapRequired <= weiRaised &&\n     tentativeLeaderConfirmed &&\n     Project(tentativeLeaderAddr).open()\n     ) {\n     activateProject();\n   }\n }\n\n function activateProject () internal {\n   Project project = Project(tentativeLeaderAddr);\n   project.activate();\n\n   forwardFunds(developer, tentativeLeaderCapRequired);\n   weiRaised = weiRaised.sub(tentativeLeaderCapRequired);\n   inactiveProjectCount = inactiveProjectCount.sub(1);\n   Token(token).increasePendingActivations(project.developerTokens_().add(project.investorTokens_()));\n }\n\n function reimburseFunds () public {\n   require(hasClosed());\n   reimbursements.transfer(weiRaised);\n }\n\n function transferVotes (uint256 fromProjectId, uint256 toProjectId, uint256 votes) external {\n   address fromAddr = projectAddrs[fromProjectId];\n   address toAddr = projectAddrs[toProjectId];\n   Project(fromAddr).removeVotes(msg.sender, votes);\n   Project(toAddr).vote(msg.sender, votes);\n }\n\n function addVoteCredit (uint256 fromProjectId, uint256 votes) external {\n   addVoteCredit_(msg.sender, fromProjectId, votes);\n }\n\n //this is for adding vote credit for each investor from the frontend after a project has been activated\n function addVoteCreditTo (address account, uint256 fromProjectId) external {\n   Project project = Project(projectAddrs[fromProjectId]);\n   require(!project.open() || project.active_());\n   uint256 votes = project.votesOf(account);\n   addVoteCredit_(account, fromProjectId, votes);\n }\n\n function addVoteCredit_ (address account, uint256 fromProjectId, uint256 votes) internal {\n   address projAddr = projectAddrs[fromProjectId];\n   Project(projAddr).removeVotes(account, votes);\n   investorList.addVoteCredit(account, votes);\n }\n\n function voteWithCredit (uint256 toProjectId, uint256 votes) external {\n   address projAddr = projectAddrs[toProjectId];\n   investorList.removeVoteCredit(msg.sender, votes);\n   Project(projAddr).vote(msg.sender, votes);\n }\n\n function updateProjects (uint256 _projectId) internal {\n   considerTentativeLeaderShip(_projectId);\n   attemptProjectActivation();\n }\n\n function _extendDoomsDay(uint256 _days) internal onlyWhileOpen {\n    doomsDay = doomsDay.add(_days.mul(1728000));\n }\n\n  function forwardFunds (address _to, uint256 amount) internal {\n    _to.transfer(amount);\n  }\n}\n\n/* function getInfo(uint256 id) public view returns(address) {\n    /* string, uint256, uint256, uint256, uint256, bool, uint256, uint256, address */\n    /* address projectAddr = projectAddrs[id]; */\n    /* return ( */\n      /* return Project(projectAddr).dividendWallet(); */\n      /* Project(projectAddr).name(),\n      Project(projectAddr).valuation(),\n      Project(projectAddr).capitalRequired(),\n      Project(projectAddr).developerTokens(),\n      Project(projectAddr).investorTokens(),\n      Project(projectAddr).active(),\n      Project(projectAddr).totalVotes(),\n      /* Project(projectAddr).closingTime(), */\n      /* projectAddr */\n      /* ); */\n    /* }  */\n",
  "sourcePath": "/Users/steven/genie-portal/truffle/contracts/crowdsale/GNITokenCrowdsale.sol",
  "compiler": {
    "name": "solc",
    "version": "0.4.24+commit.e67f0147.Emscripten.clang"
  },
  "schemaVersion": "2.0.1",
  "updatedAt": "2018-12-11T00:24:47.966Z"
}