{
  "contractName": "GNITokenCrowdsale",
  "abi": [
    {
      "constant": true,
      "inputs": [
        {
          "name": "",
          "type": "uint256"
        }
      ],
      "name": "projects",
      "outputs": [
        {
          "name": "",
          "type": "address"
        }
      ],
      "payable": false,
      "stateMutability": "view",
      "type": "function"
    },
    {
      "constant": true,
      "inputs": [],
      "name": "hasClosed",
      "outputs": [
        {
          "name": "",
          "type": "bool"
        }
      ],
      "payable": false,
      "stateMutability": "view",
      "type": "function"
    },
    {
      "constant": true,
      "inputs": [],
      "name": "activeToken_",
      "outputs": [
        {
          "name": "",
          "type": "address"
        }
      ],
      "payable": false,
      "stateMutability": "view",
      "type": "function"
    },
    {
      "constant": true,
      "inputs": [],
      "name": "totalValuation",
      "outputs": [
        {
          "name": "",
          "type": "uint256"
        }
      ],
      "payable": false,
      "stateMutability": "view",
      "type": "function"
    },
    {
      "constant": true,
      "inputs": [],
      "name": "rate",
      "outputs": [
        {
          "name": "",
          "type": "uint256"
        }
      ],
      "payable": false,
      "stateMutability": "view",
      "type": "function"
    },
    {
      "constant": true,
      "inputs": [
        {
          "name": "",
          "type": "uint256"
        }
      ],
      "name": "investors",
      "outputs": [
        {
          "name": "addr",
          "type": "address"
        },
        {
          "name": "id",
          "type": "uint256"
        },
        {
          "name": "voteCredit",
          "type": "uint256"
        }
      ],
      "payable": false,
      "stateMutability": "view",
      "type": "function"
    },
    {
      "constant": true,
      "inputs": [],
      "name": "weiRaised",
      "outputs": [
        {
          "name": "",
          "type": "uint256"
        }
      ],
      "payable": false,
      "stateMutability": "view",
      "type": "function"
    },
    {
      "constant": true,
      "inputs": [],
      "name": "openingTime",
      "outputs": [
        {
          "name": "",
          "type": "uint256"
        }
      ],
      "payable": false,
      "stateMutability": "view",
      "type": "function"
    },
    {
      "constant": true,
      "inputs": [],
      "name": "doomsDay",
      "outputs": [
        {
          "name": "",
          "type": "uint256"
        }
      ],
      "payable": false,
      "stateMutability": "view",
      "type": "function"
    },
    {
      "constant": true,
      "inputs": [],
      "name": "developer",
      "outputs": [
        {
          "name": "",
          "type": "address"
        }
      ],
      "payable": false,
      "stateMutability": "view",
      "type": "function"
    },
    {
      "constant": true,
      "inputs": [],
      "name": "inactiveToken_",
      "outputs": [
        {
          "name": "",
          "type": "address"
        }
      ],
      "payable": false,
      "stateMutability": "view",
      "type": "function"
    },
    {
      "constant": false,
      "inputs": [
        {
          "name": "_beneficiary",
          "type": "address"
        }
      ],
      "name": "buyTokens",
      "outputs": [],
      "payable": true,
      "stateMutability": "payable",
      "type": "function"
    },
    {
      "inputs": [
        {
          "name": "_openingTime",
          "type": "uint256"
        },
        {
          "name": "_doomsDay",
          "type": "uint256"
        },
        {
          "name": "_rate",
          "type": "uint256"
        },
        {
          "name": "_developer",
          "type": "address"
        },
        {
          "name": "_token",
          "type": "address"
        }
      ],
      "payable": false,
      "stateMutability": "nonpayable",
      "type": "constructor"
    },
    {
      "payable": true,
      "stateMutability": "payable",
      "type": "fallback"
    },
    {
      "anonymous": false,
      "inputs": [
        {
          "indexed": false,
          "name": "voter",
          "type": "address"
        },
        {
          "indexed": false,
          "name": "projectId",
          "type": "uint256"
        },
        {
          "indexed": false,
          "name": "amount",
          "type": "uint256"
        }
      ],
      "name": "LogVotes",
      "type": "event"
    },
    {
      "anonymous": false,
      "inputs": [
        {
          "indexed": true,
          "name": "purchaser",
          "type": "address"
        },
        {
          "indexed": true,
          "name": "beneficiary",
          "type": "address"
        },
        {
          "indexed": false,
          "name": "value",
          "type": "uint256"
        },
        {
          "indexed": false,
          "name": "amount",
          "type": "uint256"
        }
      ],
      "name": "TokenPurchase",
      "type": "event"
    },
    {
      "constant": false,
      "inputs": [
        {
          "name": "_name",
          "type": "string"
        },
        {
          "name": "_manager",
          "type": "address"
        },
        {
          "name": "capitalRequired",
          "type": "uint256"
        },
        {
          "name": "_valuation",
          "type": "uint256"
        },
        {
          "name": "_lat",
          "type": "string"
        },
        {
          "name": "_lng",
          "type": "string"
        }
      ],
      "name": "pitchProject",
      "outputs": [],
      "payable": true,
      "stateMutability": "payable",
      "type": "function"
    },
    {
      "constant": false,
      "inputs": [
        {
          "name": "_projectVotedForId",
          "type": "uint256"
        }
      ],
      "name": "buyTokensAndVote",
      "outputs": [],
      "payable": true,
      "stateMutability": "payable",
      "type": "function"
    },
    {
      "constant": false,
      "inputs": [],
      "name": "activateProject",
      "outputs": [],
      "payable": false,
      "stateMutability": "nonpayable",
      "type": "function"
    },
    {
      "constant": false,
      "inputs": [],
      "name": "distributeDividends",
      "outputs": [],
      "payable": false,
      "stateMutability": "nonpayable",
      "type": "function"
    }
  ],
  "bytecode": "0x60806040523480156200001157600080fd5b5060405160a0806200538c833981018060405281019080805190602001909291908051906020019092919080519060200190929190805190602001909291908051906020019092919050505084848484846000831115156200007257600080fd5b600073ffffffffffffffffffffffffffffffffffffffff168273ffffffffffffffffffffffffffffffffffffffff1614151515620000af57600080fd5b8260038190555081600260006101000a81548173ffffffffffffffffffffffffffffffffffffffff021916908373ffffffffffffffffffffffffffffffffffffffff160217905550806000806101000a81548173ffffffffffffffffffffffffffffffffffffffff021916908373ffffffffffffffffffffffffffffffffffffffff16021790555062000141620001e5565b604051809103906000f0801580156200015e573d6000803e3d6000fd5b50600160006101000a81548173ffffffffffffffffffffffffffffffffffffffff021916908373ffffffffffffffffffffffffffffffffffffffff160217905550505050428210151515620001b257600080fd5b818110151515620001c257600080fd5b8160058190555080600681905550505060006007819055505050505050620001f6565b604051611c60806200372c83390190565b61352680620002066000396000f300608060405260043610620000f7576000357c0100000000000000000000000000000000000000000000000000000000900463ffffffff16806303c833021462000104578063107046bd146200011e5780631515bc2b146200018e5780631807cd5f14620001c0578063295b9300146200021a5780632c4e722e14620002485780633cb78fe014620002765780633feb5f2b14620002905780634042b66f146200030e578063589679c7146200033c578063b7a8807c146200035e578063c19b7bc0146200038c578063ca4b208b14620003ba578063da45be0a1462000414578063e0727262146200046e578063ec8ac4d8146200058c575b6200010233620005c4565b005b3480156200011157600080fd5b506200011c620007cb565b005b3480156200012b57600080fd5b506200014c600480360381019080803590602001909291905050506200097f565b604051808273ffffffffffffffffffffffffffffffffffffffff1673ffffffffffffffffffffffffffffffffffffffff16815260200191505060405180910390f35b3480156200019b57600080fd5b50620001a6620009be565b604051808215151515815260200191505060405180910390f35b348015620001cd57600080fd5b50620001d8620009ca565b604051808273ffffffffffffffffffffffffffffffffffffffff1673ffffffffffffffffffffffffffffffffffffffff16815260200191505060405180910390f35b3480156200022757600080fd5b5062000232620009f0565b6040518082815260200191505060405180910390f35b3480156200025557600080fd5b5062000260620009f6565b6040518082815260200191505060405180910390f35b3480156200028357600080fd5b506200028e620009fc565b005b3480156200029d57600080fd5b50620002be6004803603810190808035906020019092919050505062000f1f565b604051808473ffffffffffffffffffffffffffffffffffffffff1673ffffffffffffffffffffffffffffffffffffffff168152602001838152602001828152602001935050505060405180910390f35b3480156200031b57600080fd5b506200032662000f79565b6040518082815260200191505060405180910390f35b6200035c6004803603810190808035906020019092919050505062000f7f565b005b3480156200036b57600080fd5b50620003766200105b565b6040518082815260200191505060405180910390f35b3480156200039957600080fd5b50620003a462001061565b6040518082815260200191505060405180910390f35b348015620003c757600080fd5b50620003d262001067565b604051808273ffffffffffffffffffffffffffffffffffffffff1673ffffffffffffffffffffffffffffffffffffffff16815260200191505060405180910390f35b3480156200042157600080fd5b506200042c6200108d565b604051808273ffffffffffffffffffffffffffffffffffffffff1673ffffffffffffffffffffffffffffffffffffffff16815260200191505060405180910390f35b6200058a600480360381019080803590602001908201803590602001908080601f0160208091040260200160405190810160405280939291908181526020018383808284378201915050505050509192919290803573ffffffffffffffffffffffffffffffffffffffff1690602001909291908035906020019092919080359060200190929190803590602001908201803590602001908080601f0160208091040260200160405190810160405280939291908181526020018383808284378201915050505050509192919290803590602001908201803590602001908080601f0160208091040260200160405190810160405280939291908181526020018383808284378201915050505050509192919290505050620010b2565b005b620005c2600480360381019080803573ffffffffffffffffffffffffffffffffffffffff169060200190929190505050620005c4565b005b600080349150620005d683836200152f565b620005e18262001575565b9050620005fa826004546200159590919063ffffffff16565b6004819055506000809054906101000a900473ffffffffffffffffffffffffffffffffffffffff1673ffffffffffffffffffffffffffffffffffffffff166323b872dd600260009054906101000a900473ffffffffffffffffffffffffffffffffffffffff1685846040518463ffffffff167c0100000000000000000000000000000000000000000000000000000000028152600401808473ffffffffffffffffffffffffffffffffffffffff1673ffffffffffffffffffffffffffffffffffffffff1681526020018373ffffffffffffffffffffffffffffffffffffffff1673ffffffffffffffffffffffffffffffffffffffff1681526020018281526020019350505050602060405180830381600087803b1580156200071b57600080fd5b505af115801562000730573d6000803e3d6000fd5b505050506040513d60208110156200074757600080fd5b8101908080519060200190929190505050508273ffffffffffffffffffffffffffffffffffffffff163373ffffffffffffffffffffffffffffffffffffffff167f623b3804fa71d67900d064613da8f94b9617215ee90799290593e1745087ad188484604051808381526020018281526020019250505060405180910390a3505050565b600080600080600160009054906101000a900473ffffffffffffffffffffffffffffffffffffffff1673ffffffffffffffffffffffffffffffffffffffff166318160ddd6040518163ffffffff167c0100000000000000000000000000000000000000000000000000000000028152600401602060405180830381600087803b1580156200085857600080fd5b505af11580156200086d573d6000803e3d6000fd5b505050506040513d60208110156200088457600080fd5b81019080805190602001909291905050509350620008c56004543073ffffffffffffffffffffffffffffffffffffffff1631620015b290919063ffffffff16565b9250600091505b600980549050821115156200094a57600982815481101515620008eb57fe5b906000526020600020906004020190506200092c8160000160009054906101000a900473ffffffffffffffffffffffffffffffffffffffff168585620015cc565b620009426001836200159590919063ffffffff16565b9150620008cc565b62000979600260009054906101000a900473ffffffffffffffffffffffffffffffffffffffff168585620015cc565b50505050565b6008818154811015156200098f57fe5b906000526020600020016000915054906101000a900473ffffffffffffffffffffffffffffffffffffffff1681565b60006006544211905090565b600160009054906101000a900473ffffffffffffffffffffffffffffffffffffffff1681565b60075481565b60035481565b60008060008062000a0c62001746565b93509350821562000f195760088481548110151562000a2757fe5b9060005260206000200160009054906101000a900473ffffffffffffffffffffffffffffffffffffffff1691508173ffffffffffffffffffffffffffffffffffffffff1663929aebdf6040518163ffffffff167c0100000000000000000000000000000000000000000000000000000000028152600401602060405180830381600087803b15801562000ab957600080fd5b505af115801562000ace573d6000803e3d6000fd5b505050506040513d602081101562000ae557600080fd5b810190808051906020019092919050505090506000809054906101000a900473ffffffffffffffffffffffffffffffffffffffff1673ffffffffffffffffffffffffffffffffffffffff166379cc6790600260009054906101000a900473ffffffffffffffffffffffffffffffffffffffff16836040518363ffffffff167c0100000000000000000000000000000000000000000000000000000000028152600401808373ffffffffffffffffffffffffffffffffffffffff1673ffffffffffffffffffffffffffffffffffffffff16815260200182815260200192505050600060405180830381600087803b15801562000bdf57600080fd5b505af115801562000bf4573d6000803e3d6000fd5b50505050600160009054906101000a900473ffffffffffffffffffffffffffffffffffffffff1673ffffffffffffffffffffffffffffffffffffffff166340c10f19600260009054906101000a900473ffffffffffffffffffffffffffffffffffffffff16836040518363ffffffff167c0100000000000000000000000000000000000000000000000000000000028152600401808373ffffffffffffffffffffffffffffffffffffffff1673ffffffffffffffffffffffffffffffffffffffff16815260200182815260200192505050602060405180830381600087803b15801562000ce057600080fd5b505af115801562000cf5573d6000803e3d6000fd5b505050506040513d602081101562000d0c57600080fd5b81019080805190602001909291905050505062000dcb8273ffffffffffffffffffffffffffffffffffffffff1663d705f3876040518163ffffffff167c0100000000000000000000000000000000000000000000000000000000028152600401602060405180830381600087803b15801562000d8757600080fd5b505af115801562000d9c573d6000803e3d6000fd5b505050506040513d602081101562000db357600080fd5b810190808051906020019092919050505085620019d4565b62000e9a600260009054906101000a900473ffffffffffffffffffffffffffffffffffffffff168373ffffffffffffffffffffffffffffffffffffffff1663d4cf7db66040518163ffffffff167c0100000000000000000000000000000000000000000000000000000000028152600401602060405180830381600087803b15801562000e5757600080fd5b505af115801562000e6c573d6000803e3d6000fd5b505050506040513d602081101562000e8357600080fd5b810190808051906020019092919050505062001ff6565b8173ffffffffffffffffffffffffffffffffffffffff16630f15f4c06040518163ffffffff167c0100000000000000000000000000000000000000000000000000000000028152600401600060405180830381600087803b15801562000eff57600080fd5b505af115801562000f14573d6000803e3d6000fd5b505050505b50505050565b60098181548110151562000f2f57fe5b90600052602060002090600402016000915090508060000160009054906101000a900473ffffffffffffffffffffffffffffffffffffffff16908060010154908060020154905083565b60045481565b62000f8a33620005c4565b62000f95816200205f565b60088181548110151562000fa557fe5b9060005260206000200160009054906101000a900473ffffffffffffffffffffffffffffffffffffffff1673ffffffffffffffffffffffffffffffffffffffff166382ab890a346040518263ffffffff167c010000000000000000000000000000000000000000000000000000000002815260040180828152602001915050600060405180830381600087803b1580156200103f57600080fd5b505af115801562001054573d6000803e3d6000fd5b5050505050565b60055481565b60065481565b600260009054906101000a900473ffffffffffffffffffffffffffffffffffffffff1681565b6000809054906101000a900473ffffffffffffffffffffffffffffffffffffffff1681565b600080600080620010c48789620021de565b935093506000809054906101000a900473ffffffffffffffffffffffffffffffffffffffff1673ffffffffffffffffffffffffffffffffffffffff166340c10f19600260009054906101000a900473ffffffffffffffffffffffffffffffffffffffff166200113d86886200159590919063ffffffff16565b6040518363ffffffff167c0100000000000000000000000000000000000000000000000000000000028152600401808373ffffffffffffffffffffffffffffffffffffffff1673ffffffffffffffffffffffffffffffffffffffff16815260200182815260200192505050602060405180830381600087803b158015620011c357600080fd5b505af1158015620011d8573d6000803e3d6000fd5b505050506040513d6020811015620011ef57600080fd5b81019080805190602001909291905050505062001218876007546200159590919063ffffffff16565b6007819055506200122a605a62002234565b6008805490509150818a8a308a8c89898d8d62001246620024b7565b808b8152602001806020018a73ffffffffffffffffffffffffffffffffffffffff1673ffffffffffffffffffffffffffffffffffffffff1681526020018973ffffffffffffffffffffffffffffffffffffffff1673ffffffffffffffffffffffffffffffffffffffff168152602001888152602001878152602001868152602001858152602001806020018060200184810384528d818151815260200191508051906020019080838360005b838110156200130f578082015181840152602081019050620012f2565b50505050905090810190601f1680156200133d5780820380516001836020036101000a031916815260200191505b50848103835286818151815260200191508051906020019080838360005b83811015620013785780820151818401526020810190506200135b565b50505050905090810190601f168015620013a65780820380516001836020036101000a031916815260200191505b50848103825285818151815260200191508051906020019080838360005b83811015620013e1578082015181840152602081019050620013c4565b50505050905090810190601f1680156200140f5780820380516001836020036101000a031916815260200191505b509d5050505050505050505050505050604051809103906000f0801580156200143c573d6000803e3d6000fd5b50905060088190806001815401808255809150509060018203906000526020600020016000909192909190916101000a81548173ffffffffffffffffffffffffffffffffffffffff021916908373ffffffffffffffffffffffffffffffffffffffff160217905550508073ffffffffffffffffffffffffffffffffffffffff166351973ec96040518163ffffffff167c0100000000000000000000000000000000000000000000000000000000028152600401600060405180830381600087803b1580156200150a57600080fd5b505af11580156200151f573d6000803e3d6000fd5b5050505050505050505050505050565b60008060004292506005549150600654905060055442101580156200155657506006544211155b15156200156257600080fd5b6200156e8585620022a1565b5050505050565b60006200158e60035483620022f390919063ffffffff16565b9050919050565b60008183019050828110151515620015a957fe5b80905092915050565b6000828211151515620015c157fe5b818303905092915050565b600080620016de600160009054906101000a900473ffffffffffffffffffffffffffffffffffffffff1673ffffffffffffffffffffffffffffffffffffffff166370a08231876040518263ffffffff167c0100000000000000000000000000000000000000000000000000000000028152600401808273ffffffffffffffffffffffffffffffffffffffff1673ffffffffffffffffffffffffffffffffffffffff168152602001915050602060405180830381600087803b1580156200169157600080fd5b505af1158015620016a6573d6000803e3d6000fd5b505050506040513d6020811015620016bd57600080fd5b8101908080519060200190929190505050856200232f90919063ffffffff16565b9150620016f582846200232f90919063ffffffff16565b90508473ffffffffffffffffffffffffffffffffffffffff166108fc829081150290604051600060405180830381858888f193505050501580156200173e573d6000803e3d6000fd5b505050505050565b6000806000806000809150600090505b600880549050811015620018dd576008818154811015156200177457fe5b9060005260206000200160009054906101000a900473ffffffffffffffffffffffffffffffffffffffff1673ffffffffffffffffffffffffffffffffffffffff1663705c5be5600885815481101515620017ca57fe5b9060005260206000200160009054906101000a900473ffffffffffffffffffffffffffffffffffffffff166040518263ffffffff167c0100000000000000000000000000000000000000000000000000000000028152600401808273ffffffffffffffffffffffffffffffffffffffff1673ffffffffffffffffffffffffffffffffffffffff168152602001915050602060405180830381600087803b1580156200187457600080fd5b505af115801562001889573d6000803e3d6000fd5b505050506040513d6020811015620018a057600080fd5b810190808051906020019092919050505015620018bf57809250600191505b620018d56001826200159590919063ffffffff16565b905062001756565b82828015620019c95750600454600885815481101515620018fa57fe5b9060005260206000200160009054906101000a900473ffffffffffffffffffffffffffffffffffffffff1673ffffffffffffffffffffffffffffffffffffffff1663d4cf7db66040518163ffffffff167c0100000000000000000000000000000000000000000000000000000000028152600401602060405180830381600087803b1580156200198957600080fd5b505af11580156200199e573d6000803e3d6000fd5b505050506040513d6020811015620019b557600080fd5b810190808051906020019092919050505011155b945094505050509091565b60008060008060008062001bcf6000809054906101000a900473ffffffffffffffffffffffffffffffffffffffff1673ffffffffffffffffffffffffffffffffffffffff166370a08231600260009054906101000a900473ffffffffffffffffffffffffffffffffffffffff166040518263ffffffff167c0100000000000000000000000000000000000000000000000000000000028152600401808273ffffffffffffffffffffffffffffffffffffffff1673ffffffffffffffffffffffffffffffffffffffff168152602001915050602060405180830381600087803b15801562001ac057600080fd5b505af115801562001ad5573d6000803e3d6000fd5b505050506040513d602081101562001aec57600080fd5b81019080805190602001909291905050506000809054906101000a900473ffffffffffffffffffffffffffffffffffffffff1673ffffffffffffffffffffffffffffffffffffffff166318160ddd6040518163ffffffff167c0100000000000000000000000000000000000000000000000000000000028152600401602060405180830381600087803b15801562001b8357600080fd5b505af115801562001b98573d6000803e3d6000fd5b505050506040513d602081101562001baf57600080fd5b8101908080519060200190929190505050620015b290919063ffffffff16565b955062001be688876200232f90919063ffffffff16565b9450600093505b6009805490508411151562001fec5760098481548110151562001c0c57fe5b9060005260206000209060040201925062001d4e856000809054906101000a900473ffffffffffffffffffffffffffffffffffffffff1673ffffffffffffffffffffffffffffffffffffffff166370a082318660000160009054906101000a900473ffffffffffffffffffffffffffffffffffffffff166040518263ffffffff167c0100000000000000000000000000000000000000000000000000000000028152600401808273ffffffffffffffffffffffffffffffffffffffff1673ffffffffffffffffffffffffffffffffffffffff168152602001915050602060405180830381600087803b15801562001d0257600080fd5b505af115801562001d17573d6000803e3d6000fd5b505050506040513d602081101562001d2e57600080fd5b81019080805190602001909291905050506200232f90919063ffffffff16565b91506000809054906101000a900473ffffffffffffffffffffffffffffffffffffffff1673ffffffffffffffffffffffffffffffffffffffff166379cc67908460000160009054906101000a900473ffffffffffffffffffffffffffffffffffffffff16846040518363ffffffff167c0100000000000000000000000000000000000000000000000000000000028152600401808373ffffffffffffffffffffffffffffffffffffffff1673ffffffffffffffffffffffffffffffffffffffff16815260200182815260200192505050600060405180830381600087803b15801562001e3957600080fd5b505af115801562001e4e573d6000803e3d6000fd5b50505050600160009054906101000a900473ffffffffffffffffffffffffffffffffffffffff1673ffffffffffffffffffffffffffffffffffffffff166340c10f198460000160009054906101000a900473ffffffffffffffffffffffffffffffffffffffff16846040518363ffffffff167c0100000000000000000000000000000000000000000000000000000000028152600401808373ffffffffffffffffffffffffffffffffffffffff1673ffffffffffffffffffffffffffffffffffffffff16815260200182815260200192505050602060405180830381600087803b15801562001f3c57600080fd5b505af115801562001f51573d6000803e3d6000fd5b505050506040513d602081101562001f6857600080fd5b81019080805190602001909291905050505082600301600088815260200190815260200160002054905060008360030160008981526020019081526020016000208190555062001fc68184600201546200159590919063ffffffff16565b836002018190555062001fe46001856200159590919063ffffffff16565b935062001bed565b5050505050505050565b8173ffffffffffffffffffffffffffffffffffffffff166108fc829081150290604051600060405180830381858888f193505050501580156200203d573d6000803e3d6000fd5b506200205581600454620015b290919063ffffffff16565b6004819055505050565b62002069620024c8565b600080600a60003373ffffffffffffffffffffffffffffffffffffffff1673ffffffffffffffffffffffffffffffffffffffff168152602001908152602001600020541415620021ce5733826000019073ffffffffffffffffffffffffffffffffffffffff16908173ffffffffffffffffffffffffffffffffffffffff168152505060098054905090508082602001818152505080600a60003373ffffffffffffffffffffffffffffffffffffffff1673ffffffffffffffffffffffffffffffffffffffff168152602001908152602001600020819055506009829080600181540180825580915050906001820390600052602060002090600402016000909192909190915060008201518160000160006101000a81548173ffffffffffffffffffffffffffffffffffffffff021916908373ffffffffffffffffffffffffffffffffffffffff16021790555060208201518160010155604082015181600201555050505b620021d98362002346565b505050565b6000806000620021f88486620015b290919063ffffffff16565b90506200221160035482620022f390919063ffffffff16565b6200222860035486620022f390919063ffffffff16565b92509250509250929050565b60008060004292506005549150600654905060055442101580156200225b57506006544211155b15156200226757600080fd5b6200229562002283621a5e0086620022f390919063ffffffff16565b6006546200159590919063ffffffff16565b60068190555050505050565b600073ffffffffffffffffffffffffffffffffffffffff168273ffffffffffffffffffffffffffffffffffffffff1614151515620022de57600080fd5b60008114151515620022ef57600080fd5b5050565b60008083141562002308576000905062002329565b81830290508183828115156200231a57fe5b041415156200232557fe5b8090505b92915050565b600081838115156200233d57fe5b04905092915050565b620023cc346009600a60003373ffffffffffffffffffffffffffffffffffffffff1673ffffffffffffffffffffffffffffffffffffffff168152602001908152602001600020548154811015156200239a57fe5b90600052602060002090600402016003016000848152602001908152602001600020546200159590919063ffffffff16565b6009600a60003373ffffffffffffffffffffffffffffffffffffffff1673ffffffffffffffffffffffffffffffffffffffff168152602001908152602001600020548154811015156200241b57fe5b90600052602060002090600402016003016000838152602001908152602001600020819055507f1cfed8e6708dd89e1137769a805a4f0bb9a3bd615d751d5b2c078d2f3b34c574338234604051808473ffffffffffffffffffffffffffffffffffffffff1673ffffffffffffffffffffffffffffffffffffffff168152602001838152602001828152602001935050505060405180910390a150565b604051610ffa806200250183390190565b606060405190810160405280600073ffffffffffffffffffffffffffffffffffffffff168152602001600081526020016000815250905600608060405234801561001057600080fd5b5060405162000ffa38038062000ffa833981018060405281019080805190602001909291908051820192919060200180519060200190929190805190602001909291908051906020019092919080519060200190929190805190602001909291908051906020019092919080518201929190602001805182019291905050508960008190555088600190805190602001906100ac9291906101b8565b5087600260006101000a81548173ffffffffffffffffffffffffffffffffffffffff021916908373ffffffffffffffffffffffffffffffffffffffff16021790555086600360006101000a81548173ffffffffffffffffffffffffffffffffffffffff021916908373ffffffffffffffffffffffffffffffffffffffff1602179055508560058190555084600681905550836007819055508260088190555081600990805190602001906101619291906101b8565b5080600a90805190602001906101789291906101b8565b506000600b819055506000600c60006101000a81548160ff02191690831515021790555063013d238042016004819055505050505050505050505061025d565b828054600181600116156101000203166002900490600052602060002090601f016020900481019282601f106101f957805160ff1916838001178555610227565b82800160010185558215610227579182015b8281111561022657825182559160200191906001019061020b565b5b5090506102349190610238565b5090565b61025a91905b8082111561025657600081600090555060010161023e565b5090565b90565b610d8d806200026d6000396000f300608060405260043610610127576000357c0100000000000000000000000000000000000000000000000000000000900463ffffffff1680624dcde51461012c578063015e72ec1461015757806302fb0c5e146101e757806306fdde03146102165780630f15f4c0146102a657806321a7cfe4146102bd578063272666e3146102e85780634b6753bc146103135780634d7c09dd1461033e57806351973ec91461036d57806355d576cc146103845780636417d7b014610414578063705c5be51461043f57806382ab890a1461049a578063929aebdf146104c7578063af640d0f146104f2578063c63840711461051d578063d0e30db014610548578063d4cf7db614610552578063d705f3871461057d578063ec61b086146105a8578063f25874c8146105d3575b600080fd5b34801561013857600080fd5b506101416105fe565b6040518082815260200191505060405180910390f35b34801561016357600080fd5b5061016c610604565b6040518080602001828103825283818151815260200191508051906020019080838360005b838110156101ac578082015181840152602081019050610191565b50505050905090810190601f1680156101d95780820380516001836020036101000a031916815260200191505b509250505060405180910390f35b3480156101f357600080fd5b506101fc6106a2565b604051808215151515815260200191505060405180910390f35b34801561022257600080fd5b5061022b6106b5565b6040518080602001828103825283818151815260200191508051906020019080838360005b8381101561026b578082015181840152602081019050610250565b50505050905090810190601f1680156102985780820380516001836020036101000a031916815260200191505b509250505060405180910390f35b3480156102b257600080fd5b506102bb610753565b005b3480156102c957600080fd5b506102d2610778565b6040518082815260200191505060405180910390f35b3480156102f457600080fd5b506102fd61077e565b6040518082815260200191505060405180910390f35b34801561031f57600080fd5b50610328610788565b6040518082815260200191505060405180910390f35b34801561034a57600080fd5b5061035361078e565b604051808215151515815260200191505060405180910390f35b34801561037957600080fd5b506103826107a5565b005b34801561039057600080fd5b506103996109ce565b6040518080602001828103825283818151815260200191508051906020019080838360005b838110156103d95780820151818401526020810190506103be565b50505050905090810190601f1680156104065780820380516001836020036101000a031916815260200191505b509250505060405180910390f35b34801561042057600080fd5b50610429610a6c565b6040518082815260200191505060405180910390f35b34801561044b57600080fd5b50610480600480360381019080803573ffffffffffffffffffffffffffffffffffffffff169060200190929190505050610a72565b604051808215151515815260200191505060405180910390f35b3480156104a657600080fd5b506104c560048036038101908080359060200190929190505050610bf9565b005b3480156104d357600080fd5b506104dc610c34565b6040518082815260200191505060405180910390f35b3480156104fe57600080fd5b50610507610c3e565b6040518082815260200191505060405180910390f35b34801561052957600080fd5b50610532610c44565b6040518082815260200191505060405180910390f35b610550610c4a565b005b34801561055e57600080fd5b50610567610d21565b6040518082815260200191505060405180910390f35b34801561058957600080fd5b50610592610d2b565b6040518082815260200191505060405180910390f35b3480156105b457600080fd5b506105bd610d35565b6040518082815260200191505060405180910390f35b3480156105df57600080fd5b506105e8610d3b565b6040518082815260200191505060405180910390f35b60085481565b600a8054600181600116156101000203166002900480601f01602080910402602001604051908101604052809291908181526020018280546001816001161561010002031660029004801561069a5780601f1061066f5761010080835404028352916020019161069a565b820191906000526020600020905b81548152906001019060200180831161067d57829003601f168201915b505050505081565b600c60009054906101000a900460ff1681565b60018054600181600116156101000203166002900480601f01602080910402602001604051908101604052809291908181526020018280546001816001161561010002031660029004801561074b5780601f106107205761010080835404028352916020019161074b565b820191906000526020600020905b81548152906001019060200180831161072e57829003601f168201915b505050505081565b6001600c60006101000a81548160ff0219169083151502179055506107766107a5565b565b60055481565b6000600454905090565b60045481565b6000600c60009054906101000a900460ff16905090565b7f2870b0d0558b1786ef247a7bb0787eaae7392b072f7ca327b464981f23fb0e9260005460016005546006546007546008546009600a600b54600c60009054906101000a900460ff16604051808b8152602001806020018a815260200189815260200188815260200187815260200180602001806020018681526020018515151515815260200184810384528d8181546001816001161561010002031660029004815260200191508054600181600116156101000203166002900480156108ad5780601f10610882576101008083540402835291602001916108ad565b820191906000526020600020905b81548152906001019060200180831161089057829003601f168201915b50508481038352888181546001816001161561010002031660029004815260200191508054600181600116156101000203166002900480156109305780601f1061090557610100808354040283529160200191610930565b820191906000526020600020905b81548152906001019060200180831161091357829003601f168201915b50508481038252878181546001816001161561010002031660029004815260200191508054600181600116156101000203166002900480156109b35780601f10610988576101008083540402835291602001916109b3565b820191906000526020600020905b81548152906001019060200180831161099657829003601f168201915b50509d505050505050505050505050505060405180910390a1565b60098054600181600116156101000203166002900480601f016020809104026020016040519081016040528092919081815260200182805460018160011615610100020316600290048015610a645780601f10610a3957610100808354040283529160200191610a64565b820191906000526020600020905b815481529060010190602001808311610a4757829003601f168201915b505050505081565b60075481565b6000600c60009054906101000a900460ff16158015610a9357506000600b54115b8015610aa0575042600454115b8015610b4c57508173ffffffffffffffffffffffffffffffffffffffff1663f25874c86040518163ffffffff167c0100000000000000000000000000000000000000000000000000000000028152600401602060405180830381600087803b158015610b0b57600080fd5b505af1158015610b1f573d6000803e3d6000fd5b505050506040513d6020811015610b3557600080fd5b8101908080519060200190929190505050600b5410155b80610bf257508173ffffffffffffffffffffffffffffffffffffffff16634d7c09dd6040518163ffffffff167c0100000000000000000000000000000000000000000000000000000000028152600401602060405180830381600087803b158015610bb657600080fd5b505af1158015610bca573d6000803e3d6000fd5b505050506040513d6020811015610be057600080fd5b81019080805190602001909291905050505b9050919050565b610c0e81600b54610d4590919063ffffffff16565b600b81905550610c2b61a8c0600454610d4590919063ffffffff16565b60048190555050565b6000600754905090565b60005481565b600b5481565b60003414151515610c5a57600080fd5b600260009054906101000a900473ffffffffffffffffffffffffffffffffffffffff1673ffffffffffffffffffffffffffffffffffffffff163373ffffffffffffffffffffffffffffffffffffffff16141515610cb657600080fd5b600360009054906101000a900473ffffffffffffffffffffffffffffffffffffffff1673ffffffffffffffffffffffffffffffffffffffff166108fc349081150290604051600060405180830381858888f19350505050158015610d1e573d6000803e3d6000fd5b50565b6000600654905090565b6000600854905090565b60065481565b6000600b54905090565b60008183019050828110151515610d5857fe5b809050929150505600a165627a7a72305820f800ff19e309db702319eb2b6f52b174cfbce0d23ab83da30ffb073b31d91e7d0029a165627a7a72305820ffa4183bd95bce06f6853d9b277ffb18cdf5d8c325d9b657914a903baa6d1dc6002960806040526000600360146101000a81548160ff02191690831515021790555033600360006101000a81548173ffffffffffffffffffffffffffffffffffffffff021916908373ffffffffffffffffffffffffffffffffffffffff160217905550611bf18061006f6000396000f3006080604052600436106100e6576000357c0100000000000000000000000000000000000000000000000000000000900463ffffffff16806305d2035b146100eb578063095ea7b31461011a57806318160ddd1461017f57806323b872dd146101aa57806340c10f191461022f57806342966c681461029457806366188463146102c157806370a0823114610326578063715018a61461037d57806379cc6790146103945780637d64bcb4146103e15780638da5cb5b14610410578063a9059cbb14610467578063d73dd623146104cc578063dd62ed3e14610531578063f2fde38b146105a8575b600080fd5b3480156100f757600080fd5b506101006105eb565b604051808215151515815260200191505060405180910390f35b34801561012657600080fd5b50610165600480360381019080803573ffffffffffffffffffffffffffffffffffffffff169060200190929190803590602001909291905050506105fe565b604051808215151515815260200191505060405180910390f35b34801561018b57600080fd5b506101946106f0565b6040518082815260200191505060405180910390f35b3480156101b657600080fd5b50610215600480360381019080803573ffffffffffffffffffffffffffffffffffffffff169060200190929190803573ffffffffffffffffffffffffffffffffffffffff169060200190929190803590602001909291905050506106fa565b604051808215151515815260200191505060405180910390f35b34801561023b57600080fd5b5061027a600480360381019080803573ffffffffffffffffffffffffffffffffffffffff16906020019092919080359060200190929190505050610ab5565b604051808215151515815260200191505060405180910390f35b3480156102a057600080fd5b506102bf60048036038101908080359060200190929190505050610d54565b005b3480156102cd57600080fd5b5061030c600480360381019080803573ffffffffffffffffffffffffffffffffffffffff16906020019092919080359060200190929190505050610d61565b604051808215151515815260200191505060405180910390f35b34801561033257600080fd5b50610367600480360381019080803573ffffffffffffffffffffffffffffffffffffffff169060200190929190505050610ff3565b6040518082815260200191505060405180910390f35b34801561038957600080fd5b5061039261103b565b005b3480156103a057600080fd5b506103df600480360381019080803573ffffffffffffffffffffffffffffffffffffffff16906020019092919080359060200190929190505050611140565b005b3480156103ed57600080fd5b506103f66112e8565b604051808215151515815260200191505060405180910390f35b34801561041c57600080fd5b506104256113b0565b604051808273ffffffffffffffffffffffffffffffffffffffff1673ffffffffffffffffffffffffffffffffffffffff16815260200191505060405180910390f35b34801561047357600080fd5b506104b2600480360381019080803573ffffffffffffffffffffffffffffffffffffffff169060200190929190803590602001909291905050506113d6565b604051808215151515815260200191505060405180910390f35b3480156104d857600080fd5b50610517600480360381019080803573ffffffffffffffffffffffffffffffffffffffff169060200190929190803590602001909291905050506115f6565b604051808215151515815260200191505060405180910390f35b34801561053d57600080fd5b50610592600480360381019080803573ffffffffffffffffffffffffffffffffffffffff169060200190929190803573ffffffffffffffffffffffffffffffffffffffff1690602001909291905050506117f2565b6040518082815260200191505060405180910390f35b3480156105b457600080fd5b506105e9600480360381019080803573ffffffffffffffffffffffffffffffffffffffff169060200190929190505050611879565b005b600360149054906101000a900460ff1681565b600081600260003373ffffffffffffffffffffffffffffffffffffffff1673ffffffffffffffffffffffffffffffffffffffff16815260200190815260200160002060008573ffffffffffffffffffffffffffffffffffffffff1673ffffffffffffffffffffffffffffffffffffffff168152602001908152602001600020819055508273ffffffffffffffffffffffffffffffffffffffff163373ffffffffffffffffffffffffffffffffffffffff167f8c5be1e5ebec7d5bd14f71427d1e84f3dd0314c0f7b2291e5b200ac8c7c3b925846040518082815260200191505060405180910390a36001905092915050565b6000600154905090565b60008060008573ffffffffffffffffffffffffffffffffffffffff1673ffffffffffffffffffffffffffffffffffffffff16815260200190815260200160002054821115151561074957600080fd5b600260008573ffffffffffffffffffffffffffffffffffffffff1673ffffffffffffffffffffffffffffffffffffffff16815260200190815260200160002060003373ffffffffffffffffffffffffffffffffffffffff1673ffffffffffffffffffffffffffffffffffffffff1681526020019081526020016000205482111515156107d457600080fd5b600073ffffffffffffffffffffffffffffffffffffffff168373ffffffffffffffffffffffffffffffffffffffff161415151561081057600080fd5b610861826000808773ffffffffffffffffffffffffffffffffffffffff1673ffffffffffffffffffffffffffffffffffffffff168152602001908152602001600020546118e190919063ffffffff16565b6000808673ffffffffffffffffffffffffffffffffffffffff1673ffffffffffffffffffffffffffffffffffffffff168152602001908152602001600020819055506108f4826000808673ffffffffffffffffffffffffffffffffffffffff1673ffffffffffffffffffffffffffffffffffffffff168152602001908152602001600020546118fa90919063ffffffff16565b6000808573ffffffffffffffffffffffffffffffffffffffff1673ffffffffffffffffffffffffffffffffffffffff168152602001908152602001600020819055506109c582600260008773ffffffffffffffffffffffffffffffffffffffff1673ffffffffffffffffffffffffffffffffffffffff16815260200190815260200160002060003373ffffffffffffffffffffffffffffffffffffffff1673ffffffffffffffffffffffffffffffffffffffff168152602001908152602001600020546118e190919063ffffffff16565b600260008673ffffffffffffffffffffffffffffffffffffffff1673ffffffffffffffffffffffffffffffffffffffff16815260200190815260200160002060003373ffffffffffffffffffffffffffffffffffffffff1673ffffffffffffffffffffffffffffffffffffffff168152602001908152602001600020819055508273ffffffffffffffffffffffffffffffffffffffff168473ffffffffffffffffffffffffffffffffffffffff167fddf252ad1be2c89b69c2b068fc378daa952ba7f163c4a11628f55a4df523b3ef846040518082815260200191505060405180910390a3600190509392505050565b60007f8208a9d9fd4f0333d9aca5b0f17d56c322d5319c260df033c97a5de25a303990600360009054906101000a900473ffffffffffffffffffffffffffffffffffffffff1633604051808373ffffffffffffffffffffffffffffffffffffffff1673ffffffffffffffffffffffffffffffffffffffff1681526020018273ffffffffffffffffffffffffffffffffffffffff1673ffffffffffffffffffffffffffffffffffffffff1681526020019250505060405180910390a1600360009054906101000a900473ffffffffffffffffffffffffffffffffffffffff1673ffffffffffffffffffffffffffffffffffffffff163373ffffffffffffffffffffffffffffffffffffffff16141515610bcc57600080fd5b600360149054906101000a900460ff16151515610be857600080fd5b610bfd826001546118fa90919063ffffffff16565b600181905550610c54826000808673ffffffffffffffffffffffffffffffffffffffff1673ffffffffffffffffffffffffffffffffffffffff168152602001908152602001600020546118fa90919063ffffffff16565b6000808573ffffffffffffffffffffffffffffffffffffffff1673ffffffffffffffffffffffffffffffffffffffff168152602001908152602001600020819055508273ffffffffffffffffffffffffffffffffffffffff167f0f6798a560793a54c3bcfe86a93cde1e73087d944c0ea20544137d4121396885836040518082815260200191505060405180910390a28273ffffffffffffffffffffffffffffffffffffffff16600073ffffffffffffffffffffffffffffffffffffffff167fddf252ad1be2c89b69c2b068fc378daa952ba7f163c4a11628f55a4df523b3ef846040518082815260200191505060405180910390a36001905092915050565b610d5e3382611916565b50565b600080600260003373ffffffffffffffffffffffffffffffffffffffff1673ffffffffffffffffffffffffffffffffffffffff16815260200190815260200160002060008573ffffffffffffffffffffffffffffffffffffffff1673ffffffffffffffffffffffffffffffffffffffff1681526020019081526020016000205490508083101515610e73576000600260003373ffffffffffffffffffffffffffffffffffffffff1673ffffffffffffffffffffffffffffffffffffffff16815260200190815260200160002060008673ffffffffffffffffffffffffffffffffffffffff1673ffffffffffffffffffffffffffffffffffffffff16815260200190815260200160002081905550610f07565b610e8683826118e190919063ffffffff16565b600260003373ffffffffffffffffffffffffffffffffffffffff1673ffffffffffffffffffffffffffffffffffffffff16815260200190815260200160002060008673ffffffffffffffffffffffffffffffffffffffff1673ffffffffffffffffffffffffffffffffffffffff168152602001908152602001600020819055505b8373ffffffffffffffffffffffffffffffffffffffff163373ffffffffffffffffffffffffffffffffffffffff167f8c5be1e5ebec7d5bd14f71427d1e84f3dd0314c0f7b2291e5b200ac8c7c3b925600260003373ffffffffffffffffffffffffffffffffffffffff1673ffffffffffffffffffffffffffffffffffffffff16815260200190815260200160002060008873ffffffffffffffffffffffffffffffffffffffff1673ffffffffffffffffffffffffffffffffffffffff168152602001908152602001600020546040518082815260200191505060405180910390a3600191505092915050565b60008060008373ffffffffffffffffffffffffffffffffffffffff1673ffffffffffffffffffffffffffffffffffffffff168152602001908152602001600020549050919050565b600360009054906101000a900473ffffffffffffffffffffffffffffffffffffffff1673ffffffffffffffffffffffffffffffffffffffff163373ffffffffffffffffffffffffffffffffffffffff1614151561109757600080fd5b600360009054906101000a900473ffffffffffffffffffffffffffffffffffffffff1673ffffffffffffffffffffffffffffffffffffffff167ff8df31144d9c2f0f6b59d69b8b98abd5459d07f2742c4df920b25aae33c6482060405160405180910390a26000600360006101000a81548173ffffffffffffffffffffffffffffffffffffffff021916908373ffffffffffffffffffffffffffffffffffffffff160217905550565b600260008373ffffffffffffffffffffffffffffffffffffffff1673ffffffffffffffffffffffffffffffffffffffff16815260200190815260200160002060003373ffffffffffffffffffffffffffffffffffffffff1673ffffffffffffffffffffffffffffffffffffffff1681526020019081526020016000205481111515156111cb57600080fd5b61125a81600260008573ffffffffffffffffffffffffffffffffffffffff1673ffffffffffffffffffffffffffffffffffffffff16815260200190815260200160002060003373ffffffffffffffffffffffffffffffffffffffff1673ffffffffffffffffffffffffffffffffffffffff168152602001908152602001600020546118e190919063ffffffff16565b600260008473ffffffffffffffffffffffffffffffffffffffff1673ffffffffffffffffffffffffffffffffffffffff16815260200190815260200160002060003373ffffffffffffffffffffffffffffffffffffffff1673ffffffffffffffffffffffffffffffffffffffff168152602001908152602001600020819055506112e48282611916565b5050565b6000600360009054906101000a900473ffffffffffffffffffffffffffffffffffffffff1673ffffffffffffffffffffffffffffffffffffffff163373ffffffffffffffffffffffffffffffffffffffff1614151561134657600080fd5b600360149054906101000a900460ff1615151561136257600080fd5b6001600360146101000a81548160ff0219169083151502179055507fae5184fba832cb2b1f702aca6117b8d265eaf03ad33eb133f19dde0f5920fa0860405160405180910390a16001905090565b600360009054906101000a900473ffffffffffffffffffffffffffffffffffffffff1681565b60008060003373ffffffffffffffffffffffffffffffffffffffff1673ffffffffffffffffffffffffffffffffffffffff16815260200190815260200160002054821115151561142557600080fd5b600073ffffffffffffffffffffffffffffffffffffffff168373ffffffffffffffffffffffffffffffffffffffff161415151561146157600080fd5b6114b2826000803373ffffffffffffffffffffffffffffffffffffffff1673ffffffffffffffffffffffffffffffffffffffff168152602001908152602001600020546118e190919063ffffffff16565b6000803373ffffffffffffffffffffffffffffffffffffffff1673ffffffffffffffffffffffffffffffffffffffff16815260200190815260200160002081905550611545826000808673ffffffffffffffffffffffffffffffffffffffff1673ffffffffffffffffffffffffffffffffffffffff168152602001908152602001600020546118fa90919063ffffffff16565b6000808573ffffffffffffffffffffffffffffffffffffffff1673ffffffffffffffffffffffffffffffffffffffff168152602001908152602001600020819055508273ffffffffffffffffffffffffffffffffffffffff163373ffffffffffffffffffffffffffffffffffffffff167fddf252ad1be2c89b69c2b068fc378daa952ba7f163c4a11628f55a4df523b3ef846040518082815260200191505060405180910390a36001905092915050565b600061168782600260003373ffffffffffffffffffffffffffffffffffffffff1673ffffffffffffffffffffffffffffffffffffffff16815260200190815260200160002060008673ffffffffffffffffffffffffffffffffffffffff1673ffffffffffffffffffffffffffffffffffffffff168152602001908152602001600020546118fa90919063ffffffff16565b600260003373ffffffffffffffffffffffffffffffffffffffff1673ffffffffffffffffffffffffffffffffffffffff16815260200190815260200160002060008573ffffffffffffffffffffffffffffffffffffffff1673ffffffffffffffffffffffffffffffffffffffff168152602001908152602001600020819055508273ffffffffffffffffffffffffffffffffffffffff163373ffffffffffffffffffffffffffffffffffffffff167f8c5be1e5ebec7d5bd14f71427d1e84f3dd0314c0f7b2291e5b200ac8c7c3b925600260003373ffffffffffffffffffffffffffffffffffffffff1673ffffffffffffffffffffffffffffffffffffffff16815260200190815260200160002060008773ffffffffffffffffffffffffffffffffffffffff1673ffffffffffffffffffffffffffffffffffffffff168152602001908152602001600020546040518082815260200191505060405180910390a36001905092915050565b6000600260008473ffffffffffffffffffffffffffffffffffffffff1673ffffffffffffffffffffffffffffffffffffffff16815260200190815260200160002060008373ffffffffffffffffffffffffffffffffffffffff1673ffffffffffffffffffffffffffffffffffffffff16815260200190815260200160002054905092915050565b600360009054906101000a900473ffffffffffffffffffffffffffffffffffffffff1673ffffffffffffffffffffffffffffffffffffffff163373ffffffffffffffffffffffffffffffffffffffff161415156118d557600080fd5b6118de81611ac9565b50565b60008282111515156118ef57fe5b818303905092915050565b6000818301905082811015151561190d57fe5b80905092915050565b6000808373ffffffffffffffffffffffffffffffffffffffff1673ffffffffffffffffffffffffffffffffffffffff16815260200190815260200160002054811115151561196357600080fd5b6119b4816000808573ffffffffffffffffffffffffffffffffffffffff1673ffffffffffffffffffffffffffffffffffffffff168152602001908152602001600020546118e190919063ffffffff16565b6000808473ffffffffffffffffffffffffffffffffffffffff1673ffffffffffffffffffffffffffffffffffffffff16815260200190815260200160002081905550611a0b816001546118e190919063ffffffff16565b6001819055508173ffffffffffffffffffffffffffffffffffffffff167fcc16f5dbb4873280815c1ee09dbd06736cffcc184412cf7a71a0fdb75d397ca5826040518082815260200191505060405180910390a2600073ffffffffffffffffffffffffffffffffffffffff168273ffffffffffffffffffffffffffffffffffffffff167fddf252ad1be2c89b69c2b068fc378daa952ba7f163c4a11628f55a4df523b3ef836040518082815260200191505060405180910390a35050565b600073ffffffffffffffffffffffffffffffffffffffff168173ffffffffffffffffffffffffffffffffffffffff1614151515611b0557600080fd5b8073ffffffffffffffffffffffffffffffffffffffff16600360009054906101000a900473ffffffffffffffffffffffffffffffffffffffff1673ffffffffffffffffffffffffffffffffffffffff167f8be0079c531659141344cd1fd0a4f28419497f9722a3daafe3b4186f6b6457e060405160405180910390a380600360006101000a81548173ffffffffffffffffffffffffffffffffffffffff021916908373ffffffffffffffffffffffffffffffffffffffff160217905550505600a165627a7a7230582004effc4ace8cb42d643de5042c655d40c7ef03e5595721c9c7a9b0cb546ecce80029",
  "source": "pragma solidity 0.4.24;\nimport './TimedCrowdsale.sol';\nimport '../utility/SafeMath.sol';\nimport '../Project.sol';\nimport '../token/ERC20/GNIToken.sol';\n\ncontract GNITokenCrowdsale is TimedCrowdsale {\n  using SafeMath for uint256;\n  uint256 public totalValuation;\n\n  constructor\n      (\n        uint256 _openingTime,\n        uint256 _doomsDay,\n        uint256 _rate,\n        address _developer,\n        GNIToken _token\n      )\n      public\n      Crowdsale(_rate, _developer, _token)\n      TimedCrowdsale(_openingTime, _doomsDay) {\n          totalValuation = 0;\n  }\n\n  event LogVotes (\n    address voter,\n    uint256 projectId,\n    uint256 amount\n    );\n\n  address[] public projects;\n\n function pitchProject(string _name, address _manager, uint capitalRequired, uint256 _valuation, string _lat, string _lng) public payable {\n   (uint256 developerTokens, uint256 investorTokens) = tokensToIssue(_valuation, capitalRequired);\n\n   GNIToken(inactiveToken_).mint(developer, developerTokens.add(investorTokens));\n   totalValuation = totalValuation.add(_valuation);\n\n     // Increase crowdsale duation by 90 days\n   _extendDoomsDay(90);\n\n    uint256 _id = projects.length;\n    //the following line causes a migration error...\n    address projectAddr = new Project(_id, _name, _manager, address(this), _valuation, capitalRequired, developerTokens, investorTokens, _lat, _lng);\n    projects.push(projectAddr);\n    Project(projectAddr).log();\n }\n\n function tokensToIssue (uint256 valuation, uint256 investorValue) private view returns (uint256, uint256) {\n   uint256 developerValue = valuation.sub(investorValue);\n\n   return (developerValue.mul(rate), investorValue.mul(rate));\n }\n\n function buyTokensAndVote (uint256 _projectVotedForId) public payable {\n   //add require statement that makes sure the projet isnt already active\n   buyTokens(msg.sender);\n   updateInvestor(_projectVotedForId);\n   Project(projects[_projectVotedForId]).update(msg.value);\n }\n\n struct Investor {\n   address addr;\n   uint256 id;\n   uint256 voteCredit;\n   //maps from projectId to number of votes for that project\n   mapping(uint256 => uint256) votes;\n }\n\n Investor[] public investors;\n mapping(address => uint256) internal investorIds;\n\n function updateInvestor (uint256 _projectId) private {\n   if (investorIds[msg.sender] == 0) {\n     Investor memory newInvestor;\n\n     newInvestor.addr = msg.sender;\n\n     uint256 id = investors.length;\n     newInvestor.id = id;\n     investorIds[msg.sender] = id;\n\n     investors.push(newInvestor);\n   }\n\n   updateInvestorVotes(_projectId);\n }\n\n function updateInvestorVotes(uint256 _projectId) internal {\n   investors[investorIds[msg.sender]].votes[_projectId] = investors[investorIds[msg.sender]].votes[_projectId].add(msg.value);\n   emit LogVotes(msg.sender, _projectId, msg.value);\n }\n\n function _extendDoomsDay(uint256 _days) internal onlyWhileOpen {\n    doomsDay = doomsDay.add(_days.mul(1728000));\n }\n\n function activateProject() public {\n    (uint256 projectId, bool canActivate) = projectToActivateDetails();\n\n    if(canActivate){\n      Project project = Project(projects[projectId]);\n\n      uint256 developerTokens = project.developerTokens_();\n      GNIToken(inactiveToken_).burnFrom(developer, developerTokens);\n      GNIToken(activeToken_).mint(developer, developerTokens);\n      updateInvestors(project.investorTokens_(), projectId);\n\n      forwardFunds(developer, project.capitalRequired_());\n      project.activate();\n    }\n  }\n\n  function projectToActivateDetails() private returns (uint256, bool) {\n    uint256 leadingProjectId;\n    bool candidateFound = false;\n\n    for(uint256 i = 0; i < projects.length; i = i.add(1)) {\n      if (Project(projects[i]).beats(projects[leadingProjectId])) {\n        leadingProjectId = i;\n        candidateFound = true;\n      }\n    }\n\n    return (leadingProjectId, candidateFound && Project(projects[leadingProjectId]).capitalRequired_() <= weiRaised);\n  }\n\n  function updateInvestors (uint256 tokens, uint256 projectId) private {\n    uint256 supply = GNIToken(inactiveToken_).totalSupply().sub(GNIToken(inactiveToken_).balanceOf(developer));\n    uint256 activationDivisor = supply.div(tokens);\n\n    for (uint256 i = 0; i <= investors.length; i = i.add(1)) {\n      Investor storage investor = investors[i];\n\n      uint256 tokensToActivate = GNIToken(inactiveToken_).balanceOf(investor.addr).div(activationDivisor);\n      GNIToken(inactiveToken_).burnFrom(investor.addr, tokensToActivate);\n      GNIToken(activeToken_).mint(investor.addr, tokensToActivate);\n\n      uint256 voteCredit = investor.votes[projectId];\n      investor.votes[projectId] = 0;\n      investor.voteCredit = investor.voteCredit.add(voteCredit);\n    }\n  }\n\n  function forwardFunds (address _to, uint256 amount) internal {\n    _to.transfer(amount);\n    weiRaised = weiRaised.sub(amount);\n  }\n\n  //we want this to be called on intervals\n  function distributeDividends () external {\n    //store the total amount of wei in a variable\n    //iterate through each investor.\n    //divide the total active tokens by the number of active investor tokens.\n    //divide the total wei by the resulting number to find out how much to wei to transfer\n    uint256 activeTokens = GNIToken(activeToken_).totalSupply();\n    uint256 profits = address(this).balance.sub(weiRaised);\n\n    for (uint256 i = 0; i <= investors.length; i = i.add(1)) {\n      Investor storage investor = investors[i];\n      grantDividend(investor.addr, activeTokens, profits);\n    }\n\n    grantDividend(developer, activeTokens, profits);\n  }\n\n  function grantDividend (address investor, uint256 activeTokens, uint256 profits) private {\n    uint256 investorShare = activeTokens.div(GNIToken(activeToken_).balanceOf(investor));\n    uint256 dividend = profits.div(investorShare);\n    investor.transfer(dividend);\n  }\n}\n",
  "sourcePath": "/Users/steven/genie-portal/truffle/contracts/crowdsale/GNITokenCrowdsale.sol",
  "compiler": {
    "name": "solc",
    "version": "0.4.24+commit.e67f0147.Emscripten.clang"
  },
  "schemaVersion": "2.0.1",
  "updatedAt": "2018-10-20T01:38:56.856Z"
}