{
  "contractName": "GNITokenCrowdsale",
  "abi": [
    {
      "constant": true,
      "inputs": [],
      "name": "hasClosed",
      "outputs": [
        {
          "name": "",
          "type": "bool"
        }
      ],
      "payable": false,
      "stateMutability": "view",
      "type": "function"
    },
    {
      "constant": true,
      "inputs": [],
      "name": "developerWallet",
      "outputs": [
        {
          "name": "",
          "type": "address"
        }
      ],
      "payable": false,
      "stateMutability": "view",
      "type": "function"
    },
    {
      "constant": true,
      "inputs": [],
      "name": "totalValuation",
      "outputs": [
        {
          "name": "",
          "type": "uint256"
        }
      ],
      "payable": false,
      "stateMutability": "view",
      "type": "function"
    },
    {
      "constant": true,
      "inputs": [],
      "name": "rate",
      "outputs": [
        {
          "name": "",
          "type": "uint256"
        }
      ],
      "payable": false,
      "stateMutability": "view",
      "type": "function"
    },
    {
      "constant": true,
      "inputs": [],
      "name": "cap",
      "outputs": [
        {
          "name": "",
          "type": "uint256"
        }
      ],
      "payable": false,
      "stateMutability": "view",
      "type": "function"
    },
    {
      "constant": true,
      "inputs": [],
      "name": "weiRaised",
      "outputs": [
        {
          "name": "",
          "type": "uint256"
        }
      ],
      "payable": false,
      "stateMutability": "view",
      "type": "function"
    },
    {
      "constant": true,
      "inputs": [],
      "name": "capReached",
      "outputs": [
        {
          "name": "",
          "type": "bool"
        }
      ],
      "payable": false,
      "stateMutability": "view",
      "type": "function"
    },
    {
      "constant": true,
      "inputs": [],
      "name": "wallet",
      "outputs": [
        {
          "name": "",
          "type": "address"
        }
      ],
      "payable": false,
      "stateMutability": "view",
      "type": "function"
    },
    {
      "constant": true,
      "inputs": [],
      "name": "openingTime",
      "outputs": [
        {
          "name": "",
          "type": "uint256"
        }
      ],
      "payable": false,
      "stateMutability": "view",
      "type": "function"
    },
    {
      "constant": true,
      "inputs": [],
      "name": "doomsDay",
      "outputs": [
        {
          "name": "",
          "type": "uint256"
        }
      ],
      "payable": false,
      "stateMutability": "view",
      "type": "function"
    },
    {
      "constant": true,
      "inputs": [],
      "name": "token",
      "outputs": [
        {
          "name": "",
          "type": "address"
        }
      ],
      "payable": false,
      "stateMutability": "view",
      "type": "function"
    },
    {
      "inputs": [
        {
          "name": "_openingTime",
          "type": "uint256"
        },
        {
          "name": "_doomsDay",
          "type": "uint256"
        },
        {
          "name": "_rate",
          "type": "uint256"
        },
        {
          "name": "_wallet",
          "type": "address"
        },
        {
          "name": "_developerWallet",
          "type": "address"
        },
        {
          "name": "_cap",
          "type": "uint256"
        },
        {
          "name": "_token",
          "type": "address"
        }
      ],
      "payable": false,
      "stateMutability": "nonpayable",
      "type": "constructor"
    },
    {
      "payable": true,
      "stateMutability": "payable",
      "type": "fallback"
    },
    {
      "anonymous": false,
      "inputs": [
        {
          "indexed": false,
          "name": "name",
          "type": "string"
        },
        {
          "indexed": false,
          "name": "valuation",
          "type": "uint256"
        },
        {
          "indexed": false,
          "name": "capitalRequired",
          "type": "uint256"
        },
        {
          "indexed": false,
          "name": "lat",
          "type": "string"
        },
        {
          "indexed": false,
          "name": "lng",
          "type": "string"
        },
        {
          "indexed": false,
          "name": "voteCount",
          "type": "uint256"
        },
        {
          "indexed": false,
          "name": "capitalReached",
          "type": "bool"
        },
        {
          "indexed": false,
          "name": "active",
          "type": "bool"
        }
      ],
      "name": "LogProject",
      "type": "event"
    },
    {
      "anonymous": false,
      "inputs": [
        {
          "indexed": true,
          "name": "purchaser",
          "type": "address"
        },
        {
          "indexed": true,
          "name": "beneficiary",
          "type": "address"
        },
        {
          "indexed": false,
          "name": "value",
          "type": "uint256"
        },
        {
          "indexed": false,
          "name": "amount",
          "type": "uint256"
        }
      ],
      "name": "TokenPurchase",
      "type": "event"
    },
    {
      "constant": true,
      "inputs": [
        {
          "name": "_name",
          "type": "string"
        }
      ],
      "name": "getProjectInfo",
      "outputs": [
        {
          "name": "",
          "type": "string"
        },
        {
          "name": "",
          "type": "uint256"
        },
        {
          "name": "",
          "type": "uint256"
        },
        {
          "name": "",
          "type": "bool"
        },
        {
          "name": "",
          "type": "uint256"
        }
      ],
      "payable": false,
      "stateMutability": "view",
      "type": "function"
    },
    {
      "constant": false,
      "inputs": [
        {
          "name": "_name",
          "type": "string"
        },
        {
          "name": "capitalRequired",
          "type": "uint256"
        },
        {
          "name": "_valuation",
          "type": "uint256"
        },
        {
          "name": "_lat",
          "type": "string"
        },
        {
          "name": "_lng",
          "type": "string"
        }
      ],
      "name": "pitchProject",
      "outputs": [],
      "payable": true,
      "stateMutability": "payable",
      "type": "function"
    },
    {
      "constant": false,
      "inputs": [
        {
          "name": "_projectName",
          "type": "string"
        }
      ],
      "name": "buyTokens",
      "outputs": [],
      "payable": true,
      "stateMutability": "payable",
      "type": "function"
    },
    {
      "constant": false,
      "inputs": [
        {
          "name": "_beneficiary",
          "type": "address"
        }
      ],
      "name": "buyTokens",
      "outputs": [],
      "payable": true,
      "stateMutability": "payable",
      "type": "function"
    },
    {
      "constant": false,
      "inputs": [
        {
          "name": "_projectName",
          "type": "string"
        }
      ],
      "name": "updateProjectVotedFor",
      "outputs": [],
      "payable": false,
      "stateMutability": "nonpayable",
      "type": "function"
    },
    {
      "constant": false,
      "inputs": [
        {
          "name": "_projectValue",
          "type": "uint256"
        }
      ],
      "name": "pitchProjectandRaiseCap",
      "outputs": [],
      "payable": false,
      "stateMutability": "nonpayable",
      "type": "function"
    }
  ],
  "bytecode": "0x608060405234801561001057600080fd5b5060405160e080611ce28339810180604052810190808051906020019092919080519060200190929190805190602001909291908051906020019092919080519060200190929190805190602001909291908051906020019092919050505081878787878560008311151561008457600080fd5b600073ffffffffffffffffffffffffffffffffffffffff168273ffffffffffffffffffffffffffffffffffffffff16141515156100c057600080fd5b600073ffffffffffffffffffffffffffffffffffffffff168173ffffffffffffffffffffffffffffffffffffffff16141515156100fc57600080fd5b8260028190555081600160006101000a81548173ffffffffffffffffffffffffffffffffffffffff021916908373ffffffffffffffffffffffffffffffffffffffff160217905550806000806101000a81548173ffffffffffffffffffffffffffffffffffffffff021916908373ffffffffffffffffffffffffffffffffffffffff16021790555050505042821015151561019657600080fd5b8181101515156101a557600080fd5b816004819055508060058190555050508060068190555050600060088190555082600760006101000a81548173ffffffffffffffffffffffffffffffffffffffff021916908373ffffffffffffffffffffffffffffffffffffffff16021790555050505050505050611ac68061021c6000396000f3006080604052600436106100f1576000357c0100000000000000000000000000000000000000000000000000000000900463ffffffff1680631515bc2b146100fc578063185870f91461012b578063295b9300146101825780632c4e722e146101ad578063355274ea146101d85780634042b66f146102035780634f9359451461022e578063521eb2731461025d578063629dcf11146102b457806365af1672146102e15780636f85e62c146103dd578063753e9d7614610439578063b7a8807c146104a2578063c19b7bc0146104cd578063ec8ac4d8146104f8578063f339118d1461052e578063fc0c546a14610630575b6100fa33610687565b005b34801561010857600080fd5b50610111610755565b604051808215151515815260200191505060405180910390f35b34801561013757600080fd5b50610140610761565b604051808273ffffffffffffffffffffffffffffffffffffffff1673ffffffffffffffffffffffffffffffffffffffff16815260200191505060405180910390f35b34801561018e57600080fd5b50610197610787565b6040518082815260200191505060405180910390f35b3480156101b957600080fd5b506101c261078d565b6040518082815260200191505060405180910390f35b3480156101e457600080fd5b506101ed610793565b6040518082815260200191505060405180910390f35b34801561020f57600080fd5b50610218610799565b6040518082815260200191505060405180910390f35b34801561023a57600080fd5b5061024361079f565b604051808215151515815260200191505060405180910390f35b34801561026957600080fd5b506102726107ae565b604051808273ffffffffffffffffffffffffffffffffffffffff1673ffffffffffffffffffffffffffffffffffffffff16815260200191505060405180910390f35b3480156102c057600080fd5b506102df600480360381019080803590602001909291905050506107d4565b005b6103db600480360381019080803590602001908201803590602001908080601f01602080910402602001604051908101604052809392919081815260200183838082843782019150505050505091929192908035906020019092919080359060200190929190803590602001908201803590602001908080601f0160208091040260200160405190810160405280939291908181526020018383808284378201915050505050509192919290803590602001908201803590602001908080601f01602080910402602001604051908101604052809392919081815260200183838082843782019150505050505091929192905050506109fa565b005b610437600480360381019080803590602001908201803590602001908080601f0160208091040260200160405190810160405280939291908181526020018383808284378201915050505050509192919290505050610d5f565b005b34801561044557600080fd5b506104a0600480360381019080803590602001908201803590602001908080601f0160208091040260200160405190810160405280939291908181526020018383808284378201915050505050509192919290505050610ecd565b005b3480156104ae57600080fd5b506104b76111a9565b6040518082815260200191505060405180910390f35b3480156104d957600080fd5b506104e26111af565b6040518082815260200191505060405180910390f35b61052c600480360381019080803573ffffffffffffffffffffffffffffffffffffffff169060200190929190505050610687565b005b34801561053a57600080fd5b50610595600480360381019080803590602001908201803590602001908080601f01602080910402602001604051908101604052809392919081815260200183838082843782019150505050505091929192905050506111b5565b604051808060200186815260200185815260200184151515158152602001838152602001828103825287818151815260200191508051906020019080838360005b838110156105f15780820151818401526020810190506105d6565b50505050905090810190601f16801561061e5780820380516001836020036101000a031916815260200191505b50965050505050505060405180910390f35b34801561063c57600080fd5b506106456114b4565b604051808273ffffffffffffffffffffffffffffffffffffffff1673ffffffffffffffffffffffffffffffffffffffff16815260200191505060405180910390f35b60008034915061069783836114d9565b6106a08261150c565b90506106b78260035461152a90919063ffffffff16565b6003819055506106c78382611546565b8273ffffffffffffffffffffffffffffffffffffffff163373ffffffffffffffffffffffffffffffffffffffff167f623b3804fa71d67900d064613da8f94b9617215ee90799290593e1745087ad188484604051808381526020018281526020019250505060405180910390a361073e8383611554565b610746611558565b61075083836115c3565b505050565b60006005544211905090565b600760009054906101000a900473ffffffffffffffffffffffffffffffffffffffff1681565b60085481565b60025481565b60065481565b60035481565b60006006546003541015905090565b600160009054906101000a900473ffffffffffffffffffffffffffffffffffffffff1681565b60008060006103e892506000809054906101000a900473ffffffffffffffffffffffffffffffffffffffff1673ffffffffffffffffffffffffffffffffffffffff166340c10f19600160009054906101000a900473ffffffffffffffffffffffffffffffffffffffff16856040518363ffffffff167c0100000000000000000000000000000000000000000000000000000000028152600401808373ffffffffffffffffffffffffffffffffffffffff1673ffffffffffffffffffffffffffffffffffffffff16815260200182815260200192505050602060405180830381600087803b1580156108c457600080fd5b505af11580156108d8573d6000803e3d6000fd5b505050506040513d60208110156108ee57600080fd5b8101908080519060200190929190505050506000809054906101000a900473ffffffffffffffffffffffffffffffffffffffff1673ffffffffffffffffffffffffffffffffffffffff166318160ddd6040518163ffffffff167c0100000000000000000000000000000000000000000000000000000000028152600401602060405180830381600087803b15801561098557600080fd5b505af1158015610999573d6000803e3d6000fd5b505050506040513d60208110156109af57600080fd5b810190808051906020019092919050505091506109d78460065461152a90919063ffffffff16565b600681905550816006548115156109ea57fe5b0490508060028190555050505050565b610a026119a4565b610a0b846115c7565b610a208460085461152a90919063ffffffff16565b600881905550610a30605a611706565b6101206040519081016040528087815260200163013d23804201815260200185815260200186815260200184815260200183815260200160008152602001600015158152602001600015158152509050806009876040518082805190602001908083835b602083101515610ab95780518252602082019150602081019050602083039250610a94565b6001836020036101000a03801982511681845116808217855250505050505090500191505090815260200160405180910390206000820151816000019080519060200190610b089291906119f5565b506020820151816001015560408201518160020155606082015181600301556080820151816004019080519060200190610b439291906119f5565b5060a0820151816005019080519060200190610b609291906119f5565b5060c0820151816006015560e08201518160070160006101000a81548160ff0219169083151502179055506101008201518160070160016101000a81548160ff0219169083151502179055509050507f5c483cef42dc819af5a97db071c1a233161605e876a45a0991b781f18d47e4ae8685878686600080600060405180806020018981526020018881526020018060200180602001878152602001861515151581526020018515151515815260200184810384528c818151815260200191508051906020019080838360005b83811015610c48578082015181840152602081019050610c2d565b50505050905090810190601f168015610c755780820380516001836020036101000a031916815260200191505b50848103835289818151815260200191508051906020019080838360005b83811015610cae578082015181840152602081019050610c93565b50505050905090810190601f168015610cdb5780820380516001836020036101000a031916815260200191505b50848103825288818151815260200191508051906020019080838360005b83811015610d14578082015181840152602081019050610cf9565b50505050905090810190601f168015610d415780820380516001836020036101000a031916815260200191505b509b50505050505050505050505060405180910390a1505050505050565b600080349150610d6f33836114d9565b610d788261150c565b9050610d8f8260035461152a90919063ffffffff16565b6003819055506000809054906101000a900473ffffffffffffffffffffffffffffffffffffffff1673ffffffffffffffffffffffffffffffffffffffff1663bec3fa17600160009054906101000a900473ffffffffffffffffffffffffffffffffffffffff16836040518363ffffffff167c0100000000000000000000000000000000000000000000000000000000028152600401808373ffffffffffffffffffffffffffffffffffffffff1673ffffffffffffffffffffffffffffffffffffffff16815260200182815260200192505050602060405180830381600087803b158015610e7b57600080fd5b505af1158015610e8f573d6000803e3d6000fd5b505050506040513d6020811015610ea557600080fd5b810190808051906020019092919050505050610ec083610ecd565b610ec8611558565b505050565b610ed56119a4565b6009826040518082805190602001908083835b602083101515610f0d5780518252602082019150602081019050602083039250610ee8565b6001836020036101000a03801982511681845116808217855250505050505090500191505090815260200160405180910390206101206040519081016040529081600082018054600181600116156101000203166002900480601f016020809104026020016040519081016040528092919081815260200182805460018160011615610100020316600290048015610fe65780601f10610fbb57610100808354040283529160200191610fe6565b820191906000526020600020905b815481529060010190602001808311610fc957829003601f168201915b50505050508152602001600182015481526020016002820154815260200160038201548152602001600482018054600181600116156101000203166002900480601f0160208091040260200160405190810160405280929190818152602001828054600181600116156101000203166002900480156110a65780601f1061107b576101008083540402835291602001916110a6565b820191906000526020600020905b81548152906001019060200180831161108957829003601f168201915b50505050508152602001600582018054600181600116156101000203166002900480601f0160208091040260200160405190810160405280929190818152602001828054600181600116156101000203166002900480156111485780601f1061111d57610100808354040283529160200191611148565b820191906000526020600020905b81548152906001019060200180831161112b57829003601f168201915b50505050508152602001600682015481526020016007820160009054906101000a900460ff161515151581526020016007820160019054906101000a900460ff161515151581525050905061119c8161176d565b6111a581611791565b5050565b60045481565b60055481565b60606000806000806111c56119a4565b6009876040518082805190602001908083835b6020831015156111fd57805182526020820191506020810190506020830392506111d8565b6001836020036101000a03801982511681845116808217855250505050505090500191505090815260200160405180910390206101206040519081016040529081600082018054600181600116156101000203166002900480601f0160208091040260200160405190810160405280929190818152602001828054600181600116156101000203166002900480156112d65780601f106112ab576101008083540402835291602001916112d6565b820191906000526020600020905b8154815290600101906020018083116112b957829003601f168201915b50505050508152602001600182015481526020016002820154815260200160038201548152602001600482018054600181600116156101000203166002900480601f0160208091040260200160405190810160405280929190818152602001828054600181600116156101000203166002900480156113965780601f1061136b57610100808354040283529160200191611396565b820191906000526020600020905b81548152906001019060200180831161137957829003601f168201915b50505050508152602001600582018054600181600116156101000203166002900480601f0160208091040260200160405190810160405280929190818152602001828054600181600116156101000203166002900480156114385780601f1061140d57610100808354040283529160200191611438565b820191906000526020600020905b81548152906001019060200180831161141b57829003601f168201915b50505050508152602001600682015481526020016007820160009054906101000a900460ff161515151581526020016007820160019054906101000a900460ff16151515158152505090508060000151816040015182606001518361010001518460c00151849450955095509550955095505091939590929450565b6000809054906101000a900473ffffffffffffffffffffffffffffffffffffffff1681565b6114e382826117b6565b6006546114fb8260035461152a90919063ffffffff16565b1115151561150857600080fd5b5050565b6000611523600254836117f890919063ffffffff16565b9050919050565b6000818301905082811015151561153d57fe5b80905092915050565b6115508282611830565b5050565b5050565b600160009054906101000a900473ffffffffffffffffffffffffffffffffffffffff1673ffffffffffffffffffffffffffffffffffffffff166108fc349081150290604051600060405180830381858888f193505050501580156115c0573d6000803e3d6000fd5b50565b5050565b60006115de6002548361193e90919063ffffffff16565b90506000809054906101000a900473ffffffffffffffffffffffffffffffffffffffff1673ffffffffffffffffffffffffffffffffffffffff166340c10f19600160009054906101000a900473ffffffffffffffffffffffffffffffffffffffff16836040518363ffffffff167c0100000000000000000000000000000000000000000000000000000000028152600401808373ffffffffffffffffffffffffffffffffffffffff1673ffffffffffffffffffffffffffffffffffffffff16815260200182815260200192505050602060405180830381600087803b1580156116c657600080fd5b505af11580156116da573d6000803e3d6000fd5b505050506040513d60208110156116f057600080fd5b8101908080519060200190929190505050505050565b600080600042925060045491506005549050600454421015801561172c57506005544211155b151561173757600080fd5b611761611750621a5e00866117f890919063ffffffff16565b60055461152a90919063ffffffff16565b60058190555050505050565b61178560018260c0015161152a90919063ffffffff16565b8160c001818152505050565b6117aa61a8c0826020015161152a90919063ffffffff16565b81602001818152505050565b60008060004292506004549150600554905060045442101580156117dc57506005544211155b15156117e757600080fd5b6117f18585611954565b5050505050565b60008083141561180b576000905061182a565b818302905081838281151561181c57fe5b0414151561182657fe5b8090505b92915050565b6000809054906101000a900473ffffffffffffffffffffffffffffffffffffffff1673ffffffffffffffffffffffffffffffffffffffff166340c10f1983836040518363ffffffff167c0100000000000000000000000000000000000000000000000000000000028152600401808373ffffffffffffffffffffffffffffffffffffffff1673ffffffffffffffffffffffffffffffffffffffff16815260200182815260200192505050602060405180830381600087803b1580156118f457600080fd5b505af1158015611908573d6000803e3d6000fd5b505050506040513d602081101561191e57600080fd5b8101908080519060200190929190505050151561193a57600080fd5b5050565b6000818381151561194b57fe5b04905092915050565b600073ffffffffffffffffffffffffffffffffffffffff168273ffffffffffffffffffffffffffffffffffffffff161415151561199057600080fd5b600081141515156119a057600080fd5b5050565b61012060405190810160405280606081526020016000815260200160008152602001600081526020016060815260200160608152602001600081526020016000151581526020016000151581525090565b828054600181600116156101000203166002900490600052602060002090601f016020900481019282601f10611a3657805160ff1916838001178555611a64565b82800160010185558215611a64579182015b82811115611a63578251825591602001919060010190611a48565b5b509050611a719190611a75565b5090565b611a9791905b80821115611a93576000816000905550600101611a7b565b5090565b905600a165627a7a72305820fe856bd3e97f5d7217d81c6edfbafc87f597f38eef9645a728a724f8a01641bd0029",
  "source": "pragma solidity 0.4.24;\n\nimport '../token/GNIToken.sol';\nimport './MintedCrowdsale.sol';\nimport './TimedCrowdsale.sol';\nimport './CappedCrowdsale.sol';\nimport '../utility/SafeMath.sol';\n\ncontract GNITokenCrowdsale is TimedCrowdsale, CappedCrowdsale,  MintedCrowdsale {\n    using SafeMath for uint256;\n    address public developerWallet;\n    uint256 public totalValuation;\n\n    constructor\n        (\n          uint256 _openingTime,\n          uint256 _doomsDay,\n          uint256 _rate,\n          address _wallet,\n          address _developerWallet,\n          uint256 _cap,\n          MintableToken _token\n        )\n        public\n        Crowdsale(_rate, _wallet, _token)\n        //remove capped crowdsale\n        CappedCrowdsale(_cap)\n        TimedCrowdsale(_openingTime, _doomsDay) {\n            // rewriting wallet to this will not work in contructor\n            totalValuation = 0;\n            developerWallet = _developerWallet;\n        }\n\n        struct Project {\n            string name;\n            uint256 closingTime;\n            uint256 valuation;\n            uint256 capitalRequired;\n            string lat;\n            string lng;\n            uint256 voteCount;\n            bool capitalReached;\n            bool active;\n        }\n\n        event LogProject (\n            string name,\n            uint256 valuation,\n            uint256 capitalRequired,\n            string lat,\n            string lng,\n            uint256 voteCount,\n            bool capitalReached,\n            bool active\n        );\n\n\n        mapping(string => Project) private projects;\n\n\n         function getProjectInfo(string _name) public view returns(\n             string, uint256, uint256, bool, uint256\n\n         ) {\n             Project memory project = projects[_name];\n             return (\n                 project.name,\n                 project.valuation,\n                 project.capitalRequired,\n                 project.active,\n                 project.voteCount\n             );\n         }\n\n\n         // all tokens go to developerWallet!\n         function pitchProject(string _name, uint capitalRequired, uint _valuation, string _lat, string _lng) public payable {\n            issueTokensBasedOnPrice(_valuation);\n\n             totalValuation = totalValuation.add(_valuation);\n\n             // Increase crowdsale duation by 90 days\n             _extendDoomsDay(90);\n\n             // Create project information\n             Project memory newProject = Project({\n                 name: _name,\n                 closingTime: now + 86600 * 240,\n                 valuation: _valuation,\n                 capitalRequired: capitalRequired,\n                 lat: _lat,\n                 lng: _lng,\n                 capitalReached: false,\n                 active: false,\n                 voteCount: 0\n             });\n\n             // Save project information\n             projects[_name] = newProject;\n\n\n\n             // log the creation of the new project\n             emit LogProject(_name, _valuation, capitalRequired, _lat, _lng, 0, false, false);\n         }\n\n         function issueTokensBasedOnPrice(uint256 valuation) private {\n           uint tokensToIssue = valuation.div(rate);\n\n           GNIToken(token).mint(wallet, tokensToIssue); // change logic to only issue if cap is reached\n         }\n\n         //remove beneficiary, just have sender, value, projectName\n         //this overrides buyTokens in Crowdsale\n         function buyTokens(string _projectName) public payable {\n             // Can we change this to msg.sender so that there is not option to buy on behalf of someone else;\n\n             // before buyToken, verify that the project is still undeployed\n             uint256 weiAmount = msg.value;\n\n             _preValidatePurchase(msg.sender, weiAmount);\n\n             uint256 tokenAmount = _getTokenAmount(weiAmount);\n\n             weiRaised = weiRaised.add(weiAmount);\n\n             GNIToken(token).transferTokens(wallet, tokenAmount);\n\n             updateProjectVotedFor(_projectName);\n\n             _forwardFunds();\n         }\n\n         function updateProjectVotedFor(string _projectName) {\n           Project memory _projectVotedFor = projects[_projectName];\n\n           updateVoteCount(_projectVotedFor);\n           extendProjectClosingTime(_projectVotedFor);\n         }\n\n         function updateVoteCount(Project _projectVotedFor) internal {\n             _projectVotedFor.voteCount = _projectVotedFor.voteCount.add(1);\n         }\n\n         // All Project addresses\n         struct ProjectAddress {\n             string location;\n             bool deployed;\n         }\n\n        function pitchProjectandRaiseCap(uint256 _projectValue) public {\n          uint newTokensIssued = 1000;\n          GNIToken(token).mint(wallet, newTokensIssued); // change logic to only issue if cap is reached\n          uint updatedTotalSupply = GNIToken(token).totalSupply();\n          cap = cap.add(_projectValue);\n          uint newRate = cap/updatedTotalSupply;\n          rate = newRate;\n        }\n\n        modifier onlyDeveloper() {\n          require(msg.sender == developerWallet);\n          _;\n        }\n\n        function extendProjectClosingTime(Project _project) internal {\n          _project.closingTime = _project.closingTime.add(43200);\n        }\n\n        function _extendDoomsDay(uint256 _days) internal onlyWhileOpen {\n            doomsDay = doomsDay.add(_days.mul(1728000));\n        }\n\n}\n",
  "sourcePath": "/Users/matthewsteele/Desktop/ProjectFolder/genie-portal/truffle/contracts/crowdsale/GNITokenCrowdsale.sol",
  "compiler": {
    "name": "solc",
    "version": "0.4.24+commit.e67f0147.Emscripten.clang"
  },
  "schemaVersion": "2.0.1",
  "updatedAt": "2018-10-15T19:30:17.440Z"
}