{
  "contractName": "GNITokenCrowdsale",
  "abi": [
    {
      "constant": true,
      "inputs": [],
      "name": "hasClosed",
      "outputs": [
        {
          "name": "",
          "type": "bool"
        }
      ],
      "payable": false,
      "stateMutability": "view",
      "type": "function",
      "signature": "0x1515bc2b"
    },
    {
      "constant": true,
      "inputs": [],
      "name": "totalValuation",
      "outputs": [
        {
          "name": "",
          "type": "uint256"
        }
      ],
      "payable": false,
      "stateMutability": "view",
      "type": "function",
      "signature": "0x295b9300"
    },
    {
      "constant": true,
      "inputs": [],
      "name": "rate",
      "outputs": [
        {
          "name": "",
          "type": "uint256"
        }
      ],
      "payable": false,
      "stateMutability": "view",
      "type": "function",
      "signature": "0x2c4e722e"
    },
    {
      "constant": true,
      "inputs": [],
      "name": "weiRaised",
      "outputs": [
        {
          "name": "",
          "type": "uint256"
        }
      ],
      "payable": false,
      "stateMutability": "view",
      "type": "function",
      "signature": "0x4042b66f"
    },
    {
      "constant": true,
      "inputs": [
        {
          "name": "",
          "type": "uint256"
        }
      ],
      "name": "projectAddrs",
      "outputs": [
        {
          "name": "",
          "type": "address"
        }
      ],
      "payable": false,
      "stateMutability": "view",
      "type": "function",
      "signature": "0x4e4c08ca"
    },
    {
      "constant": true,
      "inputs": [],
      "name": "openingTime",
      "outputs": [
        {
          "name": "",
          "type": "uint256"
        }
      ],
      "payable": false,
      "stateMutability": "view",
      "type": "function",
      "signature": "0xb7a8807c"
    },
    {
      "constant": true,
      "inputs": [],
      "name": "doomsDay",
      "outputs": [
        {
          "name": "",
          "type": "uint256"
        }
      ],
      "payable": false,
      "stateMutability": "view",
      "type": "function",
      "signature": "0xc19b7bc0"
    },
    {
      "constant": true,
      "inputs": [],
      "name": "developer",
      "outputs": [
        {
          "name": "",
          "type": "address"
        }
      ],
      "payable": false,
      "stateMutability": "view",
      "type": "function",
      "signature": "0xca4b208b"
    },
    {
      "constant": false,
      "inputs": [
        {
          "name": "_beneficiary",
          "type": "address"
        }
      ],
      "name": "buyTokens",
      "outputs": [
        {
          "name": "",
          "type": "uint256"
        }
      ],
      "payable": true,
      "stateMutability": "payable",
      "type": "function",
      "signature": "0xec8ac4d8"
    },
    {
      "constant": true,
      "inputs": [],
      "name": "token",
      "outputs": [
        {
          "name": "",
          "type": "address"
        }
      ],
      "payable": false,
      "stateMutability": "view",
      "type": "function",
      "signature": "0xfc0c546a"
    },
    {
      "inputs": [
        {
          "name": "_openingTime",
          "type": "uint256"
        },
        {
          "name": "_doomsDay",
          "type": "uint256"
        },
        {
          "name": "_rate",
          "type": "uint256"
        },
        {
          "name": "_developer",
          "type": "address"
        },
        {
          "name": "_token",
          "type": "address"
        },
        {
          "name": "_investorList",
          "type": "address"
        },
        {
          "name": "_projectQueue",
          "type": "address"
        }
      ],
      "payable": false,
      "stateMutability": "nonpayable",
      "type": "constructor",
      "signature": "constructor"
    },
    {
      "payable": true,
      "stateMutability": "payable",
      "type": "fallback"
    },
    {
      "anonymous": false,
      "inputs": [
        {
          "indexed": true,
          "name": "purchaser",
          "type": "address"
        },
        {
          "indexed": true,
          "name": "beneficiary",
          "type": "address"
        },
        {
          "indexed": false,
          "name": "value",
          "type": "uint256"
        },
        {
          "indexed": false,
          "name": "amount",
          "type": "uint256"
        }
      ],
      "name": "TokenPurchase",
      "type": "event",
      "signature": "0x623b3804fa71d67900d064613da8f94b9617215ee90799290593e1745087ad18"
    },
    {
      "constant": false,
      "inputs": [
        {
          "name": "_name",
          "type": "string"
        },
        {
          "name": "capitalRequired",
          "type": "uint256"
        },
        {
          "name": "_valuation",
          "type": "uint256"
        },
        {
          "name": "_lat",
          "type": "string"
        },
        {
          "name": "_lng",
          "type": "string"
        }
      ],
      "name": "pitchProject",
      "outputs": [],
      "payable": false,
      "stateMutability": "nonpayable",
      "type": "function",
      "signature": "0x65af1672"
    },
    {
      "constant": false,
      "inputs": [
        {
          "name": "_projectVotedForId",
          "type": "uint256"
        }
      ],
      "name": "buyTokensAndVote",
      "outputs": [],
      "payable": true,
      "stateMutability": "payable",
      "type": "function",
      "signature": "0x589679c7"
    },
    {
      "constant": false,
      "inputs": [
        {
          "name": "fromProjectId",
          "type": "uint256"
        },
        {
          "name": "toProjectId",
          "type": "uint256"
        },
        {
          "name": "votes",
          "type": "uint256"
        }
      ],
      "name": "transferVotes",
      "outputs": [],
      "payable": false,
      "stateMutability": "nonpayable",
      "type": "function",
      "signature": "0x2c77b93d"
    },
    {
      "constant": false,
      "inputs": [
        {
          "name": "fromProjectId",
          "type": "uint256"
        },
        {
          "name": "votes",
          "type": "uint256"
        }
      ],
      "name": "addVoteCredit",
      "outputs": [],
      "payable": false,
      "stateMutability": "nonpayable",
      "type": "function",
      "signature": "0x3fff9064"
    },
    {
      "constant": false,
      "inputs": [
        {
          "name": "toProjectId",
          "type": "uint256"
        },
        {
          "name": "votes",
          "type": "uint256"
        }
      ],
      "name": "voteWithCredit",
      "outputs": [],
      "payable": false,
      "stateMutability": "nonpayable",
      "type": "function",
      "signature": "0x340945cf"
    }
  ],
  "bytecode": "0x608060405234801561001057600080fd5b5060405160e080620038ae83398101806040528101908080519060200190929190805190602001909291908051906020019092919080519060200190929190805190602001909291908051906020019092919080519060200190929190505050868686868660008311151561008457600080fd5b600073ffffffffffffffffffffffffffffffffffffffff168273ffffffffffffffffffffffffffffffffffffffff16141515156100c057600080fd5b8260028190555081600160006101000a81548173ffffffffffffffffffffffffffffffffffffffff021916908373ffffffffffffffffffffffffffffffffffffffff160217905550806000806101000a81548173ffffffffffffffffffffffffffffffffffffffff021916908373ffffffffffffffffffffffffffffffffffffffff16021790555050505042821015151561015a57600080fd5b81811015151561016957600080fd5b8160048190555080600581905550505081600760006101000a81548173ffffffffffffffffffffffffffffffffffffffff021916908373ffffffffffffffffffffffffffffffffffffffff16021790555080600860006101000a81548173ffffffffffffffffffffffffffffffffffffffff021916908373ffffffffffffffffffffffffffffffffffffffff160217905550600060068190555050505050505050613694806200021a6000396000f300608060405260043610620000eb576000357c0100000000000000000000000000000000000000000000000000000000900463ffffffff1680631515bc2b14620000ed578063295b9300146200011f5780632c4e722e146200014d5780632c77b93d146200017b578063340945cf14620001bf5780633fff906414620001f95780634042b66f14620002335780634e4c08ca1462000261578063589679c714620002d157806365af167214620002f3578063b7a8807c14620003ff578063c19b7bc0146200042d578063ca4b208b146200045b578063ec8ac4d814620004b5578063fc0c546a1462000501575b005b348015620000fa57600080fd5b50620001056200055b565b604051808215151515815260200191505060405180910390f35b3480156200012c57600080fd5b506200013762000567565b6040518082815260200191505060405180910390f35b3480156200015a57600080fd5b50620001656200056d565b6040518082815260200191505060405180910390f35b3480156200018857600080fd5b50620001bd60048036038101908080359060200190929190803590602001909291908035906020019092919050505062000573565b005b348015620001cc57600080fd5b50620001f7600480360381019080803590602001909291908035906020019092919050505062000791565b005b3480156200020657600080fd5b5062000231600480360381019080803590602001909291908035906020019092919050505062000986565b005b3480156200024057600080fd5b506200024b62000b7b565b6040518082815260200191505060405180910390f35b3480156200026e57600080fd5b506200028f6004803603810190808035906020019092919050505062000b81565b604051808273ffffffffffffffffffffffffffffffffffffffff1673ffffffffffffffffffffffffffffffffffffffff16815260200191505060405180910390f35b620002f16004803603810190808035906020019092919050505062000bc0565b005b3480156200030057600080fd5b50620003fd600480360381019080803590602001908201803590602001908080601f01602080910402602001604051908101604052809392919081815260200183838082843782019150505050505091929192908035906020019092919080359060200190929190803590602001908201803590602001908080601f0160208091040260200160405190810160405280939291908181526020018383808284378201915050505050509192919290803590602001908201803590602001908080601f016020809104026020016040519081016040528093929190818152602001838380828437820191505050505050919291929050505062000dbb565b005b3480156200040c57600080fd5b5062000417620013eb565b6040518082815260200191505060405180910390f35b3480156200043a57600080fd5b5062000445620013f1565b6040518082815260200191505060405180910390f35b3480156200046857600080fd5b5062000473620013f7565b604051808273ffffffffffffffffffffffffffffffffffffffff1673ffffffffffffffffffffffffffffffffffffffff16815260200191505060405180910390f35b620004eb600480360381019080803573ffffffffffffffffffffffffffffffffffffffff1690602001909291905050506200141d565b6040518082815260200191505060405180910390f35b3480156200050e57600080fd5b5062000519620015b0565b604051808273ffffffffffffffffffffffffffffffffffffffff1673ffffffffffffffffffffffffffffffffffffffff16815260200191505060405180910390f35b60006005544211905090565b60065481565b60025481565b6000806009858154811015156200058657fe5b9060005260206000200160009054906101000a900473ffffffffffffffffffffffffffffffffffffffff169150600984815481101515620005c357fe5b9060005260206000200160009054906101000a900473ffffffffffffffffffffffffffffffffffffffff1690508173ffffffffffffffffffffffffffffffffffffffff1663ce6a088033856040518363ffffffff167c0100000000000000000000000000000000000000000000000000000000028152600401808373ffffffffffffffffffffffffffffffffffffffff1673ffffffffffffffffffffffffffffffffffffffff16815260200182815260200192505050600060405180830381600087803b1580156200069457600080fd5b505af1158015620006a9573d6000803e3d6000fd5b505050508073ffffffffffffffffffffffffffffffffffffffff16635f74bbde33856040518363ffffffff167c0100000000000000000000000000000000000000000000000000000000028152600401808373ffffffffffffffffffffffffffffffffffffffff1673ffffffffffffffffffffffffffffffffffffffff16815260200182815260200192505050600060405180830381600087803b1580156200075157600080fd5b505af115801562000766573d6000803e3d6000fd5b505050506200077582620015d5565b6200078081620015d5565b6200078a620016af565b5050505050565b6000600983815481101515620007a357fe5b9060005260206000200160009054906101000a900473ffffffffffffffffffffffffffffffffffffffff169050600760009054906101000a900473ffffffffffffffffffffffffffffffffffffffff1673ffffffffffffffffffffffffffffffffffffffff1663595f4a2533846040518363ffffffff167c0100000000000000000000000000000000000000000000000000000000028152600401808373ffffffffffffffffffffffffffffffffffffffff1673ffffffffffffffffffffffffffffffffffffffff16815260200182815260200192505050600060405180830381600087803b1580156200089657600080fd5b505af1158015620008ab573d6000803e3d6000fd5b505050508073ffffffffffffffffffffffffffffffffffffffff16635f74bbde33846040518363ffffffff167c0100000000000000000000000000000000000000000000000000000000028152600401808373ffffffffffffffffffffffffffffffffffffffff1673ffffffffffffffffffffffffffffffffffffffff16815260200182815260200192505050600060405180830381600087803b1580156200095357600080fd5b505af115801562000968573d6000803e3d6000fd5b505050506200097781620015d5565b62000981620016af565b505050565b60006009838154811015156200099857fe5b9060005260206000200160009054906101000a900473ffffffffffffffffffffffffffffffffffffffff1690508073ffffffffffffffffffffffffffffffffffffffff1663ce6a088033846040518363ffffffff167c0100000000000000000000000000000000000000000000000000000000028152600401808373ffffffffffffffffffffffffffffffffffffffff1673ffffffffffffffffffffffffffffffffffffffff16815260200182815260200192505050600060405180830381600087803b15801562000a6957600080fd5b505af115801562000a7e573d6000803e3d6000fd5b50505050600760009054906101000a900473ffffffffffffffffffffffffffffffffffffffff1673ffffffffffffffffffffffffffffffffffffffff1663ad8f256f33846040518363ffffffff167c0100000000000000000000000000000000000000000000000000000000028152600401808373ffffffffffffffffffffffffffffffffffffffff1673ffffffffffffffffffffffffffffffffffffffff16815260200182815260200192505050600060405180830381600087803b15801562000b4857600080fd5b505af115801562000b5d573d6000803e3d6000fd5b5050505062000b6c81620015d5565b62000b76620016af565b505050565b60035481565b60098181548110151562000b9157fe5b906000526020600020016000915054906101000a900473ffffffffffffffffffffffffffffffffffffffff1681565b60008062000bce336200141d565b9150600760009054906101000a900473ffffffffffffffffffffffffffffffffffffffff1673ffffffffffffffffffffffffffffffffffffffff1663e641bde1336040518263ffffffff167c0100000000000000000000000000000000000000000000000000000000028152600401808273ffffffffffffffffffffffffffffffffffffffff1673ffffffffffffffffffffffffffffffffffffffff168152602001915050600060405180830381600087803b15801562000c8e57600080fd5b505af115801562000ca3573d6000803e3d6000fd5b5050505060098381548110151562000cb757fe5b9060005260206000200160009054906101000a900473ffffffffffffffffffffffffffffffffffffffff1690508073ffffffffffffffffffffffffffffffffffffffff16635f74bbde33846040518363ffffffff167c0100000000000000000000000000000000000000000000000000000000028152600401808373ffffffffffffffffffffffffffffffffffffffff1673ffffffffffffffffffffffffffffffffffffffff16815260200182815260200192505050600060405180830381600087803b15801562000d8857600080fd5b505af115801562000d9d573d6000803e3d6000fd5b5050505062000dac81620015d5565b62000db6620016af565b505050565b60008060008062000dcd878962001cd6565b935093506000809054906101000a900473ffffffffffffffffffffffffffffffffffffffff1673ffffffffffffffffffffffffffffffffffffffff166340c10f19600160009054906101000a900473ffffffffffffffffffffffffffffffffffffffff16866040518363ffffffff167c0100000000000000000000000000000000000000000000000000000000028152600401808373ffffffffffffffffffffffffffffffffffffffff1673ffffffffffffffffffffffffffffffffffffffff16815260200182815260200192505050602060405180830381600087803b15801562000eb857600080fd5b505af115801562000ecd573d6000803e3d6000fd5b505050506040513d602081101562000ee457600080fd5b8101908080519060200190929190505050506000809054906101000a900473ffffffffffffffffffffffffffffffffffffffff1673ffffffffffffffffffffffffffffffffffffffff166340c10f1930856040518363ffffffff167c0100000000000000000000000000000000000000000000000000000000028152600401808373ffffffffffffffffffffffffffffffffffffffff1673ffffffffffffffffffffffffffffffffffffffff16815260200182815260200192505050602060405180830381600087803b15801562000fbb57600080fd5b505af115801562000fd0573d6000803e3d6000fd5b505050506040513d602081101562000fe757600080fd5b810190808051906020019092919050505050620010108760065462001d2c90919063ffffffff16565b60068190555062001022605a62001d49565b60098054905091508189600160009054906101000a900473ffffffffffffffffffffffffffffffffffffffff16898b88888c8c6200105f620025ed565b808a8152602001806020018973ffffffffffffffffffffffffffffffffffffffff1673ffffffffffffffffffffffffffffffffffffffff168152602001888152602001878152602001868152602001858152602001806020018060200184810384528c818151815260200191508051906020019080838360005b83811015620010f6578082015181840152602081019050620010d9565b50505050905090810190601f168015620011245780820380516001836020036101000a031916815260200191505b50848103835286818151815260200191508051906020019080838360005b838110156200115f57808201518184015260208101905062001142565b50505050905090810190601f1680156200118d5780820380516001836020036101000a031916815260200191505b50848103825285818151815260200191508051906020019080838360005b83811015620011c8578082015181840152602081019050620011ab565b50505050905090810190601f168015620011f65780820380516001836020036101000a031916815260200191505b509c50505050505050505050505050604051809103906000f08015801562001222573d6000803e3d6000fd5b50905060098190806001815401808255809150509060018203906000526020600020016000909192909190916101000a81548173ffffffffffffffffffffffffffffffffffffffff021916908373ffffffffffffffffffffffffffffffffffffffff16021790555050600860009054906101000a900473ffffffffffffffffffffffffffffffffffffffff1673ffffffffffffffffffffffffffffffffffffffff16638f807f6b826040518263ffffffff167c0100000000000000000000000000000000000000000000000000000000028152600401808273ffffffffffffffffffffffffffffffffffffffff1673ffffffffffffffffffffffffffffffffffffffff168152602001915050600060405180830381600087803b1580156200134957600080fd5b505af11580156200135e573d6000803e3d6000fd5b505050508073ffffffffffffffffffffffffffffffffffffffff166351973ec96040518163ffffffff167c0100000000000000000000000000000000000000000000000000000000028152600401600060405180830381600087803b158015620013c757600080fd5b505af1158015620013dc573d6000803e3d6000fd5b50505050505050505050505050565b60045481565b60055481565b600160009054906101000a900473ffffffffffffffffffffffffffffffffffffffff1681565b600080600034915062001431848362001db6565b6200143c8262001dfc565b9050620014558260035462001d2c90919063ffffffff16565b6003819055506000809054906101000a900473ffffffffffffffffffffffffffffffffffffffff1673ffffffffffffffffffffffffffffffffffffffff166309b38a5d85836040518363ffffffff167c0100000000000000000000000000000000000000000000000000000000028152600401808373ffffffffffffffffffffffffffffffffffffffff1673ffffffffffffffffffffffffffffffffffffffff16815260200182815260200192505050600060405180830381600087803b1580156200152057600080fd5b505af115801562001535573d6000803e3d6000fd5b505050508373ffffffffffffffffffffffffffffffffffffffff163373ffffffffffffffffffffffffffffffffffffffff167f623b3804fa71d67900d064613da8f94b9617215ee90799290593e1745087ad188484604051808381526020018281526020019250505060405180910390a38092505050919050565b6000809054906101000a900473ffffffffffffffffffffffffffffffffffffffff1681565b600860009054906101000a900473ffffffffffffffffffffffffffffffffffffffff1673ffffffffffffffffffffffffffffffffffffffff1663ef0438f7826040518263ffffffff167c0100000000000000000000000000000000000000000000000000000000028152600401808273ffffffffffffffffffffffffffffffffffffffff1673ffffffffffffffffffffffffffffffffffffffff168152602001915050600060405180830381600087803b1580156200169357600080fd5b505af1158015620016a8573d6000803e3d6000fd5b5050505050565b6000806000806000600860009054906101000a900473ffffffffffffffffffffffffffffffffffffffff1673ffffffffffffffffffffffffffffffffffffffff1663cad187986040518163ffffffff167c0100000000000000000000000000000000000000000000000000000000028152600401602060405180830381600087803b1580156200173e57600080fd5b505af115801562001753573d6000803e3d6000fd5b505050506040513d60208110156200176a57600080fd5b810190808051906020019092919050505094508473ffffffffffffffffffffffffffffffffffffffff1663fcfff16f6040518163ffffffff167c0100000000000000000000000000000000000000000000000000000000028152600401602060405180830381600087803b158015620017e257600080fd5b505af1158015620017f7573d6000803e3d6000fd5b505050506040513d60208110156200180e57600080fd5b810190808051906020019092919050505093508473ffffffffffffffffffffffffffffffffffffffff1663d4cf7db66040518163ffffffff167c0100000000000000000000000000000000000000000000000000000000028152600401602060405180830381600087803b1580156200188657600080fd5b505af11580156200189b573d6000803e3d6000fd5b505050506040513d6020811015620018b257600080fd5b8101908080519060200190929190505050925060035483111580620018d5575083155b1562001ccf57600860009054906101000a900473ffffffffffffffffffffffffffffffffffffffff1673ffffffffffffffffffffffffffffffffffffffff1663957908d16040518163ffffffff167c0100000000000000000000000000000000000000000000000000000000028152600401602060405180830381600087803b1580156200196257600080fd5b505af115801562001977573d6000803e3d6000fd5b505050506040513d60208110156200198e57600080fd5b810190808051906020019092919050505050831562001cc4578473ffffffffffffffffffffffffffffffffffffffff1663929aebdf6040518163ffffffff167c0100000000000000000000000000000000000000000000000000000000028152600401602060405180830381600087803b15801562001a0c57600080fd5b505af115801562001a21573d6000803e3d6000fd5b505050506040513d602081101562001a3857600080fd5b810190808051906020019092919050505091508473ffffffffffffffffffffffffffffffffffffffff1663d705f3876040518163ffffffff167c0100000000000000000000000000000000000000000000000000000000028152600401602060405180830381600087803b15801562001ab057600080fd5b505af115801562001ac5573d6000803e3d6000fd5b505050506040513d602081101562001adc57600080fd5b810190808051906020019092919050505090506000809054906101000a900473ffffffffffffffffffffffffffffffffffffffff1673ffffffffffffffffffffffffffffffffffffffff1663ca11be69600160009054906101000a900473ffffffffffffffffffffffffffffffffffffffff16846040518363ffffffff167c0100000000000000000000000000000000000000000000000000000000028152600401808373ffffffffffffffffffffffffffffffffffffffff1673ffffffffffffffffffffffffffffffffffffffff16815260200182815260200192505050600060405180830381600087803b15801562001bd657600080fd5b505af115801562001beb573d6000803e3d6000fd5b5050505062001bfa8162001e1c565b62001c28600160009054906101000a900473ffffffffffffffffffffffffffffffffffffffff1684620024c5565b62001c3f836003546200252e90919063ffffffff16565b6003819055508473ffffffffffffffffffffffffffffffffffffffff16630f15f4c06040518163ffffffff167c0100000000000000000000000000000000000000000000000000000000028152600401600060405180830381600087803b15801562001caa57600080fd5b505af115801562001cbf573d6000803e3d6000fd5b505050505b62001cce620016af565b5b5050505050565b600080600062001cf084866200252e90919063ffffffff16565b905062001d09600254826200254890919063ffffffff16565b62001d20600254866200254890919063ffffffff16565b92509250509250929050565b6000818301905082811015151562001d4057fe5b80905092915050565b600080600042925060045491506005549050600454421015801562001d7057506005544211155b151562001d7c57600080fd5b62001daa62001d98621a5e00866200254890919063ffffffff16565b60055462001d2c90919063ffffffff16565b60058190555050505050565b600080600042925060045491506005549050600454421015801562001ddd57506005544211155b151562001de957600080fd5b62001df5858562002584565b5050505050565b600062001e15600254836200254890919063ffffffff16565b9050919050565b6000806000806000620020166000809054906101000a900473ffffffffffffffffffffffffffffffffffffffff1673ffffffffffffffffffffffffffffffffffffffff166396b2b13b600160009054906101000a900473ffffffffffffffffffffffffffffffffffffffff166040518263ffffffff167c0100000000000000000000000000000000000000000000000000000000028152600401808273ffffffffffffffffffffffffffffffffffffffff1673ffffffffffffffffffffffffffffffffffffffff168152602001915050602060405180830381600087803b15801562001f0757600080fd5b505af115801562001f1c573d6000803e3d6000fd5b505050506040513d602081101562001f3357600080fd5b81019080805190602001909291905050506000809054906101000a900473ffffffffffffffffffffffffffffffffffffffff1673ffffffffffffffffffffffffffffffffffffffff1663596cc0a86040518163ffffffff167c0100000000000000000000000000000000000000000000000000000000028152600401602060405180830381600087803b15801562001fca57600080fd5b505af115801562001fdf573d6000803e3d6000fd5b505050506040513d602081101562001ff657600080fd5b81019080805190602001909291905050506200252e90919063ffffffff16565b9450600193505b600760009054906101000a900473ffffffffffffffffffffffffffffffffffffffff1673ffffffffffffffffffffffffffffffffffffffff1663d7e64c006040518163ffffffff167c0100000000000000000000000000000000000000000000000000000000028152600401602060405180830381600087803b158015620020a457600080fd5b505af1158015620020b9573d6000803e3d6000fd5b505050506040513d6020811015620020d057600080fd5b810190808051906020019092919050505084111515620024bd57600760009054906101000a900473ffffffffffffffffffffffffffffffffffffffff1673ffffffffffffffffffffffffffffffffffffffff1663e4e81ad8856040518263ffffffff167c010000000000000000000000000000000000000000000000000000000002815260040180828152602001915050602060405180830381600087803b1580156200217c57600080fd5b505af115801562002191573d6000803e3d6000fd5b505050506040513d6020811015620021a857600080fd5b810190808051906020019092919050505092506000809054906101000a900473ffffffffffffffffffffffffffffffffffffffff1673ffffffffffffffffffffffffffffffffffffffff166396b2b13b846040518263ffffffff167c0100000000000000000000000000000000000000000000000000000000028152600401808273ffffffffffffffffffffffffffffffffffffffff1673ffffffffffffffffffffffffffffffffffffffff168152602001915050602060405180830381600087803b1580156200227857600080fd5b505af11580156200228d573d6000803e3d6000fd5b505050506040513d6020811015620022a457600080fd5b81019080805190602001909291905050509150620022e085620022d188856200254890919063ffffffff16565b620025d690919063ffffffff16565b90506000809054906101000a900473ffffffffffffffffffffffffffffffffffffffff1673ffffffffffffffffffffffffffffffffffffffff1663ca11be6984836040518363ffffffff167c0100000000000000000000000000000000000000000000000000000000028152600401808373ffffffffffffffffffffffffffffffffffffffff1673ffffffffffffffffffffffffffffffffffffffff16815260200182815260200192505050600060405180830381600087803b158015620023a757600080fd5b505af1158015620023bc573d6000803e3d6000fd5b50505050600760009054906101000a900473ffffffffffffffffffffffffffffffffffffffff1673ffffffffffffffffffffffffffffffffffffffff1663ad8f256f84836040518363ffffffff167c0100000000000000000000000000000000000000000000000000000000028152600401808373ffffffffffffffffffffffffffffffffffffffff1673ffffffffffffffffffffffffffffffffffffffff16815260200182815260200192505050600060405180830381600087803b1580156200248657600080fd5b505af11580156200249b573d6000803e3d6000fd5b50505050620024b560018562001d2c90919063ffffffff16565b93506200201d565b505050505050565b8173ffffffffffffffffffffffffffffffffffffffff166108fc829081150290604051600060405180830381858888f193505050501580156200250c573d6000803e3d6000fd5b5062002524816003546200252e90919063ffffffff16565b6003819055505050565b60008282111515156200253d57fe5b818303905092915050565b6000808314156200255d57600090506200257e565b81830290508183828115156200256f57fe5b041415156200257a57fe5b8090505b92915050565b600073ffffffffffffffffffffffffffffffffffffffff168273ffffffffffffffffffffffffffffffffffffffff1614151515620025c157600080fd5b60008114151515620025d257600080fd5b5050565b60008183811515620025e457fe5b04905092915050565b60405161106a80620025ff83390190560060806040523480156200001157600080fd5b506040516200106a3803806200106a833981018060405281019080805190602001909291908051820192919060200180519060200190929190805190602001909291908051906020019092919080519060200190929190805190602001909291908051820192919060200180518201929190505050886000819055508760019080519060200190620000a592919062000174565b5086600260006101000a81548173ffffffffffffffffffffffffffffffffffffffff021916908373ffffffffffffffffffffffffffffffffffffffff1602179055508560058190555084600681905550836007819055508260088190555081600990805190602001906200011b92919062000174565b5080600a90805190602001906200013492919062000174565b506000600b819055506000600c60006101000a81548160ff02191690831515021790555063013d2380420160048190555050505050505050505062000223565b828054600181600116156101000203166002900490600052602060002090601f016020900481019282601f10620001b757805160ff1916838001178555620001e8565b82800160010185558215620001e8579182015b82811115620001e7578251825591602001919060010190620001ca565b5b509050620001f79190620001fb565b5090565b6200022091905b808211156200021c57600081600090555060010162000202565b5090565b90565b610e3780620002336000396000f3006080604052600436106100fc576000357c0100000000000000000000000000000000000000000000000000000000900463ffffffff1680630f15f4c014610101578063272666e3146101185780632d06177a146101435780634d7c09dd1461018657806351973ec9146101b557806355d576cc146101cc5780635b184f881461025c5780635f74bbde1461029f5780636f219831146102ec578063705c5be51461031757806379ec5d3a14610372578063929aebdf146103c9578063c78243cf146103f4578063ce6a08801461041f578063d0e30db01461046c578063d4cf7db614610476578063d705f387146104a1578063fcfff16f146104cc575b600080fd5b34801561010d57600080fd5b506101166104fb565b005b34801561012457600080fd5b5061012d610520565b6040518082815260200191505060405180910390f35b34801561014f57600080fd5b50610184600480360381019080803573ffffffffffffffffffffffffffffffffffffffff16906020019092919050505061052a565b005b34801561019257600080fd5b5061019b61063c565b604051808215151515815260200191505060405180910390f35b3480156101c157600080fd5b506101ca610653565b005b3480156101d857600080fd5b506101e161087c565b6040518080602001828103825283818151815260200191508051906020019080838360005b83811015610221578082015181840152602081019050610206565b50505050905090810190601f16801561024e5780820380516001836020036101000a031916815260200191505b509250505060405180910390f35b34801561026857600080fd5b5061029d600480360381019080803573ffffffffffffffffffffffffffffffffffffffff16906020019092919050505061091a565b005b3480156102ab57600080fd5b506102ea600480360381019080803573ffffffffffffffffffffffffffffffffffffffff16906020019092919080359060200190929190505050610a15565b005b3480156102f857600080fd5b50610301610ae6565b6040518082815260200191505060405180910390f35b34801561032357600080fd5b50610358600480360381019080803573ffffffffffffffffffffffffffffffffffffffff169060200190929190505050610aef565b604051808215151515815260200191505060405180910390f35b34801561037e57600080fd5b506103b3600480360381019080803573ffffffffffffffffffffffffffffffffffffffff169060200190929190505050610ba9565b6040518082815260200191505060405180910390f35b3480156103d557600080fd5b506103de610bf2565b6040518082815260200191505060405180910390f35b34801561040057600080fd5b50610409610bfc565b6040518082815260200191505060405180910390f35b34801561042b57600080fd5b5061046a600480360381019080803573ffffffffffffffffffffffffffffffffffffffff16906020019092919080359060200190929190505050610c06565b005b610474610d36565b005b34801561048257600080fd5b5061048b610db6565b6040518082815260200191505060405180910390f35b3480156104ad57600080fd5b506104b6610dc0565b6040518082815260200191505060405180910390f35b3480156104d857600080fd5b506104e1610dca565b604051808215151515815260200191505060405180910390f35b6001600c60006101000a81548160ff02191690831515021790555061051e610653565b565b6000600454905090565b60011515600e60003373ffffffffffffffffffffffffffffffffffffffff1673ffffffffffffffffffffffffffffffffffffffff16815260200190815260200160002060009054906101000a900460ff16151514806105d65750600260009054906101000a900473ffffffffffffffffffffffffffffffffffffffff1673ffffffffffffffffffffffffffffffffffffffff163373ffffffffffffffffffffffffffffffffffffffff16145b15156105e157600080fd5b6001600e60008373ffffffffffffffffffffffffffffffffffffffff1673ffffffffffffffffffffffffffffffffffffffff16815260200190815260200160002060006101000a81548160ff02191690831515021790555050565b6000600c60009054906101000a900460ff16905090565b7f2870b0d0558b1786ef247a7bb0787eaae7392b072f7ca327b464981f23fb0e9260005460016005546006546007546008546009600a600b54600c60009054906101000a900460ff16604051808b8152602001806020018a815260200189815260200188815260200187815260200180602001806020018681526020018515151515815260200184810384528d81815460018160011615610100020316600290048152602001915080546001816001161561010002031660029004801561075b5780601f106107305761010080835404028352916020019161075b565b820191906000526020600020905b81548152906001019060200180831161073e57829003601f168201915b50508481038352888181546001816001161561010002031660029004815260200191508054600181600116156101000203166002900480156107de5780601f106107b3576101008083540402835291602001916107de565b820191906000526020600020905b8154815290600101906020018083116107c157829003601f168201915b50508481038252878181546001816001161561010002031660029004815260200191508054600181600116156101000203166002900480156108615780601f1061083657610100808354040283529160200191610861565b820191906000526020600020905b81548152906001019060200180831161084457829003601f168201915b50509d505050505050505050505050505060405180910390a1565b60098054600181600116156101000203166002900480601f0160208091040260200160405190810160405280929190818152602001828054600181600116156101000203166002900480156109125780601f106108e757610100808354040283529160200191610912565b820191906000526020600020905b8154815290600101906020018083116108f557829003601f168201915b505050505081565b60011515600e60003373ffffffffffffffffffffffffffffffffffffffff1673ffffffffffffffffffffffffffffffffffffffff16815260200190815260200160002060009054906101000a900460ff16151514806109c65750600260009054906101000a900473ffffffffffffffffffffffffffffffffffffffff1673ffffffffffffffffffffffffffffffffffffffff163373ffffffffffffffffffffffffffffffffffffffff16145b15156109d157600080fd5b80600360006101000a81548173ffffffffffffffffffffffffffffffffffffffff021916908373ffffffffffffffffffffffffffffffffffffffff16021790555050565b610a6781600d60008573ffffffffffffffffffffffffffffffffffffffff1673ffffffffffffffffffffffffffffffffffffffff16815260200190815260200160002054610dd690919063ffffffff16565b600d60008473ffffffffffffffffffffffffffffffffffffffff1673ffffffffffffffffffffffffffffffffffffffff16815260200190815260200160002081905550610abf81600b54610dd690919063ffffffff16565b600b81905550610adc61a8c0600454610dd690919063ffffffff16565b6004819055505050565b60008054905090565b600080600b54118015610ba257508173ffffffffffffffffffffffffffffffffffffffff1663c78243cf6040518163ffffffff167c0100000000000000000000000000000000000000000000000000000000028152600401602060405180830381600087803b158015610b6157600080fd5b505af1158015610b75573d6000803e3d6000fd5b505050506040513d6020811015610b8b57600080fd5b8101908080519060200190929190505050600b5410155b9050919050565b6000600d60008373ffffffffffffffffffffffffffffffffffffffff1673ffffffffffffffffffffffffffffffffffffffff168152602001908152602001600020549050919050565b6000600754905090565b6000600b54905090565b600b548111151515610c1757600080fd5b600d60008373ffffffffffffffffffffffffffffffffffffffff1673ffffffffffffffffffffffffffffffffffffffff168152602001908152602001600020548111151515610c6557600080fd5b610cb781600d60008573ffffffffffffffffffffffffffffffffffffffff1673ffffffffffffffffffffffffffffffffffffffff16815260200190815260200160002054610df290919063ffffffff16565b600d60008473ffffffffffffffffffffffffffffffffffffffff1673ffffffffffffffffffffffffffffffffffffffff16815260200190815260200160002081905550610d0f81600b54610df290919063ffffffff16565b600b81905550610d2c61a8c0600454610df290919063ffffffff16565b6004819055505050565b6000803414151515610d4757600080fd5b349050600360009054906101000a900473ffffffffffffffffffffffffffffffffffffffff1673ffffffffffffffffffffffffffffffffffffffff166108fc829081150290604051600060405180830381858888f19350505050158015610db2573d6000803e3d6000fd5b5050565b6000600654905090565b6000600854905090565b60004260045411905090565b60008183019050828110151515610de957fe5b80905092915050565b6000828211151515610e0057fe5b8183039050929150505600a165627a7a72305820f27fd669d4f72624e178b53cb234bcd7d9c844fbea790cae802aa1b8afdcb1ad0029a165627a7a72305820cf692bdcc0515a9052603ff3d1b00f9681f5dbfd1d504e8deee64e4d7cd928210029",
  "source": "pragma solidity 0.4.25;\nimport './TimedCrowdsale.sol';\nimport '../utility/SafeMath.sol';\nimport '../ProjectQueue.sol';\nimport '../Project.sol';\nimport '../token/ERC20/Token.sol';\nimport '../InvestorList.sol';\n\ncontract GNITokenCrowdsale is TimedCrowdsale {\n  using SafeMath for uint256;\n  uint256 public totalValuation;\n  InvestorList private investorList;\n  ProjectQueue private projectQueue;\n\n  constructor\n      (\n        uint256 _openingTime,\n        uint256 _doomsDay,\n        uint256 _rate,\n        address _developer,\n        Token _token,\n        InvestorList _investorList,\n        ProjectQueue _projectQueue\n      )\n      public\n      Crowdsale(_rate, _developer, _token)\n      TimedCrowdsale(_openingTime, _doomsDay) {\n        investorList = InvestorList(_investorList);\n        projectQueue = ProjectQueue(_projectQueue);\n        totalValuation = 0;\n  }\n\n  address[] public projectAddrs;\n/*\n  function getInfo(uint256 id) public view returns(\n    string, uint256, uint256, uint256, uint256, bool, uint256, uint256, address\n    ) {\n      address projectAddr = projectAddrs[id];\n      return (\n        Project(projectAddr).name(),\n        Project(projectAddr).valuation(),\n        Project(projectAddr).capitalRequired(),\n        Project(projectAddr).developerTokens(),\n        Project(projectAddr).investorTokens(),\n        Project(projectAddr).active(),\n        Project(projectAddr).totalVotes(),\n        Project(projectAddr).closingTime(),\n        projectAddr\n        );\n      } */\n\n//after this, the developer has to approve this contract to spend the amount of inactive tokens associated with developers on its behalf\n function pitchProject(string _name, uint256 capitalRequired, uint256 _valuation, string _lat, string _lng) public {\n   (uint256 developerTokens, uint256 investorTokens) = tokensToMint(_valuation, capitalRequired);\n\n   Token(token).mint(developer, developerTokens);//test if this is called\n   Token(token).mint(this, investorTokens);//test if this is called\n\n   totalValuation = totalValuation.add(_valuation);\n\n     // Increase crowdsale duation by 90 days\n   _extendDoomsDay(90);\n\n    uint256 _id = projectAddrs.length;\n    address projectAddr = new Project(_id, _name, developer, _valuation, capitalRequired, developerTokens, investorTokens, _lat, _lng);\n    projectAddrs.push(projectAddr);\n    projectQueue.enqueue(projectAddr);//we want to test if this is called\n    Project(projectAddr).log();\n }\n\n function tokensToMint (uint256 valuation, uint256 investorValue) private view returns (uint256, uint256) {\n   uint256 developerValue = valuation.sub(investorValue);\n   return (developerValue.mul(rate), investorValue.mul(rate));\n }\n\n function buyTokensAndVote (uint256 _projectVotedForId) public payable {\n   uint256 tokens = buyTokens(msg.sender);\n   investorList.addInvestor(msg.sender);//test that this is called\n\n   address projAddr = projectAddrs[_projectVotedForId];\n   Project(projAddr).vote(msg.sender, tokens);//test that this is called\n\n   updateProjectQueue(projAddr);\n   tryActivateProject();\n }\n\n /* function sellTokens (address to, uint256 tokens) external {\n   Token(token).transferActiveTokens(msg.sender, to, tokens);\n   investorList.removeVoteCredit(msg.sender, tokens);\n   investorList.addVoteCredit(to, tokens);\n } */\n\n function transferVotes (uint256 fromProjectId, uint256 toProjectId, uint256 votes) external {\n   address fromAddr = projectAddrs[fromProjectId];\n   address toAddr = projectAddrs[toProjectId];\n   Project(fromAddr).removeVotes(msg.sender, votes);//test that this is called\n   Project(toAddr).vote(msg.sender, votes);//test that this is called\n\n   updateProjectQueue(fromAddr);\n   updateProjectQueue(toAddr);\n   tryActivateProject();\n }\n\n function addVoteCredit (uint256 fromProjectId, uint256 votes) external {\n   address projAddr = projectAddrs[fromProjectId];\n   Project(projAddr).removeVotes(msg.sender, votes);//test that this is called\n   investorList.addVoteCredit(msg.sender, votes);//test that this is called\n\n   updateProjectQueue(projAddr);\n   tryActivateProject();\n }\n\n function voteWithCredit (uint256 toProjectId, uint256 votes) external {\n   address projAddr = projectAddrs[toProjectId];\n   investorList.removeVoteCredit(msg.sender, votes);//test that this is called\n   Project(projAddr).vote(msg.sender, votes);//test that this is called\n\n   updateProjectQueue(projAddr);\n   tryActivateProject();\n }\n\n function _extendDoomsDay(uint256 _days) internal onlyWhileOpen {\n    doomsDay = doomsDay.add(_days.mul(1728000));\n }\n\n function updateProjectQueue (address projectAddress) internal {\n   projectQueue.heapify(projectAddress);\n }\n\n function tryActivateProject () internal {\n   Project leadingProject = Project(projectQueue.leadingProjectAddr());//in stub, we return an address\n   bool stillOpen = leadingProject.open(); //we set up an open status in the stub\n   uint256 capitalRequired = leadingProject.capitalRequired_(); //we return a capital amount\n\n   if (capitalRequired <= weiRaised || !stillOpen) {\n     projectQueue.dequeue();//check that this was called\n\n     if (stillOpen) {\n       uint256 developerTokens = leadingProject.developerTokens_();//return arbitrary amount in the stub\n       uint256 investorTokens = leadingProject.investorTokens_();//return arbitrary amount in the stub\n       /* uint256 projectId = leadingProject.id_(); */\n\n       Token(token).activate(developer, developerTokens);//test that this was called\n       updateInvestors(investorTokens);//make sure investors are gucci\n\n       forwardFunds(developer, capitalRequired);//test that the funds are transfered\n       weiRaised = weiRaised.sub(capitalRequired);//test that the weiRaised decreases\n\n       leadingProject.activate();//test that this is called\n     }\n\n     tryActivateProject();//test that this is called again\n   }\n }\n\n /* function activateProject() public {\n    (uint256 projectId, bool canActivate) = projectToActivateDetails();\n\n    if(canActivate){\n      Project project = Project(projectAddrs[projectId]);\n\n      uint256 developerTokens = project.developerTokens_();\n\n      Token(token).activate(developer, developerTokens);\n\n      updateInvestors(project.investorTokens_(), projectId);\n\n      uint256 capital = project.capitalRequired_();\n\n      forwardFunds(developer, capital);\n      weiRaised = weiRaised.sub(capital);\n\n      project.activate();\n    }\n  } */\n\n  //we need some functionality for granting vote credit for closed projectAddrs/removing votes from closed pro\n  /* function projectToActivateDetails() private view returns (uint256, bool) {\n    uint256 leadingProjectId;\n    bool candidateFound = false;\n\n    for(uint256 i = 0; i < projectAddrs.length; i = i.add(1)) {\n      if (Project(projectAddrs[i]).beats(projectAddrs[leadingProjectId])) {\n        leadingProjectId = i;\n        candidateFound = true;\n      }\n    }\n\n    return (leadingProjectId, candidateFound && Project(projectAddrs[leadingProjectId]).capitalRequired_() <= weiRaised);\n  } */\n\n  function updateInvestors (uint256 tokens) private {\n    uint256 supply = Token(token).totalInactiveSupply().sub(Token(token).inactiveBalanceOf(developer));\n\n    for (uint256 i = 1; i <= investorList.investorCount(); i = i.add(1)) {\n      address investor = investorList.addrById(i);\n      uint256 investorBalance = Token(token).inactiveBalanceOf(investor);\n\n      uint256 tokensToActivate = investorBalance.mul(tokens).div(supply);\n      Token(token).activate(investor, tokensToActivate);\n\n      /* Project(projectAddrs[projectId]).removeVotes(investor, tokensToActivate); */ //not needed if theyre removed from the queue\n      investorList.addVoteCredit(investor, tokensToActivate);\n    }\n  }\n\n  function forwardFunds (address _to, uint256 amount) internal {\n    _to.transfer(amount);\n    weiRaised = weiRaised.sub(amount);\n  }\n}\n",
  "sourcePath": "/Users/steven/genie-portal/truffle/contracts/crowdsale/GNITokenCrowdsale.sol",
  "compiler": {
    "name": "solc",
    "version": "0.4.25+commit.59dbf8f1.Emscripten.clang"
  },
  "schemaVersion": "3.0.0-beta.1",
  "updatedAt": "2018-11-15T01:32:39.196Z"
}