{
  "contractName": "GNITokenCrowdsale",
  "abi": [
    {
      "constant": true,
      "inputs": [
        {
          "name": "",
          "type": "uint256"
        }
      ],
      "name": "projects",
      "outputs": [
        {
          "name": "name",
          "type": "string"
        },
        {
          "name": "projectClosingTime",
          "type": "uint256"
        },
        {
          "name": "valuation",
          "type": "uint256"
        },
        {
          "name": "capitalRequired",
          "type": "uint256"
        },
        {
          "name": "lat",
          "type": "string"
        },
        {
          "name": "lng",
          "type": "string"
        },
        {
          "name": "voteCount",
          "type": "uint256"
        },
        {
          "name": "capitalReached",
          "type": "bool"
        },
        {
          "name": "active",
          "type": "bool"
        }
      ],
      "payable": false,
      "stateMutability": "view",
      "type": "function"
    },
    {
      "constant": true,
      "inputs": [],
      "name": "hasClosed",
      "outputs": [
        {
          "name": "",
          "type": "bool"
        }
      ],
      "payable": false,
      "stateMutability": "view",
      "type": "function"
    },
    {
      "constant": true,
      "inputs": [],
      "name": "developerWallet",
      "outputs": [
        {
          "name": "",
          "type": "address"
        }
      ],
      "payable": false,
      "stateMutability": "view",
      "type": "function"
    },
    {
      "constant": true,
      "inputs": [],
      "name": "totalValuation",
      "outputs": [
        {
          "name": "",
          "type": "uint256"
        }
      ],
      "payable": false,
      "stateMutability": "view",
      "type": "function"
    },
    {
      "constant": true,
      "inputs": [],
      "name": "rate",
      "outputs": [
        {
          "name": "",
          "type": "uint256"
        }
      ],
      "payable": false,
      "stateMutability": "view",
      "type": "function"
    },
    {
      "constant": true,
      "inputs": [],
      "name": "cap",
      "outputs": [
        {
          "name": "",
          "type": "uint256"
        }
      ],
      "payable": false,
      "stateMutability": "view",
      "type": "function"
    },
    {
      "constant": true,
      "inputs": [],
      "name": "weiRaised",
      "outputs": [
        {
          "name": "",
          "type": "uint256"
        }
      ],
      "payable": false,
      "stateMutability": "view",
      "type": "function"
    },
    {
      "constant": true,
      "inputs": [],
      "name": "capReached",
      "outputs": [
        {
          "name": "",
          "type": "bool"
        }
      ],
      "payable": false,
      "stateMutability": "view",
      "type": "function"
    },
    {
      "constant": true,
      "inputs": [],
      "name": "wallet",
      "outputs": [
        {
          "name": "",
          "type": "address"
        }
      ],
      "payable": false,
      "stateMutability": "view",
      "type": "function"
    },
    {
      "constant": true,
      "inputs": [],
      "name": "openingTime",
      "outputs": [
        {
          "name": "",
          "type": "uint256"
        }
      ],
      "payable": false,
      "stateMutability": "view",
      "type": "function"
    },
    {
      "constant": true,
      "inputs": [],
      "name": "doomsDay",
      "outputs": [
        {
          "name": "",
          "type": "uint256"
        }
      ],
      "payable": false,
      "stateMutability": "view",
      "type": "function"
    },
    {
      "constant": false,
      "inputs": [
        {
          "name": "_beneficiary",
          "type": "address"
        }
      ],
      "name": "buyTokens",
      "outputs": [],
      "payable": true,
      "stateMutability": "payable",
      "type": "function"
    },
    {
      "constant": true,
      "inputs": [],
      "name": "token",
      "outputs": [
        {
          "name": "",
          "type": "address"
        }
      ],
      "payable": false,
      "stateMutability": "view",
      "type": "function"
    },
    {
      "inputs": [
        {
          "name": "_openingTime",
          "type": "uint256"
        },
        {
          "name": "_doomsDay",
          "type": "uint256"
        },
        {
          "name": "_rate",
          "type": "uint256"
        },
        {
          "name": "_wallet",
          "type": "address"
        },
        {
          "name": "_developerWallet",
          "type": "address"
        },
        {
          "name": "_cap",
          "type": "uint256"
        },
        {
          "name": "_token",
          "type": "address"
        }
      ],
      "payable": false,
      "stateMutability": "nonpayable",
      "type": "constructor"
    },
    {
      "payable": true,
      "stateMutability": "payable",
      "type": "fallback"
    },
    {
      "anonymous": false,
      "inputs": [
        {
          "indexed": false,
          "name": "name",
          "type": "string"
        },
        {
          "indexed": false,
          "name": "valuation",
          "type": "uint256"
        },
        {
          "indexed": false,
          "name": "capitalRequired",
          "type": "uint256"
        },
        {
          "indexed": false,
          "name": "lat",
          "type": "string"
        },
        {
          "indexed": false,
          "name": "lng",
          "type": "string"
        },
        {
          "indexed": false,
          "name": "voteCount",
          "type": "uint256"
        },
        {
          "indexed": false,
          "name": "capitalReached",
          "type": "bool"
        },
        {
          "indexed": false,
          "name": "active",
          "type": "bool"
        }
      ],
      "name": "LogProject",
      "type": "event"
    },
    {
      "anonymous": false,
      "inputs": [
        {
          "indexed": true,
          "name": "purchaser",
          "type": "address"
        },
        {
          "indexed": true,
          "name": "beneficiary",
          "type": "address"
        },
        {
          "indexed": false,
          "name": "value",
          "type": "uint256"
        },
        {
          "indexed": false,
          "name": "amount",
          "type": "uint256"
        }
      ],
      "name": "TokenPurchase",
      "type": "event"
    },
    {
      "constant": true,
      "inputs": [
        {
          "name": "_projectId",
          "type": "uint256"
        }
      ],
      "name": "getProjectInfo",
      "outputs": [
        {
          "name": "",
          "type": "string"
        },
        {
          "name": "",
          "type": "uint256"
        },
        {
          "name": "",
          "type": "uint256"
        },
        {
          "name": "",
          "type": "bool"
        },
        {
          "name": "",
          "type": "uint256"
        }
      ],
      "payable": false,
      "stateMutability": "view",
      "type": "function"
    },
    {
      "constant": false,
      "inputs": [
        {
          "name": "_name",
          "type": "string"
        },
        {
          "name": "capitalRequired",
          "type": "uint256"
        },
        {
          "name": "_valuation",
          "type": "uint256"
        },
        {
          "name": "_lat",
          "type": "string"
        },
        {
          "name": "_lng",
          "type": "string"
        }
      ],
      "name": "pitchProject",
      "outputs": [],
      "payable": true,
      "stateMutability": "payable",
      "type": "function"
    },
    {
      "constant": false,
      "inputs": [
        {
          "name": "_projectId",
          "type": "uint256"
        }
      ],
      "name": "buyToken",
      "outputs": [],
      "payable": true,
      "stateMutability": "payable",
      "type": "function"
    },
    {
      "constant": false,
      "inputs": [
        {
          "name": "_projectValue",
          "type": "uint256"
        }
      ],
      "name": "pitchProjectandRaiseCap",
      "outputs": [],
      "payable": false,
      "stateMutability": "nonpayable",
      "type": "function"
    }
  ],
  "bytecode": "0x608060405234801561001057600080fd5b5060405160e080611aa18339810180604052810190808051906020019092919080519060200190929190805190602001909291908051906020019092919080519060200190929190805190602001909291908051906020019092919050505081878787878560008311151561008457600080fd5b600073ffffffffffffffffffffffffffffffffffffffff168273ffffffffffffffffffffffffffffffffffffffff16141515156100c057600080fd5b600073ffffffffffffffffffffffffffffffffffffffff168173ffffffffffffffffffffffffffffffffffffffff16141515156100fc57600080fd5b8260028190555081600160006101000a81548173ffffffffffffffffffffffffffffffffffffffff021916908373ffffffffffffffffffffffffffffffffffffffff160217905550806000806101000a81548173ffffffffffffffffffffffffffffffffffffffff021916908373ffffffffffffffffffffffffffffffffffffffff16021790555050505042821015151561019657600080fd5b8181101515156101a557600080fd5b816004819055508060058190555050508060068190555050600060088190555082600760006101000a81548173ffffffffffffffffffffffffffffffffffffffff021916908373ffffffffffffffffffffffffffffffffffffffff16021790555030600160006101000a81548173ffffffffffffffffffffffffffffffffffffffff021916908373ffffffffffffffffffffffffffffffffffffffff160217905550505050505050506118448061025d6000396000f3006080604052600436106100f1576000357c0100000000000000000000000000000000000000000000000000000000900463ffffffff168063107046bd146100fc5780631515bc2b146102ac578063185870f9146102db578063295b9300146103325780632c4e722e1461035d5780632d296bf114610388578063355274ea146103a85780634042b66f146103d35780634f935945146103fe578063521eb2731461042d578063629dcf111461048457806365af1672146104b1578063b7a8807c146105ad578063c19b7bc0146105d8578063ec8ac4d814610603578063fabf596814610639578063fc0c546a146106ff575b6100fa33610756565b005b34801561010857600080fd5b5061012760048036038101908080359060200190929190505050610824565b60405180806020018a81526020018981526020018881526020018060200180602001878152602001861515151581526020018515151515815260200184810384528d818151815260200191508051906020019080838360005b8381101561019b578082015181840152602081019050610180565b50505050905090810190601f1680156101c85780820380516001836020036101000a031916815260200191505b50848103835289818151815260200191508051906020019080838360005b838110156102015780820151818401526020810190506101e6565b50505050905090810190601f16801561022e5780820380516001836020036101000a031916815260200191505b50848103825288818151815260200191508051906020019080838360005b8381101561026757808201518184015260208101905061024c565b50505050905090810190601f1680156102945780820380516001836020036101000a031916815260200191505b509c5050505050505050505050505060405180910390f35b3480156102b857600080fd5b506102c1610a63565b604051808215151515815260200191505060405180910390f35b3480156102e757600080fd5b506102f0610a6f565b604051808273ffffffffffffffffffffffffffffffffffffffff1673ffffffffffffffffffffffffffffffffffffffff16815260200191505060405180910390f35b34801561033e57600080fd5b50610347610a95565b6040518082815260200191505060405180910390f35b34801561036957600080fd5b50610372610a9b565b6040518082815260200191505060405180910390f35b6103a660048036038101908080359060200190929190505050610aa1565b005b3480156103b457600080fd5b506103bd610af0565b6040518082815260200191505060405180910390f35b3480156103df57600080fd5b506103e8610af6565b6040518082815260200191505060405180910390f35b34801561040a57600080fd5b50610413610afc565b604051808215151515815260200191505060405180910390f35b34801561043957600080fd5b50610442610b0b565b604051808273ffffffffffffffffffffffffffffffffffffffff1673ffffffffffffffffffffffffffffffffffffffff16815260200191505060405180910390f35b34801561049057600080fd5b506104af60048036038101908080359060200190929190505050610b31565b005b6105ab600480360381019080803590602001908201803590602001908080601f01602080910402602001604051908101604052809392919081815260200183838082843782019150505050505091929192908035906020019092919080359060200190929190803590602001908201803590602001908080601f0160208091040260200160405190810160405280939291908181526020018383808284378201915050505050509192919290803590602001908201803590602001908080601f0160208091040260200160405190810160405280939291908181526020018383808284378201915050505050509192919290505050610d57565b005b3480156105b957600080fd5b506105c2611085565b6040518082815260200191505060405180910390f35b3480156105e457600080fd5b506105ed61108b565b6040518082815260200191505060405180910390f35b610637600480360381019080803573ffffffffffffffffffffffffffffffffffffffff169060200190929190505050610756565b005b34801561064557600080fd5b5061066460048036038101908080359060200190929190505050611091565b604051808060200186815260200185815260200184151515158152602001838152602001828103825287818151815260200191508051906020019080838360005b838110156106c05780820151818401526020810190506106a5565b50505050905090810190601f1680156106ed5780820380516001836020036101000a031916815260200191505b50965050505050505060405180910390f35b34801561070b57600080fd5b50610714611342565b604051808273ffffffffffffffffffffffffffffffffffffffff1673ffffffffffffffffffffffffffffffffffffffff16815260200191505060405180910390f35b6000803491506107668383611367565b61076f8261139a565b9050610786826003546113b890919063ffffffff16565b60038190555061079683826113d4565b8273ffffffffffffffffffffffffffffffffffffffff163373ffffffffffffffffffffffffffffffffffffffff167f623b3804fa71d67900d064613da8f94b9617215ee90799290593e1745087ad188484604051808381526020018281526020019250505060405180910390a361080d83836113e2565b6108156113e6565b61081f8383611451565b505050565b60098181548110151561083357fe5b9060005260206000209060080201600091509050806000018054600181600116156101000203166002900480601f0160208091040260200160405190810160405280929190818152602001828054600181600116156101000203166002900480156108df5780601f106108b4576101008083540402835291602001916108df565b820191906000526020600020905b8154815290600101906020018083116108c257829003601f168201915b505050505090806001015490806002015490806003015490806004018054600181600116156101000203166002900480601f01602080910402602001604051908101604052809291908181526020018280546001816001161561010002031660029004801561098f5780601f106109645761010080835404028352916020019161098f565b820191906000526020600020905b81548152906001019060200180831161097257829003601f168201915b505050505090806005018054600181600116156101000203166002900480601f016020809104026020016040519081016040528092919081815260200182805460018160011615610100020316600290048015610a2d5780601f10610a0257610100808354040283529160200191610a2d565b820191906000526020600020905b815481529060010190602001808311610a1057829003601f168201915b5050505050908060060154908060070160009054906101000a900460ff16908060070160019054906101000a900460ff16905089565b60006005544211905090565b600760009054906101000a900473ffffffffffffffffffffffffffffffffffffffff1681565b60085481565b60025481565b600981815481101515610ab057fe5b906000526020600020906008020160070160019054906101000a900460ff16151515610adb57600080fd5b610ae433610756565b610aed81611455565b50565b60065481565b60035481565b60006006546003541015905090565b600160009054906101000a900473ffffffffffffffffffffffffffffffffffffffff1681565b60008060006103e892506000809054906101000a900473ffffffffffffffffffffffffffffffffffffffff1673ffffffffffffffffffffffffffffffffffffffff166340c10f19600160009054906101000a900473ffffffffffffffffffffffffffffffffffffffff16856040518363ffffffff167c0100000000000000000000000000000000000000000000000000000000028152600401808373ffffffffffffffffffffffffffffffffffffffff1673ffffffffffffffffffffffffffffffffffffffff16815260200182815260200192505050602060405180830381600087803b158015610c2157600080fd5b505af1158015610c35573d6000803e3d6000fd5b505050506040513d6020811015610c4b57600080fd5b8101908080519060200190929190505050506000809054906101000a900473ffffffffffffffffffffffffffffffffffffffff1673ffffffffffffffffffffffffffffffffffffffff166318160ddd6040518163ffffffff167c0100000000000000000000000000000000000000000000000000000000028152600401602060405180830381600087803b158015610ce257600080fd5b505af1158015610cf6573d6000803e3d6000fd5b505050506040513d6020811015610d0c57600080fd5b81019080805190602001909291905050509150610d34846006546113b890919063ffffffff16565b60068190555081600654811515610d4757fe5b0490508060028190555050505050565b610d5f611722565b6000610d6a856114b0565b610d7f856008546113b890919063ffffffff16565b600881905550610d8f605a6114cd565b6101206040519081016040528088815260200163013d238042018152602001868152602001878152602001858152602001848152602001600081526020016000151581526020016000151581525091506001600983908060018154018082558091505090600182039060005260206000209060080201600090919290919091506000820151816000019080519060200190610e2b929190611773565b506020820151816001015560408201518160020155606082015181600301556080820151816004019080519060200190610e66929190611773565b5060a0820151816005019080519060200190610e83929190611773565b5060c0820151816006015560e08201518160070160006101000a81548160ff0219169083151502179055506101008201518160070160016101000a81548160ff02191690831515021790555050500390507f5c483cef42dc819af5a97db071c1a233161605e876a45a0991b781f18d47e4ae8786888787600080600060405180806020018981526020018881526020018060200180602001878152602001861515151581526020018515151515815260200184810384528c818151815260200191508051906020019080838360005b83811015610f6d578082015181840152602081019050610f52565b50505050905090810190601f168015610f9a5780820380516001836020036101000a031916815260200191505b50848103835289818151815260200191508051906020019080838360005b83811015610fd3578082015181840152602081019050610fb8565b50505050905090810190601f1680156110005780820380516001836020036101000a031916815260200191505b50848103825288818151815260200191508051906020019080838360005b8381101561103957808201518184015260208101905061101e565b50505050905090810190601f1680156110665780820380516001836020036101000a031916815260200191505b509b50505050505050505050505060405180910390a150505050505050565b60045481565b60055481565b60606000806000806110a1611722565b6009878154811015156110b057fe5b90600052602060002090600802016101206040519081016040529081600082018054600181600116156101000203166002900480601f0160208091040260200160405190810160405280929190818152602001828054600181600116156101000203166002900480156111645780601f1061113957610100808354040283529160200191611164565b820191906000526020600020905b81548152906001019060200180831161114757829003601f168201915b50505050508152602001600182015481526020016002820154815260200160038201548152602001600482018054600181600116156101000203166002900480601f0160208091040260200160405190810160405280929190818152602001828054600181600116156101000203166002900480156112245780601f106111f957610100808354040283529160200191611224565b820191906000526020600020905b81548152906001019060200180831161120757829003601f168201915b50505050508152602001600582018054600181600116156101000203166002900480601f0160208091040260200160405190810160405280929190818152602001828054600181600116156101000203166002900480156112c65780601f1061129b576101008083540402835291602001916112c6565b820191906000526020600020905b8154815290600101906020018083116112a957829003601f168201915b50505050508152602001600682015481526020016007820160009054906101000a900460ff161515151581526020016007820160019054906101000a900460ff16151515158152505090508060000151816040015182606001518361010001518460c00151849450955095509550955095505091939590929450565b6000809054906101000a900473ffffffffffffffffffffffffffffffffffffffff1681565b6113718282611534565b600654611389826003546113b890919063ffffffff16565b1115151561139657600080fd5b5050565b60006113b16002548361157690919063ffffffff16565b9050919050565b600081830190508281101515156113cb57fe5b80905092915050565b6113de82826115ae565b5050565b5050565b600160009054906101000a900473ffffffffffffffffffffffffffffffffffffffff1673ffffffffffffffffffffffffffffffffffffffff166108fc349081150290604051600060405180830381858888f1935050505015801561144e573d6000803e3d6000fd5b50565b5050565b611489600160098381548110151561146957fe5b9060005260206000209060080201600601546113b890919063ffffffff16565b60098281548110151561149857fe5b90600052602060002090600802016006018190555050565b60006114c7600254836116bc90919063ffffffff16565b90505050565b60008060004292506004549150600554905060045442101580156114f357506005544211155b15156114fe57600080fd5b611528611517621a5e008661157690919063ffffffff16565b6005546113b890919063ffffffff16565b60058190555050505050565b600080600042925060045491506005549050600454421015801561155a57506005544211155b151561156557600080fd5b61156f85856116d2565b5050505050565b60008083141561158957600090506115a8565b818302905081838281151561159a57fe5b041415156115a457fe5b8090505b92915050565b6000809054906101000a900473ffffffffffffffffffffffffffffffffffffffff1673ffffffffffffffffffffffffffffffffffffffff166340c10f1983836040518363ffffffff167c0100000000000000000000000000000000000000000000000000000000028152600401808373ffffffffffffffffffffffffffffffffffffffff1673ffffffffffffffffffffffffffffffffffffffff16815260200182815260200192505050602060405180830381600087803b15801561167257600080fd5b505af1158015611686573d6000803e3d6000fd5b505050506040513d602081101561169c57600080fd5b810190808051906020019092919050505015156116b857600080fd5b5050565b600081838115156116c957fe5b04905092915050565b600073ffffffffffffffffffffffffffffffffffffffff168273ffffffffffffffffffffffffffffffffffffffff161415151561170e57600080fd5b6000811415151561171e57600080fd5b5050565b61012060405190810160405280606081526020016000815260200160008152602001600081526020016060815260200160608152602001600081526020016000151581526020016000151581525090565b828054600181600116156101000203166002900490600052602060002090601f016020900481019282601f106117b457805160ff19168380011785556117e2565b828001600101855582156117e2579182015b828111156117e15782518255916020019190600101906117c6565b5b5090506117ef91906117f3565b5090565b61181591905b808211156118115760008160009055506001016117f9565b5090565b905600a165627a7a72305820fed8ab8acf90ed6aacd6a04f8cd3527c1ee2bbc6eb8648b79e7e839d61fa379e0029",
  "source": "pragma solidity 0.4.24;\n\nimport '../token/GNIToken.sol';\nimport './MintedCrowdsale.sol';\nimport './TimedCrowdsale.sol';\nimport './CappedCrowdsale.sol';\nimport '../utility/SafeMath.sol';\n\ncontract GNITokenCrowdsale is TimedCrowdsale, CappedCrowdsale,  MintedCrowdsale {\n    using SafeMath for uint256;\n    address public developerWallet;\n    uint256 public totalValuation;\n\n    constructor\n        (\n          uint256 _openingTime,\n          uint256 _doomsDay,\n          uint256 _rate,\n          address _wallet,\n          address _developerWallet,\n          uint256 _cap,\n          MintableToken _token\n        )\n        public\n        Crowdsale(_rate, _wallet, _token)\n        //remove capped crowdsale\n        CappedCrowdsale(_cap)\n        TimedCrowdsale(_openingTime, _doomsDay) {\n            // rewriting wallet to this will not work in contructor\n            totalValuation = 0;\n            developerWallet = _developerWallet;\n            wallet = this;\n        }\n\n        struct Project {\n            string name;\n            uint256 projectClosingTime;\n            uint256 valuation;\n            uint256 capitalRequired;\n            string lat;\n            string lng;\n            uint256 voteCount;\n            bool capitalReached;\n            bool active;\n        }\n\n        event LogProject (\n            string name,\n            uint256 valuation,\n            uint256 capitalRequired,\n            string lat,\n            string lng,\n            uint256 voteCount,\n            bool capitalReached,\n            bool active\n        );\n\n\n        Project[] public projects;\n\n\n         function getProjectInfo(uint _projectId) public view returns(\n             string, uint256, uint256, bool, uint256\n\n         ) {\n             Project memory project = projects[_projectId];\n             return (\n                 project.name,\n                 project.valuation,\n                 project.capitalRequired,\n                 project.active,\n                 project.voteCount\n             );\n         }\n\n         function pitchProject(string _name, uint capitalRequired, uint _valuation, string _lat, string _lng) public payable {\n            issueTokensBasedOnPrice(_valuation);\n\n             totalValuation = totalValuation.add(_valuation);\n\n             // Increase crowdsale duation by 90 days\n             _extendClosingTime(90);\n\n             // Create project information\n             Project memory newProject = Project({\n                 name: _name,\n                 projectClosingTime: now + 86600 * 240,\n                 valuation: _valuation,\n                 capitalRequired: capitalRequired,\n                 lat: _lat,\n                 lng: _lng,\n                 capitalReached: false,\n                 active: false,\n                 voteCount: 0\n             });\n\n             // Save project information\n             uint id = projects.push(newProject) - 1;\n\n\n\n             // log the creation of the new project\n             emit LogProject(_name, _valuation, capitalRequired, _lat, _lng, 0, false, false);\n         }\n\n         function issueTokensBasedOnPrice(uint256 valuation) private {\n           uint tokensToIssue = valuation.div(rate);\n\n         }\n          // change logic to only issue if cap is reached */\n\n         function buyToken(uint _projectId) public payable {\n             // Can we change this to msg.sender so that there is not option to buy on behalf of someone else;\n\n             // before buyToken, verify that the project is still undeployed\n             require(!projects[_projectId].active);\n             buyTokens(msg.sender);\n             updateVoteCount(_projectId);\n         }\n\n         function updateVoteCount(uint _projectId) internal {\n             projects[_projectId].voteCount = projects[_projectId].voteCount.add(1);\n         }\n\n         // All Project addresses\n         struct ProjectAddress {\n             string location;\n             bool deployed;\n         }\n\n        function pitchProjectandRaiseCap(uint256 _projectValue) public {\n          uint newTokensIssued = 1000;\n          GNIToken(token).mint(wallet, newTokensIssued); // change logic to only issue if cap is reached\n          uint updatedTotalSupply = GNIToken(token).totalSupply();\n          cap = cap.add(_projectValue);\n          uint newRate = cap/updatedTotalSupply;\n          rate = newRate;\n        }\n\n        modifier onlyDeveloper() {\n          require(msg.sender == developerWallet);\n          _;\n        }\n\n        function _extendClosingTime(uint256 _days) internal onlyWhileOpen {\n            doomsDay = doomsDay.add(_days.mul(1728000));\n        }\n\n}\n",
  "sourcePath": "/Users/steven/genie-portal/truffle/contracts/crowdsale/GNITokenCrowdsale.sol",
  "compiler": {
    "name": "solc",
    "version": "0.4.24+commit.e67f0147.Emscripten.clang"
  },
  "schemaVersion": "2.0.1",
  "updatedAt": "2018-10-01T20:33:44.941Z"
}