{
  "contractName": "GNITokenCrowdsale",
  "abi": [
    {
      "constant": true,
      "inputs": [
        {
          "name": "",
          "type": "uint256"
        }
      ],
      "name": "projects",
      "outputs": [
        {
          "name": "",
          "type": "address"
        }
      ],
      "payable": false,
      "stateMutability": "view",
      "type": "function"
    },
    {
      "constant": true,
      "inputs": [],
      "name": "hasClosed",
      "outputs": [
        {
          "name": "",
          "type": "bool"
        }
      ],
      "payable": false,
      "stateMutability": "view",
      "type": "function"
    },
    {
      "constant": true,
      "inputs": [],
      "name": "totalValuation",
      "outputs": [
        {
          "name": "",
          "type": "uint256"
        }
      ],
      "payable": false,
      "stateMutability": "view",
      "type": "function"
    },
    {
      "constant": true,
      "inputs": [],
      "name": "rate",
      "outputs": [
        {
          "name": "",
          "type": "uint256"
        }
      ],
      "payable": false,
      "stateMutability": "view",
      "type": "function"
    },
    {
      "constant": true,
      "inputs": [],
      "name": "weiRaised",
      "outputs": [
        {
          "name": "",
          "type": "uint256"
        }
      ],
      "payable": false,
      "stateMutability": "view",
      "type": "function"
    },
    {
      "constant": true,
      "inputs": [],
      "name": "openingTime",
      "outputs": [
        {
          "name": "",
          "type": "uint256"
        }
      ],
      "payable": false,
      "stateMutability": "view",
      "type": "function"
    },
    {
      "constant": true,
      "inputs": [],
      "name": "doomsDay",
      "outputs": [
        {
          "name": "",
          "type": "uint256"
        }
      ],
      "payable": false,
      "stateMutability": "view",
      "type": "function"
    },
    {
      "constant": true,
      "inputs": [],
      "name": "developer",
      "outputs": [
        {
          "name": "",
          "type": "address"
        }
      ],
      "payable": false,
      "stateMutability": "view",
      "type": "function"
    },
    {
      "constant": false,
      "inputs": [
        {
          "name": "_beneficiary",
          "type": "address"
        }
      ],
      "name": "buyTokens",
      "outputs": [],
      "payable": true,
      "stateMutability": "payable",
      "type": "function"
    },
    {
      "constant": true,
      "inputs": [],
      "name": "token",
      "outputs": [
        {
          "name": "",
          "type": "address"
        }
      ],
      "payable": false,
      "stateMutability": "view",
      "type": "function"
    },
    {
      "inputs": [
        {
          "name": "_openingTime",
          "type": "uint256"
        },
        {
          "name": "_doomsDay",
          "type": "uint256"
        },
        {
          "name": "_rate",
          "type": "uint256"
        },
        {
          "name": "_developer",
          "type": "address"
        },
        {
          "name": "_token",
          "type": "address"
        },
        {
          "name": "_investorList",
          "type": "address"
        }
      ],
      "payable": false,
      "stateMutability": "nonpayable",
      "type": "constructor"
    },
    {
      "payable": true,
      "stateMutability": "payable",
      "type": "fallback"
    },
    {
      "anonymous": false,
      "inputs": [
        {
          "indexed": true,
          "name": "purchaser",
          "type": "address"
        },
        {
          "indexed": true,
          "name": "beneficiary",
          "type": "address"
        },
        {
          "indexed": false,
          "name": "value",
          "type": "uint256"
        },
        {
          "indexed": false,
          "name": "amount",
          "type": "uint256"
        }
      ],
      "name": "TokenPurchase",
      "type": "event"
    },
    {
      "constant": true,
      "inputs": [
        {
          "name": "id",
          "type": "uint256"
        }
      ],
      "name": "getInfo",
      "outputs": [
        {
          "name": "",
          "type": "string"
        },
        {
          "name": "",
          "type": "uint256"
        },
        {
          "name": "",
          "type": "uint256"
        },
        {
          "name": "",
          "type": "uint256"
        },
        {
          "name": "",
          "type": "uint256"
        },
        {
          "name": "",
          "type": "bool"
        },
        {
          "name": "",
          "type": "uint256"
        },
        {
          "name": "",
          "type": "uint256"
        },
        {
          "name": "",
          "type": "address"
        }
      ],
      "payable": false,
      "stateMutability": "view",
      "type": "function"
    },
    {
      "constant": false,
      "inputs": [
        {
          "name": "_name",
          "type": "string"
        },
        {
          "name": "capitalRequired",
          "type": "uint256"
        },
        {
          "name": "_valuation",
          "type": "uint256"
        },
        {
          "name": "_lat",
          "type": "string"
        },
        {
          "name": "_lng",
          "type": "string"
        }
      ],
      "name": "pitchProject",
      "outputs": [],
      "payable": true,
      "stateMutability": "payable",
      "type": "function"
    },
    {
      "constant": false,
      "inputs": [
        {
          "name": "_projectVotedForId",
          "type": "uint256"
        }
      ],
      "name": "buyTokensAndVote",
      "outputs": [],
      "payable": true,
      "stateMutability": "payable",
      "type": "function"
    },
    {
      "constant": false,
      "inputs": [],
      "name": "activateProject",
      "outputs": [],
      "payable": false,
      "stateMutability": "nonpayable",
      "type": "function"
    }
  ],
  "bytecode": "0x608060405234801561001057600080fd5b5060405160c08062003901833981018060405281019080805190602001909291908051906020019092919080519060200190929190805190602001909291908051906020019092919080519060200190929190505050858585858560008311151561007a57600080fd5b600073ffffffffffffffffffffffffffffffffffffffff168273ffffffffffffffffffffffffffffffffffffffff16141515156100b657600080fd5b8260028190555081600160006101000a81548173ffffffffffffffffffffffffffffffffffffffff021916908373ffffffffffffffffffffffffffffffffffffffff160217905550806000806101000a81548173ffffffffffffffffffffffffffffffffffffffff021916908373ffffffffffffffffffffffffffffffffffffffff16021790555050505042821015151561015057600080fd5b81811015151561015f57600080fd5b8160048190555080600581905550505080600760006101000a81548173ffffffffffffffffffffffffffffffffffffffff021916908373ffffffffffffffffffffffffffffffffffffffff160217905550600060068190555050505050505061373380620001ce6000396000f300608060405260043610620000df576000357c0100000000000000000000000000000000000000000000000000000000900463ffffffff168063107046bd14620000e15780631515bc2b14620001515780631a3cd59a1462000183578063295b930014620002975780632c4e722e14620002c55780633cb78fe014620002f35780634042b66f146200030d578063589679c7146200033b57806365af1672146200035d578063b7a8807c146200045b578063c19b7bc01462000489578063ca4b208b14620004b7578063ec8ac4d81462000511578063fc0c546a1462000549575b005b348015620000ee57600080fd5b506200010f60048036038101908080359060200190929190505050620005a3565b604051808273ffffffffffffffffffffffffffffffffffffffff1673ffffffffffffffffffffffffffffffffffffffff16815260200191505060405180910390f35b3480156200015e57600080fd5b5062000169620005e2565b604051808215151515815260200191505060405180910390f35b3480156200019057600080fd5b50620001b160048036038101908080359060200190929190505050620005ee565b60405180806020018a8152602001898152602001888152602001878152602001861515151581526020018581526020018481526020018373ffffffffffffffffffffffffffffffffffffffff1673ffffffffffffffffffffffffffffffffffffffff16815260200182810382528b818151815260200191508051906020019080838360005b838110156200025357808201518184015260208101905062000236565b50505050905090810190601f168015620002815780820380516001836020036101000a031916815260200191505b509a505050505050505050505060405180910390f35b348015620002a457600080fd5b50620002af62000bc7565b6040518082815260200191505060405180910390f35b348015620002d257600080fd5b50620002dd62000bcd565b6040518082815260200191505060405180910390f35b3480156200030057600080fd5b506200030b62000bd3565b005b3480156200031a57600080fd5b506200032562000fd0565b6040518082815260200191505060405180910390f35b6200035b6004803603810190808035906020019092919050505062000fd6565b005b62000459600480360381019080803590602001908201803590602001908080601f01602080910402602001604051908101604052809392919081815260200183838082843782019150505050505091929192908035906020019092919080359060200190929190803590602001908201803590602001908080601f0160208091040260200160405190810160405280939291908181526020018383808284378201915050505050509192919290803590602001908201803590602001908080601f01602080910402602001604051908101604052809392919081815260200183838082843782019150505050505091929192905050506200118e565b005b3480156200046857600080fd5b5062000473620015f8565b6040518082815260200191505060405180910390f35b3480156200049657600080fd5b50620004a1620015fe565b6040518082815260200191505060405180910390f35b348015620004c457600080fd5b50620004cf62001604565b604051808273ffffffffffffffffffffffffffffffffffffffff1673ffffffffffffffffffffffffffffffffffffffff16815260200191505060405180910390f35b62000547600480360381019080803573ffffffffffffffffffffffffffffffffffffffff1690602001909291905050506200162a565b005b3480156200055657600080fd5b506200056162001831565b604051808273ffffffffffffffffffffffffffffffffffffffff1673ffffffffffffffffffffffffffffffffffffffff16815260200191505060405180910390f35b600881815481101515620005b357fe5b906000526020600020016000915054906101000a900473ffffffffffffffffffffffffffffffffffffffff1681565b60006005544211905090565b6060600080600080600080600080600060088b8154811015156200060e57fe5b9060005260206000200160009054906101000a900473ffffffffffffffffffffffffffffffffffffffff1690508073ffffffffffffffffffffffffffffffffffffffff166306fdde036040518163ffffffff167c0100000000000000000000000000000000000000000000000000000000028152600401600060405180830381600087803b158015620006a057600080fd5b505af1158015620006b5573d6000803e3d6000fd5b505050506040513d6000823e3d601f19601f820116820180604052506020811015620006e057600080fd5b810190808051640100000000811115620006f957600080fd5b828101905060208101848111156200071057600080fd5b81518560018202830111640100000000821117156200072e57600080fd5b50509291905050508173ffffffffffffffffffffffffffffffffffffffff166321a7cfe46040518163ffffffff167c0100000000000000000000000000000000000000000000000000000000028152600401602060405180830381600087803b1580156200079b57600080fd5b505af1158015620007b0573d6000803e3d6000fd5b505050506040513d6020811015620007c757600080fd5b81019080805190602001909291905050508273ffffffffffffffffffffffffffffffffffffffff1663ec61b0866040518163ffffffff167c0100000000000000000000000000000000000000000000000000000000028152600401602060405180830381600087803b1580156200083d57600080fd5b505af115801562000852573d6000803e3d6000fd5b505050506040513d60208110156200086957600080fd5b81019080805190602001909291905050508373ffffffffffffffffffffffffffffffffffffffff16636417d7b06040518163ffffffff167c0100000000000000000000000000000000000000000000000000000000028152600401602060405180830381600087803b158015620008df57600080fd5b505af1158015620008f4573d6000803e3d6000fd5b505050506040513d60208110156200090b57600080fd5b81019080805190602001909291905050508473ffffffffffffffffffffffffffffffffffffffff16624dcde56040518163ffffffff167c0100000000000000000000000000000000000000000000000000000000028152600401602060405180830381600087803b1580156200098057600080fd5b505af115801562000995573d6000803e3d6000fd5b505050506040513d6020811015620009ac57600080fd5b81019080805190602001909291905050508573ffffffffffffffffffffffffffffffffffffffff166302fb0c5e6040518163ffffffff167c0100000000000000000000000000000000000000000000000000000000028152600401602060405180830381600087803b15801562000a2257600080fd5b505af115801562000a37573d6000803e3d6000fd5b505050506040513d602081101562000a4e57600080fd5b81019080805190602001909291905050508673ffffffffffffffffffffffffffffffffffffffff1663c63840716040518163ffffffff167c0100000000000000000000000000000000000000000000000000000000028152600401602060405180830381600087803b15801562000ac457600080fd5b505af115801562000ad9573d6000803e3d6000fd5b505050506040513d602081101562000af057600080fd5b81019080805190602001909291905050508773ffffffffffffffffffffffffffffffffffffffff16634b6753bc6040518163ffffffff167c0100000000000000000000000000000000000000000000000000000000028152600401602060405180830381600087803b15801562000b6657600080fd5b505af115801562000b7b573d6000803e3d6000fd5b505050506040513d602081101562000b9257600080fd5b810190808051906020019092919050505088889850995099509950995099509950995099509950509193959799909294969850565b60065481565b60025481565b60008060008062000be362001856565b93509350821562000fca5760088481548110151562000bfe57fe5b9060005260206000200160009054906101000a900473ffffffffffffffffffffffffffffffffffffffff1691508173ffffffffffffffffffffffffffffffffffffffff1663929aebdf6040518163ffffffff167c0100000000000000000000000000000000000000000000000000000000028152600401602060405180830381600087803b15801562000c9057600080fd5b505af115801562000ca5573d6000803e3d6000fd5b505050506040513d602081101562000cbc57600080fd5b810190808051906020019092919050505090506000809054906101000a900473ffffffffffffffffffffffffffffffffffffffff1673ffffffffffffffffffffffffffffffffffffffff1663ca11be69600160009054906101000a900473ffffffffffffffffffffffffffffffffffffffff16836040518363ffffffff167c0100000000000000000000000000000000000000000000000000000000028152600401808373ffffffffffffffffffffffffffffffffffffffff1673ffffffffffffffffffffffffffffffffffffffff16815260200182815260200192505050600060405180830381600087803b15801562000db657600080fd5b505af115801562000dcb573d6000803e3d6000fd5b5050505062000e7c8273ffffffffffffffffffffffffffffffffffffffff1663d705f3876040518163ffffffff167c0100000000000000000000000000000000000000000000000000000000028152600401602060405180830381600087803b15801562000e3857600080fd5b505af115801562000e4d573d6000803e3d6000fd5b505050506040513d602081101562000e6457600080fd5b81019080805190602001909291905050508562001ae4565b62000f4b600160009054906101000a900473ffffffffffffffffffffffffffffffffffffffff168373ffffffffffffffffffffffffffffffffffffffff1663d4cf7db66040518163ffffffff167c0100000000000000000000000000000000000000000000000000000000028152600401602060405180830381600087803b15801562000f0857600080fd5b505af115801562000f1d573d6000803e3d6000fd5b505050506040513d602081101562000f3457600080fd5b810190808051906020019092919050505062002166565b8173ffffffffffffffffffffffffffffffffffffffff16630f15f4c06040518163ffffffff167c0100000000000000000000000000000000000000000000000000000000028152600401600060405180830381600087803b15801562000fb057600080fd5b505af115801562000fc5573d6000803e3d6000fd5b505050505b50505050565b60035481565b62000fe1336200162a565b600760009054906101000a900473ffffffffffffffffffffffffffffffffffffffff1673ffffffffffffffffffffffffffffffffffffffff1663237429228234336040518463ffffffff167c0100000000000000000000000000000000000000000000000000000000028152600401808481526020018381526020018273ffffffffffffffffffffffffffffffffffffffff1673ffffffffffffffffffffffffffffffffffffffff1681526020019350505050600060405180830381600087803b158015620010af57600080fd5b505af1158015620010c4573d6000803e3d6000fd5b50505050600881815481101515620010d857fe5b9060005260206000200160009054906101000a900473ffffffffffffffffffffffffffffffffffffffff1673ffffffffffffffffffffffffffffffffffffffff166382ab890a346040518263ffffffff167c010000000000000000000000000000000000000000000000000000000002815260040180828152602001915050600060405180830381600087803b1580156200117257600080fd5b505af115801562001187573d6000803e3d6000fd5b5050505050565b600080600080620011a08789620021cf565b935093506000809054906101000a900473ffffffffffffffffffffffffffffffffffffffff1673ffffffffffffffffffffffffffffffffffffffff166340c10f19600160009054906101000a900473ffffffffffffffffffffffffffffffffffffffff166200121986886200222590919063ffffffff16565b6040518363ffffffff167c0100000000000000000000000000000000000000000000000000000000028152600401808373ffffffffffffffffffffffffffffffffffffffff1673ffffffffffffffffffffffffffffffffffffffff16815260200182815260200192505050602060405180830381600087803b1580156200129f57600080fd5b505af1158015620012b4573d6000803e3d6000fd5b505050506040513d6020811015620012cb57600080fd5b810190808051906020019092919050505050620012f4876006546200222590919063ffffffff16565b60068190555062001306605a62002242565b60088054905091508189600160009054906101000a900473ffffffffffffffffffffffffffffffffffffffff16898b88888c8c62001343620023d4565b808a8152602001806020018973ffffffffffffffffffffffffffffffffffffffff1673ffffffffffffffffffffffffffffffffffffffff168152602001888152602001878152602001868152602001858152602001806020018060200184810384528c818151815260200191508051906020019080838360005b83811015620013da578082015181840152602081019050620013bd565b50505050905090810190601f168015620014085780820380516001836020036101000a031916815260200191505b50848103835286818151815260200191508051906020019080838360005b838110156200144357808201518184015260208101905062001426565b50505050905090810190601f168015620014715780820380516001836020036101000a031916815260200191505b50848103825285818151815260200191508051906020019080838360005b83811015620014ac5780820151818401526020810190506200148f565b50505050905090810190601f168015620014da5780820380516001836020036101000a031916815260200191505b509c50505050505050505050505050604051809103906000f08015801562001506573d6000803e3d6000fd5b50905060088190806001815401808255809150509060018203906000526020600020016000909192909190916101000a81548173ffffffffffffffffffffffffffffffffffffffff021916908373ffffffffffffffffffffffffffffffffffffffff160217905550508073ffffffffffffffffffffffffffffffffffffffff166351973ec96040518163ffffffff167c0100000000000000000000000000000000000000000000000000000000028152600401600060405180830381600087803b158015620015d457600080fd5b505af1158015620015e9573d6000803e3d6000fd5b50505050505050505050505050565b60045481565b60055481565b600160009054906101000a900473ffffffffffffffffffffffffffffffffffffffff1681565b6000803491506200163c8383620022af565b6200164782620022f5565b905062001660826003546200222590919063ffffffff16565b6003819055506000809054906101000a900473ffffffffffffffffffffffffffffffffffffffff1673ffffffffffffffffffffffffffffffffffffffff166323b872dd600160009054906101000a900473ffffffffffffffffffffffffffffffffffffffff1685846040518463ffffffff167c0100000000000000000000000000000000000000000000000000000000028152600401808473ffffffffffffffffffffffffffffffffffffffff1673ffffffffffffffffffffffffffffffffffffffff1681526020018373ffffffffffffffffffffffffffffffffffffffff1673ffffffffffffffffffffffffffffffffffffffff1681526020018281526020019350505050602060405180830381600087803b1580156200178157600080fd5b505af115801562001796573d6000803e3d6000fd5b505050506040513d6020811015620017ad57600080fd5b8101908080519060200190929190505050508273ffffffffffffffffffffffffffffffffffffffff163373ffffffffffffffffffffffffffffffffffffffff167f623b3804fa71d67900d064613da8f94b9617215ee90799290593e1745087ad188484604051808381526020018281526020019250505060405180910390a3505050565b6000809054906101000a900473ffffffffffffffffffffffffffffffffffffffff1681565b6000806000806000809150600090505b600880549050811015620019ed576008818154811015156200188457fe5b9060005260206000200160009054906101000a900473ffffffffffffffffffffffffffffffffffffffff1673ffffffffffffffffffffffffffffffffffffffff1663705c5be5600885815481101515620018da57fe5b9060005260206000200160009054906101000a900473ffffffffffffffffffffffffffffffffffffffff166040518263ffffffff167c0100000000000000000000000000000000000000000000000000000000028152600401808273ffffffffffffffffffffffffffffffffffffffff1673ffffffffffffffffffffffffffffffffffffffff168152602001915050602060405180830381600087803b1580156200198457600080fd5b505af115801562001999573d6000803e3d6000fd5b505050506040513d6020811015620019b057600080fd5b810190808051906020019092919050505015620019cf57809250600191505b620019e56001826200222590919063ffffffff16565b905062001866565b8282801562001ad9575060035460088581548110151562001a0a57fe5b9060005260206000200160009054906101000a900473ffffffffffffffffffffffffffffffffffffffff1673ffffffffffffffffffffffffffffffffffffffff1663d4cf7db66040518163ffffffff167c0100000000000000000000000000000000000000000000000000000000028152600401602060405180830381600087803b15801562001a9957600080fd5b505af115801562001aae573d6000803e3d6000fd5b505050506040513d602081101562001ac557600080fd5b810190808051906020019092919050505011155b945094505050509091565b60008060008060008062001cdf6000809054906101000a900473ffffffffffffffffffffffffffffffffffffffff1673ffffffffffffffffffffffffffffffffffffffff166396b2b13b600160009054906101000a900473ffffffffffffffffffffffffffffffffffffffff166040518263ffffffff167c0100000000000000000000000000000000000000000000000000000000028152600401808273ffffffffffffffffffffffffffffffffffffffff1673ffffffffffffffffffffffffffffffffffffffff168152602001915050602060405180830381600087803b15801562001bd057600080fd5b505af115801562001be5573d6000803e3d6000fd5b505050506040513d602081101562001bfc57600080fd5b81019080805190602001909291905050506000809054906101000a900473ffffffffffffffffffffffffffffffffffffffff1673ffffffffffffffffffffffffffffffffffffffff1663596cc0a86040518163ffffffff167c0100000000000000000000000000000000000000000000000000000000028152600401602060405180830381600087803b15801562001c9357600080fd5b505af115801562001ca8573d6000803e3d6000fd5b505050506040513d602081101562001cbf57600080fd5b81019080805190602001909291905050506200231590919063ffffffff16565b955062001cf688876200232f90919063ffffffff16565b9450600093505b600760009054906101000a900473ffffffffffffffffffffffffffffffffffffffff1673ffffffffffffffffffffffffffffffffffffffff1663d7e64c006040518163ffffffff167c0100000000000000000000000000000000000000000000000000000000028152600401602060405180830381600087803b15801562001d8457600080fd5b505af115801562001d99573d6000803e3d6000fd5b505050506040513d602081101562001db057600080fd5b81019080805190602001909291905050508410156200215c57600760009054906101000a900473ffffffffffffffffffffffffffffffffffffffff1673ffffffffffffffffffffffffffffffffffffffff1663e4e81ad8856040518263ffffffff167c010000000000000000000000000000000000000000000000000000000002815260040180828152602001915050602060405180830381600087803b15801562001e5b57600080fd5b505af115801562001e70573d6000803e3d6000fd5b505050506040513d602081101562001e8757600080fd5b810190808051906020019092919050505092506000809054906101000a900473ffffffffffffffffffffffffffffffffffffffff1673ffffffffffffffffffffffffffffffffffffffff166370a08231846040518263ffffffff167c0100000000000000000000000000000000000000000000000000000000028152600401808273ffffffffffffffffffffffffffffffffffffffff1673ffffffffffffffffffffffffffffffffffffffff168152602001915050602060405180830381600087803b15801562001f5757600080fd5b505af115801562001f6c573d6000803e3d6000fd5b505050506040513d602081101562001f8357600080fd5b8101908080519060200190929190505050915062001fab85836200232f90919063ffffffff16565b90506000809054906101000a900473ffffffffffffffffffffffffffffffffffffffff1673ffffffffffffffffffffffffffffffffffffffff1663ca11be6984836040518363ffffffff167c0100000000000000000000000000000000000000000000000000000000028152600401808373ffffffffffffffffffffffffffffffffffffffff1673ffffffffffffffffffffffffffffffffffffffff16815260200182815260200192505050600060405180830381600087803b1580156200207257600080fd5b505af115801562002087573d6000803e3d6000fd5b50505050600760009054906101000a900473ffffffffffffffffffffffffffffffffffffffff1673ffffffffffffffffffffffffffffffffffffffff166365635b9e85896040518363ffffffff167c01000000000000000000000000000000000000000000000000000000000281526004018083815260200182815260200192505050600060405180830381600087803b1580156200212557600080fd5b505af11580156200213a573d6000803e3d6000fd5b50505050620021546001856200222590919063ffffffff16565b935062001cfd565b5050505050505050565b8173ffffffffffffffffffffffffffffffffffffffff166108fc829081150290604051600060405180830381858888f19350505050158015620021ad573d6000803e3d6000fd5b50620021c5816003546200231590919063ffffffff16565b6003819055505050565b6000806000620021e984866200231590919063ffffffff16565b905062002202600254826200234690919063ffffffff16565b62002219600254866200234690919063ffffffff16565b92509250509250929050565b600081830190508281101515156200223957fe5b80905092915050565b60008060004292506004549150600554905060045442101580156200226957506005544211155b15156200227557600080fd5b620022a362002291621a5e00866200234690919063ffffffff16565b6005546200222590919063ffffffff16565b60058190555050505050565b6000806000429250600454915060055490506004544210158015620022d657506005544211155b1515620022e257600080fd5b620022ee858562002382565b5050505050565b60006200230e600254836200234690919063ffffffff16565b9050919050565b60008282111515156200232457fe5b818303905092915050565b600081838115156200233d57fe5b04905092915050565b6000808314156200235b57600090506200237c565b81830290508183828115156200236d57fe5b041415156200237857fe5b8090505b92915050565b600073ffffffffffffffffffffffffffffffffffffffff168273ffffffffffffffffffffffffffffffffffffffff1614151515620023bf57600080fd5b60008114151515620023d057600080fd5b5050565b60405161132280620023e683390190560060806040523480156200001157600080fd5b506040516200132238038062001322833981018060405281019080805190602001909291908051820192919060200180519060200190929190805190602001909291908051906020019092919080519060200190929190805190602001909291908051820192919060200180518201929190505050886000819055508760019080519060200190620000a592919062000174565b5086600260006101000a81548173ffffffffffffffffffffffffffffffffffffffff021916908373ffffffffffffffffffffffffffffffffffffffff1602179055508560058190555084600681905550836007819055508260088190555081600990805190602001906200011b92919062000174565b5080600a90805190602001906200013492919062000174565b506000600b819055506000600c60006101000a81548160ff02191690831515021790555063013d2380420160048190555050505050505050505062000223565b828054600181600116156101000203166002900490600052602060002090601f016020900481019282601f10620001b757805160ff1916838001178555620001e8565b82800160010185558215620001e8579182015b82811115620001e7578251825591602001919060010190620001ca565b5b509050620001f79190620001fb565b5090565b6200022091905b808211156200021c57600081600090555060010162000202565b5090565b90565b6110ef80620002336000396000f300608060405260043610610153576000357c0100000000000000000000000000000000000000000000000000000000900463ffffffff1680624dcde514610158578063015e72ec1461018357806302fb0c5e1461021357806306fdde03146102425780630f15f4c0146102d257806321a7cfe4146102e9578063272666e3146103145780632d06177a1461033f57806335d97405146103825780634b6753bc146103d95780634d7c09dd1461040457806351973ec91461043357806355d576cc1461044a5780635b184f88146104da5780636417d7b01461051d578063705c5be51461054857806382ab890a146105a3578063929aebdf146105d0578063af640d0f146105fb578063c638407114610626578063ca4b208b14610651578063d0e30db0146106a8578063d4cf7db6146106b2578063d705f387146106dd578063ec61b08614610708578063f25874c814610733575b600080fd5b34801561016457600080fd5b5061016d61075e565b6040518082815260200191505060405180910390f35b34801561018f57600080fd5b50610198610764565b6040518080602001828103825283818151815260200191508051906020019080838360005b838110156101d85780820151818401526020810190506101bd565b50505050905090810190601f1680156102055780820380516001836020036101000a031916815260200191505b509250505060405180910390f35b34801561021f57600080fd5b50610228610802565b604051808215151515815260200191505060405180910390f35b34801561024e57600080fd5b50610257610815565b6040518080602001828103825283818151815260200191508051906020019080838360005b8381101561029757808201518184015260208101905061027c565b50505050905090810190601f1680156102c45780820380516001836020036101000a031916815260200191505b509250505060405180910390f35b3480156102de57600080fd5b506102e76108b3565b005b3480156102f557600080fd5b506102fe6108d8565b6040518082815260200191505060405180910390f35b34801561032057600080fd5b506103296108de565b6040518082815260200191505060405180910390f35b34801561034b57600080fd5b50610380600480360381019080803573ffffffffffffffffffffffffffffffffffffffff1690602001909291905050506108e8565b005b34801561038e57600080fd5b506103976109fa565b604051808273ffffffffffffffffffffffffffffffffffffffff1673ffffffffffffffffffffffffffffffffffffffff16815260200191505060405180910390f35b3480156103e557600080fd5b506103ee610a20565b6040518082815260200191505060405180910390f35b34801561041057600080fd5b50610419610a26565b604051808215151515815260200191505060405180910390f35b34801561043f57600080fd5b50610448610a3d565b005b34801561045657600080fd5b5061045f610c66565b6040518080602001828103825283818151815260200191508051906020019080838360005b8381101561049f578082015181840152602081019050610484565b50505050905090810190601f1680156104cc5780820380516001836020036101000a031916815260200191505b509250505060405180910390f35b3480156104e657600080fd5b5061051b600480360381019080803573ffffffffffffffffffffffffffffffffffffffff169060200190929190505050610d04565b005b34801561052957600080fd5b50610532610dff565b6040518082815260200191505060405180910390f35b34801561055457600080fd5b50610589600480360381019080803573ffffffffffffffffffffffffffffffffffffffff169060200190929190505050610e05565b604051808215151515815260200191505060405180910390f35b3480156105af57600080fd5b506105ce60048036038101908080359060200190929190505050610f8c565b005b3480156105dc57600080fd5b506105e5610fc7565b6040518082815260200191505060405180910390f35b34801561060757600080fd5b50610610610fd1565b6040518082815260200191505060405180910390f35b34801561063257600080fd5b5061063b610fd7565b6040518082815260200191505060405180910390f35b34801561065d57600080fd5b50610666610fdd565b604051808273ffffffffffffffffffffffffffffffffffffffff1673ffffffffffffffffffffffffffffffffffffffff16815260200191505060405180910390f35b6106b0611003565b005b3480156106be57600080fd5b506106c7611083565b6040518082815260200191505060405180910390f35b3480156106e957600080fd5b506106f261108d565b6040518082815260200191505060405180910390f35b34801561071457600080fd5b5061071d611097565b6040518082815260200191505060405180910390f35b34801561073f57600080fd5b5061074861109d565b6040518082815260200191505060405180910390f35b60085481565b600a8054600181600116156101000203166002900480601f0160208091040260200160405190810160405280929190818152602001828054600181600116156101000203166002900480156107fa5780601f106107cf576101008083540402835291602001916107fa565b820191906000526020600020905b8154815290600101906020018083116107dd57829003601f168201915b505050505081565b600c60009054906101000a900460ff1681565b60018054600181600116156101000203166002900480601f0160208091040260200160405190810160405280929190818152602001828054600181600116156101000203166002900480156108ab5780601f10610880576101008083540402835291602001916108ab565b820191906000526020600020905b81548152906001019060200180831161088e57829003601f168201915b505050505081565b6001600c60006101000a81548160ff0219169083151502179055506108d6610a3d565b565b60055481565b6000600454905090565b60011515600d60003373ffffffffffffffffffffffffffffffffffffffff1673ffffffffffffffffffffffffffffffffffffffff16815260200190815260200160002060009054906101000a900460ff16151514806109945750600260009054906101000a900473ffffffffffffffffffffffffffffffffffffffff1673ffffffffffffffffffffffffffffffffffffffff163373ffffffffffffffffffffffffffffffffffffffff16145b151561099f57600080fd5b6001600d60008373ffffffffffffffffffffffffffffffffffffffff1673ffffffffffffffffffffffffffffffffffffffff16815260200190815260200160002060006101000a81548160ff02191690831515021790555050565b600360009054906101000a900473ffffffffffffffffffffffffffffffffffffffff1681565b60045481565b6000600c60009054906101000a900460ff16905090565b7f2870b0d0558b1786ef247a7bb0787eaae7392b072f7ca327b464981f23fb0e9260005460016005546006546007546008546009600a600b54600c60009054906101000a900460ff16604051808b8152602001806020018a815260200189815260200188815260200187815260200180602001806020018681526020018515151515815260200184810384528d818154600181600116156101000203166002900481526020019150805460018160011615610100020316600290048015610b455780601f10610b1a57610100808354040283529160200191610b45565b820191906000526020600020905b815481529060010190602001808311610b2857829003601f168201915b5050848103835288818154600181600116156101000203166002900481526020019150805460018160011615610100020316600290048015610bc85780601f10610b9d57610100808354040283529160200191610bc8565b820191906000526020600020905b815481529060010190602001808311610bab57829003601f168201915b5050848103825287818154600181600116156101000203166002900481526020019150805460018160011615610100020316600290048015610c4b5780601f10610c2057610100808354040283529160200191610c4b565b820191906000526020600020905b815481529060010190602001808311610c2e57829003601f168201915b50509d505050505050505050505050505060405180910390a1565b60098054600181600116156101000203166002900480601f016020809104026020016040519081016040528092919081815260200182805460018160011615610100020316600290048015610cfc5780601f10610cd157610100808354040283529160200191610cfc565b820191906000526020600020905b815481529060010190602001808311610cdf57829003601f168201915b505050505081565b60011515600d60003373ffffffffffffffffffffffffffffffffffffffff1673ffffffffffffffffffffffffffffffffffffffff16815260200190815260200160002060009054906101000a900460ff1615151480610db05750600260009054906101000a900473ffffffffffffffffffffffffffffffffffffffff1673ffffffffffffffffffffffffffffffffffffffff163373ffffffffffffffffffffffffffffffffffffffff16145b1515610dbb57600080fd5b80600360006101000a81548173ffffffffffffffffffffffffffffffffffffffff021916908373ffffffffffffffffffffffffffffffffffffffff16021790555050565b60075481565b6000600c60009054906101000a900460ff16158015610e2657506000600b54115b8015610e33575042600454115b8015610edf57508173ffffffffffffffffffffffffffffffffffffffff1663f25874c86040518163ffffffff167c0100000000000000000000000000000000000000000000000000000000028152600401602060405180830381600087803b158015610e9e57600080fd5b505af1158015610eb2573d6000803e3d6000fd5b505050506040513d6020811015610ec857600080fd5b8101908080519060200190929190505050600b5410155b80610f8557508173ffffffffffffffffffffffffffffffffffffffff16634d7c09dd6040518163ffffffff167c0100000000000000000000000000000000000000000000000000000000028152600401602060405180830381600087803b158015610f4957600080fd5b505af1158015610f5d573d6000803e3d6000fd5b505050506040513d6020811015610f7357600080fd5b81019080805190602001909291905050505b9050919050565b610fa181600b546110a790919063ffffffff16565b600b81905550610fbe61a8c06004546110a790919063ffffffff16565b60048190555050565b6000600754905090565b60005481565b600b5481565b600260009054906101000a900473ffffffffffffffffffffffffffffffffffffffff1681565b600080341415151561101457600080fd5b349050600360009054906101000a900473ffffffffffffffffffffffffffffffffffffffff1673ffffffffffffffffffffffffffffffffffffffff166108fc829081150290604051600060405180830381858888f1935050505015801561107f573d6000803e3d6000fd5b5050565b6000600654905090565b6000600854905090565b60065481565b6000600b54905090565b600081830190508281101515156110ba57fe5b809050929150505600a165627a7a7230582092071eace2eb90172531967ad7ef3a4ce0847600a9994959a22a1fc45c51a67e0029a165627a7a723058208b24acf61744cbc3027e0d5c0534a8ec8b47086ba683778cc45f1312eea89cb50029",
  "source": "pragma solidity 0.4.24;\nimport './TimedCrowdsale.sol';\nimport '../utility/SafeMath.sol';\nimport '../Project.sol';\nimport '../token/ERC20/Token.sol';\nimport '../InvestorList.sol';\n\ncontract GNITokenCrowdsale is TimedCrowdsale {\n  using SafeMath for uint256;\n  uint256 public totalValuation;\n  InvestorList private investorList;\n\n  constructor\n      (\n        uint256 _openingTime,\n        uint256 _doomsDay,\n        uint256 _rate,\n        address _developer,\n        Token _token,\n        InvestorList _investorList\n      )\n      public\n      Crowdsale(_rate, _developer, _token)\n      TimedCrowdsale(_openingTime, _doomsDay) {\n        investorList = InvestorList(_investorList);\n        totalValuation = 0;\n  }\n\n  /* event LogVotes (\n    address voter,\n    uint256 projectId,\n    uint256 amount\n    ); */\n\n\n  address[] public projects;\n\n  function getInfo(uint256 id) public view returns(\n    string, uint256, uint256, uint256, uint256, bool, uint256, uint256, address\n    ) {\n      address projectAddr = projects[id];\n      return (\n        Project(projectAddr).name(),\n        Project(projectAddr).valuation(),\n        Project(projectAddr).capitalRequired(),\n        Project(projectAddr).developerTokens(),\n        Project(projectAddr).investorTokens(),\n        Project(projectAddr).active(),\n        Project(projectAddr).voteCount(),\n        Project(projectAddr).closingTime(),\n        projectAddr\n        );\n      }\n\n//after this, the developer has to approve this contract to spend the amount of inactive tokens associated with developers on its behalf\n function pitchProject(string _name, uint capitalRequired, uint256 _valuation, string _lat, string _lng) public payable {\n   (uint256 developerTokens, uint256 investorTokens) = tokensToIssue(_valuation, capitalRequired);\n\n   Token(token).mint(developer, developerTokens.add(investorTokens));\n   totalValuation = totalValuation.add(_valuation);\n\n     // Increase crowdsale duation by 90 days\n   _extendDoomsDay(90);\n\n    uint256 _id = projects.length;\n    //the following line causes a migration error...\n    address projectAddr = new Project(_id, _name, developer, _valuation, capitalRequired, developerTokens, investorTokens, _lat, _lng);\n    projects.push(projectAddr);\n    Project(projectAddr).log();\n }\n\n function tokensToIssue (uint256 valuation, uint256 investorValue) private view returns (uint256, uint256) {\n   uint256 developerValue = valuation.sub(investorValue);\n\n   return (developerValue.mul(rate), investorValue.mul(rate));\n }\n\n //before this, the investor has to approve this contract to spend the amount of tokens they'll be buying on their behalf. this is needed to activate tokens later.\n function buyTokensAndVote (uint256 _projectVotedForId) public payable {\n   //add require statement that makes sure the projet isnt already active\n   buyTokens(msg.sender);\n   investorList.handleNewPurchase(_projectVotedForId, msg.value, msg.sender);\n   Project(projects[_projectVotedForId]).update(msg.value);\n }\n\n /* SharedStructs.Investor[] public investors;\n mapping(address => uint256) internal investorIds; */\n\n /* function investor (uint256 id) public view returns(address) {\n   return investors[id].addr;\n }\n\n function updateInvestor (uint256 _projectId) private {\n   if (investorIds[msg.sender] == 0) {\n     SharedStructs.Investor memory newInvestor;\n\n     newInvestor.addr = msg.sender;\n\n     uint256 id = investors.length;\n     newInvestor.id = id;\n     investorIds[msg.sender] = id;\n\n     investors.push(newInvestor);\n   }\n\n   updateInvestorVotes(_projectId);\n } */\n\n /* function updateInvestorVotes(uint256 _projectId) internal {\n   investors[investorIds[msg.sender]].votes[_projectId] = investors[investorIds[msg.sender]].votes[_projectId].add(msg.value);\n   emit LogVotes(msg.sender, _projectId, msg.value);\n } */\n\n function _extendDoomsDay(uint256 _days) internal onlyWhileOpen {\n    doomsDay = doomsDay.add(_days.mul(1728000));\n }\n\n function activateProject() public {\n    (uint256 projectId, bool canActivate) = projectToActivateDetails();\n\n    if(canActivate){\n      Project project = Project(projects[projectId]);\n\n      uint256 developerTokens = project.developerTokens_();\n\n      /* InactiveToken(inactiveToken_).burnFrom(developer, developerTokens);\n      ActiveToken(activeToken_).mint(developer, developerTokens); */\n      Token(token).activate(developer, developerTokens);\n\n      updateInvestors(project.investorTokens_(), projectId);\n\n      forwardFunds(developer, project.capitalRequired_());\n      project.activate();\n    }\n  }\n\n  function projectToActivateDetails() private view returns (uint256, bool) {\n    uint256 leadingProjectId;\n    bool candidateFound = false;\n\n    for(uint256 i = 0; i < projects.length; i = i.add(1)) {\n      if (Project(projects[i]).beats(projects[leadingProjectId])) {\n        leadingProjectId = i;\n        candidateFound = true;\n      }\n    }\n\n    return (leadingProjectId, candidateFound && Project(projects[leadingProjectId]).capitalRequired_() <= weiRaised);\n  }\n\n  function updateInvestors (uint256 tokens, uint256 projectId) private {\n    uint256 supply = Token(token).totalInactiveSupply().sub(Token(token).inactiveBalanceOf(developer));\n    uint256 activationDivisor = supply.div(tokens);\n\n    for (uint256 i = 0; i < investorList.investorCount(); i = i.add(1)) {\n      address investor = investorList.addrById(i);\n      uint256 investorBalance = Token(token).balanceOf(investor);\n      uint256 tokensToActivate = investorBalance.div(activationDivisor);\n\n      /* InactiveToken(inactiveToken_).burnFrom(investor, tokensToActivate);\n      ActiveToken(activeToken_).mint(investor, tokensToActivate); */\n\n      Token(token).activate(investor,tokensToActivate);\n\n      investorList.transferVoteCredit(i, projectId);\n    }\n  }\n\n  function forwardFunds (address _to, uint256 amount) internal {\n    _to.transfer(amount);\n    weiRaised = weiRaised.sub(amount);\n  }\n\n  //we want this to be called on an interval\n  /* function distributeDividends () external {\n    //store the total amount of wei in a variable\n    //iterate through each investor.\n    //divide the total active tokens by the number of active investor tokens.\n    //divide the total wei by the resulting number to find out how much to wei to transfer\n    uint256 activeTokens = ActiveToken(activeToken_).totalSupply();\n    uint256 profits = address(this).balance.sub(weiRaised);\n\n    for (uint256 i = 0; i < investors.length; i = i.add(1)) {\n      grantDividend(investors[i].addr, activeTokens, profits);\n    }\n\n    grantDividend(developer, activeTokens, profits);\n  }\n\n  function grantDividend (address investor, uint256 activeTokens, uint256 profits) private {\n    uint256 investorActive = ActiveToken(activeToken_).balanceOf(investor);\n    uint256 investorShare = activeTokens.div(investorActive);\n    uint256 dividend = profits.div(investorShare);\n    investor.transfer(dividend);\n  } */\n}\n",
  "sourcePath": "/Users/steven/genie-portal/truffle/contracts/crowdsale/GNITokenCrowdsale.sol",
  "compiler": {
    "name": "solc",
    "version": "0.4.24+commit.e67f0147.Emscripten.clang"
  },
  "schemaVersion": "2.0.1",
  "updatedAt": "2018-10-27T21:01:24.623Z"
}