{
  "contractName": "GNITokenCrowdsale",
  "abi": [
    {
      "constant": true,
      "inputs": [
        {
          "name": "",
          "type": "uint256"
        }
      ],
      "name": "projects",
      "outputs": [
        {
          "name": "",
          "type": "address"
        }
      ],
      "payable": false,
      "stateMutability": "view",
      "type": "function"
    },
    {
      "constant": true,
      "inputs": [],
      "name": "hasClosed",
      "outputs": [
        {
          "name": "",
          "type": "bool"
        }
      ],
      "payable": false,
      "stateMutability": "view",
      "type": "function"
    },
    {
      "constant": true,
      "inputs": [],
      "name": "totalValuation",
      "outputs": [
        {
          "name": "",
          "type": "uint256"
        }
      ],
      "payable": false,
      "stateMutability": "view",
      "type": "function"
    },
    {
      "constant": true,
      "inputs": [],
      "name": "rate",
      "outputs": [
        {
          "name": "",
          "type": "uint256"
        }
      ],
      "payable": false,
      "stateMutability": "view",
      "type": "function"
    },
    {
      "constant": true,
      "inputs": [],
      "name": "weiRaised",
      "outputs": [
        {
          "name": "",
          "type": "uint256"
        }
      ],
      "payable": false,
      "stateMutability": "view",
      "type": "function"
    },
    {
      "constant": true,
      "inputs": [],
      "name": "wallet",
      "outputs": [
        {
          "name": "",
          "type": "address"
        }
      ],
      "payable": false,
      "stateMutability": "view",
      "type": "function"
    },
    {
      "constant": true,
      "inputs": [],
      "name": "openingTime",
      "outputs": [
        {
          "name": "",
          "type": "uint256"
        }
      ],
      "payable": false,
      "stateMutability": "view",
      "type": "function"
    },
    {
      "constant": true,
      "inputs": [],
      "name": "doomsDay",
      "outputs": [
        {
          "name": "",
          "type": "uint256"
        }
      ],
      "payable": false,
      "stateMutability": "view",
      "type": "function"
    },
    {
      "constant": false,
      "inputs": [
        {
          "name": "_beneficiary",
          "type": "address"
        }
      ],
      "name": "buyTokens",
      "outputs": [],
      "payable": true,
      "stateMutability": "payable",
      "type": "function"
    },
    {
      "inputs": [
        {
          "name": "_openingTime",
          "type": "uint256"
        },
        {
          "name": "_doomsDay",
          "type": "uint256"
        },
        {
          "name": "_rate",
          "type": "uint256"
        },
        {
          "name": "_wallet",
          "type": "address"
        },
        {
          "name": "_token",
          "type": "address"
        }
      ],
      "payable": false,
      "stateMutability": "nonpayable",
      "type": "constructor"
    },
    {
      "payable": true,
      "stateMutability": "payable",
      "type": "fallback"
    },
    {
      "anonymous": false,
      "inputs": [
        {
          "indexed": false,
          "name": "voter",
          "type": "address"
        },
        {
          "indexed": false,
          "name": "projectId",
          "type": "uint256"
        },
        {
          "indexed": false,
          "name": "amount",
          "type": "uint256"
        }
      ],
      "name": "LogVotes",
      "type": "event"
    },
    {
      "anonymous": false,
      "inputs": [
        {
          "indexed": true,
          "name": "purchaser",
          "type": "address"
        },
        {
          "indexed": true,
          "name": "beneficiary",
          "type": "address"
        },
        {
          "indexed": false,
          "name": "value",
          "type": "uint256"
        },
        {
          "indexed": false,
          "name": "amount",
          "type": "uint256"
        }
      ],
      "name": "TokenPurchase",
      "type": "event"
    },
    {
      "constant": true,
      "inputs": [
        {
          "name": "id",
          "type": "uint256"
        }
      ],
      "name": "getProjectInfo",
      "outputs": [
        {
          "name": "",
          "type": "string"
        },
        {
          "name": "",
          "type": "uint256"
        },
        {
          "name": "",
          "type": "uint256"
        },
        {
          "name": "",
          "type": "uint256"
        },
        {
          "name": "",
          "type": "uint256"
        },
        {
          "name": "",
          "type": "bool"
        },
        {
          "name": "",
          "type": "uint256"
        },
        {
          "name": "",
          "type": "uint256"
        }
      ],
      "payable": false,
      "stateMutability": "view",
      "type": "function"
    },
    {
      "constant": false,
      "inputs": [
        {
          "name": "_investor",
          "type": "address"
        },
        {
          "name": "_projectId",
          "type": "uint256"
        }
      ],
      "name": "votesByProjectandAddress",
      "outputs": [
        {
          "name": "",
          "type": "uint256"
        }
      ],
      "payable": false,
      "stateMutability": "nonpayable",
      "type": "function"
    },
    {
      "constant": false,
      "inputs": [
        {
          "name": "_name",
          "type": "string"
        },
        {
          "name": "_manager",
          "type": "address"
        },
        {
          "name": "capitalRequired",
          "type": "uint256"
        },
        {
          "name": "_valuation",
          "type": "uint256"
        },
        {
          "name": "_lat",
          "type": "string"
        },
        {
          "name": "_lng",
          "type": "string"
        }
      ],
      "name": "pitchProject",
      "outputs": [],
      "payable": true,
      "stateMutability": "payable",
      "type": "function"
    },
    {
      "constant": false,
      "inputs": [
        {
          "name": "_projectId",
          "type": "uint256"
        }
      ],
      "name": "handleTokenPurchase",
      "outputs": [],
      "payable": true,
      "stateMutability": "payable",
      "type": "function"
    },
    {
      "constant": true,
      "inputs": [],
      "name": "projectToActivateDetails",
      "outputs": [
        {
          "name": "",
          "type": "uint256"
        },
        {
          "name": "",
          "type": "bool"
        }
      ],
      "payable": false,
      "stateMutability": "view",
      "type": "function"
    },
    {
      "constant": false,
      "inputs": [],
      "name": "activateProject",
      "outputs": [],
      "payable": false,
      "stateMutability": "nonpayable",
      "type": "function"
    }
  ],
  "bytecode": "0x608060405234801561001057600080fd5b5060405160a080612e028339810180604052810190808051906020019092919080519060200190929190805190602001909291908051906020019092919080519060200190929190505050848484848460008311151561006f57600080fd5b600073ffffffffffffffffffffffffffffffffffffffff168273ffffffffffffffffffffffffffffffffffffffff16141515156100ab57600080fd5b600073ffffffffffffffffffffffffffffffffffffffff168173ffffffffffffffffffffffffffffffffffffffff16141515156100e757600080fd5b8260028190555081600160006101000a81548173ffffffffffffffffffffffffffffffffffffffff021916908373ffffffffffffffffffffffffffffffffffffffff160217905550806000806101000a81548173ffffffffffffffffffffffffffffffffffffffff021916908373ffffffffffffffffffffffffffffffffffffffff16021790555050505042821015151561018157600080fd5b81811015151561019057600080fd5b8160048190555080600581905550505060006006819055505050505050612c46806101bc6000396000f300608060405260043610620000eb576000357c0100000000000000000000000000000000000000000000000000000000900463ffffffff168063107046bd14620000f85780631515bc2b1462000168578063295b9300146200019a5780632c4e722e14620001c85780633cb78fe014620001f65780634042b66f1462000210578063521eb273146200023e5780638f6cdd6f1462000298578063a13d77f114620002ba578063a4a7474614620002f3578063b7a8807c1462000357578063c19b7bc01462000385578063e072726214620003b3578063ec8ac4d814620004d1578063fabf59681462000509575b620000f633620005ea565b005b3480156200010557600080fd5b50620001266004803603810190808035906020019092919050505062000776565b604051808273ffffffffffffffffffffffffffffffffffffffff1673ffffffffffffffffffffffffffffffffffffffff16815260200191505060405180910390f35b3480156200017557600080fd5b5062000180620007b5565b604051808215151515815260200191505060405180910390f35b348015620001a757600080fd5b50620001b2620007c1565b6040518082815260200191505060405180910390f35b348015620001d557600080fd5b50620001e0620007c7565b6040518082815260200191505060405180910390f35b3480156200020357600080fd5b506200020e620007cd565b005b3480156200021d57600080fd5b506200022862000b9e565b6040518082815260200191505060405180910390f35b3480156200024b57600080fd5b506200025662000ba4565b604051808273ffffffffffffffffffffffffffffffffffffffff1673ffffffffffffffffffffffffffffffffffffffff16815260200191505060405180910390f35b620002b86004803603810190808035906020019092919050505062000bca565b005b348015620002c757600080fd5b50620002d262000c9b565b60405180838152602001821515151581526020019250505060405180910390f35b3480156200030057600080fd5b5062000341600480360381019080803573ffffffffffffffffffffffffffffffffffffffff1690602001909291908035906020019092919050505062000f29565b6040518082815260200191505060405180910390f35b3480156200036457600080fd5b506200036f62000f89565b6040518082815260200191505060405180910390f35b3480156200039257600080fd5b506200039d62000f8f565b6040518082815260200191505060405180910390f35b620004cf600480360381019080803590602001908201803590602001908080601f0160208091040260200160405190810160405280939291908181526020018383808284378201915050505050509192919290803573ffffffffffffffffffffffffffffffffffffffff1690602001909291908035906020019092919080359060200190929190803590602001908201803590602001908080601f0160208091040260200160405190810160405280939291908181526020018383808284378201915050505050509192919290803590602001908201803590602001908080601f016020809104026020016040519081016040528093929190818152602001838380828437820191505050505050919291929050505062000f95565b005b62000507600480360381019080803573ffffffffffffffffffffffffffffffffffffffff169060200190929190505050620005ea565b005b3480156200051657600080fd5b506200053760048036038101908080359060200190929190505050620013ab565b60405180806020018981526020018881526020018781526020018681526020018515151515815260200184815260200183815260200182810382528a818151815260200191508051906020019080838360005b83811015620005a75780820151818401526020810190506200058a565b50505050905090810190601f168015620005d55780820380516001836020036101000a031916815260200191505b50995050505050505050505060405180910390f35b600080349150620005fc83836200197d565b6200060782620019c3565b90506200062082600354620019e390919063ffffffff16565b6003819055506000809054906101000a900473ffffffffffffffffffffffffffffffffffffffff1673ffffffffffffffffffffffffffffffffffffffff166378547d5f84836040518363ffffffff167c0100000000000000000000000000000000000000000000000000000000028152600401808373ffffffffffffffffffffffffffffffffffffffff1673ffffffffffffffffffffffffffffffffffffffff16815260200182815260200192505050600060405180830381600087803b158015620006eb57600080fd5b505af115801562000700573d6000803e3d6000fd5b505050508273ffffffffffffffffffffffffffffffffffffffff163373ffffffffffffffffffffffffffffffffffffffff167f623b3804fa71d67900d064613da8f94b9617215ee90799290593e1745087ad188484604051808381526020018281526020019250505060405180910390a3505050565b6007818154811015156200078657fe5b906000526020600020016000915054906101000a900473ffffffffffffffffffffffffffffffffffffffff1681565b60006005544211905090565b60065481565b60025481565b6000806000620007dc62000c9b565b92509250811562000b9957600783815481101515620007f757fe5b9060005260206000200160009054906101000a900473ffffffffffffffffffffffffffffffffffffffff1690506000809054906101000a900473ffffffffffffffffffffffffffffffffffffffff1673ffffffffffffffffffffffffffffffffffffffff16632392999f8273ffffffffffffffffffffffffffffffffffffffff1663929aebdf6040518163ffffffff167c0100000000000000000000000000000000000000000000000000000000028152600401602060405180830381600087803b158015620008c657600080fd5b505af1158015620008db573d6000803e3d6000fd5b505050506040513d6020811015620008f257600080fd5b81019080805190602001909291905050508373ffffffffffffffffffffffffffffffffffffffff1663d705f3876040518163ffffffff167c0100000000000000000000000000000000000000000000000000000000028152600401602060405180830381600087803b1580156200096857600080fd5b505af11580156200097d573d6000803e3d6000fd5b505050506040513d60208110156200099457600080fd5b8101908080519060200190929190505050600160009054906101000a900473ffffffffffffffffffffffffffffffffffffffff166040518463ffffffff167c0100000000000000000000000000000000000000000000000000000000028152600401808481526020018381526020018273ffffffffffffffffffffffffffffffffffffffff1673ffffffffffffffffffffffffffffffffffffffff1681526020019350505050600060405180830381600087803b15801562000a5557600080fd5b505af115801562000a6a573d6000803e3d6000fd5b5050505062000b1a8173ffffffffffffffffffffffffffffffffffffffff1663d4cf7db66040518163ffffffff167c0100000000000000000000000000000000000000000000000000000000028152600401602060405180830381600087803b15801562000ad757600080fd5b505af115801562000aec573d6000803e3d6000fd5b505050506040513d602081101562000b0357600080fd5b810190808051906020019092919050505062001a00565b8073ffffffffffffffffffffffffffffffffffffffff16630f15f4c06040518163ffffffff167c0100000000000000000000000000000000000000000000000000000000028152600401600060405180830381600087803b15801562000b7f57600080fd5b505af115801562000b94573d6000803e3d6000fd5b505050505b505050565b60035481565b600160009054906101000a900473ffffffffffffffffffffffffffffffffffffffff1681565b62000bd533620005ea565b60078181548110151562000be557fe5b9060005260206000200160009054906101000a900473ffffffffffffffffffffffffffffffffffffffff1673ffffffffffffffffffffffffffffffffffffffff166382ab890a346040518263ffffffff167c010000000000000000000000000000000000000000000000000000000002815260040180828152602001915050600060405180830381600087803b15801562000c7f57600080fd5b505af115801562000c94573d6000803e3d6000fd5b5050505050565b6000806000806000809150600090505b60078054905081101562000e325760078181548110151562000cc957fe5b9060005260206000200160009054906101000a900473ffffffffffffffffffffffffffffffffffffffff1673ffffffffffffffffffffffffffffffffffffffff1663705c5be560078581548110151562000d1f57fe5b9060005260206000200160009054906101000a900473ffffffffffffffffffffffffffffffffffffffff166040518263ffffffff167c0100000000000000000000000000000000000000000000000000000000028152600401808273ffffffffffffffffffffffffffffffffffffffff1673ffffffffffffffffffffffffffffffffffffffff168152602001915050602060405180830381600087803b15801562000dc957600080fd5b505af115801562000dde573d6000803e3d6000fd5b505050506040513d602081101562000df557600080fd5b81019080805190602001909291905050501562000e1457809250600191505b62000e2a600182620019e390919063ffffffff16565b905062000cab565b8282801562000f1e575060035460078581548110151562000e4f57fe5b9060005260206000200160009054906101000a900473ffffffffffffffffffffffffffffffffffffffff1673ffffffffffffffffffffffffffffffffffffffff1663d4cf7db66040518163ffffffff167c0100000000000000000000000000000000000000000000000000000000028152600401602060405180830381600087803b15801562000ede57600080fd5b505af115801562000ef3573d6000803e3d6000fd5b505050506040513d602081101562000f0a57600080fd5b810190808051906020019092919050505011155b945094505050509091565b600080600860008573ffffffffffffffffffffffffffffffffffffffff1673ffffffffffffffffffffffffffffffffffffffff16815260200190815260200160002060008481526020019081526020016000205490508091505092915050565b60045481565b60055481565b60008060008062000fa7878962001a8a565b935093506000809054906101000a900473ffffffffffffffffffffffffffffffffffffffff1673ffffffffffffffffffffffffffffffffffffffff1663013e390b62000ffd8587620019e390919063ffffffff16565b6040518263ffffffff167c010000000000000000000000000000000000000000000000000000000002815260040180828152602001915050602060405180830381600087803b1580156200105057600080fd5b505af115801562001065573d6000803e3d6000fd5b505050506040513d60208110156200107c57600080fd5b810190808051906020019092919050505050620010a587600654620019e390919063ffffffff16565b600681905550620010b7605a62001ae0565b6007805490509150818a8a63013d238042018a8c89898d8d600080620010dc62001bf5565b808d8152602001806020018c73ffffffffffffffffffffffffffffffffffffffff1673ffffffffffffffffffffffffffffffffffffffff1681526020018b81526020018a815260200189815260200188815260200187815260200180602001806020018681526020018515151515815260200184810384528f818151815260200191508051906020019080838360005b83811015620011895780820151818401526020810190506200116c565b50505050905090810190601f168015620011b75780820380516001836020036101000a031916815260200191505b50848103835288818151815260200191508051906020019080838360005b83811015620011f2578082015181840152602081019050620011d5565b50505050905090810190601f168015620012205780820380516001836020036101000a031916815260200191505b50848103825287818151815260200191508051906020019080838360005b838110156200125b5780820151818401526020810190506200123e565b50505050905090810190601f168015620012895780820380516001836020036101000a031916815260200191505b509f50505050505050505050505050505050604051809103906000f080158015620012b8573d6000803e3d6000fd5b50905060078190806001815401808255809150509060018203906000526020600020016000909192909190916101000a81548173ffffffffffffffffffffffffffffffffffffffff021916908373ffffffffffffffffffffffffffffffffffffffff160217905550508073ffffffffffffffffffffffffffffffffffffffff166351973ec96040518163ffffffff167c0100000000000000000000000000000000000000000000000000000000028152600401600060405180830381600087803b1580156200138657600080fd5b505af11580156200139b573d6000803e3d6000fd5b5050505050505050505050505050565b606060008060008060008060008060078a815481101515620013c957fe5b9060005260206000200160009054906101000a900473ffffffffffffffffffffffffffffffffffffffff1690508073ffffffffffffffffffffffffffffffffffffffff166306fdde036040518163ffffffff167c0100000000000000000000000000000000000000000000000000000000028152600401600060405180830381600087803b1580156200145b57600080fd5b505af115801562001470573d6000803e3d6000fd5b505050506040513d6000823e3d601f19601f8201168201806040525060208110156200149b57600080fd5b810190808051640100000000811115620014b457600080fd5b82810190506020810184811115620014cb57600080fd5b8151856001820283011164010000000082111715620014e957600080fd5b50509291905050508173ffffffffffffffffffffffffffffffffffffffff166321a7cfe46040518163ffffffff167c0100000000000000000000000000000000000000000000000000000000028152600401602060405180830381600087803b1580156200155657600080fd5b505af11580156200156b573d6000803e3d6000fd5b505050506040513d60208110156200158257600080fd5b81019080805190602001909291905050508273ffffffffffffffffffffffffffffffffffffffff1663ec61b0866040518163ffffffff167c0100000000000000000000000000000000000000000000000000000000028152600401602060405180830381600087803b158015620015f857600080fd5b505af11580156200160d573d6000803e3d6000fd5b505050506040513d60208110156200162457600080fd5b81019080805190602001909291905050508373ffffffffffffffffffffffffffffffffffffffff16636417d7b06040518163ffffffff167c0100000000000000000000000000000000000000000000000000000000028152600401602060405180830381600087803b1580156200169a57600080fd5b505af1158015620016af573d6000803e3d6000fd5b505050506040513d6020811015620016c657600080fd5b81019080805190602001909291905050508473ffffffffffffffffffffffffffffffffffffffff16624dcde56040518163ffffffff167c0100000000000000000000000000000000000000000000000000000000028152600401602060405180830381600087803b1580156200173b57600080fd5b505af115801562001750573d6000803e3d6000fd5b505050506040513d60208110156200176757600080fd5b81019080805190602001909291905050508573ffffffffffffffffffffffffffffffffffffffff166302fb0c5e6040518163ffffffff167c0100000000000000000000000000000000000000000000000000000000028152600401602060405180830381600087803b158015620017dd57600080fd5b505af1158015620017f2573d6000803e3d6000fd5b505050506040513d60208110156200180957600080fd5b81019080805190602001909291905050508673ffffffffffffffffffffffffffffffffffffffff1663c63840716040518163ffffffff167c0100000000000000000000000000000000000000000000000000000000028152600401602060405180830381600087803b1580156200187f57600080fd5b505af115801562001894573d6000803e3d6000fd5b505050506040513d6020811015620018ab57600080fd5b81019080805190602001909291905050508773ffffffffffffffffffffffffffffffffffffffff16634b6753bc6040518163ffffffff167c0100000000000000000000000000000000000000000000000000000000028152600401602060405180830381600087803b1580156200192157600080fd5b505af115801562001936573d6000803e3d6000fd5b505050506040513d60208110156200194d57600080fd5b81019080805190602001909291905050508797509850985098509850985098509850985050919395975091939597565b6000806000429250600454915060055490506004544210158015620019a457506005544211155b1515620019b057600080fd5b620019bc858562001b4d565b5050505050565b6000620019dc6002548362001b9f90919063ffffffff16565b9050919050565b60008183019050828110151515620019f757fe5b80905092915050565b600160009054906101000a900473ffffffffffffffffffffffffffffffffffffffff1673ffffffffffffffffffffffffffffffffffffffff166108fc829081150290604051600060405180830381858888f1935050505015801562001a69573d6000803e3d6000fd5b5062001a818160035462001bdb90919063ffffffff16565b60038190555050565b600080600062001aa4848662001bdb90919063ffffffff16565b905062001abd6002548262001b9f90919063ffffffff16565b62001ad46002548662001b9f90919063ffffffff16565b92509250509250929050565b600080600042925060045491506005549050600454421015801562001b0757506005544211155b151562001b1357600080fd5b62001b4162001b2f621a5e008662001b9f90919063ffffffff16565b600554620019e390919063ffffffff16565b60058190555050505050565b600073ffffffffffffffffffffffffffffffffffffffff168273ffffffffffffffffffffffffffffffffffffffff161415151562001b8a57600080fd5b6000811415151562001b9b57600080fd5b5050565b60008083141562001bb4576000905062001bd5565b818302905081838281151562001bc657fe5b0414151562001bd157fe5b8090505b92915050565b600082821115151562001bea57fe5b818303905092915050565b6040516110148062001c0783390190560060806040523480156200001157600080fd5b5060405162001014380380620010148339810180604052810190808051906020019092919080518201929190602001805190602001909291908051906020019092919080519060200190929190805190602001909291908051906020019092919080519060200190929190805182019291906020018051820192919060200180519060200190929190805190602001909291905050508b6000819055508a60019080519060200190620000c692919062000190565b5089600260006101000a81548173ffffffffffffffffffffffffffffffffffffffff021916908373ffffffffffffffffffffffffffffffffffffffff160217905550886003819055508760048190555086600581905550856006819055508460078190555083600890805190602001906200014392919062000190565b5082600990805190602001906200015c92919062000190565b5081600a8190555080600b60006101000a81548160ff0219169083151502179055505050505050505050505050506200023f565b828054600181600116156101000203166002900490600052602060002090601f016020900481019282601f10620001d357805160ff191683800117855562000204565b8280016001018555821562000204579182015b8281111562000203578251825591602001919060010190620001e6565b5b50905062000213919062000217565b5090565b6200023c91905b80821115620002385760008160009055506001016200021e565b5090565b90565b610dc5806200024f6000396000f300608060405260043610610132576000357c0100000000000000000000000000000000000000000000000000000000900463ffffffff1680624dcde514610137578063015e72ec1461016257806302fb0c5e146101f257806306fdde03146102215780630f15f4c0146102b157806317e508ba146102c857806321a7cfe414610315578063272666e3146103405780634b6753bc1461036b5780634d7c09dd1461039657806351973ec9146103c557806355d576cc146103dc5780636417d7b01461046c578063705c5be51461049757806382ab890a146104f2578063929aebdf1461051f578063af640d0f1461054a578063c638407114610575578063d0e30db0146105a0578063d4cf7db6146105aa578063d705f387146105d5578063ec61b08614610600578063f25874c81461062b575b600080fd5b34801561014357600080fd5b5061014c610656565b6040518082815260200191505060405180910390f35b34801561016e57600080fd5b5061017761065c565b6040518080602001828103825283818151815260200191508051906020019080838360005b838110156101b757808201518184015260208101905061019c565b50505050905090810190601f1680156101e45780820380516001836020036101000a031916815260200191505b509250505060405180910390f35b3480156101fe57600080fd5b506102076106fa565b604051808215151515815260200191505060405180910390f35b34801561022d57600080fd5b5061023661070d565b6040518080602001828103825283818151815260200191508051906020019080838360005b8381101561027657808201518184015260208101905061025b565b50505050905090810190601f1680156102a35780820380516001836020036101000a031916815260200191505b509250505060405180910390f35b3480156102bd57600080fd5b506102c66107ab565b005b3480156102d457600080fd5b5061031360048036038101908080359060200190929190803573ffffffffffffffffffffffffffffffffffffffff1690602001909291905050506107d0565b005b34801561032157600080fd5b5061032a610877565b6040518082815260200191505060405180910390f35b34801561034c57600080fd5b5061035561087d565b6040518082815260200191505060405180910390f35b34801561037757600080fd5b50610380610887565b6040518082815260200191505060405180910390f35b3480156103a257600080fd5b506103ab61088d565b604051808215151515815260200191505060405180910390f35b3480156103d157600080fd5b506103da6108a4565b005b3480156103e857600080fd5b506103f1610acd565b6040518080602001828103825283818151815260200191508051906020019080838360005b83811015610431578082015181840152602081019050610416565b50505050905090810190601f16801561045e5780820380516001836020036101000a031916815260200191505b509250505060405180910390f35b34801561047857600080fd5b50610481610b6b565b6040518082815260200191505060405180910390f35b3480156104a357600080fd5b506104d8600480360381019080803573ffffffffffffffffffffffffffffffffffffffff169060200190929190505050610b71565b604051808215151515815260200191505060405180910390f35b3480156104fe57600080fd5b5061051d60048036038101908080359060200190929190505050610cf6565b005b34801561052b57600080fd5b50610534610d31565b6040518082815260200191505060405180910390f35b34801561055657600080fd5b5061055f610d3b565b6040518082815260200191505060405180910390f35b34801561058157600080fd5b5061058a610d41565b6040518082815260200191505060405180910390f35b6105a8610d47565b005b3480156105b657600080fd5b506105bf610d59565b6040518082815260200191505060405180910390f35b3480156105e157600080fd5b506105ea610d63565b6040518082815260200191505060405180910390f35b34801561060c57600080fd5b50610615610d6d565b6040518082815260200191505060405180910390f35b34801561063757600080fd5b50610640610d73565b6040518082815260200191505060405180910390f35b60075481565b60098054600181600116156101000203166002900480601f0160208091040260200160405190810160405280929190818152602001828054600181600116156101000203166002900480156106f25780601f106106c7576101008083540402835291602001916106f2565b820191906000526020600020905b8154815290600101906020018083116106d557829003601f168201915b505050505081565b600b60009054906101000a900460ff1681565b60018054600181600116156101000203166002900480601f0160208091040260200160405190810160405280929190818152602001828054600181600116156101000203166002900480156107a35780601f10610778576101008083540402835291602001916107a3565b820191906000526020600020905b81548152906001019060200180831161078657829003601f168201915b505050505081565b6001600b60006101000a81548160ff0219169083151502179055506107ce6108a4565b565b600260009054906101000a900473ffffffffffffffffffffffffffffffffffffffff1673ffffffffffffffffffffffffffffffffffffffff163373ffffffffffffffffffffffffffffffffffffffff1614151561082c57600080fd5b8073ffffffffffffffffffffffffffffffffffffffff166108fc839081150290604051600060405180830381858888f19350505050158015610872573d6000803e3d6000fd5b505050565b60045481565b6000600354905090565b60035481565b6000600b60009054906101000a900460ff16905090565b7f2870b0d0558b1786ef247a7bb0787eaae7392b072f7ca327b464981f23fb0e92600054600160045460055460065460075460086009600a54600b60009054906101000a900460ff16604051808b8152602001806020018a815260200189815260200188815260200187815260200180602001806020018681526020018515151515815260200184810384528d8181546001816001161561010002031660029004815260200191508054600181600116156101000203166002900480156109ac5780601f10610981576101008083540402835291602001916109ac565b820191906000526020600020905b81548152906001019060200180831161098f57829003601f168201915b5050848103835288818154600181600116156101000203166002900481526020019150805460018160011615610100020316600290048015610a2f5780601f10610a0457610100808354040283529160200191610a2f565b820191906000526020600020905b815481529060010190602001808311610a1257829003601f168201915b5050848103825287818154600181600116156101000203166002900481526020019150805460018160011615610100020316600290048015610ab25780601f10610a8757610100808354040283529160200191610ab2565b820191906000526020600020905b815481529060010190602001808311610a9557829003601f168201915b50509d505050505050505050505050505060405180910390a1565b60088054600181600116156101000203166002900480601f016020809104026020016040519081016040528092919081815260200182805460018160011615610100020316600290048015610b635780601f10610b3857610100808354040283529160200191610b63565b820191906000526020600020905b815481529060010190602001808311610b4657829003601f168201915b505050505081565b60065481565b6000600b60009054906101000a900460ff168015610b9157506000600a54115b8015610b9e575042600354115b8015610c4957508173ffffffffffffffffffffffffffffffffffffffff1663f25874c86040518163ffffffff167c0100000000000000000000000000000000000000000000000000000000028152600401602060405180830381600087803b158015610c0957600080fd5b505af1158015610c1d573d6000803e3d6000fd5b505050506040513d6020811015610c3357600080fd5b8101908080519060200190929190505050600a54115b80610cef57508173ffffffffffffffffffffffffffffffffffffffff16634d7c09dd6040518163ffffffff167c0100000000000000000000000000000000000000000000000000000000028152600401602060405180830381600087803b158015610cb357600080fd5b505af1158015610cc7573d6000803e3d6000fd5b505050506040513d6020811015610cdd57600080fd5b81019080805190602001909291905050505b9050919050565b610d0b81600a54610d7d90919063ffffffff16565b600a81905550610d2861a8c0600354610d7d90919063ffffffff16565b60038190555050565b6000600654905090565b60005481565b600a5481565b60003414151515610d5757600080fd5b565b6000600554905090565b6000600754905090565b60055481565b6000600a54905090565b60008183019050828110151515610d9057fe5b809050929150505600a165627a7a72305820d95c9734eda67d831b9d3099edafdf57a02370d1b4e800da65dc50cc1155ac520029a165627a7a723058201beb874edc6ec6d1f2019af37d335e7f66f615c9f88514dce17087ec5d2dcca60029",
  "source": "pragma solidity 0.4.24;\nimport './TimedCrowdsale.sol';\nimport '../utility/SafeMath.sol';\nimport '../token/Token.sol';\nimport '../Project.sol';\n\ncontract GNITokenCrowdsale is TimedCrowdsale {\n  using SafeMath for uint256;\n  uint256 public totalValuation;\n\n\n  constructor\n      (\n        uint256 _openingTime,\n        uint256 _doomsDay,\n        uint256 _rate,\n        address _wallet,\n        Token _token\n      )\n      public\n      Crowdsale(_rate, _wallet, _token)\n      TimedCrowdsale(_openingTime, _doomsDay) {\n          totalValuation = 0;\n  }\n\n  event LogVotes (\n    address voter,\n    uint256 projectId,\n    uint256 amount\n    );\n\n  address[] public projects;\n\n  //move this to projec class\n function getProjectInfo(uint id) public view returns(\n     string, uint256, uint256, uint256, uint256, bool, uint256, uint256\n     ) {\n     address project = projects[id];\n     return (\n         Project(project).name(),\n         Project(project).valuation(),\n         Project(project).capitalRequired(),\n         Project(project).developerTokens(),\n         Project(project).investorTokens(),\n         Project(project).active(),\n         Project(project).voteCount(),\n         Project(project).closingTime()\n     );\n }\n\n //maps from address to projectIds. projectIds map to\n mapping(address => mapping(uint256 => uint256)) internal votes;\n\n function votesByProjectandAddress(address _investor, uint256 _projectId) public returns (uint256) {\n   uint256 result = votes[_investor][_projectId];\n   return result;\n }\n\n //should accept a manager address\n function pitchProject(string _name, address _manager, uint capitalRequired, uint256 _valuation, string _lat, string _lng) public payable {\n   (uint256 developerTokens, uint256 investorTokens) = tokensToIssue(_valuation, capitalRequired);\n\n   Token(token).genesis(developerTokens.add(investorTokens));\n\n   totalValuation = totalValuation.add(_valuation);\n\n     // Increase crowdsale duation by 90 days\n   _extendDoomsDay(90);\n\n    uint256 _id = projects.length;\n    address project = new Project(_id, _name, _manager, now + 86600 * 240, _valuation, capitalRequired, developerTokens, investorTokens, _lat, _lng, 0, false);\n    projects.push(project);\n    Project(project).log();\n }\n\n function tokensToIssue (uint256 valuation, uint256 investorValue) private returns (uint256, uint256) {\n   uint256 developerValue = valuation.sub(investorValue);\n\n   return (developerValue.mul(rate), investorValue.mul(rate));\n }\n\n function handleTokenPurchase (uint256 _projectId) public payable {\n   //add require statement that makes sure the projet isnt already active\n   buyTokens(msg.sender);\n   Project(projects[_projectId]).update(msg.value);\n }\n\n\n function updateAccountVotes(uint256 _projectId) internal {\n   votes[msg.sender][_projectId] = votes[msg.sender][_projectId].add(msg.value);\n   emit LogVotes(msg.sender, _projectId, msg.value);\n }\n\n\n  function _extendDoomsDay(uint256 _days) internal onlyWhileOpen {\n    doomsDay = doomsDay.add(_days.mul(1728000));\n  }\n\n  function projectToActivateDetails() public view returns (uint256, bool) {\n    uint256 leadingProjectId;\n    bool candidateFound = false;\n\n    for(uint256 i = 0; i < projects.length; i = i.add(1)) {\n      if (Project(projects[i]).beats(projects[leadingProjectId])) {\n        leadingProjectId = i;\n        candidateFound = true;\n      }\n    }\n\n    return (leadingProjectId, candidateFound && Project(projects[leadingProjectId]).capitalRequired_() <= weiRaised);\n  }\n\n  function activateProject() public {\n    (uint256 projectId, bool canActivate) = projectToActivateDetails();\n\n    if(canActivate){\n      Project project = Project(projects[projectId]);\n\n      Token(token).activateTokens(project.developerTokens_(), project.investorTokens_(), wallet);\n      forwardFunds(project.capitalRequired_());\n      project.activate();\n    }\n  }\n\n  function forwardFunds (uint256 amount) internal {\n    wallet.transfer(amount);\n    weiRaised = weiRaised.sub(amount);\n  }\n}\n\n\n\n/* function updateProjectVotedFor(uint256 _projectId) {\n  updateVoteCount(_projectId);\n  extendProjectClosingTime(_projectId);\n} */\n/* Project storage _projectVotedFor = projects[_projectId]; */\n\n/* function updateVoteCount(uint256 _projectId) internal {\nuint256 count = Project(projects[_projectId]).voteCount();\nProject(projects[_projectId]).voteCount() = count.add(msg.value);\n}\n\nfunction extendProjectClosingTime(uint256 _projectId) internal {\nuint256 time = Project(projects[_projectId]).closingTime();\nProject(projects[_projectId]).closingTime() = time.add(43200);\n} */\n",
  "sourcePath": "/Users/steven/genie-portal/truffle/contracts/crowdsale/GNITokenCrowdsale.sol",
  "compiler": {
    "name": "solc",
    "version": "0.4.24+commit.e67f0147.Emscripten.clang"
  },
  "schemaVersion": "2.0.1",
  "updatedAt": "2018-10-13T18:38:10.857Z"
}