{
  "contractName": "GNITokenCrowdsale",
  "abi": [
    {
      "constant": true,
      "inputs": [
        {
          "name": "",
          "type": "uint256"
        }
      ],
      "name": "projects",
      "outputs": [
        {
          "name": "",
          "type": "address"
        }
      ],
      "payable": false,
      "stateMutability": "view",
      "type": "function"
    },
    {
      "constant": true,
      "inputs": [],
      "name": "hasClosed",
      "outputs": [
        {
          "name": "",
          "type": "bool"
        }
      ],
      "payable": false,
      "stateMutability": "view",
      "type": "function"
    },
    {
      "constant": true,
      "inputs": [],
      "name": "activeToken_",
      "outputs": [
        {
          "name": "",
          "type": "address"
        }
      ],
      "payable": false,
      "stateMutability": "view",
      "type": "function"
    },
    {
      "constant": true,
      "inputs": [],
      "name": "totalValuation",
      "outputs": [
        {
          "name": "",
          "type": "uint256"
        }
      ],
      "payable": false,
      "stateMutability": "view",
      "type": "function"
    },
    {
      "constant": true,
      "inputs": [],
      "name": "rate",
      "outputs": [
        {
          "name": "",
          "type": "uint256"
        }
      ],
      "payable": false,
      "stateMutability": "view",
      "type": "function"
    },
    {
      "constant": true,
      "inputs": [
        {
          "name": "",
          "type": "uint256"
        }
      ],
      "name": "investors",
      "outputs": [
        {
          "name": "addr",
          "type": "address"
        },
        {
          "name": "id",
          "type": "uint256"
        },
        {
          "name": "voteCredit",
          "type": "uint256"
        }
      ],
      "payable": false,
      "stateMutability": "view",
      "type": "function"
    },
    {
      "constant": true,
      "inputs": [],
      "name": "weiRaised",
      "outputs": [
        {
          "name": "",
          "type": "uint256"
        }
      ],
      "payable": false,
      "stateMutability": "view",
      "type": "function"
    },
    {
      "constant": true,
      "inputs": [],
      "name": "openingTime",
      "outputs": [
        {
          "name": "",
          "type": "uint256"
        }
      ],
      "payable": false,
      "stateMutability": "view",
      "type": "function"
    },
    {
      "constant": true,
      "inputs": [],
      "name": "doomsDay",
      "outputs": [
        {
          "name": "",
          "type": "uint256"
        }
      ],
      "payable": false,
      "stateMutability": "view",
      "type": "function"
    },
    {
      "constant": true,
      "inputs": [],
      "name": "developer",
      "outputs": [
        {
          "name": "",
          "type": "address"
        }
      ],
      "payable": false,
      "stateMutability": "view",
      "type": "function"
    },
    {
      "constant": true,
      "inputs": [],
      "name": "inactiveToken_",
      "outputs": [
        {
          "name": "",
          "type": "address"
        }
      ],
      "payable": false,
      "stateMutability": "view",
      "type": "function"
    },
    {
      "constant": false,
      "inputs": [
        {
          "name": "_beneficiary",
          "type": "address"
        }
      ],
      "name": "buyTokens",
      "outputs": [],
      "payable": true,
      "stateMutability": "payable",
      "type": "function"
    },
    {
      "inputs": [
        {
          "name": "_openingTime",
          "type": "uint256"
        },
        {
          "name": "_doomsDay",
          "type": "uint256"
        },
        {
          "name": "_rate",
          "type": "uint256"
        },
        {
          "name": "_developer",
          "type": "address"
        },
        {
          "name": "_token",
          "type": "address"
        }
      ],
      "payable": false,
      "stateMutability": "nonpayable",
      "type": "constructor"
    },
    {
      "payable": true,
      "stateMutability": "payable",
      "type": "fallback"
    },
    {
      "anonymous": false,
      "inputs": [
        {
          "indexed": false,
          "name": "voter",
          "type": "address"
        },
        {
          "indexed": false,
          "name": "projectId",
          "type": "uint256"
        },
        {
          "indexed": false,
          "name": "amount",
          "type": "uint256"
        }
      ],
      "name": "LogVotes",
      "type": "event"
    },
    {
      "anonymous": false,
      "inputs": [
        {
          "indexed": true,
          "name": "purchaser",
          "type": "address"
        },
        {
          "indexed": true,
          "name": "beneficiary",
          "type": "address"
        },
        {
          "indexed": false,
          "name": "value",
          "type": "uint256"
        },
        {
          "indexed": false,
          "name": "amount",
          "type": "uint256"
        }
      ],
      "name": "TokenPurchase",
      "type": "event"
    },
    {
      "constant": true,
      "inputs": [
        {
          "name": "id",
          "type": "uint256"
        }
      ],
      "name": "getInfo",
      "outputs": [
        {
          "name": "",
          "type": "string"
        },
        {
          "name": "",
          "type": "uint256"
        },
        {
          "name": "",
          "type": "uint256"
        },
        {
          "name": "",
          "type": "uint256"
        },
        {
          "name": "",
          "type": "uint256"
        },
        {
          "name": "",
          "type": "bool"
        },
        {
          "name": "",
          "type": "uint256"
        },
        {
          "name": "",
          "type": "uint256"
        },
        {
          "name": "",
          "type": "address"
        }
      ],
      "payable": false,
      "stateMutability": "view",
      "type": "function"
    },
    {
      "constant": false,
      "inputs": [
        {
          "name": "_name",
          "type": "string"
        },
        {
          "name": "_manager",
          "type": "address"
        },
        {
          "name": "capitalRequired",
          "type": "uint256"
        },
        {
          "name": "_valuation",
          "type": "uint256"
        },
        {
          "name": "_lat",
          "type": "string"
        },
        {
          "name": "_lng",
          "type": "string"
        }
      ],
      "name": "pitchProject",
      "outputs": [],
      "payable": true,
      "stateMutability": "payable",
      "type": "function"
    },
    {
      "constant": false,
      "inputs": [
        {
          "name": "_projectVotedForId",
          "type": "uint256"
        }
      ],
      "name": "buyTokensAndVote",
      "outputs": [],
      "payable": true,
      "stateMutability": "payable",
      "type": "function"
    },
    {
      "constant": true,
      "inputs": [
        {
          "name": "id",
          "type": "uint256"
        }
      ],
      "name": "investor",
      "outputs": [
        {
          "name": "",
          "type": "address"
        }
      ],
      "payable": false,
      "stateMutability": "view",
      "type": "function"
    },
    {
      "constant": false,
      "inputs": [],
      "name": "activateProject",
      "outputs": [],
      "payable": false,
      "stateMutability": "nonpayable",
      "type": "function"
    },
    {
      "constant": false,
      "inputs": [],
      "name": "distributeDividends",
      "outputs": [],
      "payable": false,
      "stateMutability": "nonpayable",
      "type": "function"
    }
  ],
  "bytecode": "0x60806040523480156200001157600080fd5b5060405160a08062005769833981018060405281019080805190602001909291908051906020019092919080519060200190929190805190602001909291908051906020019092919050505084848484846000831115156200007257600080fd5b600073ffffffffffffffffffffffffffffffffffffffff168273ffffffffffffffffffffffffffffffffffffffff1614151515620000af57600080fd5b8260038190555081600260006101000a81548173ffffffffffffffffffffffffffffffffffffffff021916908373ffffffffffffffffffffffffffffffffffffffff16021790555062000101620001e5565b604051809103906000f0801580156200011e573d6000803e3d6000fd5b506000806101000a81548173ffffffffffffffffffffffffffffffffffffffff021916908373ffffffffffffffffffffffffffffffffffffffff16021790555080600160006101000a81548173ffffffffffffffffffffffffffffffffffffffff021916908373ffffffffffffffffffffffffffffffffffffffff160217905550505050428210151515620001b257600080fd5b818110151515620001c257600080fd5b8160058190555080600681905550505060006007819055505050505050620001f6565b6040516117c48062003fa583390190565b613d9f80620002066000396000f3006080604052600436106200010f576000357c0100000000000000000000000000000000000000000000000000000000900463ffffffff16806303c833021462000111578063107046bd146200012b5780631515bc2b146200019b5780631807cd5f14620001cd5780631a3cd59a1462000227578063295b9300146200033b5780632c4e722e14620003695780633cb78fe014620003975780633feb5f2b14620003b15780634042b66f146200042f578063589679c7146200045d578063b7a8807c146200047f578063c19b7bc014620004ad578063c3d9053b14620004db578063ca4b208b146200054b578063da45be0a14620005a5578063e072726214620005ff578063ec8ac4d8146200071d575b005b3480156200011e57600080fd5b506200012962000755565b005b3480156200013857600080fd5b50620001596004803603810190808035906020019092919050505062000903565b604051808273ffffffffffffffffffffffffffffffffffffffff1673ffffffffffffffffffffffffffffffffffffffff16815260200191505060405180910390f35b348015620001a857600080fd5b50620001b362000942565b604051808215151515815260200191505060405180910390f35b348015620001da57600080fd5b50620001e56200094e565b604051808273ffffffffffffffffffffffffffffffffffffffff1673ffffffffffffffffffffffffffffffffffffffff16815260200191505060405180910390f35b3480156200023457600080fd5b50620002556004803603810190808035906020019092919050505062000974565b60405180806020018a8152602001898152602001888152602001878152602001861515151581526020018581526020018481526020018373ffffffffffffffffffffffffffffffffffffffff1673ffffffffffffffffffffffffffffffffffffffff16815260200182810382528b818151815260200191508051906020019080838360005b83811015620002f7578082015181840152602081019050620002da565b50505050905090810190601f168015620003255780820380516001836020036101000a031916815260200191505b509a505050505050505050505060405180910390f35b3480156200034857600080fd5b506200035362000f4d565b6040518082815260200191505060405180910390f35b3480156200037657600080fd5b506200038162000f53565b6040518082815260200191505060405180910390f35b348015620003a457600080fd5b50620003af62000f59565b005b348015620003be57600080fd5b50620003df600480360381019080803590602001909291905050506200147c565b604051808473ffffffffffffffffffffffffffffffffffffffff1673ffffffffffffffffffffffffffffffffffffffff168152602001838152602001828152602001935050505060405180910390f35b3480156200043c57600080fd5b5062000447620014d6565b6040518082815260200191505060405180910390f35b6200047d60048036038101908080359060200190929190505050620014dc565b005b3480156200048c57600080fd5b5062000497620015b8565b6040518082815260200191505060405180910390f35b348015620004ba57600080fd5b50620004c5620015be565b6040518082815260200191505060405180910390f35b348015620004e857600080fd5b506200050960048036038101908080359060200190929190505050620015c4565b604051808273ffffffffffffffffffffffffffffffffffffffff1673ffffffffffffffffffffffffffffffffffffffff16815260200191505060405180910390f35b3480156200055857600080fd5b50620005636200160f565b604051808273ffffffffffffffffffffffffffffffffffffffff1673ffffffffffffffffffffffffffffffffffffffff16815260200191505060405180910390f35b348015620005b257600080fd5b50620005bd62001635565b604051808273ffffffffffffffffffffffffffffffffffffffff1673ffffffffffffffffffffffffffffffffffffffff16815260200191505060405180910390f35b6200071b600480360381019080803590602001908201803590602001908080601f0160208091040260200160405190810160405280939291908181526020018383808284378201915050505050509192919290803573ffffffffffffffffffffffffffffffffffffffff1690602001909291908035906020019092919080359060200190929190803590602001908201803590602001908080601f0160208091040260200160405190810160405280939291908181526020018383808284378201915050505050509192919290803590602001908201803590602001908080601f01602080910402602001604051908101604052809392919081815260200183838082843782019150505050505091929192905050506200165a565b005b62000753600480360381019080803573ffffffffffffffffffffffffffffffffffffffff16906020019092919050505062001ad7565b005b6000806000600160009054906101000a900473ffffffffffffffffffffffffffffffffffffffff1673ffffffffffffffffffffffffffffffffffffffff166318160ddd6040518163ffffffff167c0100000000000000000000000000000000000000000000000000000000028152600401602060405180830381600087803b158015620007e157600080fd5b505af1158015620007f6573d6000803e3d6000fd5b505050506040513d60208110156200080d57600080fd5b810190808051906020019092919050505092506200084e6004543073ffffffffffffffffffffffffffffffffffffffff163162001cde90919063ffffffff16565b9150600090505b600980549050811015620008cf57620008b16009828154811015156200087757fe5b906000526020600020906004020160000160009054906101000a900473ffffffffffffffffffffffffffffffffffffffff16848462001cf8565b620008c760018262001e7890919063ffffffff16565b905062000855565b620008fe600260009054906101000a900473ffffffffffffffffffffffffffffffffffffffff16848462001cf8565b505050565b6008818154811015156200091357fe5b906000526020600020016000915054906101000a900473ffffffffffffffffffffffffffffffffffffffff1681565b60006006544211905090565b600160009054906101000a900473ffffffffffffffffffffffffffffffffffffffff1681565b6060600080600080600080600080600060088b8154811015156200099457fe5b9060005260206000200160009054906101000a900473ffffffffffffffffffffffffffffffffffffffff1690508073ffffffffffffffffffffffffffffffffffffffff166306fdde036040518163ffffffff167c0100000000000000000000000000000000000000000000000000000000028152600401600060405180830381600087803b15801562000a2657600080fd5b505af115801562000a3b573d6000803e3d6000fd5b505050506040513d6000823e3d601f19601f82011682018060405250602081101562000a6657600080fd5b81019080805164010000000081111562000a7f57600080fd5b8281019050602081018481111562000a9657600080fd5b815185600182028301116401000000008211171562000ab457600080fd5b50509291905050508173ffffffffffffffffffffffffffffffffffffffff166321a7cfe46040518163ffffffff167c0100000000000000000000000000000000000000000000000000000000028152600401602060405180830381600087803b15801562000b2157600080fd5b505af115801562000b36573d6000803e3d6000fd5b505050506040513d602081101562000b4d57600080fd5b81019080805190602001909291905050508273ffffffffffffffffffffffffffffffffffffffff1663ec61b0866040518163ffffffff167c0100000000000000000000000000000000000000000000000000000000028152600401602060405180830381600087803b15801562000bc357600080fd5b505af115801562000bd8573d6000803e3d6000fd5b505050506040513d602081101562000bef57600080fd5b81019080805190602001909291905050508373ffffffffffffffffffffffffffffffffffffffff16636417d7b06040518163ffffffff167c0100000000000000000000000000000000000000000000000000000000028152600401602060405180830381600087803b15801562000c6557600080fd5b505af115801562000c7a573d6000803e3d6000fd5b505050506040513d602081101562000c9157600080fd5b81019080805190602001909291905050508473ffffffffffffffffffffffffffffffffffffffff16624dcde56040518163ffffffff167c0100000000000000000000000000000000000000000000000000000000028152600401602060405180830381600087803b15801562000d0657600080fd5b505af115801562000d1b573d6000803e3d6000fd5b505050506040513d602081101562000d3257600080fd5b81019080805190602001909291905050508573ffffffffffffffffffffffffffffffffffffffff166302fb0c5e6040518163ffffffff167c0100000000000000000000000000000000000000000000000000000000028152600401602060405180830381600087803b15801562000da857600080fd5b505af115801562000dbd573d6000803e3d6000fd5b505050506040513d602081101562000dd457600080fd5b81019080805190602001909291905050508673ffffffffffffffffffffffffffffffffffffffff1663c63840716040518163ffffffff167c0100000000000000000000000000000000000000000000000000000000028152600401602060405180830381600087803b15801562000e4a57600080fd5b505af115801562000e5f573d6000803e3d6000fd5b505050506040513d602081101562000e7657600080fd5b81019080805190602001909291905050508773ffffffffffffffffffffffffffffffffffffffff16634b6753bc6040518163ffffffff167c0100000000000000000000000000000000000000000000000000000000028152600401602060405180830381600087803b15801562000eec57600080fd5b505af115801562000f01573d6000803e3d6000fd5b505050506040513d602081101562000f1857600080fd5b810190808051906020019092919050505088889850995099509950995099509950995099509950509193959799909294969850565b60075481565b60035481565b60008060008062000f6962001e95565b935093508215620014765760088481548110151562000f8457fe5b9060005260206000200160009054906101000a900473ffffffffffffffffffffffffffffffffffffffff1691508173ffffffffffffffffffffffffffffffffffffffff1663929aebdf6040518163ffffffff167c0100000000000000000000000000000000000000000000000000000000028152600401602060405180830381600087803b1580156200101657600080fd5b505af11580156200102b573d6000803e3d6000fd5b505050506040513d60208110156200104257600080fd5b810190808051906020019092919050505090506000809054906101000a900473ffffffffffffffffffffffffffffffffffffffff1673ffffffffffffffffffffffffffffffffffffffff166379cc6790600260009054906101000a900473ffffffffffffffffffffffffffffffffffffffff16836040518363ffffffff167c0100000000000000000000000000000000000000000000000000000000028152600401808373ffffffffffffffffffffffffffffffffffffffff1673ffffffffffffffffffffffffffffffffffffffff16815260200182815260200192505050600060405180830381600087803b1580156200113c57600080fd5b505af115801562001151573d6000803e3d6000fd5b50505050600160009054906101000a900473ffffffffffffffffffffffffffffffffffffffff1673ffffffffffffffffffffffffffffffffffffffff166340c10f19600260009054906101000a900473ffffffffffffffffffffffffffffffffffffffff16836040518363ffffffff167c0100000000000000000000000000000000000000000000000000000000028152600401808373ffffffffffffffffffffffffffffffffffffffff1673ffffffffffffffffffffffffffffffffffffffff16815260200182815260200192505050602060405180830381600087803b1580156200123d57600080fd5b505af115801562001252573d6000803e3d6000fd5b505050506040513d60208110156200126957600080fd5b810190808051906020019092919050505050620013288273ffffffffffffffffffffffffffffffffffffffff1663d705f3876040518163ffffffff167c0100000000000000000000000000000000000000000000000000000000028152600401602060405180830381600087803b158015620012e457600080fd5b505af1158015620012f9573d6000803e3d6000fd5b505050506040513d60208110156200131057600080fd5b81019080805190602001909291905050508562002123565b620013f7600260009054906101000a900473ffffffffffffffffffffffffffffffffffffffff168373ffffffffffffffffffffffffffffffffffffffff1663d4cf7db66040518163ffffffff167c0100000000000000000000000000000000000000000000000000000000028152600401602060405180830381600087803b158015620013b457600080fd5b505af1158015620013c9573d6000803e3d6000fd5b505050506040513d6020811015620013e057600080fd5b8101908080519060200190929190505050620027f2565b8173ffffffffffffffffffffffffffffffffffffffff16630f15f4c06040518163ffffffff167c0100000000000000000000000000000000000000000000000000000000028152600401600060405180830381600087803b1580156200145c57600080fd5b505af115801562001471573d6000803e3d6000fd5b505050505b50505050565b6009818154811015156200148c57fe5b90600052602060002090600402016000915090508060000160009054906101000a900473ffffffffffffffffffffffffffffffffffffffff16908060010154908060020154905083565b60045481565b620014e73362001ad7565b620014f2816200285b565b6008818154811015156200150257fe5b9060005260206000200160009054906101000a900473ffffffffffffffffffffffffffffffffffffffff1673ffffffffffffffffffffffffffffffffffffffff166382ab890a346040518263ffffffff167c010000000000000000000000000000000000000000000000000000000002815260040180828152602001915050600060405180830381600087803b1580156200159c57600080fd5b505af1158015620015b1573d6000803e3d6000fd5b5050505050565b60055481565b60065481565b6000600982815481101515620015d657fe5b906000526020600020906004020160000160009054906101000a900473ffffffffffffffffffffffffffffffffffffffff169050919050565b600260009054906101000a900473ffffffffffffffffffffffffffffffffffffffff1681565b6000809054906101000a900473ffffffffffffffffffffffffffffffffffffffff1681565b6000806000806200166c8789620029da565b935093506000809054906101000a900473ffffffffffffffffffffffffffffffffffffffff1673ffffffffffffffffffffffffffffffffffffffff166340c10f19600260009054906101000a900473ffffffffffffffffffffffffffffffffffffffff16620016e5868862001e7890919063ffffffff16565b6040518363ffffffff167c0100000000000000000000000000000000000000000000000000000000028152600401808373ffffffffffffffffffffffffffffffffffffffff1673ffffffffffffffffffffffffffffffffffffffff16815260200182815260200192505050602060405180830381600087803b1580156200176b57600080fd5b505af115801562001780573d6000803e3d6000fd5b505050506040513d60208110156200179757600080fd5b810190808051906020019092919050505050620017c08760075462001e7890919063ffffffff16565b600781905550620017d2605a62002a30565b6008805490509150818a8a308a8c89898d8d620017ee62002d19565b808b8152602001806020018a73ffffffffffffffffffffffffffffffffffffffff1673ffffffffffffffffffffffffffffffffffffffff1681526020018973ffffffffffffffffffffffffffffffffffffffff1673ffffffffffffffffffffffffffffffffffffffff168152602001888152602001878152602001868152602001858152602001806020018060200184810384528d818151815260200191508051906020019080838360005b83811015620018b75780820151818401526020810190506200189a565b50505050905090810190601f168015620018e55780820380516001836020036101000a031916815260200191505b50848103835286818151815260200191508051906020019080838360005b838110156200192057808201518184015260208101905062001903565b50505050905090810190601f1680156200194e5780820380516001836020036101000a031916815260200191505b50848103825285818151815260200191508051906020019080838360005b83811015620019895780820151818401526020810190506200196c565b50505050905090810190601f168015620019b75780820380516001836020036101000a031916815260200191505b509d5050505050505050505050505050604051809103906000f080158015620019e4573d6000803e3d6000fd5b50905060088190806001815401808255809150509060018203906000526020600020016000909192909190916101000a81548173ffffffffffffffffffffffffffffffffffffffff021916908373ffffffffffffffffffffffffffffffffffffffff160217905550508073ffffffffffffffffffffffffffffffffffffffff166351973ec96040518163ffffffff167c0100000000000000000000000000000000000000000000000000000000028152600401600060405180830381600087803b15801562001ab257600080fd5b505af115801562001ac7573d6000803e3d6000fd5b5050505050505050505050505050565b60008034915062001ae9838362002a9d565b62001af48262002ae3565b905062001b0d8260045462001e7890919063ffffffff16565b6004819055506000809054906101000a900473ffffffffffffffffffffffffffffffffffffffff1673ffffffffffffffffffffffffffffffffffffffff166323b872dd600260009054906101000a900473ffffffffffffffffffffffffffffffffffffffff1685846040518463ffffffff167c0100000000000000000000000000000000000000000000000000000000028152600401808473ffffffffffffffffffffffffffffffffffffffff1673ffffffffffffffffffffffffffffffffffffffff1681526020018373ffffffffffffffffffffffffffffffffffffffff1673ffffffffffffffffffffffffffffffffffffffff1681526020018281526020019350505050602060405180830381600087803b15801562001c2e57600080fd5b505af115801562001c43573d6000803e3d6000fd5b505050506040513d602081101562001c5a57600080fd5b8101908080519060200190929190505050508273ffffffffffffffffffffffffffffffffffffffff163373ffffffffffffffffffffffffffffffffffffffff167f623b3804fa71d67900d064613da8f94b9617215ee90799290593e1745087ad188484604051808381526020018281526020019250505060405180910390a3505050565b600082821115151562001ced57fe5b818303905092915050565b6000806000600160009054906101000a900473ffffffffffffffffffffffffffffffffffffffff1673ffffffffffffffffffffffffffffffffffffffff166370a08231876040518263ffffffff167c0100000000000000000000000000000000000000000000000000000000028152600401808273ffffffffffffffffffffffffffffffffffffffff1673ffffffffffffffffffffffffffffffffffffffff168152602001915050602060405180830381600087803b15801562001dbb57600080fd5b505af115801562001dd0573d6000803e3d6000fd5b505050506040513d602081101562001de757600080fd5b8101908080519060200190929190505050925062001e0f838662002b0390919063ffffffff16565b915062001e26828562002b0390919063ffffffff16565b90508573ffffffffffffffffffffffffffffffffffffffff166108fc829081150290604051600060405180830381858888f1935050505015801562001e6f573d6000803e3d6000fd5b50505050505050565b6000818301905082811015151562001e8c57fe5b80905092915050565b6000806000806000809150600090505b6008805490508110156200202c5760088181548110151562001ec357fe5b9060005260206000200160009054906101000a900473ffffffffffffffffffffffffffffffffffffffff1673ffffffffffffffffffffffffffffffffffffffff1663705c5be560088581548110151562001f1957fe5b9060005260206000200160009054906101000a900473ffffffffffffffffffffffffffffffffffffffff166040518263ffffffff167c0100000000000000000000000000000000000000000000000000000000028152600401808273ffffffffffffffffffffffffffffffffffffffff1673ffffffffffffffffffffffffffffffffffffffff168152602001915050602060405180830381600087803b15801562001fc357600080fd5b505af115801562001fd8573d6000803e3d6000fd5b505050506040513d602081101562001fef57600080fd5b8101908080519060200190929190505050156200200e57809250600191505b6200202460018262001e7890919063ffffffff16565b905062001ea5565b828280156200211857506004546008858154811015156200204957fe5b9060005260206000200160009054906101000a900473ffffffffffffffffffffffffffffffffffffffff1673ffffffffffffffffffffffffffffffffffffffff1663d4cf7db66040518163ffffffff167c0100000000000000000000000000000000000000000000000000000000028152600401602060405180830381600087803b158015620020d857600080fd5b505af1158015620020ed573d6000803e3d6000fd5b505050506040513d60208110156200210457600080fd5b810190808051906020019092919050505011155b945094505050509091565b6000806000806000806200231e6000809054906101000a900473ffffffffffffffffffffffffffffffffffffffff1673ffffffffffffffffffffffffffffffffffffffff166370a08231600260009054906101000a900473ffffffffffffffffffffffffffffffffffffffff166040518263ffffffff167c0100000000000000000000000000000000000000000000000000000000028152600401808273ffffffffffffffffffffffffffffffffffffffff1673ffffffffffffffffffffffffffffffffffffffff168152602001915050602060405180830381600087803b1580156200220f57600080fd5b505af115801562002224573d6000803e3d6000fd5b505050506040513d60208110156200223b57600080fd5b81019080805190602001909291905050506000809054906101000a900473ffffffffffffffffffffffffffffffffffffffff1673ffffffffffffffffffffffffffffffffffffffff166318160ddd6040518163ffffffff167c0100000000000000000000000000000000000000000000000000000000028152600401602060405180830381600087803b158015620022d257600080fd5b505af1158015620022e7573d6000803e3d6000fd5b505050506040513d6020811015620022fe57600080fd5b810190808051906020019092919050505062001cde90919063ffffffff16565b955062002335888762002b0390919063ffffffff16565b9450600093505b600980549050841015620027e8576000809054906101000a900473ffffffffffffffffffffffffffffffffffffffff1673ffffffffffffffffffffffffffffffffffffffff166370a082316009868154811015156200239757fe5b906000526020600020906004020160000160009054906101000a900473ffffffffffffffffffffffffffffffffffffffff166040518263ffffffff167c0100000000000000000000000000000000000000000000000000000000028152600401808273ffffffffffffffffffffffffffffffffffffffff1673ffffffffffffffffffffffffffffffffffffffff168152602001915050602060405180830381600087803b1580156200244857600080fd5b505af11580156200245d573d6000803e3d6000fd5b505050506040513d60208110156200247457600080fd5b810190808051906020019092919050505092506200249c858462002b0390919063ffffffff16565b91506000809054906101000a900473ffffffffffffffffffffffffffffffffffffffff1673ffffffffffffffffffffffffffffffffffffffff166379cc6790600986815481101515620024eb57fe5b906000526020600020906004020160000160009054906101000a900473ffffffffffffffffffffffffffffffffffffffff16846040518363ffffffff167c0100000000000000000000000000000000000000000000000000000000028152600401808373ffffffffffffffffffffffffffffffffffffffff1673ffffffffffffffffffffffffffffffffffffffff16815260200182815260200192505050600060405180830381600087803b158015620025a457600080fd5b505af1158015620025b9573d6000803e3d6000fd5b50505050600160009054906101000a900473ffffffffffffffffffffffffffffffffffffffff1673ffffffffffffffffffffffffffffffffffffffff166340c10f196009868154811015156200260b57fe5b906000526020600020906004020160000160009054906101000a900473ffffffffffffffffffffffffffffffffffffffff16846040518363ffffffff167c0100000000000000000000000000000000000000000000000000000000028152600401808373ffffffffffffffffffffffffffffffffffffffff1673ffffffffffffffffffffffffffffffffffffffff16815260200182815260200192505050602060405180830381600087803b158015620026c457600080fd5b505af1158015620026d9573d6000803e3d6000fd5b505050506040513d6020811015620026f057600080fd5b8101908080519060200190929190505050506009848154811015156200271257fe5b9060005260206000209060040201600301600088815260200190815260200160002054905060006009858154811015156200274957fe5b9060005260206000209060040201600301600089815260200190815260200160002081905550620027a5816009868154811015156200278457fe5b90600052602060002090600402016002015462001e7890919063ffffffff16565b600985815481101515620027b557fe5b906000526020600020906004020160020181905550620027e060018562001e7890919063ffffffff16565b93506200233c565b5050505050505050565b8173ffffffffffffffffffffffffffffffffffffffff166108fc829081150290604051600060405180830381858888f1935050505015801562002839573d6000803e3d6000fd5b50620028518160045462001cde90919063ffffffff16565b6004819055505050565b6200286562002d2a565b600080600a60003373ffffffffffffffffffffffffffffffffffffffff1673ffffffffffffffffffffffffffffffffffffffff168152602001908152602001600020541415620029ca5733826000019073ffffffffffffffffffffffffffffffffffffffff16908173ffffffffffffffffffffffffffffffffffffffff168152505060098054905090508082602001818152505080600a60003373ffffffffffffffffffffffffffffffffffffffff1673ffffffffffffffffffffffffffffffffffffffff168152602001908152602001600020819055506009829080600181540180825580915050906001820390600052602060002090600402016000909192909190915060008201518160000160006101000a81548173ffffffffffffffffffffffffffffffffffffffff021916908373ffffffffffffffffffffffffffffffffffffffff16021790555060208201518160010155604082015181600201555050505b620029d58362002b1a565b505050565b6000806000620029f4848662001cde90919063ffffffff16565b905062002a0d6003548262002c8b90919063ffffffff16565b62002a246003548662002c8b90919063ffffffff16565b92509250509250929050565b600080600042925060055491506006549050600554421015801562002a5757506006544211155b151562002a6357600080fd5b62002a9162002a7f621a5e008662002c8b90919063ffffffff16565b60065462001e7890919063ffffffff16565b60068190555050505050565b600080600042925060055491506006549050600554421015801562002ac457506006544211155b151562002ad057600080fd5b62002adc858562002cc7565b5050505050565b600062002afc6003548362002c8b90919063ffffffff16565b9050919050565b6000818381151562002b1157fe5b04905092915050565b62002ba0346009600a60003373ffffffffffffffffffffffffffffffffffffffff1673ffffffffffffffffffffffffffffffffffffffff1681526020019081526020016000205481548110151562002b6e57fe5b906000526020600020906004020160030160008481526020019081526020016000205462001e7890919063ffffffff16565b6009600a60003373ffffffffffffffffffffffffffffffffffffffff1673ffffffffffffffffffffffffffffffffffffffff1681526020019081526020016000205481548110151562002bef57fe5b90600052602060002090600402016003016000838152602001908152602001600020819055507f1cfed8e6708dd89e1137769a805a4f0bb9a3bd615d751d5b2c078d2f3b34c574338234604051808473ffffffffffffffffffffffffffffffffffffffff1673ffffffffffffffffffffffffffffffffffffffff168152602001838152602001828152602001935050505060405180910390a150565b60008083141562002ca0576000905062002cc1565b818302905081838281151562002cb257fe5b0414151562002cbd57fe5b8090505b92915050565b600073ffffffffffffffffffffffffffffffffffffffff168273ffffffffffffffffffffffffffffffffffffffff161415151562002d0457600080fd5b6000811415151562002d1557600080fd5b5050565b6040516110118062002d6383390190565b606060405190810160405280600073ffffffffffffffffffffffffffffffffffffffff16815260200160008152602001600081525090560060806040523480156200001157600080fd5b50604051620010113803806200101183398101806040528101908080519060200190929190805182019291906020018051906020019092919080519060200190929190805190602001909291908051906020019092919080519060200190929190805190602001909291908051820192919060200180518201929190505050896000819055508860019080519060200190620000af929190620001c0565b5087600260006101000a81548173ffffffffffffffffffffffffffffffffffffffff021916908373ffffffffffffffffffffffffffffffffffffffff16021790555086600360006101000a81548173ffffffffffffffffffffffffffffffffffffffff021916908373ffffffffffffffffffffffffffffffffffffffff16021790555085600581905550846006819055508360078190555082600881905550816009908051906020019062000166929190620001c0565b5080600a90805190602001906200017f929190620001c0565b506000600b819055506000600c60006101000a81548160ff02191690831515021790555063013d23804201600481905550505050505050505050506200026f565b828054600181600116156101000203166002900490600052602060002090601f016020900481019282601f106200020357805160ff191683800117855562000234565b8280016001018555821562000234579182015b828111156200023357825182559160200191906001019062000216565b5b50905062000243919062000247565b5090565b6200026c91905b80821115620002685760008160009055506001016200024e565b5090565b90565b610d92806200027f6000396000f300608060405260043610610127576000357c0100000000000000000000000000000000000000000000000000000000900463ffffffff1680624dcde51461012c578063015e72ec1461015757806302fb0c5e146101e757806306fdde03146102165780630f15f4c0146102a657806321a7cfe4146102bd578063272666e3146102e85780634b6753bc146103135780634d7c09dd1461033e57806351973ec91461036d57806355d576cc146103845780636417d7b014610414578063705c5be51461043f57806382ab890a1461049a578063929aebdf146104c7578063af640d0f146104f2578063c63840711461051d578063d0e30db014610548578063d4cf7db614610552578063d705f3871461057d578063ec61b086146105a8578063f25874c8146105d3575b600080fd5b34801561013857600080fd5b506101416105fe565b6040518082815260200191505060405180910390f35b34801561016357600080fd5b5061016c610604565b6040518080602001828103825283818151815260200191508051906020019080838360005b838110156101ac578082015181840152602081019050610191565b50505050905090810190601f1680156101d95780820380516001836020036101000a031916815260200191505b509250505060405180910390f35b3480156101f357600080fd5b506101fc6106a2565b604051808215151515815260200191505060405180910390f35b34801561022257600080fd5b5061022b6106b5565b6040518080602001828103825283818151815260200191508051906020019080838360005b8381101561026b578082015181840152602081019050610250565b50505050905090810190601f1680156102985780820380516001836020036101000a031916815260200191505b509250505060405180910390f35b3480156102b257600080fd5b506102bb610753565b005b3480156102c957600080fd5b506102d2610778565b6040518082815260200191505060405180910390f35b3480156102f457600080fd5b506102fd61077e565b6040518082815260200191505060405180910390f35b34801561031f57600080fd5b50610328610788565b6040518082815260200191505060405180910390f35b34801561034a57600080fd5b5061035361078e565b604051808215151515815260200191505060405180910390f35b34801561037957600080fd5b506103826107a5565b005b34801561039057600080fd5b506103996109ce565b6040518080602001828103825283818151815260200191508051906020019080838360005b838110156103d95780820151818401526020810190506103be565b50505050905090810190601f1680156104065780820380516001836020036101000a031916815260200191505b509250505060405180910390f35b34801561042057600080fd5b50610429610a6c565b6040518082815260200191505060405180910390f35b34801561044b57600080fd5b50610480600480360381019080803573ffffffffffffffffffffffffffffffffffffffff169060200190929190505050610a72565b604051808215151515815260200191505060405180910390f35b3480156104a657600080fd5b506104c560048036038101908080359060200190929190505050610bf9565b005b3480156104d357600080fd5b506104dc610c34565b6040518082815260200191505060405180910390f35b3480156104fe57600080fd5b50610507610c3e565b6040518082815260200191505060405180910390f35b34801561052957600080fd5b50610532610c44565b6040518082815260200191505060405180910390f35b610550610c4a565b005b34801561055e57600080fd5b50610567610d26565b6040518082815260200191505060405180910390f35b34801561058957600080fd5b50610592610d30565b6040518082815260200191505060405180910390f35b3480156105b457600080fd5b506105bd610d3a565b6040518082815260200191505060405180910390f35b3480156105df57600080fd5b506105e8610d40565b6040518082815260200191505060405180910390f35b60085481565b600a8054600181600116156101000203166002900480601f01602080910402602001604051908101604052809291908181526020018280546001816001161561010002031660029004801561069a5780601f1061066f5761010080835404028352916020019161069a565b820191906000526020600020905b81548152906001019060200180831161067d57829003601f168201915b505050505081565b600c60009054906101000a900460ff1681565b60018054600181600116156101000203166002900480601f01602080910402602001604051908101604052809291908181526020018280546001816001161561010002031660029004801561074b5780601f106107205761010080835404028352916020019161074b565b820191906000526020600020905b81548152906001019060200180831161072e57829003601f168201915b505050505081565b6001600c60006101000a81548160ff0219169083151502179055506107766107a5565b565b60055481565b6000600454905090565b60045481565b6000600c60009054906101000a900460ff16905090565b7f2870b0d0558b1786ef247a7bb0787eaae7392b072f7ca327b464981f23fb0e9260005460016005546006546007546008546009600a600b54600c60009054906101000a900460ff16604051808b8152602001806020018a815260200189815260200188815260200187815260200180602001806020018681526020018515151515815260200184810384528d8181546001816001161561010002031660029004815260200191508054600181600116156101000203166002900480156108ad5780601f10610882576101008083540402835291602001916108ad565b820191906000526020600020905b81548152906001019060200180831161089057829003601f168201915b50508481038352888181546001816001161561010002031660029004815260200191508054600181600116156101000203166002900480156109305780601f1061090557610100808354040283529160200191610930565b820191906000526020600020905b81548152906001019060200180831161091357829003601f168201915b50508481038252878181546001816001161561010002031660029004815260200191508054600181600116156101000203166002900480156109b35780601f10610988576101008083540402835291602001916109b3565b820191906000526020600020905b81548152906001019060200180831161099657829003601f168201915b50509d505050505050505050505050505060405180910390a1565b60098054600181600116156101000203166002900480601f016020809104026020016040519081016040528092919081815260200182805460018160011615610100020316600290048015610a645780601f10610a3957610100808354040283529160200191610a64565b820191906000526020600020905b815481529060010190602001808311610a4757829003601f168201915b505050505081565b60075481565b6000600c60009054906101000a900460ff16158015610a9357506000600b54115b8015610aa0575042600454115b8015610b4c57508173ffffffffffffffffffffffffffffffffffffffff1663f25874c86040518163ffffffff167c0100000000000000000000000000000000000000000000000000000000028152600401602060405180830381600087803b158015610b0b57600080fd5b505af1158015610b1f573d6000803e3d6000fd5b505050506040513d6020811015610b3557600080fd5b8101908080519060200190929190505050600b5410155b80610bf257508173ffffffffffffffffffffffffffffffffffffffff16634d7c09dd6040518163ffffffff167c0100000000000000000000000000000000000000000000000000000000028152600401602060405180830381600087803b158015610bb657600080fd5b505af1158015610bca573d6000803e3d6000fd5b505050506040513d6020811015610be057600080fd5b81019080805190602001909291905050505b9050919050565b610c0e81600b54610d4a90919063ffffffff16565b600b81905550610c2b61a8c0600454610d4a90919063ffffffff16565b60048190555050565b6000600754905090565b60005481565b600b5481565b6000803414151515610c5b57600080fd5b600260009054906101000a900473ffffffffffffffffffffffffffffffffffffffff1673ffffffffffffffffffffffffffffffffffffffff163373ffffffffffffffffffffffffffffffffffffffff16141515610cb757600080fd5b349050600360009054906101000a900473ffffffffffffffffffffffffffffffffffffffff1673ffffffffffffffffffffffffffffffffffffffff166108fc829081150290604051600060405180830381858888f19350505050158015610d22573d6000803e3d6000fd5b5050565b6000600654905090565b6000600854905090565b60065481565b6000600b54905090565b60008183019050828110151515610d5d57fe5b809050929150505600a165627a7a72305820e7f0a550d494cc1a72150d581eda2345696e3433e64e3e39b4cb92ad6ad50c0e0029a165627a7a72305820a2477b30efd32ac042f7a8f5c3f27d0f483f95b219feaf11b63942822862fb05002960806040526000600360146101000a81548160ff02191690831515021790555033600360006101000a81548173ffffffffffffffffffffffffffffffffffffffff021916908373ffffffffffffffffffffffffffffffffffffffff1602179055506117558061006f6000396000f3006080604052600436106100db576000357c0100000000000000000000000000000000000000000000000000000000900463ffffffff16806305d2035b146100e0578063095ea7b31461010f57806318160ddd1461017457806323b872dd1461019f57806340c10f1914610224578063661884631461028957806370a08231146102ee578063715018a61461034557806379cc67901461035c5780637d64bcb4146103a95780638da5cb5b146103d8578063a9059cbb1461042f578063d73dd62314610494578063dd62ed3e146104f9578063f2fde38b14610570575b600080fd5b3480156100ec57600080fd5b506100f56105b3565b604051808215151515815260200191505060405180910390f35b34801561011b57600080fd5b5061015a600480360381019080803573ffffffffffffffffffffffffffffffffffffffff169060200190929190803590602001909291905050506105c6565b604051808215151515815260200191505060405180910390f35b34801561018057600080fd5b506101896106b8565b6040518082815260200191505060405180910390f35b3480156101ab57600080fd5b5061020a600480360381019080803573ffffffffffffffffffffffffffffffffffffffff169060200190929190803573ffffffffffffffffffffffffffffffffffffffff169060200190929190803590602001909291905050506106c2565b604051808215151515815260200191505060405180910390f35b34801561023057600080fd5b5061026f600480360381019080803573ffffffffffffffffffffffffffffffffffffffff169060200190929190803590602001909291905050506108e3565b604051808215151515815260200191505060405180910390f35b34801561029557600080fd5b506102d4600480360381019080803573ffffffffffffffffffffffffffffffffffffffff16906020019092919080359060200190929190505050610a6d565b604051808215151515815260200191505060405180910390f35b3480156102fa57600080fd5b5061032f600480360381019080803573ffffffffffffffffffffffffffffffffffffffff169060200190929190505050610cff565b6040518082815260200191505060405180910390f35b34801561035157600080fd5b5061035a610d47565b005b34801561036857600080fd5b506103a7600480360381019080803573ffffffffffffffffffffffffffffffffffffffff16906020019092919080359060200190929190505050610e4c565b005b3480156103b557600080fd5b506103be610fff565b604051808215151515815260200191505060405180910390f35b3480156103e457600080fd5b506103ed6110c7565b604051808273ffffffffffffffffffffffffffffffffffffffff1673ffffffffffffffffffffffffffffffffffffffff16815260200191505060405180910390f35b34801561043b57600080fd5b5061047a600480360381019080803573ffffffffffffffffffffffffffffffffffffffff169060200190929190803590602001909291905050506110ed565b604051808215151515815260200191505060405180910390f35b3480156104a057600080fd5b506104df600480360381019080803573ffffffffffffffffffffffffffffffffffffffff1690602001909291908035906020019092919050505061130d565b604051808215151515815260200191505060405180910390f35b34801561050557600080fd5b5061055a600480360381019080803573ffffffffffffffffffffffffffffffffffffffff169060200190929190803573ffffffffffffffffffffffffffffffffffffffff169060200190929190505050611509565b6040518082815260200191505060405180910390f35b34801561057c57600080fd5b506105b1600480360381019080803573ffffffffffffffffffffffffffffffffffffffff169060200190929190505050611590565b005b600360149054906101000a900460ff1681565b600081600260003373ffffffffffffffffffffffffffffffffffffffff1673ffffffffffffffffffffffffffffffffffffffff16815260200190815260200160002060008573ffffffffffffffffffffffffffffffffffffffff1673ffffffffffffffffffffffffffffffffffffffff168152602001908152602001600020819055508273ffffffffffffffffffffffffffffffffffffffff163373ffffffffffffffffffffffffffffffffffffffff167f8c5be1e5ebec7d5bd14f71427d1e84f3dd0314c0f7b2291e5b200ac8c7c3b925846040518082815260200191505060405180910390a36001905092915050565b6000600154905090565b60008060008573ffffffffffffffffffffffffffffffffffffffff1673ffffffffffffffffffffffffffffffffffffffff16815260200190815260200160002054821115151561071157600080fd5b600073ffffffffffffffffffffffffffffffffffffffff168373ffffffffffffffffffffffffffffffffffffffff161415151561074d57600080fd5b61079e826000808773ffffffffffffffffffffffffffffffffffffffff1673ffffffffffffffffffffffffffffffffffffffff168152602001908152602001600020546115f890919063ffffffff16565b6000808673ffffffffffffffffffffffffffffffffffffffff1673ffffffffffffffffffffffffffffffffffffffff16815260200190815260200160002081905550610831826000808673ffffffffffffffffffffffffffffffffffffffff1673ffffffffffffffffffffffffffffffffffffffff1681526020019081526020016000205461161190919063ffffffff16565b6000808573ffffffffffffffffffffffffffffffffffffffff1673ffffffffffffffffffffffffffffffffffffffff168152602001908152602001600020819055508273ffffffffffffffffffffffffffffffffffffffff168473ffffffffffffffffffffffffffffffffffffffff167fddf252ad1be2c89b69c2b068fc378daa952ba7f163c4a11628f55a4df523b3ef846040518082815260200191505060405180910390a3600190509392505050565b6000600360149054906101000a900460ff1615151561090157600080fd5b6109168260015461161190919063ffffffff16565b60018190555061096d826000808673ffffffffffffffffffffffffffffffffffffffff1673ffffffffffffffffffffffffffffffffffffffff1681526020019081526020016000205461161190919063ffffffff16565b6000808573ffffffffffffffffffffffffffffffffffffffff1673ffffffffffffffffffffffffffffffffffffffff168152602001908152602001600020819055508273ffffffffffffffffffffffffffffffffffffffff167f0f6798a560793a54c3bcfe86a93cde1e73087d944c0ea20544137d4121396885836040518082815260200191505060405180910390a28273ffffffffffffffffffffffffffffffffffffffff16600073ffffffffffffffffffffffffffffffffffffffff167fddf252ad1be2c89b69c2b068fc378daa952ba7f163c4a11628f55a4df523b3ef846040518082815260200191505060405180910390a36001905092915050565b600080600260003373ffffffffffffffffffffffffffffffffffffffff1673ffffffffffffffffffffffffffffffffffffffff16815260200190815260200160002060008573ffffffffffffffffffffffffffffffffffffffff1673ffffffffffffffffffffffffffffffffffffffff1681526020019081526020016000205490508083101515610b7f576000600260003373ffffffffffffffffffffffffffffffffffffffff1673ffffffffffffffffffffffffffffffffffffffff16815260200190815260200160002060008673ffffffffffffffffffffffffffffffffffffffff1673ffffffffffffffffffffffffffffffffffffffff16815260200190815260200160002081905550610c13565b610b9283826115f890919063ffffffff16565b600260003373ffffffffffffffffffffffffffffffffffffffff1673ffffffffffffffffffffffffffffffffffffffff16815260200190815260200160002060008673ffffffffffffffffffffffffffffffffffffffff1673ffffffffffffffffffffffffffffffffffffffff168152602001908152602001600020819055505b8373ffffffffffffffffffffffffffffffffffffffff163373ffffffffffffffffffffffffffffffffffffffff167f8c5be1e5ebec7d5bd14f71427d1e84f3dd0314c0f7b2291e5b200ac8c7c3b925600260003373ffffffffffffffffffffffffffffffffffffffff1673ffffffffffffffffffffffffffffffffffffffff16815260200190815260200160002060008873ffffffffffffffffffffffffffffffffffffffff1673ffffffffffffffffffffffffffffffffffffffff168152602001908152602001600020546040518082815260200191505060405180910390a3600191505092915050565b60008060008373ffffffffffffffffffffffffffffffffffffffff1673ffffffffffffffffffffffffffffffffffffffff168152602001908152602001600020549050919050565b600360009054906101000a900473ffffffffffffffffffffffffffffffffffffffff1673ffffffffffffffffffffffffffffffffffffffff163373ffffffffffffffffffffffffffffffffffffffff16141515610da357600080fd5b600360009054906101000a900473ffffffffffffffffffffffffffffffffffffffff1673ffffffffffffffffffffffffffffffffffffffff167ff8df31144d9c2f0f6b59d69b8b98abd5459d07f2742c4df920b25aae33c6482060405160405180910390a26000600360006101000a81548173ffffffffffffffffffffffffffffffffffffffff021916908373ffffffffffffffffffffffffffffffffffffffff160217905550565b6000808373ffffffffffffffffffffffffffffffffffffffff1673ffffffffffffffffffffffffffffffffffffffff168152602001908152602001600020548111151515610e9957600080fd5b610eea816000808573ffffffffffffffffffffffffffffffffffffffff1673ffffffffffffffffffffffffffffffffffffffff168152602001908152602001600020546115f890919063ffffffff16565b6000808473ffffffffffffffffffffffffffffffffffffffff1673ffffffffffffffffffffffffffffffffffffffff16815260200190815260200160002081905550610f41816001546115f890919063ffffffff16565b6001819055508173ffffffffffffffffffffffffffffffffffffffff167fcc16f5dbb4873280815c1ee09dbd06736cffcc184412cf7a71a0fdb75d397ca5826040518082815260200191505060405180910390a2600073ffffffffffffffffffffffffffffffffffffffff168273ffffffffffffffffffffffffffffffffffffffff167fddf252ad1be2c89b69c2b068fc378daa952ba7f163c4a11628f55a4df523b3ef836040518082815260200191505060405180910390a35050565b6000600360009054906101000a900473ffffffffffffffffffffffffffffffffffffffff1673ffffffffffffffffffffffffffffffffffffffff163373ffffffffffffffffffffffffffffffffffffffff1614151561105d57600080fd5b600360149054906101000a900460ff1615151561107957600080fd5b6001600360146101000a81548160ff0219169083151502179055507fae5184fba832cb2b1f702aca6117b8d265eaf03ad33eb133f19dde0f5920fa0860405160405180910390a16001905090565b600360009054906101000a900473ffffffffffffffffffffffffffffffffffffffff1681565b60008060003373ffffffffffffffffffffffffffffffffffffffff1673ffffffffffffffffffffffffffffffffffffffff16815260200190815260200160002054821115151561113c57600080fd5b600073ffffffffffffffffffffffffffffffffffffffff168373ffffffffffffffffffffffffffffffffffffffff161415151561117857600080fd5b6111c9826000803373ffffffffffffffffffffffffffffffffffffffff1673ffffffffffffffffffffffffffffffffffffffff168152602001908152602001600020546115f890919063ffffffff16565b6000803373ffffffffffffffffffffffffffffffffffffffff1673ffffffffffffffffffffffffffffffffffffffff1681526020019081526020016000208190555061125c826000808673ffffffffffffffffffffffffffffffffffffffff1673ffffffffffffffffffffffffffffffffffffffff1681526020019081526020016000205461161190919063ffffffff16565b6000808573ffffffffffffffffffffffffffffffffffffffff1673ffffffffffffffffffffffffffffffffffffffff168152602001908152602001600020819055508273ffffffffffffffffffffffffffffffffffffffff163373ffffffffffffffffffffffffffffffffffffffff167fddf252ad1be2c89b69c2b068fc378daa952ba7f163c4a11628f55a4df523b3ef846040518082815260200191505060405180910390a36001905092915050565b600061139e82600260003373ffffffffffffffffffffffffffffffffffffffff1673ffffffffffffffffffffffffffffffffffffffff16815260200190815260200160002060008673ffffffffffffffffffffffffffffffffffffffff1673ffffffffffffffffffffffffffffffffffffffff1681526020019081526020016000205461161190919063ffffffff16565b600260003373ffffffffffffffffffffffffffffffffffffffff1673ffffffffffffffffffffffffffffffffffffffff16815260200190815260200160002060008573ffffffffffffffffffffffffffffffffffffffff1673ffffffffffffffffffffffffffffffffffffffff168152602001908152602001600020819055508273ffffffffffffffffffffffffffffffffffffffff163373ffffffffffffffffffffffffffffffffffffffff167f8c5be1e5ebec7d5bd14f71427d1e84f3dd0314c0f7b2291e5b200ac8c7c3b925600260003373ffffffffffffffffffffffffffffffffffffffff1673ffffffffffffffffffffffffffffffffffffffff16815260200190815260200160002060008773ffffffffffffffffffffffffffffffffffffffff1673ffffffffffffffffffffffffffffffffffffffff168152602001908152602001600020546040518082815260200191505060405180910390a36001905092915050565b6000600260008473ffffffffffffffffffffffffffffffffffffffff1673ffffffffffffffffffffffffffffffffffffffff16815260200190815260200160002060008373ffffffffffffffffffffffffffffffffffffffff1673ffffffffffffffffffffffffffffffffffffffff16815260200190815260200160002054905092915050565b600360009054906101000a900473ffffffffffffffffffffffffffffffffffffffff1673ffffffffffffffffffffffffffffffffffffffff163373ffffffffffffffffffffffffffffffffffffffff161415156115ec57600080fd5b6115f58161162d565b50565b600082821115151561160657fe5b818303905092915050565b6000818301905082811015151561162457fe5b80905092915050565b600073ffffffffffffffffffffffffffffffffffffffff168173ffffffffffffffffffffffffffffffffffffffff161415151561166957600080fd5b8073ffffffffffffffffffffffffffffffffffffffff16600360009054906101000a900473ffffffffffffffffffffffffffffffffffffffff1673ffffffffffffffffffffffffffffffffffffffff167f8be0079c531659141344cd1fd0a4f28419497f9722a3daafe3b4186f6b6457e060405160405180910390a380600360006101000a81548173ffffffffffffffffffffffffffffffffffffffff021916908373ffffffffffffffffffffffffffffffffffffffff160217905550505600a165627a7a7230582058a3370c00836b2ec4cbfa5f0a7ceeddcccd6d7bb1685028b513a90844df2a520029",
  "source": "pragma solidity 0.4.24;\nimport './TimedCrowdsale.sol';\nimport '../utility/SafeMath.sol';\nimport '../Project.sol';\nimport '../token/ERC20/ActiveToken.sol';\nimport '../token/InactiveToken.sol';\n\ncontract GNITokenCrowdsale is TimedCrowdsale {\n  using SafeMath for uint256;\n  uint256 public totalValuation;\n\n  constructor\n      (\n        uint256 _openingTime,\n        uint256 _doomsDay,\n        uint256 _rate,\n        address _developer,\n        ActiveToken _token\n      )\n      public\n      Crowdsale(_rate, _developer, _token)\n      TimedCrowdsale(_openingTime, _doomsDay) {\n          totalValuation = 0;\n  }\n\n  event LogVotes (\n    address voter,\n    uint256 projectId,\n    uint256 amount\n    );\n\n\n  address[] public projects;\n\n  function getInfo(uint256 id) public view returns(\n    string, uint256, uint256, uint256, uint256, bool, uint256, uint256, address\n    ) {\n      address projectAddr = projects[id];\n      return (\n        Project(projectAddr).name(),\n        Project(projectAddr).valuation(),\n        Project(projectAddr).capitalRequired(),\n        Project(projectAddr).developerTokens(),\n        Project(projectAddr).investorTokens(),\n        Project(projectAddr).active(),\n        Project(projectAddr).voteCount(),\n        Project(projectAddr).closingTime(),\n        projectAddr\n        );\n      }\n\n//after this, the developer has to approve this contract to spend the amount of inactive tokens associated with developers on its behalf\n function pitchProject(string _name, address _manager, uint capitalRequired, uint256 _valuation, string _lat, string _lng) public payable {\n   (uint256 developerTokens, uint256 investorTokens) = tokensToIssue(_valuation, capitalRequired);\n\n   InactiveToken(inactiveToken_).mint(developer, developerTokens.add(investorTokens));\n   totalValuation = totalValuation.add(_valuation);\n\n     // Increase crowdsale duation by 90 days\n   _extendDoomsDay(90);\n\n    uint256 _id = projects.length;\n    //the following line causes a migration error...\n    address projectAddr = new Project(_id, _name, _manager, address(this), _valuation, capitalRequired, developerTokens, investorTokens, _lat, _lng);\n    projects.push(projectAddr);\n    Project(projectAddr).log();\n }\n\n function tokensToIssue (uint256 valuation, uint256 investorValue) private view returns (uint256, uint256) {\n   uint256 developerValue = valuation.sub(investorValue);\n\n   return (developerValue.mul(rate), investorValue.mul(rate));\n }\n\n //before this, the investor has to approve this contract to spend the amount of tokens they'll be buying on their behalf. this is needed to activate tokens later.\n function buyTokensAndVote (uint256 _projectVotedForId) public payable {\n   //add require statement that makes sure the projet isnt already active\n   buyTokens(msg.sender);\n   updateInvestor(_projectVotedForId);\n   Project(projects[_projectVotedForId]).update(msg.value);\n }\n\n struct Investor {\n   address addr;\n   uint256 id;\n   uint256 voteCredit;\n   //maps from projectId to number of votes for that project\n   mapping(uint256 => uint256) votes;\n }\n\n Investor[] public investors;\n mapping(address => uint256) internal investorIds;\n\n function investor (uint256 id) public view returns(address) {\n   return investors[id].addr;\n }\n\n function updateInvestor (uint256 _projectId) private {\n   if (investorIds[msg.sender] == 0) {\n     Investor memory newInvestor;\n\n     newInvestor.addr = msg.sender;\n\n     uint256 id = investors.length;\n     newInvestor.id = id;\n     investorIds[msg.sender] = id;\n\n     investors.push(newInvestor);\n   }\n\n   updateInvestorVotes(_projectId);\n }\n\n function updateInvestorVotes(uint256 _projectId) internal {\n   investors[investorIds[msg.sender]].votes[_projectId] = investors[investorIds[msg.sender]].votes[_projectId].add(msg.value);\n   emit LogVotes(msg.sender, _projectId, msg.value);\n }\n\n function _extendDoomsDay(uint256 _days) internal onlyWhileOpen {\n    doomsDay = doomsDay.add(_days.mul(1728000));\n }\n\n function activateProject() public {\n    (uint256 projectId, bool canActivate) = projectToActivateDetails();\n\n    if(canActivate){\n      Project project = Project(projects[projectId]);\n\n      uint256 developerTokens = project.developerTokens_();\n      InactiveToken(inactiveToken_).burnFrom(developer, developerTokens);\n      ActiveToken(activeToken_).mint(developer, developerTokens);\n      updateInvestors(project.investorTokens_(), projectId);\n\n      forwardFunds(developer, project.capitalRequired_());\n      project.activate();\n    }\n  }\n\n  function projectToActivateDetails() private returns (uint256, bool) {\n    uint256 leadingProjectId;\n    bool candidateFound = false;\n\n    for(uint256 i = 0; i < projects.length; i = i.add(1)) {\n      if (Project(projects[i]).beats(projects[leadingProjectId])) {\n        leadingProjectId = i;\n        candidateFound = true;\n      }\n    }\n\n    return (leadingProjectId, candidateFound && Project(projects[leadingProjectId]).capitalRequired_() <= weiRaised);\n  }\n\n  function updateInvestors (uint256 tokens, uint256 projectId) private {\n    uint256 supply = InactiveToken(inactiveToken_).totalSupply().sub(ActiveToken(inactiveToken_).balanceOf(developer));\n    uint256 activationDivisor = supply.div(tokens);\n\n    for (uint256 i = 0; i < investors.length; i = i.add(1)) {\n\n      uint256 investorBalance = InactiveToken(inactiveToken_).balanceOf(investors[i].addr);\n      uint256 tokensToActivate = investorBalance.div(activationDivisor);\n      InactiveToken(inactiveToken_).burnFrom(investors[i].addr, tokensToActivate);\n      ActiveToken(activeToken_).mint(investors[i].addr, tokensToActivate);\n\n      uint256 voteCredit = investors[i].votes[projectId];\n      investors[i].votes[projectId] = 0;\n      investors[i].voteCredit = investors[i].voteCredit.add(voteCredit);\n    }\n  }\n\n  function forwardFunds (address _to, uint256 amount) internal {\n    _to.transfer(amount);\n    weiRaised = weiRaised.sub(amount);\n  }\n\n  //we want this to be called on an interval\n  function distributeDividends () external {\n    //store the total amount of wei in a variable\n    //iterate through each investor.\n    //divide the total active tokens by the number of active investor tokens.\n    //divide the total wei by the resulting number to find out how much to wei to transfer\n    uint256 activeTokens = ActiveToken(activeToken_).totalSupply();\n    uint256 profits = address(this).balance.sub(weiRaised);\n\n    for (uint256 i = 0; i < investors.length; i = i.add(1)) {\n      grantDividend(investors[i].addr, activeTokens, profits);\n    }\n\n    grantDividend(developer, activeTokens, profits);\n  }\n\n  function grantDividend (address investor, uint256 activeTokens, uint256 profits) private {\n    uint256 investorActive = ActiveToken(activeToken_).balanceOf(investor);\n    uint256 investorShare = activeTokens.div(investorActive);\n    uint256 dividend = profits.div(investorShare);\n    investor.transfer(dividend);\n  }\n}\n",
  "sourcePath": "/Users/steven/genie-portal/truffle/contracts/crowdsale/GNITokenCrowdsale.sol",
  "compiler": {
    "name": "solc",
    "version": "0.4.24+commit.e67f0147.Emscripten.clang"
  },
  "schemaVersion": "2.0.1",
  "updatedAt": "2018-10-24T22:53:02.005Z"
}