{
  "contractName": "InactiveToken",
  "abi": [
    {
      "constant": true,
      "inputs": [],
      "name": "activation",
      "outputs": [
        {
          "name": "",
          "type": "address"
        }
      ],
      "payable": false,
      "stateMutability": "view",
      "type": "function"
    },
    {
      "constant": true,
      "inputs": [],
      "name": "totalActivationPoints",
      "outputs": [
        {
          "name": "",
          "type": "uint256"
        }
      ],
      "payable": false,
      "stateMutability": "view",
      "type": "function"
    },
    {
      "constant": true,
      "inputs": [],
      "name": "totalPendingActivations",
      "outputs": [
        {
          "name": "",
          "type": "uint256"
        }
      ],
      "payable": false,
      "stateMutability": "view",
      "type": "function"
    },
    {
      "constant": true,
      "inputs": [],
      "name": "activeToken",
      "outputs": [
        {
          "name": "",
          "type": "address"
        }
      ],
      "payable": false,
      "stateMutability": "view",
      "type": "function"
    },
    {
      "constant": true,
      "inputs": [],
      "name": "crowdsale",
      "outputs": [
        {
          "name": "",
          "type": "address"
        }
      ],
      "payable": false,
      "stateMutability": "view",
      "type": "function"
    },
    {
      "constant": true,
      "inputs": [],
      "name": "votingToken",
      "outputs": [
        {
          "name": "",
          "type": "address"
        }
      ],
      "payable": false,
      "stateMutability": "view",
      "type": "function"
    },
    {
      "constant": false,
      "inputs": [
        {
          "name": "recipient",
          "type": "address"
        }
      ],
      "name": "transferCrowdsaleKey",
      "outputs": [],
      "payable": false,
      "stateMutability": "nonpayable",
      "type": "function"
    },
    {
      "constant": false,
      "inputs": [
        {
          "name": "recipient",
          "type": "address"
        }
      ],
      "name": "transferActivationKey",
      "outputs": [],
      "payable": false,
      "stateMutability": "nonpayable",
      "type": "function"
    },
    {
      "inputs": [
        {
          "name": "_votingToken",
          "type": "address"
        },
        {
          "name": "_activeToken",
          "type": "address"
        }
      ],
      "payable": false,
      "stateMutability": "nonpayable",
      "type": "constructor"
    },
    {
      "anonymous": false,
      "inputs": [
        {
          "indexed": false,
          "name": "account",
          "type": "address"
        },
        {
          "indexed": false,
          "name": "amount",
          "type": "uint256"
        }
      ],
      "name": "TokenActivation",
      "type": "event"
    },
    {
      "anonymous": false,
      "inputs": [
        {
          "indexed": true,
          "name": "from",
          "type": "address"
        },
        {
          "indexed": true,
          "name": "to",
          "type": "address"
        },
        {
          "indexed": false,
          "name": "value",
          "type": "uint256"
        }
      ],
      "name": "Transfer",
      "type": "event"
    },
    {
      "anonymous": false,
      "inputs": [
        {
          "indexed": true,
          "name": "owner",
          "type": "address"
        },
        {
          "indexed": true,
          "name": "spender",
          "type": "address"
        },
        {
          "indexed": false,
          "name": "value",
          "type": "uint256"
        }
      ],
      "name": "Approval",
      "type": "event"
    },
    {
      "anonymous": false,
      "inputs": [
        {
          "indexed": false,
          "name": "recipient",
          "type": "address"
        }
      ],
      "name": "ActivationTransferred",
      "type": "event"
    },
    {
      "anonymous": false,
      "inputs": [
        {
          "indexed": false,
          "name": "recipient",
          "type": "address"
        }
      ],
      "name": "CrowdsaleTransferred",
      "type": "event"
    },
    {
      "constant": true,
      "inputs": [],
      "name": "totalSupply",
      "outputs": [
        {
          "name": "",
          "type": "uint256"
        }
      ],
      "payable": false,
      "stateMutability": "view",
      "type": "function"
    },
    {
      "constant": true,
      "inputs": [
        {
          "name": "owner",
          "type": "address"
        },
        {
          "name": "spender",
          "type": "address"
        }
      ],
      "name": "allowance",
      "outputs": [
        {
          "name": "",
          "type": "uint256"
        }
      ],
      "payable": false,
      "stateMutability": "view",
      "type": "function"
    },
    {
      "constant": false,
      "inputs": [
        {
          "name": "to",
          "type": "address"
        },
        {
          "name": "value",
          "type": "uint256"
        }
      ],
      "name": "transfer",
      "outputs": [
        {
          "name": "",
          "type": "bool"
        }
      ],
      "payable": false,
      "stateMutability": "nonpayable",
      "type": "function"
    },
    {
      "constant": false,
      "inputs": [
        {
          "name": "spender",
          "type": "address"
        },
        {
          "name": "value",
          "type": "uint256"
        }
      ],
      "name": "approve",
      "outputs": [
        {
          "name": "",
          "type": "bool"
        }
      ],
      "payable": false,
      "stateMutability": "nonpayable",
      "type": "function"
    },
    {
      "constant": false,
      "inputs": [
        {
          "name": "from",
          "type": "address"
        },
        {
          "name": "to",
          "type": "address"
        },
        {
          "name": "value",
          "type": "uint256"
        }
      ],
      "name": "transferFrom",
      "outputs": [
        {
          "name": "",
          "type": "bool"
        }
      ],
      "payable": false,
      "stateMutability": "nonpayable",
      "type": "function"
    },
    {
      "constant": false,
      "inputs": [
        {
          "name": "spender",
          "type": "address"
        },
        {
          "name": "addedValue",
          "type": "uint256"
        }
      ],
      "name": "increaseAllowance",
      "outputs": [
        {
          "name": "",
          "type": "bool"
        }
      ],
      "payable": false,
      "stateMutability": "nonpayable",
      "type": "function"
    },
    {
      "constant": false,
      "inputs": [
        {
          "name": "spender",
          "type": "address"
        },
        {
          "name": "subtractedValue",
          "type": "uint256"
        }
      ],
      "name": "decreaseAllowance",
      "outputs": [
        {
          "name": "",
          "type": "bool"
        }
      ],
      "payable": false,
      "stateMutability": "nonpayable",
      "type": "function"
    },
    {
      "constant": false,
      "inputs": [],
      "name": "resetInactiveTokenCycle",
      "outputs": [],
      "payable": false,
      "stateMutability": "nonpayable",
      "type": "function"
    },
    {
      "constant": true,
      "inputs": [
        {
          "name": "_who",
          "type": "address"
        }
      ],
      "name": "balanceOf",
      "outputs": [
        {
          "name": "",
          "type": "uint256"
        }
      ],
      "payable": false,
      "stateMutability": "view",
      "type": "function"
    },
    {
      "constant": false,
      "inputs": [
        {
          "name": "account",
          "type": "address"
        },
        {
          "name": "value",
          "type": "uint256"
        }
      ],
      "name": "mint",
      "outputs": [],
      "payable": false,
      "stateMutability": "nonpayable",
      "type": "function"
    },
    {
      "constant": true,
      "inputs": [
        {
          "name": "account",
          "type": "address"
        }
      ],
      "name": "pendingActivations",
      "outputs": [
        {
          "name": "",
          "type": "uint256"
        }
      ],
      "payable": false,
      "stateMutability": "view",
      "type": "function"
    },
    {
      "constant": false,
      "inputs": [
        {
          "name": "account",
          "type": "address"
        }
      ],
      "name": "activatePending",
      "outputs": [
        {
          "name": "",
          "type": "bool"
        }
      ],
      "payable": false,
      "stateMutability": "nonpayable",
      "type": "function"
    },
    {
      "constant": false,
      "inputs": [
        {
          "name": "amount",
          "type": "uint256"
        }
      ],
      "name": "increasePendingActivations",
      "outputs": [],
      "payable": false,
      "stateMutability": "nonpayable",
      "type": "function"
    },
    {
      "constant": false,
      "inputs": [
        {
          "name": "account",
          "type": "address"
        }
      ],
      "name": "updateAccountCycle",
      "outputs": [],
      "payable": false,
      "stateMutability": "nonpayable",
      "type": "function"
    },
    {
      "constant": true,
      "inputs": [
        {
          "name": "account",
          "type": "address"
        }
      ],
      "name": "accountCycleUpdated",
      "outputs": [
        {
          "name": "",
          "type": "bool"
        }
      ],
      "payable": false,
      "stateMutability": "view",
      "type": "function"
    }
  ],
  "bytecode": "0x60806040526c7e37be2022c0914b2680000000600c5534801561002157600080fd5b506040516040806122d08339810180604052810190808051906020019092919080519060200190929190505050336000806101000a81548173ffffffffffffffffffffffffffffffffffffffff021916908373ffffffffffffffffffffffffffffffffffffffff1602179055507fc14b2e8c3b0fecd3b6226c637c343009dca5171a0a6874475330c5c204a29c6c6000809054906101000a900473ffffffffffffffffffffffffffffffffffffffff16604051808273ffffffffffffffffffffffffffffffffffffffff1673ffffffffffffffffffffffffffffffffffffffff16815260200191505060405180910390a133600160006101000a81548173ffffffffffffffffffffffffffffffffffffffff021916908373ffffffffffffffffffffffffffffffffffffffff1602179055507fcdb1fdb4703f653ea6f6ba7e018bf8508c4e61cac3bb0187c419e5dd863bec50600160009054906101000a900473ffffffffffffffffffffffffffffffffffffffff16604051808273ffffffffffffffffffffffffffffffffffffffff1673ffffffffffffffffffffffffffffffffffffffff16815260200191505060405180910390a181600260006101000a81548173ffffffffffffffffffffffffffffffffffffffff021916908373ffffffffffffffffffffffffffffffffffffffff16021790555080600360006101000a81548173ffffffffffffffffffffffffffffffffffffffff021916908373ffffffffffffffffffffffffffffffffffffffff16021790555050506120658061026b6000396000f300608060405260043610610133576000357c0100000000000000000000000000000000000000000000000000000000900463ffffffff168063095ea7b3146101385780630d8654e81461019d578063170ca9f3146101f857806318160ddd1461024f57806323b872dd1461027a5780633629c8de146102ff578063395093511461035657806340c10f19146103bb578063472377dd14610408578063519d1b4514610433578063613e9ca41461045e57806370a08231146104b957806375a91587146105105780638796d43d1461053d5780639c1e03a014610594578063a42671bc146105eb578063a457c2d71461062e578063a9059cbb14610693578063b0340123146106f8578063be0d24591461074f578063ca8164df14610792578063dd62ed3e146107a9578063e331691514610820575b600080fd5b34801561014457600080fd5b50610183600480360381019080803573ffffffffffffffffffffffffffffffffffffffff16906020019092919080359060200190929190505050610863565b604051808215151515815260200191505060405180910390f35b3480156101a957600080fd5b506101de600480360381019080803573ffffffffffffffffffffffffffffffffffffffff16906020019092919050505061087a565b604051808215151515815260200191505060405180910390f35b34801561020457600080fd5b50610239600480360381019080803573ffffffffffffffffffffffffffffffffffffffff1690602001909291905050506109a5565b6040518082815260200191505060405180910390f35b34801561025b57600080fd5b50610264610ab4565b6040518082815260200191505060405180910390f35b34801561028657600080fd5b506102e5600480360381019080803573ffffffffffffffffffffffffffffffffffffffff169060200190929190803573ffffffffffffffffffffffffffffffffffffffff16906020019092919080359060200190929190505050610abe565b604051808215151515815260200191505060405180910390f35b34801561030b57600080fd5b50610314610b6f565b604051808273ffffffffffffffffffffffffffffffffffffffff1673ffffffffffffffffffffffffffffffffffffffff16815260200191505060405180910390f35b34801561036257600080fd5b506103a1600480360381019080803573ffffffffffffffffffffffffffffffffffffffff16906020019092919080359060200190929190505050610b99565b604051808215151515815260200191505060405180910390f35b3480156103c757600080fd5b50610406600480360381019080803573ffffffffffffffffffffffffffffffffffffffff16906020019092919080359060200190929190505050610c3e565b005b34801561041457600080fd5b5061041d610cb9565b6040518082815260200191505060405180910390f35b34801561043f57600080fd5b50610448610cbf565b6040518082815260200191505060405180910390f35b34801561046a57600080fd5b5061049f600480360381019080803573ffffffffffffffffffffffffffffffffffffffff169060200190929190505050610cc5565b604051808215151515815260200191505060405180910390f35b3480156104c557600080fd5b506104fa600480360381019080803573ffffffffffffffffffffffffffffffffffffffff169060200190929190505050610d45565b6040518082815260200191505060405180910390f35b34801561051c57600080fd5b5061053b60048036038101908080359060200190929190505050610da6565b005b34801561054957600080fd5b50610552610f15565b604051808273ffffffffffffffffffffffffffffffffffffffff1673ffffffffffffffffffffffffffffffffffffffff16815260200191505060405180910390f35b3480156105a057600080fd5b506105a9610f3b565b604051808273ffffffffffffffffffffffffffffffffffffffff1673ffffffffffffffffffffffffffffffffffffffff16815260200191505060405180910390f35b3480156105f757600080fd5b5061062c600480360381019080803573ffffffffffffffffffffffffffffffffffffffff169060200190929190505050610f64565b005b34801561063a57600080fd5b50610679600480360381019080803573ffffffffffffffffffffffffffffffffffffffff169060200190929190803590602001909291905050506110f4565b604051808215151515815260200191505060405180910390f35b34801561069f57600080fd5b506106de600480360381019080803573ffffffffffffffffffffffffffffffffffffffff16906020019092919080359060200190929190505050611199565b604051808215151515815260200191505060405180910390f35b34801561070457600080fd5b5061070d6111b0565b604051808273ffffffffffffffffffffffffffffffffffffffff1673ffffffffffffffffffffffffffffffffffffffff16815260200191505060405180910390f35b34801561075b57600080fd5b50610790600480360381019080803573ffffffffffffffffffffffffffffffffffffffff1690602001909291905050506111d6565b005b34801561079e57600080fd5b506107a7611334565b005b3480156107b557600080fd5b5061080a600480360381019080803573ffffffffffffffffffffffffffffffffffffffff169060200190929190803573ffffffffffffffffffffffffffffffffffffffff1690602001909291905050506113f4565b6040518082815260200191505060405180910390f35b34801561082c57600080fd5b50610861600480360381019080803573ffffffffffffffffffffffffffffffffffffffff16906020019092919050505061147b565b005b60006108703384846115dc565b6001905092915050565b600080610885610f3b565b73ffffffffffffffffffffffffffffffffffffffff168373ffffffffffffffffffffffffffffffffffffffff1614151561099b576108c2836109a5565b90506108ce838261173f565b600a54600960008573ffffffffffffffffffffffffffffffffffffffff1673ffffffffffffffffffffffffffffffffffffffff1681526020019081526020016000208190555061092981600b5461182a90919063ffffffff16565b600b819055507fd06d335e644deb87c5c5796e34de76f40c88a2acdd911387b45214c3c1ac89248382604051808373ffffffffffffffffffffffffffffffffffffffff1673ffffffffffffffffffffffffffffffffffffffff1681526020018281526020019250505060405180910390a15b6001915050919050565b60008060006109b2610f3b565b73ffffffffffffffffffffffffffffffffffffffff168473ffffffffffffffffffffffffffffffffffffffff16141515156109ec57600080fd5b610a40600960008673ffffffffffffffffffffffffffffffffffffffff1673ffffffffffffffffffffffffffffffffffffffff16815260200190815260200160002054600a5461182a90919063ffffffff16565b9150600460008573ffffffffffffffffffffffffffffffffffffffff1673ffffffffffffffffffffffffffffffffffffffff168152602001908152602001600020549050610aab600c54610a9d848461184390919063ffffffff16565b61187b90919063ffffffff16565b92505050919050565b6000600654905090565b6000610acb848484611891565b610b648433610b5f85600560008a73ffffffffffffffffffffffffffffffffffffffff1673ffffffffffffffffffffffffffffffffffffffff16815260200190815260200160002060003373ffffffffffffffffffffffffffffffffffffffff1673ffffffffffffffffffffffffffffffffffffffff1681526020019081526020016000205461182a90919063ffffffff16565b6115dc565b600190509392505050565b6000600160009054906101000a900473ffffffffffffffffffffffffffffffffffffffff16905090565b6000610c343384610c2f85600560003373ffffffffffffffffffffffffffffffffffffffff1673ffffffffffffffffffffffffffffffffffffffff16815260200190815260200160002060008973ffffffffffffffffffffffffffffffffffffffff1673ffffffffffffffffffffffffffffffffffffffff16815260200190815260200160002054611b7190919063ffffffff16565b6115dc565b6001905092915050565b6000809054906101000a900473ffffffffffffffffffffffffffffffffffffffff1673ffffffffffffffffffffffffffffffffffffffff163373ffffffffffffffffffffffffffffffffffffffff16141515610c9957600080fd5b610ca282611b8d565b610cab82611bb8565b610cb58282611d54565b5050565b600a5481565b600b5481565b60006001151560086000600754815260200190815260200160002060010160008473ffffffffffffffffffffffffffffffffffffffff1673ffffffffffffffffffffffffffffffffffffffff16815260200190815260200160002060009054906101000a900460ff1615151480610d3e57506000600754145b9050919050565b6000610d5082610cc5565b15610d9c57600460008373ffffffffffffffffffffffffffffffffffffffff1673ffffffffffffffffffffffffffffffffffffffff168152602001908152602001600020549050610da1565b600090505b919050565b600080600160009054906101000a900473ffffffffffffffffffffffffffffffffffffffff1673ffffffffffffffffffffffffffffffffffffffff163373ffffffffffffffffffffffffffffffffffffffff16141515610e0557600080fd5b60006007541480610e58575060086000610e2b600160075461182a90919063ffffffff16565b81526020019081526020016000206002015460086000600754815260200190815260200160002060000154145b1515610e6357600080fd5b610ea0600b54610e92610e7c610e77610f3b565b610d45565b610e84610ab4565b61182a90919063ffffffff16565b61182a90919063ffffffff16565b9150818311151515610eb157600080fd5b610ed882610eca600c548661184390919063ffffffff16565b61187b90919063ffffffff16565b9050610eef81600a54611b7190919063ffffffff16565b600a81905550610f0a83600b54611b7190919063ffffffff16565b600b81905550505050565b600360009054906101000a900473ffffffffffffffffffffffffffffffffffffffff1681565b60008060009054906101000a900473ffffffffffffffffffffffffffffffffffffffff16905090565b610f6d81610cc5565b151515610f7957600080fd5b610f828161087a565b506000600460008373ffffffffffffffffffffffffffffffffffffffff1673ffffffffffffffffffffffffffffffffffffffff16815260200190815260200160002081905550600160086000600754815260200190815260200160002060010160008373ffffffffffffffffffffffffffffffffffffffff1673ffffffffffffffffffffffffffffffffffffffff16815260200190815260200160002060006101000a81548160ff021916908315150217905550600060086000611052600160075461182a90919063ffffffff16565b815260200190815260200160002060040160008373ffffffffffffffffffffffffffffffffffffffff1673ffffffffffffffffffffffffffffffffffffffff168152602001908152602001600020541415156110f1576110d4600160086000600754815260200190815260200160002060000154611b7190919063ffffffff16565b600860006007548152602001908152602001600020600001819055505b50565b600061118f338461118a85600560003373ffffffffffffffffffffffffffffffffffffffff1673ffffffffffffffffffffffffffffffffffffffff16815260200190815260200160002060008973ffffffffffffffffffffffffffffffffffffffff1673ffffffffffffffffffffffffffffffffffffffff1681526020019081526020016000205461182a90919063ffffffff16565b6115dc565b6001905092915050565b60006111a6338484611891565b6001905092915050565b600260009054906101000a900473ffffffffffffffffffffffffffffffffffffffff1681565b6000809054906101000a900473ffffffffffffffffffffffffffffffffffffffff1673ffffffffffffffffffffffffffffffffffffffff163373ffffffffffffffffffffffffffffffffffffffff1614151561123157600080fd5b600073ffffffffffffffffffffffffffffffffffffffff168173ffffffffffffffffffffffffffffffffffffffff161415151561126d57600080fd5b806000806101000a81548173ffffffffffffffffffffffffffffffffffffffff021916908373ffffffffffffffffffffffffffffffffffffffff1602179055507fc14b2e8c3b0fecd3b6226c637c343009dca5171a0a6874475330c5c204a29c6c6000809054906101000a900473ffffffffffffffffffffffffffffffffffffffff16604051808273ffffffffffffffffffffffffffffffffffffffff1673ffffffffffffffffffffffffffffffffffffffff16815260200191505060405180910390a150565b61133c61201f565b6000809054906101000a900473ffffffffffffffffffffffffffffffffffffffff1673ffffffffffffffffffffffffffffffffffffffff163373ffffffffffffffffffffffffffffffffffffffff1614151561139757600080fd5b60006006819055506113b56001600754611b7190919063ffffffff16565b6007819055508060086000600754815260200190815260200160002060008201518160000155602082015181600201559050506113f133610f64565b50565b6000600560008473ffffffffffffffffffffffffffffffffffffffff1673ffffffffffffffffffffffffffffffffffffffff16815260200190815260200160002060008373ffffffffffffffffffffffffffffffffffffffff1673ffffffffffffffffffffffffffffffffffffffff16815260200190815260200160002054905092915050565b600160009054906101000a900473ffffffffffffffffffffffffffffffffffffffff1673ffffffffffffffffffffffffffffffffffffffff163373ffffffffffffffffffffffffffffffffffffffff161415156114d757600080fd5b600073ffffffffffffffffffffffffffffffffffffffff168173ffffffffffffffffffffffffffffffffffffffff161415151561151357600080fd5b80600160006101000a81548173ffffffffffffffffffffffffffffffffffffffff021916908373ffffffffffffffffffffffffffffffffffffffff1602179055507fcdb1fdb4703f653ea6f6ba7e018bf8508c4e61cac3bb0187c419e5dd863bec50600160009054906101000a900473ffffffffffffffffffffffffffffffffffffffff16604051808273ffffffffffffffffffffffffffffffffffffffff1673ffffffffffffffffffffffffffffffffffffffff16815260200191505060405180910390a150565b600073ffffffffffffffffffffffffffffffffffffffff168273ffffffffffffffffffffffffffffffffffffffff161415151561161857600080fd5b600073ffffffffffffffffffffffffffffffffffffffff168373ffffffffffffffffffffffffffffffffffffffff161415151561165457600080fd5b80600560008573ffffffffffffffffffffffffffffffffffffffff1673ffffffffffffffffffffffffffffffffffffffff16815260200190815260200160002060008473ffffffffffffffffffffffffffffffffffffffff1673ffffffffffffffffffffffffffffffffffffffff168152602001908152602001600020819055508173ffffffffffffffffffffffffffffffffffffffff168373ffffffffffffffffffffffffffffffffffffffff167f8c5be1e5ebec7d5bd14f71427d1e84f3dd0314c0f7b2291e5b200ac8c7c3b925836040518082815260200191505060405180910390a3505050565b600360009054906101000a900473ffffffffffffffffffffffffffffffffffffffff1673ffffffffffffffffffffffffffffffffffffffff166340c10f1983836040518363ffffffff167c0100000000000000000000000000000000000000000000000000000000028152600401808373ffffffffffffffffffffffffffffffffffffffff1673ffffffffffffffffffffffffffffffffffffffff16815260200182815260200192505050600060405180830381600087803b15801561180457600080fd5b505af1158015611818573d6000803e3d6000fd5b505050506118268282611eaa565b5050565b600082821115151561183857fe5b818303905092915050565b6000808314156118565760009050611875565b818302905081838281151561186757fe5b0414151561187157fe5b8090505b92915050565b6000818381151561188857fe5b04905092915050565b600073ffffffffffffffffffffffffffffffffffffffff168273ffffffffffffffffffffffffffffffffffffffff16141515156118cd57600080fd5b80600260009054906101000a900473ffffffffffffffffffffffffffffffffffffffff1673ffffffffffffffffffffffffffffffffffffffff1663741b53cd856040518263ffffffff167c0100000000000000000000000000000000000000000000000000000000028152600401808273ffffffffffffffffffffffffffffffffffffffff1673ffffffffffffffffffffffffffffffffffffffff168152602001915050602060405180830381600087803b15801561198b57600080fd5b505af115801561199f573d6000803e3d6000fd5b505050506040513d60208110156119b557600080fd5b8101908080519060200190929190505050101515156119d357600080fd5b6119dd8383612000565b611a2f81600460008673ffffffffffffffffffffffffffffffffffffffff1673ffffffffffffffffffffffffffffffffffffffff1681526020019081526020016000205461182a90919063ffffffff16565b600460008573ffffffffffffffffffffffffffffffffffffffff1673ffffffffffffffffffffffffffffffffffffffff16815260200190815260200160002081905550611ac481600460008573ffffffffffffffffffffffffffffffffffffffff1673ffffffffffffffffffffffffffffffffffffffff16815260200190815260200160002054611b7190919063ffffffff16565b600460008473ffffffffffffffffffffffffffffffffffffffff1673ffffffffffffffffffffffffffffffffffffffff168152602001908152602001600020819055508173ffffffffffffffffffffffffffffffffffffffff168373ffffffffffffffffffffffffffffffffffffffff167fddf252ad1be2c89b69c2b068fc378daa952ba7f163c4a11628f55a4df523b3ef836040518082815260200191505060405180910390a3505050565b60008183019050828110151515611b8457fe5b80905092915050565b611b9681610cc5565b1515611baa57611ba581610f64565b611bb5565b611bb38161087a565b505b50565b600060086000600754815260200190815260200160002060040160008373ffffffffffffffffffffffffffffffffffffffff1673ffffffffffffffffffffffffffffffffffffffff168152602001908152602001600020541415611d5157611c42600160086000600754815260200190815260200160002060020154611b7190919063ffffffff16565b600860006007548152602001908152602001600020600201819055506008600060075481526020019081526020016000206002015460086000600754815260200190815260200160002060040160008373ffffffffffffffffffffffffffffffffffffffff1673ffffffffffffffffffffffffffffffffffffffff1681526020019081526020016000208190555080600860006007548152602001908152602001600020600301600060086000600754815260200190815260200160002060020154815260200190815260200160002060006101000a81548173ffffffffffffffffffffffffffffffffffffffff021916908373ffffffffffffffffffffffffffffffffffffffff1602179055505b50565b600073ffffffffffffffffffffffffffffffffffffffff168273ffffffffffffffffffffffffffffffffffffffff1614151515611d9057600080fd5b611da581600654611b7190919063ffffffff16565b600681905550611dfd81600460008573ffffffffffffffffffffffffffffffffffffffff1673ffffffffffffffffffffffffffffffffffffffff16815260200190815260200160002054611b7190919063ffffffff16565b600460008473ffffffffffffffffffffffffffffffffffffffff1673ffffffffffffffffffffffffffffffffffffffff168152602001908152602001600020819055508173ffffffffffffffffffffffffffffffffffffffff16600073ffffffffffffffffffffffffffffffffffffffff167fddf252ad1be2c89b69c2b068fc378daa952ba7f163c4a11628f55a4df523b3ef836040518082815260200191505060405180910390a35050565b600073ffffffffffffffffffffffffffffffffffffffff168273ffffffffffffffffffffffffffffffffffffffff1614151515611ee657600080fd5b611efb8160065461182a90919063ffffffff16565b600681905550611f5381600460008573ffffffffffffffffffffffffffffffffffffffff1673ffffffffffffffffffffffffffffffffffffffff1681526020019081526020016000205461182a90919063ffffffff16565b600460008473ffffffffffffffffffffffffffffffffffffffff1673ffffffffffffffffffffffffffffffffffffffff16815260200190815260200160002081905550600073ffffffffffffffffffffffffffffffffffffffff168273ffffffffffffffffffffffffffffffffffffffff167fddf252ad1be2c89b69c2b068fc378daa952ba7f163c4a11628f55a4df523b3ef836040518082815260200191505060405180910390a35050565b61200982611b8d565b61201281611b8d565b61201b81611bb8565b5050565b6040805190810160405280600081526020016000815250905600a165627a7a72305820e4e41951040c1739e0f15b9a10a767ce32562d5403256f2decec1124d7db69200029",
  "source": "pragma solidity >=0.4.22 <0.6.0;\n\nimport '../utility/CrowdsaleLocked.sol';\nimport '../utility/ActivationLocked.sol';\nimport '../utility/SafeMath.sol';\nimport './VotingToken.sol';\nimport './ActiveToken.sol';\n\n//we need to activate pending on transfer\ncontract InactiveToken is CrowdsaleLocked, ActivationLocked {\n  using SafeMath for uint256;\n  VotingToken public votingToken;\n  ActiveToken public activeToken;\n\n  constructor (VotingToken _votingToken, ActiveToken _activeToken) public\n  {\n    votingToken = VotingToken(_votingToken);\n    activeToken = ActiveToken(_activeToken);\n  }\n\n  event TokenActivation(address account, uint256 amount);\n\n  event Transfer(address indexed from, address indexed to, uint256 value);\n\n  event Approval(address indexed owner, address indexed spender, uint256 value);\n\n  mapping (address => uint256) internal _balances;\n\n  mapping (address => mapping (address => uint256)) internal _allowed;\n\n  uint256 internal _totalSupply;\n\n\n  function totalSupply() public view returns (uint256) {\n      return _totalSupply;\n  }\n\n  function allowance(address owner, address spender) public view returns (uint256) {\n      return _allowed[owner][spender];\n  }\n\n  function transfer(address to, uint256 value) public returns (bool) {\n      _transfer(msg.sender, to, value);\n      return true;\n  }\n\n  function approve(address spender, uint256 value) public returns (bool) {\n      _approve(msg.sender, spender, value);\n      return true;\n  }\n\n  function transferFrom(address from, address to, uint256 value) public returns (bool) {\n      _transfer(from, to, value);\n      _approve(from, msg.sender, _allowed[from][msg.sender].sub(value));\n      return true;\n  }\n\n  function increaseAllowance(address spender, uint256 addedValue) public returns (bool) {\n      _approve(msg.sender, spender, _allowed[msg.sender][spender].add(addedValue));\n      return true;\n  }\n\n  function decreaseAllowance(address spender, uint256 subtractedValue) public returns (bool) {\n      _approve(msg.sender, spender, _allowed[msg.sender][spender].sub(subtractedValue));\n      return true;\n  }\n\n  function _transfer(address from, address to, uint256 value) internal {\n      require(to != address(0));\n      require(votingToken.freedUpBalanceOf(from) >= value);\n      prepareTransfer(from, to);\n      _balances[from] = _balances[from].sub(value);\n      _balances[to] = _balances[to].add(value);\n      emit Transfer(from, to, value);\n  }\n\n  function _mint(address account, uint256 value) internal {\n      require(account != address(0));\n\n      _totalSupply = _totalSupply.add(value);\n      _balances[account] = _balances[account].add(value);\n      emit Transfer(address(0), account, value);\n  }\n\n  function _burn(address account, uint256 value) internal {\n      require(account != address(0));\n\n      _totalSupply = _totalSupply.sub(value);\n      _balances[account] = _balances[account].sub(value);\n      emit Transfer(account, address(0), value);\n  }\n\n  function _approve(address owner, address spender, uint256 value) internal {\n      require(spender != address(0));\n      require(owner != address(0));\n\n      _allowed[owner][spender] = value;\n      emit Approval(owner, spender, value);\n  }\n\n  struct InactiveTokenCycle {\n    uint256 totalUpdated;\n    mapping(address => bool) updated;\n    uint256 totalAccounts;\n    mapping(uint256 => address) accountById;\n    mapping (address => uint256) idByAccount;\n  }\n\n  uint256 internal currentInactiveTokenCycle;\n  mapping(uint256 => InactiveTokenCycle) internal inactiveTokenCycle;\n\n  function resetInactiveTokenCycle () public onlyCrowdsale {\n    _totalSupply = 0;\n    currentInactiveTokenCycle = currentInactiveTokenCycle.add(1);\n\n    InactiveTokenCycle memory newInactiveTokenCycle;\n    inactiveTokenCycle[currentInactiveTokenCycle] = newInactiveTokenCycle;\n\n\n    updateAccountCycle(msg.sender);\n  }\n\n  function balanceOf(address _who) public view returns (uint256) {\n    if (accountCycleUpdated(_who)) {\n      return _balances[_who];\n    }\n    return 0;\n  }\n\n  function prepareTransfer (address from, address to) internal {\n    prepareBalanceChange(from);\n    prepareBalanceChange(to);\n    recordAccount(to);\n  }\n\n  function mint(address account, uint256 value) external onlyCrowdsale {\n    prepareBalanceChange(account);\n    recordAccount(account);\n    _mint(account, value);\n  }\n\n  mapping(address => uint256) internal lastActivationPoints;\n  uint256 public totalActivationPoints;\n  uint256 public totalPendingActivations;\n  uint256 internal activationMultiplier = 10e30;\n\n\n  function activate(address account, uint256 amount) internal {\n    activeToken.mint(account, amount);\n    _burn(account, amount);\n  }\n\n  function pendingActivations(address account) public view returns (uint256) {\n    require(account != crowdsale());\n    uint256 pendingActivationPoints = totalActivationPoints.sub(lastActivationPoints[account]);\n    uint256 inactiveAccountTokens = _balances[account];\n    return inactiveAccountTokens.mul(pendingActivationPoints).div(activationMultiplier);\n  }\n\n  function activatePending (address account) public returns (bool) {\n    if (account != crowdsale()) {\n      uint256 tokens = pendingActivations(account);\n      activate(account, tokens);\n      lastActivationPoints[account] = totalActivationPoints;\n      totalPendingActivations = totalPendingActivations.sub(tokens);\n      emit TokenActivation(account, tokens);\n    }\n    return true;\n  }\n\n  function increasePendingActivations(uint256 amount) external onlyActivation {//should only be callable by activation\n    require(\n      currentInactiveTokenCycle == 0 ||\n      (\n        inactiveTokenCycle[currentInactiveTokenCycle].totalUpdated ==\n        inactiveTokenCycle[currentInactiveTokenCycle.sub(1)].totalAccounts\n      )\n    );\n\n    uint256 inactiveSupply = totalSupply().sub(balanceOf(crowdsale())).sub(totalPendingActivations);\n    require(amount <= inactiveSupply);\n\n    uint256 newActivationPoints = amount.mul(activationMultiplier).div(inactiveSupply);\n    totalActivationPoints = totalActivationPoints.add(newActivationPoints);\n    totalPendingActivations = totalPendingActivations.add(amount);\n  }\n\n  function recordAccount (address account) internal {\n    if (inactiveTokenCycle[currentInactiveTokenCycle].idByAccount[account] == 0) {\n      inactiveTokenCycle[currentInactiveTokenCycle].totalAccounts = inactiveTokenCycle[currentInactiveTokenCycle].totalAccounts.add(1);\n      inactiveTokenCycle[currentInactiveTokenCycle].idByAccount[account] = inactiveTokenCycle[currentInactiveTokenCycle].totalAccounts;\n      inactiveTokenCycle[currentInactiveTokenCycle].accountById[inactiveTokenCycle[currentInactiveTokenCycle].totalAccounts] = account;\n    }\n  }\n\n  function updateAccountCycle (address account) public {\n    require(!accountCycleUpdated(account));//maybe this should just be a conditional statement instead?\n\n    activatePending(account);\n    _balances[account] = 0;\n    inactiveTokenCycle[currentInactiveTokenCycle].updated[account] = true;\n\n    if (inactiveTokenCycle[currentInactiveTokenCycle.sub(1)].idByAccount[account] != 0) {\n      inactiveTokenCycle[currentInactiveTokenCycle].totalUpdated = inactiveTokenCycle[currentInactiveTokenCycle].totalUpdated.add(1);\n    }\n  }\n\n  function accountCycleUpdated (address account) public view returns (bool) {\n    return inactiveTokenCycle[currentInactiveTokenCycle].updated[account] == true || currentInactiveTokenCycle == 0;\n  }\n\n  function prepareBalanceChange (address account) internal {\n    if (!accountCycleUpdated(account)) {\n      updateAccountCycle(account);\n    } else {\n      activatePending(account);\n    }\n  }\n}\n",
  "sourcePath": "F:\\Projects\\genie\\genie-portal\\truffle\\contracts\\token\\InactiveToken.sol",
  "compiler": {
    "name": "solc",
    "version": "0.4.24+commit.e67f0147.Emscripten.clang"
  },
  "schemaVersion": "2.0.1",
  "updatedAt": "2022-02-25T02:56:02.837Z"
}