{
  "contractName": "ProjectLeaderTracker",
  "abi": [
    {
      "constant": true,
      "inputs": [],
      "name": "tentativeLeaderAddr",
      "outputs": [
        {
          "name": "",
          "type": "address"
        }
      ],
      "payable": false,
      "stateMutability": "view",
      "type": "function"
    },
    {
      "constant": true,
      "inputs": [],
      "name": "activation",
      "outputs": [
        {
          "name": "",
          "type": "address"
        }
      ],
      "payable": false,
      "stateMutability": "view",
      "type": "function"
    },
    {
      "constant": false,
      "inputs": [
        {
          "name": "recipient",
          "type": "address"
        }
      ],
      "name": "transferProjectFactoryKey",
      "outputs": [],
      "payable": false,
      "stateMutability": "nonpayable",
      "type": "function"
    },
    {
      "constant": true,
      "inputs": [],
      "name": "startTime",
      "outputs": [
        {
          "name": "",
          "type": "uint256"
        }
      ],
      "payable": false,
      "stateMutability": "view",
      "type": "function"
    },
    {
      "constant": true,
      "inputs": [],
      "name": "projectFactory",
      "outputs": [
        {
          "name": "",
          "type": "address"
        }
      ],
      "payable": false,
      "stateMutability": "view",
      "type": "function"
    },
    {
      "constant": true,
      "inputs": [],
      "name": "crowdsale",
      "outputs": [
        {
          "name": "",
          "type": "address"
        }
      ],
      "payable": false,
      "stateMutability": "view",
      "type": "function"
    },
    {
      "constant": true,
      "inputs": [],
      "name": "leadingVoteCount",
      "outputs": [
        {
          "name": "",
          "type": "uint256"
        }
      ],
      "payable": false,
      "stateMutability": "view",
      "type": "function"
    },
    {
      "constant": true,
      "inputs": [],
      "name": "candidateCount",
      "outputs": [
        {
          "name": "",
          "type": "uint256"
        }
      ],
      "payable": false,
      "stateMutability": "view",
      "type": "function"
    },
    {
      "constant": false,
      "inputs": [
        {
          "name": "recipient",
          "type": "address"
        }
      ],
      "name": "transferCrowdsaleKey",
      "outputs": [],
      "payable": false,
      "stateMutability": "nonpayable",
      "type": "function"
    },
    {
      "constant": false,
      "inputs": [
        {
          "name": "recipient",
          "type": "address"
        }
      ],
      "name": "transferActivationKey",
      "outputs": [],
      "payable": false,
      "stateMutability": "nonpayable",
      "type": "function"
    },
    {
      "anonymous": false,
      "inputs": [
        {
          "indexed": false,
          "name": "recipient",
          "type": "address"
        }
      ],
      "name": "ProjectFactoryTransferred",
      "type": "event"
    },
    {
      "anonymous": false,
      "inputs": [
        {
          "indexed": false,
          "name": "recipient",
          "type": "address"
        }
      ],
      "name": "ActivationTransferred",
      "type": "event"
    },
    {
      "anonymous": false,
      "inputs": [
        {
          "indexed": false,
          "name": "recipient",
          "type": "address"
        }
      ],
      "name": "CrowdsaleTransferred",
      "type": "event"
    },
    {
      "constant": true,
      "inputs": [],
      "name": "tentativeLeader",
      "outputs": [
        {
          "name": "",
          "type": "address"
        },
        {
          "name": "",
          "type": "bool"
        }
      ],
      "payable": false,
      "stateMutability": "view",
      "type": "function"
    },
    {
      "constant": false,
      "inputs": [],
      "name": "reset",
      "outputs": [],
      "payable": false,
      "stateMutability": "nonpayable",
      "type": "function"
    },
    {
      "constant": false,
      "inputs": [],
      "name": "handleProjectActivation",
      "outputs": [],
      "payable": false,
      "stateMutability": "nonpayable",
      "type": "function"
    },
    {
      "constant": false,
      "inputs": [],
      "name": "handleProjectPitch",
      "outputs": [],
      "payable": false,
      "stateMutability": "nonpayable",
      "type": "function"
    },
    {
      "constant": false,
      "inputs": [
        {
          "name": "projectAddr",
          "type": "address"
        }
      ],
      "name": "trackProject",
      "outputs": [],
      "payable": false,
      "stateMutability": "nonpayable",
      "type": "function"
    },
    {
      "constant": true,
      "inputs": [],
      "name": "totalChecked",
      "outputs": [
        {
          "name": "",
          "type": "uint256"
        }
      ],
      "payable": false,
      "stateMutability": "view",
      "type": "function"
    }
  ],
  "bytecode": "0x6080604052336000806101000a81548173ffffffffffffffffffffffffffffffffffffffff021916908373ffffffffffffffffffffffffffffffffffffffff1602179055507fc14b2e8c3b0fecd3b6226c637c343009dca5171a0a6874475330c5c204a29c6c6000809054906101000a900473ffffffffffffffffffffffffffffffffffffffff16604051808273ffffffffffffffffffffffffffffffffffffffff1673ffffffffffffffffffffffffffffffffffffffff16815260200191505060405180910390a133600160006101000a81548173ffffffffffffffffffffffffffffffffffffffff021916908373ffffffffffffffffffffffffffffffffffffffff1602179055507fcdb1fdb4703f653ea6f6ba7e018bf8508c4e61cac3bb0187c419e5dd863bec50600160009054906101000a900473ffffffffffffffffffffffffffffffffffffffff16604051808273ffffffffffffffffffffffffffffffffffffffff1673ffffffffffffffffffffffffffffffffffffffff16815260200191505060405180910390a133600260006101000a81548173ffffffffffffffffffffffffffffffffffffffff021916908373ffffffffffffffffffffffffffffffffffffffff1602179055507f9ac4999de6ca856e4619ce9f48d109e992281866886cd2ca7ca92c8f45f3e5c4600260009054906101000a900473ffffffffffffffffffffffffffffffffffffffff16604051808273ffffffffffffffffffffffffffffffffffffffff1673ffffffffffffffffffffffffffffffffffffffff16815260200191505060405180910390a16113e8806102636000396000f3006080604052600436106100e6576000357c0100000000000000000000000000000000000000000000000000000000900463ffffffff16806303a46aa9146100eb5780633629c8de14610142578063522831301461019957806378e97925146101dc5780637fb3f9771461020757806397f51974146102325780639c1e03a014610289578063a14d50f7146102e0578063a9a981a31461030b578063af29f2f414610336578063b1a1f24714610398578063b1ccf10a146103af578063be0d2459146103f2578063d826f88f14610435578063e33169151461044c578063e53b61c91461048f575b600080fd5b3480156100f757600080fd5b506101006104a6565b604051808273ffffffffffffffffffffffffffffffffffffffff1673ffffffffffffffffffffffffffffffffffffffff16815260200191505060405180910390f35b34801561014e57600080fd5b506101576104cc565b604051808273ffffffffffffffffffffffffffffffffffffffff1673ffffffffffffffffffffffffffffffffffffffff16815260200191505060405180910390f35b3480156101a557600080fd5b506101da600480360381019080803573ffffffffffffffffffffffffffffffffffffffff1690602001909291905050506104f6565b005b3480156101e857600080fd5b506101f1610657565b6040518082815260200191505060405180910390f35b34801561021357600080fd5b5061021c61065d565b6040518082815260200191505060405180910390f35b34801561023e57600080fd5b5061024761067d565b604051808273ffffffffffffffffffffffffffffffffffffffff1673ffffffffffffffffffffffffffffffffffffffff16815260200191505060405180910390f35b34801561029557600080fd5b5061029e6106a7565b604051808273ffffffffffffffffffffffffffffffffffffffff1673ffffffffffffffffffffffffffffffffffffffff16815260200191505060405180910390f35b3480156102ec57600080fd5b506102f56106d0565b6040518082815260200191505060405180910390f35b34801561031757600080fd5b506103206106d6565b6040518082815260200191505060405180910390f35b34801561034257600080fd5b5061034b6106dc565b604051808373ffffffffffffffffffffffffffffffffffffffff1673ffffffffffffffffffffffffffffffffffffffff168152602001821515151581526020019250505060405180910390f35b3480156103a457600080fd5b506103ad610712565b005b3480156103bb57600080fd5b506103f0600480360381019080803573ffffffffffffffffffffffffffffffffffffffff16906020019092919050505061078c565b005b3480156103fe57600080fd5b50610433600480360381019080803573ffffffffffffffffffffffffffffffffffffffff1690602001909291905050506109d8565b005b34801561044157600080fd5b5061044a610b36565b005b34801561045857600080fd5b5061048d600480360381019080803573ffffffffffffffffffffffffffffffffffffffff169060200190929190505050610bb4565b005b34801561049b57600080fd5b506104a4610d15565b005b600460009054906101000a900473ffffffffffffffffffffffffffffffffffffffff1681565b6000600160009054906101000a900473ffffffffffffffffffffffffffffffffffffffff16905090565b600260009054906101000a900473ffffffffffffffffffffffffffffffffffffffff1673ffffffffffffffffffffffffffffffffffffffff163373ffffffffffffffffffffffffffffffffffffffff1614151561055257600080fd5b600073ffffffffffffffffffffffffffffffffffffffff168173ffffffffffffffffffffffffffffffffffffffff161415151561058e57600080fd5b80600260006101000a81548173ffffffffffffffffffffffffffffffffffffffff021916908373ffffffffffffffffffffffffffffffffffffffff1602179055507f9ac4999de6ca856e4619ce9f48d109e992281866886cd2ca7ca92c8f45f3e5c4600260009054906101000a900473ffffffffffffffffffffffffffffffffffffffff16604051808273ffffffffffffffffffffffffffffffffffffffff1673ffffffffffffffffffffffffffffffffffffffff16815260200191505060405180910390a150565b60065481565b600060086000600754815260200190815260200160002060010154905090565b6000600260009054906101000a900473ffffffffffffffffffffffffffffffffffffffff16905090565b60008060009054906101000a900473ffffffffffffffffffffffffffffffffffffffff16905090565b60055481565b60035481565b600080600460009054906101000a900473ffffffffffffffffffffffffffffffffffffffff1661070a610d8d565b915091509091565b600260009054906101000a900473ffffffffffffffffffffffffffffffffffffffff1673ffffffffffffffffffffffffffffffffffffffff163373ffffffffffffffffffffffffffffffffffffffff1614151561076e57600080fd5b6107846001600354610da090919063ffffffff16565b600381905550565b600073ffffffffffffffffffffffffffffffffffffffff168173ffffffffffffffffffffffffffffffffffffffff161415801561086557508073ffffffffffffffffffffffffffffffffffffffff166302fb0c5e6040518163ffffffff167c0100000000000000000000000000000000000000000000000000000000028152600401602060405180830381600087803b15801561082857600080fd5b505af115801561083c573d6000803e3d6000fd5b505050506040513d602081101561085257600080fd5b8101908080519060200190929190505050155b151561087057600080fd5b8073ffffffffffffffffffffffffffffffffffffffff16634b6753bc6040518163ffffffff167c0100000000000000000000000000000000000000000000000000000000028152600401602060405180830381600087803b1580156108d457600080fd5b505af11580156108e8573d6000803e3d6000fd5b505050506040513d60208110156108fe57600080fd5b810190808051906020019092919050505060065410151561091e57600080fd5b8073ffffffffffffffffffffffffffffffffffffffff1663fcfff16f6040518163ffffffff167c0100000000000000000000000000000000000000000000000000000000028152600401602060405180830381600087803b15801561098257600080fd5b505af1158015610996573d6000803e3d6000fd5b505050506040513d60208110156109ac57600080fd5b8101908080519060200190929190505050156109cc576109cb81610dbc565b5b6109d581610e50565b50565b6000809054906101000a900473ffffffffffffffffffffffffffffffffffffffff1673ffffffffffffffffffffffffffffffffffffffff163373ffffffffffffffffffffffffffffffffffffffff16141515610a3357600080fd5b600073ffffffffffffffffffffffffffffffffffffffff168173ffffffffffffffffffffffffffffffffffffffff1614151515610a6f57600080fd5b806000806101000a81548173ffffffffffffffffffffffffffffffffffffffff021916908373ffffffffffffffffffffffffffffffffffffffff1602179055507fc14b2e8c3b0fecd3b6226c637c343009dca5171a0a6874475330c5c204a29c6c6000809054906101000a900473ffffffffffffffffffffffffffffffffffffffff16604051808273ffffffffffffffffffffffffffffffffffffffff1673ffffffffffffffffffffffffffffffffffffffff16815260200191505060405180910390a150565b6000809054906101000a900473ffffffffffffffffffffffffffffffffffffffff1673ffffffffffffffffffffffffffffffffffffffff163373ffffffffffffffffffffffffffffffffffffffff16141515610b9157600080fd5b610b99610f19565b610ba36000610f63565b600060038190555042600681905550565b600160009054906101000a900473ffffffffffffffffffffffffffffffffffffffff1673ffffffffffffffffffffffffffffffffffffffff163373ffffffffffffffffffffffffffffffffffffffff16141515610c1057600080fd5b600073ffffffffffffffffffffffffffffffffffffffff168173ffffffffffffffffffffffffffffffffffffffff1614151515610c4c57600080fd5b80600160006101000a81548173ffffffffffffffffffffffffffffffffffffffff021916908373ffffffffffffffffffffffffffffffffffffffff1602179055507fcdb1fdb4703f653ea6f6ba7e018bf8508c4e61cac3bb0187c419e5dd863bec50600160009054906101000a900473ffffffffffffffffffffffffffffffffffffffff16604051808273ffffffffffffffffffffffffffffffffffffffff1673ffffffffffffffffffffffffffffffffffffffff16815260200191505060405180910390a150565b600160009054906101000a900473ffffffffffffffffffffffffffffffffffffffff1673ffffffffffffffffffffffffffffffffffffffff163373ffffffffffffffffffffffffffffffffffffffff16141515610d7157600080fd5b610d79610f19565b610d836000610f63565b610d8b610faf565b565b6000600354610d9a61065d565b14905090565b60008183019050828110151515610db357fe5b80905092915050565b600080600080610dca610fcd565b93508315610e1457610ddb85611026565b9250610de5611080565b9150610df085611149565b90508180610e055750828015610e04575080155b5b15610e1357610e12610f19565b5b5b831580610e1e5750815b80610e265750805b15610e3957610e3485610f63565b610e49565b8215610e4857610e476111f5565b5b5b5050505050565b610e5981611323565b1515610f1657610e8b600160086000600754815260200190815260200160002060010154610da090919063ffffffff16565b60086000600754815260200190815260200160002060010181905550600160086000600754815260200190815260200160002060000160008373ffffffffffffffffffffffffffffffffffffffff1673ffffffffffffffffffffffffffffffffffffffff16815260200190815260200160002060006101000a81548160ff0219169083151502179055505b50565b610f216113a8565b610f376001600754610da090919063ffffffff16565b600781905550806008600060075481526020019081526020016000206000820151816001015590505050565b80600460006101000a81548173ffffffffffffffffffffffffffffffffffffffff021916908373ffffffffffffffffffffffffffffffffffffffff160217905550610fac6111f5565b50565b610fc5600160035461138f90919063ffffffff16565b600381905550565b60008073ffffffffffffffffffffffffffffffffffffffff16600460009054906101000a900473ffffffffffffffffffffffffffffffffffffffff1673ffffffffffffffffffffffffffffffffffffffff161415905090565b6000600460009054906101000a900473ffffffffffffffffffffffffffffffffffffffff1673ffffffffffffffffffffffffffffffffffffffff168273ffffffffffffffffffffffffffffffffffffffff16149050919050565b6000600460009054906101000a900473ffffffffffffffffffffffffffffffffffffffff1673ffffffffffffffffffffffffffffffffffffffff1663fcfff16f6040518163ffffffff167c0100000000000000000000000000000000000000000000000000000000028152600401602060405180830381600087803b15801561110857600080fd5b505af115801561111c573d6000803e3d6000fd5b505050506040513d602081101561113257600080fd5b810190808051906020019092919050505015905090565b60006005548273ffffffffffffffffffffffffffffffffffffffff16630d15fd776040518163ffffffff167c0100000000000000000000000000000000000000000000000000000000028152600401602060405180830381600087803b1580156111b257600080fd5b505af11580156111c6573d6000803e3d6000fd5b505050506040513d60208110156111dc57600080fd5b8101908080519060200190929190505050119050919050565b600073ffffffffffffffffffffffffffffffffffffffff16600460009054906101000a900473ffffffffffffffffffffffffffffffffffffffff1673ffffffffffffffffffffffffffffffffffffffff161415611259576000600581905550611321565b600460009054906101000a900473ffffffffffffffffffffffffffffffffffffffff1673ffffffffffffffffffffffffffffffffffffffff16630d15fd776040518163ffffffff167c0100000000000000000000000000000000000000000000000000000000028152600401602060405180830381600087803b1580156112df57600080fd5b505af11580156112f3573d6000803e3d6000fd5b505050506040513d602081101561130957600080fd5b81019080805190602001909291905050506005819055505b565b600060086000600754815260200190815260200160002060000160008373ffffffffffffffffffffffffffffffffffffffff1673ffffffffffffffffffffffffffffffffffffffff16815260200190815260200160002060009054906101000a900460ff169050919050565b600082821115151561139d57fe5b818303905092915050565b6020604051908101604052806000815250905600a165627a7a72305820030f27f3579f8cd533ef19dd33799d12b163906a3437281663fa85f771cd86730029",
  "source": "pragma solidity >=0.4.22 <0.6.0;\r\nimport '../project/Project.sol';\r\nimport '../utility/CrowdsaleLocked.sol';\r\nimport '../utility/ActivationLocked.sol';\r\nimport '../utility/ProjectFactoryLocked.sol';\r\nimport '../utility/SafeMath.sol';\r\nimport '../Amendment.sol';\r\n\r\n\r\ncontract ProjectLeaderTracker is CrowdsaleLocked, ActivationLocked, ProjectFactoryLocked {\r\n  using SafeMath for uint256;\r\n  uint256 public candidateCount;\r\n  address  public tentativeLeaderAddr;\r\n  uint256 public leadingVoteCount;\r\n  uint256 public startTime;\r\n\r\n  struct ProjectsChecked {\r\n    mapping(address => bool) isChecked;\r\n    uint256 totalChecked;\r\n  }\r\n\r\n  uint256 internal currentCheckCycle;\r\n  mapping(uint256 => ProjectsChecked) internal checkCycle;\r\n\r\n  function tentativeLeader () external view returns (address , bool) {\r\n    return (tentativeLeaderAddr, tentativeLeaderConfirmed());\r\n  }\r\n\r\n  function reset () onlyCrowdsale external {\r\n    resetProjectsChecked();\r\n    setTentativeLeader(address(0));\r\n    candidateCount = 0;\r\n    startTime = now;\r\n  }\r\n\r\n  function handleProjectActivation () onlyActivation external {\r\n    resetProjectsChecked();\r\n    setTentativeLeader(address(0));\r\n    decrementCandidateCount();\r\n  }\r\n\r\n  function handleProjectPitch () onlyProjectFactory external {\r\n    candidateCount = candidateCount.add(1);\r\n  }\r\n\r\n  function trackProject (address projectAddr) external {\r\n    require(projectAddr != address(0) && !Project(projectAddr).active());\r\n    require(startTime < Project(projectAddr).closingTime()); //ensures that this project is part of the current cycle\r\n\r\n    if(Project(projectAddr).open()) {\r\n      updateTentativeLeader(projectAddr);\r\n    }\r\n\r\n    recordCheck(projectAddr);\r\n  }\r\n\r\n  function recordCheck (address  projectAddr) internal {\r\n    if (!alreadyChecked(projectAddr)) {\r\n     checkCycle[currentCheckCycle].totalChecked = checkCycle[currentCheckCycle].totalChecked.add(1);\r\n     checkCycle[currentCheckCycle].isChecked[projectAddr] = true;\r\n    }\r\n  }\r\n\r\n  function updateTentativeLeader (address projectAddr) internal {\r\n    bool _leaderExists = leaderExists();\r\n    bool _isLeader;\r\n    bool _currentLeaderClosed;\r\n    bool _beatsLeader;\r\n\r\n    if (_leaderExists) {\r\n      _isLeader = isLeader(projectAddr);\r\n      _currentLeaderClosed = currentLeaderClosed();\r\n      _beatsLeader = beatsLeader(projectAddr);\r\n\r\n      if (_currentLeaderClosed || (_isLeader && !_beatsLeader)) {  //if the real leader can be a project that we have already checked\r\n        resetProjectsChecked();\r\n      }\r\n    }\r\n\r\n    if (!_leaderExists || _currentLeaderClosed || _beatsLeader) { //if the tentative leader cannot possibly be in the lead\r\n      setTentativeLeader(projectAddr);\r\n    } else if (_isLeader) {\r\n      setLeadingVoteCount();\r\n    }\r\n  }\r\n\r\n  function leaderExists () internal view returns (bool) {\r\n    return tentativeLeaderAddr != address(0);\r\n  }\r\n\r\n  function isLeader (address  projAddr) internal view returns (bool) {\r\n    return projAddr == tentativeLeaderAddr;\r\n  }\r\n\r\n  function beatsLeader (address  projAddr) internal view returns (bool) {\r\n    return Project(projAddr).totalVotes() > leadingVoteCount;\r\n  }\r\n\r\n  function resetProjectsChecked() internal {\r\n    ProjectsChecked memory newProjectsChecked;\r\n    currentCheckCycle = currentCheckCycle.add(1);\r\n    checkCycle[currentCheckCycle] = newProjectsChecked;\r\n  }\r\n\r\n  function setTentativeLeader(address  newLeaderAddr) internal {\r\n    tentativeLeaderAddr = newLeaderAddr;\r\n    setLeadingVoteCount();\r\n  }\r\n\r\n  function setLeadingVoteCount () internal {\r\n    if (tentativeLeaderAddr == address(0)) {\r\n      leadingVoteCount = 0;\r\n    } else {\r\n      leadingVoteCount = Project(tentativeLeaderAddr).totalVotes();\r\n    }\r\n  }\r\n\r\n  function decrementCandidateCount() internal {\r\n    candidateCount = candidateCount.sub(1);\r\n  }\r\n\r\n  function currentLeaderClosed () internal view returns (bool) {\r\n    return !Project(tentativeLeaderAddr).open();\r\n  }\r\n\r\n  function alreadyChecked (address  projectAddr) internal view returns (bool) {\r\n    return checkCycle[currentCheckCycle].isChecked[projectAddr];\r\n  }\r\n\r\n  function tentativeLeaderConfirmed () internal view returns (bool) {\r\n    return totalChecked() == candidateCount;\r\n  }\r\n\r\n  function totalChecked () public view returns (uint256) {\r\n    return checkCycle[currentCheckCycle].totalChecked;\r\n  }\r\n}\r\n\r\n/* function attemptProjectActivation () public {\r\n  if (\r\n    tentativeLeaderCapRequired <= weiRaised &&\r\n    tentativeLeaderConfirmed &&\r\n    Project(tentativeLeaderAddr).open()\r\n    ) {\r\n    activateProject();\r\n  }\r\n} */\r\n\r\n/* function activateProject () internal { //we need more tests for added functionality\r\n  Project project = Project(tentativeLeaderAddr);\r\n  project.activate();\r\n  project.log();\r\n  //reduce cast vote count by the number of project votes, set the number of project votes to 0.\r\n\r\n  forwardFunds(developer, tentativeLeaderCapRequired);\r\n  weiRaised = weiRaised.sub(tentativeLeaderCapRequired);\r\n  candidateCount = candidateCount.sub(1);\r\n  Token(token).increasePendingActivations(project.developerTokens_().add(project.investorTokens_()));\r\n} */\r\n",
  "sourcePath": "F:\\Projects\\genie\\genie-portal\\truffle\\contracts\\projectLeader\\ProjectLeaderTracker.sol",
  "compiler": {
    "name": "solc",
    "version": "0.4.24+commit.e67f0147.Emscripten.clang"
  },
  "schemaVersion": "2.0.1",
  "updatedAt": "2022-02-08T17:32:15.809Z"
}