{
  "contractName": "Project",
  "abi": [
    {
      "constant": true,
      "inputs": [],
      "name": "lat",
      "outputs": [
        {
          "name": "",
          "type": "string"
        }
      ],
      "payable": false,
      "stateMutability": "view",
      "type": "function"
    },
    {
      "inputs": [
        {
          "name": "_id",
          "type": "uint256"
        },
        {
          "name": "_name",
          "type": "string"
        },
        {
          "name": "_developer",
          "type": "address"
        },
        {
          "name": "_valuation",
          "type": "uint256"
        },
        {
          "name": "_capitalRequired",
          "type": "uint256"
        },
        {
          "name": "_developerTokens",
          "type": "uint256"
        },
        {
          "name": "_investorTokens",
          "type": "uint256"
        },
        {
          "name": "_lat",
          "type": "string"
        },
        {
          "name": "_lng",
          "type": "string"
        }
      ],
      "payable": false,
      "stateMutability": "nonpayable",
      "type": "constructor"
    },
    {
      "anonymous": false,
      "inputs": [
        {
          "indexed": false,
          "name": "id",
          "type": "uint256"
        },
        {
          "indexed": false,
          "name": "name",
          "type": "string"
        },
        {
          "indexed": false,
          "name": "valuation",
          "type": "uint256"
        },
        {
          "indexed": false,
          "name": "capitalRequired",
          "type": "uint256"
        },
        {
          "indexed": false,
          "name": "developerTokens",
          "type": "uint256"
        },
        {
          "indexed": false,
          "name": "investorTokens",
          "type": "uint256"
        },
        {
          "indexed": false,
          "name": "lat",
          "type": "string"
        },
        {
          "indexed": false,
          "name": "lng",
          "type": "string"
        },
        {
          "indexed": false,
          "name": "totalVotes",
          "type": "uint256"
        },
        {
          "indexed": false,
          "name": "active",
          "type": "bool"
        }
      ],
      "name": "LogProject",
      "type": "event"
    },
    {
      "constant": true,
      "inputs": [
        {
          "name": "voter",
          "type": "address"
        }
      ],
      "name": "votesOf",
      "outputs": [
        {
          "name": "",
          "type": "uint256"
        }
      ],
      "payable": false,
      "stateMutability": "view",
      "type": "function"
    },
    {
      "constant": false,
      "inputs": [],
      "name": "log",
      "outputs": [],
      "payable": false,
      "stateMutability": "nonpayable",
      "type": "function"
    },
    {
      "constant": true,
      "inputs": [],
      "name": "open",
      "outputs": [
        {
          "name": "",
          "type": "bool"
        }
      ],
      "payable": false,
      "stateMutability": "view",
      "type": "function"
    },
    {
      "constant": true,
      "inputs": [],
      "name": "id_",
      "outputs": [
        {
          "name": "",
          "type": "uint256"
        }
      ],
      "payable": false,
      "stateMutability": "view",
      "type": "function"
    },
    {
      "constant": true,
      "inputs": [],
      "name": "active_",
      "outputs": [
        {
          "name": "",
          "type": "bool"
        }
      ],
      "payable": false,
      "stateMutability": "view",
      "type": "function"
    },
    {
      "constant": true,
      "inputs": [],
      "name": "totalVotes_",
      "outputs": [
        {
          "name": "",
          "type": "uint256"
        }
      ],
      "payable": false,
      "stateMutability": "view",
      "type": "function"
    },
    {
      "constant": true,
      "inputs": [],
      "name": "closingTime_",
      "outputs": [
        {
          "name": "",
          "type": "uint256"
        }
      ],
      "payable": false,
      "stateMutability": "view",
      "type": "function"
    },
    {
      "constant": true,
      "inputs": [],
      "name": "developerTokens_",
      "outputs": [
        {
          "name": "",
          "type": "uint256"
        }
      ],
      "payable": false,
      "stateMutability": "view",
      "type": "function"
    },
    {
      "constant": true,
      "inputs": [],
      "name": "investorTokens_",
      "outputs": [
        {
          "name": "",
          "type": "uint256"
        }
      ],
      "payable": false,
      "stateMutability": "view",
      "type": "function"
    },
    {
      "constant": true,
      "inputs": [],
      "name": "capitalRequired_",
      "outputs": [
        {
          "name": "",
          "type": "uint256"
        }
      ],
      "payable": false,
      "stateMutability": "view",
      "type": "function"
    },
    {
      "constant": false,
      "inputs": [],
      "name": "deposit",
      "outputs": [],
      "payable": true,
      "stateMutability": "payable",
      "type": "function"
    },
    {
      "constant": false,
      "inputs": [
        {
          "name": "manager",
          "type": "address"
        }
      ],
      "name": "addManager",
      "outputs": [],
      "payable": false,
      "stateMutability": "nonpayable",
      "type": "function"
    },
    {
      "constant": false,
      "inputs": [
        {
          "name": "wallet",
          "type": "address"
        }
      ],
      "name": "setDividendWallet",
      "outputs": [],
      "payable": false,
      "stateMutability": "nonpayable",
      "type": "function"
    },
    {
      "constant": false,
      "inputs": [
        {
          "name": "voter",
          "type": "address"
        },
        {
          "name": "voteAmount",
          "type": "uint256"
        }
      ],
      "name": "vote",
      "outputs": [],
      "payable": false,
      "stateMutability": "nonpayable",
      "type": "function"
    },
    {
      "constant": false,
      "inputs": [
        {
          "name": "voter",
          "type": "address"
        },
        {
          "name": "voteAmount",
          "type": "uint256"
        }
      ],
      "name": "removeVotes",
      "outputs": [],
      "payable": false,
      "stateMutability": "nonpayable",
      "type": "function"
    },
    {
      "constant": false,
      "inputs": [],
      "name": "activate",
      "outputs": [],
      "payable": false,
      "stateMutability": "nonpayable",
      "type": "function"
    },
    {
      "constant": true,
      "inputs": [
        {
          "name": "otherProject",
          "type": "address"
        }
      ],
      "name": "beats",
      "outputs": [
        {
          "name": "",
          "type": "bool"
        }
      ],
      "payable": false,
      "stateMutability": "view",
      "type": "function"
    }
  ],
  "bytecode": "0x60806040523480156200001157600080fd5b506040516200106a3803806200106a833981018060405281019080805190602001909291908051820192919060200180519060200190929190805190602001909291908051906020019092919080519060200190929190805190602001909291908051820192919060200180518201929190505050886000819055508760019080519060200190620000a592919062000174565b5086600260006101000a81548173ffffffffffffffffffffffffffffffffffffffff021916908373ffffffffffffffffffffffffffffffffffffffff1602179055508560058190555084600681905550836007819055508260088190555081600990805190602001906200011b92919062000174565b5080600a90805190602001906200013492919062000174565b506000600b819055506000600c60006101000a81548160ff02191690831515021790555063013d2380420160048190555050505050505050505062000223565b828054600181600116156101000203166002900490600052602060002090601f016020900481019282601f10620001b757805160ff1916838001178555620001e8565b82800160010185558215620001e8579182015b82811115620001e7578251825591602001919060010190620001ca565b5b509050620001f79190620001fb565b5090565b6200022091905b808211156200021c57600081600090555060010162000202565b5090565b90565b610e3780620002336000396000f3006080604052600436106100fc576000357c0100000000000000000000000000000000000000000000000000000000900463ffffffff1680630f15f4c014610101578063272666e3146101185780632d06177a146101435780634d7c09dd1461018657806351973ec9146101b557806355d576cc146101cc5780635b184f881461025c5780635f74bbde1461029f5780636f219831146102ec578063705c5be51461031757806379ec5d3a14610372578063929aebdf146103c9578063c78243cf146103f4578063ce6a08801461041f578063d0e30db01461046c578063d4cf7db614610476578063d705f387146104a1578063fcfff16f146104cc575b600080fd5b34801561010d57600080fd5b506101166104fb565b005b34801561012457600080fd5b5061012d610520565b6040518082815260200191505060405180910390f35b34801561014f57600080fd5b50610184600480360381019080803573ffffffffffffffffffffffffffffffffffffffff16906020019092919050505061052a565b005b34801561019257600080fd5b5061019b61063c565b604051808215151515815260200191505060405180910390f35b3480156101c157600080fd5b506101ca610653565b005b3480156101d857600080fd5b506101e161087c565b6040518080602001828103825283818151815260200191508051906020019080838360005b83811015610221578082015181840152602081019050610206565b50505050905090810190601f16801561024e5780820380516001836020036101000a031916815260200191505b509250505060405180910390f35b34801561026857600080fd5b5061029d600480360381019080803573ffffffffffffffffffffffffffffffffffffffff16906020019092919050505061091a565b005b3480156102ab57600080fd5b506102ea600480360381019080803573ffffffffffffffffffffffffffffffffffffffff16906020019092919080359060200190929190505050610a15565b005b3480156102f857600080fd5b50610301610ae6565b6040518082815260200191505060405180910390f35b34801561032357600080fd5b50610358600480360381019080803573ffffffffffffffffffffffffffffffffffffffff169060200190929190505050610aef565b604051808215151515815260200191505060405180910390f35b34801561037e57600080fd5b506103b3600480360381019080803573ffffffffffffffffffffffffffffffffffffffff169060200190929190505050610ba9565b6040518082815260200191505060405180910390f35b3480156103d557600080fd5b506103de610bf2565b6040518082815260200191505060405180910390f35b34801561040057600080fd5b50610409610bfc565b6040518082815260200191505060405180910390f35b34801561042b57600080fd5b5061046a600480360381019080803573ffffffffffffffffffffffffffffffffffffffff16906020019092919080359060200190929190505050610c06565b005b610474610d36565b005b34801561048257600080fd5b5061048b610db6565b6040518082815260200191505060405180910390f35b3480156104ad57600080fd5b506104b6610dc0565b6040518082815260200191505060405180910390f35b3480156104d857600080fd5b506104e1610dca565b604051808215151515815260200191505060405180910390f35b6001600c60006101000a81548160ff02191690831515021790555061051e610653565b565b6000600454905090565b60011515600e60003373ffffffffffffffffffffffffffffffffffffffff1673ffffffffffffffffffffffffffffffffffffffff16815260200190815260200160002060009054906101000a900460ff16151514806105d65750600260009054906101000a900473ffffffffffffffffffffffffffffffffffffffff1673ffffffffffffffffffffffffffffffffffffffff163373ffffffffffffffffffffffffffffffffffffffff16145b15156105e157600080fd5b6001600e60008373ffffffffffffffffffffffffffffffffffffffff1673ffffffffffffffffffffffffffffffffffffffff16815260200190815260200160002060006101000a81548160ff02191690831515021790555050565b6000600c60009054906101000a900460ff16905090565b7f2870b0d0558b1786ef247a7bb0787eaae7392b072f7ca327b464981f23fb0e9260005460016005546006546007546008546009600a600b54600c60009054906101000a900460ff16604051808b8152602001806020018a815260200189815260200188815260200187815260200180602001806020018681526020018515151515815260200184810384528d81815460018160011615610100020316600290048152602001915080546001816001161561010002031660029004801561075b5780601f106107305761010080835404028352916020019161075b565b820191906000526020600020905b81548152906001019060200180831161073e57829003601f168201915b50508481038352888181546001816001161561010002031660029004815260200191508054600181600116156101000203166002900480156107de5780601f106107b3576101008083540402835291602001916107de565b820191906000526020600020905b8154815290600101906020018083116107c157829003601f168201915b50508481038252878181546001816001161561010002031660029004815260200191508054600181600116156101000203166002900480156108615780601f1061083657610100808354040283529160200191610861565b820191906000526020600020905b81548152906001019060200180831161084457829003601f168201915b50509d505050505050505050505050505060405180910390a1565b60098054600181600116156101000203166002900480601f0160208091040260200160405190810160405280929190818152602001828054600181600116156101000203166002900480156109125780601f106108e757610100808354040283529160200191610912565b820191906000526020600020905b8154815290600101906020018083116108f557829003601f168201915b505050505081565b60011515600e60003373ffffffffffffffffffffffffffffffffffffffff1673ffffffffffffffffffffffffffffffffffffffff16815260200190815260200160002060009054906101000a900460ff16151514806109c65750600260009054906101000a900473ffffffffffffffffffffffffffffffffffffffff1673ffffffffffffffffffffffffffffffffffffffff163373ffffffffffffffffffffffffffffffffffffffff16145b15156109d157600080fd5b80600360006101000a81548173ffffffffffffffffffffffffffffffffffffffff021916908373ffffffffffffffffffffffffffffffffffffffff16021790555050565b610a6781600d60008573ffffffffffffffffffffffffffffffffffffffff1673ffffffffffffffffffffffffffffffffffffffff16815260200190815260200160002054610dd690919063ffffffff16565b600d60008473ffffffffffffffffffffffffffffffffffffffff1673ffffffffffffffffffffffffffffffffffffffff16815260200190815260200160002081905550610abf81600b54610dd690919063ffffffff16565b600b81905550610adc61a8c0600454610dd690919063ffffffff16565b6004819055505050565b60008054905090565b600080600b54118015610ba257508173ffffffffffffffffffffffffffffffffffffffff1663c78243cf6040518163ffffffff167c0100000000000000000000000000000000000000000000000000000000028152600401602060405180830381600087803b158015610b6157600080fd5b505af1158015610b75573d6000803e3d6000fd5b505050506040513d6020811015610b8b57600080fd5b8101908080519060200190929190505050600b5410155b9050919050565b6000600d60008373ffffffffffffffffffffffffffffffffffffffff1673ffffffffffffffffffffffffffffffffffffffff168152602001908152602001600020549050919050565b6000600754905090565b6000600b54905090565b600b548111151515610c1757600080fd5b600d60008373ffffffffffffffffffffffffffffffffffffffff1673ffffffffffffffffffffffffffffffffffffffff168152602001908152602001600020548111151515610c6557600080fd5b610cb781600d60008573ffffffffffffffffffffffffffffffffffffffff1673ffffffffffffffffffffffffffffffffffffffff16815260200190815260200160002054610df290919063ffffffff16565b600d60008473ffffffffffffffffffffffffffffffffffffffff1673ffffffffffffffffffffffffffffffffffffffff16815260200190815260200160002081905550610d0f81600b54610df290919063ffffffff16565b600b81905550610d2c61a8c0600454610df290919063ffffffff16565b6004819055505050565b6000803414151515610d4757600080fd5b349050600360009054906101000a900473ffffffffffffffffffffffffffffffffffffffff1673ffffffffffffffffffffffffffffffffffffffff166108fc829081150290604051600060405180830381858888f19350505050158015610db2573d6000803e3d6000fd5b5050565b6000600654905090565b6000600854905090565b60004260045411905090565b60008183019050828110151515610de957fe5b80905092915050565b6000828211151515610e0057fe5b8183039050929150505600a165627a7a72305820f27fd669d4f72624e178b53cb234bcd7d9c844fbea790cae802aa1b8afdcb1ad0029",
  "source": "pragma solidity ^0.4.23;\nimport './utility/SafeMath.sol';\ncontract Project {\n  using SafeMath for uint256;\n  //these will all need to be private so they cannot be set arbitrarily\n  //we'll make read methods when necessary\n  uint256 private id; //this should be public?\n  string private name;\n  address private developer;\n  address internal dividends;\n  uint256 internal closingTime;\n  uint256 private valuation;\n  uint256 private capitalRequired;\n  uint256 private developerTokens;\n  uint256 private investorTokens;\n  string public lat;\n  string private lng;\n  uint256 internal totalVotes;\n  bool private active;\n  constructor (\n    uint256 _id,\n    string _name,\n    address _developer,\n    uint256 _valuation,\n    uint256 _capitalRequired,\n    uint256 _developerTokens,\n    uint256 _investorTokens,\n    string _lat,\n    string _lng\n    ) public {\n      id = _id;\n      name = _name;\n      developer = _developer;\n      valuation = _valuation;\n      capitalRequired = _capitalRequired;\n      developerTokens = _developerTokens;\n      investorTokens = _investorTokens;\n      lat = _lat;\n      lng = _lng;\n      totalVotes = 0;\n      active = false;\n      closingTime = now + 86600 * 240;\n  }\n  event LogProject (\n      uint id,\n      string name,\n      uint256 valuation,\n      uint256 capitalRequired,\n      uint256 developerTokens,\n      uint256 investorTokens,\n      string lat,\n      string lng,\n      uint256 totalVotes,\n      bool active\n  );\n\n  mapping(address => uint256) internal votes;\n\n  function votesOf(address voter) public view returns (uint256) {\n    return votes[voter];\n  }\n\n  function log () public {\n    emit LogProject(id, name, valuation, capitalRequired, developerTokens, investorTokens, lat, lng, totalVotes, active);\n  }\n\n  function open () public view returns (bool) {\n    return closingTime > now;\n  }\n\n  function id_ () public view returns (uint256) {\n    return id;\n  }\n\n  function active_ () public view returns (bool) {\n    return active;\n  }\n\n  function totalVotes_ () public view returns (uint256) {\n    return totalVotes;\n  }\n\n  function closingTime_ () public view returns (uint256) {\n    return closingTime;\n  }\n\n  function developerTokens_ () public view returns (uint256) {\n    return developerTokens;\n  }\n\n  function investorTokens_ () public view returns (uint256) {\n    return investorTokens;\n  }\n\n  function capitalRequired_ () public view returns (uint256) {\n    return capitalRequired;\n  }\n\n  /* function getInfo() public view returns(\n      string, uint256, uint256, uint256, uint256, bool, uint256, uint256\n      ) {\n      return (\n          name,\n          valuation,\n          capitalRequired,\n          developerTokens,\n          investorTokens,\n          active,\n          totalVotes,\n          closingTime\n      );\n  } */\n\n  mapping(address => bool) internal managers;\n\n  modifier authorize () {\n    require(managers[msg.sender] == true || msg.sender == developer);\n    _;\n  }\n\n  function deposit () public payable {\n    require(msg.value != 0);\n    uint256 weiAmount = msg.value;\n    dividends.transfer(weiAmount);\n  }\n\n  function addManager (address manager) public authorize {\n    managers[manager] = true;\n  }\n\n  function setDividendWallet (address wallet) public authorize {\n    dividends = wallet;\n  }\n  //for security, we will make this contract owned by GNITokenCrowdsale and require that msg.sender is the owner for update and activate\n  function vote (address voter, uint256 voteAmount) external {\n    //maybe require that its open and not active\n    votes[voter] = votes[voter].add(voteAmount);\n    totalVotes = totalVotes.add(voteAmount);\n    closingTime = closingTime.add(43200);\n  }\n\n  //for security, we will make this contract owned by GNITokenCrowdsale and require that msg.sender is the owner for update and activate\n  function removeVotes (address voter, uint256 voteAmount) external {\n    require(voteAmount <= totalVotes);\n    require(voteAmount <= votes[voter]);\n\n    votes[voter] = votes[voter].sub(voteAmount);\n    totalVotes = totalVotes.sub(voteAmount);\n    closingTime = closingTime.sub(43200);\n  }\n\n  function activate () external {\n    active = true;\n    log();\n  }\n\n  function beats (address otherProject) public view returns (bool) {\n    return totalVotes > 0 && totalVotes >= Project(otherProject).totalVotes_();\n      /* open() && *///we dont need this if we remove all votes for projects that are closed\n      /* totalVotes >= Project(otherProject).totalVotes_() */\n      //we dont need to check if the competitor is active because an active project always has 0 votes\n  }\n}\n",
  "sourcePath": "/Users/steven/genie-portal/truffle/contracts/Project.sol",
  "compiler": {
    "name": "solc",
    "version": "0.4.25+commit.59dbf8f1.Emscripten.clang"
  },
  "schemaVersion": "3.0.0-beta.1",
  "updatedAt": "2018-11-15T00:36:17.918Z"
}