{
  "contractName": "Project",
  "abi": [
    {
      "constant": true,
      "inputs": [],
      "name": "active",
      "outputs": [
        {
          "name": "",
          "type": "bool"
        }
      ],
      "payable": false,
      "stateMutability": "view",
      "type": "function"
    },
    {
      "constant": true,
      "inputs": [],
      "name": "lat",
      "outputs": [
        {
          "name": "",
          "type": "string"
        }
      ],
      "payable": false,
      "stateMutability": "view",
      "type": "function"
    },
    {
      "constant": false,
      "inputs": [],
      "name": "renounceOwnership",
      "outputs": [],
      "payable": false,
      "stateMutability": "nonpayable",
      "type": "function"
    },
    {
      "constant": true,
      "inputs": [],
      "name": "owner",
      "outputs": [
        {
          "name": "",
          "type": "address"
        }
      ],
      "payable": false,
      "stateMutability": "view",
      "type": "function"
    },
    {
      "constant": true,
      "inputs": [],
      "name": "dividendWallet",
      "outputs": [
        {
          "name": "",
          "type": "address"
        }
      ],
      "payable": false,
      "stateMutability": "view",
      "type": "function"
    },
    {
      "constant": true,
      "inputs": [],
      "name": "activationTime",
      "outputs": [
        {
          "name": "",
          "type": "uint256"
        }
      ],
      "payable": false,
      "stateMutability": "view",
      "type": "function"
    },
    {
      "constant": false,
      "inputs": [
        {
          "name": "_newOwner",
          "type": "address"
        }
      ],
      "name": "transferOwnership",
      "outputs": [],
      "payable": false,
      "stateMutability": "nonpayable",
      "type": "function"
    },
    {
      "inputs": [
        {
          "name": "_title",
          "type": "string"
        },
        {
          "name": "_developer",
          "type": "address"
        },
        {
          "name": "_dividendWallet",
          "type": "address"
        },
        {
          "name": "_valuation",
          "type": "uint256"
        },
        {
          "name": "_capitalRequired",
          "type": "uint256"
        },
        {
          "name": "_developerTokens",
          "type": "uint256"
        },
        {
          "name": "_investorTokens",
          "type": "uint256"
        },
        {
          "name": "_lat",
          "type": "string"
        },
        {
          "name": "_lng",
          "type": "string"
        },
        {
          "name": "_voteForHash",
          "type": "bytes32"
        },
        {
          "name": "_voteAgainstHash",
          "type": "bytes32"
        }
      ],
      "payable": false,
      "stateMutability": "nonpayable",
      "type": "constructor"
    },
    {
      "anonymous": false,
      "inputs": [
        {
          "indexed": false,
          "name": "addr",
          "type": "address"
        },
        {
          "indexed": false,
          "name": "title",
          "type": "string"
        },
        {
          "indexed": false,
          "name": "valuation",
          "type": "uint256"
        },
        {
          "indexed": false,
          "name": "capitalRequired",
          "type": "uint256"
        },
        {
          "indexed": false,
          "name": "developerTokens",
          "type": "uint256"
        },
        {
          "indexed": false,
          "name": "investorTokens",
          "type": "uint256"
        },
        {
          "indexed": false,
          "name": "lat",
          "type": "string"
        },
        {
          "indexed": false,
          "name": "lng",
          "type": "string"
        },
        {
          "indexed": false,
          "name": "totalVotes",
          "type": "uint256"
        },
        {
          "indexed": false,
          "name": "active",
          "type": "bool"
        }
      ],
      "name": "LogProject",
      "type": "event"
    },
    {
      "anonymous": false,
      "inputs": [
        {
          "indexed": true,
          "name": "previousOwner",
          "type": "address"
        }
      ],
      "name": "OwnershipRenounced",
      "type": "event"
    },
    {
      "anonymous": false,
      "inputs": [
        {
          "indexed": true,
          "name": "previousOwner",
          "type": "address"
        },
        {
          "indexed": true,
          "name": "newOwner",
          "type": "address"
        }
      ],
      "name": "OwnershipTransferred",
      "type": "event"
    },
    {
      "constant": true,
      "inputs": [
        {
          "name": "voter",
          "type": "address"
        }
      ],
      "name": "votesOf",
      "outputs": [
        {
          "name": "",
          "type": "uint256"
        }
      ],
      "payable": false,
      "stateMutability": "view",
      "type": "function"
    },
    {
      "constant": false,
      "inputs": [],
      "name": "log",
      "outputs": [],
      "payable": false,
      "stateMutability": "nonpayable",
      "type": "function"
    },
    {
      "constant": true,
      "inputs": [],
      "name": "open",
      "outputs": [
        {
          "name": "",
          "type": "bool"
        }
      ],
      "payable": false,
      "stateMutability": "view",
      "type": "function"
    },
    {
      "constant": true,
      "inputs": [],
      "name": "title_",
      "outputs": [
        {
          "name": "",
          "type": "string"
        }
      ],
      "payable": false,
      "stateMutability": "view",
      "type": "function"
    },
    {
      "constant": true,
      "inputs": [],
      "name": "active_",
      "outputs": [
        {
          "name": "",
          "type": "bool"
        }
      ],
      "payable": false,
      "stateMutability": "view",
      "type": "function"
    },
    {
      "constant": true,
      "inputs": [],
      "name": "activationTime_",
      "outputs": [
        {
          "name": "",
          "type": "uint256"
        }
      ],
      "payable": false,
      "stateMutability": "view",
      "type": "function"
    },
    {
      "constant": true,
      "inputs": [],
      "name": "totalVotes_",
      "outputs": [
        {
          "name": "",
          "type": "uint256"
        }
      ],
      "payable": false,
      "stateMutability": "view",
      "type": "function"
    },
    {
      "constant": true,
      "inputs": [],
      "name": "closingTime_",
      "outputs": [
        {
          "name": "",
          "type": "uint256"
        }
      ],
      "payable": false,
      "stateMutability": "view",
      "type": "function"
    },
    {
      "constant": true,
      "inputs": [],
      "name": "developerTokens_",
      "outputs": [
        {
          "name": "",
          "type": "uint256"
        }
      ],
      "payable": false,
      "stateMutability": "view",
      "type": "function"
    },
    {
      "constant": true,
      "inputs": [],
      "name": "investorTokens_",
      "outputs": [
        {
          "name": "",
          "type": "uint256"
        }
      ],
      "payable": false,
      "stateMutability": "view",
      "type": "function"
    },
    {
      "constant": true,
      "inputs": [],
      "name": "capitalRequired_",
      "outputs": [
        {
          "name": "",
          "type": "uint256"
        }
      ],
      "payable": false,
      "stateMutability": "view",
      "type": "function"
    },
    {
      "constant": false,
      "inputs": [],
      "name": "deposit",
      "outputs": [],
      "payable": true,
      "stateMutability": "payable",
      "type": "function"
    },
    {
      "constant": false,
      "inputs": [
        {
          "name": "manager",
          "type": "address"
        }
      ],
      "name": "addManager",
      "outputs": [],
      "payable": false,
      "stateMutability": "nonpayable",
      "type": "function"
    },
    {
      "constant": false,
      "inputs": [
        {
          "name": "wallet",
          "type": "address"
        }
      ],
      "name": "setDividendWallet",
      "outputs": [],
      "payable": false,
      "stateMutability": "nonpayable",
      "type": "function"
    },
    {
      "constant": false,
      "inputs": [
        {
          "name": "voter",
          "type": "address"
        },
        {
          "name": "voteAmount",
          "type": "uint256"
        },
        {
          "name": "_signedMessage",
          "type": "bytes"
        }
      ],
      "name": "vote",
      "outputs": [],
      "payable": false,
      "stateMutability": "nonpayable",
      "type": "function"
    },
    {
      "constant": false,
      "inputs": [
        {
          "name": "voter",
          "type": "address"
        },
        {
          "name": "voteAmount",
          "type": "uint256"
        },
        {
          "name": "_signedMessage",
          "type": "bytes"
        }
      ],
      "name": "voteAgainst",
      "outputs": [],
      "payable": false,
      "stateMutability": "nonpayable",
      "type": "function"
    },
    {
      "constant": false,
      "inputs": [
        {
          "name": "voter",
          "type": "address"
        },
        {
          "name": "voteAmount",
          "type": "uint256"
        }
      ],
      "name": "removeVotes",
      "outputs": [],
      "payable": false,
      "stateMutability": "nonpayable",
      "type": "function"
    },
    {
      "constant": false,
      "inputs": [],
      "name": "activate",
      "outputs": [
        {
          "name": "",
          "type": "uint256"
        }
      ],
      "payable": false,
      "stateMutability": "nonpayable",
      "type": "function"
    },
    {
      "constant": true,
      "inputs": [
        {
          "name": "otherProject",
          "type": "address"
        }
      ],
      "name": "beats",
      "outputs": [
        {
          "name": "",
          "type": "bool"
        }
      ],
      "payable": false,
      "stateMutability": "view",
      "type": "function"
    }
  ],
  "bytecode": "0x60806040523480156200001157600080fd5b5060405162001c1c38038062001c1c8339810180604052810190808051820192919060200180519060200190929190805190602001909291908051906020019092919080519060200190929190805190602001909291908051906020019092919080518201929190602001805182019291906020018051906020019092919080519060200190929190505050336000806101000a81548173ffffffffffffffffffffffffffffffffffffffff021916908373ffffffffffffffffffffffffffffffffffffffff1602179055508a60019080519060200190620000f59291906200021d565b5089600260006101000a81548173ffffffffffffffffffffffffffffffffffffffff021916908373ffffffffffffffffffffffffffffffffffffffff16021790555088600360006101000a81548173ffffffffffffffffffffffffffffffffffffffff021916908373ffffffffffffffffffffffffffffffffffffffff160217905550876005819055508660068190555085600781905550846008819055508360099080519060200190620001ac9291906200021d565b5082600a9080519060200190620001c59291906200021d565b506000600b819055506000600c60006101000a81548160ff02191690831515021790555063013d2380420160048190555081600e816000191690555080600f81600019169055505050505050505050505050620002cc565b828054600181600116156101000203166002900490600052602060002090601f016020900481019282601f106200026057805160ff191683800117855562000291565b8280016001018555821562000291579182015b828111156200029057825182559160200191906001019062000273565b5b509050620002a09190620002a4565b5090565b620002c991905b80821115620002c5576000816000905550600101620002ab565b5090565b90565b61194080620002dc6000396000f300608060405260043610610154576000357c0100000000000000000000000000000000000000000000000000000000900463ffffffff16806302fb0c5e146101595780630f15f4c01461018857806324c4322b146101b3578063272666e3146102465780632d06177a146102715780634d7c09dd146102b457806351973ec9146102e357806355d576cc146102fa5780635b184f881461038a5780636f62d405146103cd578063705c5be51461045d578063715018a6146104b857806379ec5d3a146104cf57806386cbaed8146105265780638da5cb5b1461058b578063929aebdf146105e2578063b0e011641461060d578063b1053da614610664578063c78243cf1461068f578063ce6a0880146106ba578063d0e30db014610707578063d4cf7db614610711578063d705f3871461073c578063da4493f614610767578063f2fde38b14610792578063fcfff16f146107d5575b600080fd5b34801561016557600080fd5b5061016e610804565b604051808215151515815260200191505060405180910390f35b34801561019457600080fd5b5061019d610817565b6040518082815260200191505060405180910390f35b3480156101bf57600080fd5b50610244600480360381019080803573ffffffffffffffffffffffffffffffffffffffff16906020019092919080359060200190929190803590602001908201803590602001908080601f016020809104026020016040519081016040528093929190818152602001838380828437820191505050505050919291929050505061089e565b005b34801561025257600080fd5b5061025b610a6a565b6040518082815260200191505060405180910390f35b34801561027d57600080fd5b506102b2600480360381019080803573ffffffffffffffffffffffffffffffffffffffff169060200190929190505050610a74565b005b3480156102c057600080fd5b506102c9610b86565b604051808215151515815260200191505060405180910390f35b3480156102ef57600080fd5b506102f8610b9d565b005b34801561030657600080fd5b5061030f610df0565b6040518080602001828103825283818151815260200191508051906020019080838360005b8381101561034f578082015181840152602081019050610334565b50505050905090810190601f16801561037c5780820380516001836020036101000a031916815260200191505b509250505060405180910390f35b34801561039657600080fd5b506103cb600480360381019080803573ffffffffffffffffffffffffffffffffffffffff169060200190929190505050610e8e565b005b3480156103d957600080fd5b506103e2610f89565b6040518080602001828103825283818151815260200191508051906020019080838360005b83811015610422578082015181840152602081019050610407565b50505050905090810190601f16801561044f5780820380516001836020036101000a031916815260200191505b509250505060405180910390f35b34801561046957600080fd5b5061049e600480360381019080803573ffffffffffffffffffffffffffffffffffffffff16906020019092919050505061102b565b604051808215151515815260200191505060405180910390f35b3480156104c457600080fd5b506104cd6110e5565b005b3480156104db57600080fd5b50610510600480360381019080803573ffffffffffffffffffffffffffffffffffffffff1690602001909291905050506111e7565b6040518082815260200191505060405180910390f35b34801561053257600080fd5b50610589600480360381019080803573ffffffffffffffffffffffffffffffffffffffff16906020019092919080359060200190929190803590602001908201803590602001919091929391929390505050611230565b005b34801561059757600080fd5b506105a0611475565b604051808273ffffffffffffffffffffffffffffffffffffffff1673ffffffffffffffffffffffffffffffffffffffff16815260200191505060405180910390f35b3480156105ee57600080fd5b506105f761149a565b6040518082815260200191505060405180910390f35b34801561061957600080fd5b506106226114a4565b604051808273ffffffffffffffffffffffffffffffffffffffff1673ffffffffffffffffffffffffffffffffffffffff16815260200191505060405180910390f35b34801561067057600080fd5b506106796114ca565b6040518082815260200191505060405180910390f35b34801561069b57600080fd5b506106a46114d4565b6040518082815260200191505060405180910390f35b3480156106c657600080fd5b50610705600480360381019080803573ffffffffffffffffffffffffffffffffffffffff169060200190929190803590602001909291905050506114de565b005b61070f611572565b005b34801561071d57600080fd5b50610726611628565b6040518082815260200191505060405180910390f35b34801561074857600080fd5b50610751611632565b6040518082815260200191505060405180910390f35b34801561077357600080fd5b5061077c61163c565b6040518082815260200191505060405180910390f35b34801561079e57600080fd5b506107d3600480360381019080803573ffffffffffffffffffffffffffffffffffffffff169060200190929190505050611642565b005b3480156107e157600080fd5b506107ea6116a9565b604051808215151515815260200191505060405180910390f35b600c60009054906101000a900460ff1681565b60008060009054906101000a900473ffffffffffffffffffffffffffffffffffffffff1673ffffffffffffffffffffffffffffffffffffffff163373ffffffffffffffffffffffffffffffffffffffff1614151561087457600080fd5b6001600c60006101000a81548160ff02191690831515021790555042600d81905550600d54905090565b60008060009054906101000a900473ffffffffffffffffffffffffffffffffffffffff1673ffffffffffffffffffffffffffffffffffffffff163373ffffffffffffffffffffffffffffffffffffffff161415156108fb57600080fd5b600f546000191673__ECRecovery____________________________6319045a259091846040518363ffffffff167c010000000000000000000000000000000000000000000000000000000002815260040180836000191660001916815260200180602001828103825283818151815260200191508051906020019080838360005b8381101561099857808201518184015260208101905061097d565b50505050905090810190601f1680156109c55780820380516001836020036101000a031916815260200191505b50935050505060206040518083038186803b1580156109e357600080fd5b505af41580156109f7573d6000803e3d6000fd5b505050506040513d6020811015610a0d57600080fd5b810190808051906020019092919050505090508373ffffffffffffffffffffffffffffffffffffffff168173ffffffffffffffffffffffffffffffffffffffff16141515610a5a57600080fd5b610a6484846116b5565b50505050565b6000600454905090565b60011515601160003373ffffffffffffffffffffffffffffffffffffffff1673ffffffffffffffffffffffffffffffffffffffff16815260200190815260200160002060009054906101000a900460ff1615151480610b205750600260009054906101000a900473ffffffffffffffffffffffffffffffffffffffff1673ffffffffffffffffffffffffffffffffffffffff163373ffffffffffffffffffffffffffffffffffffffff16145b1515610b2b57600080fd5b6001601160008373ffffffffffffffffffffffffffffffffffffffff1673ffffffffffffffffffffffffffffffffffffffff16815260200190815260200160002060006101000a81548160ff02191690831515021790555050565b6000600c60009054906101000a900460ff16905090565b7f618aac77ac61fdbff533123688fa5e33fe0d021db44eac318ae37b90c6f71d563060016005546006546007546008546009600a600b54600c60009054906101000a900460ff16604051808b73ffffffffffffffffffffffffffffffffffffffff1673ffffffffffffffffffffffffffffffffffffffff168152602001806020018a815260200189815260200188815260200187815260200180602001806020018681526020018515151515815260200184810384528d818154600181600116156101000203166002900481526020019150805460018160011615610100020316600290048015610ccf5780601f10610ca457610100808354040283529160200191610ccf565b820191906000526020600020905b815481529060010190602001808311610cb257829003601f168201915b5050848103835288818154600181600116156101000203166002900481526020019150805460018160011615610100020316600290048015610d525780601f10610d2757610100808354040283529160200191610d52565b820191906000526020600020905b815481529060010190602001808311610d3557829003601f168201915b5050848103825287818154600181600116156101000203166002900481526020019150805460018160011615610100020316600290048015610dd55780601f10610daa57610100808354040283529160200191610dd5565b820191906000526020600020905b815481529060010190602001808311610db857829003601f168201915b50509d505050505050505050505050505060405180910390a1565b60098054600181600116156101000203166002900480601f016020809104026020016040519081016040528092919081815260200182805460018160011615610100020316600290048015610e865780601f10610e5b57610100808354040283529160200191610e86565b820191906000526020600020905b815481529060010190602001808311610e6957829003601f168201915b505050505081565b60011515601160003373ffffffffffffffffffffffffffffffffffffffff1673ffffffffffffffffffffffffffffffffffffffff16815260200190815260200160002060009054906101000a900460ff1615151480610f3a5750600260009054906101000a900473ffffffffffffffffffffffffffffffffffffffff1673ffffffffffffffffffffffffffffffffffffffff163373ffffffffffffffffffffffffffffffffffffffff16145b1515610f4557600080fd5b80600360006101000a81548173ffffffffffffffffffffffffffffffffffffffff021916908373ffffffffffffffffffffffffffffffffffffffff16021790555050565b606060018054600181600116156101000203166002900480601f0160208091040260200160405190810160405280929190818152602001828054600181600116156101000203166002900480156110215780601f10610ff657610100808354040283529160200191611021565b820191906000526020600020905b81548152906001019060200180831161100457829003601f168201915b5050505050905090565b600080600b541180156110de57508173ffffffffffffffffffffffffffffffffffffffff1663c78243cf6040518163ffffffff167c0100000000000000000000000000000000000000000000000000000000028152600401602060405180830381600087803b15801561109d57600080fd5b505af11580156110b1573d6000803e3d6000fd5b505050506040513d60208110156110c757600080fd5b8101908080519060200190929190505050600b5410155b9050919050565b6000809054906101000a900473ffffffffffffffffffffffffffffffffffffffff1673ffffffffffffffffffffffffffffffffffffffff163373ffffffffffffffffffffffffffffffffffffffff1614151561114057600080fd5b6000809054906101000a900473ffffffffffffffffffffffffffffffffffffffff1673ffffffffffffffffffffffffffffffffffffffff167ff8df31144d9c2f0f6b59d69b8b98abd5459d07f2742c4df920b25aae33c6482060405160405180910390a260008060006101000a81548173ffffffffffffffffffffffffffffffffffffffff021916908373ffffffffffffffffffffffffffffffffffffffff160217905550565b6000601060008373ffffffffffffffffffffffffffffffffffffffff1673ffffffffffffffffffffffffffffffffffffffff168152602001908152602001600020549050919050565b60008060009054906101000a900473ffffffffffffffffffffffffffffffffffffffff1673ffffffffffffffffffffffffffffffffffffffff163373ffffffffffffffffffffffffffffffffffffffff1614151561128d57600080fd5b600e546000191673__ECRecovery____________________________6319045a25909185856040518463ffffffff167c0100000000000000000000000000000000000000000000000000000000028152600401808460001916600019168152602001806020018281038252848482818152602001925080828437820191505094505050505060206040518083038186803b15801561132a57600080fd5b505af415801561133e573d6000803e3d6000fd5b505050506040513d602081101561135457600080fd5b810190808051906020019092919050505090508473ffffffffffffffffffffffffffffffffffffffff168173ffffffffffffffffffffffffffffffffffffffff161415156113a157600080fd5b6113f384601060008873ffffffffffffffffffffffffffffffffffffffff1673ffffffffffffffffffffffffffffffffffffffff168152602001908152602001600020546117e590919063ffffffff16565b601060008773ffffffffffffffffffffffffffffffffffffffff1673ffffffffffffffffffffffffffffffffffffffff1681526020019081526020016000208190555061144b84600b546117e590919063ffffffff16565b600b8190555061146861a8c06004546117e590919063ffffffff16565b6004819055505050505050565b6000809054906101000a900473ffffffffffffffffffffffffffffffffffffffff1681565b6000600754905090565b600360009054906101000a900473ffffffffffffffffffffffffffffffffffffffff1681565b6000600d54905090565b6000600b54905090565b6000809054906101000a900473ffffffffffffffffffffffffffffffffffffffff1673ffffffffffffffffffffffffffffffffffffffff163373ffffffffffffffffffffffffffffffffffffffff1614151561153957600080fd5b6115416116a9565b15806115595750600c60009054906101000a900460ff165b151561156457600080fd5b61156e82826116b5565b5050565b600080341415151561158357600080fd5b349050600360009054906101000a900473ffffffffffffffffffffffffffffffffffffffff1673ffffffffffffffffffffffffffffffffffffffff166379fc4687826040518263ffffffff167c01000000000000000000000000000000000000000000000000000000000281526004016000604051808303818588803b15801561160c57600080fd5b505af1158015611620573d6000803e3d6000fd5b505050505050565b6000600654905090565b6000600854905090565b600d5481565b6000809054906101000a900473ffffffffffffffffffffffffffffffffffffffff1673ffffffffffffffffffffffffffffffffffffffff163373ffffffffffffffffffffffffffffffffffffffff1614151561169d57600080fd5b6116a681611801565b50565b60004260045411905090565b600b5481111515156116c657600080fd5b601060008373ffffffffffffffffffffffffffffffffffffffff1673ffffffffffffffffffffffffffffffffffffffff16815260200190815260200160002054811115151561171457600080fd5b61176681601060008573ffffffffffffffffffffffffffffffffffffffff1673ffffffffffffffffffffffffffffffffffffffff168152602001908152602001600020546118fb90919063ffffffff16565b601060008473ffffffffffffffffffffffffffffffffffffffff1673ffffffffffffffffffffffffffffffffffffffff168152602001908152602001600020819055506117be81600b546118fb90919063ffffffff16565b600b819055506117db61a8c06004546118fb90919063ffffffff16565b6004819055505050565b600081830190508281101515156117f857fe5b80905092915050565b600073ffffffffffffffffffffffffffffffffffffffff168173ffffffffffffffffffffffffffffffffffffffff161415151561183d57600080fd5b8073ffffffffffffffffffffffffffffffffffffffff166000809054906101000a900473ffffffffffffffffffffffffffffffffffffffff1673ffffffffffffffffffffffffffffffffffffffff167f8be0079c531659141344cd1fd0a4f28419497f9722a3daafe3b4186f6b6457e060405160405180910390a3806000806101000a81548173ffffffffffffffffffffffffffffffffffffffff021916908373ffffffffffffffffffffffffffffffffffffffff16021790555050565b600082821115151561190957fe5b8183039050929150505600a165627a7a72305820ec6619f0a80965345d243c6067b9ea8950b1e0ca883a5fbda1978ec0f7b2f21a0029",
  "source": "pragma solidity ^0.4.23;\nimport './utility/SafeMath.sol';\nimport './utility/Ownable.sol';\nimport './Dividends.sol';\nimport './ECRecovery.sol';\n\ncontract Project is Ownable {\n  using SafeMath for uint256;\n  using ECRecovery for bytes32;\n  //these will all need to be private so they cannot be set arbitrarily\n  //we'll make read methods when necessary\n  string private title;\n  address private developer;\n  address public dividendWallet;\n  uint256 internal closingTime;\n  uint256 private valuation;\n  uint256 private capitalRequired;\n  uint256 private developerTokens;\n  uint256 private investorTokens;\n  string public lat;\n  string private lng;\n  uint256 internal totalVotes;\n  bool public active;\n  uint256 public activationTime;\n  bytes32 private voteForHash;\n  bytes32 private voteAgainstHash;\n  constructor (\n    string _title,\n    address _developer,\n    address _dividendWallet,\n    uint256 _valuation,\n    uint256 _capitalRequired,\n    uint256 _developerTokens,\n    uint256 _investorTokens,\n    string _lat,\n    string _lng,\n    bytes32 _voteForHash,\n    bytes32 _voteAgainstHash\n    ) public {\n      title = _title;\n      developer = _developer;\n      dividendWallet = _dividendWallet;\n      valuation = _valuation;\n      capitalRequired = _capitalRequired;\n      developerTokens = _developerTokens;\n      investorTokens = _investorTokens;\n      lat = _lat;\n      lng = _lng;\n      totalVotes = 0;\n      active = false;\n      closingTime = now + 86600 * 240;\n      voteForHash = _voteForHash;\n      voteAgainstHash = _voteAgainstHash;\n  }\n  event LogProject (\n      address addr,\n      string title,\n      uint256 valuation,\n      uint256 capitalRequired,\n      uint256 developerTokens,\n      uint256 investorTokens,\n      string lat,\n      string lng,\n      uint256 totalVotes,\n      bool active\n  );\n\n  /* event VoteChange (\n    address addr,\n    string title,\n    uint256 totalVotes\n  ); */\n\n  /* event ProjectActivation (\n    address addr,\n    string title,\n    bool activationStatus,\n    uint256 capitalRequired,\n    uint256 valuation\n  ); */\n\n  mapping(address => uint256) internal votes;\n\n  function votesOf(address voter) public view returns (uint256) {\n    return votes[voter];\n  }\n\n  function log () public {\n    emit LogProject(address(this), title, valuation, capitalRequired, developerTokens, investorTokens, lat, lng, totalVotes, active);\n  }\n\n  function open () public view returns (bool) {\n    return closingTime > now;\n  }\n\n  /* function id_ () public view returns (uint256) {\n    return id;\n  } */\n  function title_ () public view returns (string) {\n    return title;\n  }\n\n  function active_ () public view returns (bool) {\n    return active;\n  }\n\n  function activationTime_ () public view returns (uint256) {\n    return activationTime;\n  }\n\n  function totalVotes_ () public view returns (uint256) {\n    return totalVotes;\n  }\n\n  function closingTime_ () public view returns (uint256) {\n    return closingTime;\n  }\n\n  function developerTokens_ () public view returns (uint256) {\n    return developerTokens;\n  }\n\n  function investorTokens_ () public view returns (uint256) {\n    return investorTokens;\n  }\n\n  function capitalRequired_ () public view returns (uint256) {\n    return capitalRequired;\n  }\n\n  /* function getInfo() public view returns(\n      string, uint256, uint256, uint256, uint256, bool, uint256, uint256\n      ) {\n      return (\n          title,\n          valuation,\n          capitalRequired,\n          developerTokens,\n          investorTokens,\n          active,\n          totalVotes,\n          closingTime\n      );\n  } */\n\n  mapping(address => bool) internal managers;\n\n  modifier authorize () {\n    require(managers[msg.sender] == true || msg.sender == developer);\n    _;\n  }\n\n  function deposit () public payable {\n    require(msg.value != 0);\n    uint256 weiAmount = msg.value;\n    Dividends(dividendWallet).receiveDividends.value(weiAmount)();\n  }\n\n  function addManager (address manager) public authorize {\n    managers[manager] = true;\n  }\n\n  function setDividendWallet (address wallet) public authorize {\n    dividendWallet = wallet;\n  }\n\n  function vote (address voter, uint256 voteAmount, bytes _signedMessage) external onlyOwner {\n    //maybe require that its open and not active\n    address recoveredVoter = voteForHash.recover(_signedMessage);\n    require(recoveredVoter == voter);\n    votes[voter] = votes[voter].add(voteAmount);\n    totalVotes = totalVotes.add(voteAmount);\n    closingTime = closingTime.add(43200);\n\n    /* emit VoteChange(address(this), title, totalVotes); */\n  }\n\n  function voteAgainst (address voter, uint256 voteAmount, bytes _signedMessage) onlyOwner {\n    address recoveredVoter = voteAgainstHash.recover(_signedMessage);\n    require(recoveredVoter == voter);\n    removeVotes_(voter, voteAmount);\n  }\n\n  //when the project has closed\n  function removeVotes (address voter, uint256 voteAmount) external onlyOwner {\n    require(!open() || active);\n    removeVotes_(voter, voteAmount);\n  }\n\n  function removeVotes_ (address voter, uint256 voteAmount) internal {\n    require(voteAmount <= totalVotes);\n    require(voteAmount <= votes[voter]);\n\n    votes[voter] = votes[voter].sub(voteAmount);\n    totalVotes = totalVotes.sub(voteAmount);\n    closingTime = closingTime.sub(43200);\n\n    /* emit VoteChange(address(this), title, totalVotes); */\n  }\n\n  function activate () external onlyOwner returns(uint256) {\n    active = true;\n    //we should set totalVotes to 0\n    activationTime = now;\n    return activationTime;\n    /* emit ProjectActivation(address(this), title, active, capitalRequired, valuation); */\n  }\n\n  function beats (address otherProject) public view returns (bool) {\n    return totalVotes > 0 && totalVotes >= Project(otherProject).totalVotes_();\n  }\n}\n",
  "sourcePath": "/Users/matsteelelap/Desktop/ProjectFolder/genie-portal/truffle/contracts/Project.sol",
  "compiler": {
    "name": "solc",
    "version": "0.4.24+commit.e67f0147.Emscripten.clang"
  },
  "schemaVersion": "2.0.1",
  "updatedAt": "2019-01-19T19:48:47.155Z"
}