{
  "contractName": "Project",
  "abi": [
    {
      "constant": true,
      "inputs": [],
      "name": "active",
      "outputs": [
        {
          "name": "",
          "type": "bool"
        }
      ],
      "payable": false,
      "stateMutability": "view",
      "type": "function"
    },
    {
      "constant": true,
      "inputs": [],
      "name": "lat",
      "outputs": [
        {
          "name": "",
          "type": "string"
        }
      ],
      "payable": false,
      "stateMutability": "view",
      "type": "function"
    },
    {
      "constant": true,
      "inputs": [],
      "name": "dividendWallet",
      "outputs": [
        {
          "name": "",
          "type": "address"
        }
      ],
      "payable": false,
      "stateMutability": "view",
      "type": "function"
    },
    {
      "inputs": [
        {
          "name": "_name",
          "type": "string"
        },
        {
          "name": "_developer",
          "type": "address"
        },
        {
          "name": "_dividendWallet",
          "type": "address"
        },
        {
          "name": "_valuation",
          "type": "uint256"
        },
        {
          "name": "_capitalRequired",
          "type": "uint256"
        },
        {
          "name": "_developerTokens",
          "type": "uint256"
        },
        {
          "name": "_investorTokens",
          "type": "uint256"
        },
        {
          "name": "_lat",
          "type": "string"
        },
        {
          "name": "_lng",
          "type": "string"
        }
      ],
      "payable": false,
      "stateMutability": "nonpayable",
      "type": "constructor"
    },
    {
      "anonymous": false,
      "inputs": [
        {
          "indexed": false,
          "name": "addr",
          "type": "address"
        },
        {
          "indexed": false,
          "name": "name",
          "type": "string"
        },
        {
          "indexed": false,
          "name": "valuation",
          "type": "uint256"
        },
        {
          "indexed": false,
          "name": "capitalRequired",
          "type": "uint256"
        },
        {
          "indexed": false,
          "name": "developerTokens",
          "type": "uint256"
        },
        {
          "indexed": false,
          "name": "investorTokens",
          "type": "uint256"
        },
        {
          "indexed": false,
          "name": "lat",
          "type": "string"
        },
        {
          "indexed": false,
          "name": "lng",
          "type": "string"
        },
        {
          "indexed": false,
          "name": "totalVotes",
          "type": "uint256"
        },
        {
          "indexed": false,
          "name": "active",
          "type": "bool"
        }
      ],
      "name": "LogProject",
      "type": "event"
    },
    {
      "anonymous": false,
      "inputs": [
        {
          "indexed": false,
          "name": "addr",
          "type": "address"
        },
        {
          "indexed": false,
          "name": "name",
          "type": "string"
        },
        {
          "indexed": false,
          "name": "totalVotes",
          "type": "uint256"
        }
      ],
      "name": "VoteChange",
      "type": "event"
    },
    {
      "anonymous": false,
      "inputs": [
        {
          "indexed": false,
          "name": "addr",
          "type": "address"
        },
        {
          "indexed": false,
          "name": "name",
          "type": "string"
        },
        {
          "indexed": false,
          "name": "activationStatus",
          "type": "bool"
        },
        {
          "indexed": false,
          "name": "capitalRequired",
          "type": "uint256"
        },
        {
          "indexed": false,
          "name": "valuation",
          "type": "uint256"
        }
      ],
      "name": "ProjectActivation",
      "type": "event"
    },
    {
      "constant": true,
      "inputs": [
        {
          "name": "voter",
          "type": "address"
        }
      ],
      "name": "votesOf",
      "outputs": [
        {
          "name": "",
          "type": "uint256"
        }
      ],
      "payable": false,
      "stateMutability": "view",
      "type": "function"
    },
    {
      "constant": false,
      "inputs": [],
      "name": "log",
      "outputs": [],
      "payable": false,
      "stateMutability": "nonpayable",
      "type": "function"
    },
    {
      "constant": true,
      "inputs": [],
      "name": "open",
      "outputs": [
        {
          "name": "",
          "type": "bool"
        }
      ],
      "payable": false,
      "stateMutability": "view",
      "type": "function"
    },
    {
      "constant": true,
      "inputs": [],
      "name": "active_",
      "outputs": [
        {
          "name": "",
          "type": "bool"
        }
      ],
      "payable": false,
      "stateMutability": "view",
      "type": "function"
    },
    {
      "constant": true,
      "inputs": [],
      "name": "totalVotes_",
      "outputs": [
        {
          "name": "",
          "type": "uint256"
        }
      ],
      "payable": false,
      "stateMutability": "view",
      "type": "function"
    },
    {
      "constant": true,
      "inputs": [],
      "name": "closingTime_",
      "outputs": [
        {
          "name": "",
          "type": "uint256"
        }
      ],
      "payable": false,
      "stateMutability": "view",
      "type": "function"
    },
    {
      "constant": true,
      "inputs": [],
      "name": "developerTokens_",
      "outputs": [
        {
          "name": "",
          "type": "uint256"
        }
      ],
      "payable": false,
      "stateMutability": "view",
      "type": "function"
    },
    {
      "constant": true,
      "inputs": [],
      "name": "investorTokens_",
      "outputs": [
        {
          "name": "",
          "type": "uint256"
        }
      ],
      "payable": false,
      "stateMutability": "view",
      "type": "function"
    },
    {
      "constant": true,
      "inputs": [],
      "name": "capitalRequired_",
      "outputs": [
        {
          "name": "",
          "type": "uint256"
        }
      ],
      "payable": false,
      "stateMutability": "view",
      "type": "function"
    },
    {
      "constant": false,
      "inputs": [],
      "name": "deposit",
      "outputs": [],
      "payable": true,
      "stateMutability": "payable",
      "type": "function"
    },
    {
      "constant": false,
      "inputs": [
        {
          "name": "manager",
          "type": "address"
        }
      ],
      "name": "addManager",
      "outputs": [],
      "payable": false,
      "stateMutability": "nonpayable",
      "type": "function"
    },
    {
      "constant": false,
      "inputs": [
        {
          "name": "wallet",
          "type": "address"
        }
      ],
      "name": "setDividendWallet",
      "outputs": [],
      "payable": false,
      "stateMutability": "nonpayable",
      "type": "function"
    },
    {
      "constant": false,
      "inputs": [
        {
          "name": "voter",
          "type": "address"
        },
        {
          "name": "voteAmount",
          "type": "uint256"
        }
      ],
      "name": "vote",
      "outputs": [],
      "payable": false,
      "stateMutability": "nonpayable",
      "type": "function"
    },
    {
      "constant": false,
      "inputs": [
        {
          "name": "voter",
          "type": "address"
        },
        {
          "name": "voteAmount",
          "type": "uint256"
        }
      ],
      "name": "removeVotes",
      "outputs": [],
      "payable": false,
      "stateMutability": "nonpayable",
      "type": "function"
    },
    {
      "constant": false,
      "inputs": [],
      "name": "activate",
      "outputs": [],
      "payable": false,
      "stateMutability": "nonpayable",
      "type": "function"
    },
    {
      "constant": true,
      "inputs": [
        {
          "name": "otherProject",
          "type": "address"
        }
      ],
      "name": "beats",
      "outputs": [
        {
          "name": "",
          "type": "bool"
        }
      ],
      "payable": false,
      "stateMutability": "view",
      "type": "function"
    }
  ],
  "bytecode": "0x60806040523480156200001157600080fd5b50604051620014693803806200146983398101806040528101908080518201929190602001805190602001909291908051906020019092919080519060200190929190805190602001909291908051906020019092919080519060200190929190805182019291906020018051820192919050505088600090805190602001906200009e929190620001ae565b5087600160006101000a81548173ffffffffffffffffffffffffffffffffffffffff021916908373ffffffffffffffffffffffffffffffffffffffff16021790555086600260006101000a81548173ffffffffffffffffffffffffffffffffffffffff021916908373ffffffffffffffffffffffffffffffffffffffff16021790555085600481905550846005819055508360068190555082600781905550816008908051906020019062000155929190620001ae565b5080600990805190602001906200016e929190620001ae565b506000600a819055506000600b60006101000a81548160ff02191690831515021790555063013d238042016003819055505050505050505050506200025d565b828054600181600116156101000203166002900490600052602060002090601f016020900481019282601f10620001f157805160ff191683800117855562000222565b8280016001018555821562000222579182015b828111156200022157825182559160200191906001019062000204565b5b50905062000231919062000235565b5090565b6200025a91905b80821115620002565760008160009055506001016200023c565b5090565b90565b6111fc806200026d6000396000f300608060405260043610610107576000357c0100000000000000000000000000000000000000000000000000000000900463ffffffff16806302fb0c5e1461010c5780630f15f4c01461013b578063272666e3146101525780632d06177a1461017d5780634d7c09dd146101c057806351973ec9146101ef57806355d576cc146102065780635b184f88146102965780635f74bbde146102d9578063705c5be51461032657806379ec5d3a14610381578063929aebdf146103d8578063b0e0116414610403578063c78243cf1461045a578063ce6a088014610485578063d0e30db0146104d2578063d4cf7db6146104dc578063d705f38714610507578063fcfff16f14610532575b600080fd5b34801561011857600080fd5b50610121610561565b604051808215151515815260200191505060405180910390f35b34801561014757600080fd5b50610150610574565b005b34801561015e57600080fd5b506101676106ae565b6040518082815260200191505060405180910390f35b34801561018957600080fd5b506101be600480360381019080803573ffffffffffffffffffffffffffffffffffffffff1690602001909291905050506106b8565b005b3480156101cc57600080fd5b506101d56107ca565b604051808215151515815260200191505060405180910390f35b3480156101fb57600080fd5b506102046107e1565b005b34801561021257600080fd5b5061021b610a34565b6040518080602001828103825283818151815260200191508051906020019080838360005b8381101561025b578082015181840152602081019050610240565b50505050905090810190601f1680156102885780820380516001836020036101000a031916815260200191505b509250505060405180910390f35b3480156102a257600080fd5b506102d7600480360381019080803573ffffffffffffffffffffffffffffffffffffffff169060200190929190505050610ad2565b005b3480156102e557600080fd5b50610324600480360381019080803573ffffffffffffffffffffffffffffffffffffffff16906020019092919080359060200190929190505050610bcd565b005b34801561033257600080fd5b50610367600480360381019080803573ffffffffffffffffffffffffffffffffffffffff169060200190929190505050610d96565b604051808215151515815260200191505060405180910390f35b34801561038d57600080fd5b506103c2600480360381019080803573ffffffffffffffffffffffffffffffffffffffff169060200190929190505050610e50565b6040518082815260200191505060405180910390f35b3480156103e457600080fd5b506103ed610e99565b6040518082815260200191505060405180910390f35b34801561040f57600080fd5b50610418610ea3565b604051808273ffffffffffffffffffffffffffffffffffffffff1673ffffffffffffffffffffffffffffffffffffffff16815260200191505060405180910390f35b34801561046657600080fd5b5061046f610ec9565b6040518082815260200191505060405180910390f35b34801561049157600080fd5b506104d0600480360381019080803573ffffffffffffffffffffffffffffffffffffffff16906020019092919080359060200190929190505050610ed3565b005b6104da6110fb565b005b3480156104e857600080fd5b506104f161117b565b6040518082815260200191505060405180910390f35b34801561051357600080fd5b5061051c611185565b6040518082815260200191505060405180910390f35b34801561053e57600080fd5b5061054761118f565b604051808215151515815260200191505060405180910390f35b600b60009054906101000a900460ff1681565b6001600b60006101000a81548160ff0219169083151502179055507fbb68ecd801c9a6b91d3a2dfeb388cd808da6c2d25461274ca796905fd9236f58306000600b60009054906101000a900460ff16600554600454604051808673ffffffffffffffffffffffffffffffffffffffff1673ffffffffffffffffffffffffffffffffffffffff168152602001806020018515151515815260200184815260200183815260200182810382528681815460018160011615610100020316600290048152602001915080546001816001161561010002031660029004801561069a5780601f1061066f5761010080835404028352916020019161069a565b820191906000526020600020905b81548152906001019060200180831161067d57829003601f168201915b5050965050505050505060405180910390a1565b6000600354905090565b60011515600d60003373ffffffffffffffffffffffffffffffffffffffff1673ffffffffffffffffffffffffffffffffffffffff16815260200190815260200160002060009054906101000a900460ff16151514806107645750600160009054906101000a900473ffffffffffffffffffffffffffffffffffffffff1673ffffffffffffffffffffffffffffffffffffffff163373ffffffffffffffffffffffffffffffffffffffff16145b151561076f57600080fd5b6001600d60008373ffffffffffffffffffffffffffffffffffffffff1673ffffffffffffffffffffffffffffffffffffffff16815260200190815260200160002060006101000a81548160ff02191690831515021790555050565b6000600b60009054906101000a900460ff16905090565b7f618aac77ac61fdbff533123688fa5e33fe0d021db44eac318ae37b90c6f71d5630600060045460055460065460075460086009600a54600b60009054906101000a900460ff16604051808b73ffffffffffffffffffffffffffffffffffffffff1673ffffffffffffffffffffffffffffffffffffffff168152602001806020018a815260200189815260200188815260200187815260200180602001806020018681526020018515151515815260200184810384528d8181546001816001161561010002031660029004815260200191508054600181600116156101000203166002900480156109135780601f106108e857610100808354040283529160200191610913565b820191906000526020600020905b8154815290600101906020018083116108f657829003601f168201915b50508481038352888181546001816001161561010002031660029004815260200191508054600181600116156101000203166002900480156109965780601f1061096b57610100808354040283529160200191610996565b820191906000526020600020905b81548152906001019060200180831161097957829003601f168201915b5050848103825287818154600181600116156101000203166002900481526020019150805460018160011615610100020316600290048015610a195780601f106109ee57610100808354040283529160200191610a19565b820191906000526020600020905b8154815290600101906020018083116109fc57829003601f168201915b50509d505050505050505050505050505060405180910390a1565b60088054600181600116156101000203166002900480601f016020809104026020016040519081016040528092919081815260200182805460018160011615610100020316600290048015610aca5780601f10610a9f57610100808354040283529160200191610aca565b820191906000526020600020905b815481529060010190602001808311610aad57829003601f168201915b505050505081565b60011515600d60003373ffffffffffffffffffffffffffffffffffffffff1673ffffffffffffffffffffffffffffffffffffffff16815260200190815260200160002060009054906101000a900460ff1615151480610b7e5750600160009054906101000a900473ffffffffffffffffffffffffffffffffffffffff1673ffffffffffffffffffffffffffffffffffffffff163373ffffffffffffffffffffffffffffffffffffffff16145b1515610b8957600080fd5b80600260006101000a81548173ffffffffffffffffffffffffffffffffffffffff021916908373ffffffffffffffffffffffffffffffffffffffff16021790555050565b610c1f81600c60008573ffffffffffffffffffffffffffffffffffffffff1673ffffffffffffffffffffffffffffffffffffffff1681526020019081526020016000205461119b90919063ffffffff16565b600c60008473ffffffffffffffffffffffffffffffffffffffff1673ffffffffffffffffffffffffffffffffffffffff16815260200190815260200160002081905550610c7781600a5461119b90919063ffffffff16565b600a81905550610c9461a8c060035461119b90919063ffffffff16565b6003819055507fcf9b861cde9b2e35562b9c022cf860169c6ef8df3f29b757e508509057e8c2ab306000600a54604051808473ffffffffffffffffffffffffffffffffffffffff1673ffffffffffffffffffffffffffffffffffffffff16815260200180602001838152602001828103825284818154600181600116156101000203166002900481526020019150805460018160011615610100020316600290048015610d825780601f10610d5757610100808354040283529160200191610d82565b820191906000526020600020905b815481529060010190602001808311610d6557829003601f168201915b505094505050505060405180910390a15050565b600080600a54118015610e4957508173ffffffffffffffffffffffffffffffffffffffff1663c78243cf6040518163ffffffff167c0100000000000000000000000000000000000000000000000000000000028152600401602060405180830381600087803b158015610e0857600080fd5b505af1158015610e1c573d6000803e3d6000fd5b505050506040513d6020811015610e3257600080fd5b8101908080519060200190929190505050600a5410155b9050919050565b6000600c60008373ffffffffffffffffffffffffffffffffffffffff1673ffffffffffffffffffffffffffffffffffffffff168152602001908152602001600020549050919050565b6000600654905090565b600260009054906101000a900473ffffffffffffffffffffffffffffffffffffffff1681565b6000600a54905090565b600a548111151515610ee457600080fd5b600c60008373ffffffffffffffffffffffffffffffffffffffff1673ffffffffffffffffffffffffffffffffffffffff168152602001908152602001600020548111151515610f3257600080fd5b610f8481600c60008573ffffffffffffffffffffffffffffffffffffffff1673ffffffffffffffffffffffffffffffffffffffff168152602001908152602001600020546111b790919063ffffffff16565b600c60008473ffffffffffffffffffffffffffffffffffffffff1673ffffffffffffffffffffffffffffffffffffffff16815260200190815260200160002081905550610fdc81600a546111b790919063ffffffff16565b600a81905550610ff961a8c06003546111b790919063ffffffff16565b6003819055507fcf9b861cde9b2e35562b9c022cf860169c6ef8df3f29b757e508509057e8c2ab306000600a54604051808473ffffffffffffffffffffffffffffffffffffffff1673ffffffffffffffffffffffffffffffffffffffff168152602001806020018381526020018281038252848181546001816001161561010002031660029004815260200191508054600181600116156101000203166002900480156110e75780601f106110bc576101008083540402835291602001916110e7565b820191906000526020600020905b8154815290600101906020018083116110ca57829003601f168201915b505094505050505060405180910390a15050565b600080341415151561110c57600080fd5b349050600260009054906101000a900473ffffffffffffffffffffffffffffffffffffffff1673ffffffffffffffffffffffffffffffffffffffff166108fc829081150290604051600060405180830381858888f19350505050158015611177573d6000803e3d6000fd5b5050565b6000600554905090565b6000600754905090565b60004260035411905090565b600081830190508281101515156111ae57fe5b80905092915050565b60008282111515156111c557fe5b8183039050929150505600a165627a7a7230582049622acab0d6fdd5ecf293bdcfd936eff243a9b95efefdcec9c38697743c718f0029",
  "source": "pragma solidity ^0.4.23;\nimport './utility/SafeMath.sol';\n\ncontract Project {\n  using SafeMath for uint256;\n  //these will all need to be private so they cannot be set arbitrarily\n  //we'll make read methods when necessary\n  string private name;\n  address private developer;\n  address public dividendWallet;\n  uint256 internal closingTime;\n  uint256 private valuation;\n  uint256 private capitalRequired;\n  uint256 private developerTokens;\n  uint256 private investorTokens;\n  string public lat;\n  string private lng;\n  uint256 internal totalVotes;\n  bool public active;\n  constructor (\n    string _name,\n    address _developer,\n    address _dividendWallet,\n    uint256 _valuation,\n    uint256 _capitalRequired,\n    uint256 _developerTokens,\n    uint256 _investorTokens,\n    string _lat,\n    string _lng\n    ) public {\n      name = _name;\n      developer = _developer;\n      dividendWallet = _dividendWallet;\n      valuation = _valuation;\n      capitalRequired = _capitalRequired;\n      developerTokens = _developerTokens;\n      investorTokens = _investorTokens;\n      lat = _lat;\n      lng = _lng;\n      totalVotes = 0;\n      active = false;\n      closingTime = now + 86600 * 240;\n  }\n  event LogProject (\n      address addr,\n      string name,\n      uint256 valuation,\n      uint256 capitalRequired,\n      uint256 developerTokens,\n      uint256 investorTokens,\n      string lat,\n      string lng,\n      uint256 totalVotes,\n      bool active\n  );\n\n  event VoteChange (\n    address addr,\n    string name,\n    uint256 totalVotes\n  );\n\n  event ProjectActivation (\n    address addr,\n    string name,\n    bool activationStatus,\n    uint256 capitalRequired,\n    uint256 valuation\n  );\n\n  mapping(address => uint256) internal votes;\n\n  function votesOf(address voter) public view returns (uint256) {\n    return votes[voter];\n  }\n\n  function log () public {\n    emit LogProject(address(this), name, valuation, capitalRequired, developerTokens, investorTokens, lat, lng, totalVotes, active);\n  }\n\n  function open () public view returns (bool) {\n    return closingTime > now;\n  }\n\n  /* function id_ () public view returns (uint256) {\n    return id;\n  } */\n\n  function active_ () public view returns (bool) {\n    return active;\n  }\n\n  function totalVotes_ () public view returns (uint256) {\n    return totalVotes;\n  }\n\n  function closingTime_ () public view returns (uint256) {\n    return closingTime;\n  }\n\n  function developerTokens_ () public view returns (uint256) {\n    return developerTokens;\n  }\n\n  function investorTokens_ () public view returns (uint256) {\n    return investorTokens;\n  }\n\n  function capitalRequired_ () public view returns (uint256) {\n    return capitalRequired;\n  }\n\n  /* function getInfo() public view returns(\n      string, uint256, uint256, uint256, uint256, bool, uint256, uint256\n      ) {\n      return (\n          name,\n          valuation,\n          capitalRequired,\n          developerTokens,\n          investorTokens,\n          active,\n          totalVotes,\n          closingTime\n      );\n  } */\n\n  mapping(address => bool) internal managers;\n\n  modifier authorize () {\n    require(managers[msg.sender] == true || msg.sender == developer);\n    _;\n  }\n\n  function deposit () public payable {\n    require(msg.value != 0);\n    uint256 weiAmount = msg.value;\n    dividendWallet.transfer(weiAmount);\n  }\n\n  function addManager (address manager) public authorize {\n    managers[manager] = true;\n  }\n\n  function setDividendWallet (address wallet) public authorize {\n    dividendWallet = wallet;\n  }\n  //for security, we will make this contract owned by GNITokenCrowdsale and require that msg.sender is the owner for update and activate\n  function vote (address voter, uint256 voteAmount) external {\n    //maybe require that its open and not active\n    votes[voter] = votes[voter].add(voteAmount);\n    totalVotes = totalVotes.add(voteAmount);\n    closingTime = closingTime.add(43200);\n    \n    emit VoteChange(address(this), name, totalVotes);\n  }\n\n  //for security, we will make this contract owned by GNITokenCrowdsale and require that msg.sender is the owner for update and activate\n  function removeVotes (address voter, uint256 voteAmount) external {\n    require(voteAmount <= totalVotes);\n    require(voteAmount <= votes[voter]);\n\n    votes[voter] = votes[voter].sub(voteAmount);\n    totalVotes = totalVotes.sub(voteAmount);\n    closingTime = closingTime.sub(43200);\n\n    emit VoteChange(address(this), name, totalVotes);\n  }\n\n  function activate () external {\n    active = true;\n    emit ProjectActivation(address(this), name, active, capitalRequired, valuation);\n  }\n\n  function beats (address otherProject) public view returns (bool) {\n    return totalVotes > 0 && totalVotes >= Project(otherProject).totalVotes_();\n      /* open() && *///we dont need this if we remove all votes for projects that are closed\n      /* totalVotes >= Project(otherProject).totalVotes_() */\n      //we dont need to check if the competitor is active because an active project always has 0 votes\n  }\n}\n",
  "sourcePath": "/Users/steven/genie-portal/truffle/contracts/Project.sol",
  "compiler": {
    "name": "solc",
    "version": "0.4.24+commit.e67f0147.Emscripten.clang"
  },
  "schemaVersion": "2.0.1",
  "updatedAt": "2018-12-23T03:12:20.848Z"
}