{
  "contractName": "Project",
  "abi": [
    {
      "constant": true,
      "inputs": [],
      "name": "investorTokens",
      "outputs": [
        {
          "name": "",
          "type": "uint256"
        }
      ],
      "payable": false,
      "stateMutability": "view",
      "type": "function"
    },
    {
      "constant": true,
      "inputs": [],
      "name": "lng",
      "outputs": [
        {
          "name": "",
          "type": "string"
        }
      ],
      "payable": false,
      "stateMutability": "view",
      "type": "function"
    },
    {
      "constant": true,
      "inputs": [],
      "name": "active",
      "outputs": [
        {
          "name": "",
          "type": "bool"
        }
      ],
      "payable": false,
      "stateMutability": "view",
      "type": "function"
    },
    {
      "constant": true,
      "inputs": [],
      "name": "name",
      "outputs": [
        {
          "name": "",
          "type": "string"
        }
      ],
      "payable": false,
      "stateMutability": "view",
      "type": "function"
    },
    {
      "constant": true,
      "inputs": [],
      "name": "valuation",
      "outputs": [
        {
          "name": "",
          "type": "uint256"
        }
      ],
      "payable": false,
      "stateMutability": "view",
      "type": "function"
    },
    {
      "constant": true,
      "inputs": [],
      "name": "dividends",
      "outputs": [
        {
          "name": "",
          "type": "address"
        }
      ],
      "payable": false,
      "stateMutability": "view",
      "type": "function"
    },
    {
      "constant": true,
      "inputs": [],
      "name": "closingTime",
      "outputs": [
        {
          "name": "",
          "type": "uint256"
        }
      ],
      "payable": false,
      "stateMutability": "view",
      "type": "function"
    },
    {
      "constant": true,
      "inputs": [],
      "name": "lat",
      "outputs": [
        {
          "name": "",
          "type": "string"
        }
      ],
      "payable": false,
      "stateMutability": "view",
      "type": "function"
    },
    {
      "constant": true,
      "inputs": [],
      "name": "developerTokens",
      "outputs": [
        {
          "name": "",
          "type": "uint256"
        }
      ],
      "payable": false,
      "stateMutability": "view",
      "type": "function"
    },
    {
      "constant": true,
      "inputs": [],
      "name": "id",
      "outputs": [
        {
          "name": "",
          "type": "uint256"
        }
      ],
      "payable": false,
      "stateMutability": "view",
      "type": "function"
    },
    {
      "constant": true,
      "inputs": [],
      "name": "voteCount",
      "outputs": [
        {
          "name": "",
          "type": "uint256"
        }
      ],
      "payable": false,
      "stateMutability": "view",
      "type": "function"
    },
    {
      "constant": true,
      "inputs": [],
      "name": "developer",
      "outputs": [
        {
          "name": "",
          "type": "address"
        }
      ],
      "payable": false,
      "stateMutability": "view",
      "type": "function"
    },
    {
      "constant": true,
      "inputs": [],
      "name": "capitalRequired",
      "outputs": [
        {
          "name": "",
          "type": "uint256"
        }
      ],
      "payable": false,
      "stateMutability": "view",
      "type": "function"
    },
    {
      "inputs": [
        {
          "name": "_id",
          "type": "uint256"
        },
        {
          "name": "_name",
          "type": "string"
        },
        {
          "name": "_developer",
          "type": "address"
        },
        {
          "name": "_valuation",
          "type": "uint256"
        },
        {
          "name": "_capitalRequired",
          "type": "uint256"
        },
        {
          "name": "_developerTokens",
          "type": "uint256"
        },
        {
          "name": "_investorTokens",
          "type": "uint256"
        },
        {
          "name": "_lat",
          "type": "string"
        },
        {
          "name": "_lng",
          "type": "string"
        }
      ],
      "payable": false,
      "stateMutability": "nonpayable",
      "type": "constructor"
    },
    {
      "anonymous": false,
      "inputs": [
        {
          "indexed": false,
          "name": "id",
          "type": "uint256"
        },
        {
          "indexed": false,
          "name": "name",
          "type": "string"
        },
        {
          "indexed": false,
          "name": "valuation",
          "type": "uint256"
        },
        {
          "indexed": false,
          "name": "capitalRequired",
          "type": "uint256"
        },
        {
          "indexed": false,
          "name": "developerTokens",
          "type": "uint256"
        },
        {
          "indexed": false,
          "name": "investorTokens",
          "type": "uint256"
        },
        {
          "indexed": false,
          "name": "lat",
          "type": "string"
        },
        {
          "indexed": false,
          "name": "lng",
          "type": "string"
        },
        {
          "indexed": false,
          "name": "voteCount",
          "type": "uint256"
        },
        {
          "indexed": false,
          "name": "active",
          "type": "bool"
        }
      ],
      "name": "LogProject",
      "type": "event"
    },
    {
      "constant": false,
      "inputs": [],
      "name": "log",
      "outputs": [],
      "payable": false,
      "stateMutability": "nonpayable",
      "type": "function"
    },
    {
      "constant": true,
      "inputs": [],
      "name": "active_",
      "outputs": [
        {
          "name": "",
          "type": "bool"
        }
      ],
      "payable": false,
      "stateMutability": "view",
      "type": "function"
    },
    {
      "constant": true,
      "inputs": [],
      "name": "voteCount_",
      "outputs": [
        {
          "name": "",
          "type": "uint256"
        }
      ],
      "payable": false,
      "stateMutability": "view",
      "type": "function"
    },
    {
      "constant": true,
      "inputs": [],
      "name": "closingTime_",
      "outputs": [
        {
          "name": "",
          "type": "uint256"
        }
      ],
      "payable": false,
      "stateMutability": "view",
      "type": "function"
    },
    {
      "constant": true,
      "inputs": [],
      "name": "developerTokens_",
      "outputs": [
        {
          "name": "",
          "type": "uint256"
        }
      ],
      "payable": false,
      "stateMutability": "view",
      "type": "function"
    },
    {
      "constant": true,
      "inputs": [],
      "name": "investorTokens_",
      "outputs": [
        {
          "name": "",
          "type": "uint256"
        }
      ],
      "payable": false,
      "stateMutability": "view",
      "type": "function"
    },
    {
      "constant": true,
      "inputs": [],
      "name": "capitalRequired_",
      "outputs": [
        {
          "name": "",
          "type": "uint256"
        }
      ],
      "payable": false,
      "stateMutability": "view",
      "type": "function"
    },
    {
      "constant": false,
      "inputs": [],
      "name": "deposit",
      "outputs": [],
      "payable": true,
      "stateMutability": "payable",
      "type": "function"
    },
    {
      "constant": false,
      "inputs": [
        {
          "name": "manager",
          "type": "address"
        }
      ],
      "name": "addManager",
      "outputs": [],
      "payable": false,
      "stateMutability": "nonpayable",
      "type": "function"
    },
    {
      "constant": false,
      "inputs": [
        {
          "name": "wallet",
          "type": "address"
        }
      ],
      "name": "setDividendWallet",
      "outputs": [],
      "payable": false,
      "stateMutability": "nonpayable",
      "type": "function"
    },
    {
      "constant": false,
      "inputs": [
        {
          "name": "votes",
          "type": "uint256"
        }
      ],
      "name": "update",
      "outputs": [],
      "payable": false,
      "stateMutability": "nonpayable",
      "type": "function"
    },
    {
      "constant": false,
      "inputs": [],
      "name": "activate",
      "outputs": [],
      "payable": false,
      "stateMutability": "nonpayable",
      "type": "function"
    },
    {
      "constant": true,
      "inputs": [
        {
          "name": "otherProject",
          "type": "address"
        }
      ],
      "name": "beats",
      "outputs": [
        {
          "name": "",
          "type": "bool"
        }
      ],
      "payable": false,
      "stateMutability": "view",
      "type": "function"
    }
  ],
  "bytecode": "0x60806040523480156200001157600080fd5b506040516200132238038062001322833981018060405281019080805190602001909291908051820192919060200180519060200190929190805190602001909291908051906020019092919080519060200190929190805190602001909291908051820192919060200180518201929190505050886000819055508760019080519060200190620000a592919062000174565b5086600260006101000a81548173ffffffffffffffffffffffffffffffffffffffff021916908373ffffffffffffffffffffffffffffffffffffffff1602179055508560058190555084600681905550836007819055508260088190555081600990805190602001906200011b92919062000174565b5080600a90805190602001906200013492919062000174565b506000600b819055506000600c60006101000a81548160ff02191690831515021790555063013d2380420160048190555050505050505050505062000223565b828054600181600116156101000203166002900490600052602060002090601f016020900481019282601f10620001b757805160ff1916838001178555620001e8565b82800160010185558215620001e8579182015b82811115620001e7578251825591602001919060010190620001ca565b5b509050620001f79190620001fb565b5090565b6200022091905b808211156200021c57600081600090555060010162000202565b5090565b90565b6110ef80620002336000396000f300608060405260043610610153576000357c0100000000000000000000000000000000000000000000000000000000900463ffffffff1680624dcde514610158578063015e72ec1461018357806302fb0c5e1461021357806306fdde03146102425780630f15f4c0146102d257806321a7cfe4146102e9578063272666e3146103145780632d06177a1461033f57806335d97405146103825780634b6753bc146103d95780634d7c09dd1461040457806351973ec91461043357806355d576cc1461044a5780635b184f88146104da5780636417d7b01461051d578063705c5be51461054857806382ab890a146105a3578063929aebdf146105d0578063af640d0f146105fb578063c638407114610626578063ca4b208b14610651578063d0e30db0146106a8578063d4cf7db6146106b2578063d705f387146106dd578063ec61b08614610708578063f25874c814610733575b600080fd5b34801561016457600080fd5b5061016d61075e565b6040518082815260200191505060405180910390f35b34801561018f57600080fd5b50610198610764565b6040518080602001828103825283818151815260200191508051906020019080838360005b838110156101d85780820151818401526020810190506101bd565b50505050905090810190601f1680156102055780820380516001836020036101000a031916815260200191505b509250505060405180910390f35b34801561021f57600080fd5b50610228610802565b604051808215151515815260200191505060405180910390f35b34801561024e57600080fd5b50610257610815565b6040518080602001828103825283818151815260200191508051906020019080838360005b8381101561029757808201518184015260208101905061027c565b50505050905090810190601f1680156102c45780820380516001836020036101000a031916815260200191505b509250505060405180910390f35b3480156102de57600080fd5b506102e76108b3565b005b3480156102f557600080fd5b506102fe6108d8565b6040518082815260200191505060405180910390f35b34801561032057600080fd5b506103296108de565b6040518082815260200191505060405180910390f35b34801561034b57600080fd5b50610380600480360381019080803573ffffffffffffffffffffffffffffffffffffffff1690602001909291905050506108e8565b005b34801561038e57600080fd5b506103976109fa565b604051808273ffffffffffffffffffffffffffffffffffffffff1673ffffffffffffffffffffffffffffffffffffffff16815260200191505060405180910390f35b3480156103e557600080fd5b506103ee610a20565b6040518082815260200191505060405180910390f35b34801561041057600080fd5b50610419610a26565b604051808215151515815260200191505060405180910390f35b34801561043f57600080fd5b50610448610a3d565b005b34801561045657600080fd5b5061045f610c66565b6040518080602001828103825283818151815260200191508051906020019080838360005b8381101561049f578082015181840152602081019050610484565b50505050905090810190601f1680156104cc5780820380516001836020036101000a031916815260200191505b509250505060405180910390f35b3480156104e657600080fd5b5061051b600480360381019080803573ffffffffffffffffffffffffffffffffffffffff169060200190929190505050610d04565b005b34801561052957600080fd5b50610532610dff565b6040518082815260200191505060405180910390f35b34801561055457600080fd5b50610589600480360381019080803573ffffffffffffffffffffffffffffffffffffffff169060200190929190505050610e05565b604051808215151515815260200191505060405180910390f35b3480156105af57600080fd5b506105ce60048036038101908080359060200190929190505050610f8c565b005b3480156105dc57600080fd5b506105e5610fc7565b6040518082815260200191505060405180910390f35b34801561060757600080fd5b50610610610fd1565b6040518082815260200191505060405180910390f35b34801561063257600080fd5b5061063b610fd7565b6040518082815260200191505060405180910390f35b34801561065d57600080fd5b50610666610fdd565b604051808273ffffffffffffffffffffffffffffffffffffffff1673ffffffffffffffffffffffffffffffffffffffff16815260200191505060405180910390f35b6106b0611003565b005b3480156106be57600080fd5b506106c7611083565b6040518082815260200191505060405180910390f35b3480156106e957600080fd5b506106f261108d565b6040518082815260200191505060405180910390f35b34801561071457600080fd5b5061071d611097565b6040518082815260200191505060405180910390f35b34801561073f57600080fd5b5061074861109d565b6040518082815260200191505060405180910390f35b60085481565b600a8054600181600116156101000203166002900480601f0160208091040260200160405190810160405280929190818152602001828054600181600116156101000203166002900480156107fa5780601f106107cf576101008083540402835291602001916107fa565b820191906000526020600020905b8154815290600101906020018083116107dd57829003601f168201915b505050505081565b600c60009054906101000a900460ff1681565b60018054600181600116156101000203166002900480601f0160208091040260200160405190810160405280929190818152602001828054600181600116156101000203166002900480156108ab5780601f10610880576101008083540402835291602001916108ab565b820191906000526020600020905b81548152906001019060200180831161088e57829003601f168201915b505050505081565b6001600c60006101000a81548160ff0219169083151502179055506108d6610a3d565b565b60055481565b6000600454905090565b60011515600d60003373ffffffffffffffffffffffffffffffffffffffff1673ffffffffffffffffffffffffffffffffffffffff16815260200190815260200160002060009054906101000a900460ff16151514806109945750600260009054906101000a900473ffffffffffffffffffffffffffffffffffffffff1673ffffffffffffffffffffffffffffffffffffffff163373ffffffffffffffffffffffffffffffffffffffff16145b151561099f57600080fd5b6001600d60008373ffffffffffffffffffffffffffffffffffffffff1673ffffffffffffffffffffffffffffffffffffffff16815260200190815260200160002060006101000a81548160ff02191690831515021790555050565b600360009054906101000a900473ffffffffffffffffffffffffffffffffffffffff1681565b60045481565b6000600c60009054906101000a900460ff16905090565b7f2870b0d0558b1786ef247a7bb0787eaae7392b072f7ca327b464981f23fb0e9260005460016005546006546007546008546009600a600b54600c60009054906101000a900460ff16604051808b8152602001806020018a815260200189815260200188815260200187815260200180602001806020018681526020018515151515815260200184810384528d818154600181600116156101000203166002900481526020019150805460018160011615610100020316600290048015610b455780601f10610b1a57610100808354040283529160200191610b45565b820191906000526020600020905b815481529060010190602001808311610b2857829003601f168201915b5050848103835288818154600181600116156101000203166002900481526020019150805460018160011615610100020316600290048015610bc85780601f10610b9d57610100808354040283529160200191610bc8565b820191906000526020600020905b815481529060010190602001808311610bab57829003601f168201915b5050848103825287818154600181600116156101000203166002900481526020019150805460018160011615610100020316600290048015610c4b5780601f10610c2057610100808354040283529160200191610c4b565b820191906000526020600020905b815481529060010190602001808311610c2e57829003601f168201915b50509d505050505050505050505050505060405180910390a1565b60098054600181600116156101000203166002900480601f016020809104026020016040519081016040528092919081815260200182805460018160011615610100020316600290048015610cfc5780601f10610cd157610100808354040283529160200191610cfc565b820191906000526020600020905b815481529060010190602001808311610cdf57829003601f168201915b505050505081565b60011515600d60003373ffffffffffffffffffffffffffffffffffffffff1673ffffffffffffffffffffffffffffffffffffffff16815260200190815260200160002060009054906101000a900460ff1615151480610db05750600260009054906101000a900473ffffffffffffffffffffffffffffffffffffffff1673ffffffffffffffffffffffffffffffffffffffff163373ffffffffffffffffffffffffffffffffffffffff16145b1515610dbb57600080fd5b80600360006101000a81548173ffffffffffffffffffffffffffffffffffffffff021916908373ffffffffffffffffffffffffffffffffffffffff16021790555050565b60075481565b6000600c60009054906101000a900460ff16158015610e2657506000600b54115b8015610e33575042600454115b8015610edf57508173ffffffffffffffffffffffffffffffffffffffff1663f25874c86040518163ffffffff167c0100000000000000000000000000000000000000000000000000000000028152600401602060405180830381600087803b158015610e9e57600080fd5b505af1158015610eb2573d6000803e3d6000fd5b505050506040513d6020811015610ec857600080fd5b8101908080519060200190929190505050600b5410155b80610f8557508173ffffffffffffffffffffffffffffffffffffffff16634d7c09dd6040518163ffffffff167c0100000000000000000000000000000000000000000000000000000000028152600401602060405180830381600087803b158015610f4957600080fd5b505af1158015610f5d573d6000803e3d6000fd5b505050506040513d6020811015610f7357600080fd5b81019080805190602001909291905050505b9050919050565b610fa181600b546110a790919063ffffffff16565b600b81905550610fbe61a8c06004546110a790919063ffffffff16565b60048190555050565b6000600754905090565b60005481565b600b5481565b600260009054906101000a900473ffffffffffffffffffffffffffffffffffffffff1681565b600080341415151561101457600080fd5b349050600360009054906101000a900473ffffffffffffffffffffffffffffffffffffffff1673ffffffffffffffffffffffffffffffffffffffff166108fc829081150290604051600060405180830381858888f1935050505015801561107f573d6000803e3d6000fd5b5050565b6000600654905090565b6000600854905090565b60065481565b6000600b54905090565b600081830190508281101515156110ba57fe5b809050929150505600a165627a7a7230582092071eace2eb90172531967ad7ef3a4ce0847600a9994959a22a1fc45c51a67e0029",
  "source": "pragma solidity ^0.4.23;\nimport './utility/SafeMath.sol';\n\ncontract Project {\n  using SafeMath for uint256;\n  //these will all need to be private so they cannot be set arbitrarily\n  //we'll make read methods when necessary\n  uint256 public id; //this should be public?\n  string public name;\n  address public developer;\n  address public dividends;\n  uint256 public closingTime;\n  uint256 public valuation;\n  uint256 public capitalRequired;\n  uint256 public developerTokens;\n  uint256 public investorTokens;\n  string public lat;\n  string public lng;\n  uint256 public voteCount;\n  bool public active;\n\n  constructor (\n    uint256 _id,\n    string _name,\n    address _developer,\n    uint256 _valuation,\n    uint256 _capitalRequired,\n    uint256 _developerTokens,\n    uint256 _investorTokens,\n    string _lat,\n    string _lng\n    ) public {\n      id = _id;\n      name = _name;\n      developer = _developer;\n      valuation = _valuation;\n      capitalRequired = _capitalRequired;\n      developerTokens = _developerTokens;\n      investorTokens = _investorTokens;\n      lat = _lat;\n      lng = _lng;\n      voteCount = 0;\n      active = false;\n      closingTime = now + 86600 * 240;\n  }\n\n\n  event LogProject (\n      uint id,\n      string name,\n      uint256 valuation,\n      uint256 capitalRequired,\n      uint256 developerTokens,\n      uint256 investorTokens,\n      string lat,\n      string lng,\n      uint256 voteCount,\n      bool active\n  );\n\n  function log () public {\n    emit LogProject(id, name, valuation, capitalRequired, developerTokens, investorTokens, lat, lng, voteCount, active);\n  }\n\n  function active_ () public view returns (bool) {\n    return active;\n  }\n\n  function voteCount_ () public view returns (uint256) {\n    return voteCount;\n  }\n\n  function closingTime_ () public view returns (uint256) {\n    return closingTime;\n  }\n\n  function developerTokens_ () public view returns (uint256) {\n    return developerTokens;\n  }\n\n  function investorTokens_ () public view returns (uint256) {\n    return investorTokens;\n  }\n\n  function capitalRequired_ () public view returns (uint256) {\n    return capitalRequired;\n  }\n\n  /* function getInfo() public view returns(\n      string, uint256, uint256, uint256, uint256, bool, uint256, uint256\n      ) {\n      return (\n          name,\n          valuation,\n          capitalRequired,\n          developerTokens,\n          investorTokens,\n          active,\n          voteCount,\n          closingTime\n      );\n  } */\n  mapping(address => bool) managers;\n\n  modifier authorize () {\n    require(managers[msg.sender] == true || msg.sender == developer);\n    _;\n  }\n\n  function deposit () public payable {\n    require(msg.value != 0);\n    uint256 weiAmount = msg.value;\n    dividends.transfer(weiAmount);\n    /* crowdsale.transfer(msg.value); */\n  }\n\n  //will make this only developer\n  function addManager (address manager) public authorize {\n    managers[manager] = true;\n  }\n\n  //will make this only accessible to managers\n  function setDividendWallet (address wallet) public authorize {\n    dividends = wallet;\n  }\n\n  //for security, we will make this contract owned by GNITokenCrowdsale and require that msg.sender is the owner for update and activate\n  function update (uint256 votes) public {\n    voteCount = voteCount.add(votes);\n    closingTime = closingTime.add(43200);\n  }\n\n  function activate () public {\n    active = true;\n    log();\n  }\n\n  function beats (address otherProject) public view returns (bool) {\n    return (\n      !active &&\n      voteCount > 0 &&\n      closingTime > now &&\n      (voteCount >= Project(otherProject).voteCount_()) || Project(otherProject).active_()\n    );\n  }\n}\n",
  "sourcePath": "/Users/steven/genie-portal/truffle/contracts/Project.sol",
  "compiler": {
    "name": "solc",
    "version": "0.4.24+commit.e67f0147.Emscripten.clang"
  },
  "schemaVersion": "2.0.1",
  "updatedAt": "2018-10-26T00:19:11.515Z"
}