{
  "contractName": "Project",
  "abi": [
    {
      "constant": true,
      "inputs": [],
      "name": "active",
      "outputs": [
        {
          "name": "",
          "type": "bool"
        }
      ],
      "payable": false,
      "stateMutability": "view",
      "type": "function"
    },
    {
      "constant": true,
      "inputs": [],
      "name": "lat",
      "outputs": [
        {
          "name": "",
          "type": "string"
        }
      ],
      "payable": false,
      "stateMutability": "view",
      "type": "function"
    },
    {
      "constant": true,
      "inputs": [],
      "name": "dividendWallet",
      "outputs": [
        {
          "name": "",
          "type": "address"
        }
      ],
      "payable": false,
      "stateMutability": "view",
      "type": "function"
    },
    {
      "inputs": [
        {
          "name": "_id",
          "type": "uint256"
        },
        {
          "name": "_name",
          "type": "string"
        },
        {
          "name": "_developer",
          "type": "address"
        },
        {
          "name": "_dividendWallet",
          "type": "address"
        },
        {
          "name": "_valuation",
          "type": "uint256"
        },
        {
          "name": "_capitalRequired",
          "type": "uint256"
        },
        {
          "name": "_developerTokens",
          "type": "uint256"
        },
        {
          "name": "_investorTokens",
          "type": "uint256"
        },
        {
          "name": "_lat",
          "type": "string"
        },
        {
          "name": "_lng",
          "type": "string"
        }
      ],
      "payable": false,
      "stateMutability": "nonpayable",
      "type": "constructor"
    },
    {
      "anonymous": false,
      "inputs": [
        {
          "indexed": false,
          "name": "id",
          "type": "uint256"
        },
        {
          "indexed": false,
          "name": "name",
          "type": "string"
        },
        {
          "indexed": false,
          "name": "valuation",
          "type": "uint256"
        },
        {
          "indexed": false,
          "name": "capitalRequired",
          "type": "uint256"
        },
        {
          "indexed": false,
          "name": "developerTokens",
          "type": "uint256"
        },
        {
          "indexed": false,
          "name": "investorTokens",
          "type": "uint256"
        },
        {
          "indexed": false,
          "name": "lat",
          "type": "string"
        },
        {
          "indexed": false,
          "name": "lng",
          "type": "string"
        },
        {
          "indexed": false,
          "name": "totalVotes",
          "type": "uint256"
        },
        {
          "indexed": false,
          "name": "active",
          "type": "bool"
        }
      ],
      "name": "LogProject",
      "type": "event"
    },
    {
      "constant": true,
      "inputs": [
        {
          "name": "voter",
          "type": "address"
        }
      ],
      "name": "votesOf",
      "outputs": [
        {
          "name": "",
          "type": "uint256"
        }
      ],
      "payable": false,
      "stateMutability": "view",
      "type": "function"
    },
    {
      "constant": false,
      "inputs": [],
      "name": "log",
      "outputs": [],
      "payable": false,
      "stateMutability": "nonpayable",
      "type": "function"
    },
    {
      "constant": true,
      "inputs": [],
      "name": "open",
      "outputs": [
        {
          "name": "",
          "type": "bool"
        }
      ],
      "payable": false,
      "stateMutability": "view",
      "type": "function"
    },
    {
      "constant": true,
      "inputs": [],
      "name": "id_",
      "outputs": [
        {
          "name": "",
          "type": "uint256"
        }
      ],
      "payable": false,
      "stateMutability": "view",
      "type": "function"
    },
    {
      "constant": true,
      "inputs": [],
      "name": "active_",
      "outputs": [
        {
          "name": "",
          "type": "bool"
        }
      ],
      "payable": false,
      "stateMutability": "view",
      "type": "function"
    },
    {
      "constant": true,
      "inputs": [],
      "name": "totalVotes_",
      "outputs": [
        {
          "name": "",
          "type": "uint256"
        }
      ],
      "payable": false,
      "stateMutability": "view",
      "type": "function"
    },
    {
      "constant": true,
      "inputs": [],
      "name": "closingTime_",
      "outputs": [
        {
          "name": "",
          "type": "uint256"
        }
      ],
      "payable": false,
      "stateMutability": "view",
      "type": "function"
    },
    {
      "constant": true,
      "inputs": [],
      "name": "developerTokens_",
      "outputs": [
        {
          "name": "",
          "type": "uint256"
        }
      ],
      "payable": false,
      "stateMutability": "view",
      "type": "function"
    },
    {
      "constant": true,
      "inputs": [],
      "name": "investorTokens_",
      "outputs": [
        {
          "name": "",
          "type": "uint256"
        }
      ],
      "payable": false,
      "stateMutability": "view",
      "type": "function"
    },
    {
      "constant": true,
      "inputs": [],
      "name": "capitalRequired_",
      "outputs": [
        {
          "name": "",
          "type": "uint256"
        }
      ],
      "payable": false,
      "stateMutability": "view",
      "type": "function"
    },
    {
      "constant": false,
      "inputs": [],
      "name": "deposit",
      "outputs": [],
      "payable": true,
      "stateMutability": "payable",
      "type": "function"
    },
    {
      "constant": false,
      "inputs": [
        {
          "name": "manager",
          "type": "address"
        }
      ],
      "name": "addManager",
      "outputs": [],
      "payable": false,
      "stateMutability": "nonpayable",
      "type": "function"
    },
    {
      "constant": false,
      "inputs": [
        {
          "name": "wallet",
          "type": "address"
        }
      ],
      "name": "setDividendWallet",
      "outputs": [],
      "payable": false,
      "stateMutability": "nonpayable",
      "type": "function"
    },
    {
      "constant": false,
      "inputs": [
        {
          "name": "voter",
          "type": "address"
        },
        {
          "name": "voteAmount",
          "type": "uint256"
        }
      ],
      "name": "vote",
      "outputs": [],
      "payable": false,
      "stateMutability": "nonpayable",
      "type": "function"
    },
    {
      "constant": false,
      "inputs": [
        {
          "name": "voter",
          "type": "address"
        },
        {
          "name": "voteAmount",
          "type": "uint256"
        }
      ],
      "name": "removeVotes",
      "outputs": [],
      "payable": false,
      "stateMutability": "nonpayable",
      "type": "function"
    },
    {
      "constant": false,
      "inputs": [],
      "name": "activate",
      "outputs": [],
      "payable": false,
      "stateMutability": "nonpayable",
      "type": "function"
    },
    {
      "constant": true,
      "inputs": [
        {
          "name": "otherProject",
          "type": "address"
        }
      ],
      "name": "beats",
      "outputs": [
        {
          "name": "",
          "type": "bool"
        }
      ],
      "payable": false,
      "stateMutability": "view",
      "type": "function"
    }
  ],
  "bytecode": "0x60806040523480156200001157600080fd5b506040516200118b3803806200118b83398101806040528101908080519060200190929190805182019291906020018051906020019092919080519060200190929190805190602001909291908051906020019092919080519060200190929190805190602001909291908051820192919060200180518201929190505050896000819055508860019080519060200190620000af929190620001c0565b5087600260006101000a81548173ffffffffffffffffffffffffffffffffffffffff021916908373ffffffffffffffffffffffffffffffffffffffff16021790555086600360006101000a81548173ffffffffffffffffffffffffffffffffffffffff021916908373ffffffffffffffffffffffffffffffffffffffff16021790555085600581905550846006819055508360078190555082600881905550816009908051906020019062000166929190620001c0565b5080600a90805190602001906200017f929190620001c0565b506000600b819055506000600c60006101000a81548160ff02191690831515021790555063013d23804201600481905550505050505050505050506200026f565b828054600181600116156101000203166002900490600052602060002090601f016020900481019282601f106200020357805160ff191683800117855562000234565b8280016001018555821562000234579182015b828111156200023357825182559160200191906001019062000216565b5b50905062000243919062000247565b5090565b6200026c91905b80821115620002685760008160009055506001016200024e565b5090565b90565b610f0c806200027f6000396000f300608060405260043610610112576000357c0100000000000000000000000000000000000000000000000000000000900463ffffffff16806302fb0c5e146101175780630f15f4c014610146578063272666e31461015d5780632d06177a146101885780634d7c09dd146101cb57806351973ec9146101fa57806355d576cc146102115780635b184f88146102a15780635f74bbde146102e45780636f21983114610331578063705c5be51461035c57806379ec5d3a146103b7578063929aebdf1461040e578063b0e0116414610439578063c78243cf14610490578063ce6a0880146104bb578063d0e30db014610508578063d4cf7db614610512578063d705f3871461053d578063fcfff16f14610568575b600080fd5b34801561012357600080fd5b5061012c610597565b604051808215151515815260200191505060405180910390f35b34801561015257600080fd5b5061015b6105aa565b005b34801561016957600080fd5b506101726105cf565b6040518082815260200191505060405180910390f35b34801561019457600080fd5b506101c9600480360381019080803573ffffffffffffffffffffffffffffffffffffffff1690602001909291905050506105d9565b005b3480156101d757600080fd5b506101e06106eb565b604051808215151515815260200191505060405180910390f35b34801561020657600080fd5b5061020f610702565b005b34801561021d57600080fd5b5061022661092b565b6040518080602001828103825283818151815260200191508051906020019080838360005b8381101561026657808201518184015260208101905061024b565b50505050905090810190601f1680156102935780820380516001836020036101000a031916815260200191505b509250505060405180910390f35b3480156102ad57600080fd5b506102e2600480360381019080803573ffffffffffffffffffffffffffffffffffffffff1690602001909291905050506109c9565b005b3480156102f057600080fd5b5061032f600480360381019080803573ffffffffffffffffffffffffffffffffffffffff16906020019092919080359060200190929190505050610ac4565b005b34801561033d57600080fd5b50610346610b95565b6040518082815260200191505060405180910390f35b34801561036857600080fd5b5061039d600480360381019080803573ffffffffffffffffffffffffffffffffffffffff169060200190929190505050610b9e565b604051808215151515815260200191505060405180910390f35b3480156103c357600080fd5b506103f8600480360381019080803573ffffffffffffffffffffffffffffffffffffffff169060200190929190505050610c58565b6040518082815260200191505060405180910390f35b34801561041a57600080fd5b50610423610ca1565b6040518082815260200191505060405180910390f35b34801561044557600080fd5b5061044e610cab565b604051808273ffffffffffffffffffffffffffffffffffffffff1673ffffffffffffffffffffffffffffffffffffffff16815260200191505060405180910390f35b34801561049c57600080fd5b506104a5610cd1565b6040518082815260200191505060405180910390f35b3480156104c757600080fd5b50610506600480360381019080803573ffffffffffffffffffffffffffffffffffffffff16906020019092919080359060200190929190505050610cdb565b005b610510610e0b565b005b34801561051e57600080fd5b50610527610e8b565b6040518082815260200191505060405180910390f35b34801561054957600080fd5b50610552610e95565b6040518082815260200191505060405180910390f35b34801561057457600080fd5b5061057d610e9f565b604051808215151515815260200191505060405180910390f35b600c60009054906101000a900460ff1681565b6001600c60006101000a81548160ff0219169083151502179055506105cd610702565b565b6000600454905090565b60011515600e60003373ffffffffffffffffffffffffffffffffffffffff1673ffffffffffffffffffffffffffffffffffffffff16815260200190815260200160002060009054906101000a900460ff16151514806106855750600260009054906101000a900473ffffffffffffffffffffffffffffffffffffffff1673ffffffffffffffffffffffffffffffffffffffff163373ffffffffffffffffffffffffffffffffffffffff16145b151561069057600080fd5b6001600e60008373ffffffffffffffffffffffffffffffffffffffff1673ffffffffffffffffffffffffffffffffffffffff16815260200190815260200160002060006101000a81548160ff02191690831515021790555050565b6000600c60009054906101000a900460ff16905090565b7f2870b0d0558b1786ef247a7bb0787eaae7392b072f7ca327b464981f23fb0e9260005460016005546006546007546008546009600a600b54600c60009054906101000a900460ff16604051808b8152602001806020018a815260200189815260200188815260200187815260200180602001806020018681526020018515151515815260200184810384528d81815460018160011615610100020316600290048152602001915080546001816001161561010002031660029004801561080a5780601f106107df5761010080835404028352916020019161080a565b820191906000526020600020905b8154815290600101906020018083116107ed57829003601f168201915b505084810383528881815460018160011615610100020316600290048152602001915080546001816001161561010002031660029004801561088d5780601f106108625761010080835404028352916020019161088d565b820191906000526020600020905b81548152906001019060200180831161087057829003601f168201915b50508481038252878181546001816001161561010002031660029004815260200191508054600181600116156101000203166002900480156109105780601f106108e557610100808354040283529160200191610910565b820191906000526020600020905b8154815290600101906020018083116108f357829003601f168201915b50509d505050505050505050505050505060405180910390a1565b60098054600181600116156101000203166002900480601f0160208091040260200160405190810160405280929190818152602001828054600181600116156101000203166002900480156109c15780601f10610996576101008083540402835291602001916109c1565b820191906000526020600020905b8154815290600101906020018083116109a457829003601f168201915b505050505081565b60011515600e60003373ffffffffffffffffffffffffffffffffffffffff1673ffffffffffffffffffffffffffffffffffffffff16815260200190815260200160002060009054906101000a900460ff1615151480610a755750600260009054906101000a900473ffffffffffffffffffffffffffffffffffffffff1673ffffffffffffffffffffffffffffffffffffffff163373ffffffffffffffffffffffffffffffffffffffff16145b1515610a8057600080fd5b80600360006101000a81548173ffffffffffffffffffffffffffffffffffffffff021916908373ffffffffffffffffffffffffffffffffffffffff16021790555050565b610b1681600d60008573ffffffffffffffffffffffffffffffffffffffff1673ffffffffffffffffffffffffffffffffffffffff16815260200190815260200160002054610eab90919063ffffffff16565b600d60008473ffffffffffffffffffffffffffffffffffffffff1673ffffffffffffffffffffffffffffffffffffffff16815260200190815260200160002081905550610b6e81600b54610eab90919063ffffffff16565b600b81905550610b8b61a8c0600454610eab90919063ffffffff16565b6004819055505050565b60008054905090565b600080600b54118015610c5157508173ffffffffffffffffffffffffffffffffffffffff1663c78243cf6040518163ffffffff167c0100000000000000000000000000000000000000000000000000000000028152600401602060405180830381600087803b158015610c1057600080fd5b505af1158015610c24573d6000803e3d6000fd5b505050506040513d6020811015610c3a57600080fd5b8101908080519060200190929190505050600b5410155b9050919050565b6000600d60008373ffffffffffffffffffffffffffffffffffffffff1673ffffffffffffffffffffffffffffffffffffffff168152602001908152602001600020549050919050565b6000600754905090565b600360009054906101000a900473ffffffffffffffffffffffffffffffffffffffff1681565b6000600b54905090565b600b548111151515610cec57600080fd5b600d60008373ffffffffffffffffffffffffffffffffffffffff1673ffffffffffffffffffffffffffffffffffffffff168152602001908152602001600020548111151515610d3a57600080fd5b610d8c81600d60008573ffffffffffffffffffffffffffffffffffffffff1673ffffffffffffffffffffffffffffffffffffffff16815260200190815260200160002054610ec790919063ffffffff16565b600d60008473ffffffffffffffffffffffffffffffffffffffff1673ffffffffffffffffffffffffffffffffffffffff16815260200190815260200160002081905550610de481600b54610ec790919063ffffffff16565b600b81905550610e0161a8c0600454610ec790919063ffffffff16565b6004819055505050565b6000803414151515610e1c57600080fd5b349050600360009054906101000a900473ffffffffffffffffffffffffffffffffffffffff1673ffffffffffffffffffffffffffffffffffffffff166108fc829081150290604051600060405180830381858888f19350505050158015610e87573d6000803e3d6000fd5b5050565b6000600654905090565b6000600854905090565b60004260045411905090565b60008183019050828110151515610ebe57fe5b80905092915050565b6000828211151515610ed557fe5b8183039050929150505600a165627a7a72305820ac1337ced429a865a01451d43aac2db7e9fbf32ae8ba25010963d41831b3717b0029",
  "source": "pragma solidity ^0.4.23;\nimport './utility/SafeMath.sol';\ncontract Project {\n  using SafeMath for uint256;\n  //these will all need to be private so they cannot be set arbitrarily\n  //we'll make read methods when necessary\n  uint256 private id; //this should be public?\n  string private name;\n  address private developer;\n  address public dividendWallet;\n  uint256 internal closingTime;\n  uint256 private valuation;\n  uint256 private capitalRequired;\n  uint256 private developerTokens;\n  uint256 private investorTokens;\n  string public lat;\n  string private lng;\n  uint256 internal totalVotes;\n  bool public active;\n  constructor (\n    uint256 _id,\n    string _name,\n    address _developer,\n    address _dividendWallet,\n    uint256 _valuation,\n    uint256 _capitalRequired,\n    uint256 _developerTokens,\n    uint256 _investorTokens,\n    string _lat,\n    string _lng\n    ) public {\n      id = _id;\n      name = _name;\n      developer = _developer;\n      dividendWallet = _dividendWallet;\n      valuation = _valuation;\n      capitalRequired = _capitalRequired;\n      developerTokens = _developerTokens;\n      investorTokens = _investorTokens;\n      lat = _lat;\n      lng = _lng;\n      totalVotes = 0;\n      active = false;\n      closingTime = now + 86600 * 240;\n  }\n  event LogProject (\n      uint id,\n      string name,\n      uint256 valuation,\n      uint256 capitalRequired,\n      uint256 developerTokens,\n      uint256 investorTokens,\n      string lat,\n      string lng,\n      uint256 totalVotes,\n      bool active\n  );\n\n  mapping(address => uint256) internal votes;\n\n  function votesOf(address voter) public view returns (uint256) {\n    return votes[voter];\n  }\n\n  function log () public {\n    emit LogProject(id, name, valuation, capitalRequired, developerTokens, investorTokens, lat, lng, totalVotes, active);\n  }\n\n  function open () public view returns (bool) {\n    return closingTime > now;\n  }\n\n  function id_ () public view returns (uint256) {\n    return id;\n  }\n\n  function active_ () public view returns (bool) {\n    return active;\n  }\n\n  function totalVotes_ () public view returns (uint256) {\n    return totalVotes;\n  }\n\n  function closingTime_ () public view returns (uint256) {\n    return closingTime;\n  }\n\n  function developerTokens_ () public view returns (uint256) {\n    return developerTokens;\n  }\n\n  function investorTokens_ () public view returns (uint256) {\n    return investorTokens;\n  }\n\n  function capitalRequired_ () public view returns (uint256) {\n    return capitalRequired;\n  }\n\n  /* function getInfo() public view returns(\n      string, uint256, uint256, uint256, uint256, bool, uint256, uint256\n      ) {\n      return (\n          name,\n          valuation,\n          capitalRequired,\n          developerTokens,\n          investorTokens,\n          active,\n          totalVotes,\n          closingTime\n      );\n  } */\n\n  mapping(address => bool) internal managers;\n\n  modifier authorize () {\n    require(managers[msg.sender] == true || msg.sender == developer);\n    _;\n  }\n\n  function deposit () public payable {\n    require(msg.value != 0);\n    uint256 weiAmount = msg.value;\n    dividendWallet.transfer(weiAmount);\n  }\n\n  function addManager (address manager) public authorize {\n    managers[manager] = true;\n  }\n\n  function setDividendWallet (address wallet) public authorize {\n    dividendWallet = wallet;\n  }\n  //for security, we will make this contract owned by GNITokenCrowdsale and require that msg.sender is the owner for update and activate\n  function vote (address voter, uint256 voteAmount) external {\n    //maybe require that its open and not active\n    votes[voter] = votes[voter].add(voteAmount);\n    totalVotes = totalVotes.add(voteAmount);\n    closingTime = closingTime.add(43200);\n  }\n\n  //for security, we will make this contract owned by GNITokenCrowdsale and require that msg.sender is the owner for update and activate\n  function removeVotes (address voter, uint256 voteAmount) external {\n    require(voteAmount <= totalVotes);\n    require(voteAmount <= votes[voter]);\n\n    votes[voter] = votes[voter].sub(voteAmount);\n    totalVotes = totalVotes.sub(voteAmount);\n    closingTime = closingTime.sub(43200);\n  }\n\n  function activate () external {\n    active = true;\n    log();\n  }\n\n  function beats (address otherProject) public view returns (bool) {\n    return totalVotes > 0 && totalVotes >= Project(otherProject).totalVotes_();\n      /* open() && *///we dont need this if we remove all votes for projects that are closed\n      /* totalVotes >= Project(otherProject).totalVotes_() */\n      //we dont need to check if the competitor is active because an active project always has 0 votes\n  }\n}\n",
  "sourcePath": "/Users/admin/Desktop/genie-portal/truffle/contracts/Project.sol",
  "compiler": {
    "name": "solc",
    "version": "0.4.24+commit.e67f0147.Emscripten.clang"
  },
  "schemaVersion": "2.0.1",
  "updatedAt": "2018-12-06T20:09:03.436Z"
}