{
  "contractName": "Project",
  "abi": [
    {
      "constant": true,
      "inputs": [],
      "name": "active",
      "outputs": [
        {
          "name": "",
          "type": "bool"
        }
      ],
      "payable": false,
      "stateMutability": "view",
      "type": "function"
    },
    {
      "constant": true,
      "inputs": [],
      "name": "lat",
      "outputs": [
        {
          "name": "",
          "type": "string"
        }
      ],
      "payable": false,
      "stateMutability": "view",
      "type": "function"
    },
    {
      "constant": true,
      "inputs": [],
      "name": "dividendWallet",
      "outputs": [
        {
          "name": "",
          "type": "address"
        }
      ],
      "payable": false,
      "stateMutability": "view",
      "type": "function"
    },
    {
      "constant": true,
      "inputs": [],
      "name": "activationTime",
      "outputs": [
        {
          "name": "",
          "type": "uint256"
        }
      ],
      "payable": false,
      "stateMutability": "view",
      "type": "function"
    },
    {
      "inputs": [
        {
          "name": "_name",
          "type": "string"
        },
        {
          "name": "_developer",
          "type": "address"
        },
        {
          "name": "_dividendWallet",
          "type": "address"
        },
        {
          "name": "_valuation",
          "type": "uint256"
        },
        {
          "name": "_capitalRequired",
          "type": "uint256"
        },
        {
          "name": "_developerTokens",
          "type": "uint256"
        },
        {
          "name": "_investorTokens",
          "type": "uint256"
        },
        {
          "name": "_lat",
          "type": "string"
        },
        {
          "name": "_lng",
          "type": "string"
        }
      ],
      "payable": false,
      "stateMutability": "nonpayable",
      "type": "constructor"
    },
    {
      "anonymous": false,
      "inputs": [
        {
          "indexed": false,
          "name": "addr",
          "type": "address"
        },
        {
          "indexed": false,
          "name": "name",
          "type": "string"
        },
        {
          "indexed": false,
          "name": "valuation",
          "type": "uint256"
        },
        {
          "indexed": false,
          "name": "capitalRequired",
          "type": "uint256"
        },
        {
          "indexed": false,
          "name": "developerTokens",
          "type": "uint256"
        },
        {
          "indexed": false,
          "name": "investorTokens",
          "type": "uint256"
        },
        {
          "indexed": false,
          "name": "lat",
          "type": "string"
        },
        {
          "indexed": false,
          "name": "lng",
          "type": "string"
        },
        {
          "indexed": false,
          "name": "totalVotes",
          "type": "uint256"
        },
        {
          "indexed": false,
          "name": "active",
          "type": "bool"
        }
      ],
      "name": "LogProject",
      "type": "event"
    },
    {
      "anonymous": false,
      "inputs": [
        {
          "indexed": false,
          "name": "addr",
          "type": "address"
        },
        {
          "indexed": false,
          "name": "name",
          "type": "string"
        },
        {
          "indexed": false,
          "name": "totalVotes",
          "type": "uint256"
        }
      ],
      "name": "VoteChange",
      "type": "event"
    },
    {
      "anonymous": false,
      "inputs": [
        {
          "indexed": false,
          "name": "addr",
          "type": "address"
        },
        {
          "indexed": false,
          "name": "name",
          "type": "string"
        },
        {
          "indexed": false,
          "name": "activationStatus",
          "type": "bool"
        },
        {
          "indexed": false,
          "name": "capitalRequired",
          "type": "uint256"
        },
        {
          "indexed": false,
          "name": "valuation",
          "type": "uint256"
        }
      ],
      "name": "ProjectActivation",
      "type": "event"
    },
    {
      "constant": true,
      "inputs": [
        {
          "name": "voter",
          "type": "address"
        }
      ],
      "name": "votesOf",
      "outputs": [
        {
          "name": "",
          "type": "uint256"
        }
      ],
      "payable": false,
      "stateMutability": "view",
      "type": "function"
    },
    {
      "constant": false,
      "inputs": [],
      "name": "log",
      "outputs": [],
      "payable": false,
      "stateMutability": "nonpayable",
      "type": "function"
    },
    {
      "constant": true,
      "inputs": [],
      "name": "open",
      "outputs": [
        {
          "name": "",
          "type": "bool"
        }
      ],
      "payable": false,
      "stateMutability": "view",
      "type": "function"
    },
    {
      "constant": true,
      "inputs": [],
      "name": "name_",
      "outputs": [
        {
          "name": "",
          "type": "string"
        }
      ],
      "payable": false,
      "stateMutability": "view",
      "type": "function"
    },
    {
      "constant": true,
      "inputs": [],
      "name": "active_",
      "outputs": [
        {
          "name": "",
          "type": "bool"
        }
      ],
      "payable": false,
      "stateMutability": "view",
      "type": "function"
    },
    {
      "constant": true,
      "inputs": [],
      "name": "activationTime_",
      "outputs": [
        {
          "name": "",
          "type": "uint256"
        }
      ],
      "payable": false,
      "stateMutability": "view",
      "type": "function"
    },
    {
      "constant": true,
      "inputs": [],
      "name": "totalVotes_",
      "outputs": [
        {
          "name": "",
          "type": "uint256"
        }
      ],
      "payable": false,
      "stateMutability": "view",
      "type": "function"
    },
    {
      "constant": true,
      "inputs": [],
      "name": "closingTime_",
      "outputs": [
        {
          "name": "",
          "type": "uint256"
        }
      ],
      "payable": false,
      "stateMutability": "view",
      "type": "function"
    },
    {
      "constant": true,
      "inputs": [],
      "name": "developerTokens_",
      "outputs": [
        {
          "name": "",
          "type": "uint256"
        }
      ],
      "payable": false,
      "stateMutability": "view",
      "type": "function"
    },
    {
      "constant": true,
      "inputs": [],
      "name": "investorTokens_",
      "outputs": [
        {
          "name": "",
          "type": "uint256"
        }
      ],
      "payable": false,
      "stateMutability": "view",
      "type": "function"
    },
    {
      "constant": true,
      "inputs": [],
      "name": "capitalRequired_",
      "outputs": [
        {
          "name": "",
          "type": "uint256"
        }
      ],
      "payable": false,
      "stateMutability": "view",
      "type": "function"
    },
    {
      "constant": false,
      "inputs": [],
      "name": "deposit",
      "outputs": [],
      "payable": true,
      "stateMutability": "payable",
      "type": "function"
    },
    {
      "constant": false,
      "inputs": [
        {
          "name": "manager",
          "type": "address"
        }
      ],
      "name": "addManager",
      "outputs": [],
      "payable": false,
      "stateMutability": "nonpayable",
      "type": "function"
    },
    {
      "constant": false,
      "inputs": [
        {
          "name": "wallet",
          "type": "address"
        }
      ],
      "name": "setDividendWallet",
      "outputs": [],
      "payable": false,
      "stateMutability": "nonpayable",
      "type": "function"
    },
    {
      "constant": false,
      "inputs": [
        {
          "name": "voter",
          "type": "address"
        },
        {
          "name": "voteAmount",
          "type": "uint256"
        }
      ],
      "name": "vote",
      "outputs": [],
      "payable": false,
      "stateMutability": "nonpayable",
      "type": "function"
    },
    {
      "constant": false,
      "inputs": [
        {
          "name": "voter",
          "type": "address"
        },
        {
          "name": "voteAmount",
          "type": "uint256"
        }
      ],
      "name": "removeVotes",
      "outputs": [],
      "payable": false,
      "stateMutability": "nonpayable",
      "type": "function"
    },
    {
      "constant": false,
      "inputs": [],
      "name": "activate",
      "outputs": [],
      "payable": false,
      "stateMutability": "nonpayable",
      "type": "function"
    },
    {
      "constant": true,
      "inputs": [
        {
          "name": "otherProject",
          "type": "address"
        }
      ],
      "name": "beats",
      "outputs": [
        {
          "name": "",
          "type": "bool"
        }
      ],
      "payable": false,
      "stateMutability": "view",
      "type": "function"
    }
  ],
  "bytecode": "0x60806040523480156200001157600080fd5b50604051620016293803806200162983398101806040528101908080518201929190602001805190602001909291908051906020019092919080519060200190929190805190602001909291908051906020019092919080519060200190929190805182019291906020018051820192919050505088600090805190602001906200009e929190620001ae565b5087600160006101000a81548173ffffffffffffffffffffffffffffffffffffffff021916908373ffffffffffffffffffffffffffffffffffffffff16021790555086600260006101000a81548173ffffffffffffffffffffffffffffffffffffffff021916908373ffffffffffffffffffffffffffffffffffffffff16021790555085600481905550846005819055508360068190555082600781905550816008908051906020019062000155929190620001ae565b5080600990805190602001906200016e929190620001ae565b506000600a819055506000600b60006101000a81548160ff02191690831515021790555063013d238042016003819055505050505050505050506200025d565b828054600181600116156101000203166002900490600052602060002090601f016020900481019282601f10620001f157805160ff191683800117855562000222565b8280016001018555821562000222579182015b828111156200022157825182559160200191906001019062000204565b5b50905062000231919062000235565b5090565b6200025a91905b80821115620002565760008160009055506001016200023c565b5090565b90565b6113bc806200026d6000396000f300608060405260043610610128576000357c0100000000000000000000000000000000000000000000000000000000900463ffffffff16806302fb0c5e1461012d5780630f15f4c01461015c578063272666e3146101735780632d06177a1461019e5780634d7c09dd146101e157806351973ec91461021057806355d576cc146102275780635b184f88146102b75780635f74bbde146102fa578063705c5be51461034757806379ec5d3a146103a2578063929aebdf146103f9578063b0e0116414610424578063b1053da61461047b578063c78243cf146104a6578063ce6a0880146104d1578063d0e30db01461051e578063d4cf7db614610528578063d705f38714610553578063da4493f61461057e578063e2b9e186146105a9578063fcfff16f14610639575b600080fd5b34801561013957600080fd5b50610142610668565b604051808215151515815260200191505060405180910390f35b34801561016857600080fd5b5061017161067b565b005b34801561017f57600080fd5b506101886107bc565b6040518082815260200191505060405180910390f35b3480156101aa57600080fd5b506101df600480360381019080803573ffffffffffffffffffffffffffffffffffffffff1690602001909291905050506107c6565b005b3480156101ed57600080fd5b506101f66108d8565b604051808215151515815260200191505060405180910390f35b34801561021c57600080fd5b506102256108ef565b005b34801561023357600080fd5b5061023c610b42565b6040518080602001828103825283818151815260200191508051906020019080838360005b8381101561027c578082015181840152602081019050610261565b50505050905090810190601f1680156102a95780820380516001836020036101000a031916815260200191505b509250505060405180910390f35b3480156102c357600080fd5b506102f8600480360381019080803573ffffffffffffffffffffffffffffffffffffffff169060200190929190505050610be0565b005b34801561030657600080fd5b50610345600480360381019080803573ffffffffffffffffffffffffffffffffffffffff16906020019092919080359060200190929190505050610cdb565b005b34801561035357600080fd5b50610388600480360381019080803573ffffffffffffffffffffffffffffffffffffffff169060200190929190505050610ea4565b604051808215151515815260200191505060405180910390f35b3480156103ae57600080fd5b506103e3600480360381019080803573ffffffffffffffffffffffffffffffffffffffff169060200190929190505050610f5e565b6040518082815260200191505060405180910390f35b34801561040557600080fd5b5061040e610fa7565b6040518082815260200191505060405180910390f35b34801561043057600080fd5b50610439610fb1565b604051808273ffffffffffffffffffffffffffffffffffffffff1673ffffffffffffffffffffffffffffffffffffffff16815260200191505060405180910390f35b34801561048757600080fd5b50610490610fd7565b6040518082815260200191505060405180910390f35b3480156104b257600080fd5b506104bb610fe1565b6040518082815260200191505060405180910390f35b3480156104dd57600080fd5b5061051c600480360381019080803573ffffffffffffffffffffffffffffffffffffffff16906020019092919080359060200190929190505050610feb565b005b610526611213565b005b34801561053457600080fd5b5061053d611293565b6040518082815260200191505060405180910390f35b34801561055f57600080fd5b5061056861129d565b6040518082815260200191505060405180910390f35b34801561058a57600080fd5b506105936112a7565b6040518082815260200191505060405180910390f35b3480156105b557600080fd5b506105be6112ad565b6040518080602001828103825283818151815260200191508051906020019080838360005b838110156105fe5780820151818401526020810190506105e3565b50505050905090810190601f16801561062b5780820380516001836020036101000a031916815260200191505b509250505060405180910390f35b34801561064557600080fd5b5061064e61134f565b604051808215151515815260200191505060405180910390f35b600b60009054906101000a900460ff1681565b6001600b60006101000a81548160ff02191690831515021790555042600c819055507fbb68ecd801c9a6b91d3a2dfeb388cd808da6c2d25461274ca796905fd9236f58306000600b60009054906101000a900460ff16600554600454604051808673ffffffffffffffffffffffffffffffffffffffff1673ffffffffffffffffffffffffffffffffffffffff16815260200180602001851515151581526020018481526020018381526020018281038252868181546001816001161561010002031660029004815260200191508054600181600116156101000203166002900480156107a85780601f1061077d576101008083540402835291602001916107a8565b820191906000526020600020905b81548152906001019060200180831161078b57829003601f168201915b5050965050505050505060405180910390a1565b6000600354905090565b60011515600e60003373ffffffffffffffffffffffffffffffffffffffff1673ffffffffffffffffffffffffffffffffffffffff16815260200190815260200160002060009054906101000a900460ff16151514806108725750600160009054906101000a900473ffffffffffffffffffffffffffffffffffffffff1673ffffffffffffffffffffffffffffffffffffffff163373ffffffffffffffffffffffffffffffffffffffff16145b151561087d57600080fd5b6001600e60008373ffffffffffffffffffffffffffffffffffffffff1673ffffffffffffffffffffffffffffffffffffffff16815260200190815260200160002060006101000a81548160ff02191690831515021790555050565b6000600b60009054906101000a900460ff16905090565b7f618aac77ac61fdbff533123688fa5e33fe0d021db44eac318ae37b90c6f71d5630600060045460055460065460075460086009600a54600b60009054906101000a900460ff16604051808b73ffffffffffffffffffffffffffffffffffffffff1673ffffffffffffffffffffffffffffffffffffffff168152602001806020018a815260200189815260200188815260200187815260200180602001806020018681526020018515151515815260200184810384528d818154600181600116156101000203166002900481526020019150805460018160011615610100020316600290048015610a215780601f106109f657610100808354040283529160200191610a21565b820191906000526020600020905b815481529060010190602001808311610a0457829003601f168201915b5050848103835288818154600181600116156101000203166002900481526020019150805460018160011615610100020316600290048015610aa45780601f10610a7957610100808354040283529160200191610aa4565b820191906000526020600020905b815481529060010190602001808311610a8757829003601f168201915b5050848103825287818154600181600116156101000203166002900481526020019150805460018160011615610100020316600290048015610b275780601f10610afc57610100808354040283529160200191610b27565b820191906000526020600020905b815481529060010190602001808311610b0a57829003601f168201915b50509d505050505050505050505050505060405180910390a1565b60088054600181600116156101000203166002900480601f016020809104026020016040519081016040528092919081815260200182805460018160011615610100020316600290048015610bd85780601f10610bad57610100808354040283529160200191610bd8565b820191906000526020600020905b815481529060010190602001808311610bbb57829003601f168201915b505050505081565b60011515600e60003373ffffffffffffffffffffffffffffffffffffffff1673ffffffffffffffffffffffffffffffffffffffff16815260200190815260200160002060009054906101000a900460ff1615151480610c8c5750600160009054906101000a900473ffffffffffffffffffffffffffffffffffffffff1673ffffffffffffffffffffffffffffffffffffffff163373ffffffffffffffffffffffffffffffffffffffff16145b1515610c9757600080fd5b80600260006101000a81548173ffffffffffffffffffffffffffffffffffffffff021916908373ffffffffffffffffffffffffffffffffffffffff16021790555050565b610d2d81600d60008573ffffffffffffffffffffffffffffffffffffffff1673ffffffffffffffffffffffffffffffffffffffff1681526020019081526020016000205461135b90919063ffffffff16565b600d60008473ffffffffffffffffffffffffffffffffffffffff1673ffffffffffffffffffffffffffffffffffffffff16815260200190815260200160002081905550610d8581600a5461135b90919063ffffffff16565b600a81905550610da261a8c060035461135b90919063ffffffff16565b6003819055507fcf9b861cde9b2e35562b9c022cf860169c6ef8df3f29b757e508509057e8c2ab306000600a54604051808473ffffffffffffffffffffffffffffffffffffffff1673ffffffffffffffffffffffffffffffffffffffff16815260200180602001838152602001828103825284818154600181600116156101000203166002900481526020019150805460018160011615610100020316600290048015610e905780601f10610e6557610100808354040283529160200191610e90565b820191906000526020600020905b815481529060010190602001808311610e7357829003601f168201915b505094505050505060405180910390a15050565b600080600a54118015610f5757508173ffffffffffffffffffffffffffffffffffffffff1663c78243cf6040518163ffffffff167c0100000000000000000000000000000000000000000000000000000000028152600401602060405180830381600087803b158015610f1657600080fd5b505af1158015610f2a573d6000803e3d6000fd5b505050506040513d6020811015610f4057600080fd5b8101908080519060200190929190505050600a5410155b9050919050565b6000600d60008373ffffffffffffffffffffffffffffffffffffffff1673ffffffffffffffffffffffffffffffffffffffff168152602001908152602001600020549050919050565b6000600654905090565b600260009054906101000a900473ffffffffffffffffffffffffffffffffffffffff1681565b6000600c54905090565b6000600a54905090565b600a548111151515610ffc57600080fd5b600d60008373ffffffffffffffffffffffffffffffffffffffff1673ffffffffffffffffffffffffffffffffffffffff16815260200190815260200160002054811115151561104a57600080fd5b61109c81600d60008573ffffffffffffffffffffffffffffffffffffffff1673ffffffffffffffffffffffffffffffffffffffff1681526020019081526020016000205461137790919063ffffffff16565b600d60008473ffffffffffffffffffffffffffffffffffffffff1673ffffffffffffffffffffffffffffffffffffffff168152602001908152602001600020819055506110f481600a5461137790919063ffffffff16565b600a8190555061111161a8c060035461137790919063ffffffff16565b6003819055507fcf9b861cde9b2e35562b9c022cf860169c6ef8df3f29b757e508509057e8c2ab306000600a54604051808473ffffffffffffffffffffffffffffffffffffffff1673ffffffffffffffffffffffffffffffffffffffff168152602001806020018381526020018281038252848181546001816001161561010002031660029004815260200191508054600181600116156101000203166002900480156111ff5780601f106111d4576101008083540402835291602001916111ff565b820191906000526020600020905b8154815290600101906020018083116111e257829003601f168201915b505094505050505060405180910390a15050565b600080341415151561122457600080fd5b349050600260009054906101000a900473ffffffffffffffffffffffffffffffffffffffff1673ffffffffffffffffffffffffffffffffffffffff166108fc829081150290604051600060405180830381858888f1935050505015801561128f573d6000803e3d6000fd5b5050565b6000600554905090565b6000600754905090565b600c5481565b606060008054600181600116156101000203166002900480601f0160208091040260200160405190810160405280929190818152602001828054600181600116156101000203166002900480156113455780601f1061131a57610100808354040283529160200191611345565b820191906000526020600020905b81548152906001019060200180831161132857829003601f168201915b5050505050905090565b60004260035411905090565b6000818301905082811015151561136e57fe5b80905092915050565b600082821115151561138557fe5b8183039050929150505600a165627a7a7230582039bc09e0d07f4a1818207f4eb2fe897c841f77ce99603b55d5325b95c3826df20029",
  "source": "pragma solidity ^0.4.23;\nimport './utility/SafeMath.sol';\n\ncontract Project {\n  using SafeMath for uint256;\n  //these will all need to be private so they cannot be set arbitrarily\n  //we'll make read methods when necessary\n  string private name;\n  address private developer;\n  address public dividendWallet;\n  uint256 internal closingTime;\n  uint256 private valuation;\n  uint256 private capitalRequired;\n  uint256 private developerTokens;\n  uint256 private investorTokens;\n  string public lat;\n  string private lng;\n  uint256 internal totalVotes;\n  bool public active;\n  uint256 public activationTime;\n  constructor (\n    string _name,\n    address _developer,\n    address _dividendWallet,\n    uint256 _valuation,\n    uint256 _capitalRequired,\n    uint256 _developerTokens,\n    uint256 _investorTokens,\n    string _lat,\n    string _lng\n    ) public {\n      name = _name;\n      developer = _developer;\n      dividendWallet = _dividendWallet;\n      valuation = _valuation;\n      capitalRequired = _capitalRequired;\n      developerTokens = _developerTokens;\n      investorTokens = _investorTokens;\n      lat = _lat;\n      lng = _lng;\n      totalVotes = 0;\n      active = false;\n      closingTime = now + 86600 * 240;\n  }\n  event LogProject (\n      address addr,\n      string name,\n      uint256 valuation,\n      uint256 capitalRequired,\n      uint256 developerTokens,\n      uint256 investorTokens,\n      string lat,\n      string lng,\n      uint256 totalVotes,\n      bool active\n  );\n\n  event VoteChange (\n    address addr,\n    string name,\n    uint256 totalVotes\n  );\n\n  event ProjectActivation (\n    address addr,\n    string name,\n    bool activationStatus,\n    uint256 capitalRequired,\n    uint256 valuation\n  );\n\n  mapping(address => uint256) internal votes;\n\n  function votesOf(address voter) public view returns (uint256) {\n    return votes[voter];\n  }\n\n  function log () public {\n    emit LogProject(address(this), name, valuation, capitalRequired, developerTokens, investorTokens, lat, lng, totalVotes, active);\n  }\n\n  function open () public view returns (bool) {\n    return closingTime > now;\n  }\n\n  /* function id_ () public view returns (uint256) {\n    return id;\n  } */\n  function name_ () public view returns (string) {\n    return name;\n  }\n\n  function active_ () public view returns (bool) {\n    return active;\n  }\n\n  function activationTime_ () public view returns (uint256) {\n    return activationTime;\n  }\n\n  function totalVotes_ () public view returns (uint256) {\n    return totalVotes;\n  }\n\n  function closingTime_ () public view returns (uint256) {\n    return closingTime;\n  }\n\n  function developerTokens_ () public view returns (uint256) {\n    return developerTokens;\n  }\n\n  function investorTokens_ () public view returns (uint256) {\n    return investorTokens;\n  }\n\n  function capitalRequired_ () public view returns (uint256) {\n    return capitalRequired;\n  }\n\n  /* function getInfo() public view returns(\n      string, uint256, uint256, uint256, uint256, bool, uint256, uint256\n      ) {\n      return (\n          name,\n          valuation,\n          capitalRequired,\n          developerTokens,\n          investorTokens,\n          active,\n          totalVotes,\n          closingTime\n      );\n  } */\n\n  mapping(address => bool) internal managers;\n\n  modifier authorize () {\n    require(managers[msg.sender] == true || msg.sender == developer);\n    _;\n  }\n\n  function deposit () public payable {\n    require(msg.value != 0);\n    uint256 weiAmount = msg.value;\n    dividendWallet.transfer(weiAmount);\n  }\n\n  function addManager (address manager) public authorize {\n    managers[manager] = true;\n  }\n\n  function setDividendWallet (address wallet) public authorize {\n    dividendWallet = wallet;\n  }\n  //for security, we will make this contract owned by GNITokenCrowdsale and require that msg.sender is the owner for update and activate\n  function vote (address voter, uint256 voteAmount) external {\n    //maybe require that its open and not active\n    votes[voter] = votes[voter].add(voteAmount);\n    totalVotes = totalVotes.add(voteAmount);\n    closingTime = closingTime.add(43200);\n\n    emit VoteChange(address(this), name, totalVotes);\n  }\n\n  //for security, we will make this contract owned by GNITokenCrowdsale and require that msg.sender is the owner for update and activate\n  function removeVotes (address voter, uint256 voteAmount) external {\n    require(voteAmount <= totalVotes);\n    require(voteAmount <= votes[voter]);\n\n    votes[voter] = votes[voter].sub(voteAmount);\n    totalVotes = totalVotes.sub(voteAmount);\n    closingTime = closingTime.sub(43200);\n\n    emit VoteChange(address(this), name, totalVotes);\n  }\n\n  function activate () external {\n    active = true;\n    //we should set totalVotes to 0\n    activationTime = now;\n    emit ProjectActivation(address(this), name, active, capitalRequired, valuation);\n  }\n\n  function beats (address otherProject) public view returns (bool) {\n    return totalVotes > 0 && totalVotes >= Project(otherProject).totalVotes_();\n      /* open() && *///we dont need this if we remove all votes for projects that are closed\n      /* totalVotes >= Project(otherProject).totalVotes_() */\n      //we dont need to check if the competitor is active because an active project always has 0 votes\n  }\n}\n",
  "sourcePath": "/Users/steven/genie-portal/truffle/contracts/Project.sol",
  "compiler": {
    "name": "solc",
    "version": "0.4.24+commit.e67f0147.Emscripten.clang"
  },
  "schemaVersion": "2.0.1",
  "updatedAt": "2019-01-08T19:02:31.547Z"
}