{
  "contractName": "StandardBurnableToken",
  "abi": [
    {
      "constant": false,
      "inputs": [
        {
          "name": "_spender",
          "type": "address"
        },
        {
          "name": "_value",
          "type": "uint256"
        }
      ],
      "name": "approve",
      "outputs": [
        {
          "name": "",
          "type": "bool"
        }
      ],
      "payable": false,
      "stateMutability": "nonpayable",
      "type": "function"
    },
    {
      "constant": true,
      "inputs": [],
      "name": "totalSupply",
      "outputs": [
        {
          "name": "",
          "type": "uint256"
        }
      ],
      "payable": false,
      "stateMutability": "view",
      "type": "function"
    },
    {
      "constant": false,
      "inputs": [
        {
          "name": "_from",
          "type": "address"
        },
        {
          "name": "_to",
          "type": "address"
        },
        {
          "name": "_value",
          "type": "uint256"
        }
      ],
      "name": "transferFrom",
      "outputs": [
        {
          "name": "",
          "type": "bool"
        }
      ],
      "payable": false,
      "stateMutability": "nonpayable",
      "type": "function"
    },
    {
      "constant": false,
      "inputs": [
        {
          "name": "_value",
          "type": "uint256"
        }
      ],
      "name": "burn",
      "outputs": [],
      "payable": false,
      "stateMutability": "nonpayable",
      "type": "function"
    },
    {
      "constant": false,
      "inputs": [
        {
          "name": "_spender",
          "type": "address"
        },
        {
          "name": "_subtractedValue",
          "type": "uint256"
        }
      ],
      "name": "decreaseApproval",
      "outputs": [
        {
          "name": "",
          "type": "bool"
        }
      ],
      "payable": false,
      "stateMutability": "nonpayable",
      "type": "function"
    },
    {
      "constant": true,
      "inputs": [
        {
          "name": "_owner",
          "type": "address"
        }
      ],
      "name": "balanceOf",
      "outputs": [
        {
          "name": "",
          "type": "uint256"
        }
      ],
      "payable": false,
      "stateMutability": "view",
      "type": "function"
    },
    {
      "constant": false,
      "inputs": [
        {
          "name": "_to",
          "type": "address"
        },
        {
          "name": "_value",
          "type": "uint256"
        }
      ],
      "name": "transfer",
      "outputs": [
        {
          "name": "",
          "type": "bool"
        }
      ],
      "payable": false,
      "stateMutability": "nonpayable",
      "type": "function"
    },
    {
      "constant": false,
      "inputs": [
        {
          "name": "_spender",
          "type": "address"
        },
        {
          "name": "_addedValue",
          "type": "uint256"
        }
      ],
      "name": "increaseApproval",
      "outputs": [
        {
          "name": "",
          "type": "bool"
        }
      ],
      "payable": false,
      "stateMutability": "nonpayable",
      "type": "function"
    },
    {
      "constant": true,
      "inputs": [
        {
          "name": "_owner",
          "type": "address"
        },
        {
          "name": "_spender",
          "type": "address"
        }
      ],
      "name": "allowance",
      "outputs": [
        {
          "name": "",
          "type": "uint256"
        }
      ],
      "payable": false,
      "stateMutability": "view",
      "type": "function"
    },
    {
      "anonymous": false,
      "inputs": [
        {
          "indexed": true,
          "name": "burner",
          "type": "address"
        },
        {
          "indexed": false,
          "name": "value",
          "type": "uint256"
        }
      ],
      "name": "Burn",
      "type": "event"
    },
    {
      "anonymous": false,
      "inputs": [
        {
          "indexed": true,
          "name": "owner",
          "type": "address"
        },
        {
          "indexed": true,
          "name": "spender",
          "type": "address"
        },
        {
          "indexed": false,
          "name": "value",
          "type": "uint256"
        }
      ],
      "name": "Approval",
      "type": "event"
    },
    {
      "anonymous": false,
      "inputs": [
        {
          "indexed": true,
          "name": "from",
          "type": "address"
        },
        {
          "indexed": true,
          "name": "to",
          "type": "address"
        },
        {
          "indexed": false,
          "name": "value",
          "type": "uint256"
        }
      ],
      "name": "Transfer",
      "type": "event"
    },
    {
      "constant": false,
      "inputs": [
        {
          "name": "_from",
          "type": "address"
        },
        {
          "name": "_value",
          "type": "uint256"
        }
      ],
      "name": "burnFrom",
      "outputs": [],
      "payable": false,
      "stateMutability": "nonpayable",
      "type": "function"
    }
  ],
  "bytecode": "0x608060405234801561001057600080fd5b506107a0806100206000396000f3006080604052600436106100a35763ffffffff7c0100000000000000000000000000000000000000000000000000000000600035041663095ea7b381146100a857806318160ddd146100e057806323b872dd1461010757806342966c6814610131578063661884631461014b57806370a082311461016f57806379cc679014610190578063a9059cbb146101b4578063d73dd623146101d8578063dd62ed3e146101fc575b600080fd5b3480156100b457600080fd5b506100cc600160a060020a0360043516602435610223565b604080519115158252519081900360200190f35b3480156100ec57600080fd5b506100f5610289565b60408051918252519081900360200190f35b34801561011357600080fd5b506100cc600160a060020a036004358116906024351660443561028f565b34801561013d57600080fd5b50610149600435610386565b005b34801561015757600080fd5b506100cc600160a060020a0360043516602435610393565b34801561017b57600080fd5b506100f5600160a060020a0360043516610482565b34801561019c57600080fd5b50610149600160a060020a036004351660243561049d565b3480156101c057600080fd5b506100cc600160a060020a03600435166024356104ab565b3480156101e457600080fd5b506100cc600160a060020a036004351660243561058a565b34801561020857600080fd5b506100f5600160a060020a0360043581169060243516610623565b336000818152600260209081526040808320600160a060020a038716808552908352818420869055815186815291519394909390927f8c5be1e5ebec7d5bd14f71427d1e84f3dd0314c0f7b2291e5b200ac8c7c3b925928290030190a350600192915050565b60015490565b600160a060020a0383166000908152602081905260408120548211156102b457600080fd5b600160a060020a03831615156102c957600080fd5b600160a060020a0384166000908152602081905260409020546102f2908363ffffffff61064e16565b600160a060020a038086166000908152602081905260408082209390935590851681522054610327908363ffffffff61066016565b600160a060020a038085166000818152602081815260409182902094909455805186815290519193928816927fddf252ad1be2c89b69c2b068fc378daa952ba7f163c4a11628f55a4df523b3ef92918290030190a35060019392505050565b6103903382610673565b50565b336000908152600260209081526040808320600160a060020a03861684529091528120548083106103e757336000908152600260209081526040808320600160a060020a038816845290915281205561041c565b6103f7818463ffffffff61064e16565b336000908152600260209081526040808320600160a060020a03891684529091529020555b336000818152600260209081526040808320600160a060020a0389168085529083529281902054815190815290519293927f8c5be1e5ebec7d5bd14f71427d1e84f3dd0314c0f7b2291e5b200ac8c7c3b925929181900390910190a35060019392505050565b600160a060020a031660009081526020819052604090205490565b6104a78282610673565b5050565b336000908152602081905260408120548211156104c757600080fd5b600160a060020a03831615156104dc57600080fd5b336000908152602081905260409020546104fc908363ffffffff61064e16565b3360009081526020819052604080822092909255600160a060020a0385168152205461052e908363ffffffff61066016565b600160a060020a038416600081815260208181526040918290209390935580518581529051919233927fddf252ad1be2c89b69c2b068fc378daa952ba7f163c4a11628f55a4df523b3ef9281900390910190a350600192915050565b336000908152600260209081526040808320600160a060020a03861684529091528120546105be908363ffffffff61066016565b336000818152600260209081526040808320600160a060020a0389168085529083529281902085905580519485525191937f8c5be1e5ebec7d5bd14f71427d1e84f3dd0314c0f7b2291e5b200ac8c7c3b925929081900390910190a350600192915050565b600160a060020a03918216600090815260026020908152604080832093909416825291909152205490565b60008282111561065a57fe5b50900390565b8181018281101561066d57fe5b92915050565b600160a060020a03821660009081526020819052604090205481111561069857600080fd5b600160a060020a0382166000908152602081905260409020546106c1908263ffffffff61064e16565b600160a060020a0383166000908152602081905260409020556001546106ed908263ffffffff61064e16565b600155604080518281529051600160a060020a038416917fcc16f5dbb4873280815c1ee09dbd06736cffcc184412cf7a71a0fdb75d397ca5919081900360200190a2604080518281529051600091600160a060020a038516917fddf252ad1be2c89b69c2b068fc378daa952ba7f163c4a11628f55a4df523b3ef9181900360200190a350505600a165627a7a72305820cdbf75890a6b678972d8da7084378ec106e3bd9d02c7adba961b9c3cdea81dfe0029",
  "source": "pragma solidity ^0.4.24;\n\nimport \"./BurnableToken.sol\";\nimport \"./StandardToken.sol\";\n\n\n/**\n * @title Standard Burnable Token\n * @dev Adds burnFrom method to ERC20 implementations\n */\ncontract StandardBurnableToken is BurnableToken, StandardToken {\n\n  /**\n   * @dev Burns a specific amount of tokens from the target address and decrements allowance\n   * @param _from address The address which you want to send tokens from\n   * @param _value uint256 The amount of token to be burned\n   */\n  function burnFrom(address _from, uint256 _value) public {\n    /* require(_value <= allowed[_from][msg.sender]); */\n    // Should https://github.com/OpenZeppelin/zeppelin-solidity/issues/707 be accepted,\n    // this function needs to emit an event with the updated approval.\n    /* allowed[_from][msg.sender] = allowed[_from][msg.sender].sub(_value); */\n    _burn(_from, _value);\n  }\n}\n",
  "sourcePath": "/Users/steven/genie-portal/truffle/contracts/token/ERC20/StandardBurnableToken.sol",
  "compiler": {
    "name": "solc",
    "version": "0.4.24+commit.e67f0147.Emscripten.clang"
  },
  "schemaVersion": "2.0.1",
  "updatedAt": "2018-10-22T23:19:17.239Z"
}