{
  "contractName": "TokenTimelock",
  "abi": [
    {
      "constant": true,
      "inputs": [],
      "name": "beneficiary",
      "outputs": [
        {
          "name": "",
          "type": "address"
        }
      ],
      "payable": false,
      "stateMutability": "view",
      "type": "function"
    },
    {
      "constant": true,
      "inputs": [],
      "name": "releaseTime",
      "outputs": [
        {
          "name": "",
          "type": "uint256"
        }
      ],
      "payable": false,
      "stateMutability": "view",
      "type": "function"
    },
    {
      "constant": true,
      "inputs": [],
      "name": "token",
      "outputs": [
        {
          "name": "",
          "type": "address"
        }
      ],
      "payable": false,
      "stateMutability": "view",
      "type": "function"
    },
    {
      "inputs": [
        {
          "name": "_token",
          "type": "address"
        },
        {
          "name": "_beneficiary",
          "type": "address"
        },
        {
          "name": "_releaseTime",
          "type": "uint256"
        }
      ],
      "payable": false,
      "stateMutability": "nonpayable",
      "type": "constructor"
    },
    {
      "constant": false,
      "inputs": [],
      "name": "release",
      "outputs": [],
      "payable": false,
      "stateMutability": "nonpayable",
      "type": "function"
    }
  ],
  "bytecode": "0x608060405234801561001057600080fd5b5060405160608061053d833981018060405281019080805190602001909291908051906020019092919080519060200190929190505050428111151561005557600080fd5b826000806101000a81548173ffffffffffffffffffffffffffffffffffffffff021916908373ffffffffffffffffffffffffffffffffffffffff16021790555081600160006101000a81548173ffffffffffffffffffffffffffffffffffffffff021916908373ffffffffffffffffffffffffffffffffffffffff1602179055508060028190555050505061044e806100ef6000396000f300608060405260043610610062576000357c0100000000000000000000000000000000000000000000000000000000900463ffffffff16806338af3eed1461006757806386d1a69f146100be578063b91d4001146100d5578063fc0c546a14610100575b600080fd5b34801561007357600080fd5b5061007c610157565b604051808273ffffffffffffffffffffffffffffffffffffffff1673ffffffffffffffffffffffffffffffffffffffff16815260200191505060405180910390f35b3480156100ca57600080fd5b506100d361017d565b005b3480156100e157600080fd5b506100ea610309565b6040518082815260200191505060405180910390f35b34801561010c57600080fd5b5061011561030f565b604051808273ffffffffffffffffffffffffffffffffffffffff1673ffffffffffffffffffffffffffffffffffffffff16815260200191505060405180910390f35b600160009054906101000a900473ffffffffffffffffffffffffffffffffffffffff1681565b6000600254421015151561019057600080fd5b6000809054906101000a900473ffffffffffffffffffffffffffffffffffffffff1673ffffffffffffffffffffffffffffffffffffffff166370a08231306040518263ffffffff167c0100000000000000000000000000000000000000000000000000000000028152600401808273ffffffffffffffffffffffffffffffffffffffff1673ffffffffffffffffffffffffffffffffffffffff168152602001915050602060405180830381600087803b15801561024c57600080fd5b505af1158015610260573d6000803e3d6000fd5b505050506040513d602081101561027657600080fd5b8101908080519060200190929190505050905060008111151561029857600080fd5b610306600160009054906101000a900473ffffffffffffffffffffffffffffffffffffffff16826000809054906101000a900473ffffffffffffffffffffffffffffffffffffffff1673ffffffffffffffffffffffffffffffffffffffff166103349092919063ffffffff16565b50565b60025481565b6000809054906101000a900473ffffffffffffffffffffffffffffffffffffffff1681565b8273ffffffffffffffffffffffffffffffffffffffff1663a9059cbb83836040518363ffffffff167c0100000000000000000000000000000000000000000000000000000000028152600401808373ffffffffffffffffffffffffffffffffffffffff1673ffffffffffffffffffffffffffffffffffffffff16815260200182815260200192505050602060405180830381600087803b1580156103d757600080fd5b505af11580156103eb573d6000803e3d6000fd5b505050506040513d602081101561040157600080fd5b8101908080519060200190929190505050151561041d57600080fd5b5050505600a165627a7a72305820b1de51fbf1bba60af5570642b168ed4d2af8977c53333e212cf226829c698d090029",
  "source": "pragma solidity 0.4.24;\n\nimport \"./SafeERC20.sol\";\n\n\n/**\n * @title TokenTimelock\n * @dev TokenTimelock is a token holder contract that will allow a\n * beneficiary to extract the tokens after a given release time\n */\ncontract TokenTimelock {\n  using SafeERC20 for ERC20Basic;\n\n  // ERC20 basic token contract being held\n  ERC20Basic public token;\n\n  // beneficiary of tokens after they are released\n  address public beneficiary;\n\n  // timestamp when token release is enabled\n  uint256 public releaseTime;\n\n  constructor(\n    ERC20Basic _token,\n    address _beneficiary,\n    uint256 _releaseTime\n  )\n    public\n  {\n    // solium-disable-next-line security/no-block-members\n    require(_releaseTime > block.timestamp);\n    token = _token;\n    beneficiary = _beneficiary;\n    releaseTime = _releaseTime;\n  }\n\n  /**\n   * @notice Transfers tokens held by timelock to beneficiary.\n   */\n  function release() public {\n    // solium-disable-next-line security/no-block-members\n    require(block.timestamp >= releaseTime);\n\n    uint256 amount = token.balanceOf(address(this));\n    require(amount > 0);\n\n    token.safeTransfer(beneficiary, amount);\n  }\n}\n",
  "sourcePath": "/Users/liamzhang/Desktop/genie-portal/truffle/contracts/token/ERC20/TokenTimelock.sol",
  "compiler": {
    "name": "solc",
    "version": "0.4.24+commit.e67f0147.Emscripten.clang"
  },
  "schemaVersion": "2.0.1",
  "updatedAt": "2018-12-22T00:55:45.882Z"
}