{
  "contractName": "TokenVesting",
  "abi": [
    {
      "constant": true,
      "inputs": [],
      "name": "duration",
      "outputs": [
        {
          "name": "",
          "type": "uint256"
        }
      ],
      "payable": false,
      "stateMutability": "view",
      "type": "function"
    },
    {
      "constant": true,
      "inputs": [],
      "name": "cliff",
      "outputs": [
        {
          "name": "",
          "type": "uint256"
        }
      ],
      "payable": false,
      "stateMutability": "view",
      "type": "function"
    },
    {
      "constant": true,
      "inputs": [],
      "name": "beneficiary",
      "outputs": [
        {
          "name": "",
          "type": "address"
        }
      ],
      "payable": false,
      "stateMutability": "view",
      "type": "function"
    },
    {
      "constant": false,
      "inputs": [],
      "name": "renounceOwnership",
      "outputs": [],
      "payable": false,
      "stateMutability": "nonpayable",
      "type": "function"
    },
    {
      "constant": true,
      "inputs": [],
      "name": "revocable",
      "outputs": [
        {
          "name": "",
          "type": "bool"
        }
      ],
      "payable": false,
      "stateMutability": "view",
      "type": "function"
    },
    {
      "constant": true,
      "inputs": [],
      "name": "owner",
      "outputs": [
        {
          "name": "",
          "type": "address"
        }
      ],
      "payable": false,
      "stateMutability": "view",
      "type": "function"
    },
    {
      "constant": true,
      "inputs": [
        {
          "name": "",
          "type": "address"
        }
      ],
      "name": "released",
      "outputs": [
        {
          "name": "",
          "type": "uint256"
        }
      ],
      "payable": false,
      "stateMutability": "view",
      "type": "function"
    },
    {
      "constant": true,
      "inputs": [],
      "name": "start",
      "outputs": [
        {
          "name": "",
          "type": "uint256"
        }
      ],
      "payable": false,
      "stateMutability": "view",
      "type": "function"
    },
    {
      "constant": false,
      "inputs": [
        {
          "name": "_newOwner",
          "type": "address"
        }
      ],
      "name": "transferOwnership",
      "outputs": [],
      "payable": false,
      "stateMutability": "nonpayable",
      "type": "function"
    },
    {
      "constant": true,
      "inputs": [
        {
          "name": "",
          "type": "address"
        }
      ],
      "name": "revoked",
      "outputs": [
        {
          "name": "",
          "type": "bool"
        }
      ],
      "payable": false,
      "stateMutability": "view",
      "type": "function"
    },
    {
      "inputs": [
        {
          "name": "_beneficiary",
          "type": "address"
        },
        {
          "name": "_start",
          "type": "uint256"
        },
        {
          "name": "_cliff",
          "type": "uint256"
        },
        {
          "name": "_duration",
          "type": "uint256"
        },
        {
          "name": "_revocable",
          "type": "bool"
        }
      ],
      "payable": false,
      "stateMutability": "nonpayable",
      "type": "constructor"
    },
    {
      "anonymous": false,
      "inputs": [
        {
          "indexed": false,
          "name": "amount",
          "type": "uint256"
        }
      ],
      "name": "Released",
      "type": "event"
    },
    {
      "anonymous": false,
      "inputs": [],
      "name": "Revoked",
      "type": "event"
    },
    {
      "anonymous": false,
      "inputs": [
        {
          "indexed": true,
          "name": "previousOwner",
          "type": "address"
        }
      ],
      "name": "OwnershipRenounced",
      "type": "event"
    },
    {
      "anonymous": false,
      "inputs": [
        {
          "indexed": true,
          "name": "previousOwner",
          "type": "address"
        },
        {
          "indexed": true,
          "name": "newOwner",
          "type": "address"
        }
      ],
      "name": "OwnershipTransferred",
      "type": "event"
    },
    {
      "constant": false,
      "inputs": [
        {
          "name": "_token",
          "type": "address"
        }
      ],
      "name": "release",
      "outputs": [],
      "payable": false,
      "stateMutability": "nonpayable",
      "type": "function"
    },
    {
      "constant": false,
      "inputs": [
        {
          "name": "_token",
          "type": "address"
        }
      ],
      "name": "revoke",
      "outputs": [],
      "payable": false,
      "stateMutability": "nonpayable",
      "type": "function"
    },
    {
      "constant": true,
      "inputs": [
        {
          "name": "_token",
          "type": "address"
        }
      ],
      "name": "releasableAmount",
      "outputs": [
        {
          "name": "",
          "type": "uint256"
        }
      ],
      "payable": false,
      "stateMutability": "view",
      "type": "function"
    },
    {
      "constant": true,
      "inputs": [
        {
          "name": "_token",
          "type": "address"
        }
      ],
      "name": "vestedAmount",
      "outputs": [
        {
          "name": "",
          "type": "uint256"
        }
      ],
      "payable": false,
      "stateMutability": "view",
      "type": "function"
    }
  ],
  "bytecode": "0x608060405234801561001057600080fd5b5060405160a0806109968339810160409081528151602083015191830151606084015160809094015160008054600160a060020a0319163317905591939091600160a060020a038516151561006457600080fd5b8183111561007157600080fd5b60018054600160a060020a031916600160a060020a0387161790556005805460ff191682151517905560048290556100b684846401000000006100c5810261071c1704565b600255505050600355506100d8565b818101828110156100d257fe5b92915050565b6108af806100e76000396000f3006080604052600436106100b65763ffffffff60e060020a6000350416630fb5a6b481146100bb57806313d033c0146100e25780631726cbc8146100f75780631916558714610118578063384711cc1461013b57806338af3eed1461015c578063715018a61461018d57806374a8f103146101a2578063872a7810146101c35780638da5cb5b146101ec5780639852595c14610201578063be9a655514610222578063f2fde38b14610237578063fa01dc0614610258575b600080fd5b3480156100c757600080fd5b506100d0610279565b60408051918252519081900360200190f35b3480156100ee57600080fd5b506100d061027f565b34801561010357600080fd5b506100d0600160a060020a0360043516610285565b34801561012457600080fd5b50610139600160a060020a03600435166102bd565b005b34801561014757600080fd5b506100d0600160a060020a0360043516610369565b34801561016857600080fd5b506101716104c0565b60408051600160a060020a039092168252519081900360200190f35b34801561019957600080fd5b506101396104cf565b3480156101ae57600080fd5b50610139600160a060020a036004351661053b565b3480156101cf57600080fd5b506101d86106a2565b604080519115158252519081900360200190f35b3480156101f857600080fd5b506101716106ab565b34801561020d57600080fd5b506100d0600160a060020a03600435166106ba565b34801561022e57600080fd5b506100d06106cc565b34801561024357600080fd5b50610139600160a060020a03600435166106d2565b34801561026457600080fd5b506101d8600160a060020a03600435166106f5565b60045481565b60025481565b600160a060020a0381166000908152600660205260408120546102b7906102ab84610369565b9063ffffffff61070a16565b92915050565b60006102c882610285565b9050600081116102d757600080fd5b600160a060020a038216600090815260066020526040902054610300908263ffffffff61071c16565b600160a060020a038084166000818152600660205260409020929092556001546103329291168363ffffffff61072916565b6040805182815290517ffb81f9b30d73d830c3544b34d827c08142579ee75710b490bab0b3995468c5659181900360200190a15050565b600080600083600160a060020a03166370a08231306040518263ffffffff1660e060020a0281526004018082600160a060020a0316600160a060020a03168152602001915050602060405180830381600087803b1580156103c957600080fd5b505af11580156103dd573d6000803e3d6000fd5b505050506040513d60208110156103f357600080fd5b5051600160a060020a03851660009081526006602052604090205490925061042290839063ffffffff61071c16565b905060025442101561043757600092506104b9565b60045460035461044c9163ffffffff61071c16565b421015806104725750600160a060020a03841660009081526007602052604090205460ff165b1561047f578092506104b9565b6104b66004546104aa61049d6003544261070a90919063ffffffff16565b849063ffffffff6107c816565b9063ffffffff6107f116565b92505b5050919050565b600154600160a060020a031681565b600054600160a060020a031633146104e657600080fd5b60008054604051600160a060020a03909116917ff8df31144d9c2f0f6b59d69b8b98abd5459d07f2742c4df920b25aae33c6482091a26000805473ffffffffffffffffffffffffffffffffffffffff19169055565b6000805481908190600160a060020a0316331461055757600080fd5b60055460ff16151561056857600080fd5b600160a060020a03841660009081526007602052604090205460ff161561058e57600080fd5b604080517f70a082310000000000000000000000000000000000000000000000000000000081523060048201529051600160a060020a038616916370a082319160248083019260209291908290030181600087803b1580156105ef57600080fd5b505af1158015610603573d6000803e3d6000fd5b505050506040513d602081101561061957600080fd5b5051925061062684610285565b9150610638838363ffffffff61070a16565b600160a060020a038086166000818152600760205260408120805460ff1916600117905554929350610673929091168363ffffffff61072916565b6040517f44825a4b2df8acb19ce4e1afba9aa850c8b65cdb7942e2078f27d0b0960efee690600090a150505050565b60055460ff1681565b600054600160a060020a031681565b60066020526000908152604090205481565b60035481565b600054600160a060020a031633146106e957600080fd5b6106f281610806565b50565b60076020526000908152604090205460ff1681565b60008282111561071657fe5b50900390565b818101828110156102b757fe5b82600160a060020a031663a9059cbb83836040518363ffffffff1660e060020a0281526004018083600160a060020a0316600160a060020a0316815260200182815260200192505050602060405180830381600087803b15801561078c57600080fd5b505af11580156107a0573d6000803e3d6000fd5b505050506040513d60208110156107b657600080fd5b505115156107c357600080fd5b505050565b60008215156107d9575060006102b7565b508181028183828115156107e957fe5b04146102b757fe5b600081838115156107fe57fe5b049392505050565b600160a060020a038116151561081b57600080fd5b60008054604051600160a060020a03808516939216917f8be0079c531659141344cd1fd0a4f28419497f9722a3daafe3b4186f6b6457e091a36000805473ffffffffffffffffffffffffffffffffffffffff1916600160a060020a03929092169190911790555600a165627a7a72305820a11883c098e9e52961af01c0ab570dcbe96aa59a732e6cf29c7465a06144cbfe0029",
  "source": "/* solium-disable security/no-block-members */\n\npragma solidity ^0.4.24;\n\nimport \"./ERC20Basic.sol\";\nimport \"./SafeERC20.sol\";\nimport \"../../utility/Ownable.sol\";\nimport \"../../utility/SafeMath.sol\";\n\n\n/**\n * @title TokenVesting\n * @dev A token holder contract that can release its token balance gradually like a\n * typical vesting scheme, with a cliff and vesting period. Optionally revocable by the\n * owner.\n */\ncontract TokenVesting is Ownable {\n  using SafeMath for uint256;\n  using SafeERC20 for ERC20Basic;\n\n  event Released(uint256 amount);\n  event Revoked();\n\n  // beneficiary of tokens after they are released\n  address public beneficiary;\n\n  uint256 public cliff;\n  uint256 public start;\n  uint256 public duration;\n\n  bool public revocable;\n\n  mapping (address => uint256) public released;\n  mapping (address => bool) public revoked;\n\n  /**\n   * @dev Creates a vesting contract that vests its balance of any ERC20 token to the\n   * _beneficiary, gradually in a linear fashion until _start + _duration. By then all\n   * of the balance will have vested.\n   * @param _beneficiary address of the beneficiary to whom vested tokens are transferred\n   * @param _cliff duration in seconds of the cliff in which tokens will begin to vest\n   * @param _start the time (as Unix time) at which point vesting starts\n   * @param _duration duration in seconds of the period in which the tokens will vest\n   * @param _revocable whether the vesting is revocable or not\n   */\n  constructor(\n    address _beneficiary,\n    uint256 _start,\n    uint256 _cliff,\n    uint256 _duration,\n    bool _revocable\n  )\n    public\n  {\n    require(_beneficiary != address(0));\n    require(_cliff <= _duration);\n\n    beneficiary = _beneficiary;\n    revocable = _revocable;\n    duration = _duration;\n    cliff = _start.add(_cliff);\n    start = _start;\n  }\n\n  /**\n   * @notice Transfers vested tokens to beneficiary.\n   * @param _token ERC20 token which is being vested\n   */\n  function release(ERC20Basic _token) public {\n    uint256 unreleased = releasableAmount(_token);\n\n    require(unreleased > 0);\n\n    released[_token] = released[_token].add(unreleased);\n\n    _token.safeTransfer(beneficiary, unreleased);\n\n    emit Released(unreleased);\n  }\n\n  /**\n   * @notice Allows the owner to revoke the vesting. Tokens already vested\n   * remain in the contract, the rest are returned to the owner.\n   * @param _token ERC20 token which is being vested\n   */\n  function revoke(ERC20Basic _token) public onlyOwner {\n    require(revocable);\n    require(!revoked[_token]);\n\n    uint256 balance = _token.balanceOf(address(this));\n\n    uint256 unreleased = releasableAmount(_token);\n    uint256 refund = balance.sub(unreleased);\n\n    revoked[_token] = true;\n\n    _token.safeTransfer(owner, refund);\n\n    emit Revoked();\n  }\n\n  /**\n   * @dev Calculates the amount that has already vested but hasn't been released yet.\n   * @param _token ERC20 token which is being vested\n   */\n  function releasableAmount(ERC20Basic _token) public view returns (uint256) {\n    return vestedAmount(_token).sub(released[_token]);\n  }\n\n  /**\n   * @dev Calculates the amount that has already vested.\n   * @param _token ERC20 token which is being vested\n   */\n  function vestedAmount(ERC20Basic _token) public view returns (uint256) {\n    uint256 currentBalance = _token.balanceOf(address(this));\n    uint256 totalBalance = currentBalance.add(released[_token]);\n\n    if (block.timestamp < cliff) {\n      return 0;\n    } else if (block.timestamp >= start.add(duration) || revoked[_token]) {\n      return totalBalance;\n    } else {\n      return totalBalance.mul(block.timestamp.sub(start)).div(duration);\n    }\n  }\n}\n",
  "sourcePath": "/Users/matthewsteele/Desktop/ProjectFolder/genie-portal/truffle/contracts/token/ERC20/TokenVesting.sol",
  "compiler": {
    "name": "solc",
    "version": "0.4.24+commit.e67f0147.Emscripten.clang"
  },
  "schemaVersion": "2.0.1",
  "updatedAt": "2018-10-22T18:55:04.997Z"
}