{
  "contractName": "xFitTokenCrowdsale",
  "abi": [
    {
      "constant": true,
      "inputs": [],
      "name": "hasClosed",
      "outputs": [
        {
          "name": "",
          "type": "bool"
        }
      ],
      "payable": false,
      "stateMutability": "view",
      "type": "function"
    },
    {
      "constant": true,
      "inputs": [],
      "name": "rate",
      "outputs": [
        {
          "name": "",
          "type": "uint256"
        }
      ],
      "payable": false,
      "stateMutability": "view",
      "type": "function"
    },
    {
      "constant": true,
      "inputs": [],
      "name": "weiRaised",
      "outputs": [
        {
          "name": "",
          "type": "uint256"
        }
      ],
      "payable": false,
      "stateMutability": "view",
      "type": "function"
    },
    {
      "constant": true,
      "inputs": [],
      "name": "closingTime",
      "outputs": [
        {
          "name": "",
          "type": "uint256"
        }
      ],
      "payable": false,
      "stateMutability": "view",
      "type": "function"
    },
    {
      "constant": true,
      "inputs": [],
      "name": "wallet",
      "outputs": [
        {
          "name": "",
          "type": "address"
        }
      ],
      "payable": false,
      "stateMutability": "view",
      "type": "function"
    },
    {
      "constant": true,
      "inputs": [],
      "name": "openingTime",
      "outputs": [
        {
          "name": "",
          "type": "uint256"
        }
      ],
      "payable": false,
      "stateMutability": "view",
      "type": "function"
    },
    {
      "constant": true,
      "inputs": [
        {
          "name": "",
          "type": "uint256"
        }
      ],
      "name": "projectAddresses",
      "outputs": [
        {
          "name": "location",
          "type": "string"
        },
        {
          "name": "deployed",
          "type": "bool"
        }
      ],
      "payable": false,
      "stateMutability": "view",
      "type": "function"
    },
    {
      "constant": false,
      "inputs": [
        {
          "name": "_beneficiary",
          "type": "address"
        }
      ],
      "name": "buyTokens",
      "outputs": [],
      "payable": true,
      "stateMutability": "payable",
      "type": "function"
    },
    {
      "constant": true,
      "inputs": [],
      "name": "token",
      "outputs": [
        {
          "name": "",
          "type": "address"
        }
      ],
      "payable": false,
      "stateMutability": "view",
      "type": "function"
    },
    {
      "inputs": [
        {
          "name": "_openingTime",
          "type": "uint256"
        },
        {
          "name": "_closingTime",
          "type": "uint256"
        },
        {
          "name": "_rate",
          "type": "uint256"
        },
        {
          "name": "_wallet",
          "type": "address"
        },
        {
          "name": "_token",
          "type": "address"
        }
      ],
      "payable": false,
      "stateMutability": "nonpayable",
      "type": "constructor"
    },
    {
      "payable": true,
      "stateMutability": "payable",
      "type": "fallback"
    },
    {
      "anonymous": false,
      "inputs": [
        {
          "indexed": false,
          "name": "location",
          "type": "string"
        },
        {
          "indexed": false,
          "name": "cost",
          "type": "uint256"
        },
        {
          "indexed": false,
          "name": "creator",
          "type": "address"
        },
        {
          "indexed": false,
          "name": "name",
          "type": "string"
        },
        {
          "indexed": false,
          "name": "lat",
          "type": "string"
        },
        {
          "indexed": false,
          "name": "lng",
          "type": "string"
        },
        {
          "indexed": false,
          "name": "complete",
          "type": "bool"
        }
      ],
      "name": "LogProject",
      "type": "event"
    },
    {
      "anonymous": false,
      "inputs": [
        {
          "indexed": true,
          "name": "purchaser",
          "type": "address"
        },
        {
          "indexed": true,
          "name": "beneficiary",
          "type": "address"
        },
        {
          "indexed": false,
          "name": "value",
          "type": "uint256"
        },
        {
          "indexed": false,
          "name": "amount",
          "type": "uint256"
        }
      ],
      "name": "TokenPurchase",
      "type": "event"
    },
    {
      "constant": false,
      "inputs": [
        {
          "name": "tokenOwner",
          "type": "address"
        }
      ],
      "name": "sendTokenPayment",
      "outputs": [],
      "payable": true,
      "stateMutability": "payable",
      "type": "function"
    },
    {
      "constant": true,
      "inputs": [
        {
          "name": "_location",
          "type": "string"
        }
      ],
      "name": "getProjectInfo",
      "outputs": [
        {
          "name": "",
          "type": "string"
        },
        {
          "name": "",
          "type": "uint256"
        },
        {
          "name": "",
          "type": "address"
        },
        {
          "name": "",
          "type": "bool"
        },
        {
          "name": "",
          "type": "uint256"
        }
      ],
      "payable": false,
      "stateMutability": "view",
      "type": "function"
    },
    {
      "constant": false,
      "inputs": [
        {
          "name": "_location",
          "type": "string"
        },
        {
          "name": "_cost",
          "type": "uint256"
        },
        {
          "name": "_creator",
          "type": "address"
        },
        {
          "name": "_name",
          "type": "string"
        },
        {
          "name": "_lat",
          "type": "string"
        },
        {
          "name": "_lng",
          "type": "string"
        }
      ],
      "name": "createProject",
      "outputs": [],
      "payable": true,
      "stateMutability": "payable",
      "type": "function"
    },
    {
      "constant": false,
      "inputs": [
        {
          "name": "_beneficiary",
          "type": "address"
        },
        {
          "name": "_location",
          "type": "string"
        },
        {
          "name": "_tokenName",
          "type": "string"
        }
      ],
      "name": "buyxFitToken",
      "outputs": [],
      "payable": true,
      "stateMutability": "payable",
      "type": "function"
    },
    {
      "constant": true,
      "inputs": [],
      "name": "canDeployProject",
      "outputs": [
        {
          "name": "",
          "type": "string"
        },
        {
          "name": "",
          "type": "uint256"
        }
      ],
      "payable": false,
      "stateMutability": "view",
      "type": "function"
    },
    {
      "constant": false,
      "inputs": [],
      "name": "deployProject",
      "outputs": [],
      "payable": true,
      "stateMutability": "payable",
      "type": "function"
    }
  ],
  "bytecode": "0x60806040523480156200001157600080fd5b5060405160a08062002713833981018060405281019080805190602001909291908051906020019092919080519060200190929190805190602001909291908051906020019092919050505084848484846000831115156200007257600080fd5b600073ffffffffffffffffffffffffffffffffffffffff168273ffffffffffffffffffffffffffffffffffffffff1614151515620000af57600080fd5b600073ffffffffffffffffffffffffffffffffffffffff168173ffffffffffffffffffffffffffffffffffffffff1614151515620000ec57600080fd5b8260028190555081600160006101000a81548173ffffffffffffffffffffffffffffffffffffffff021916908373ffffffffffffffffffffffffffffffffffffffff160217905550806000806101000a81548173ffffffffffffffffffffffffffffffffffffffff021916908373ffffffffffffffffffffffffffffffffffffffff1602179055505050504282101515156200018757600080fd5b8181101515156200019757600080fd5b8160048190555080600581905550505030600160006101000a81548173ffffffffffffffffffffffffffffffffffffffff021916908373ffffffffffffffffffffffffffffffffffffffff160217905550505050505061251680620001fd6000396000f3006080604052600436106100db576000357c0100000000000000000000000000000000000000000000000000000000900463ffffffff1680631515bc2b146100e65780632c4e722e146101155780634042b66f146101405780634b6753bc1461016b578063521eb27314610196578063848b9f39146101ed578063b7a8807c14610345578063cc13fd3b14610370578063d7cd616714610421578063d8a4ccc6146104b8578063dca1e8451461057a578063dfb365e014610584578063ec8ac4d8146105ba578063f339118d146105f0578063fc0c546a1461071e575b6100e433610775565b005b3480156100f257600080fd5b506100fb610843565b604051808215151515815260200191505060405180910390f35b34801561012157600080fd5b5061012a61084f565b6040518082815260200191505060405180910390f35b34801561014c57600080fd5b50610155610855565b6040518082815260200191505060405180910390f35b34801561017757600080fd5b5061018061085b565b6040518082815260200191505060405180910390f35b3480156101a257600080fd5b506101ab610861565b604051808273ffffffffffffffffffffffffffffffffffffffff1673ffffffffffffffffffffffffffffffffffffffff16815260200191505060405180910390f35b610343600480360381019080803590602001908201803590602001908080601f016020809104026020016040519081016040528093929190818152602001838380828437820191505050505050919291929080359060200190929190803573ffffffffffffffffffffffffffffffffffffffff169060200190929190803590602001908201803590602001908080601f0160208091040260200160405190810160405280939291908181526020018383808284378201915050505050509192919290803590602001908201803590602001908080601f0160208091040260200160405190810160405280939291908181526020018383808284378201915050505050509192919290803590602001908201803590602001908080601f0160208091040260200160405190810160405280939291908181526020018383808284378201915050505050509192919290505050610887565b005b34801561035157600080fd5b5061035a610d1c565b6040518082815260200191505060405180910390f35b34801561037c57600080fd5b5061039b60048036038101908080359060200190929190505050610d22565b604051808060200183151515158152602001828103825284818151815260200191508051906020019080838360005b838110156103e55780820151818401526020810190506103ca565b50505050905090810190601f1680156104125780820380516001836020036101000a031916815260200191505b50935050505060405180910390f35b34801561042d57600080fd5b50610436610dfa565b6040518080602001838152602001828103825284818151815260200191508051906020019080838360005b8381101561047c578082015181840152602081019050610461565b50505050905090810190601f1680156104a95780820380516001836020036101000a031916815260200191505b50935050505060405180910390f35b610578600480360381019080803573ffffffffffffffffffffffffffffffffffffffff169060200190929190803590602001908201803590602001908080601f0160208091040260200160405190810160405280939291908181526020018383808284378201915050505050509192919290803590602001908201803590602001908080601f01602080910402602001604051908101604052809392919081815260200183838082843782019150505050505091929192905050506110bb565b005b6105826113f4565b005b6105b8600480360381019080803573ffffffffffffffffffffffffffffffffffffffff169060200190929190505050611b65565b005b6105ee600480360381019080803573ffffffffffffffffffffffffffffffffffffffff169060200190929190505050610775565b005b3480156105fc57600080fd5b50610657600480360381019080803590602001908201803590602001908080601f0160208091040260200160405190810160405280939291908181526020018383808284378201915050505050509192919290505050611baf565b60405180806020018681526020018573ffffffffffffffffffffffffffffffffffffffff1673ffffffffffffffffffffffffffffffffffffffff16815260200184151515158152602001838152602001828103825287818151815260200191508051906020019080838360005b838110156106df5780820151818401526020810190506106c4565b50505050905090810190601f16801561070c5780820380516001836020036101000a031916815260200191505b50965050505050505060405180910390f35b34801561072a57600080fd5b50610733611f76565b604051808273ffffffffffffffffffffffffffffffffffffffff1673ffffffffffffffffffffffffffffffffffffffff16815260200191505060405180910390f35b6000803491506107858383611f9b565b61078e82611fc8565b90506107a582600354611fe690919063ffffffff16565b6003819055506107b58382612002565b8273ffffffffffffffffffffffffffffffffffffffff163373ffffffffffffffffffffffffffffffffffffffff167f623b3804fa71d67900d064613da8f94b9617215ee90799290593e1745087ad188484604051808381526020018281526020019250505060405180910390a361082c8383612010565b610834612014565b61083e8383612016565b505050565b60006005544211905090565b60025481565b60035481565b60055481565b600160009054906101000a900473ffffffffffffffffffffffffffffffffffffffff1681565b61088f612344565b6108976123a2565b61089f612014565b6108a9605a61201a565b610100604051908101604052808981526020018881526020018773ffffffffffffffffffffffffffffffffffffffff16815260200186815260200185815260200184815260200160008152602001600015158152509150816006896040518082805190602001908083835b6020831015156109395780518252602082019150602081019050602083039250610914565b6001836020036101000a038019825116818451168082178552505050505050905001915050908152602001604051809103902060008201518160000190805190602001906109889291906123be565b506020820151816001015560408201518160020160006101000a81548173ffffffffffffffffffffffffffffffffffffffff021916908373ffffffffffffffffffffffffffffffffffffffff16021790555060608201518160030190805190602001906109f69291906123be565b506080820151816004019080519060200190610a139291906123be565b5060a0820151816005019080519060200190610a309291906123be565b5060c0820151816006015560e08201518160070160006101000a81548160ff0219169083151502179055509050506040805190810160405280898152602001600015158152509050600781908060018154018082558091505090600182039060005260206000209060020201600090919290919091506000820151816000019080519060200190610ac29291906123be565b5060208201518160010160006101000a81548160ff0219169083151502179055505050507f98ddacbf5e483d8e6b3cc9e584d66d5c88bca1b2297d06443c616c6d941e3227888888888888600060405180806020018881526020018773ffffffffffffffffffffffffffffffffffffffff1673ffffffffffffffffffffffffffffffffffffffff1681526020018060200180602001806020018615151515815260200185810385528c818151815260200191508051906020019080838360005b83811015610b9d578082015181840152602081019050610b82565b50505050905090810190601f168015610bca5780820380516001836020036101000a031916815260200191505b50858103845289818151815260200191508051906020019080838360005b83811015610c03578082015181840152602081019050610be8565b50505050905090810190601f168015610c305780820380516001836020036101000a031916815260200191505b50858103835288818151815260200191508051906020019080838360005b83811015610c69578082015181840152602081019050610c4e565b50505050905090810190601f168015610c965780820380516001836020036101000a031916815260200191505b50858103825287818151815260200191508051906020019080838360005b83811015610ccf578082015181840152602081019050610cb4565b50505050905090810190601f168015610cfc5780820380516001836020036101000a031916815260200191505b509b50505050505050505050505060405180910390a15050505050505050565b60045481565b600781815481101515610d3157fe5b9060005260206000209060020201600091509050806000018054600181600116156101000203166002900480601f016020809104026020016040519081016040528092919081815260200182805460018160011615610100020316600290048015610ddd5780601f10610db257610100808354040283529160200191610ddd565b820191906000526020600020905b815481529060010190602001808311610dc057829003601f168201915b5050505050908060010160009054906101000a900460ff16905082565b606060006060600080600080600080600090505b60078054905081101561100557600781815481101515610e2a57fe5b906000526020600020906002020160010160009054906101000a900460ff161515610fea576006600782815481101515610e6057fe5b90600052602060002090600202016000016040518082805460018160011615610100020316600290048015610ecc5780601f10610eaa576101008083540402835291820191610ecc565b820191906000526020600020905b815481529060010190602001808311610eb8575b505091505090815260200160405180910390206006015492506000831115610fe957610f18600854610f0a620f42408661206c90919063ffffffff16565b6120a490919063ffffffff16565b94508585101515610fe857859350849550809150600781815481101515610f3b57fe5b90600052602060002090600202016000018054600181600116156101000203166002900480601f016020809104026020016040519081016040528092919081815260200182805460018160011615610100020316600290048015610fe05780601f10610fb557610100808354040283529160200191610fe0565b820191906000526020600020905b815481529060010190602001808311610fc357829003601f168201915b505050505096505b5b5b610ffe600182611fe690919063ffffffff16565b9050610e0e565b6003546006886040518082805190602001908083835b602083101515611040578051825260208201915060208101905060208303925061101b565b6001836020036101000a0380198251168184511680821785525050505050509050019150509081526020016040518091039020600101541115801561108457508386115b15611094578682985098506110b0565b6000602060405190810160405280600081525090809050985098505b505050505050509091565b60006006836040518082805190602001908083835b6020831015156110f557805182526020820191506020810190506020830392506110d0565b6001836020036101000a038019825116818451168082178552505050505050905001915050908152602001604051809103902060070160009054906101000a900460ff1615151561114557600080fd5b61114e84610775565b611157836120ba565b6006836040518082805190602001908083835b60208310151561118f578051825260208201915060208101905060208303925061116a565b6001836020036101000a038019825116818451168082178552505050505050905001915050908152602001604051809103902060020160009054906101000a900473ffffffffffffffffffffffffffffffffffffffff1690506000809054906101000a900473ffffffffffffffffffffffffffffffffffffffff1673ffffffffffffffffffffffffffffffffffffffff166389b3b064838686856040518563ffffffff167c010000000000000000000000000000000000000000000000000000000002815260040180806020018573ffffffffffffffffffffffffffffffffffffffff1673ffffffffffffffffffffffffffffffffffffffff168152602001806020018473ffffffffffffffffffffffffffffffffffffffff1673ffffffffffffffffffffffffffffffffffffffff168152602001838103835287818151815260200191508051906020019080838360005b838110156112fc5780820151818401526020810190506112e1565b50505050905090810190601f1680156113295780820380516001836020036101000a031916815260200191505b50838103825285818151815260200191508051906020019080838360005b83811015611362578082015181840152602081019050611347565b50505050905090810190601f16801561138f5780820380516001836020036101000a031916815260200191505b509650505050505050602060405180830381600087803b1580156113b257600080fd5b505af11580156113c6573d6000803e3d6000fd5b505050506040513d60208110156113dc57600080fd5b81019080805190602001909291905050505050505050565b6060600080611401610dfa565b925092506040516020018060000190506040516020818303038152906040526040518082805190602001908083835b6020831015156114555780518252602082019150602081019050602083039250611430565b6001836020036101000a038019825116818451168082178552505050505050905001915050604051809103902060001916836040516020018082805190602001908083835b6020831015156114bf578051825260208201915060208101905060208303925061149a565b6001836020036101000a0380198251168184511680821785525050505050509050019150506040516020818303038152906040526040518082805190602001908083835b6020831015156115285780518252602082019150602081019050602083039250611503565b6001836020036101000a038019825116818451168082178552505050505050905001915050604051809103902060001916141515611b60576006836040518082805190602001908083835b6020831015156115985780518252602082019150602081019050602083039250611573565b6001836020036101000a038019825116818451168082178552505050505050905001915050908152602001604051809103902090508060020160009054906101000a900473ffffffffffffffffffffffffffffffffffffffff1673ffffffffffffffffffffffffffffffffffffffff166108fc82600101549081150290604051600060405180830381858888f1935050505015801561163b573d6000803e3d6000fd5b5061165581600101546003546121cd90919063ffffffff16565b60038190555061167481600601546008546121cd90919063ffffffff16565b5060018160070160006101000a81548160ff0219169083151502179055508060068260000160405180828054600181600116156101000203166002900480156116f45780601f106116d25761010080835404028352918201916116f4565b820191906000526020600020905b8154815290600101906020018083116116e0575b505091505090815260200160405180910390206000820181600001908054600181600116156101000203166002900461172e92919061243e565b50600182015481600101556002820160009054906101000a900473ffffffffffffffffffffffffffffffffffffffff168160020160006101000a81548173ffffffffffffffffffffffffffffffffffffffff021916908373ffffffffffffffffffffffffffffffffffffffff160217905550600382018160030190805460018160011615610100020316600290046117c792919061243e565b50600482018160040190805460018160011615610100020316600290046117ef92919061243e565b506005820181600501908054600181600116156101000203166002900461181792919061243e565b50600682015481600601556007820160009054906101000a900460ff168160070160006101000a81548160ff021916908315150217905550905050600160078381548110151561186357fe5b906000526020600020906002020160010160006101000a81548160ff0219169083151502179055507f98ddacbf5e483d8e6b3cc9e584d66d5c88bca1b2297d06443c616c6d941e32278160000182600101548360020160009054906101000a900473ffffffffffffffffffffffffffffffffffffffff16846003018560040186600501600160405180806020018881526020018773ffffffffffffffffffffffffffffffffffffffff1673ffffffffffffffffffffffffffffffffffffffff1681526020018060200180602001806020018615151515815260200185810385528c8181546001816001161561010002031660029004815260200191508054600181600116156101000203166002900480156119bf5780601f10611994576101008083540402835291602001916119bf565b820191906000526020600020905b8154815290600101906020018083116119a257829003601f168201915b5050858103845289818154600181600116156101000203166002900481526020019150805460018160011615610100020316600290048015611a425780601f10611a1757610100808354040283529160200191611a42565b820191906000526020600020905b815481529060010190602001808311611a2557829003601f168201915b5050858103835288818154600181600116156101000203166002900481526020019150805460018160011615610100020316600290048015611ac55780601f10611a9a57610100808354040283529160200191611ac5565b820191906000526020600020905b815481529060010190602001808311611aa857829003601f168201915b5050858103825287818154600181600116156101000203166002900481526020019150805460018160011615610100020316600290048015611b485780601f10611b1d57610100808354040283529160200191611b48565b820191906000526020600020905b815481529060010190602001808311611b2b57829003601f168201915b50509b50505050505050505050505060405180910390a15b505050565b8073ffffffffffffffffffffffffffffffffffffffff166108fc349081150290604051600060405180830381858888f19350505050158015611bab573d6000803e3d6000fd5b5050565b6060600080600080611bbf612344565b6006876040518082805190602001908083835b602083101515611bf75780518252602082019150602081019050602083039250611bd2565b6001836020036101000a03801982511681845116808217855250505050505090500191505090815260200160405180910390206101006040519081016040529081600082018054600181600116156101000203166002900480601f016020809104026020016040519081016040528092919081815260200182805460018160011615610100020316600290048015611cd05780601f10611ca557610100808354040283529160200191611cd0565b820191906000526020600020905b815481529060010190602001808311611cb357829003601f168201915b50505050508152602001600182015481526020016002820160009054906101000a900473ffffffffffffffffffffffffffffffffffffffff1673ffffffffffffffffffffffffffffffffffffffff1673ffffffffffffffffffffffffffffffffffffffff168152602001600382018054600181600116156101000203166002900480601f016020809104026020016040519081016040528092919081815260200182805460018160011615610100020316600290048015611dd25780601f10611da757610100808354040283529160200191611dd2565b820191906000526020600020905b815481529060010190602001808311611db557829003601f168201915b50505050508152602001600482018054600181600116156101000203166002900480601f016020809104026020016040519081016040528092919081815260200182805460018160011615610100020316600290048015611e745780601f10611e4957610100808354040283529160200191611e74565b820191906000526020600020905b815481529060010190602001808311611e5757829003601f168201915b50505050508152602001600582018054600181600116156101000203166002900480601f016020809104026020016040519081016040528092919081815260200182805460018160011615610100020316600290048015611f165780601f10611eeb57610100808354040283529160200191611f16565b820191906000526020600020905b815481529060010190602001808311611ef957829003601f168201915b50505050508152602001600682015481526020016007820160009054906101000a900460ff16151515158152505090508060000151816020015182604001518360e001518460c00151849450955095509550955095505091939590929450565b6000809054906101000a900473ffffffffffffffffffffffffffffffffffffffff1681565b6004544210158015611faf57506005544211155b1515611fba57600080fd5b611fc482826121e6565b5050565b6000611fdf6002548361206c90919063ffffffff16565b9050919050565b60008183019050828110151515611ff957fe5b80905092915050565b61200c8282612236565b5050565b5050565b565b5050565b600454421015801561202e57506005544211155b151561203957600080fd5b612063612052621a5e008361206c90919063ffffffff16565b600554611fe690919063ffffffff16565b60058190555050565b60008083141561207f576000905061209e565b818302905081838281151561209057fe5b0414151561209a57fe5b8090505b92915050565b600081838115156120b157fe5b04905092915050565b61213c60016006836040518082805190602001908083835b6020831015156120f757805182526020820191506020810190506020830392506120d2565b6001836020036101000a038019825116818451168082178552505050505050905001915050908152602001604051809103902060060154611fe690919063ffffffff16565b6006826040518082805190602001908083835b602083101515612174578051825260208201915060208101905060208303925061214f565b6001836020036101000a0380198251168184511680821785525050505050509050019150509081526020016040518091039020600601819055506121c46001600854611fe690919063ffffffff16565b60088190555050565b60008282111515156121db57fe5b818303905092915050565b600073ffffffffffffffffffffffffffffffffffffffff168273ffffffffffffffffffffffffffffffffffffffff161415151561222257600080fd5b6000811415151561223257600080fd5b5050565b6000809054906101000a900473ffffffffffffffffffffffffffffffffffffffff1673ffffffffffffffffffffffffffffffffffffffff166340c10f1983836040518363ffffffff167c0100000000000000000000000000000000000000000000000000000000028152600401808373ffffffffffffffffffffffffffffffffffffffff1673ffffffffffffffffffffffffffffffffffffffff16815260200182815260200192505050602060405180830381600087803b1580156122fa57600080fd5b505af115801561230e573d6000803e3d6000fd5b505050506040513d602081101561232457600080fd5b8101908080519060200190929190505050151561234057600080fd5b5050565b610100604051908101604052806060815260200160008152602001600073ffffffffffffffffffffffffffffffffffffffff168152602001606081526020016060815260200160608152602001600081526020016000151581525090565b6040805190810160405280606081526020016000151581525090565b828054600181600116156101000203166002900490600052602060002090601f016020900481019282601f106123ff57805160ff191683800117855561242d565b8280016001018555821561242d579182015b8281111561242c578251825591602001919060010190612411565b5b50905061243a91906124c5565b5090565b828054600181600116156101000203166002900490600052602060002090601f016020900481019282601f1061247757805485556124b4565b828001600101855582156124b457600052602060002091601f016020900482015b828111156124b3578254825591600101919060010190612498565b5b5090506124c191906124c5565b5090565b6124e791905b808211156124e35760008160009055506001016124cb565b5090565b905600a165627a7a72305820522cc5a11a79a691cf669b7be9079831c93436923606708349190e0eb37bb4140029",
  "source": "pragma solidity 0.4.24;\n\nimport './GNIToken.sol';\nimport 'openzeppelin-solidity/contracts/crowdsale/emission/MintedCrowdsale.sol';\nimport 'openzeppelin-solidity/contracts/crowdsale/validation/TimedCrowdsale.sol';\nimport 'openzeppelin-solidity/contracts/math/SafeMath.sol';\n\ncontract xFitTokenCrowdsale is TimedCrowdsale, MintedCrowdsale {\n    using SafeMath for uint256;\n\n    constructor (uint256 _openingTime,\n            uint256 _closingTime,\n            uint256 _rate,\n            address _wallet,\n            MintableToken _token\n        )\n        public\n        Crowdsale(_rate, _wallet, _token)\n        TimedCrowdsale(_openingTime, _closingTime) {\n            // rewriting wallet to this will not work in contructor\n            wallet = this;\n        }\n\n    // Details for xFit box Project proposal\n    struct Project {\n        string location;\n        uint256 cost;\n        address creator;\n        string name;\n        string lat;\n        string lng;\n        uint256 voteCount;\n        bool complete;\n    }\n\n    // event for viewing projects on front end\n    event LogProject(\n        string location,\n        uint cost,\n        address creator,\n        string name,\n        string lat,\n        string lng,\n        bool complete\n    );\n\n    // project mapping <location, ProjectStruct>\n    mapping(string => Project) private projects;\n\n    function sendTokenPayment(address tokenOwner) public payable {\n        tokenOwner.transfer(msg.value);\n    }\n\n\n    function getProjectInfo(string _location) public view returns(\n        string, uint256,address,bool,uint256\n\n    ) {\n        Project memory project = projects[_location];\n        return (\n            project.location,\n            project.cost,\n            project.creator,\n            project.complete,\n            project.voteCount\n        );\n    }\n\n    // All Project addresses\n    struct ProjectAddress {\n        string location;\n        bool deployed;\n    }\n\n    // Array for storing all Project addresses\n    ProjectAddress[] public projectAddresses;\n\n    // Struct which will store purchased tokens\n    struct PurchasedToken {\n        string tokenName;\n        string projectVotedFor;\n    }\n\n    // Keeps a running total of votes cast\n    uint256 totalVoteCount;\n\n  /**\n   * @dev Create and save a new xFit project proposal\n   * @param _location Street address of new xFit box\n   * @param _cost Cost of new xFit project\n   * @param _creator Address of the project proposal creator\n   */\n   // TODO add minumum contribution amount for a project proposal\n    function createProject(string _location, uint _cost, address _creator, string _name, string _lat, string _lng) public payable {\n        // Send project creation fee to Genus wallet\n        // need to update this to wallet, not contract\n        _forwardFunds();\n\n        // Increase crowdsale duation by 90 days\n        _extendClosingTime(90);\n\n        // Create project information\n        Project memory newProject = Project({\n            location: _location,\n            cost: _cost,\n            creator: _creator,\n            name: _name,\n            lat: _lat,\n            lng: _lng,\n            complete: false,\n            voteCount: 0\n        });\n\n        // Save project information\n        projects[_location] = newProject;\n\n        // Create project information\n        ProjectAddress memory newProjectAddress = ProjectAddress({\n            location: _location,\n            deployed: false\n        });\n\n        // save ProjectAddress information\n        projectAddresses.push(newProjectAddress);\n\n        // log the creation of the new project\n        emit LogProject(_location, _cost, _creator, _name, _lat, _lng, false);\n    }\n\n\n  /**\n   * @dev Buy a project specific xFitToken\n   * @param _beneficiary Address performing the token purchase\n   * @param _location xFit project bought into\n   * @param _tokenName name of token\n   */\n    function buyxFitToken(address _beneficiary, string _location, string _tokenName) public payable {\n        // Can we change this to msg.sender so that there is not option to buy on behalf of someone else;\n\n        // before buyToken, verify that the project is still undeployed\n        require(!projects[_location].complete);\n        buyTokens(_beneficiary);\n        updateVoteCount(_location);\n        address projectVotedForOwner = projects[_location].creator;\n        xFitToken(token).assignPin(_tokenName, _beneficiary, _location, projectVotedForOwner);\n    }\n\n    function updateVoteCount( string _location) internal {\n        //removed address _beneficiary, - unsed var\n        // update project voteTotals\n        projects[_location].voteCount = projects[_location].voteCount.add(1);\n        // update total vote count\n        totalVoteCount = totalVoteCount.add(1);\n    }\n\n\n /**\n   * @dev Checks if any project can deploy\n   */\n    function canDeployProject() public view returns (string, uint256){\n        string memory leadingProject;\n        uint256 leadingPercentage;\n        uint256 votePercentage;\n        uint256 secondLeadingPercentage;\n        uint256 projectVoteCount;\n        uint256 leadingProjectIndex;\n        for(uint256 i = 0; i < projectAddresses.length; i = i.add(1)){\n            if (!projectAddresses[i].deployed){\n                projectVoteCount = projects[projectAddresses[i].location].voteCount;\n                if (projectVoteCount > 0){\n                    votePercentage = (projectVoteCount.mul(1000000)).div(totalVoteCount);\n                    if (votePercentage >= leadingPercentage){\n                        secondLeadingPercentage = leadingPercentage;\n                        leadingPercentage = votePercentage;\n                        leadingProjectIndex = i;\n                        leadingProject = projectAddresses[i].location;\n                    }\n                }\n            }\n\n        }\n        if(projects[leadingProject].cost <= weiRaised && leadingPercentage > secondLeadingPercentage){\n            return (leadingProject, leadingProjectIndex);\n        } else {\n            return (\"\",0);\n        }\n    }\n\n  /**\n   * @dev Checks if a project can deploy, then deploys\n   */\n    function deployProject() public payable{\n         (string memory projectToDeploy, uint256 projectIndex) = canDeployProject();\n        if(keccak256(abi.encodePacked(projectToDeploy)) != keccak256(abi.encodePacked(\"\"))){\n            // transfer money from wallet address to projectToDeploy address\n            Project storage winningProject = projects[projectToDeploy];\n            winningProject.creator.transfer(winningProject.cost);\n\n            // subtract weiRaised by winningProject.cost\n            weiRaised = weiRaised.sub(winningProject.cost);\n\n            // subtract votes from winning project from vote total\n            totalVoteCount.sub(winningProject.voteCount);\n\n            // set project deployment status to true\n            winningProject.complete = true;\n            projects[winningProject.location] = winningProject;\n            projectAddresses[projectIndex].deployed = true;\n\n            // log the deployment of the new project\n            emit LogProject(winningProject.location, winningProject.cost, winningProject.creator, winningProject.name, winningProject.lat, winningProject.lng, true);\n        }\n    }\n\n  /**\n   * @dev Extends the period in which the crowdsale is open\n   * @param _days number of days to increased the closing time\n   */\n    function _extendClosingTime(uint256 _days) internal onlyWhileOpen {\n        closingTime = closingTime.add(_days.mul(1728000));\n    }\n\n  /**\n   * @dev Overrides Crowdsale fund forwarding, sending funds to crowdsale contract instead of wallet.\n   */\n    function _forwardFunds() internal {}\n}\n",
  "sourcePath": "/Users/matthewsteele/Desktop/ProjectFolder/genie-portal/truffle/contracts/GNITokenCrowdsale.sol",
  "compiler": {
    "name": "solc",
    "version": "0.4.24+commit.e67f0147.Emscripten.clang"
  },
  "schemaVersion": "2.0.1",
  "updatedAt": "2018-09-18T19:13:02.534Z"
}